{
	"contracts/Coin_contract.sol": {
		"Organization": {
			"abi": [
				{
					"inputs": [],
					"stateMutability": "nonpayable",
					"type": "constructor"
				},
				{
					"inputs": [
						{
							"internalType": "uint256",
							"name": "ETH_amount",
							"type": "uint256"
						}
					],
					"name": "buyStablecoinForETH",
					"outputs": [],
					"stateMutability": "payable",
					"type": "function"
				},
				{
					"inputs": [
						{
							"internalType": "uint256",
							"name": "amount",
							"type": "uint256"
						}
					],
					"name": "depositETH",
					"outputs": [],
					"stateMutability": "payable",
					"type": "function"
				},
				{
					"inputs": [],
					"name": "getEthPriceCZK",
					"outputs": [
						{
							"internalType": "uint256",
							"name": "",
							"type": "uint256"
						}
					],
					"stateMutability": "view",
					"type": "function"
				},
				{
					"inputs": [],
					"name": "getVaultBalance",
					"outputs": [
						{
							"internalType": "uint256",
							"name": "",
							"type": "uint256"
						}
					],
					"stateMutability": "view",
					"type": "function"
				},
				{
					"inputs": [
						{
							"internalType": "uint256",
							"name": "stable_tokens",
							"type": "uint256"
						}
					],
					"name": "sellStablecoinForETH",
					"outputs": [],
					"stateMutability": "nonpayable",
					"type": "function"
				},
				{
					"inputs": [
						{
							"internalType": "address",
							"name": "",
							"type": "address"
						}
					],
					"name": "wards",
					"outputs": [
						{
							"internalType": "uint256",
							"name": "",
							"type": "uint256"
						}
					],
					"stateMutability": "view",
					"type": "function"
				},
				{
					"inputs": [],
					"name": "withdrawETH",
					"outputs": [],
					"stateMutability": "nonpayable",
					"type": "function"
				}
			],
			"devdoc": {
				"kind": "dev",
				"methods": {},
				"version": 1
			},
			"evm": {
				"assembly": "    /* \"contracts/Coin_contract.sol\":3066:5657  contract Organization \r... */\n  mstore(0x40, 0x80)\n    /* \"contracts/Coin_contract.sol\":3376:3378  22 */\n  0x16\n    /* \"contracts/Coin_contract.sol\":3360:3378  uint USDinCZK = 22 */\n  0x03\n  sstore\n    /* \"contracts/Coin_contract.sol\":3421:3749  constructor() \r... */\n  callvalue\n  dup1\n  iszero\n  tag_1\n  jumpi\n  0x00\n  dup1\n  revert\ntag_1:\n  pop\n    /* \"contracts/Coin_contract.sol\":3472:3473  1 */\n  0x01\n    /* \"contracts/Coin_contract.sol\":3452:3457  wards */\n  0x00\n    /* \"contracts/Coin_contract.sol\":3452:3469  wards[msg.sender] */\n  dup1\n    /* \"contracts/Coin_contract.sol\":3458:3468  msg.sender */\n  caller\n    /* \"contracts/Coin_contract.sol\":3452:3469  wards[msg.sender] */\n  0xffffffffffffffffffffffffffffffffffffffff\n  and\n  0xffffffffffffffffffffffffffffffffffffffff\n  and\n  dup2\n  mstore\n  0x20\n  add\n  swap1\n  dup2\n  mstore\n  0x20\n  add\n  0x00\n  keccak256\n    /* \"contracts/Coin_contract.sol\":3452:3473  wards[msg.sender] = 1 */\n  dup2\n  swap1\n  sstore\n  pop\n    /* \"contracts/Coin_contract.sol\":3499:3515  new StableCoin() */\n  mload(0x40)\n  tag_4\n  swap1\n  tag_5\n  jump\t// in\ntag_4:\n  mload(0x40)\n  dup1\n  swap2\n  sub\n  swap1\n  0x00\n  create\n  dup1\n  iszero\n  dup1\n  iszero\n  tag_6\n  jumpi\n  returndatasize\n  0x00\n  dup1\n  returndatacopy\n  revert(0x00, returndatasize)\ntag_6:\n  pop\n    /* \"contracts/Coin_contract.sol\":3484:3496  coinContract */\n  0x01\n  0x00\n    /* \"contracts/Coin_contract.sol\":3484:3515  coinContract = new StableCoin() */\n  0x0100\n  exp\n  dup2\n  sload\n  dup2\n  0xffffffffffffffffffffffffffffffffffffffff\n  mul\n  not\n  and\n  swap1\n  dup4\n  0xffffffffffffffffffffffffffffffffffffffff\n  and\n  mul\n  or\n  swap1\n  sstore\n  pop\n    /* \"contracts/Coin_contract.sol\":3698:3740  0x13e3Ee699D1909E989722E753853AE30b17e08c5 */\n  0x13e3ee699d1909e989722e753853ae30b17e08c5\n    /* \"contracts/Coin_contract.sol\":3664:3673  priceFeed */\n  0x02\n  0x00\n    /* \"contracts/Coin_contract.sol\":3664:3741  priceFeed = AggregatorV3Interface(0x13e3Ee699D1909E989722E753853AE30b17e08c5) */\n  0x0100\n  exp\n  dup2\n  sload\n  dup2\n  0xffffffffffffffffffffffffffffffffffffffff\n  mul\n  not\n  and\n  swap1\n  dup4\n  0xffffffffffffffffffffffffffffffffffffffff\n  and\n  mul\n  or\n  swap1\n  sstore\n  pop\n    /* \"contracts/Coin_contract.sol\":3066:5657  contract Organization \r... */\n  jump(tag_7)\ntag_5:\n  dataSize(sub_1)\n  dup1\n  dataOffset(sub_1)\n  dup4\n  codecopy\n  add\n  swap1\n  jump\t// out\ntag_7:\n  dataSize(sub_0)\n  dup1\n  dataOffset(sub_0)\n  0x00\n  codecopy\n  0x00\n  return\nstop\n\nsub_0: assembly {\n        /* \"contracts/Coin_contract.sol\":3066:5657  contract Organization \r... */\n      mstore(0x40, 0x80)\n      jumpi(tag_1, lt(calldatasize, 0x04))\n      shr(0xe0, calldataload(0x00))\n      dup1\n      0xbf353dbb\n      gt\n      tag_9\n      jumpi\n      dup1\n      0xbf353dbb\n      eq\n      tag_5\n      jumpi\n      dup1\n      0xe086e5ec\n      eq\n      tag_6\n      jumpi\n      dup1\n      0xed12e8ef\n      eq\n      tag_7\n      jumpi\n      dup1\n      0xf68c3b96\n      eq\n      tag_8\n      jumpi\n      jump(tag_1)\n    tag_9:\n      dup1\n      0x41b33680\n      eq\n      tag_2\n      jumpi\n      dup1\n      0x5358fbda\n      eq\n      tag_3\n      jumpi\n      dup1\n      0x9f4fc5ca\n      eq\n      tag_4\n      jumpi\n    tag_1:\n      0x00\n      dup1\n      revert\n        /* \"contracts/Coin_contract.sol\":4178:4660  function getEthPriceCZK() public view returns (uint)\r... */\n    tag_2:\n      callvalue\n      dup1\n      iszero\n      tag_10\n      jumpi\n      0x00\n      dup1\n      revert\n    tag_10:\n      pop\n      tag_11\n      tag_12\n      jump\t// in\n    tag_11:\n      mload(0x40)\n      tag_13\n      swap2\n      swap1\n      tag_14\n      jump\t// in\n    tag_13:\n      mload(0x40)\n      dup1\n      swap2\n      sub\n      swap1\n      return\n        /* \"contracts/Coin_contract.sol\":3757:3860  function depositETH(uint256 amount) payable public\r... */\n    tag_3:\n      tag_15\n      0x04\n      dup1\n      calldatasize\n      sub\n      dup2\n      add\n      swap1\n      tag_16\n      swap2\n      swap1\n      tag_17\n      jump\t// in\n    tag_16:\n      tag_18\n      jump\t// in\n    tag_15:\n      stop\n        /* \"contracts/Coin_contract.sol\":4668:5017  function buyStablecoinForETH(uint256 ETH_amount) payable public\r... */\n    tag_4:\n      tag_19\n      0x04\n      dup1\n      calldatasize\n      sub\n      dup2\n      add\n      swap1\n      tag_20\n      swap2\n      swap1\n      tag_17\n      jump\t// in\n    tag_20:\n      tag_21\n      jump\t// in\n    tag_19:\n      stop\n        /* \"contracts/Coin_contract.sol\":3118:3156  mapping (address => uint) public wards */\n    tag_5:\n      callvalue\n      dup1\n      iszero\n      tag_22\n      jumpi\n      0x00\n      dup1\n      revert\n    tag_22:\n      pop\n      tag_23\n      0x04\n      dup1\n      calldatasize\n      sub\n      dup2\n      add\n      swap1\n      tag_24\n      swap2\n      swap1\n      tag_25\n      jump\t// in\n    tag_24:\n      tag_26\n      jump\t// in\n    tag_23:\n      mload(0x40)\n      tag_27\n      swap2\n      swap1\n      tag_14\n      jump\t// in\n    tag_27:\n      mload(0x40)\n      dup1\n      swap2\n      sub\n      swap1\n      return\n        /* \"contracts/Coin_contract.sol\":3868:4009  function withdrawETH() public auth \r... */\n    tag_6:\n      callvalue\n      dup1\n      iszero\n      tag_28\n      jumpi\n      0x00\n      dup1\n      revert\n    tag_28:\n      pop\n      tag_29\n      tag_30\n      jump\t// in\n    tag_29:\n      stop\n        /* \"contracts/Coin_contract.sol\":4021:4128  function getVaultBalance() public view returns (uint) \r... */\n    tag_7:\n      callvalue\n      dup1\n      iszero\n      tag_31\n      jumpi\n      0x00\n      dup1\n      revert\n    tag_31:\n      pop\n      tag_32\n      tag_33\n      jump\t// in\n    tag_32:\n      mload(0x40)\n      tag_34\n      swap2\n      swap1\n      tag_14\n      jump\t// in\n    tag_34:\n      mload(0x40)\n      dup1\n      swap2\n      sub\n      swap1\n      return\n        /* \"contracts/Coin_contract.sol\":5025:5654  function sellStablecoinForETH(uint256 stable_tokens) public  \r... */\n    tag_8:\n      callvalue\n      dup1\n      iszero\n      tag_35\n      jumpi\n      0x00\n      dup1\n      revert\n    tag_35:\n      pop\n      tag_36\n      0x04\n      dup1\n      calldatasize\n      sub\n      dup2\n      add\n      swap1\n      tag_37\n      swap2\n      swap1\n      tag_17\n      jump\t// in\n    tag_37:\n      tag_38\n      jump\t// in\n    tag_36:\n      stop\n        /* \"contracts/Coin_contract.sol\":4178:4660  function getEthPriceCZK() public view returns (uint)\r... */\n    tag_12:\n        /* \"contracts/Coin_contract.sol\":4225:4229  uint */\n      0x00\n        /* \"contracts/Coin_contract.sol\":4350:4359  int price */\n      dup1\n        /* \"contracts/Coin_contract.sol\":4480:4489  priceFeed */\n      0x02\n      0x00\n      swap1\n      sload\n      swap1\n      0x0100\n      exp\n      swap1\n      div\n      0xffffffffffffffffffffffffffffffffffffffff\n      and\n        /* \"contracts/Coin_contract.sol\":4480:4505  priceFeed.latestRoundData */\n      0xffffffffffffffffffffffffffffffffffffffff\n      and\n      0xfeaf968c\n        /* \"contracts/Coin_contract.sol\":4480:4507  priceFeed.latestRoundData() */\n      mload(0x40)\n      dup2\n      0xffffffff\n      and\n      0xe0\n      shl\n      dup2\n      mstore\n      0x04\n      add\n      0xa0\n      mload(0x40)\n      dup1\n      dup4\n      sub\n      dup2\n      dup7\n      dup1\n      extcodesize\n      iszero\n      dup1\n      iszero\n      tag_40\n      jumpi\n      0x00\n      dup1\n      revert\n    tag_40:\n      pop\n      gas\n      staticcall\n      iszero\n      dup1\n      iszero\n      tag_42\n      jumpi\n      returndatasize\n      0x00\n      dup1\n      returndatacopy\n      revert(0x00, returndatasize)\n    tag_42:\n      pop\n      pop\n      pop\n      pop\n      mload(0x40)\n      returndatasize\n      not(0x1f)\n      0x1f\n      dup3\n      add\n      and\n      dup3\n      add\n      dup1\n      0x40\n      mstore\n      pop\n      dup2\n      add\n      swap1\n      tag_43\n      swap2\n      swap1\n      tag_44\n      jump\t// in\n    tag_43:\n        /* \"contracts/Coin_contract.sol\":4302:4507  (\r... */\n      pop\n      pop\n      pop\n      swap2\n      pop\n      pop\n        /* \"contracts/Coin_contract.sol\":4647:4652  30000 */\n      0x7530\n        /* \"contracts/Coin_contract.sol\":4640:4652  return 30000 */\n      swap2\n      pop\n      pop\n        /* \"contracts/Coin_contract.sol\":4178:4660  function getEthPriceCZK() public view returns (uint)\r... */\n      swap1\n      jump\t// out\n        /* \"contracts/Coin_contract.sol\":3757:3860  function depositETH(uint256 amount) payable public\r... */\n    tag_18:\n        /* \"contracts/Coin_contract.sol\":3845:3851  amount */\n      dup1\n        /* \"contracts/Coin_contract.sol\":3832:3841  msg.value */\n      callvalue\n        /* \"contracts/Coin_contract.sol\":3832:3851  msg.value == amount */\n      eq\n        /* \"contracts/Coin_contract.sol\":3824:3852  require(msg.value == amount) */\n      tag_46\n      jumpi\n      0x00\n      dup1\n      revert\n    tag_46:\n        /* \"contracts/Coin_contract.sol\":3757:3860  function depositETH(uint256 amount) payable public\r... */\n      pop\n      jump\t// out\n        /* \"contracts/Coin_contract.sol\":4668:5017  function buyStablecoinForETH(uint256 ETH_amount) payable public\r... */\n    tag_21:\n        /* \"contracts/Coin_contract.sol\":4769:4779  ETH_amount */\n      dup1\n        /* \"contracts/Coin_contract.sol\":4756:4765  msg.value */\n      callvalue\n        /* \"contracts/Coin_contract.sol\":4756:4779  msg.value == ETH_amount */\n      eq\n        /* \"contracts/Coin_contract.sol\":4748:4780  require(msg.value == ETH_amount) */\n      tag_48\n      jumpi\n      0x00\n      dup1\n      revert\n    tag_48:\n        /* \"contracts/Coin_contract.sol\":4850:4861  uint amount */\n      0x00\n        /* \"contracts/Coin_contract.sol\":4900:4919  1000000000000000000 */\n      0x0de0b6b3a7640000\n        /* \"contracts/Coin_contract.sol\":4879:4895  getEthPriceCZK() */\n      tag_49\n        /* \"contracts/Coin_contract.sol\":4879:4893  getEthPriceCZK */\n      tag_12\n        /* \"contracts/Coin_contract.sol\":4879:4895  getEthPriceCZK() */\n      jump\t// in\n    tag_49:\n        /* \"contracts/Coin_contract.sol\":4866:4876  ETH_amount */\n      dup4\n        /* \"contracts/Coin_contract.sol\":4866:4895  ETH_amount * getEthPriceCZK() */\n      tag_50\n      swap2\n      swap1\n      tag_51\n      jump\t// in\n    tag_50:\n        /* \"contracts/Coin_contract.sol\":4864:4919  ( ETH_amount * getEthPriceCZK() ) / 1000000000000000000 */\n      tag_52\n      swap2\n      swap1\n      tag_53\n      jump\t// in\n    tag_52:\n        /* \"contracts/Coin_contract.sol\":4850:4919  uint amount = ( ETH_amount * getEthPriceCZK() ) / 1000000000000000000 */\n      swap1\n      pop\n        /* \"contracts/Coin_contract.sol\":4972:4984  coinContract */\n      0x01\n      0x00\n      swap1\n      sload\n      swap1\n      0x0100\n      exp\n      swap1\n      div\n      0xffffffffffffffffffffffffffffffffffffffff\n      and\n        /* \"contracts/Coin_contract.sol\":4972:4989  coinContract.mint */\n      0xffffffffffffffffffffffffffffffffffffffff\n      and\n      0x40c10f19\n        /* \"contracts/Coin_contract.sol\":4990:5000  msg.sender */\n      caller\n        /* \"contracts/Coin_contract.sol\":5002:5008  amount */\n      dup4\n        /* \"contracts/Coin_contract.sol\":4972:5009  coinContract.mint(msg.sender, amount) */\n      mload(0x40)\n      dup4\n      0xffffffff\n      and\n      0xe0\n      shl\n      dup2\n      mstore\n      0x04\n      add\n      tag_54\n      swap3\n      swap2\n      swap1\n      tag_55\n      jump\t// in\n    tag_54:\n      0x00\n      mload(0x40)\n      dup1\n      dup4\n      sub\n      dup2\n      0x00\n      dup8\n      dup1\n      extcodesize\n      iszero\n      dup1\n      iszero\n      tag_56\n      jumpi\n      0x00\n      dup1\n      revert\n    tag_56:\n      pop\n      gas\n      call\n      iszero\n      dup1\n      iszero\n      tag_58\n      jumpi\n      returndatasize\n      0x00\n      dup1\n      returndatacopy\n      revert(0x00, returndatasize)\n    tag_58:\n      pop\n      pop\n      pop\n      pop\n        /* \"contracts/Coin_contract.sol\":4737:5017  {\r... */\n      pop\n        /* \"contracts/Coin_contract.sol\":4668:5017  function buyStablecoinForETH(uint256 ETH_amount) payable public\r... */\n      pop\n      jump\t// out\n        /* \"contracts/Coin_contract.sol\":3118:3156  mapping (address => uint) public wards */\n    tag_26:\n      mstore(0x20, 0x00)\n      dup1\n      0x00\n      mstore\n      keccak256(0x00, 0x40)\n      0x00\n      swap2\n      pop\n      swap1\n      pop\n      sload\n      dup2\n      jump\t// out\n        /* \"contracts/Coin_contract.sol\":3868:4009  function withdrawETH() public auth \r... */\n    tag_30:\n        /* \"contracts/Coin_contract.sol\":3223:3224  1 */\n      0x01\n        /* \"contracts/Coin_contract.sol\":3202:3207  wards */\n      0x00\n        /* \"contracts/Coin_contract.sol\":3202:3219  wards[msg.sender] */\n      dup1\n        /* \"contracts/Coin_contract.sol\":3208:3218  msg.sender */\n      caller\n        /* \"contracts/Coin_contract.sol\":3202:3219  wards[msg.sender] */\n      0xffffffffffffffffffffffffffffffffffffffff\n      and\n      0xffffffffffffffffffffffffffffffffffffffff\n      and\n      dup2\n      mstore\n      0x20\n      add\n      swap1\n      dup2\n      mstore\n      0x20\n      add\n      0x00\n      keccak256\n      sload\n        /* \"contracts/Coin_contract.sol\":3202:3224  wards[msg.sender] == 1 */\n      eq\n        /* \"contracts/Coin_contract.sol\":3194:3243  require(wards[msg.sender] == 1, \"Not-authorized\") */\n      tag_60\n      jumpi\n      mload(0x40)\n      0x08c379a000000000000000000000000000000000000000000000000000000000\n      dup2\n      mstore\n      0x04\n      add\n      tag_61\n      swap1\n      tag_62\n      jump\t// in\n    tag_61:\n      mload(0x40)\n      dup1\n      swap2\n      sub\n      swap1\n      revert\n    tag_60:\n        /* \"contracts/Coin_contract.sol\":3920:3938  address payable to */\n      0x00\n        /* \"contracts/Coin_contract.sol\":3949:3959  msg.sender */\n      caller\n        /* \"contracts/Coin_contract.sol\":3920:3960  address payable to = payable(msg.sender) */\n      swap1\n      pop\n        /* \"contracts/Coin_contract.sol\":3971:3973  to */\n      dup1\n        /* \"contracts/Coin_contract.sol\":3971:3982  to.transfer */\n      0xffffffffffffffffffffffffffffffffffffffff\n      and\n        /* \"contracts/Coin_contract.sol\":3971:4001  to.transfer(getVaultBalance()) */\n      0x08fc\n        /* \"contracts/Coin_contract.sol\":3983:4000  getVaultBalance() */\n      tag_64\n        /* \"contracts/Coin_contract.sol\":3983:3998  getVaultBalance */\n      tag_33\n        /* \"contracts/Coin_contract.sol\":3983:4000  getVaultBalance() */\n      jump\t// in\n    tag_64:\n        /* \"contracts/Coin_contract.sol\":3971:4001  to.transfer(getVaultBalance()) */\n      swap1\n      dup2\n      iszero\n      mul\n      swap1\n      mload(0x40)\n      0x00\n      mload(0x40)\n      dup1\n      dup4\n      sub\n      dup2\n      dup6\n      dup9\n      dup9\n      call\n      swap4\n      pop\n      pop\n      pop\n      pop\n      iszero\n      dup1\n      iszero\n      tag_66\n      jumpi\n      returndatasize\n      0x00\n      dup1\n      returndatacopy\n      revert(0x00, returndatasize)\n    tag_66:\n      pop\n        /* \"contracts/Coin_contract.sol\":3909:4009  {\r... */\n      pop\n        /* \"contracts/Coin_contract.sol\":3868:4009  function withdrawETH() public auth \r... */\n      jump\t// out\n        /* \"contracts/Coin_contract.sol\":4021:4128  function getVaultBalance() public view returns (uint) \r... */\n    tag_33:\n        /* \"contracts/Coin_contract.sol\":4069:4073  uint */\n      0x00\n        /* \"contracts/Coin_contract.sol\":4099:4120  address(this).balance */\n      selfbalance\n        /* \"contracts/Coin_contract.sol\":4092:4120  return address(this).balance */\n      swap1\n      pop\n        /* \"contracts/Coin_contract.sol\":4021:4128  function getVaultBalance() public view returns (uint) \r... */\n      swap1\n      jump\t// out\n        /* \"contracts/Coin_contract.sol\":5025:5654  function sellStablecoinForETH(uint256 stable_tokens) public  \r... */\n    tag_38:\n        /* \"contracts/Coin_contract.sol\":5217:5230  stable_tokens */\n      dup1\n        /* \"contracts/Coin_contract.sol\":5179:5191  coinContract */\n      0x01\n      0x00\n      swap1\n      sload\n      swap1\n      0x0100\n      exp\n      swap1\n      div\n      0xffffffffffffffffffffffffffffffffffffffff\n      and\n        /* \"contracts/Coin_contract.sol\":5179:5201  coinContract.balanceOf */\n      0xffffffffffffffffffffffffffffffffffffffff\n      and\n      0x70a08231\n        /* \"contracts/Coin_contract.sol\":5202:5212  msg.sender */\n      caller\n        /* \"contracts/Coin_contract.sol\":5179:5213  coinContract.balanceOf(msg.sender) */\n      mload(0x40)\n      dup3\n      0xffffffff\n      and\n      0xe0\n      shl\n      dup2\n      mstore\n      0x04\n      add\n      tag_69\n      swap2\n      swap1\n      tag_70\n      jump\t// in\n    tag_69:\n      0x20\n      mload(0x40)\n      dup1\n      dup4\n      sub\n      dup2\n      dup7\n      dup1\n      extcodesize\n      iszero\n      dup1\n      iszero\n      tag_71\n      jumpi\n      0x00\n      dup1\n      revert\n    tag_71:\n      pop\n      gas\n      staticcall\n      iszero\n      dup1\n      iszero\n      tag_73\n      jumpi\n      returndatasize\n      0x00\n      dup1\n      returndatacopy\n      revert(0x00, returndatasize)\n    tag_73:\n      pop\n      pop\n      pop\n      pop\n      mload(0x40)\n      returndatasize\n      not(0x1f)\n      0x1f\n      dup3\n      add\n      and\n      dup3\n      add\n      dup1\n      0x40\n      mstore\n      pop\n      dup2\n      add\n      swap1\n      tag_74\n      swap2\n      swap1\n      tag_75\n      jump\t// in\n    tag_74:\n        /* \"contracts/Coin_contract.sol\":5179:5230  coinContract.balanceOf(msg.sender) >= stable_tokens */\n      lt\n      iszero\n        /* \"contracts/Coin_contract.sol\":5171:5255  require(coinContract.balanceOf(msg.sender) >= stable_tokens, \"insufficient-balance\") */\n      tag_76\n      jumpi\n      mload(0x40)\n      0x08c379a000000000000000000000000000000000000000000000000000000000\n      dup2\n      mstore\n      0x04\n      add\n      tag_77\n      swap1\n      tag_78\n      jump\t// in\n    tag_77:\n      mload(0x40)\n      dup1\n      swap2\n      sub\n      swap1\n      revert\n    tag_76:\n        /* \"contracts/Coin_contract.sol\":5309:5323  uint ethToSend */\n      0x00\n        /* \"contracts/Coin_contract.sol\":5367:5383  getEthPriceCZK() */\n      tag_79\n        /* \"contracts/Coin_contract.sol\":5367:5381  getEthPriceCZK */\n      tag_12\n        /* \"contracts/Coin_contract.sol\":5367:5383  getEthPriceCZK() */\n      jump\t// in\n    tag_79:\n        /* \"contracts/Coin_contract.sol\":5344:5363  1000000000000000000 */\n      0x0de0b6b3a7640000\n        /* \"contracts/Coin_contract.sol\":5328:5341  stable_tokens */\n      dup4\n        /* \"contracts/Coin_contract.sol\":5328:5363  stable_tokens * 1000000000000000000 */\n      tag_80\n      swap2\n      swap1\n      tag_51\n      jump\t// in\n    tag_80:\n        /* \"contracts/Coin_contract.sol\":5326:5383  ( stable_tokens * 1000000000000000000) / getEthPriceCZK() */\n      tag_81\n      swap2\n      swap1\n      tag_53\n      jump\t// in\n    tag_81:\n        /* \"contracts/Coin_contract.sol\":5309:5383  uint ethToSend = ( stable_tokens * 1000000000000000000) / getEthPriceCZK() */\n      swap1\n      pop\n        /* \"contracts/Coin_contract.sol\":5415:5432  getVaultBalance() */\n      tag_82\n        /* \"contracts/Coin_contract.sol\":5415:5430  getVaultBalance */\n      tag_33\n        /* \"contracts/Coin_contract.sol\":5415:5432  getVaultBalance() */\n      jump\t// in\n    tag_82:\n        /* \"contracts/Coin_contract.sol\":5402:5411  ethToSend */\n      dup2\n        /* \"contracts/Coin_contract.sol\":5402:5432  ethToSend <= getVaultBalance() */\n      gt\n      iszero\n        /* \"contracts/Coin_contract.sol\":5394:5470  require(ethToSend <= getVaultBalance(), \"Collateral vault was liquidated !\") */\n      tag_83\n      jumpi\n      mload(0x40)\n      0x08c379a000000000000000000000000000000000000000000000000000000000\n      dup2\n      mstore\n      0x04\n      add\n      tag_84\n      swap1\n      tag_85\n      jump\t// in\n    tag_84:\n      mload(0x40)\n      dup1\n      swap2\n      sub\n      swap1\n      revert\n    tag_83:\n        /* \"contracts/Coin_contract.sol\":5481:5499  address payable to */\n      0x00\n        /* \"contracts/Coin_contract.sol\":5510:5520  msg.sender */\n      caller\n        /* \"contracts/Coin_contract.sol\":5481:5521  address payable to = payable(msg.sender) */\n      swap1\n      pop\n        /* \"contracts/Coin_contract.sol\":5532:5534  to */\n      dup1\n        /* \"contracts/Coin_contract.sol\":5532:5543  to.transfer */\n      0xffffffffffffffffffffffffffffffffffffffff\n      and\n        /* \"contracts/Coin_contract.sol\":5532:5554  to.transfer(ethToSend) */\n      0x08fc\n        /* \"contracts/Coin_contract.sol\":5544:5553  ethToSend */\n      dup4\n        /* \"contracts/Coin_contract.sol\":5532:5554  to.transfer(ethToSend) */\n      swap1\n      dup2\n      iszero\n      mul\n      swap1\n      mload(0x40)\n      0x00\n      mload(0x40)\n      dup1\n      dup4\n      sub\n      dup2\n      dup6\n      dup9\n      dup9\n      call\n      swap4\n      pop\n      pop\n      pop\n      pop\n      iszero\n      dup1\n      iszero\n      tag_87\n      jumpi\n      returndatasize\n      0x00\n      dup1\n      returndatacopy\n      revert(0x00, returndatasize)\n    tag_87:\n      pop\n        /* \"contracts/Coin_contract.sol\":5602:5614  coinContract */\n      0x01\n      0x00\n      swap1\n      sload\n      swap1\n      0x0100\n      exp\n      swap1\n      div\n      0xffffffffffffffffffffffffffffffffffffffff\n      and\n        /* \"contracts/Coin_contract.sol\":5602:5619  coinContract.burn */\n      0xffffffffffffffffffffffffffffffffffffffff\n      and\n      0x9dc29fac\n        /* \"contracts/Coin_contract.sol\":5620:5630  msg.sender */\n      caller\n        /* \"contracts/Coin_contract.sol\":5632:5645  stable_tokens */\n      dup6\n        /* \"contracts/Coin_contract.sol\":5602:5646  coinContract.burn(msg.sender, stable_tokens) */\n      mload(0x40)\n      dup4\n      0xffffffff\n      and\n      0xe0\n      shl\n      dup2\n      mstore\n      0x04\n      add\n      tag_88\n      swap3\n      swap2\n      swap1\n      tag_55\n      jump\t// in\n    tag_88:\n      0x00\n      mload(0x40)\n      dup1\n      dup4\n      sub\n      dup2\n      0x00\n      dup8\n      dup1\n      extcodesize\n      iszero\n      dup1\n      iszero\n      tag_89\n      jumpi\n      0x00\n      dup1\n      revert\n    tag_89:\n      pop\n      gas\n      call\n      iszero\n      dup1\n      iszero\n      tag_91\n      jumpi\n      returndatasize\n      0x00\n      dup1\n      returndatacopy\n      revert(0x00, returndatasize)\n    tag_91:\n      pop\n      pop\n      pop\n      pop\n        /* \"contracts/Coin_contract.sol\":5092:5654  {\r... */\n      pop\n      pop\n        /* \"contracts/Coin_contract.sol\":5025:5654  function sellStablecoinForETH(uint256 stable_tokens) public  \r... */\n      pop\n      jump\t// out\n        /* \"#utility.yul\":7:146   */\n    tag_93:\n        /* \"#utility.yul\":53:58   */\n      0x00\n        /* \"#utility.yul\":91:97   */\n      dup2\n        /* \"#utility.yul\":78:98   */\n      calldataload\n        /* \"#utility.yul\":69:98   */\n      swap1\n      pop\n        /* \"#utility.yul\":107:140   */\n      tag_95\n        /* \"#utility.yul\":134:139   */\n      dup2\n        /* \"#utility.yul\":107:140   */\n      tag_96\n      jump\t// in\n    tag_95:\n        /* \"#utility.yul\":7:146   */\n      swap3\n      swap2\n      pop\n      pop\n      jump\t// out\n        /* \"#utility.yul\":152:293   */\n    tag_97:\n        /* \"#utility.yul\":208:213   */\n      0x00\n        /* \"#utility.yul\":239:245   */\n      dup2\n        /* \"#utility.yul\":233:246   */\n      mload\n        /* \"#utility.yul\":224:246   */\n      swap1\n      pop\n        /* \"#utility.yul\":255:287   */\n      tag_99\n        /* \"#utility.yul\":281:286   */\n      dup2\n        /* \"#utility.yul\":255:287   */\n      tag_100\n      jump\t// in\n    tag_99:\n        /* \"#utility.yul\":152:293   */\n      swap3\n      swap2\n      pop\n      pop\n      jump\t// out\n        /* \"#utility.yul\":299:438   */\n    tag_101:\n        /* \"#utility.yul\":345:350   */\n      0x00\n        /* \"#utility.yul\":383:389   */\n      dup2\n        /* \"#utility.yul\":370:390   */\n      calldataload\n        /* \"#utility.yul\":361:390   */\n      swap1\n      pop\n        /* \"#utility.yul\":399:432   */\n      tag_103\n        /* \"#utility.yul\":426:431   */\n      dup2\n        /* \"#utility.yul\":399:432   */\n      tag_104\n      jump\t// in\n    tag_103:\n        /* \"#utility.yul\":299:438   */\n      swap3\n      swap2\n      pop\n      pop\n      jump\t// out\n        /* \"#utility.yul\":444:587   */\n    tag_105:\n        /* \"#utility.yul\":501:506   */\n      0x00\n        /* \"#utility.yul\":532:538   */\n      dup2\n        /* \"#utility.yul\":526:539   */\n      mload\n        /* \"#utility.yul\":517:539   */\n      swap1\n      pop\n        /* \"#utility.yul\":548:581   */\n      tag_107\n        /* \"#utility.yul\":575:580   */\n      dup2\n        /* \"#utility.yul\":548:581   */\n      tag_104\n      jump\t// in\n    tag_107:\n        /* \"#utility.yul\":444:587   */\n      swap3\n      swap2\n      pop\n      pop\n      jump\t// out\n        /* \"#utility.yul\":593:734   */\n    tag_108:\n        /* \"#utility.yul\":649:654   */\n      0x00\n        /* \"#utility.yul\":680:686   */\n      dup2\n        /* \"#utility.yul\":674:687   */\n      mload\n        /* \"#utility.yul\":665:687   */\n      swap1\n      pop\n        /* \"#utility.yul\":696:728   */\n      tag_110\n        /* \"#utility.yul\":722:727   */\n      dup2\n        /* \"#utility.yul\":696:728   */\n      tag_111\n      jump\t// in\n    tag_110:\n        /* \"#utility.yul\":593:734   */\n      swap3\n      swap2\n      pop\n      pop\n      jump\t// out\n        /* \"#utility.yul\":740:1069   */\n    tag_25:\n        /* \"#utility.yul\":799:805   */\n      0x00\n        /* \"#utility.yul\":848:850   */\n      0x20\n        /* \"#utility.yul\":836:845   */\n      dup3\n        /* \"#utility.yul\":827:834   */\n      dup5\n        /* \"#utility.yul\":823:846   */\n      sub\n        /* \"#utility.yul\":819:851   */\n      slt\n        /* \"#utility.yul\":816:935   */\n      iszero\n      tag_113\n      jumpi\n        /* \"#utility.yul\":854:933   */\n      tag_114\n      tag_115\n      jump\t// in\n    tag_114:\n        /* \"#utility.yul\":816:935   */\n    tag_113:\n        /* \"#utility.yul\":974:975   */\n      0x00\n        /* \"#utility.yul\":999:1052   */\n      tag_116\n        /* \"#utility.yul\":1044:1051   */\n      dup5\n        /* \"#utility.yul\":1035:1041   */\n      dup3\n        /* \"#utility.yul\":1024:1033   */\n      dup6\n        /* \"#utility.yul\":1020:1042   */\n      add\n        /* \"#utility.yul\":999:1052   */\n      tag_93\n      jump\t// in\n    tag_116:\n        /* \"#utility.yul\":989:1052   */\n      swap2\n      pop\n        /* \"#utility.yul\":945:1062   */\n      pop\n        /* \"#utility.yul\":740:1069   */\n      swap3\n      swap2\n      pop\n      pop\n      jump\t// out\n        /* \"#utility.yul\":1075:1404   */\n    tag_17:\n        /* \"#utility.yul\":1134:1140   */\n      0x00\n        /* \"#utility.yul\":1183:1185   */\n      0x20\n        /* \"#utility.yul\":1171:1180   */\n      dup3\n        /* \"#utility.yul\":1162:1169   */\n      dup5\n        /* \"#utility.yul\":1158:1181   */\n      sub\n        /* \"#utility.yul\":1154:1186   */\n      slt\n        /* \"#utility.yul\":1151:1270   */\n      iszero\n      tag_118\n      jumpi\n        /* \"#utility.yul\":1189:1268   */\n      tag_119\n      tag_115\n      jump\t// in\n    tag_119:\n        /* \"#utility.yul\":1151:1270   */\n    tag_118:\n        /* \"#utility.yul\":1309:1310   */\n      0x00\n        /* \"#utility.yul\":1334:1387   */\n      tag_120\n        /* \"#utility.yul\":1379:1386   */\n      dup5\n        /* \"#utility.yul\":1370:1376   */\n      dup3\n        /* \"#utility.yul\":1359:1368   */\n      dup6\n        /* \"#utility.yul\":1355:1377   */\n      add\n        /* \"#utility.yul\":1334:1387   */\n      tag_101\n      jump\t// in\n    tag_120:\n        /* \"#utility.yul\":1324:1387   */\n      swap2\n      pop\n        /* \"#utility.yul\":1280:1397   */\n      pop\n        /* \"#utility.yul\":1075:1404   */\n      swap3\n      swap2\n      pop\n      pop\n      jump\t// out\n        /* \"#utility.yul\":1410:1761   */\n    tag_75:\n        /* \"#utility.yul\":1480:1486   */\n      0x00\n        /* \"#utility.yul\":1529:1531   */\n      0x20\n        /* \"#utility.yul\":1517:1526   */\n      dup3\n        /* \"#utility.yul\":1508:1515   */\n      dup5\n        /* \"#utility.yul\":1504:1527   */\n      sub\n        /* \"#utility.yul\":1500:1532   */\n      slt\n        /* \"#utility.yul\":1497:1616   */\n      iszero\n      tag_122\n      jumpi\n        /* \"#utility.yul\":1535:1614   */\n      tag_123\n      tag_115\n      jump\t// in\n    tag_123:\n        /* \"#utility.yul\":1497:1616   */\n    tag_122:\n        /* \"#utility.yul\":1655:1656   */\n      0x00\n        /* \"#utility.yul\":1680:1744   */\n      tag_124\n        /* \"#utility.yul\":1736:1743   */\n      dup5\n        /* \"#utility.yul\":1727:1733   */\n      dup3\n        /* \"#utility.yul\":1716:1725   */\n      dup6\n        /* \"#utility.yul\":1712:1734   */\n      add\n        /* \"#utility.yul\":1680:1744   */\n      tag_105\n      jump\t// in\n    tag_124:\n        /* \"#utility.yul\":1670:1744   */\n      swap2\n      pop\n        /* \"#utility.yul\":1626:1754   */\n      pop\n        /* \"#utility.yul\":1410:1761   */\n      swap3\n      swap2\n      pop\n      pop\n      jump\t// out\n        /* \"#utility.yul\":1767:2738   */\n    tag_44:\n        /* \"#utility.yul\":1870:1876   */\n      0x00\n        /* \"#utility.yul\":1878:1884   */\n      dup1\n        /* \"#utility.yul\":1886:1892   */\n      0x00\n        /* \"#utility.yul\":1894:1900   */\n      dup1\n        /* \"#utility.yul\":1902:1908   */\n      0x00\n        /* \"#utility.yul\":1951:1954   */\n      0xa0\n        /* \"#utility.yul\":1939:1948   */\n      dup7\n        /* \"#utility.yul\":1930:1937   */\n      dup9\n        /* \"#utility.yul\":1926:1949   */\n      sub\n        /* \"#utility.yul\":1922:1955   */\n      slt\n        /* \"#utility.yul\":1919:2039   */\n      iszero\n      tag_126\n      jumpi\n        /* \"#utility.yul\":1958:2037   */\n      tag_127\n      tag_115\n      jump\t// in\n    tag_127:\n        /* \"#utility.yul\":1919:2039   */\n    tag_126:\n        /* \"#utility.yul\":2078:2079   */\n      0x00\n        /* \"#utility.yul\":2103:2166   */\n      tag_128\n        /* \"#utility.yul\":2158:2165   */\n      dup9\n        /* \"#utility.yul\":2149:2155   */\n      dup3\n        /* \"#utility.yul\":2138:2147   */\n      dup10\n        /* \"#utility.yul\":2134:2156   */\n      add\n        /* \"#utility.yul\":2103:2166   */\n      tag_108\n      jump\t// in\n    tag_128:\n        /* \"#utility.yul\":2093:2166   */\n      swap6\n      pop\n        /* \"#utility.yul\":2049:2176   */\n      pop\n        /* \"#utility.yul\":2215:2217   */\n      0x20\n        /* \"#utility.yul\":2241:2304   */\n      tag_129\n        /* \"#utility.yul\":2296:2303   */\n      dup9\n        /* \"#utility.yul\":2287:2293   */\n      dup3\n        /* \"#utility.yul\":2276:2285   */\n      dup10\n        /* \"#utility.yul\":2272:2294   */\n      add\n        /* \"#utility.yul\":2241:2304   */\n      tag_97\n      jump\t// in\n    tag_129:\n        /* \"#utility.yul\":2231:2304   */\n      swap5\n      pop\n        /* \"#utility.yul\":2186:2314   */\n      pop\n        /* \"#utility.yul\":2353:2355   */\n      0x40\n        /* \"#utility.yul\":2379:2443   */\n      tag_130\n        /* \"#utility.yul\":2435:2442   */\n      dup9\n        /* \"#utility.yul\":2426:2432   */\n      dup3\n        /* \"#utility.yul\":2415:2424   */\n      dup10\n        /* \"#utility.yul\":2411:2433   */\n      add\n        /* \"#utility.yul\":2379:2443   */\n      tag_105\n      jump\t// in\n    tag_130:\n        /* \"#utility.yul\":2369:2443   */\n      swap4\n      pop\n        /* \"#utility.yul\":2324:2453   */\n      pop\n        /* \"#utility.yul\":2492:2494   */\n      0x60\n        /* \"#utility.yul\":2518:2582   */\n      tag_131\n        /* \"#utility.yul\":2574:2581   */\n      dup9\n        /* \"#utility.yul\":2565:2571   */\n      dup3\n        /* \"#utility.yul\":2554:2563   */\n      dup10\n        /* \"#utility.yul\":2550:2572   */\n      add\n        /* \"#utility.yul\":2518:2582   */\n      tag_105\n      jump\t// in\n    tag_131:\n        /* \"#utility.yul\":2508:2582   */\n      swap3\n      pop\n        /* \"#utility.yul\":2463:2592   */\n      pop\n        /* \"#utility.yul\":2631:2634   */\n      0x80\n        /* \"#utility.yul\":2658:2721   */\n      tag_132\n        /* \"#utility.yul\":2713:2720   */\n      dup9\n        /* \"#utility.yul\":2704:2710   */\n      dup3\n        /* \"#utility.yul\":2693:2702   */\n      dup10\n        /* \"#utility.yul\":2689:2711   */\n      add\n        /* \"#utility.yul\":2658:2721   */\n      tag_108\n      jump\t// in\n    tag_132:\n        /* \"#utility.yul\":2648:2721   */\n      swap2\n      pop\n        /* \"#utility.yul\":2602:2731   */\n      pop\n        /* \"#utility.yul\":1767:2738   */\n      swap3\n      swap6\n      pop\n      swap3\n      swap6\n      swap1\n      swap4\n      pop\n      jump\t// out\n        /* \"#utility.yul\":2744:2862   */\n    tag_133:\n        /* \"#utility.yul\":2831:2855   */\n      tag_135\n        /* \"#utility.yul\":2849:2854   */\n      dup2\n        /* \"#utility.yul\":2831:2855   */\n      tag_136\n      jump\t// in\n    tag_135:\n        /* \"#utility.yul\":2826:2829   */\n      dup3\n        /* \"#utility.yul\":2819:2856   */\n      mstore\n        /* \"#utility.yul\":2744:2862   */\n      pop\n      pop\n      jump\t// out\n        /* \"#utility.yul\":2868:3234   */\n    tag_137:\n        /* \"#utility.yul\":3010:3013   */\n      0x00\n        /* \"#utility.yul\":3031:3098   */\n      tag_139\n        /* \"#utility.yul\":3095:3097   */\n      0x21\n        /* \"#utility.yul\":3090:3093   */\n      dup4\n        /* \"#utility.yul\":3031:3098   */\n      tag_140\n      jump\t// in\n    tag_139:\n        /* \"#utility.yul\":3024:3098   */\n      swap2\n      pop\n        /* \"#utility.yul\":3107:3200   */\n      tag_141\n        /* \"#utility.yul\":3196:3199   */\n      dup3\n        /* \"#utility.yul\":3107:3200   */\n      tag_142\n      jump\t// in\n    tag_141:\n        /* \"#utility.yul\":3225:3227   */\n      0x40\n        /* \"#utility.yul\":3220:3223   */\n      dup3\n        /* \"#utility.yul\":3216:3228   */\n      add\n        /* \"#utility.yul\":3209:3228   */\n      swap1\n      pop\n        /* \"#utility.yul\":2868:3234   */\n      swap2\n      swap1\n      pop\n      jump\t// out\n        /* \"#utility.yul\":3240:3606   */\n    tag_143:\n        /* \"#utility.yul\":3382:3385   */\n      0x00\n        /* \"#utility.yul\":3403:3470   */\n      tag_145\n        /* \"#utility.yul\":3467:3469   */\n      0x14\n        /* \"#utility.yul\":3462:3465   */\n      dup4\n        /* \"#utility.yul\":3403:3470   */\n      tag_140\n      jump\t// in\n    tag_145:\n        /* \"#utility.yul\":3396:3470   */\n      swap2\n      pop\n        /* \"#utility.yul\":3479:3572   */\n      tag_146\n        /* \"#utility.yul\":3568:3571   */\n      dup3\n        /* \"#utility.yul\":3479:3572   */\n      tag_147\n      jump\t// in\n    tag_146:\n        /* \"#utility.yul\":3597:3599   */\n      0x20\n        /* \"#utility.yul\":3592:3595   */\n      dup3\n        /* \"#utility.yul\":3588:3600   */\n      add\n        /* \"#utility.yul\":3581:3600   */\n      swap1\n      pop\n        /* \"#utility.yul\":3240:3606   */\n      swap2\n      swap1\n      pop\n      jump\t// out\n        /* \"#utility.yul\":3612:3978   */\n    tag_148:\n        /* \"#utility.yul\":3754:3757   */\n      0x00\n        /* \"#utility.yul\":3775:3842   */\n      tag_150\n        /* \"#utility.yul\":3839:3841   */\n      0x0e\n        /* \"#utility.yul\":3834:3837   */\n      dup4\n        /* \"#utility.yul\":3775:3842   */\n      tag_140\n      jump\t// in\n    tag_150:\n        /* \"#utility.yul\":3768:3842   */\n      swap2\n      pop\n        /* \"#utility.yul\":3851:3944   */\n      tag_151\n        /* \"#utility.yul\":3940:3943   */\n      dup3\n        /* \"#utility.yul\":3851:3944   */\n      tag_152\n      jump\t// in\n    tag_151:\n        /* \"#utility.yul\":3969:3971   */\n      0x20\n        /* \"#utility.yul\":3964:3967   */\n      dup3\n        /* \"#utility.yul\":3960:3972   */\n      add\n        /* \"#utility.yul\":3953:3972   */\n      swap1\n      pop\n        /* \"#utility.yul\":3612:3978   */\n      swap2\n      swap1\n      pop\n      jump\t// out\n        /* \"#utility.yul\":3984:4102   */\n    tag_153:\n        /* \"#utility.yul\":4071:4095   */\n      tag_155\n        /* \"#utility.yul\":4089:4094   */\n      dup2\n        /* \"#utility.yul\":4071:4095   */\n      tag_156\n      jump\t// in\n    tag_155:\n        /* \"#utility.yul\":4066:4069   */\n      dup3\n        /* \"#utility.yul\":4059:4096   */\n      mstore\n        /* \"#utility.yul\":3984:4102   */\n      pop\n      pop\n      jump\t// out\n        /* \"#utility.yul\":4108:4330   */\n    tag_70:\n        /* \"#utility.yul\":4201:4205   */\n      0x00\n        /* \"#utility.yul\":4239:4241   */\n      0x20\n        /* \"#utility.yul\":4228:4237   */\n      dup3\n        /* \"#utility.yul\":4224:4242   */\n      add\n        /* \"#utility.yul\":4216:4242   */\n      swap1\n      pop\n        /* \"#utility.yul\":4252:4323   */\n      tag_158\n        /* \"#utility.yul\":4320:4321   */\n      0x00\n        /* \"#utility.yul\":4309:4318   */\n      dup4\n        /* \"#utility.yul\":4305:4322   */\n      add\n        /* \"#utility.yul\":4296:4302   */\n      dup5\n        /* \"#utility.yul\":4252:4323   */\n      tag_133\n      jump\t// in\n    tag_158:\n        /* \"#utility.yul\":4108:4330   */\n      swap3\n      swap2\n      pop\n      pop\n      jump\t// out\n        /* \"#utility.yul\":4336:4668   */\n    tag_55:\n        /* \"#utility.yul\":4457:4461   */\n      0x00\n        /* \"#utility.yul\":4495:4497   */\n      0x40\n        /* \"#utility.yul\":4484:4493   */\n      dup3\n        /* \"#utility.yul\":4480:4498   */\n      add\n        /* \"#utility.yul\":4472:4498   */\n      swap1\n      pop\n        /* \"#utility.yul\":4508:4579   */\n      tag_160\n        /* \"#utility.yul\":4576:4577   */\n      0x00\n        /* \"#utility.yul\":4565:4574   */\n      dup4\n        /* \"#utility.yul\":4561:4578   */\n      add\n        /* \"#utility.yul\":4552:4558   */\n      dup6\n        /* \"#utility.yul\":4508:4579   */\n      tag_133\n      jump\t// in\n    tag_160:\n        /* \"#utility.yul\":4589:4661   */\n      tag_161\n        /* \"#utility.yul\":4657:4659   */\n      0x20\n        /* \"#utility.yul\":4646:4655   */\n      dup4\n        /* \"#utility.yul\":4642:4660   */\n      add\n        /* \"#utility.yul\":4633:4639   */\n      dup5\n        /* \"#utility.yul\":4589:4661   */\n      tag_153\n      jump\t// in\n    tag_161:\n        /* \"#utility.yul\":4336:4668   */\n      swap4\n      swap3\n      pop\n      pop\n      pop\n      jump\t// out\n        /* \"#utility.yul\":4674:5093   */\n    tag_85:\n        /* \"#utility.yul\":4840:4844   */\n      0x00\n        /* \"#utility.yul\":4878:4880   */\n      0x20\n        /* \"#utility.yul\":4867:4876   */\n      dup3\n        /* \"#utility.yul\":4863:4881   */\n      add\n        /* \"#utility.yul\":4855:4881   */\n      swap1\n      pop\n        /* \"#utility.yul\":4927:4936   */\n      dup2\n        /* \"#utility.yul\":4921:4925   */\n      dup2\n        /* \"#utility.yul\":4917:4937   */\n      sub\n        /* \"#utility.yul\":4913:4914   */\n      0x00\n        /* \"#utility.yul\":4902:4911   */\n      dup4\n        /* \"#utility.yul\":4898:4915   */\n      add\n        /* \"#utility.yul\":4891:4938   */\n      mstore\n        /* \"#utility.yul\":4955:5086   */\n      tag_163\n        /* \"#utility.yul\":5081:5085   */\n      dup2\n        /* \"#utility.yul\":4955:5086   */\n      tag_137\n      jump\t// in\n    tag_163:\n        /* \"#utility.yul\":4947:5086   */\n      swap1\n      pop\n        /* \"#utility.yul\":4674:5093   */\n      swap2\n      swap1\n      pop\n      jump\t// out\n        /* \"#utility.yul\":5099:5518   */\n    tag_78:\n        /* \"#utility.yul\":5265:5269   */\n      0x00\n        /* \"#utility.yul\":5303:5305   */\n      0x20\n        /* \"#utility.yul\":5292:5301   */\n      dup3\n        /* \"#utility.yul\":5288:5306   */\n      add\n        /* \"#utility.yul\":5280:5306   */\n      swap1\n      pop\n        /* \"#utility.yul\":5352:5361   */\n      dup2\n        /* \"#utility.yul\":5346:5350   */\n      dup2\n        /* \"#utility.yul\":5342:5362   */\n      sub\n        /* \"#utility.yul\":5338:5339   */\n      0x00\n        /* \"#utility.yul\":5327:5336   */\n      dup4\n        /* \"#utility.yul\":5323:5340   */\n      add\n        /* \"#utility.yul\":5316:5363   */\n      mstore\n        /* \"#utility.yul\":5380:5511   */\n      tag_165\n        /* \"#utility.yul\":5506:5510   */\n      dup2\n        /* \"#utility.yul\":5380:5511   */\n      tag_143\n      jump\t// in\n    tag_165:\n        /* \"#utility.yul\":5372:5511   */\n      swap1\n      pop\n        /* \"#utility.yul\":5099:5518   */\n      swap2\n      swap1\n      pop\n      jump\t// out\n        /* \"#utility.yul\":5524:5943   */\n    tag_62:\n        /* \"#utility.yul\":5690:5694   */\n      0x00\n        /* \"#utility.yul\":5728:5730   */\n      0x20\n        /* \"#utility.yul\":5717:5726   */\n      dup3\n        /* \"#utility.yul\":5713:5731   */\n      add\n        /* \"#utility.yul\":5705:5731   */\n      swap1\n      pop\n        /* \"#utility.yul\":5777:5786   */\n      dup2\n        /* \"#utility.yul\":5771:5775   */\n      dup2\n        /* \"#utility.yul\":5767:5787   */\n      sub\n        /* \"#utility.yul\":5763:5764   */\n      0x00\n        /* \"#utility.yul\":5752:5761   */\n      dup4\n        /* \"#utility.yul\":5748:5765   */\n      add\n        /* \"#utility.yul\":5741:5788   */\n      mstore\n        /* \"#utility.yul\":5805:5936   */\n      tag_167\n        /* \"#utility.yul\":5931:5935   */\n      dup2\n        /* \"#utility.yul\":5805:5936   */\n      tag_148\n      jump\t// in\n    tag_167:\n        /* \"#utility.yul\":5797:5936   */\n      swap1\n      pop\n        /* \"#utility.yul\":5524:5943   */\n      swap2\n      swap1\n      pop\n      jump\t// out\n        /* \"#utility.yul\":5949:6171   */\n    tag_14:\n        /* \"#utility.yul\":6042:6046   */\n      0x00\n        /* \"#utility.yul\":6080:6082   */\n      0x20\n        /* \"#utility.yul\":6069:6078   */\n      dup3\n        /* \"#utility.yul\":6065:6083   */\n      add\n        /* \"#utility.yul\":6057:6083   */\n      swap1\n      pop\n        /* \"#utility.yul\":6093:6164   */\n      tag_169\n        /* \"#utility.yul\":6161:6162   */\n      0x00\n        /* \"#utility.yul\":6150:6159   */\n      dup4\n        /* \"#utility.yul\":6146:6163   */\n      add\n        /* \"#utility.yul\":6137:6143   */\n      dup5\n        /* \"#utility.yul\":6093:6164   */\n      tag_153\n      jump\t// in\n    tag_169:\n        /* \"#utility.yul\":5949:6171   */\n      swap3\n      swap2\n      pop\n      pop\n      jump\t// out\n        /* \"#utility.yul\":6258:6427   */\n    tag_140:\n        /* \"#utility.yul\":6342:6353   */\n      0x00\n        /* \"#utility.yul\":6376:6382   */\n      dup3\n        /* \"#utility.yul\":6371:6374   */\n      dup3\n        /* \"#utility.yul\":6364:6383   */\n      mstore\n        /* \"#utility.yul\":6416:6420   */\n      0x20\n        /* \"#utility.yul\":6411:6414   */\n      dup3\n        /* \"#utility.yul\":6407:6421   */\n      add\n        /* \"#utility.yul\":6392:6421   */\n      swap1\n      pop\n        /* \"#utility.yul\":6258:6427   */\n      swap3\n      swap2\n      pop\n      pop\n      jump\t// out\n        /* \"#utility.yul\":6433:6618   */\n    tag_53:\n        /* \"#utility.yul\":6473:6474   */\n      0x00\n        /* \"#utility.yul\":6490:6510   */\n      tag_174\n        /* \"#utility.yul\":6508:6509   */\n      dup3\n        /* \"#utility.yul\":6490:6510   */\n      tag_156\n      jump\t// in\n    tag_174:\n        /* \"#utility.yul\":6485:6510   */\n      swap2\n      pop\n        /* \"#utility.yul\":6524:6544   */\n      tag_175\n        /* \"#utility.yul\":6542:6543   */\n      dup4\n        /* \"#utility.yul\":6524:6544   */\n      tag_156\n      jump\t// in\n    tag_175:\n        /* \"#utility.yul\":6519:6544   */\n      swap3\n      pop\n        /* \"#utility.yul\":6563:6564   */\n      dup3\n        /* \"#utility.yul\":6553:6588   */\n      tag_176\n      jumpi\n        /* \"#utility.yul\":6568:6586   */\n      tag_177\n      tag_178\n      jump\t// in\n    tag_177:\n        /* \"#utility.yul\":6553:6588   */\n    tag_176:\n        /* \"#utility.yul\":6610:6611   */\n      dup3\n        /* \"#utility.yul\":6607:6608   */\n      dup3\n        /* \"#utility.yul\":6603:6612   */\n      div\n        /* \"#utility.yul\":6598:6612   */\n      swap1\n      pop\n        /* \"#utility.yul\":6433:6618   */\n      swap3\n      swap2\n      pop\n      pop\n      jump\t// out\n        /* \"#utility.yul\":6624:6972   */\n    tag_51:\n        /* \"#utility.yul\":6664:6671   */\n      0x00\n        /* \"#utility.yul\":6687:6707   */\n      tag_180\n        /* \"#utility.yul\":6705:6706   */\n      dup3\n        /* \"#utility.yul\":6687:6707   */\n      tag_156\n      jump\t// in\n    tag_180:\n        /* \"#utility.yul\":6682:6707   */\n      swap2\n      pop\n        /* \"#utility.yul\":6721:6741   */\n      tag_181\n        /* \"#utility.yul\":6739:6740   */\n      dup4\n        /* \"#utility.yul\":6721:6741   */\n      tag_156\n      jump\t// in\n    tag_181:\n        /* \"#utility.yul\":6716:6741   */\n      swap3\n      pop\n        /* \"#utility.yul\":6909:6910   */\n      dup2\n        /* \"#utility.yul\":6841:6907   */\n      0xffffffffffffffffffffffffffffffffffffffffffffffffffffffffffffffff\n        /* \"#utility.yul\":6837:6911   */\n      div\n        /* \"#utility.yul\":6834:6835   */\n      dup4\n        /* \"#utility.yul\":6831:6912   */\n      gt\n        /* \"#utility.yul\":6826:6827   */\n      dup3\n        /* \"#utility.yul\":6819:6828   */\n      iszero\n        /* \"#utility.yul\":6812:6829   */\n      iszero\n        /* \"#utility.yul\":6808:6913   */\n      and\n        /* \"#utility.yul\":6805:6936   */\n      iszero\n      tag_182\n      jumpi\n        /* \"#utility.yul\":6916:6934   */\n      tag_183\n      tag_184\n      jump\t// in\n    tag_183:\n        /* \"#utility.yul\":6805:6936   */\n    tag_182:\n        /* \"#utility.yul\":6964:6965   */\n      dup3\n        /* \"#utility.yul\":6961:6962   */\n      dup3\n        /* \"#utility.yul\":6957:6966   */\n      mul\n        /* \"#utility.yul\":6946:6966   */\n      swap1\n      pop\n        /* \"#utility.yul\":6624:6972   */\n      swap3\n      swap2\n      pop\n      pop\n      jump\t// out\n        /* \"#utility.yul\":6978:7074   */\n    tag_136:\n        /* \"#utility.yul\":7015:7022   */\n      0x00\n        /* \"#utility.yul\":7044:7068   */\n      tag_186\n        /* \"#utility.yul\":7062:7067   */\n      dup3\n        /* \"#utility.yul\":7044:7068   */\n      tag_187\n      jump\t// in\n    tag_186:\n        /* \"#utility.yul\":7033:7068   */\n      swap1\n      pop\n        /* \"#utility.yul\":6978:7074   */\n      swap2\n      swap1\n      pop\n      jump\t// out\n        /* \"#utility.yul\":7080:7156   */\n    tag_188:\n        /* \"#utility.yul\":7116:7123   */\n      0x00\n        /* \"#utility.yul\":7145:7150   */\n      dup2\n        /* \"#utility.yul\":7134:7150   */\n      swap1\n      pop\n        /* \"#utility.yul\":7080:7156   */\n      swap2\n      swap1\n      pop\n      jump\t// out\n        /* \"#utility.yul\":7162:7288   */\n    tag_187:\n        /* \"#utility.yul\":7199:7206   */\n      0x00\n        /* \"#utility.yul\":7239:7281   */\n      0xffffffffffffffffffffffffffffffffffffffff\n        /* \"#utility.yul\":7232:7237   */\n      dup3\n        /* \"#utility.yul\":7228:7282   */\n      and\n        /* \"#utility.yul\":7217:7282   */\n      swap1\n      pop\n        /* \"#utility.yul\":7162:7288   */\n      swap2\n      swap1\n      pop\n      jump\t// out\n        /* \"#utility.yul\":7294:7371   */\n    tag_156:\n        /* \"#utility.yul\":7331:7338   */\n      0x00\n        /* \"#utility.yul\":7360:7365   */\n      dup2\n        /* \"#utility.yul\":7349:7365   */\n      swap1\n      pop\n        /* \"#utility.yul\":7294:7371   */\n      swap2\n      swap1\n      pop\n      jump\t// out\n        /* \"#utility.yul\":7377:7482   */\n    tag_192:\n        /* \"#utility.yul\":7413:7420   */\n      0x00\n        /* \"#utility.yul\":7453:7475   */\n      0xffffffffffffffffffff\n        /* \"#utility.yul\":7446:7451   */\n      dup3\n        /* \"#utility.yul\":7442:7476   */\n      and\n        /* \"#utility.yul\":7431:7476   */\n      swap1\n      pop\n        /* \"#utility.yul\":7377:7482   */\n      swap2\n      swap1\n      pop\n      jump\t// out\n        /* \"#utility.yul\":7488:7668   */\n    tag_184:\n        /* \"#utility.yul\":7536:7613   */\n      0x4e487b7100000000000000000000000000000000000000000000000000000000\n        /* \"#utility.yul\":7533:7534   */\n      0x00\n        /* \"#utility.yul\":7526:7614   */\n      mstore\n        /* \"#utility.yul\":7633:7637   */\n      0x11\n        /* \"#utility.yul\":7630:7631   */\n      0x04\n        /* \"#utility.yul\":7623:7638   */\n      mstore\n        /* \"#utility.yul\":7657:7661   */\n      0x24\n        /* \"#utility.yul\":7654:7655   */\n      0x00\n        /* \"#utility.yul\":7647:7662   */\n      revert\n        /* \"#utility.yul\":7674:7854   */\n    tag_178:\n        /* \"#utility.yul\":7722:7799   */\n      0x4e487b7100000000000000000000000000000000000000000000000000000000\n        /* \"#utility.yul\":7719:7720   */\n      0x00\n        /* \"#utility.yul\":7712:7800   */\n      mstore\n        /* \"#utility.yul\":7819:7823   */\n      0x12\n        /* \"#utility.yul\":7816:7817   */\n      0x04\n        /* \"#utility.yul\":7809:7824   */\n      mstore\n        /* \"#utility.yul\":7843:7847   */\n      0x24\n        /* \"#utility.yul\":7840:7841   */\n      0x00\n        /* \"#utility.yul\":7833:7848   */\n      revert\n        /* \"#utility.yul\":7983:8100   */\n    tag_115:\n        /* \"#utility.yul\":8092:8093   */\n      0x00\n        /* \"#utility.yul\":8089:8090   */\n      dup1\n        /* \"#utility.yul\":8082:8094   */\n      revert\n        /* \"#utility.yul\":8106:8326   */\n    tag_142:\n        /* \"#utility.yul\":8246:8280   */\n      0x436f6c6c61746572616c207661756c7420776173206c69717569646174656420\n        /* \"#utility.yul\":8242:8243   */\n      0x00\n        /* \"#utility.yul\":8234:8240   */\n      dup3\n        /* \"#utility.yul\":8230:8244   */\n      add\n        /* \"#utility.yul\":8223:8281   */\n      mstore\n        /* \"#utility.yul\":8315:8318   */\n      0x2100000000000000000000000000000000000000000000000000000000000000\n        /* \"#utility.yul\":8310:8312   */\n      0x20\n        /* \"#utility.yul\":8302:8308   */\n      dup3\n        /* \"#utility.yul\":8298:8313   */\n      add\n        /* \"#utility.yul\":8291:8319   */\n      mstore\n        /* \"#utility.yul\":8106:8326   */\n      pop\n      jump\t// out\n        /* \"#utility.yul\":8332:8502   */\n    tag_147:\n        /* \"#utility.yul\":8472:8494   */\n      0x696e73756666696369656e742d62616c616e6365000000000000000000000000\n        /* \"#utility.yul\":8468:8469   */\n      0x00\n        /* \"#utility.yul\":8460:8466   */\n      dup3\n        /* \"#utility.yul\":8456:8470   */\n      add\n        /* \"#utility.yul\":8449:8495   */\n      mstore\n        /* \"#utility.yul\":8332:8502   */\n      pop\n      jump\t// out\n        /* \"#utility.yul\":8508:8672   */\n    tag_152:\n        /* \"#utility.yul\":8648:8664   */\n      0x4e6f742d617574686f72697a6564000000000000000000000000000000000000\n        /* \"#utility.yul\":8644:8645   */\n      0x00\n        /* \"#utility.yul\":8636:8642   */\n      dup3\n        /* \"#utility.yul\":8632:8646   */\n      add\n        /* \"#utility.yul\":8625:8665   */\n      mstore\n        /* \"#utility.yul\":8508:8672   */\n      pop\n      jump\t// out\n        /* \"#utility.yul\":8678:8800   */\n    tag_96:\n        /* \"#utility.yul\":8751:8775   */\n      tag_203\n        /* \"#utility.yul\":8769:8774   */\n      dup2\n        /* \"#utility.yul\":8751:8775   */\n      tag_136\n      jump\t// in\n    tag_203:\n        /* \"#utility.yul\":8744:8749   */\n      dup2\n        /* \"#utility.yul\":8741:8776   */\n      eq\n        /* \"#utility.yul\":8731:8794   */\n      tag_204\n      jumpi\n        /* \"#utility.yul\":8790:8791   */\n      0x00\n        /* \"#utility.yul\":8787:8788   */\n      dup1\n        /* \"#utility.yul\":8780:8792   */\n      revert\n        /* \"#utility.yul\":8731:8794   */\n    tag_204:\n        /* \"#utility.yul\":8678:8800   */\n      pop\n      jump\t// out\n        /* \"#utility.yul\":8806:8926   */\n    tag_100:\n        /* \"#utility.yul\":8878:8901   */\n      tag_206\n        /* \"#utility.yul\":8895:8900   */\n      dup2\n        /* \"#utility.yul\":8878:8901   */\n      tag_188\n      jump\t// in\n    tag_206:\n        /* \"#utility.yul\":8871:8876   */\n      dup2\n        /* \"#utility.yul\":8868:8902   */\n      eq\n        /* \"#utility.yul\":8858:8920   */\n      tag_207\n      jumpi\n        /* \"#utility.yul\":8916:8917   */\n      0x00\n        /* \"#utility.yul\":8913:8914   */\n      dup1\n        /* \"#utility.yul\":8906:8918   */\n      revert\n        /* \"#utility.yul\":8858:8920   */\n    tag_207:\n        /* \"#utility.yul\":8806:8926   */\n      pop\n      jump\t// out\n        /* \"#utility.yul\":8932:9054   */\n    tag_104:\n        /* \"#utility.yul\":9005:9029   */\n      tag_209\n        /* \"#utility.yul\":9023:9028   */\n      dup2\n        /* \"#utility.yul\":9005:9029   */\n      tag_156\n      jump\t// in\n    tag_209:\n        /* \"#utility.yul\":8998:9003   */\n      dup2\n        /* \"#utility.yul\":8995:9030   */\n      eq\n        /* \"#utility.yul\":8985:9048   */\n      tag_210\n      jumpi\n        /* \"#utility.yul\":9044:9045   */\n      0x00\n        /* \"#utility.yul\":9041:9042   */\n      dup1\n        /* \"#utility.yul\":9034:9046   */\n      revert\n        /* \"#utility.yul\":8985:9048   */\n    tag_210:\n        /* \"#utility.yul\":8932:9054   */\n      pop\n      jump\t// out\n        /* \"#utility.yul\":9060:9180   */\n    tag_111:\n        /* \"#utility.yul\":9132:9155   */\n      tag_212\n        /* \"#utility.yul\":9149:9154   */\n      dup2\n        /* \"#utility.yul\":9132:9155   */\n      tag_192\n      jump\t// in\n    tag_212:\n        /* \"#utility.yul\":9125:9130   */\n      dup2\n        /* \"#utility.yul\":9122:9156   */\n      eq\n        /* \"#utility.yul\":9112:9174   */\n      tag_213\n      jumpi\n        /* \"#utility.yul\":9170:9171   */\n      0x00\n        /* \"#utility.yul\":9167:9168   */\n      dup1\n        /* \"#utility.yul\":9160:9172   */\n      revert\n        /* \"#utility.yul\":9112:9174   */\n    tag_213:\n        /* \"#utility.yul\":9060:9180   */\n      pop\n      jump\t// out\n\n    auxdata: 0xa26469706673582212203597d300c3082deb985111e34c24c16fe0103463db9de794e74e713f276649ac64736f6c63430008070033\n}\n\nsub_1: assembly {\n        /* \"contracts/Coin_contract.sol\":154:3058  contract StableCoin \r... */\n      mstore(0x40, 0x80)\n        /* \"contracts/Coin_contract.sol\":1039:1126  constructor() \r... */\n      callvalue\n      dup1\n      iszero\n      tag_1\n      jumpi\n      0x00\n      dup1\n      revert\n    tag_1:\n      pop\n        /* \"contracts/Coin_contract.sol\":1090:1091  1 */\n      0x01\n        /* \"contracts/Coin_contract.sol\":1070:1075  wards */\n      0x00\n        /* \"contracts/Coin_contract.sol\":1070:1087  wards[msg.sender] */\n      dup1\n        /* \"contracts/Coin_contract.sol\":1076:1086  msg.sender */\n      caller\n        /* \"contracts/Coin_contract.sol\":1070:1087  wards[msg.sender] */\n      0xffffffffffffffffffffffffffffffffffffffff\n      and\n      0xffffffffffffffffffffffffffffffffffffffff\n      and\n      dup2\n      mstore\n      0x20\n      add\n      swap1\n      dup2\n      mstore\n      0x20\n      add\n      0x00\n      keccak256\n        /* \"contracts/Coin_contract.sol\":1070:1091  wards[msg.sender] = 1 */\n      dup2\n      swap1\n      sstore\n      pop\n        /* \"contracts/Coin_contract.sol\":1117:1118  0 */\n      0x00\n        /* \"contracts/Coin_contract.sol\":1102:1114  totalSupply_ */\n      0x01\n        /* \"contracts/Coin_contract.sol\":1102:1118  totalSupply_ = 0 */\n      dup2\n      swap1\n      sstore\n      pop\n        /* \"contracts/Coin_contract.sol\":154:3058  contract StableCoin \r... */\n      dataSize(sub_0)\n      dup1\n      dataOffset(sub_0)\n      0x00\n      codecopy\n      0x00\n      return\n    stop\n\n    sub_0: assembly {\n            /* \"contracts/Coin_contract.sol\":154:3058  contract StableCoin \r... */\n          mstore(0x40, 0x80)\n          callvalue\n          dup1\n          iszero\n          tag_1\n          jumpi\n          0x00\n          dup1\n          revert\n        tag_1:\n          pop\n          jumpi(tag_2, lt(calldatasize, 0x04))\n          shr(0xe0, calldataload(0x00))\n          dup1\n          0x70a08231\n          gt\n          tag_15\n          jumpi\n          dup1\n          0x70a08231\n          eq\n          tag_9\n          jumpi\n          dup1\n          0x95d89b41\n          eq\n          tag_10\n          jumpi\n          dup1\n          0x9dc29fac\n          eq\n          tag_11\n          jumpi\n          dup1\n          0xa9059cbb\n          eq\n          tag_12\n          jumpi\n          dup1\n          0xbf353dbb\n          eq\n          tag_13\n          jumpi\n          dup1\n          0xdd62ed3e\n          eq\n          tag_14\n          jumpi\n          jump(tag_2)\n        tag_15:\n          dup1\n          0x06fdde03\n          eq\n          tag_3\n          jumpi\n          dup1\n          0x095ea7b3\n          eq\n          tag_4\n          jumpi\n          dup1\n          0x18160ddd\n          eq\n          tag_5\n          jumpi\n          dup1\n          0x23b872dd\n          eq\n          tag_6\n          jumpi\n          dup1\n          0x313ce567\n          eq\n          tag_7\n          jumpi\n          dup1\n          0x40c10f19\n          eq\n          tag_8\n          jumpi\n        tag_2:\n          0x00\n          dup1\n          revert\n            /* \"contracts/Coin_contract.sol\":522:562  string public constant name = \"SomeCoin\" */\n        tag_3:\n          tag_16\n          tag_17\n          jump\t// in\n        tag_16:\n          mload(0x40)\n          tag_18\n          swap2\n          swap1\n          tag_19\n          jump\t// in\n        tag_18:\n          mload(0x40)\n          dup1\n          swap2\n          sub\n          swap1\n          return\n            /* \"contracts/Coin_contract.sol\":2016:2234  function approve(address delegate, uint numTokens) public returns (bool) \r... */\n        tag_4:\n          tag_20\n          0x04\n          dup1\n          calldatasize\n          sub\n          dup2\n          add\n          swap1\n          tag_21\n          swap2\n          swap1\n          tag_22\n          jump\t// in\n        tag_21:\n          tag_23\n          jump\t// in\n        tag_20:\n          mload(0x40)\n          tag_24\n          swap2\n          swap1\n          tag_25\n          jump\t// in\n        tag_24:\n          mload(0x40)\n          dup1\n          swap2\n          sub\n          swap1\n          return\n            /* \"contracts/Coin_contract.sol\":1134:1229  function totalSupply() public view returns (uint256) \r... */\n        tag_5:\n          tag_26\n          tag_27\n          jump\t// in\n        tag_26:\n          mload(0x40)\n          tag_28\n          swap2\n          swap1\n          tag_29\n          jump\t// in\n        tag_28:\n          mload(0x40)\n          dup1\n          swap2\n          sub\n          swap1\n          return\n            /* \"contracts/Coin_contract.sol\":1522:2008  function transferFrom(address owner, address buyer, uint numTokens) public returns (bool) \r... */\n        tag_6:\n          tag_30\n          0x04\n          dup1\n          calldatasize\n          sub\n          dup2\n          add\n          swap1\n          tag_31\n          swap2\n          swap1\n          tag_32\n          jump\t// in\n        tag_31:\n          tag_33\n          jump\t// in\n        tag_30:\n          mload(0x40)\n          tag_34\n          swap2\n          swap1\n          tag_25\n          jump\t// in\n        tag_34:\n          mload(0x40)\n          dup1\n          swap2\n          sub\n          swap1\n          return\n            /* \"contracts/Coin_contract.sol\":612:646  uint8 public constant decimals = 0 */\n        tag_7:\n          tag_35\n          tag_36\n          jump\t// in\n        tag_35:\n          mload(0x40)\n          tag_37\n          swap2\n          swap1\n          tag_38\n          jump\t// in\n        tag_37:\n          mload(0x40)\n          dup1\n          swap2\n          sub\n          swap1\n          return\n            /* \"contracts/Coin_contract.sol\":2414:2623  function mint(address usr, uint wad) external auth \r... */\n        tag_8:\n          tag_39\n          0x04\n          dup1\n          calldatasize\n          sub\n          dup2\n          add\n          swap1\n          tag_40\n          swap2\n          swap1\n          tag_22\n          jump\t// in\n        tag_40:\n          tag_41\n          jump\t// in\n        tag_39:\n          stop\n            /* \"contracts/Coin_contract.sol\":1237:1355  function balanceOf(address tokenOwner) public view returns (uint) \r... */\n        tag_9:\n          tag_42\n          0x04\n          dup1\n          calldatasize\n          sub\n          dup2\n          add\n          swap1\n          tag_43\n          swap2\n          swap1\n          tag_44\n          jump\t// in\n        tag_43:\n          tag_45\n          jump\t// in\n        tag_42:\n          mload(0x40)\n          tag_46\n          swap2\n          swap1\n          tag_29\n          jump\t// in\n        tag_46:\n          mload(0x40)\n          dup1\n          swap2\n          sub\n          swap1\n          return\n            /* \"contracts/Coin_contract.sol\":569:605  string public constant symbol = \"SC\" */\n        tag_10:\n          tag_47\n          tag_48\n          jump\t// in\n        tag_47:\n          mload(0x40)\n          tag_49\n          swap2\n          swap1\n          tag_19\n          jump\t// in\n        tag_49:\n          mload(0x40)\n          dup1\n          swap2\n          sub\n          swap1\n          return\n            /* \"contracts/Coin_contract.sol\":2629:3055  function burn(address usr, uint wad) external auth \r... */\n        tag_11:\n          tag_50\n          0x04\n          dup1\n          calldatasize\n          sub\n          dup2\n          add\n          swap1\n          tag_51\n          swap2\n          swap1\n          tag_22\n          jump\t// in\n        tag_51:\n          tag_52\n          jump\t// in\n        tag_50:\n          stop\n            /* \"contracts/Coin_contract.sol\":1363:1514  function transfer(address receiver, uint numTokens) public returns (bool) \r... */\n        tag_12:\n          tag_53\n          0x04\n          dup1\n          calldatasize\n          sub\n          dup2\n          add\n          swap1\n          tag_54\n          swap2\n          swap1\n          tag_22\n          jump\t// in\n        tag_54:\n          tag_55\n          jump\t// in\n        tag_53:\n          mload(0x40)\n          tag_56\n          swap2\n          swap1\n          tag_25\n          jump\t// in\n        tag_56:\n          mload(0x40)\n          dup1\n          swap2\n          sub\n          swap1\n          return\n            /* \"contracts/Coin_contract.sol\":204:242  mapping (address => uint) public wards */\n        tag_13:\n          tag_57\n          0x04\n          dup1\n          calldatasize\n          sub\n          dup2\n          add\n          swap1\n          tag_58\n          swap2\n          swap1\n          tag_44\n          jump\t// in\n        tag_58:\n          tag_59\n          jump\t// in\n        tag_57:\n          mload(0x40)\n          tag_60\n          swap2\n          swap1\n          tag_29\n          jump\t// in\n        tag_60:\n          mload(0x40)\n          dup1\n          swap2\n          sub\n          swap1\n          return\n            /* \"contracts/Coin_contract.sol\":2242:2377  function allowance(address owner, address delegate) public view returns (uint) \r... */\n        tag_14:\n          tag_61\n          0x04\n          dup1\n          calldatasize\n          sub\n          dup2\n          add\n          swap1\n          tag_62\n          swap2\n          swap1\n          tag_63\n          jump\t// in\n        tag_62:\n          tag_64\n          jump\t// in\n        tag_61:\n          mload(0x40)\n          tag_65\n          swap2\n          swap1\n          tag_29\n          jump\t// in\n        tag_65:\n          mload(0x40)\n          dup1\n          swap2\n          sub\n          swap1\n          return\n            /* \"contracts/Coin_contract.sol\":522:562  string public constant name = \"SomeCoin\" */\n        tag_17:\n          mload(0x40)\n          dup1\n          0x40\n          add\n          0x40\n          mstore\n          dup1\n          0x08\n          dup2\n          mstore\n          0x20\n          add\n          0x536f6d65436f696e000000000000000000000000000000000000000000000000\n          dup2\n          mstore\n          pop\n          dup2\n          jump\t// out\n            /* \"contracts/Coin_contract.sol\":2016:2234  function approve(address delegate, uint numTokens) public returns (bool) \r... */\n        tag_23:\n            /* \"contracts/Coin_contract.sol\":2083:2087  bool */\n          0x00\n            /* \"contracts/Coin_contract.sol\":2138:2147  numTokens */\n          dup2\n            /* \"contracts/Coin_contract.sol\":2106:2113  allowed */\n          0x03\n            /* \"contracts/Coin_contract.sol\":2106:2125  allowed[msg.sender] */\n          0x00\n            /* \"contracts/Coin_contract.sol\":2114:2124  msg.sender */\n          caller\n            /* \"contracts/Coin_contract.sol\":2106:2125  allowed[msg.sender] */\n          0xffffffffffffffffffffffffffffffffffffffff\n          and\n          0xffffffffffffffffffffffffffffffffffffffff\n          and\n          dup2\n          mstore\n          0x20\n          add\n          swap1\n          dup2\n          mstore\n          0x20\n          add\n          0x00\n          keccak256\n            /* \"contracts/Coin_contract.sol\":2106:2135  allowed[msg.sender][delegate] */\n          0x00\n            /* \"contracts/Coin_contract.sol\":2126:2134  delegate */\n          dup6\n            /* \"contracts/Coin_contract.sol\":2106:2135  allowed[msg.sender][delegate] */\n          0xffffffffffffffffffffffffffffffffffffffff\n          and\n          0xffffffffffffffffffffffffffffffffffffffff\n          and\n          dup2\n          mstore\n          0x20\n          add\n          swap1\n          dup2\n          mstore\n          0x20\n          add\n          0x00\n          keccak256\n            /* \"contracts/Coin_contract.sol\":2106:2147  allowed[msg.sender][delegate] = numTokens */\n          dup2\n          swap1\n          sstore\n          pop\n            /* \"contracts/Coin_contract.sol\":2184:2192  delegate */\n          dup3\n            /* \"contracts/Coin_contract.sol\":2163:2204  Approval(msg.sender, delegate, numTokens) */\n          0xffffffffffffffffffffffffffffffffffffffff\n          and\n            /* \"contracts/Coin_contract.sol\":2172:2182  msg.sender */\n          caller\n            /* \"contracts/Coin_contract.sol\":2163:2204  Approval(msg.sender, delegate, numTokens) */\n          0xffffffffffffffffffffffffffffffffffffffff\n          and\n          0x8c5be1e5ebec7d5bd14f71427d1e84f3dd0314c0f7b2291e5b200ac8c7c3b925\n            /* \"contracts/Coin_contract.sol\":2194:2203  numTokens */\n          dup5\n            /* \"contracts/Coin_contract.sol\":2163:2204  Approval(msg.sender, delegate, numTokens) */\n          mload(0x40)\n          tag_67\n          swap2\n          swap1\n          tag_29\n          jump\t// in\n        tag_67:\n          mload(0x40)\n          dup1\n          swap2\n          sub\n          swap1\n          log3\n            /* \"contracts/Coin_contract.sol\":2222:2226  true */\n          0x01\n            /* \"contracts/Coin_contract.sol\":2215:2226  return true */\n          swap1\n          pop\n            /* \"contracts/Coin_contract.sol\":2016:2234  function approve(address delegate, uint numTokens) public returns (bool) \r... */\n          swap3\n          swap2\n          pop\n          pop\n          jump\t// out\n            /* \"contracts/Coin_contract.sol\":1134:1229  function totalSupply() public view returns (uint256) \r... */\n        tag_27:\n            /* \"contracts/Coin_contract.sol\":1178:1185  uint256 */\n          0x00\n            /* \"contracts/Coin_contract.sol\":1209:1221  totalSupply_ */\n          sload(0x01)\n            /* \"contracts/Coin_contract.sol\":1202:1221  return totalSupply_ */\n          swap1\n          pop\n            /* \"contracts/Coin_contract.sol\":1134:1229  function totalSupply() public view returns (uint256) \r... */\n          swap1\n          jump\t// out\n            /* \"contracts/Coin_contract.sol\":1522:2008  function transferFrom(address owner, address buyer, uint numTokens) public returns (bool) \r... */\n        tag_33:\n            /* \"contracts/Coin_contract.sol\":1606:1610  bool */\n          0x00\n            /* \"contracts/Coin_contract.sol\":1650:1658  balances */\n          0x02\n            /* \"contracts/Coin_contract.sol\":1650:1665  balances[owner] */\n          0x00\n            /* \"contracts/Coin_contract.sol\":1659:1664  owner */\n          dup6\n            /* \"contracts/Coin_contract.sol\":1650:1665  balances[owner] */\n          0xffffffffffffffffffffffffffffffffffffffff\n          and\n          0xffffffffffffffffffffffffffffffffffffffff\n          and\n          dup2\n          mstore\n          0x20\n          add\n          swap1\n          dup2\n          mstore\n          0x20\n          add\n          0x00\n          keccak256\n          sload\n            /* \"contracts/Coin_contract.sol\":1637:1646  numTokens */\n          dup3\n            /* \"contracts/Coin_contract.sol\":1637:1665  numTokens <= balances[owner] */\n          gt\n          iszero\n            /* \"contracts/Coin_contract.sol\":1629:1666  require(numTokens <= balances[owner]) */\n          tag_70\n          jumpi\n          0x00\n          dup1\n          revert\n        tag_70:\n            /* \"contracts/Coin_contract.sol\":1698:1705  allowed */\n          0x03\n            /* \"contracts/Coin_contract.sol\":1698:1712  allowed[owner] */\n          0x00\n            /* \"contracts/Coin_contract.sol\":1706:1711  owner */\n          dup6\n            /* \"contracts/Coin_contract.sol\":1698:1712  allowed[owner] */\n          0xffffffffffffffffffffffffffffffffffffffff\n          and\n          0xffffffffffffffffffffffffffffffffffffffff\n          and\n          dup2\n          mstore\n          0x20\n          add\n          swap1\n          dup2\n          mstore\n          0x20\n          add\n          0x00\n          keccak256\n            /* \"contracts/Coin_contract.sol\":1698:1724  allowed[owner][msg.sender] */\n          0x00\n            /* \"contracts/Coin_contract.sol\":1713:1723  msg.sender */\n          caller\n            /* \"contracts/Coin_contract.sol\":1698:1724  allowed[owner][msg.sender] */\n          0xffffffffffffffffffffffffffffffffffffffff\n          and\n          0xffffffffffffffffffffffffffffffffffffffff\n          and\n          dup2\n          mstore\n          0x20\n          add\n          swap1\n          dup2\n          mstore\n          0x20\n          add\n          0x00\n          keccak256\n          sload\n            /* \"contracts/Coin_contract.sol\":1685:1694  numTokens */\n          dup3\n            /* \"contracts/Coin_contract.sol\":1685:1724  numTokens <= allowed[owner][msg.sender] */\n          gt\n          iszero\n            /* \"contracts/Coin_contract.sol\":1677:1725  require(numTokens <= allowed[owner][msg.sender]) */\n          tag_71\n          jumpi\n          0x00\n          dup1\n          revert\n        tag_71:\n            /* \"contracts/Coin_contract.sol\":1765:1807  sub(allowed[owner][msg.sender], numTokens) */\n          tag_72\n            /* \"contracts/Coin_contract.sol\":1769:1776  allowed */\n          0x03\n            /* \"contracts/Coin_contract.sol\":1769:1783  allowed[owner] */\n          0x00\n            /* \"contracts/Coin_contract.sol\":1777:1782  owner */\n          dup7\n            /* \"contracts/Coin_contract.sol\":1769:1783  allowed[owner] */\n          0xffffffffffffffffffffffffffffffffffffffff\n          and\n          0xffffffffffffffffffffffffffffffffffffffff\n          and\n          dup2\n          mstore\n          0x20\n          add\n          swap1\n          dup2\n          mstore\n          0x20\n          add\n          0x00\n          keccak256\n            /* \"contracts/Coin_contract.sol\":1769:1795  allowed[owner][msg.sender] */\n          0x00\n            /* \"contracts/Coin_contract.sol\":1784:1794  msg.sender */\n          caller\n            /* \"contracts/Coin_contract.sol\":1769:1795  allowed[owner][msg.sender] */\n          0xffffffffffffffffffffffffffffffffffffffff\n          and\n          0xffffffffffffffffffffffffffffffffffffffff\n          and\n          dup2\n          mstore\n          0x20\n          add\n          swap1\n          dup2\n          mstore\n          0x20\n          add\n          0x00\n          keccak256\n          sload\n            /* \"contracts/Coin_contract.sol\":1797:1806  numTokens */\n          dup4\n            /* \"contracts/Coin_contract.sol\":1765:1768  sub */\n          tag_73\n            /* \"contracts/Coin_contract.sol\":1765:1807  sub(allowed[owner][msg.sender], numTokens) */\n          jump\t// in\n        tag_72:\n            /* \"contracts/Coin_contract.sol\":1736:1743  allowed */\n          0x03\n            /* \"contracts/Coin_contract.sol\":1736:1750  allowed[owner] */\n          0x00\n            /* \"contracts/Coin_contract.sol\":1744:1749  owner */\n          dup7\n            /* \"contracts/Coin_contract.sol\":1736:1750  allowed[owner] */\n          0xffffffffffffffffffffffffffffffffffffffff\n          and\n          0xffffffffffffffffffffffffffffffffffffffff\n          and\n          dup2\n          mstore\n          0x20\n          add\n          swap1\n          dup2\n          mstore\n          0x20\n          add\n          0x00\n          keccak256\n            /* \"contracts/Coin_contract.sol\":1736:1762  allowed[owner][msg.sender] */\n          0x00\n            /* \"contracts/Coin_contract.sol\":1751:1761  msg.sender */\n          caller\n            /* \"contracts/Coin_contract.sol\":1736:1762  allowed[owner][msg.sender] */\n          0xffffffffffffffffffffffffffffffffffffffff\n          and\n          0xffffffffffffffffffffffffffffffffffffffff\n          and\n          dup2\n          mstore\n          0x20\n          add\n          swap1\n          dup2\n          mstore\n          0x20\n          add\n          0x00\n          keccak256\n            /* \"contracts/Coin_contract.sol\":1736:1807  allowed[owner][msg.sender] = sub(allowed[owner][msg.sender], numTokens) */\n          dup2\n          swap1\n          sstore\n          pop\n            /* \"contracts/Coin_contract.sol\":1836:1868  sub( balances[owner], numTokens) */\n          tag_74\n            /* \"contracts/Coin_contract.sol\":1841:1849  balances */\n          0x02\n            /* \"contracts/Coin_contract.sol\":1841:1856  balances[owner] */\n          0x00\n            /* \"contracts/Coin_contract.sol\":1850:1855  owner */\n          dup7\n            /* \"contracts/Coin_contract.sol\":1841:1856  balances[owner] */\n          0xffffffffffffffffffffffffffffffffffffffff\n          and\n          0xffffffffffffffffffffffffffffffffffffffff\n          and\n          dup2\n          mstore\n          0x20\n          add\n          swap1\n          dup2\n          mstore\n          0x20\n          add\n          0x00\n          keccak256\n          sload\n            /* \"contracts/Coin_contract.sol\":1858:1867  numTokens */\n          dup4\n            /* \"contracts/Coin_contract.sol\":1836:1839  sub */\n          tag_73\n            /* \"contracts/Coin_contract.sol\":1836:1868  sub( balances[owner], numTokens) */\n          jump\t// in\n        tag_74:\n            /* \"contracts/Coin_contract.sol\":1818:1826  balances */\n          0x02\n            /* \"contracts/Coin_contract.sol\":1818:1833  balances[owner] */\n          0x00\n            /* \"contracts/Coin_contract.sol\":1827:1832  owner */\n          dup7\n            /* \"contracts/Coin_contract.sol\":1818:1833  balances[owner] */\n          0xffffffffffffffffffffffffffffffffffffffff\n          and\n          0xffffffffffffffffffffffffffffffffffffffff\n          and\n          dup2\n          mstore\n          0x20\n          add\n          swap1\n          dup2\n          mstore\n          0x20\n          add\n          0x00\n          keccak256\n            /* \"contracts/Coin_contract.sol\":1818:1868  balances[owner] = sub( balances[owner], numTokens) */\n          dup2\n          swap1\n          sstore\n          pop\n            /* \"contracts/Coin_contract.sol\":1897:1929  add( balances[buyer], numTokens) */\n          tag_75\n            /* \"contracts/Coin_contract.sol\":1902:1910  balances */\n          0x02\n            /* \"contracts/Coin_contract.sol\":1902:1917  balances[buyer] */\n          0x00\n            /* \"contracts/Coin_contract.sol\":1911:1916  buyer */\n          dup6\n            /* \"contracts/Coin_contract.sol\":1902:1917  balances[buyer] */\n          0xffffffffffffffffffffffffffffffffffffffff\n          and\n          0xffffffffffffffffffffffffffffffffffffffff\n          and\n          dup2\n          mstore\n          0x20\n          add\n          swap1\n          dup2\n          mstore\n          0x20\n          add\n          0x00\n          keccak256\n          sload\n            /* \"contracts/Coin_contract.sol\":1919:1928  numTokens */\n          dup4\n            /* \"contracts/Coin_contract.sol\":1897:1900  add */\n          tag_76\n            /* \"contracts/Coin_contract.sol\":1897:1929  add( balances[buyer], numTokens) */\n          jump\t// in\n        tag_75:\n            /* \"contracts/Coin_contract.sol\":1879:1887  balances */\n          0x02\n            /* \"contracts/Coin_contract.sol\":1879:1894  balances[buyer] */\n          0x00\n            /* \"contracts/Coin_contract.sol\":1888:1893  buyer */\n          dup6\n            /* \"contracts/Coin_contract.sol\":1879:1894  balances[buyer] */\n          0xffffffffffffffffffffffffffffffffffffffff\n          and\n          0xffffffffffffffffffffffffffffffffffffffff\n          and\n          dup2\n          mstore\n          0x20\n          add\n          swap1\n          dup2\n          mstore\n          0x20\n          add\n          0x00\n          keccak256\n            /* \"contracts/Coin_contract.sol\":1879:1929  balances[buyer] = add( balances[buyer], numTokens) */\n          dup2\n          swap1\n          sstore\n          pop\n            /* \"contracts/Coin_contract.sol\":1961:1966  buyer */\n          dup3\n            /* \"contracts/Coin_contract.sol\":1945:1978  Transfer(owner, buyer, numTokens) */\n          0xffffffffffffffffffffffffffffffffffffffff\n          and\n            /* \"contracts/Coin_contract.sol\":1954:1959  owner */\n          dup5\n            /* \"contracts/Coin_contract.sol\":1945:1978  Transfer(owner, buyer, numTokens) */\n          0xffffffffffffffffffffffffffffffffffffffff\n          and\n          0xddf252ad1be2c89b69c2b068fc378daa952ba7f163c4a11628f55a4df523b3ef\n            /* \"contracts/Coin_contract.sol\":1968:1977  numTokens */\n          dup5\n            /* \"contracts/Coin_contract.sol\":1945:1978  Transfer(owner, buyer, numTokens) */\n          mload(0x40)\n          tag_77\n          swap2\n          swap1\n          tag_29\n          jump\t// in\n        tag_77:\n          mload(0x40)\n          dup1\n          swap2\n          sub\n          swap1\n          log3\n            /* \"contracts/Coin_contract.sol\":1996:2000  true */\n          0x01\n            /* \"contracts/Coin_contract.sol\":1989:2000  return true */\n          swap1\n          pop\n            /* \"contracts/Coin_contract.sol\":1522:2008  function transferFrom(address owner, address buyer, uint numTokens) public returns (bool) \r... */\n          swap4\n          swap3\n          pop\n          pop\n          pop\n          jump\t// out\n            /* \"contracts/Coin_contract.sol\":612:646  uint8 public constant decimals = 0 */\n        tag_36:\n            /* \"contracts/Coin_contract.sol\":645:646  0 */\n          0x00\n            /* \"contracts/Coin_contract.sol\":612:646  uint8 public constant decimals = 0 */\n          dup2\n          jump\t// out\n            /* \"contracts/Coin_contract.sol\":2414:2623  function mint(address usr, uint wad) external auth \r... */\n        tag_41:\n            /* \"contracts/Coin_contract.sol\":309:310  1 */\n          0x01\n            /* \"contracts/Coin_contract.sol\":288:293  wards */\n          0x00\n            /* \"contracts/Coin_contract.sol\":288:305  wards[msg.sender] */\n          dup1\n            /* \"contracts/Coin_contract.sol\":294:304  msg.sender */\n          caller\n            /* \"contracts/Coin_contract.sol\":288:305  wards[msg.sender] */\n          0xffffffffffffffffffffffffffffffffffffffff\n          and\n          0xffffffffffffffffffffffffffffffffffffffff\n          and\n          dup2\n          mstore\n          0x20\n          add\n          swap1\n          dup2\n          mstore\n          0x20\n          add\n          0x00\n          keccak256\n          sload\n            /* \"contracts/Coin_contract.sol\":288:310  wards[msg.sender] == 1 */\n          eq\n            /* \"contracts/Coin_contract.sol\":280:329  require(wards[msg.sender] == 1, \"Not-authorized\") */\n          tag_79\n          jumpi\n          mload(0x40)\n          0x08c379a000000000000000000000000000000000000000000000000000000000\n          dup2\n          mstore\n          0x04\n          add\n          tag_80\n          swap1\n          tag_81\n          jump\t// in\n        tag_80:\n          mload(0x40)\n          dup1\n          swap2\n          sub\n          swap1\n          revert\n        tag_79:\n            /* \"contracts/Coin_contract.sol\":2498:2521  add(balances[usr], wad) */\n          tag_83\n            /* \"contracts/Coin_contract.sol\":2502:2510  balances */\n          0x02\n            /* \"contracts/Coin_contract.sol\":2502:2515  balances[usr] */\n          0x00\n            /* \"contracts/Coin_contract.sol\":2511:2514  usr */\n          dup5\n            /* \"contracts/Coin_contract.sol\":2502:2515  balances[usr] */\n          0xffffffffffffffffffffffffffffffffffffffff\n          and\n          0xffffffffffffffffffffffffffffffffffffffff\n          and\n          dup2\n          mstore\n          0x20\n          add\n          swap1\n          dup2\n          mstore\n          0x20\n          add\n          0x00\n          keccak256\n          sload\n            /* \"contracts/Coin_contract.sol\":2517:2520  wad */\n          dup3\n            /* \"contracts/Coin_contract.sol\":2498:2501  add */\n          tag_76\n            /* \"contracts/Coin_contract.sol\":2498:2521  add(balances[usr], wad) */\n          jump\t// in\n        tag_83:\n            /* \"contracts/Coin_contract.sol\":2482:2490  balances */\n          0x02\n            /* \"contracts/Coin_contract.sol\":2482:2495  balances[usr] */\n          0x00\n            /* \"contracts/Coin_contract.sol\":2491:2494  usr */\n          dup5\n            /* \"contracts/Coin_contract.sol\":2482:2495  balances[usr] */\n          0xffffffffffffffffffffffffffffffffffffffff\n          and\n          0xffffffffffffffffffffffffffffffffffffffff\n          and\n          dup2\n          mstore\n          0x20\n          add\n          swap1\n          dup2\n          mstore\n          0x20\n          add\n          0x00\n          keccak256\n            /* \"contracts/Coin_contract.sol\":2482:2521  balances[usr] = add(balances[usr], wad) */\n          dup2\n          swap1\n          sstore\n          pop\n            /* \"contracts/Coin_contract.sol\":2547:2569  add(totalSupply_, wad) */\n          tag_84\n            /* \"contracts/Coin_contract.sol\":2551:2563  totalSupply_ */\n          sload(0x01)\n            /* \"contracts/Coin_contract.sol\":2565:2568  wad */\n          dup3\n            /* \"contracts/Coin_contract.sol\":2547:2550  add */\n          tag_76\n            /* \"contracts/Coin_contract.sol\":2547:2569  add(totalSupply_, wad) */\n          jump\t// in\n        tag_84:\n            /* \"contracts/Coin_contract.sol\":2532:2544  totalSupply_ */\n          0x01\n            /* \"contracts/Coin_contract.sol\":2532:2569  totalSupply_ = add(totalSupply_, wad) */\n          dup2\n          swap1\n          sstore\n          pop\n            /* \"contracts/Coin_contract.sol\":2606:2609  usr */\n          dup2\n            /* \"contracts/Coin_contract.sol\":2585:2615  Transfer(address(0), usr, wad) */\n          0xffffffffffffffffffffffffffffffffffffffff\n          and\n            /* \"contracts/Coin_contract.sol\":2602:2603  0 */\n          0x00\n            /* \"contracts/Coin_contract.sol\":2585:2615  Transfer(address(0), usr, wad) */\n          0xffffffffffffffffffffffffffffffffffffffff\n          and\n          0xddf252ad1be2c89b69c2b068fc378daa952ba7f163c4a11628f55a4df523b3ef\n            /* \"contracts/Coin_contract.sol\":2611:2614  wad */\n          dup4\n            /* \"contracts/Coin_contract.sol\":2585:2615  Transfer(address(0), usr, wad) */\n          mload(0x40)\n          tag_85\n          swap2\n          swap1\n          tag_29\n          jump\t// in\n        tag_85:\n          mload(0x40)\n          dup1\n          swap2\n          sub\n          swap1\n          log3\n            /* \"contracts/Coin_contract.sol\":2414:2623  function mint(address usr, uint wad) external auth \r... */\n          pop\n          pop\n          jump\t// out\n            /* \"contracts/Coin_contract.sol\":1237:1355  function balanceOf(address tokenOwner) public view returns (uint) \r... */\n        tag_45:\n            /* \"contracts/Coin_contract.sol\":1297:1301  uint */\n          0x00\n            /* \"contracts/Coin_contract.sol\":1327:1335  balances */\n          0x02\n            /* \"contracts/Coin_contract.sol\":1327:1347  balances[tokenOwner] */\n          0x00\n            /* \"contracts/Coin_contract.sol\":1336:1346  tokenOwner */\n          dup4\n            /* \"contracts/Coin_contract.sol\":1327:1347  balances[tokenOwner] */\n          0xffffffffffffffffffffffffffffffffffffffff\n          and\n          0xffffffffffffffffffffffffffffffffffffffff\n          and\n          dup2\n          mstore\n          0x20\n          add\n          swap1\n          dup2\n          mstore\n          0x20\n          add\n          0x00\n          keccak256\n          sload\n            /* \"contracts/Coin_contract.sol\":1320:1347  return balances[tokenOwner] */\n          swap1\n          pop\n            /* \"contracts/Coin_contract.sol\":1237:1355  function balanceOf(address tokenOwner) public view returns (uint) \r... */\n          swap2\n          swap1\n          pop\n          jump\t// out\n            /* \"contracts/Coin_contract.sol\":569:605  string public constant symbol = \"SC\" */\n        tag_48:\n          mload(0x40)\n          dup1\n          0x40\n          add\n          0x40\n          mstore\n          dup1\n          0x02\n          dup2\n          mstore\n          0x20\n          add\n          0x5343000000000000000000000000000000000000000000000000000000000000\n          dup2\n          mstore\n          pop\n          dup2\n          jump\t// out\n            /* \"contracts/Coin_contract.sol\":2629:3055  function burn(address usr, uint wad) external auth \r... */\n        tag_52:\n            /* \"contracts/Coin_contract.sol\":309:310  1 */\n          0x01\n            /* \"contracts/Coin_contract.sol\":288:293  wards */\n          0x00\n            /* \"contracts/Coin_contract.sol\":288:305  wards[msg.sender] */\n          dup1\n            /* \"contracts/Coin_contract.sol\":294:304  msg.sender */\n          caller\n            /* \"contracts/Coin_contract.sol\":288:305  wards[msg.sender] */\n          0xffffffffffffffffffffffffffffffffffffffff\n          and\n          0xffffffffffffffffffffffffffffffffffffffff\n          and\n          dup2\n          mstore\n          0x20\n          add\n          swap1\n          dup2\n          mstore\n          0x20\n          add\n          0x00\n          keccak256\n          sload\n            /* \"contracts/Coin_contract.sol\":288:310  wards[msg.sender] == 1 */\n          eq\n            /* \"contracts/Coin_contract.sol\":280:329  require(wards[msg.sender] == 1, \"Not-authorized\") */\n          tag_88\n          jumpi\n          mload(0x40)\n          0x08c379a000000000000000000000000000000000000000000000000000000000\n          dup2\n          mstore\n          0x04\n          add\n          tag_89\n          swap1\n          tag_81\n          jump\t// in\n        tag_89:\n          mload(0x40)\n          dup1\n          swap2\n          sub\n          swap1\n          revert\n        tag_88:\n            /* \"contracts/Coin_contract.sol\":2722:2725  wad */\n          dup1\n            /* \"contracts/Coin_contract.sol\":2705:2713  balances */\n          0x02\n            /* \"contracts/Coin_contract.sol\":2705:2718  balances[usr] */\n          0x00\n            /* \"contracts/Coin_contract.sol\":2714:2717  usr */\n          dup5\n            /* \"contracts/Coin_contract.sol\":2705:2718  balances[usr] */\n          0xffffffffffffffffffffffffffffffffffffffff\n          and\n          0xffffffffffffffffffffffffffffffffffffffff\n          and\n          dup2\n          mstore\n          0x20\n          add\n          swap1\n          dup2\n          mstore\n          0x20\n          add\n          0x00\n          keccak256\n          sload\n            /* \"contracts/Coin_contract.sol\":2705:2725  balances[usr] >= wad */\n          lt\n          iszero\n            /* \"contracts/Coin_contract.sol\":2697:2750  require(balances[usr] >= wad, \"insufficient-balance\") */\n          tag_91\n          jumpi\n          mload(0x40)\n          0x08c379a000000000000000000000000000000000000000000000000000000000\n          dup2\n          mstore\n          0x04\n          add\n          tag_92\n          swap1\n          tag_93\n          jump\t// in\n        tag_92:\n          mload(0x40)\n          dup1\n          swap2\n          sub\n          swap1\n          revert\n        tag_91:\n            /* \"contracts/Coin_contract.sol\":2930:2953  sub(balances[usr], wad) */\n          tag_94\n            /* \"contracts/Coin_contract.sol\":2934:2942  balances */\n          0x02\n            /* \"contracts/Coin_contract.sol\":2934:2947  balances[usr] */\n          0x00\n            /* \"contracts/Coin_contract.sol\":2943:2946  usr */\n          dup5\n            /* \"contracts/Coin_contract.sol\":2934:2947  balances[usr] */\n          0xffffffffffffffffffffffffffffffffffffffff\n          and\n          0xffffffffffffffffffffffffffffffffffffffff\n          and\n          dup2\n          mstore\n          0x20\n          add\n          swap1\n          dup2\n          mstore\n          0x20\n          add\n          0x00\n          keccak256\n          sload\n            /* \"contracts/Coin_contract.sol\":2949:2952  wad */\n          dup3\n            /* \"contracts/Coin_contract.sol\":2930:2933  sub */\n          tag_73\n            /* \"contracts/Coin_contract.sol\":2930:2953  sub(balances[usr], wad) */\n          jump\t// in\n        tag_94:\n            /* \"contracts/Coin_contract.sol\":2914:2922  balances */\n          0x02\n            /* \"contracts/Coin_contract.sol\":2914:2927  balances[usr] */\n          0x00\n            /* \"contracts/Coin_contract.sol\":2923:2926  usr */\n          dup5\n            /* \"contracts/Coin_contract.sol\":2914:2927  balances[usr] */\n          0xffffffffffffffffffffffffffffffffffffffff\n          and\n          0xffffffffffffffffffffffffffffffffffffffff\n          and\n          dup2\n          mstore\n          0x20\n          add\n          swap1\n          dup2\n          mstore\n          0x20\n          add\n          0x00\n          keccak256\n            /* \"contracts/Coin_contract.sol\":2914:2953  balances[usr] = sub(balances[usr], wad) */\n          dup2\n          swap1\n          sstore\n          pop\n            /* \"contracts/Coin_contract.sol\":2979:3001  sub(totalSupply_, wad) */\n          tag_95\n            /* \"contracts/Coin_contract.sol\":2983:2995  totalSupply_ */\n          sload(0x01)\n            /* \"contracts/Coin_contract.sol\":2997:3000  wad */\n          dup3\n            /* \"contracts/Coin_contract.sol\":2979:2982  sub */\n          tag_73\n            /* \"contracts/Coin_contract.sol\":2979:3001  sub(totalSupply_, wad) */\n          jump\t// in\n        tag_95:\n            /* \"contracts/Coin_contract.sol\":2964:2976  totalSupply_ */\n          0x01\n            /* \"contracts/Coin_contract.sol\":2964:3001  totalSupply_ = sub(totalSupply_, wad) */\n          dup2\n          swap1\n          sstore\n          pop\n            /* \"contracts/Coin_contract.sol\":3039:3040  0 */\n          0x00\n            /* \"contracts/Coin_contract.sol\":3017:3047  Transfer(usr, address(0), wad) */\n          0xffffffffffffffffffffffffffffffffffffffff\n          and\n            /* \"contracts/Coin_contract.sol\":3026:3029  usr */\n          dup3\n            /* \"contracts/Coin_contract.sol\":3017:3047  Transfer(usr, address(0), wad) */\n          0xffffffffffffffffffffffffffffffffffffffff\n          and\n          0xddf252ad1be2c89b69c2b068fc378daa952ba7f163c4a11628f55a4df523b3ef\n            /* \"contracts/Coin_contract.sol\":3043:3046  wad */\n          dup4\n            /* \"contracts/Coin_contract.sol\":3017:3047  Transfer(usr, address(0), wad) */\n          mload(0x40)\n          tag_96\n          swap2\n          swap1\n          tag_29\n          jump\t// in\n        tag_96:\n          mload(0x40)\n          dup1\n          swap2\n          sub\n          swap1\n          log3\n            /* \"contracts/Coin_contract.sol\":2629:3055  function burn(address usr, uint wad) external auth \r... */\n          pop\n          pop\n          jump\t// out\n            /* \"contracts/Coin_contract.sol\":1363:1514  function transfer(address receiver, uint numTokens) public returns (bool) \r... */\n        tag_55:\n            /* \"contracts/Coin_contract.sol\":1431:1435  bool */\n          0x00\n            /* \"contracts/Coin_contract.sol\":1461:1506  transferFrom(msg.sender, receiver, numTokens) */\n          tag_98\n            /* \"contracts/Coin_contract.sol\":1474:1484  msg.sender */\n          caller\n            /* \"contracts/Coin_contract.sol\":1486:1494  receiver */\n          dup5\n            /* \"contracts/Coin_contract.sol\":1496:1505  numTokens */\n          dup5\n            /* \"contracts/Coin_contract.sol\":1461:1473  transferFrom */\n          tag_33\n            /* \"contracts/Coin_contract.sol\":1461:1506  transferFrom(msg.sender, receiver, numTokens) */\n          jump\t// in\n        tag_98:\n            /* \"contracts/Coin_contract.sol\":1454:1506  return transferFrom(msg.sender, receiver, numTokens) */\n          swap1\n          pop\n            /* \"contracts/Coin_contract.sol\":1363:1514  function transfer(address receiver, uint numTokens) public returns (bool) \r... */\n          swap3\n          swap2\n          pop\n          pop\n          jump\t// out\n            /* \"contracts/Coin_contract.sol\":204:242  mapping (address => uint) public wards */\n        tag_59:\n          mstore(0x20, 0x00)\n          dup1\n          0x00\n          mstore\n          keccak256(0x00, 0x40)\n          0x00\n          swap2\n          pop\n          swap1\n          pop\n          sload\n          dup2\n          jump\t// out\n            /* \"contracts/Coin_contract.sol\":2242:2377  function allowance(address owner, address delegate) public view returns (uint) \r... */\n        tag_64:\n            /* \"contracts/Coin_contract.sol\":2315:2319  uint */\n          0x00\n            /* \"contracts/Coin_contract.sol\":2345:2352  allowed */\n          0x03\n            /* \"contracts/Coin_contract.sol\":2345:2359  allowed[owner] */\n          0x00\n            /* \"contracts/Coin_contract.sol\":2353:2358  owner */\n          dup5\n            /* \"contracts/Coin_contract.sol\":2345:2359  allowed[owner] */\n          0xffffffffffffffffffffffffffffffffffffffff\n          and\n          0xffffffffffffffffffffffffffffffffffffffff\n          and\n          dup2\n          mstore\n          0x20\n          add\n          swap1\n          dup2\n          mstore\n          0x20\n          add\n          0x00\n          keccak256\n            /* \"contracts/Coin_contract.sol\":2345:2369  allowed[owner][delegate] */\n          0x00\n            /* \"contracts/Coin_contract.sol\":2360:2368  delegate */\n          dup4\n            /* \"contracts/Coin_contract.sol\":2345:2369  allowed[owner][delegate] */\n          0xffffffffffffffffffffffffffffffffffffffff\n          and\n          0xffffffffffffffffffffffffffffffffffffffff\n          and\n          dup2\n          mstore\n          0x20\n          add\n          swap1\n          dup2\n          mstore\n          0x20\n          add\n          0x00\n          keccak256\n          sload\n            /* \"contracts/Coin_contract.sol\":2338:2369  return allowed[owner][delegate] */\n          swap1\n          pop\n            /* \"contracts/Coin_contract.sol\":2242:2377  function allowance(address owner, address delegate) public view returns (uint) \r... */\n          swap3\n          swap2\n          pop\n          pop\n          jump\t// out\n            /* \"contracts/Coin_contract.sol\":921:1031  function sub(uint x, uint y) internal pure returns (uint z) \r... */\n        tag_73:\n            /* \"contracts/Coin_contract.sol\":973:979  uint z */\n          0x00\n            /* \"contracts/Coin_contract.sol\":1021:1022  x */\n          dup3\n            /* \"contracts/Coin_contract.sol\":1015:1016  y */\n          dup3\n            /* \"contracts/Coin_contract.sol\":1011:1012  x */\n          dup5\n            /* \"contracts/Coin_contract.sol\":1011:1016  x - y */\n          tag_101\n          swap2\n          swap1\n          tag_102\n          jump\t// in\n        tag_101:\n            /* \"contracts/Coin_contract.sol\":1007:1016  z = x - y */\n          swap2\n          pop\n          dup2\n            /* \"contracts/Coin_contract.sol\":1006:1022  (z = x - y) <= x */\n          gt\n          iszero\n            /* \"contracts/Coin_contract.sol\":998:1023  require((z = x - y) <= x) */\n          tag_103\n          jumpi\n          0x00\n          dup1\n          revert\n        tag_103:\n            /* \"contracts/Coin_contract.sol\":921:1031  function sub(uint x, uint y) internal pure returns (uint z) \r... */\n          swap3\n          swap2\n          pop\n          pop\n          jump\t// out\n            /* \"contracts/Coin_contract.sol\":805:915  function add(uint x, uint y) internal pure returns (uint z) \r... */\n        tag_76:\n            /* \"contracts/Coin_contract.sol\":857:863  uint z */\n          0x00\n            /* \"contracts/Coin_contract.sol\":905:906  x */\n          dup3\n            /* \"contracts/Coin_contract.sol\":899:900  y */\n          dup3\n            /* \"contracts/Coin_contract.sol\":895:896  x */\n          dup5\n            /* \"contracts/Coin_contract.sol\":895:900  x + y */\n          tag_105\n          swap2\n          swap1\n          tag_106\n          jump\t// in\n        tag_105:\n            /* \"contracts/Coin_contract.sol\":891:900  z = x + y */\n          swap2\n          pop\n          dup2\n            /* \"contracts/Coin_contract.sol\":890:906  (z = x + y) >= x */\n          lt\n          iszero\n            /* \"contracts/Coin_contract.sol\":882:907  require((z = x + y) >= x) */\n          tag_107\n          jumpi\n          0x00\n          dup1\n          revert\n        tag_107:\n            /* \"contracts/Coin_contract.sol\":805:915  function add(uint x, uint y) internal pure returns (uint z) \r... */\n          swap3\n          swap2\n          pop\n          pop\n          jump\t// out\n            /* \"#utility.yul\":7:146   */\n        tag_109:\n            /* \"#utility.yul\":53:58   */\n          0x00\n            /* \"#utility.yul\":91:97   */\n          dup2\n            /* \"#utility.yul\":78:98   */\n          calldataload\n            /* \"#utility.yul\":69:98   */\n          swap1\n          pop\n            /* \"#utility.yul\":107:140   */\n          tag_111\n            /* \"#utility.yul\":134:139   */\n          dup2\n            /* \"#utility.yul\":107:140   */\n          tag_112\n          jump\t// in\n        tag_111:\n            /* \"#utility.yul\":7:146   */\n          swap3\n          swap2\n          pop\n          pop\n          jump\t// out\n            /* \"#utility.yul\":152:291   */\n        tag_113:\n            /* \"#utility.yul\":198:203   */\n          0x00\n            /* \"#utility.yul\":236:242   */\n          dup2\n            /* \"#utility.yul\":223:243   */\n          calldataload\n            /* \"#utility.yul\":214:243   */\n          swap1\n          pop\n            /* \"#utility.yul\":252:285   */\n          tag_115\n            /* \"#utility.yul\":279:284   */\n          dup2\n            /* \"#utility.yul\":252:285   */\n          tag_116\n          jump\t// in\n        tag_115:\n            /* \"#utility.yul\":152:291   */\n          swap3\n          swap2\n          pop\n          pop\n          jump\t// out\n            /* \"#utility.yul\":297:626   */\n        tag_44:\n            /* \"#utility.yul\":356:362   */\n          0x00\n            /* \"#utility.yul\":405:407   */\n          0x20\n            /* \"#utility.yul\":393:402   */\n          dup3\n            /* \"#utility.yul\":384:391   */\n          dup5\n            /* \"#utility.yul\":380:403   */\n          sub\n            /* \"#utility.yul\":376:408   */\n          slt\n            /* \"#utility.yul\":373:492   */\n          iszero\n          tag_118\n          jumpi\n            /* \"#utility.yul\":411:490   */\n          tag_119\n          tag_120\n          jump\t// in\n        tag_119:\n            /* \"#utility.yul\":373:492   */\n        tag_118:\n            /* \"#utility.yul\":531:532   */\n          0x00\n            /* \"#utility.yul\":556:609   */\n          tag_121\n            /* \"#utility.yul\":601:608   */\n          dup5\n            /* \"#utility.yul\":592:598   */\n          dup3\n            /* \"#utility.yul\":581:590   */\n          dup6\n            /* \"#utility.yul\":577:599   */\n          add\n            /* \"#utility.yul\":556:609   */\n          tag_109\n          jump\t// in\n        tag_121:\n            /* \"#utility.yul\":546:609   */\n          swap2\n          pop\n            /* \"#utility.yul\":502:619   */\n          pop\n            /* \"#utility.yul\":297:626   */\n          swap3\n          swap2\n          pop\n          pop\n          jump\t// out\n            /* \"#utility.yul\":632:1106   */\n        tag_63:\n            /* \"#utility.yul\":700:706   */\n          0x00\n            /* \"#utility.yul\":708:714   */\n          dup1\n            /* \"#utility.yul\":757:759   */\n          0x40\n            /* \"#utility.yul\":745:754   */\n          dup4\n            /* \"#utility.yul\":736:743   */\n          dup6\n            /* \"#utility.yul\":732:755   */\n          sub\n            /* \"#utility.yul\":728:760   */\n          slt\n            /* \"#utility.yul\":725:844   */\n          iszero\n          tag_123\n          jumpi\n            /* \"#utility.yul\":763:842   */\n          tag_124\n          tag_120\n          jump\t// in\n        tag_124:\n            /* \"#utility.yul\":725:844   */\n        tag_123:\n            /* \"#utility.yul\":883:884   */\n          0x00\n            /* \"#utility.yul\":908:961   */\n          tag_125\n            /* \"#utility.yul\":953:960   */\n          dup6\n            /* \"#utility.yul\":944:950   */\n          dup3\n            /* \"#utility.yul\":933:942   */\n          dup7\n            /* \"#utility.yul\":929:951   */\n          add\n            /* \"#utility.yul\":908:961   */\n          tag_109\n          jump\t// in\n        tag_125:\n            /* \"#utility.yul\":898:961   */\n          swap3\n          pop\n            /* \"#utility.yul\":854:971   */\n          pop\n            /* \"#utility.yul\":1010:1012   */\n          0x20\n            /* \"#utility.yul\":1036:1089   */\n          tag_126\n            /* \"#utility.yul\":1081:1088   */\n          dup6\n            /* \"#utility.yul\":1072:1078   */\n          dup3\n            /* \"#utility.yul\":1061:1070   */\n          dup7\n            /* \"#utility.yul\":1057:1079   */\n          add\n            /* \"#utility.yul\":1036:1089   */\n          tag_109\n          jump\t// in\n        tag_126:\n            /* \"#utility.yul\":1026:1089   */\n          swap2\n          pop\n            /* \"#utility.yul\":981:1099   */\n          pop\n            /* \"#utility.yul\":632:1106   */\n          swap3\n          pop\n          swap3\n          swap1\n          pop\n          jump\t// out\n            /* \"#utility.yul\":1112:1731   */\n        tag_32:\n            /* \"#utility.yul\":1189:1195   */\n          0x00\n            /* \"#utility.yul\":1197:1203   */\n          dup1\n            /* \"#utility.yul\":1205:1211   */\n          0x00\n            /* \"#utility.yul\":1254:1256   */\n          0x60\n            /* \"#utility.yul\":1242:1251   */\n          dup5\n            /* \"#utility.yul\":1233:1240   */\n          dup7\n            /* \"#utility.yul\":1229:1252   */\n          sub\n            /* \"#utility.yul\":1225:1257   */\n          slt\n            /* \"#utility.yul\":1222:1341   */\n          iszero\n          tag_128\n          jumpi\n            /* \"#utility.yul\":1260:1339   */\n          tag_129\n          tag_120\n          jump\t// in\n        tag_129:\n            /* \"#utility.yul\":1222:1341   */\n        tag_128:\n            /* \"#utility.yul\":1380:1381   */\n          0x00\n            /* \"#utility.yul\":1405:1458   */\n          tag_130\n            /* \"#utility.yul\":1450:1457   */\n          dup7\n            /* \"#utility.yul\":1441:1447   */\n          dup3\n            /* \"#utility.yul\":1430:1439   */\n          dup8\n            /* \"#utility.yul\":1426:1448   */\n          add\n            /* \"#utility.yul\":1405:1458   */\n          tag_109\n          jump\t// in\n        tag_130:\n            /* \"#utility.yul\":1395:1458   */\n          swap4\n          pop\n            /* \"#utility.yul\":1351:1468   */\n          pop\n            /* \"#utility.yul\":1507:1509   */\n          0x20\n            /* \"#utility.yul\":1533:1586   */\n          tag_131\n            /* \"#utility.yul\":1578:1585   */\n          dup7\n            /* \"#utility.yul\":1569:1575   */\n          dup3\n            /* \"#utility.yul\":1558:1567   */\n          dup8\n            /* \"#utility.yul\":1554:1576   */\n          add\n            /* \"#utility.yul\":1533:1586   */\n          tag_109\n          jump\t// in\n        tag_131:\n            /* \"#utility.yul\":1523:1586   */\n          swap3\n          pop\n            /* \"#utility.yul\":1478:1596   */\n          pop\n            /* \"#utility.yul\":1635:1637   */\n          0x40\n            /* \"#utility.yul\":1661:1714   */\n          tag_132\n            /* \"#utility.yul\":1706:1713   */\n          dup7\n            /* \"#utility.yul\":1697:1703   */\n          dup3\n            /* \"#utility.yul\":1686:1695   */\n          dup8\n            /* \"#utility.yul\":1682:1704   */\n          add\n            /* \"#utility.yul\":1661:1714   */\n          tag_113\n          jump\t// in\n        tag_132:\n            /* \"#utility.yul\":1651:1714   */\n          swap2\n          pop\n            /* \"#utility.yul\":1606:1724   */\n          pop\n            /* \"#utility.yul\":1112:1731   */\n          swap3\n          pop\n          swap3\n          pop\n          swap3\n          jump\t// out\n            /* \"#utility.yul\":1737:2211   */\n        tag_22:\n            /* \"#utility.yul\":1805:1811   */\n          0x00\n            /* \"#utility.yul\":1813:1819   */\n          dup1\n            /* \"#utility.yul\":1862:1864   */\n          0x40\n            /* \"#utility.yul\":1850:1859   */\n          dup4\n            /* \"#utility.yul\":1841:1848   */\n          dup6\n            /* \"#utility.yul\":1837:1860   */\n          sub\n            /* \"#utility.yul\":1833:1865   */\n          slt\n            /* \"#utility.yul\":1830:1949   */\n          iszero\n          tag_134\n          jumpi\n            /* \"#utility.yul\":1868:1947   */\n          tag_135\n          tag_120\n          jump\t// in\n        tag_135:\n            /* \"#utility.yul\":1830:1949   */\n        tag_134:\n            /* \"#utility.yul\":1988:1989   */\n          0x00\n            /* \"#utility.yul\":2013:2066   */\n          tag_136\n            /* \"#utility.yul\":2058:2065   */\n          dup6\n            /* \"#utility.yul\":2049:2055   */\n          dup3\n            /* \"#utility.yul\":2038:2047   */\n          dup7\n            /* \"#utility.yul\":2034:2056   */\n          add\n            /* \"#utility.yul\":2013:2066   */\n          tag_109\n          jump\t// in\n        tag_136:\n            /* \"#utility.yul\":2003:2066   */\n          swap3\n          pop\n            /* \"#utility.yul\":1959:2076   */\n          pop\n            /* \"#utility.yul\":2115:2117   */\n          0x20\n            /* \"#utility.yul\":2141:2194   */\n          tag_137\n            /* \"#utility.yul\":2186:2193   */\n          dup6\n            /* \"#utility.yul\":2177:2183   */\n          dup3\n            /* \"#utility.yul\":2166:2175   */\n          dup7\n            /* \"#utility.yul\":2162:2184   */\n          add\n            /* \"#utility.yul\":2141:2194   */\n          tag_113\n          jump\t// in\n        tag_137:\n            /* \"#utility.yul\":2131:2194   */\n          swap2\n          pop\n            /* \"#utility.yul\":2086:2204   */\n          pop\n            /* \"#utility.yul\":1737:2211   */\n          swap3\n          pop\n          swap3\n          swap1\n          pop\n          jump\t// out\n            /* \"#utility.yul\":2217:2326   */\n        tag_138:\n            /* \"#utility.yul\":2298:2319   */\n          tag_140\n            /* \"#utility.yul\":2313:2318   */\n          dup2\n            /* \"#utility.yul\":2298:2319   */\n          tag_141\n          jump\t// in\n        tag_140:\n            /* \"#utility.yul\":2293:2296   */\n          dup3\n            /* \"#utility.yul\":2286:2320   */\n          mstore\n            /* \"#utility.yul\":2217:2326   */\n          pop\n          pop\n          jump\t// out\n            /* \"#utility.yul\":2332:2696   */\n        tag_142:\n            /* \"#utility.yul\":2420:2423   */\n          0x00\n            /* \"#utility.yul\":2448:2487   */\n          tag_144\n            /* \"#utility.yul\":2481:2486   */\n          dup3\n            /* \"#utility.yul\":2448:2487   */\n          tag_145\n          jump\t// in\n        tag_144:\n            /* \"#utility.yul\":2503:2574   */\n          tag_146\n            /* \"#utility.yul\":2567:2573   */\n          dup2\n            /* \"#utility.yul\":2562:2565   */\n          dup6\n            /* \"#utility.yul\":2503:2574   */\n          tag_147\n          jump\t// in\n        tag_146:\n            /* \"#utility.yul\":2496:2574   */\n          swap4\n          pop\n            /* \"#utility.yul\":2583:2635   */\n          tag_148\n            /* \"#utility.yul\":2628:2634   */\n          dup2\n            /* \"#utility.yul\":2623:2626   */\n          dup6\n            /* \"#utility.yul\":2616:2620   */\n          0x20\n            /* \"#utility.yul\":2609:2614   */\n          dup7\n            /* \"#utility.yul\":2605:2621   */\n          add\n            /* \"#utility.yul\":2583:2635   */\n          tag_149\n          jump\t// in\n        tag_148:\n            /* \"#utility.yul\":2660:2689   */\n          tag_150\n            /* \"#utility.yul\":2682:2688   */\n          dup2\n            /* \"#utility.yul\":2660:2689   */\n          tag_151\n          jump\t// in\n        tag_150:\n            /* \"#utility.yul\":2655:2658   */\n          dup5\n            /* \"#utility.yul\":2651:2690   */\n          add\n            /* \"#utility.yul\":2644:2690   */\n          swap2\n          pop\n            /* \"#utility.yul\":2424:2696   */\n          pop\n            /* \"#utility.yul\":2332:2696   */\n          swap3\n          swap2\n          pop\n          pop\n          jump\t// out\n            /* \"#utility.yul\":2702:3068   */\n        tag_152:\n            /* \"#utility.yul\":2844:2847   */\n          0x00\n            /* \"#utility.yul\":2865:2932   */\n          tag_154\n            /* \"#utility.yul\":2929:2931   */\n          0x14\n            /* \"#utility.yul\":2924:2927   */\n          dup4\n            /* \"#utility.yul\":2865:2932   */\n          tag_147\n          jump\t// in\n        tag_154:\n            /* \"#utility.yul\":2858:2932   */\n          swap2\n          pop\n            /* \"#utility.yul\":2941:3034   */\n          tag_155\n            /* \"#utility.yul\":3030:3033   */\n          dup3\n            /* \"#utility.yul\":2941:3034   */\n          tag_156\n          jump\t// in\n        tag_155:\n            /* \"#utility.yul\":3059:3061   */\n          0x20\n            /* \"#utility.yul\":3054:3057   */\n          dup3\n            /* \"#utility.yul\":3050:3062   */\n          add\n            /* \"#utility.yul\":3043:3062   */\n          swap1\n          pop\n            /* \"#utility.yul\":2702:3068   */\n          swap2\n          swap1\n          pop\n          jump\t// out\n            /* \"#utility.yul\":3074:3440   */\n        tag_157:\n            /* \"#utility.yul\":3216:3219   */\n          0x00\n            /* \"#utility.yul\":3237:3304   */\n          tag_159\n            /* \"#utility.yul\":3301:3303   */\n          0x0e\n            /* \"#utility.yul\":3296:3299   */\n          dup4\n            /* \"#utility.yul\":3237:3304   */\n          tag_147\n          jump\t// in\n        tag_159:\n            /* \"#utility.yul\":3230:3304   */\n          swap2\n          pop\n            /* \"#utility.yul\":3313:3406   */\n          tag_160\n            /* \"#utility.yul\":3402:3405   */\n          dup3\n            /* \"#utility.yul\":3313:3406   */\n          tag_161\n          jump\t// in\n        tag_160:\n            /* \"#utility.yul\":3431:3433   */\n          0x20\n            /* \"#utility.yul\":3426:3429   */\n          dup3\n            /* \"#utility.yul\":3422:3434   */\n          add\n            /* \"#utility.yul\":3415:3434   */\n          swap1\n          pop\n            /* \"#utility.yul\":3074:3440   */\n          swap2\n          swap1\n          pop\n          jump\t// out\n            /* \"#utility.yul\":3446:3564   */\n        tag_162:\n            /* \"#utility.yul\":3533:3557   */\n          tag_164\n            /* \"#utility.yul\":3551:3556   */\n          dup2\n            /* \"#utility.yul\":3533:3557   */\n          tag_165\n          jump\t// in\n        tag_164:\n            /* \"#utility.yul\":3528:3531   */\n          dup3\n            /* \"#utility.yul\":3521:3558   */\n          mstore\n            /* \"#utility.yul\":3446:3564   */\n          pop\n          pop\n          jump\t// out\n            /* \"#utility.yul\":3570:3682   */\n        tag_166:\n            /* \"#utility.yul\":3653:3675   */\n          tag_168\n            /* \"#utility.yul\":3669:3674   */\n          dup2\n            /* \"#utility.yul\":3653:3675   */\n          tag_169\n          jump\t// in\n        tag_168:\n            /* \"#utility.yul\":3648:3651   */\n          dup3\n            /* \"#utility.yul\":3641:3676   */\n          mstore\n            /* \"#utility.yul\":3570:3682   */\n          pop\n          pop\n          jump\t// out\n            /* \"#utility.yul\":3688:3898   */\n        tag_25:\n            /* \"#utility.yul\":3775:3779   */\n          0x00\n            /* \"#utility.yul\":3813:3815   */\n          0x20\n            /* \"#utility.yul\":3802:3811   */\n          dup3\n            /* \"#utility.yul\":3798:3816   */\n          add\n            /* \"#utility.yul\":3790:3816   */\n          swap1\n          pop\n            /* \"#utility.yul\":3826:3891   */\n          tag_171\n            /* \"#utility.yul\":3888:3889   */\n          0x00\n            /* \"#utility.yul\":3877:3886   */\n          dup4\n            /* \"#utility.yul\":3873:3890   */\n          add\n            /* \"#utility.yul\":3864:3870   */\n          dup5\n            /* \"#utility.yul\":3826:3891   */\n          tag_138\n          jump\t// in\n        tag_171:\n            /* \"#utility.yul\":3688:3898   */\n          swap3\n          swap2\n          pop\n          pop\n          jump\t// out\n            /* \"#utility.yul\":3904:4217   */\n        tag_19:\n            /* \"#utility.yul\":4017:4021   */\n          0x00\n            /* \"#utility.yul\":4055:4057   */\n          0x20\n            /* \"#utility.yul\":4044:4053   */\n          dup3\n            /* \"#utility.yul\":4040:4058   */\n          add\n            /* \"#utility.yul\":4032:4058   */\n          swap1\n          pop\n            /* \"#utility.yul\":4104:4113   */\n          dup2\n            /* \"#utility.yul\":4098:4102   */\n          dup2\n            /* \"#utility.yul\":4094:4114   */\n          sub\n            /* \"#utility.yul\":4090:4091   */\n          0x00\n            /* \"#utility.yul\":4079:4088   */\n          dup4\n            /* \"#utility.yul\":4075:4092   */\n          add\n            /* \"#utility.yul\":4068:4115   */\n          mstore\n            /* \"#utility.yul\":4132:4210   */\n          tag_173\n            /* \"#utility.yul\":4205:4209   */\n          dup2\n            /* \"#utility.yul\":4196:4202   */\n          dup5\n            /* \"#utility.yul\":4132:4210   */\n          tag_142\n          jump\t// in\n        tag_173:\n            /* \"#utility.yul\":4124:4210   */\n          swap1\n          pop\n            /* \"#utility.yul\":3904:4217   */\n          swap3\n          swap2\n          pop\n          pop\n          jump\t// out\n            /* \"#utility.yul\":4223:4642   */\n        tag_93:\n            /* \"#utility.yul\":4389:4393   */\n          0x00\n            /* \"#utility.yul\":4427:4429   */\n          0x20\n            /* \"#utility.yul\":4416:4425   */\n          dup3\n            /* \"#utility.yul\":4412:4430   */\n          add\n            /* \"#utility.yul\":4404:4430   */\n          swap1\n          pop\n            /* \"#utility.yul\":4476:4485   */\n          dup2\n            /* \"#utility.yul\":4470:4474   */\n          dup2\n            /* \"#utility.yul\":4466:4486   */\n          sub\n            /* \"#utility.yul\":4462:4463   */\n          0x00\n            /* \"#utility.yul\":4451:4460   */\n          dup4\n            /* \"#utility.yul\":4447:4464   */\n          add\n            /* \"#utility.yul\":4440:4487   */\n          mstore\n            /* \"#utility.yul\":4504:4635   */\n          tag_175\n            /* \"#utility.yul\":4630:4634   */\n          dup2\n            /* \"#utility.yul\":4504:4635   */\n          tag_152\n          jump\t// in\n        tag_175:\n            /* \"#utility.yul\":4496:4635   */\n          swap1\n          pop\n            /* \"#utility.yul\":4223:4642   */\n          swap2\n          swap1\n          pop\n          jump\t// out\n            /* \"#utility.yul\":4648:5067   */\n        tag_81:\n            /* \"#utility.yul\":4814:4818   */\n          0x00\n            /* \"#utility.yul\":4852:4854   */\n          0x20\n            /* \"#utility.yul\":4841:4850   */\n          dup3\n            /* \"#utility.yul\":4837:4855   */\n          add\n            /* \"#utility.yul\":4829:4855   */\n          swap1\n          pop\n            /* \"#utility.yul\":4901:4910   */\n          dup2\n            /* \"#utility.yul\":4895:4899   */\n          dup2\n            /* \"#utility.yul\":4891:4911   */\n          sub\n            /* \"#utility.yul\":4887:4888   */\n          0x00\n            /* \"#utility.yul\":4876:4885   */\n          dup4\n            /* \"#utility.yul\":4872:4889   */\n          add\n            /* \"#utility.yul\":4865:4912   */\n          mstore\n            /* \"#utility.yul\":4929:5060   */\n          tag_177\n            /* \"#utility.yul\":5055:5059   */\n          dup2\n            /* \"#utility.yul\":4929:5060   */\n          tag_157\n          jump\t// in\n        tag_177:\n            /* \"#utility.yul\":4921:5060   */\n          swap1\n          pop\n            /* \"#utility.yul\":4648:5067   */\n          swap2\n          swap1\n          pop\n          jump\t// out\n            /* \"#utility.yul\":5073:5295   */\n        tag_29:\n            /* \"#utility.yul\":5166:5170   */\n          0x00\n            /* \"#utility.yul\":5204:5206   */\n          0x20\n            /* \"#utility.yul\":5193:5202   */\n          dup3\n            /* \"#utility.yul\":5189:5207   */\n          add\n            /* \"#utility.yul\":5181:5207   */\n          swap1\n          pop\n            /* \"#utility.yul\":5217:5288   */\n          tag_179\n            /* \"#utility.yul\":5285:5286   */\n          0x00\n            /* \"#utility.yul\":5274:5283   */\n          dup4\n            /* \"#utility.yul\":5270:5287   */\n          add\n            /* \"#utility.yul\":5261:5267   */\n          dup5\n            /* \"#utility.yul\":5217:5288   */\n          tag_162\n          jump\t// in\n        tag_179:\n            /* \"#utility.yul\":5073:5295   */\n          swap3\n          swap2\n          pop\n          pop\n          jump\t// out\n            /* \"#utility.yul\":5301:5515   */\n        tag_38:\n            /* \"#utility.yul\":5390:5394   */\n          0x00\n            /* \"#utility.yul\":5428:5430   */\n          0x20\n            /* \"#utility.yul\":5417:5426   */\n          dup3\n            /* \"#utility.yul\":5413:5431   */\n          add\n            /* \"#utility.yul\":5405:5431   */\n          swap1\n          pop\n            /* \"#utility.yul\":5441:5508   */\n          tag_181\n            /* \"#utility.yul\":5505:5506   */\n          0x00\n            /* \"#utility.yul\":5494:5503   */\n          dup4\n            /* \"#utility.yul\":5490:5507   */\n          add\n            /* \"#utility.yul\":5481:5487   */\n          dup5\n            /* \"#utility.yul\":5441:5508   */\n          tag_166\n          jump\t// in\n        tag_181:\n            /* \"#utility.yul\":5301:5515   */\n          swap3\n          swap2\n          pop\n          pop\n          jump\t// out\n            /* \"#utility.yul\":5602:5701   */\n        tag_145:\n            /* \"#utility.yul\":5654:5660   */\n          0x00\n            /* \"#utility.yul\":5688:5693   */\n          dup2\n            /* \"#utility.yul\":5682:5694   */\n          mload\n            /* \"#utility.yul\":5672:5694   */\n          swap1\n          pop\n            /* \"#utility.yul\":5602:5701   */\n          swap2\n          swap1\n          pop\n          jump\t// out\n            /* \"#utility.yul\":5707:5876   */\n        tag_147:\n            /* \"#utility.yul\":5791:5802   */\n          0x00\n            /* \"#utility.yul\":5825:5831   */\n          dup3\n            /* \"#utility.yul\":5820:5823   */\n          dup3\n            /* \"#utility.yul\":5813:5832   */\n          mstore\n            /* \"#utility.yul\":5865:5869   */\n          0x20\n            /* \"#utility.yul\":5860:5863   */\n          dup3\n            /* \"#utility.yul\":5856:5870   */\n          add\n            /* \"#utility.yul\":5841:5870   */\n          swap1\n          pop\n            /* \"#utility.yul\":5707:5876   */\n          swap3\n          swap2\n          pop\n          pop\n          jump\t// out\n            /* \"#utility.yul\":5882:6187   */\n        tag_106:\n            /* \"#utility.yul\":5922:5925   */\n          0x00\n            /* \"#utility.yul\":5941:5961   */\n          tag_187\n            /* \"#utility.yul\":5959:5960   */\n          dup3\n            /* \"#utility.yul\":5941:5961   */\n          tag_165\n          jump\t// in\n        tag_187:\n            /* \"#utility.yul\":5936:5961   */\n          swap2\n          pop\n            /* \"#utility.yul\":5975:5995   */\n          tag_188\n            /* \"#utility.yul\":5993:5994   */\n          dup4\n            /* \"#utility.yul\":5975:5995   */\n          tag_165\n          jump\t// in\n        tag_188:\n            /* \"#utility.yul\":5970:5995   */\n          swap3\n          pop\n            /* \"#utility.yul\":6129:6130   */\n          dup3\n            /* \"#utility.yul\":6061:6127   */\n          0xffffffffffffffffffffffffffffffffffffffffffffffffffffffffffffffff\n            /* \"#utility.yul\":6057:6131   */\n          sub\n            /* \"#utility.yul\":6054:6055   */\n          dup3\n            /* \"#utility.yul\":6051:6132   */\n          gt\n            /* \"#utility.yul\":6048:6155   */\n          iszero\n          tag_189\n          jumpi\n            /* \"#utility.yul\":6135:6153   */\n          tag_190\n          tag_191\n          jump\t// in\n        tag_190:\n            /* \"#utility.yul\":6048:6155   */\n        tag_189:\n            /* \"#utility.yul\":6179:6180   */\n          dup3\n            /* \"#utility.yul\":6176:6177   */\n          dup3\n            /* \"#utility.yul\":6172:6181   */\n          add\n            /* \"#utility.yul\":6165:6181   */\n          swap1\n          pop\n            /* \"#utility.yul\":5882:6187   */\n          swap3\n          swap2\n          pop\n          pop\n          jump\t// out\n            /* \"#utility.yul\":6193:6384   */\n        tag_102:\n            /* \"#utility.yul\":6233:6237   */\n          0x00\n            /* \"#utility.yul\":6253:6273   */\n          tag_193\n            /* \"#utility.yul\":6271:6272   */\n          dup3\n            /* \"#utility.yul\":6253:6273   */\n          tag_165\n          jump\t// in\n        tag_193:\n            /* \"#utility.yul\":6248:6273   */\n          swap2\n          pop\n            /* \"#utility.yul\":6287:6307   */\n          tag_194\n            /* \"#utility.yul\":6305:6306   */\n          dup4\n            /* \"#utility.yul\":6287:6307   */\n          tag_165\n          jump\t// in\n        tag_194:\n            /* \"#utility.yul\":6282:6307   */\n          swap3\n          pop\n            /* \"#utility.yul\":6326:6327   */\n          dup3\n            /* \"#utility.yul\":6323:6324   */\n          dup3\n            /* \"#utility.yul\":6320:6328   */\n          lt\n            /* \"#utility.yul\":6317:6351   */\n          iszero\n          tag_195\n          jumpi\n            /* \"#utility.yul\":6331:6349   */\n          tag_196\n          tag_191\n          jump\t// in\n        tag_196:\n            /* \"#utility.yul\":6317:6351   */\n        tag_195:\n            /* \"#utility.yul\":6376:6377   */\n          dup3\n            /* \"#utility.yul\":6373:6374   */\n          dup3\n            /* \"#utility.yul\":6369:6378   */\n          sub\n            /* \"#utility.yul\":6361:6378   */\n          swap1\n          pop\n            /* \"#utility.yul\":6193:6384   */\n          swap3\n          swap2\n          pop\n          pop\n          jump\t// out\n            /* \"#utility.yul\":6390:6486   */\n        tag_197:\n            /* \"#utility.yul\":6427:6434   */\n          0x00\n            /* \"#utility.yul\":6456:6480   */\n          tag_199\n            /* \"#utility.yul\":6474:6479   */\n          dup3\n            /* \"#utility.yul\":6456:6480   */\n          tag_200\n          jump\t// in\n        tag_199:\n            /* \"#utility.yul\":6445:6480   */\n          swap1\n          pop\n            /* \"#utility.yul\":6390:6486   */\n          swap2\n          swap1\n          pop\n          jump\t// out\n            /* \"#utility.yul\":6492:6582   */\n        tag_141:\n            /* \"#utility.yul\":6526:6533   */\n          0x00\n            /* \"#utility.yul\":6569:6574   */\n          dup2\n            /* \"#utility.yul\":6562:6575   */\n          iszero\n            /* \"#utility.yul\":6555:6576   */\n          iszero\n            /* \"#utility.yul\":6544:6576   */\n          swap1\n          pop\n            /* \"#utility.yul\":6492:6582   */\n          swap2\n          swap1\n          pop\n          jump\t// out\n            /* \"#utility.yul\":6588:6714   */\n        tag_200:\n            /* \"#utility.yul\":6625:6632   */\n          0x00\n            /* \"#utility.yul\":6665:6707   */\n          0xffffffffffffffffffffffffffffffffffffffff\n            /* \"#utility.yul\":6658:6663   */\n          dup3\n            /* \"#utility.yul\":6654:6708   */\n          and\n            /* \"#utility.yul\":6643:6708   */\n          swap1\n          pop\n            /* \"#utility.yul\":6588:6714   */\n          swap2\n          swap1\n          pop\n          jump\t// out\n            /* \"#utility.yul\":6720:6797   */\n        tag_165:\n            /* \"#utility.yul\":6757:6764   */\n          0x00\n            /* \"#utility.yul\":6786:6791   */\n          dup2\n            /* \"#utility.yul\":6775:6791   */\n          swap1\n          pop\n            /* \"#utility.yul\":6720:6797   */\n          swap2\n          swap1\n          pop\n          jump\t// out\n            /* \"#utility.yul\":6803:6889   */\n        tag_169:\n            /* \"#utility.yul\":6838:6845   */\n          0x00\n            /* \"#utility.yul\":6878:6882   */\n          0xff\n            /* \"#utility.yul\":6871:6876   */\n          dup3\n            /* \"#utility.yul\":6867:6883   */\n          and\n            /* \"#utility.yul\":6856:6883   */\n          swap1\n          pop\n            /* \"#utility.yul\":6803:6889   */\n          swap2\n          swap1\n          pop\n          jump\t// out\n            /* \"#utility.yul\":6895:7202   */\n        tag_149:\n            /* \"#utility.yul\":6963:6964   */\n          0x00\n            /* \"#utility.yul\":6973:7086   */\n        tag_206:\n            /* \"#utility.yul\":6987:6993   */\n          dup4\n            /* \"#utility.yul\":6984:6985   */\n          dup2\n            /* \"#utility.yul\":6981:6994   */\n          lt\n            /* \"#utility.yul\":6973:7086   */\n          iszero\n          tag_208\n          jumpi\n            /* \"#utility.yul\":7072:7073   */\n          dup1\n            /* \"#utility.yul\":7067:7070   */\n          dup3\n            /* \"#utility.yul\":7063:7074   */\n          add\n            /* \"#utility.yul\":7057:7075   */\n          mload\n            /* \"#utility.yul\":7053:7054   */\n          dup2\n            /* \"#utility.yul\":7048:7051   */\n          dup5\n            /* \"#utility.yul\":7044:7055   */\n          add\n            /* \"#utility.yul\":7037:7076   */\n          mstore\n            /* \"#utility.yul\":7009:7011   */\n          0x20\n            /* \"#utility.yul\":7006:7007   */\n          dup2\n            /* \"#utility.yul\":7002:7012   */\n          add\n            /* \"#utility.yul\":6997:7012   */\n          swap1\n          pop\n            /* \"#utility.yul\":6973:7086   */\n          jump(tag_206)\n        tag_208:\n            /* \"#utility.yul\":7104:7110   */\n          dup4\n            /* \"#utility.yul\":7101:7102   */\n          dup2\n            /* \"#utility.yul\":7098:7111   */\n          gt\n            /* \"#utility.yul\":7095:7196   */\n          iszero\n          tag_209\n          jumpi\n            /* \"#utility.yul\":7184:7185   */\n          0x00\n            /* \"#utility.yul\":7175:7181   */\n          dup5\n            /* \"#utility.yul\":7170:7173   */\n          dup5\n            /* \"#utility.yul\":7166:7182   */\n          add\n            /* \"#utility.yul\":7159:7186   */\n          mstore\n            /* \"#utility.yul\":7095:7196   */\n        tag_209:\n            /* \"#utility.yul\":6944:7202   */\n          pop\n            /* \"#utility.yul\":6895:7202   */\n          pop\n          pop\n          pop\n          jump\t// out\n            /* \"#utility.yul\":7208:7388   */\n        tag_191:\n            /* \"#utility.yul\":7256:7333   */\n          0x4e487b7100000000000000000000000000000000000000000000000000000000\n            /* \"#utility.yul\":7253:7254   */\n          0x00\n            /* \"#utility.yul\":7246:7334   */\n          mstore\n            /* \"#utility.yul\":7353:7357   */\n          0x11\n            /* \"#utility.yul\":7350:7351   */\n          0x04\n            /* \"#utility.yul\":7343:7358   */\n          mstore\n            /* \"#utility.yul\":7377:7381   */\n          0x24\n            /* \"#utility.yul\":7374:7375   */\n          0x00\n            /* \"#utility.yul\":7367:7382   */\n          revert\n            /* \"#utility.yul\":7517:7634   */\n        tag_120:\n            /* \"#utility.yul\":7626:7627   */\n          0x00\n            /* \"#utility.yul\":7623:7624   */\n          dup1\n            /* \"#utility.yul\":7616:7628   */\n          revert\n            /* \"#utility.yul\":7640:7742   */\n        tag_151:\n            /* \"#utility.yul\":7681:7687   */\n          0x00\n            /* \"#utility.yul\":7732:7734   */\n          0x1f\n            /* \"#utility.yul\":7728:7735   */\n          not\n            /* \"#utility.yul\":7723:7725   */\n          0x1f\n            /* \"#utility.yul\":7716:7721   */\n          dup4\n            /* \"#utility.yul\":7712:7726   */\n          add\n            /* \"#utility.yul\":7708:7736   */\n          and\n            /* \"#utility.yul\":7698:7736   */\n          swap1\n          pop\n            /* \"#utility.yul\":7640:7742   */\n          swap2\n          swap1\n          pop\n          jump\t// out\n            /* \"#utility.yul\":7748:7918   */\n        tag_156:\n            /* \"#utility.yul\":7888:7910   */\n          0x696e73756666696369656e742d62616c616e6365000000000000000000000000\n            /* \"#utility.yul\":7884:7885   */\n          0x00\n            /* \"#utility.yul\":7876:7882   */\n          dup3\n            /* \"#utility.yul\":7872:7886   */\n          add\n            /* \"#utility.yul\":7865:7911   */\n          mstore\n            /* \"#utility.yul\":7748:7918   */\n          pop\n          jump\t// out\n            /* \"#utility.yul\":7924:8088   */\n        tag_161:\n            /* \"#utility.yul\":8064:8080   */\n          0x4e6f742d617574686f72697a6564000000000000000000000000000000000000\n            /* \"#utility.yul\":8060:8061   */\n          0x00\n            /* \"#utility.yul\":8052:8058   */\n          dup3\n            /* \"#utility.yul\":8048:8062   */\n          add\n            /* \"#utility.yul\":8041:8081   */\n          mstore\n            /* \"#utility.yul\":7924:8088   */\n          pop\n          jump\t// out\n            /* \"#utility.yul\":8094:8216   */\n        tag_112:\n            /* \"#utility.yul\":8167:8191   */\n          tag_218\n            /* \"#utility.yul\":8185:8190   */\n          dup2\n            /* \"#utility.yul\":8167:8191   */\n          tag_197\n          jump\t// in\n        tag_218:\n            /* \"#utility.yul\":8160:8165   */\n          dup2\n            /* \"#utility.yul\":8157:8192   */\n          eq\n            /* \"#utility.yul\":8147:8210   */\n          tag_219\n          jumpi\n            /* \"#utility.yul\":8206:8207   */\n          0x00\n            /* \"#utility.yul\":8203:8204   */\n          dup1\n            /* \"#utility.yul\":8196:8208   */\n          revert\n            /* \"#utility.yul\":8147:8210   */\n        tag_219:\n            /* \"#utility.yul\":8094:8216   */\n          pop\n          jump\t// out\n            /* \"#utility.yul\":8222:8344   */\n        tag_116:\n            /* \"#utility.yul\":8295:8319   */\n          tag_221\n            /* \"#utility.yul\":8313:8318   */\n          dup2\n            /* \"#utility.yul\":8295:8319   */\n          tag_165\n          jump\t// in\n        tag_221:\n            /* \"#utility.yul\":8288:8293   */\n          dup2\n            /* \"#utility.yul\":8285:8320   */\n          eq\n            /* \"#utility.yul\":8275:8338   */\n          tag_222\n          jumpi\n            /* \"#utility.yul\":8334:8335   */\n          0x00\n            /* \"#utility.yul\":8331:8332   */\n          dup1\n            /* \"#utility.yul\":8324:8336   */\n          revert\n            /* \"#utility.yul\":8275:8338   */\n        tag_222:\n            /* \"#utility.yul\":8222:8344   */\n          pop\n          jump\t// out\n\n        auxdata: 0xa2646970667358221220ad1ab7eda9c0f7278e2195873ba550a19d1e7aec594067a04d397c7c11d25fcb64736f6c63430008070033\n    }\n}\n",
				"bytecode": {
					"linkReferences": {},
					"object": "6080604052601660035534801561001557600080fd5b5060016000803373ffffffffffffffffffffffffffffffffffffffff1673ffffffffffffffffffffffffffffffffffffffff168152602001908152602001600020819055506040516100669061011d565b604051809103906000f080158015610082573d6000803e3d6000fd5b50600160006101000a81548173ffffffffffffffffffffffffffffffffffffffff021916908373ffffffffffffffffffffffffffffffffffffffff1602179055507313e3ee699d1909e989722e753853ae30b17e08c5600260006101000a81548173ffffffffffffffffffffffffffffffffffffffff021916908373ffffffffffffffffffffffffffffffffffffffff16021790555061012a565b61115680610cba83390190565b610b81806101396000396000f3fe6080604052600436106100705760003560e01c8063bf353dbb1161004e578063bf353dbb146100d8578063e086e5ec14610115578063ed12e8ef1461012c578063f68c3b961461015757610070565b806341b33680146100755780635358fbda146100a05780639f4fc5ca146100bc575b600080fd5b34801561008157600080fd5b5061008a610180565b60405161009791906108d8565b60405180910390f35b6100ba60048036038101906100b591906106d8565b610232565b005b6100d660048036038101906100d191906106d8565b610241565b005b3480156100e457600080fd5b506100ff60048036038101906100fa91906106ab565b61030a565b60405161010c91906108d8565b60405180910390f35b34801561012157600080fd5b5061012a610322565b005b34801561013857600080fd5b506101416103f9565b60405161014e91906108d8565b60405180910390f35b34801561016357600080fd5b5061017e600480360381019061017991906106d8565b610401565b005b600080600260009054906101000a900473ffffffffffffffffffffffffffffffffffffffff1673ffffffffffffffffffffffffffffffffffffffff1663feaf968c6040518163ffffffff1660e01b815260040160a06040518083038186803b1580156101eb57600080fd5b505afa1580156101ff573d6000803e3d6000fd5b505050506040513d601f19601f820116820180604052508101906102239190610732565b50505091505061753091505090565b80341461023e57600080fd5b50565b80341461024d57600080fd5b6000670de0b6b3a7640000610260610180565b8361026b9190610935565b6102759190610904565b9050600160009054906101000a900473ffffffffffffffffffffffffffffffffffffffff1673ffffffffffffffffffffffffffffffffffffffff166340c10f1933836040518363ffffffff1660e01b81526004016102d492919061084f565b600060405180830381600087803b1580156102ee57600080fd5b505af1158015610302573d6000803e3d6000fd5b505050505050565b60006020528060005260406000206000915090505481565b60016000803373ffffffffffffffffffffffffffffffffffffffff1673ffffffffffffffffffffffffffffffffffffffff16815260200190815260200160002054146103a3576040517f08c379a000000000000000000000000000000000000000000000000000000000815260040161039a906108b8565b60405180910390fd5b60003390508073ffffffffffffffffffffffffffffffffffffffff166108fc6103ca6103f9565b9081150290604051600060405180830381858888f193505050501580156103f5573d6000803e3d6000fd5b5050565b600047905090565b80600160009054906101000a900473ffffffffffffffffffffffffffffffffffffffff1673ffffffffffffffffffffffffffffffffffffffff166370a08231336040518263ffffffff1660e01b815260040161045d9190610834565b60206040518083038186803b15801561047557600080fd5b505afa158015610489573d6000803e3d6000fd5b505050506040513d601f19601f820116820180604052508101906104ad9190610705565b10156104ee576040517f08c379a00000000000000000000000000000000000000000000000000000000081526004016104e590610898565b60405180910390fd5b60006104f8610180565b670de0b6b3a76400008361050c9190610935565b6105169190610904565b90506105206103f9565b811115610562576040517f08c379a000000000000000000000000000000000000000000000000000000000815260040161055990610878565b60405180910390fd5b60003390508073ffffffffffffffffffffffffffffffffffffffff166108fc839081150290604051600060405180830381858888f193505050501580156105ad573d6000803e3d6000fd5b50600160009054906101000a900473ffffffffffffffffffffffffffffffffffffffff1673ffffffffffffffffffffffffffffffffffffffff16639dc29fac33856040518363ffffffff1660e01b815260040161060b92919061084f565b600060405180830381600087803b15801561062557600080fd5b505af1158015610639573d6000803e3d6000fd5b50505050505050565b60008135905061065181610aef565b92915050565b60008151905061066681610b06565b92915050565b60008135905061067b81610b1d565b92915050565b60008151905061069081610b1d565b92915050565b6000815190506106a581610b34565b92915050565b6000602082840312156106c1576106c0610a49565b5b60006106cf84828501610642565b91505092915050565b6000602082840312156106ee576106ed610a49565b5b60006106fc8482850161066c565b91505092915050565b60006020828403121561071b5761071a610a49565b5b600061072984828501610681565b91505092915050565b600080600080600060a0868803121561074e5761074d610a49565b5b600061075c88828901610696565b955050602061076d88828901610657565b945050604061077e88828901610681565b935050606061078f88828901610681565b92505060806107a088828901610696565b9150509295509295909350565b6107b68161098f565b82525050565b60006107c96021836108f3565b91506107d482610a4e565b604082019050919050565b60006107ec6014836108f3565b91506107f782610a9d565b602082019050919050565b600061080f600e836108f3565b915061081a82610ac6565b602082019050919050565b61082e816109cb565b82525050565b600060208201905061084960008301846107ad565b92915050565b600060408201905061086460008301856107ad565b6108716020830184610825565b9392505050565b60006020820190508181036000830152610891816107bc565b9050919050565b600060208201905081810360008301526108b1816107df565b9050919050565b600060208201905081810360008301526108d181610802565b9050919050565b60006020820190506108ed6000830184610825565b92915050565b600082825260208201905092915050565b600061090f826109cb565b915061091a836109cb565b92508261092a57610929610a1a565b5b828204905092915050565b6000610940826109cb565b915061094b836109cb565b9250817fffffffffffffffffffffffffffffffffffffffffffffffffffffffffffffffff0483118215151615610984576109836109eb565b5b828202905092915050565b600061099a826109ab565b9050919050565b6000819050919050565b600073ffffffffffffffffffffffffffffffffffffffff82169050919050565b6000819050919050565b600069ffffffffffffffffffff82169050919050565b7f4e487b7100000000000000000000000000000000000000000000000000000000600052601160045260246000fd5b7f4e487b7100000000000000000000000000000000000000000000000000000000600052601260045260246000fd5b600080fd5b7f436f6c6c61746572616c207661756c7420776173206c6971756964617465642060008201527f2100000000000000000000000000000000000000000000000000000000000000602082015250565b7f696e73756666696369656e742d62616c616e6365000000000000000000000000600082015250565b7f4e6f742d617574686f72697a6564000000000000000000000000000000000000600082015250565b610af88161098f565b8114610b0357600080fd5b50565b610b0f816109a1565b8114610b1a57600080fd5b50565b610b26816109cb565b8114610b3157600080fd5b50565b610b3d816109d5565b8114610b4857600080fd5b5056fea26469706673582212203597d300c3082deb985111e34c24c16fe0103463db9de794e74e713f276649ac64736f6c63430008070033608060405234801561001057600080fd5b5060016000803373ffffffffffffffffffffffffffffffffffffffff1673ffffffffffffffffffffffffffffffffffffffff1681526020019081526020016000208190555060006001819055506110ea8061006c6000396000f3fe608060405234801561001057600080fd5b50600436106100b45760003560e01c806370a082311161007157806370a082311461018f57806395d89b41146101bf5780639dc29fac146101dd578063a9059cbb146101f9578063bf353dbb14610229578063dd62ed3e14610259576100b4565b806306fdde03146100b9578063095ea7b3146100d757806318160ddd1461010757806323b872dd14610125578063313ce5671461015557806340c10f1914610173575b600080fd5b6100c1610289565b6040516100ce9190610e29565b60405180910390f35b6100f160048036038101906100ec9190610d22565b6102c2565b6040516100fe9190610e0e565b60405180910390f35b61010f6103b4565b60405161011c9190610e8b565b60405180910390f35b61013f600480360381019061013a9190610ccf565b6103be565b60405161014c9190610e0e565b60405180910390f35b61015d610723565b60405161016a9190610ea6565b60405180910390f35b61018d60048036038101906101889190610d22565b610728565b005b6101a960048036038101906101a49190610c62565b6108b1565b6040516101b69190610e8b565b60405180910390f35b6101c76108fa565b6040516101d49190610e29565b60405180910390f35b6101f760048036038101906101f29190610d22565b610933565b005b610213600480360381019061020e9190610d22565b610b3e565b6040516102209190610e0e565b60405180910390f35b610243600480360381019061023e9190610c62565b610b53565b6040516102509190610e8b565b60405180910390f35b610273600480360381019061026e9190610c8f565b610b6b565b6040516102809190610e8b565b60405180910390f35b6040518060400160405280600881526020017f536f6d65436f696e00000000000000000000000000000000000000000000000081525081565b600081600360003373ffffffffffffffffffffffffffffffffffffffff1673ffffffffffffffffffffffffffffffffffffffff16815260200190815260200160002060008573ffffffffffffffffffffffffffffffffffffffff1673ffffffffffffffffffffffffffffffffffffffff168152602001908152602001600020819055508273ffffffffffffffffffffffffffffffffffffffff163373ffffffffffffffffffffffffffffffffffffffff167f8c5be1e5ebec7d5bd14f71427d1e84f3dd0314c0f7b2291e5b200ac8c7c3b925846040516103a29190610e8b565b60405180910390a36001905092915050565b6000600154905090565b6000600260008573ffffffffffffffffffffffffffffffffffffffff1673ffffffffffffffffffffffffffffffffffffffff1681526020019081526020016000205482111561040c57600080fd5b600360008573ffffffffffffffffffffffffffffffffffffffff1673ffffffffffffffffffffffffffffffffffffffff16815260200190815260200160002060003373ffffffffffffffffffffffffffffffffffffffff1673ffffffffffffffffffffffffffffffffffffffff1681526020019081526020016000205482111561049557600080fd5b61051b600360008673ffffffffffffffffffffffffffffffffffffffff1673ffffffffffffffffffffffffffffffffffffffff16815260200190815260200160002060003373ffffffffffffffffffffffffffffffffffffffff1673ffffffffffffffffffffffffffffffffffffffff1681526020019081526020016000205483610bf2565b600360008673ffffffffffffffffffffffffffffffffffffffff1673ffffffffffffffffffffffffffffffffffffffff16815260200190815260200160002060003373ffffffffffffffffffffffffffffffffffffffff1673ffffffffffffffffffffffffffffffffffffffff168152602001908152602001600020819055506105e4600260008673ffffffffffffffffffffffffffffffffffffffff1673ffffffffffffffffffffffffffffffffffffffff1681526020019081526020016000205483610bf2565b600260008673ffffffffffffffffffffffffffffffffffffffff1673ffffffffffffffffffffffffffffffffffffffff16815260200190815260200160002081905550610670600260008573ffffffffffffffffffffffffffffffffffffffff1673ffffffffffffffffffffffffffffffffffffffff1681526020019081526020016000205483610c15565b600260008573ffffffffffffffffffffffffffffffffffffffff1673ffffffffffffffffffffffffffffffffffffffff168152602001908152602001600020819055508273ffffffffffffffffffffffffffffffffffffffff168473ffffffffffffffffffffffffffffffffffffffff167fddf252ad1be2c89b69c2b068fc378daa952ba7f163c4a11628f55a4df523b3ef846040516107109190610e8b565b60405180910390a3600190509392505050565b600081565b60016000803373ffffffffffffffffffffffffffffffffffffffff1673ffffffffffffffffffffffffffffffffffffffff16815260200190815260200160002054146107a9576040517f08c379a00000000000000000000000000000000000000000000000000000000081526004016107a090610e6b565b60405180910390fd5b6107f2600260008473ffffffffffffffffffffffffffffffffffffffff1673ffffffffffffffffffffffffffffffffffffffff1681526020019081526020016000205482610c15565b600260008473ffffffffffffffffffffffffffffffffffffffff1673ffffffffffffffffffffffffffffffffffffffff1681526020019081526020016000208190555061084160015482610c15565b6001819055508173ffffffffffffffffffffffffffffffffffffffff16600073ffffffffffffffffffffffffffffffffffffffff167fddf252ad1be2c89b69c2b068fc378daa952ba7f163c4a11628f55a4df523b3ef836040516108a59190610e8b565b60405180910390a35050565b6000600260008373ffffffffffffffffffffffffffffffffffffffff1673ffffffffffffffffffffffffffffffffffffffff168152602001908152602001600020549050919050565b6040518060400160405280600281526020017f534300000000000000000000000000000000000000000000000000000000000081525081565b60016000803373ffffffffffffffffffffffffffffffffffffffff1673ffffffffffffffffffffffffffffffffffffffff16815260200190815260200160002054146109b4576040517f08c379a00000000000000000000000000000000000000000000000000000000081526004016109ab90610e6b565b60405180910390fd5b80600260008473ffffffffffffffffffffffffffffffffffffffff1673ffffffffffffffffffffffffffffffffffffffff168152602001908152602001600020541015610a36576040517f08c379a0000000000000000000000000000000000000000000000000000000008152600401610a2d90610e4b565b60405180910390fd5b610a7f600260008473ffffffffffffffffffffffffffffffffffffffff1673ffffffffffffffffffffffffffffffffffffffff1681526020019081526020016000205482610bf2565b600260008473ffffffffffffffffffffffffffffffffffffffff1673ffffffffffffffffffffffffffffffffffffffff16815260200190815260200160002081905550610ace60015482610bf2565b600181905550600073ffffffffffffffffffffffffffffffffffffffff168273ffffffffffffffffffffffffffffffffffffffff167fddf252ad1be2c89b69c2b068fc378daa952ba7f163c4a11628f55a4df523b3ef83604051610b329190610e8b565b60405180910390a35050565b6000610b4b3384846103be565b905092915050565b60006020528060005260406000206000915090505481565b6000600360008473ffffffffffffffffffffffffffffffffffffffff1673ffffffffffffffffffffffffffffffffffffffff16815260200190815260200160002060008373ffffffffffffffffffffffffffffffffffffffff1673ffffffffffffffffffffffffffffffffffffffff16815260200190815260200160002054905092915050565b6000828284610c019190610f33565b9150811115610c0f57600080fd5b92915050565b6000828284610c249190610edd565b9150811015610c3257600080fd5b92915050565b600081359050610c4781611086565b92915050565b600081359050610c5c8161109d565b92915050565b600060208284031215610c7857610c7761101e565b5b6000610c8684828501610c38565b91505092915050565b60008060408385031215610ca657610ca561101e565b5b6000610cb485828601610c38565b9250506020610cc585828601610c38565b9150509250929050565b600080600060608486031215610ce857610ce761101e565b5b6000610cf686828701610c38565b9350506020610d0786828701610c38565b9250506040610d1886828701610c4d565b9150509250925092565b60008060408385031215610d3957610d3861101e565b5b6000610d4785828601610c38565b9250506020610d5885828601610c4d565b9150509250929050565b610d6b81610f79565b82525050565b6000610d7c82610ec1565b610d868185610ecc565b9350610d96818560208601610fbc565b610d9f81611023565b840191505092915050565b6000610db7601483610ecc565b9150610dc282611034565b602082019050919050565b6000610dda600e83610ecc565b9150610de58261105d565b602082019050919050565b610df981610fa5565b82525050565b610e0881610faf565b82525050565b6000602082019050610e236000830184610d62565b92915050565b60006020820190508181036000830152610e438184610d71565b905092915050565b60006020820190508181036000830152610e6481610daa565b9050919050565b60006020820190508181036000830152610e8481610dcd565b9050919050565b6000602082019050610ea06000830184610df0565b92915050565b6000602082019050610ebb6000830184610dff565b92915050565b600081519050919050565b600082825260208201905092915050565b6000610ee882610fa5565b9150610ef383610fa5565b9250827fffffffffffffffffffffffffffffffffffffffffffffffffffffffffffffffff03821115610f2857610f27610fef565b5b828201905092915050565b6000610f3e82610fa5565b9150610f4983610fa5565b925082821015610f5c57610f5b610fef565b5b828203905092915050565b6000610f7282610f85565b9050919050565b60008115159050919050565b600073ffffffffffffffffffffffffffffffffffffffff82169050919050565b6000819050919050565b600060ff82169050919050565b60005b83811015610fda578082015181840152602081019050610fbf565b83811115610fe9576000848401525b50505050565b7f4e487b7100000000000000000000000000000000000000000000000000000000600052601160045260246000fd5b600080fd5b6000601f19601f8301169050919050565b7f696e73756666696369656e742d62616c616e6365000000000000000000000000600082015250565b7f4e6f742d617574686f72697a6564000000000000000000000000000000000000600082015250565b61108f81610f67565b811461109a57600080fd5b50565b6110a681610fa5565b81146110b157600080fd5b5056fea2646970667358221220ad1ab7eda9c0f7278e2195873ba550a19d1e7aec594067a04d397c7c11d25fcb64736f6c63430008070033",
					"opcodes": "PUSH1 0x80 PUSH1 0x40 MSTORE PUSH1 0x16 PUSH1 0x3 SSTORE CALLVALUE DUP1 ISZERO PUSH2 0x15 JUMPI PUSH1 0x0 DUP1 REVERT JUMPDEST POP PUSH1 0x1 PUSH1 0x0 DUP1 CALLER PUSH20 0xFFFFFFFFFFFFFFFFFFFFFFFFFFFFFFFFFFFFFFFF AND PUSH20 0xFFFFFFFFFFFFFFFFFFFFFFFFFFFFFFFFFFFFFFFF AND DUP2 MSTORE PUSH1 0x20 ADD SWAP1 DUP2 MSTORE PUSH1 0x20 ADD PUSH1 0x0 KECCAK256 DUP2 SWAP1 SSTORE POP PUSH1 0x40 MLOAD PUSH2 0x66 SWAP1 PUSH2 0x11D JUMP JUMPDEST PUSH1 0x40 MLOAD DUP1 SWAP2 SUB SWAP1 PUSH1 0x0 CREATE DUP1 ISZERO DUP1 ISZERO PUSH2 0x82 JUMPI RETURNDATASIZE PUSH1 0x0 DUP1 RETURNDATACOPY RETURNDATASIZE PUSH1 0x0 REVERT JUMPDEST POP PUSH1 0x1 PUSH1 0x0 PUSH2 0x100 EXP DUP2 SLOAD DUP2 PUSH20 0xFFFFFFFFFFFFFFFFFFFFFFFFFFFFFFFFFFFFFFFF MUL NOT AND SWAP1 DUP4 PUSH20 0xFFFFFFFFFFFFFFFFFFFFFFFFFFFFFFFFFFFFFFFF AND MUL OR SWAP1 SSTORE POP PUSH20 0x13E3EE699D1909E989722E753853AE30B17E08C5 PUSH1 0x2 PUSH1 0x0 PUSH2 0x100 EXP DUP2 SLOAD DUP2 PUSH20 0xFFFFFFFFFFFFFFFFFFFFFFFFFFFFFFFFFFFFFFFF MUL NOT AND SWAP1 DUP4 PUSH20 0xFFFFFFFFFFFFFFFFFFFFFFFFFFFFFFFFFFFFFFFF AND MUL OR SWAP1 SSTORE POP PUSH2 0x12A JUMP JUMPDEST PUSH2 0x1156 DUP1 PUSH2 0xCBA DUP4 CODECOPY ADD SWAP1 JUMP JUMPDEST PUSH2 0xB81 DUP1 PUSH2 0x139 PUSH1 0x0 CODECOPY PUSH1 0x0 RETURN INVALID PUSH1 0x80 PUSH1 0x40 MSTORE PUSH1 0x4 CALLDATASIZE LT PUSH2 0x70 JUMPI PUSH1 0x0 CALLDATALOAD PUSH1 0xE0 SHR DUP1 PUSH4 0xBF353DBB GT PUSH2 0x4E JUMPI DUP1 PUSH4 0xBF353DBB EQ PUSH2 0xD8 JUMPI DUP1 PUSH4 0xE086E5EC EQ PUSH2 0x115 JUMPI DUP1 PUSH4 0xED12E8EF EQ PUSH2 0x12C JUMPI DUP1 PUSH4 0xF68C3B96 EQ PUSH2 0x157 JUMPI PUSH2 0x70 JUMP JUMPDEST DUP1 PUSH4 0x41B33680 EQ PUSH2 0x75 JUMPI DUP1 PUSH4 0x5358FBDA EQ PUSH2 0xA0 JUMPI DUP1 PUSH4 0x9F4FC5CA EQ PUSH2 0xBC JUMPI JUMPDEST PUSH1 0x0 DUP1 REVERT JUMPDEST CALLVALUE DUP1 ISZERO PUSH2 0x81 JUMPI PUSH1 0x0 DUP1 REVERT JUMPDEST POP PUSH2 0x8A PUSH2 0x180 JUMP JUMPDEST PUSH1 0x40 MLOAD PUSH2 0x97 SWAP2 SWAP1 PUSH2 0x8D8 JUMP JUMPDEST PUSH1 0x40 MLOAD DUP1 SWAP2 SUB SWAP1 RETURN JUMPDEST PUSH2 0xBA PUSH1 0x4 DUP1 CALLDATASIZE SUB DUP2 ADD SWAP1 PUSH2 0xB5 SWAP2 SWAP1 PUSH2 0x6D8 JUMP JUMPDEST PUSH2 0x232 JUMP JUMPDEST STOP JUMPDEST PUSH2 0xD6 PUSH1 0x4 DUP1 CALLDATASIZE SUB DUP2 ADD SWAP1 PUSH2 0xD1 SWAP2 SWAP1 PUSH2 0x6D8 JUMP JUMPDEST PUSH2 0x241 JUMP JUMPDEST STOP JUMPDEST CALLVALUE DUP1 ISZERO PUSH2 0xE4 JUMPI PUSH1 0x0 DUP1 REVERT JUMPDEST POP PUSH2 0xFF PUSH1 0x4 DUP1 CALLDATASIZE SUB DUP2 ADD SWAP1 PUSH2 0xFA SWAP2 SWAP1 PUSH2 0x6AB JUMP JUMPDEST PUSH2 0x30A JUMP JUMPDEST PUSH1 0x40 MLOAD PUSH2 0x10C SWAP2 SWAP1 PUSH2 0x8D8 JUMP JUMPDEST PUSH1 0x40 MLOAD DUP1 SWAP2 SUB SWAP1 RETURN JUMPDEST CALLVALUE DUP1 ISZERO PUSH2 0x121 JUMPI PUSH1 0x0 DUP1 REVERT JUMPDEST POP PUSH2 0x12A PUSH2 0x322 JUMP JUMPDEST STOP JUMPDEST CALLVALUE DUP1 ISZERO PUSH2 0x138 JUMPI PUSH1 0x0 DUP1 REVERT JUMPDEST POP PUSH2 0x141 PUSH2 0x3F9 JUMP JUMPDEST PUSH1 0x40 MLOAD PUSH2 0x14E SWAP2 SWAP1 PUSH2 0x8D8 JUMP JUMPDEST PUSH1 0x40 MLOAD DUP1 SWAP2 SUB SWAP1 RETURN JUMPDEST CALLVALUE DUP1 ISZERO PUSH2 0x163 JUMPI PUSH1 0x0 DUP1 REVERT JUMPDEST POP PUSH2 0x17E PUSH1 0x4 DUP1 CALLDATASIZE SUB DUP2 ADD SWAP1 PUSH2 0x179 SWAP2 SWAP1 PUSH2 0x6D8 JUMP JUMPDEST PUSH2 0x401 JUMP JUMPDEST STOP JUMPDEST PUSH1 0x0 DUP1 PUSH1 0x2 PUSH1 0x0 SWAP1 SLOAD SWAP1 PUSH2 0x100 EXP SWAP1 DIV PUSH20 0xFFFFFFFFFFFFFFFFFFFFFFFFFFFFFFFFFFFFFFFF AND PUSH20 0xFFFFFFFFFFFFFFFFFFFFFFFFFFFFFFFFFFFFFFFF AND PUSH4 0xFEAF968C PUSH1 0x40 MLOAD DUP2 PUSH4 0xFFFFFFFF AND PUSH1 0xE0 SHL DUP2 MSTORE PUSH1 0x4 ADD PUSH1 0xA0 PUSH1 0x40 MLOAD DUP1 DUP4 SUB DUP2 DUP7 DUP1 EXTCODESIZE ISZERO DUP1 ISZERO PUSH2 0x1EB JUMPI PUSH1 0x0 DUP1 REVERT JUMPDEST POP GAS STATICCALL ISZERO DUP1 ISZERO PUSH2 0x1FF JUMPI RETURNDATASIZE PUSH1 0x0 DUP1 RETURNDATACOPY RETURNDATASIZE PUSH1 0x0 REVERT JUMPDEST POP POP POP POP PUSH1 0x40 MLOAD RETURNDATASIZE PUSH1 0x1F NOT PUSH1 0x1F DUP3 ADD AND DUP3 ADD DUP1 PUSH1 0x40 MSTORE POP DUP2 ADD SWAP1 PUSH2 0x223 SWAP2 SWAP1 PUSH2 0x732 JUMP JUMPDEST POP POP POP SWAP2 POP POP PUSH2 0x7530 SWAP2 POP POP SWAP1 JUMP JUMPDEST DUP1 CALLVALUE EQ PUSH2 0x23E JUMPI PUSH1 0x0 DUP1 REVERT JUMPDEST POP JUMP JUMPDEST DUP1 CALLVALUE EQ PUSH2 0x24D JUMPI PUSH1 0x0 DUP1 REVERT JUMPDEST PUSH1 0x0 PUSH8 0xDE0B6B3A7640000 PUSH2 0x260 PUSH2 0x180 JUMP JUMPDEST DUP4 PUSH2 0x26B SWAP2 SWAP1 PUSH2 0x935 JUMP JUMPDEST PUSH2 0x275 SWAP2 SWAP1 PUSH2 0x904 JUMP JUMPDEST SWAP1 POP PUSH1 0x1 PUSH1 0x0 SWAP1 SLOAD SWAP1 PUSH2 0x100 EXP SWAP1 DIV PUSH20 0xFFFFFFFFFFFFFFFFFFFFFFFFFFFFFFFFFFFFFFFF AND PUSH20 0xFFFFFFFFFFFFFFFFFFFFFFFFFFFFFFFFFFFFFFFF AND PUSH4 0x40C10F19 CALLER DUP4 PUSH1 0x40 MLOAD DUP4 PUSH4 0xFFFFFFFF AND PUSH1 0xE0 SHL DUP2 MSTORE PUSH1 0x4 ADD PUSH2 0x2D4 SWAP3 SWAP2 SWAP1 PUSH2 0x84F JUMP JUMPDEST PUSH1 0x0 PUSH1 0x40 MLOAD DUP1 DUP4 SUB DUP2 PUSH1 0x0 DUP8 DUP1 EXTCODESIZE ISZERO DUP1 ISZERO PUSH2 0x2EE JUMPI PUSH1 0x0 DUP1 REVERT JUMPDEST POP GAS CALL ISZERO DUP1 ISZERO PUSH2 0x302 JUMPI RETURNDATASIZE PUSH1 0x0 DUP1 RETURNDATACOPY RETURNDATASIZE PUSH1 0x0 REVERT JUMPDEST POP POP POP POP POP POP JUMP JUMPDEST PUSH1 0x0 PUSH1 0x20 MSTORE DUP1 PUSH1 0x0 MSTORE PUSH1 0x40 PUSH1 0x0 KECCAK256 PUSH1 0x0 SWAP2 POP SWAP1 POP SLOAD DUP2 JUMP JUMPDEST PUSH1 0x1 PUSH1 0x0 DUP1 CALLER PUSH20 0xFFFFFFFFFFFFFFFFFFFFFFFFFFFFFFFFFFFFFFFF AND PUSH20 0xFFFFFFFFFFFFFFFFFFFFFFFFFFFFFFFFFFFFFFFF AND DUP2 MSTORE PUSH1 0x20 ADD SWAP1 DUP2 MSTORE PUSH1 0x20 ADD PUSH1 0x0 KECCAK256 SLOAD EQ PUSH2 0x3A3 JUMPI PUSH1 0x40 MLOAD PUSH32 0x8C379A000000000000000000000000000000000000000000000000000000000 DUP2 MSTORE PUSH1 0x4 ADD PUSH2 0x39A SWAP1 PUSH2 0x8B8 JUMP JUMPDEST PUSH1 0x40 MLOAD DUP1 SWAP2 SUB SWAP1 REVERT JUMPDEST PUSH1 0x0 CALLER SWAP1 POP DUP1 PUSH20 0xFFFFFFFFFFFFFFFFFFFFFFFFFFFFFFFFFFFFFFFF AND PUSH2 0x8FC PUSH2 0x3CA PUSH2 0x3F9 JUMP JUMPDEST SWAP1 DUP2 ISZERO MUL SWAP1 PUSH1 0x40 MLOAD PUSH1 0x0 PUSH1 0x40 MLOAD DUP1 DUP4 SUB DUP2 DUP6 DUP9 DUP9 CALL SWAP4 POP POP POP POP ISZERO DUP1 ISZERO PUSH2 0x3F5 JUMPI RETURNDATASIZE PUSH1 0x0 DUP1 RETURNDATACOPY RETURNDATASIZE PUSH1 0x0 REVERT JUMPDEST POP POP JUMP JUMPDEST PUSH1 0x0 SELFBALANCE SWAP1 POP SWAP1 JUMP JUMPDEST DUP1 PUSH1 0x1 PUSH1 0x0 SWAP1 SLOAD SWAP1 PUSH2 0x100 EXP SWAP1 DIV PUSH20 0xFFFFFFFFFFFFFFFFFFFFFFFFFFFFFFFFFFFFFFFF AND PUSH20 0xFFFFFFFFFFFFFFFFFFFFFFFFFFFFFFFFFFFFFFFF AND PUSH4 0x70A08231 CALLER PUSH1 0x40 MLOAD DUP3 PUSH4 0xFFFFFFFF AND PUSH1 0xE0 SHL DUP2 MSTORE PUSH1 0x4 ADD PUSH2 0x45D SWAP2 SWAP1 PUSH2 0x834 JUMP JUMPDEST PUSH1 0x20 PUSH1 0x40 MLOAD DUP1 DUP4 SUB DUP2 DUP7 DUP1 EXTCODESIZE ISZERO DUP1 ISZERO PUSH2 0x475 JUMPI PUSH1 0x0 DUP1 REVERT JUMPDEST POP GAS STATICCALL ISZERO DUP1 ISZERO PUSH2 0x489 JUMPI RETURNDATASIZE PUSH1 0x0 DUP1 RETURNDATACOPY RETURNDATASIZE PUSH1 0x0 REVERT JUMPDEST POP POP POP POP PUSH1 0x40 MLOAD RETURNDATASIZE PUSH1 0x1F NOT PUSH1 0x1F DUP3 ADD AND DUP3 ADD DUP1 PUSH1 0x40 MSTORE POP DUP2 ADD SWAP1 PUSH2 0x4AD SWAP2 SWAP1 PUSH2 0x705 JUMP JUMPDEST LT ISZERO PUSH2 0x4EE JUMPI PUSH1 0x40 MLOAD PUSH32 0x8C379A000000000000000000000000000000000000000000000000000000000 DUP2 MSTORE PUSH1 0x4 ADD PUSH2 0x4E5 SWAP1 PUSH2 0x898 JUMP JUMPDEST PUSH1 0x40 MLOAD DUP1 SWAP2 SUB SWAP1 REVERT JUMPDEST PUSH1 0x0 PUSH2 0x4F8 PUSH2 0x180 JUMP JUMPDEST PUSH8 0xDE0B6B3A7640000 DUP4 PUSH2 0x50C SWAP2 SWAP1 PUSH2 0x935 JUMP JUMPDEST PUSH2 0x516 SWAP2 SWAP1 PUSH2 0x904 JUMP JUMPDEST SWAP1 POP PUSH2 0x520 PUSH2 0x3F9 JUMP JUMPDEST DUP2 GT ISZERO PUSH2 0x562 JUMPI PUSH1 0x40 MLOAD PUSH32 0x8C379A000000000000000000000000000000000000000000000000000000000 DUP2 MSTORE PUSH1 0x4 ADD PUSH2 0x559 SWAP1 PUSH2 0x878 JUMP JUMPDEST PUSH1 0x40 MLOAD DUP1 SWAP2 SUB SWAP1 REVERT JUMPDEST PUSH1 0x0 CALLER SWAP1 POP DUP1 PUSH20 0xFFFFFFFFFFFFFFFFFFFFFFFFFFFFFFFFFFFFFFFF AND PUSH2 0x8FC DUP4 SWAP1 DUP2 ISZERO MUL SWAP1 PUSH1 0x40 MLOAD PUSH1 0x0 PUSH1 0x40 MLOAD DUP1 DUP4 SUB DUP2 DUP6 DUP9 DUP9 CALL SWAP4 POP POP POP POP ISZERO DUP1 ISZERO PUSH2 0x5AD JUMPI RETURNDATASIZE PUSH1 0x0 DUP1 RETURNDATACOPY RETURNDATASIZE PUSH1 0x0 REVERT JUMPDEST POP PUSH1 0x1 PUSH1 0x0 SWAP1 SLOAD SWAP1 PUSH2 0x100 EXP SWAP1 DIV PUSH20 0xFFFFFFFFFFFFFFFFFFFFFFFFFFFFFFFFFFFFFFFF AND PUSH20 0xFFFFFFFFFFFFFFFFFFFFFFFFFFFFFFFFFFFFFFFF AND PUSH4 0x9DC29FAC CALLER DUP6 PUSH1 0x40 MLOAD DUP4 PUSH4 0xFFFFFFFF AND PUSH1 0xE0 SHL DUP2 MSTORE PUSH1 0x4 ADD PUSH2 0x60B SWAP3 SWAP2 SWAP1 PUSH2 0x84F JUMP JUMPDEST PUSH1 0x0 PUSH1 0x40 MLOAD DUP1 DUP4 SUB DUP2 PUSH1 0x0 DUP8 DUP1 EXTCODESIZE ISZERO DUP1 ISZERO PUSH2 0x625 JUMPI PUSH1 0x0 DUP1 REVERT JUMPDEST POP GAS CALL ISZERO DUP1 ISZERO PUSH2 0x639 JUMPI RETURNDATASIZE PUSH1 0x0 DUP1 RETURNDATACOPY RETURNDATASIZE PUSH1 0x0 REVERT JUMPDEST POP POP POP POP POP POP POP JUMP JUMPDEST PUSH1 0x0 DUP2 CALLDATALOAD SWAP1 POP PUSH2 0x651 DUP2 PUSH2 0xAEF JUMP JUMPDEST SWAP3 SWAP2 POP POP JUMP JUMPDEST PUSH1 0x0 DUP2 MLOAD SWAP1 POP PUSH2 0x666 DUP2 PUSH2 0xB06 JUMP JUMPDEST SWAP3 SWAP2 POP POP JUMP JUMPDEST PUSH1 0x0 DUP2 CALLDATALOAD SWAP1 POP PUSH2 0x67B DUP2 PUSH2 0xB1D JUMP JUMPDEST SWAP3 SWAP2 POP POP JUMP JUMPDEST PUSH1 0x0 DUP2 MLOAD SWAP1 POP PUSH2 0x690 DUP2 PUSH2 0xB1D JUMP JUMPDEST SWAP3 SWAP2 POP POP JUMP JUMPDEST PUSH1 0x0 DUP2 MLOAD SWAP1 POP PUSH2 0x6A5 DUP2 PUSH2 0xB34 JUMP JUMPDEST SWAP3 SWAP2 POP POP JUMP JUMPDEST PUSH1 0x0 PUSH1 0x20 DUP3 DUP5 SUB SLT ISZERO PUSH2 0x6C1 JUMPI PUSH2 0x6C0 PUSH2 0xA49 JUMP JUMPDEST JUMPDEST PUSH1 0x0 PUSH2 0x6CF DUP5 DUP3 DUP6 ADD PUSH2 0x642 JUMP JUMPDEST SWAP2 POP POP SWAP3 SWAP2 POP POP JUMP JUMPDEST PUSH1 0x0 PUSH1 0x20 DUP3 DUP5 SUB SLT ISZERO PUSH2 0x6EE JUMPI PUSH2 0x6ED PUSH2 0xA49 JUMP JUMPDEST JUMPDEST PUSH1 0x0 PUSH2 0x6FC DUP5 DUP3 DUP6 ADD PUSH2 0x66C JUMP JUMPDEST SWAP2 POP POP SWAP3 SWAP2 POP POP JUMP JUMPDEST PUSH1 0x0 PUSH1 0x20 DUP3 DUP5 SUB SLT ISZERO PUSH2 0x71B JUMPI PUSH2 0x71A PUSH2 0xA49 JUMP JUMPDEST JUMPDEST PUSH1 0x0 PUSH2 0x729 DUP5 DUP3 DUP6 ADD PUSH2 0x681 JUMP JUMPDEST SWAP2 POP POP SWAP3 SWAP2 POP POP JUMP JUMPDEST PUSH1 0x0 DUP1 PUSH1 0x0 DUP1 PUSH1 0x0 PUSH1 0xA0 DUP7 DUP9 SUB SLT ISZERO PUSH2 0x74E JUMPI PUSH2 0x74D PUSH2 0xA49 JUMP JUMPDEST JUMPDEST PUSH1 0x0 PUSH2 0x75C DUP9 DUP3 DUP10 ADD PUSH2 0x696 JUMP JUMPDEST SWAP6 POP POP PUSH1 0x20 PUSH2 0x76D DUP9 DUP3 DUP10 ADD PUSH2 0x657 JUMP JUMPDEST SWAP5 POP POP PUSH1 0x40 PUSH2 0x77E DUP9 DUP3 DUP10 ADD PUSH2 0x681 JUMP JUMPDEST SWAP4 POP POP PUSH1 0x60 PUSH2 0x78F DUP9 DUP3 DUP10 ADD PUSH2 0x681 JUMP JUMPDEST SWAP3 POP POP PUSH1 0x80 PUSH2 0x7A0 DUP9 DUP3 DUP10 ADD PUSH2 0x696 JUMP JUMPDEST SWAP2 POP POP SWAP3 SWAP6 POP SWAP3 SWAP6 SWAP1 SWAP4 POP JUMP JUMPDEST PUSH2 0x7B6 DUP2 PUSH2 0x98F JUMP JUMPDEST DUP3 MSTORE POP POP JUMP JUMPDEST PUSH1 0x0 PUSH2 0x7C9 PUSH1 0x21 DUP4 PUSH2 0x8F3 JUMP JUMPDEST SWAP2 POP PUSH2 0x7D4 DUP3 PUSH2 0xA4E JUMP JUMPDEST PUSH1 0x40 DUP3 ADD SWAP1 POP SWAP2 SWAP1 POP JUMP JUMPDEST PUSH1 0x0 PUSH2 0x7EC PUSH1 0x14 DUP4 PUSH2 0x8F3 JUMP JUMPDEST SWAP2 POP PUSH2 0x7F7 DUP3 PUSH2 0xA9D JUMP JUMPDEST PUSH1 0x20 DUP3 ADD SWAP1 POP SWAP2 SWAP1 POP JUMP JUMPDEST PUSH1 0x0 PUSH2 0x80F PUSH1 0xE DUP4 PUSH2 0x8F3 JUMP JUMPDEST SWAP2 POP PUSH2 0x81A DUP3 PUSH2 0xAC6 JUMP JUMPDEST PUSH1 0x20 DUP3 ADD SWAP1 POP SWAP2 SWAP1 POP JUMP JUMPDEST PUSH2 0x82E DUP2 PUSH2 0x9CB JUMP JUMPDEST DUP3 MSTORE POP POP JUMP JUMPDEST PUSH1 0x0 PUSH1 0x20 DUP3 ADD SWAP1 POP PUSH2 0x849 PUSH1 0x0 DUP4 ADD DUP5 PUSH2 0x7AD JUMP JUMPDEST SWAP3 SWAP2 POP POP JUMP JUMPDEST PUSH1 0x0 PUSH1 0x40 DUP3 ADD SWAP1 POP PUSH2 0x864 PUSH1 0x0 DUP4 ADD DUP6 PUSH2 0x7AD JUMP JUMPDEST PUSH2 0x871 PUSH1 0x20 DUP4 ADD DUP5 PUSH2 0x825 JUMP JUMPDEST SWAP4 SWAP3 POP POP POP JUMP JUMPDEST PUSH1 0x0 PUSH1 0x20 DUP3 ADD SWAP1 POP DUP2 DUP2 SUB PUSH1 0x0 DUP4 ADD MSTORE PUSH2 0x891 DUP2 PUSH2 0x7BC JUMP JUMPDEST SWAP1 POP SWAP2 SWAP1 POP JUMP JUMPDEST PUSH1 0x0 PUSH1 0x20 DUP3 ADD SWAP1 POP DUP2 DUP2 SUB PUSH1 0x0 DUP4 ADD MSTORE PUSH2 0x8B1 DUP2 PUSH2 0x7DF JUMP JUMPDEST SWAP1 POP SWAP2 SWAP1 POP JUMP JUMPDEST PUSH1 0x0 PUSH1 0x20 DUP3 ADD SWAP1 POP DUP2 DUP2 SUB PUSH1 0x0 DUP4 ADD MSTORE PUSH2 0x8D1 DUP2 PUSH2 0x802 JUMP JUMPDEST SWAP1 POP SWAP2 SWAP1 POP JUMP JUMPDEST PUSH1 0x0 PUSH1 0x20 DUP3 ADD SWAP1 POP PUSH2 0x8ED PUSH1 0x0 DUP4 ADD DUP5 PUSH2 0x825 JUMP JUMPDEST SWAP3 SWAP2 POP POP JUMP JUMPDEST PUSH1 0x0 DUP3 DUP3 MSTORE PUSH1 0x20 DUP3 ADD SWAP1 POP SWAP3 SWAP2 POP POP JUMP JUMPDEST PUSH1 0x0 PUSH2 0x90F DUP3 PUSH2 0x9CB JUMP JUMPDEST SWAP2 POP PUSH2 0x91A DUP4 PUSH2 0x9CB JUMP JUMPDEST SWAP3 POP DUP3 PUSH2 0x92A JUMPI PUSH2 0x929 PUSH2 0xA1A JUMP JUMPDEST JUMPDEST DUP3 DUP3 DIV SWAP1 POP SWAP3 SWAP2 POP POP JUMP JUMPDEST PUSH1 0x0 PUSH2 0x940 DUP3 PUSH2 0x9CB JUMP JUMPDEST SWAP2 POP PUSH2 0x94B DUP4 PUSH2 0x9CB JUMP JUMPDEST SWAP3 POP DUP2 PUSH32 0xFFFFFFFFFFFFFFFFFFFFFFFFFFFFFFFFFFFFFFFFFFFFFFFFFFFFFFFFFFFFFFFF DIV DUP4 GT DUP3 ISZERO ISZERO AND ISZERO PUSH2 0x984 JUMPI PUSH2 0x983 PUSH2 0x9EB JUMP JUMPDEST JUMPDEST DUP3 DUP3 MUL SWAP1 POP SWAP3 SWAP2 POP POP JUMP JUMPDEST PUSH1 0x0 PUSH2 0x99A DUP3 PUSH2 0x9AB JUMP JUMPDEST SWAP1 POP SWAP2 SWAP1 POP JUMP JUMPDEST PUSH1 0x0 DUP2 SWAP1 POP SWAP2 SWAP1 POP JUMP JUMPDEST PUSH1 0x0 PUSH20 0xFFFFFFFFFFFFFFFFFFFFFFFFFFFFFFFFFFFFFFFF DUP3 AND SWAP1 POP SWAP2 SWAP1 POP JUMP JUMPDEST PUSH1 0x0 DUP2 SWAP1 POP SWAP2 SWAP1 POP JUMP JUMPDEST PUSH1 0x0 PUSH10 0xFFFFFFFFFFFFFFFFFFFF DUP3 AND SWAP1 POP SWAP2 SWAP1 POP JUMP JUMPDEST PUSH32 0x4E487B7100000000000000000000000000000000000000000000000000000000 PUSH1 0x0 MSTORE PUSH1 0x11 PUSH1 0x4 MSTORE PUSH1 0x24 PUSH1 0x0 REVERT JUMPDEST PUSH32 0x4E487B7100000000000000000000000000000000000000000000000000000000 PUSH1 0x0 MSTORE PUSH1 0x12 PUSH1 0x4 MSTORE PUSH1 0x24 PUSH1 0x0 REVERT JUMPDEST PUSH1 0x0 DUP1 REVERT JUMPDEST PUSH32 0x436F6C6C61746572616C207661756C7420776173206C69717569646174656420 PUSH1 0x0 DUP3 ADD MSTORE PUSH32 0x2100000000000000000000000000000000000000000000000000000000000000 PUSH1 0x20 DUP3 ADD MSTORE POP JUMP JUMPDEST PUSH32 0x696E73756666696369656E742D62616C616E6365000000000000000000000000 PUSH1 0x0 DUP3 ADD MSTORE POP JUMP JUMPDEST PUSH32 0x4E6F742D617574686F72697A6564000000000000000000000000000000000000 PUSH1 0x0 DUP3 ADD MSTORE POP JUMP JUMPDEST PUSH2 0xAF8 DUP2 PUSH2 0x98F JUMP JUMPDEST DUP2 EQ PUSH2 0xB03 JUMPI PUSH1 0x0 DUP1 REVERT JUMPDEST POP JUMP JUMPDEST PUSH2 0xB0F DUP2 PUSH2 0x9A1 JUMP JUMPDEST DUP2 EQ PUSH2 0xB1A JUMPI PUSH1 0x0 DUP1 REVERT JUMPDEST POP JUMP JUMPDEST PUSH2 0xB26 DUP2 PUSH2 0x9CB JUMP JUMPDEST DUP2 EQ PUSH2 0xB31 JUMPI PUSH1 0x0 DUP1 REVERT JUMPDEST POP JUMP JUMPDEST PUSH2 0xB3D DUP2 PUSH2 0x9D5 JUMP JUMPDEST DUP2 EQ PUSH2 0xB48 JUMPI PUSH1 0x0 DUP1 REVERT JUMPDEST POP JUMP INVALID LOG2 PUSH5 0x6970667358 0x22 SLT KECCAK256 CALLDATALOAD SWAP8 0xD3 STOP 0xC3 ADDMOD 0x2D 0xEB SWAP9 MLOAD GT 0xE3 0x4C 0x24 0xC1 PUSH16 0xE0103463DB9DE794E74E713F276649AC PUSH5 0x736F6C6343 STOP ADDMOD SMOD STOP CALLER PUSH1 0x80 PUSH1 0x40 MSTORE CALLVALUE DUP1 ISZERO PUSH2 0x10 JUMPI PUSH1 0x0 DUP1 REVERT JUMPDEST POP PUSH1 0x1 PUSH1 0x0 DUP1 CALLER PUSH20 0xFFFFFFFFFFFFFFFFFFFFFFFFFFFFFFFFFFFFFFFF AND PUSH20 0xFFFFFFFFFFFFFFFFFFFFFFFFFFFFFFFFFFFFFFFF AND DUP2 MSTORE PUSH1 0x20 ADD SWAP1 DUP2 MSTORE PUSH1 0x20 ADD PUSH1 0x0 KECCAK256 DUP2 SWAP1 SSTORE POP PUSH1 0x0 PUSH1 0x1 DUP2 SWAP1 SSTORE POP PUSH2 0x10EA DUP1 PUSH2 0x6C PUSH1 0x0 CODECOPY PUSH1 0x0 RETURN INVALID PUSH1 0x80 PUSH1 0x40 MSTORE CALLVALUE DUP1 ISZERO PUSH2 0x10 JUMPI PUSH1 0x0 DUP1 REVERT JUMPDEST POP PUSH1 0x4 CALLDATASIZE LT PUSH2 0xB4 JUMPI PUSH1 0x0 CALLDATALOAD PUSH1 0xE0 SHR DUP1 PUSH4 0x70A08231 GT PUSH2 0x71 JUMPI DUP1 PUSH4 0x70A08231 EQ PUSH2 0x18F JUMPI DUP1 PUSH4 0x95D89B41 EQ PUSH2 0x1BF JUMPI DUP1 PUSH4 0x9DC29FAC EQ PUSH2 0x1DD JUMPI DUP1 PUSH4 0xA9059CBB EQ PUSH2 0x1F9 JUMPI DUP1 PUSH4 0xBF353DBB EQ PUSH2 0x229 JUMPI DUP1 PUSH4 0xDD62ED3E EQ PUSH2 0x259 JUMPI PUSH2 0xB4 JUMP JUMPDEST DUP1 PUSH4 0x6FDDE03 EQ PUSH2 0xB9 JUMPI DUP1 PUSH4 0x95EA7B3 EQ PUSH2 0xD7 JUMPI DUP1 PUSH4 0x18160DDD EQ PUSH2 0x107 JUMPI DUP1 PUSH4 0x23B872DD EQ PUSH2 0x125 JUMPI DUP1 PUSH4 0x313CE567 EQ PUSH2 0x155 JUMPI DUP1 PUSH4 0x40C10F19 EQ PUSH2 0x173 JUMPI JUMPDEST PUSH1 0x0 DUP1 REVERT JUMPDEST PUSH2 0xC1 PUSH2 0x289 JUMP JUMPDEST PUSH1 0x40 MLOAD PUSH2 0xCE SWAP2 SWAP1 PUSH2 0xE29 JUMP JUMPDEST PUSH1 0x40 MLOAD DUP1 SWAP2 SUB SWAP1 RETURN JUMPDEST PUSH2 0xF1 PUSH1 0x4 DUP1 CALLDATASIZE SUB DUP2 ADD SWAP1 PUSH2 0xEC SWAP2 SWAP1 PUSH2 0xD22 JUMP JUMPDEST PUSH2 0x2C2 JUMP JUMPDEST PUSH1 0x40 MLOAD PUSH2 0xFE SWAP2 SWAP1 PUSH2 0xE0E JUMP JUMPDEST PUSH1 0x40 MLOAD DUP1 SWAP2 SUB SWAP1 RETURN JUMPDEST PUSH2 0x10F PUSH2 0x3B4 JUMP JUMPDEST PUSH1 0x40 MLOAD PUSH2 0x11C SWAP2 SWAP1 PUSH2 0xE8B JUMP JUMPDEST PUSH1 0x40 MLOAD DUP1 SWAP2 SUB SWAP1 RETURN JUMPDEST PUSH2 0x13F PUSH1 0x4 DUP1 CALLDATASIZE SUB DUP2 ADD SWAP1 PUSH2 0x13A SWAP2 SWAP1 PUSH2 0xCCF JUMP JUMPDEST PUSH2 0x3BE JUMP JUMPDEST PUSH1 0x40 MLOAD PUSH2 0x14C SWAP2 SWAP1 PUSH2 0xE0E JUMP JUMPDEST PUSH1 0x40 MLOAD DUP1 SWAP2 SUB SWAP1 RETURN JUMPDEST PUSH2 0x15D PUSH2 0x723 JUMP JUMPDEST PUSH1 0x40 MLOAD PUSH2 0x16A SWAP2 SWAP1 PUSH2 0xEA6 JUMP JUMPDEST PUSH1 0x40 MLOAD DUP1 SWAP2 SUB SWAP1 RETURN JUMPDEST PUSH2 0x18D PUSH1 0x4 DUP1 CALLDATASIZE SUB DUP2 ADD SWAP1 PUSH2 0x188 SWAP2 SWAP1 PUSH2 0xD22 JUMP JUMPDEST PUSH2 0x728 JUMP JUMPDEST STOP JUMPDEST PUSH2 0x1A9 PUSH1 0x4 DUP1 CALLDATASIZE SUB DUP2 ADD SWAP1 PUSH2 0x1A4 SWAP2 SWAP1 PUSH2 0xC62 JUMP JUMPDEST PUSH2 0x8B1 JUMP JUMPDEST PUSH1 0x40 MLOAD PUSH2 0x1B6 SWAP2 SWAP1 PUSH2 0xE8B JUMP JUMPDEST PUSH1 0x40 MLOAD DUP1 SWAP2 SUB SWAP1 RETURN JUMPDEST PUSH2 0x1C7 PUSH2 0x8FA JUMP JUMPDEST PUSH1 0x40 MLOAD PUSH2 0x1D4 SWAP2 SWAP1 PUSH2 0xE29 JUMP JUMPDEST PUSH1 0x40 MLOAD DUP1 SWAP2 SUB SWAP1 RETURN JUMPDEST PUSH2 0x1F7 PUSH1 0x4 DUP1 CALLDATASIZE SUB DUP2 ADD SWAP1 PUSH2 0x1F2 SWAP2 SWAP1 PUSH2 0xD22 JUMP JUMPDEST PUSH2 0x933 JUMP JUMPDEST STOP JUMPDEST PUSH2 0x213 PUSH1 0x4 DUP1 CALLDATASIZE SUB DUP2 ADD SWAP1 PUSH2 0x20E SWAP2 SWAP1 PUSH2 0xD22 JUMP JUMPDEST PUSH2 0xB3E JUMP JUMPDEST PUSH1 0x40 MLOAD PUSH2 0x220 SWAP2 SWAP1 PUSH2 0xE0E JUMP JUMPDEST PUSH1 0x40 MLOAD DUP1 SWAP2 SUB SWAP1 RETURN JUMPDEST PUSH2 0x243 PUSH1 0x4 DUP1 CALLDATASIZE SUB DUP2 ADD SWAP1 PUSH2 0x23E SWAP2 SWAP1 PUSH2 0xC62 JUMP JUMPDEST PUSH2 0xB53 JUMP JUMPDEST PUSH1 0x40 MLOAD PUSH2 0x250 SWAP2 SWAP1 PUSH2 0xE8B JUMP JUMPDEST PUSH1 0x40 MLOAD DUP1 SWAP2 SUB SWAP1 RETURN JUMPDEST PUSH2 0x273 PUSH1 0x4 DUP1 CALLDATASIZE SUB DUP2 ADD SWAP1 PUSH2 0x26E SWAP2 SWAP1 PUSH2 0xC8F JUMP JUMPDEST PUSH2 0xB6B JUMP JUMPDEST PUSH1 0x40 MLOAD PUSH2 0x280 SWAP2 SWAP1 PUSH2 0xE8B JUMP JUMPDEST PUSH1 0x40 MLOAD DUP1 SWAP2 SUB SWAP1 RETURN JUMPDEST PUSH1 0x40 MLOAD DUP1 PUSH1 0x40 ADD PUSH1 0x40 MSTORE DUP1 PUSH1 0x8 DUP2 MSTORE PUSH1 0x20 ADD PUSH32 0x536F6D65436F696E000000000000000000000000000000000000000000000000 DUP2 MSTORE POP DUP2 JUMP JUMPDEST PUSH1 0x0 DUP2 PUSH1 0x3 PUSH1 0x0 CALLER PUSH20 0xFFFFFFFFFFFFFFFFFFFFFFFFFFFFFFFFFFFFFFFF AND PUSH20 0xFFFFFFFFFFFFFFFFFFFFFFFFFFFFFFFFFFFFFFFF AND DUP2 MSTORE PUSH1 0x20 ADD SWAP1 DUP2 MSTORE PUSH1 0x20 ADD PUSH1 0x0 KECCAK256 PUSH1 0x0 DUP6 PUSH20 0xFFFFFFFFFFFFFFFFFFFFFFFFFFFFFFFFFFFFFFFF AND PUSH20 0xFFFFFFFFFFFFFFFFFFFFFFFFFFFFFFFFFFFFFFFF AND DUP2 MSTORE PUSH1 0x20 ADD SWAP1 DUP2 MSTORE PUSH1 0x20 ADD PUSH1 0x0 KECCAK256 DUP2 SWAP1 SSTORE POP DUP3 PUSH20 0xFFFFFFFFFFFFFFFFFFFFFFFFFFFFFFFFFFFFFFFF AND CALLER PUSH20 0xFFFFFFFFFFFFFFFFFFFFFFFFFFFFFFFFFFFFFFFF AND PUSH32 0x8C5BE1E5EBEC7D5BD14F71427D1E84F3DD0314C0F7B2291E5B200AC8C7C3B925 DUP5 PUSH1 0x40 MLOAD PUSH2 0x3A2 SWAP2 SWAP1 PUSH2 0xE8B JUMP JUMPDEST PUSH1 0x40 MLOAD DUP1 SWAP2 SUB SWAP1 LOG3 PUSH1 0x1 SWAP1 POP SWAP3 SWAP2 POP POP JUMP JUMPDEST PUSH1 0x0 PUSH1 0x1 SLOAD SWAP1 POP SWAP1 JUMP JUMPDEST PUSH1 0x0 PUSH1 0x2 PUSH1 0x0 DUP6 PUSH20 0xFFFFFFFFFFFFFFFFFFFFFFFFFFFFFFFFFFFFFFFF AND PUSH20 0xFFFFFFFFFFFFFFFFFFFFFFFFFFFFFFFFFFFFFFFF AND DUP2 MSTORE PUSH1 0x20 ADD SWAP1 DUP2 MSTORE PUSH1 0x20 ADD PUSH1 0x0 KECCAK256 SLOAD DUP3 GT ISZERO PUSH2 0x40C JUMPI PUSH1 0x0 DUP1 REVERT JUMPDEST PUSH1 0x3 PUSH1 0x0 DUP6 PUSH20 0xFFFFFFFFFFFFFFFFFFFFFFFFFFFFFFFFFFFFFFFF AND PUSH20 0xFFFFFFFFFFFFFFFFFFFFFFFFFFFFFFFFFFFFFFFF AND DUP2 MSTORE PUSH1 0x20 ADD SWAP1 DUP2 MSTORE PUSH1 0x20 ADD PUSH1 0x0 KECCAK256 PUSH1 0x0 CALLER PUSH20 0xFFFFFFFFFFFFFFFFFFFFFFFFFFFFFFFFFFFFFFFF AND PUSH20 0xFFFFFFFFFFFFFFFFFFFFFFFFFFFFFFFFFFFFFFFF AND DUP2 MSTORE PUSH1 0x20 ADD SWAP1 DUP2 MSTORE PUSH1 0x20 ADD PUSH1 0x0 KECCAK256 SLOAD DUP3 GT ISZERO PUSH2 0x495 JUMPI PUSH1 0x0 DUP1 REVERT JUMPDEST PUSH2 0x51B PUSH1 0x3 PUSH1 0x0 DUP7 PUSH20 0xFFFFFFFFFFFFFFFFFFFFFFFFFFFFFFFFFFFFFFFF AND PUSH20 0xFFFFFFFFFFFFFFFFFFFFFFFFFFFFFFFFFFFFFFFF AND DUP2 MSTORE PUSH1 0x20 ADD SWAP1 DUP2 MSTORE PUSH1 0x20 ADD PUSH1 0x0 KECCAK256 PUSH1 0x0 CALLER PUSH20 0xFFFFFFFFFFFFFFFFFFFFFFFFFFFFFFFFFFFFFFFF AND PUSH20 0xFFFFFFFFFFFFFFFFFFFFFFFFFFFFFFFFFFFFFFFF AND DUP2 MSTORE PUSH1 0x20 ADD SWAP1 DUP2 MSTORE PUSH1 0x20 ADD PUSH1 0x0 KECCAK256 SLOAD DUP4 PUSH2 0xBF2 JUMP JUMPDEST PUSH1 0x3 PUSH1 0x0 DUP7 PUSH20 0xFFFFFFFFFFFFFFFFFFFFFFFFFFFFFFFFFFFFFFFF AND PUSH20 0xFFFFFFFFFFFFFFFFFFFFFFFFFFFFFFFFFFFFFFFF AND DUP2 MSTORE PUSH1 0x20 ADD SWAP1 DUP2 MSTORE PUSH1 0x20 ADD PUSH1 0x0 KECCAK256 PUSH1 0x0 CALLER PUSH20 0xFFFFFFFFFFFFFFFFFFFFFFFFFFFFFFFFFFFFFFFF AND PUSH20 0xFFFFFFFFFFFFFFFFFFFFFFFFFFFFFFFFFFFFFFFF AND DUP2 MSTORE PUSH1 0x20 ADD SWAP1 DUP2 MSTORE PUSH1 0x20 ADD PUSH1 0x0 KECCAK256 DUP2 SWAP1 SSTORE POP PUSH2 0x5E4 PUSH1 0x2 PUSH1 0x0 DUP7 PUSH20 0xFFFFFFFFFFFFFFFFFFFFFFFFFFFFFFFFFFFFFFFF AND PUSH20 0xFFFFFFFFFFFFFFFFFFFFFFFFFFFFFFFFFFFFFFFF AND DUP2 MSTORE PUSH1 0x20 ADD SWAP1 DUP2 MSTORE PUSH1 0x20 ADD PUSH1 0x0 KECCAK256 SLOAD DUP4 PUSH2 0xBF2 JUMP JUMPDEST PUSH1 0x2 PUSH1 0x0 DUP7 PUSH20 0xFFFFFFFFFFFFFFFFFFFFFFFFFFFFFFFFFFFFFFFF AND PUSH20 0xFFFFFFFFFFFFFFFFFFFFFFFFFFFFFFFFFFFFFFFF AND DUP2 MSTORE PUSH1 0x20 ADD SWAP1 DUP2 MSTORE PUSH1 0x20 ADD PUSH1 0x0 KECCAK256 DUP2 SWAP1 SSTORE POP PUSH2 0x670 PUSH1 0x2 PUSH1 0x0 DUP6 PUSH20 0xFFFFFFFFFFFFFFFFFFFFFFFFFFFFFFFFFFFFFFFF AND PUSH20 0xFFFFFFFFFFFFFFFFFFFFFFFFFFFFFFFFFFFFFFFF AND DUP2 MSTORE PUSH1 0x20 ADD SWAP1 DUP2 MSTORE PUSH1 0x20 ADD PUSH1 0x0 KECCAK256 SLOAD DUP4 PUSH2 0xC15 JUMP JUMPDEST PUSH1 0x2 PUSH1 0x0 DUP6 PUSH20 0xFFFFFFFFFFFFFFFFFFFFFFFFFFFFFFFFFFFFFFFF AND PUSH20 0xFFFFFFFFFFFFFFFFFFFFFFFFFFFFFFFFFFFFFFFF AND DUP2 MSTORE PUSH1 0x20 ADD SWAP1 DUP2 MSTORE PUSH1 0x20 ADD PUSH1 0x0 KECCAK256 DUP2 SWAP1 SSTORE POP DUP3 PUSH20 0xFFFFFFFFFFFFFFFFFFFFFFFFFFFFFFFFFFFFFFFF AND DUP5 PUSH20 0xFFFFFFFFFFFFFFFFFFFFFFFFFFFFFFFFFFFFFFFF AND PUSH32 0xDDF252AD1BE2C89B69C2B068FC378DAA952BA7F163C4A11628F55A4DF523B3EF DUP5 PUSH1 0x40 MLOAD PUSH2 0x710 SWAP2 SWAP1 PUSH2 0xE8B JUMP JUMPDEST PUSH1 0x40 MLOAD DUP1 SWAP2 SUB SWAP1 LOG3 PUSH1 0x1 SWAP1 POP SWAP4 SWAP3 POP POP POP JUMP JUMPDEST PUSH1 0x0 DUP2 JUMP JUMPDEST PUSH1 0x1 PUSH1 0x0 DUP1 CALLER PUSH20 0xFFFFFFFFFFFFFFFFFFFFFFFFFFFFFFFFFFFFFFFF AND PUSH20 0xFFFFFFFFFFFFFFFFFFFFFFFFFFFFFFFFFFFFFFFF AND DUP2 MSTORE PUSH1 0x20 ADD SWAP1 DUP2 MSTORE PUSH1 0x20 ADD PUSH1 0x0 KECCAK256 SLOAD EQ PUSH2 0x7A9 JUMPI PUSH1 0x40 MLOAD PUSH32 0x8C379A000000000000000000000000000000000000000000000000000000000 DUP2 MSTORE PUSH1 0x4 ADD PUSH2 0x7A0 SWAP1 PUSH2 0xE6B JUMP JUMPDEST PUSH1 0x40 MLOAD DUP1 SWAP2 SUB SWAP1 REVERT JUMPDEST PUSH2 0x7F2 PUSH1 0x2 PUSH1 0x0 DUP5 PUSH20 0xFFFFFFFFFFFFFFFFFFFFFFFFFFFFFFFFFFFFFFFF AND PUSH20 0xFFFFFFFFFFFFFFFFFFFFFFFFFFFFFFFFFFFFFFFF AND DUP2 MSTORE PUSH1 0x20 ADD SWAP1 DUP2 MSTORE PUSH1 0x20 ADD PUSH1 0x0 KECCAK256 SLOAD DUP3 PUSH2 0xC15 JUMP JUMPDEST PUSH1 0x2 PUSH1 0x0 DUP5 PUSH20 0xFFFFFFFFFFFFFFFFFFFFFFFFFFFFFFFFFFFFFFFF AND PUSH20 0xFFFFFFFFFFFFFFFFFFFFFFFFFFFFFFFFFFFFFFFF AND DUP2 MSTORE PUSH1 0x20 ADD SWAP1 DUP2 MSTORE PUSH1 0x20 ADD PUSH1 0x0 KECCAK256 DUP2 SWAP1 SSTORE POP PUSH2 0x841 PUSH1 0x1 SLOAD DUP3 PUSH2 0xC15 JUMP JUMPDEST PUSH1 0x1 DUP2 SWAP1 SSTORE POP DUP2 PUSH20 0xFFFFFFFFFFFFFFFFFFFFFFFFFFFFFFFFFFFFFFFF AND PUSH1 0x0 PUSH20 0xFFFFFFFFFFFFFFFFFFFFFFFFFFFFFFFFFFFFFFFF AND PUSH32 0xDDF252AD1BE2C89B69C2B068FC378DAA952BA7F163C4A11628F55A4DF523B3EF DUP4 PUSH1 0x40 MLOAD PUSH2 0x8A5 SWAP2 SWAP1 PUSH2 0xE8B JUMP JUMPDEST PUSH1 0x40 MLOAD DUP1 SWAP2 SUB SWAP1 LOG3 POP POP JUMP JUMPDEST PUSH1 0x0 PUSH1 0x2 PUSH1 0x0 DUP4 PUSH20 0xFFFFFFFFFFFFFFFFFFFFFFFFFFFFFFFFFFFFFFFF AND PUSH20 0xFFFFFFFFFFFFFFFFFFFFFFFFFFFFFFFFFFFFFFFF AND DUP2 MSTORE PUSH1 0x20 ADD SWAP1 DUP2 MSTORE PUSH1 0x20 ADD PUSH1 0x0 KECCAK256 SLOAD SWAP1 POP SWAP2 SWAP1 POP JUMP JUMPDEST PUSH1 0x40 MLOAD DUP1 PUSH1 0x40 ADD PUSH1 0x40 MSTORE DUP1 PUSH1 0x2 DUP2 MSTORE PUSH1 0x20 ADD PUSH32 0x5343000000000000000000000000000000000000000000000000000000000000 DUP2 MSTORE POP DUP2 JUMP JUMPDEST PUSH1 0x1 PUSH1 0x0 DUP1 CALLER PUSH20 0xFFFFFFFFFFFFFFFFFFFFFFFFFFFFFFFFFFFFFFFF AND PUSH20 0xFFFFFFFFFFFFFFFFFFFFFFFFFFFFFFFFFFFFFFFF AND DUP2 MSTORE PUSH1 0x20 ADD SWAP1 DUP2 MSTORE PUSH1 0x20 ADD PUSH1 0x0 KECCAK256 SLOAD EQ PUSH2 0x9B4 JUMPI PUSH1 0x40 MLOAD PUSH32 0x8C379A000000000000000000000000000000000000000000000000000000000 DUP2 MSTORE PUSH1 0x4 ADD PUSH2 0x9AB SWAP1 PUSH2 0xE6B JUMP JUMPDEST PUSH1 0x40 MLOAD DUP1 SWAP2 SUB SWAP1 REVERT JUMPDEST DUP1 PUSH1 0x2 PUSH1 0x0 DUP5 PUSH20 0xFFFFFFFFFFFFFFFFFFFFFFFFFFFFFFFFFFFFFFFF AND PUSH20 0xFFFFFFFFFFFFFFFFFFFFFFFFFFFFFFFFFFFFFFFF AND DUP2 MSTORE PUSH1 0x20 ADD SWAP1 DUP2 MSTORE PUSH1 0x20 ADD PUSH1 0x0 KECCAK256 SLOAD LT ISZERO PUSH2 0xA36 JUMPI PUSH1 0x40 MLOAD PUSH32 0x8C379A000000000000000000000000000000000000000000000000000000000 DUP2 MSTORE PUSH1 0x4 ADD PUSH2 0xA2D SWAP1 PUSH2 0xE4B JUMP JUMPDEST PUSH1 0x40 MLOAD DUP1 SWAP2 SUB SWAP1 REVERT JUMPDEST PUSH2 0xA7F PUSH1 0x2 PUSH1 0x0 DUP5 PUSH20 0xFFFFFFFFFFFFFFFFFFFFFFFFFFFFFFFFFFFFFFFF AND PUSH20 0xFFFFFFFFFFFFFFFFFFFFFFFFFFFFFFFFFFFFFFFF AND DUP2 MSTORE PUSH1 0x20 ADD SWAP1 DUP2 MSTORE PUSH1 0x20 ADD PUSH1 0x0 KECCAK256 SLOAD DUP3 PUSH2 0xBF2 JUMP JUMPDEST PUSH1 0x2 PUSH1 0x0 DUP5 PUSH20 0xFFFFFFFFFFFFFFFFFFFFFFFFFFFFFFFFFFFFFFFF AND PUSH20 0xFFFFFFFFFFFFFFFFFFFFFFFFFFFFFFFFFFFFFFFF AND DUP2 MSTORE PUSH1 0x20 ADD SWAP1 DUP2 MSTORE PUSH1 0x20 ADD PUSH1 0x0 KECCAK256 DUP2 SWAP1 SSTORE POP PUSH2 0xACE PUSH1 0x1 SLOAD DUP3 PUSH2 0xBF2 JUMP JUMPDEST PUSH1 0x1 DUP2 SWAP1 SSTORE POP PUSH1 0x0 PUSH20 0xFFFFFFFFFFFFFFFFFFFFFFFFFFFFFFFFFFFFFFFF AND DUP3 PUSH20 0xFFFFFFFFFFFFFFFFFFFFFFFFFFFFFFFFFFFFFFFF AND PUSH32 0xDDF252AD1BE2C89B69C2B068FC378DAA952BA7F163C4A11628F55A4DF523B3EF DUP4 PUSH1 0x40 MLOAD PUSH2 0xB32 SWAP2 SWAP1 PUSH2 0xE8B JUMP JUMPDEST PUSH1 0x40 MLOAD DUP1 SWAP2 SUB SWAP1 LOG3 POP POP JUMP JUMPDEST PUSH1 0x0 PUSH2 0xB4B CALLER DUP5 DUP5 PUSH2 0x3BE JUMP JUMPDEST SWAP1 POP SWAP3 SWAP2 POP POP JUMP JUMPDEST PUSH1 0x0 PUSH1 0x20 MSTORE DUP1 PUSH1 0x0 MSTORE PUSH1 0x40 PUSH1 0x0 KECCAK256 PUSH1 0x0 SWAP2 POP SWAP1 POP SLOAD DUP2 JUMP JUMPDEST PUSH1 0x0 PUSH1 0x3 PUSH1 0x0 DUP5 PUSH20 0xFFFFFFFFFFFFFFFFFFFFFFFFFFFFFFFFFFFFFFFF AND PUSH20 0xFFFFFFFFFFFFFFFFFFFFFFFFFFFFFFFFFFFFFFFF AND DUP2 MSTORE PUSH1 0x20 ADD SWAP1 DUP2 MSTORE PUSH1 0x20 ADD PUSH1 0x0 KECCAK256 PUSH1 0x0 DUP4 PUSH20 0xFFFFFFFFFFFFFFFFFFFFFFFFFFFFFFFFFFFFFFFF AND PUSH20 0xFFFFFFFFFFFFFFFFFFFFFFFFFFFFFFFFFFFFFFFF AND DUP2 MSTORE PUSH1 0x20 ADD SWAP1 DUP2 MSTORE PUSH1 0x20 ADD PUSH1 0x0 KECCAK256 SLOAD SWAP1 POP SWAP3 SWAP2 POP POP JUMP JUMPDEST PUSH1 0x0 DUP3 DUP3 DUP5 PUSH2 0xC01 SWAP2 SWAP1 PUSH2 0xF33 JUMP JUMPDEST SWAP2 POP DUP2 GT ISZERO PUSH2 0xC0F JUMPI PUSH1 0x0 DUP1 REVERT JUMPDEST SWAP3 SWAP2 POP POP JUMP JUMPDEST PUSH1 0x0 DUP3 DUP3 DUP5 PUSH2 0xC24 SWAP2 SWAP1 PUSH2 0xEDD JUMP JUMPDEST SWAP2 POP DUP2 LT ISZERO PUSH2 0xC32 JUMPI PUSH1 0x0 DUP1 REVERT JUMPDEST SWAP3 SWAP2 POP POP JUMP JUMPDEST PUSH1 0x0 DUP2 CALLDATALOAD SWAP1 POP PUSH2 0xC47 DUP2 PUSH2 0x1086 JUMP JUMPDEST SWAP3 SWAP2 POP POP JUMP JUMPDEST PUSH1 0x0 DUP2 CALLDATALOAD SWAP1 POP PUSH2 0xC5C DUP2 PUSH2 0x109D JUMP JUMPDEST SWAP3 SWAP2 POP POP JUMP JUMPDEST PUSH1 0x0 PUSH1 0x20 DUP3 DUP5 SUB SLT ISZERO PUSH2 0xC78 JUMPI PUSH2 0xC77 PUSH2 0x101E JUMP JUMPDEST JUMPDEST PUSH1 0x0 PUSH2 0xC86 DUP5 DUP3 DUP6 ADD PUSH2 0xC38 JUMP JUMPDEST SWAP2 POP POP SWAP3 SWAP2 POP POP JUMP JUMPDEST PUSH1 0x0 DUP1 PUSH1 0x40 DUP4 DUP6 SUB SLT ISZERO PUSH2 0xCA6 JUMPI PUSH2 0xCA5 PUSH2 0x101E JUMP JUMPDEST JUMPDEST PUSH1 0x0 PUSH2 0xCB4 DUP6 DUP3 DUP7 ADD PUSH2 0xC38 JUMP JUMPDEST SWAP3 POP POP PUSH1 0x20 PUSH2 0xCC5 DUP6 DUP3 DUP7 ADD PUSH2 0xC38 JUMP JUMPDEST SWAP2 POP POP SWAP3 POP SWAP3 SWAP1 POP JUMP JUMPDEST PUSH1 0x0 DUP1 PUSH1 0x0 PUSH1 0x60 DUP5 DUP7 SUB SLT ISZERO PUSH2 0xCE8 JUMPI PUSH2 0xCE7 PUSH2 0x101E JUMP JUMPDEST JUMPDEST PUSH1 0x0 PUSH2 0xCF6 DUP7 DUP3 DUP8 ADD PUSH2 0xC38 JUMP JUMPDEST SWAP4 POP POP PUSH1 0x20 PUSH2 0xD07 DUP7 DUP3 DUP8 ADD PUSH2 0xC38 JUMP JUMPDEST SWAP3 POP POP PUSH1 0x40 PUSH2 0xD18 DUP7 DUP3 DUP8 ADD PUSH2 0xC4D JUMP JUMPDEST SWAP2 POP POP SWAP3 POP SWAP3 POP SWAP3 JUMP JUMPDEST PUSH1 0x0 DUP1 PUSH1 0x40 DUP4 DUP6 SUB SLT ISZERO PUSH2 0xD39 JUMPI PUSH2 0xD38 PUSH2 0x101E JUMP JUMPDEST JUMPDEST PUSH1 0x0 PUSH2 0xD47 DUP6 DUP3 DUP7 ADD PUSH2 0xC38 JUMP JUMPDEST SWAP3 POP POP PUSH1 0x20 PUSH2 0xD58 DUP6 DUP3 DUP7 ADD PUSH2 0xC4D JUMP JUMPDEST SWAP2 POP POP SWAP3 POP SWAP3 SWAP1 POP JUMP JUMPDEST PUSH2 0xD6B DUP2 PUSH2 0xF79 JUMP JUMPDEST DUP3 MSTORE POP POP JUMP JUMPDEST PUSH1 0x0 PUSH2 0xD7C DUP3 PUSH2 0xEC1 JUMP JUMPDEST PUSH2 0xD86 DUP2 DUP6 PUSH2 0xECC JUMP JUMPDEST SWAP4 POP PUSH2 0xD96 DUP2 DUP6 PUSH1 0x20 DUP7 ADD PUSH2 0xFBC JUMP JUMPDEST PUSH2 0xD9F DUP2 PUSH2 0x1023 JUMP JUMPDEST DUP5 ADD SWAP2 POP POP SWAP3 SWAP2 POP POP JUMP JUMPDEST PUSH1 0x0 PUSH2 0xDB7 PUSH1 0x14 DUP4 PUSH2 0xECC JUMP JUMPDEST SWAP2 POP PUSH2 0xDC2 DUP3 PUSH2 0x1034 JUMP JUMPDEST PUSH1 0x20 DUP3 ADD SWAP1 POP SWAP2 SWAP1 POP JUMP JUMPDEST PUSH1 0x0 PUSH2 0xDDA PUSH1 0xE DUP4 PUSH2 0xECC JUMP JUMPDEST SWAP2 POP PUSH2 0xDE5 DUP3 PUSH2 0x105D JUMP JUMPDEST PUSH1 0x20 DUP3 ADD SWAP1 POP SWAP2 SWAP1 POP JUMP JUMPDEST PUSH2 0xDF9 DUP2 PUSH2 0xFA5 JUMP JUMPDEST DUP3 MSTORE POP POP JUMP JUMPDEST PUSH2 0xE08 DUP2 PUSH2 0xFAF JUMP JUMPDEST DUP3 MSTORE POP POP JUMP JUMPDEST PUSH1 0x0 PUSH1 0x20 DUP3 ADD SWAP1 POP PUSH2 0xE23 PUSH1 0x0 DUP4 ADD DUP5 PUSH2 0xD62 JUMP JUMPDEST SWAP3 SWAP2 POP POP JUMP JUMPDEST PUSH1 0x0 PUSH1 0x20 DUP3 ADD SWAP1 POP DUP2 DUP2 SUB PUSH1 0x0 DUP4 ADD MSTORE PUSH2 0xE43 DUP2 DUP5 PUSH2 0xD71 JUMP JUMPDEST SWAP1 POP SWAP3 SWAP2 POP POP JUMP JUMPDEST PUSH1 0x0 PUSH1 0x20 DUP3 ADD SWAP1 POP DUP2 DUP2 SUB PUSH1 0x0 DUP4 ADD MSTORE PUSH2 0xE64 DUP2 PUSH2 0xDAA JUMP JUMPDEST SWAP1 POP SWAP2 SWAP1 POP JUMP JUMPDEST PUSH1 0x0 PUSH1 0x20 DUP3 ADD SWAP1 POP DUP2 DUP2 SUB PUSH1 0x0 DUP4 ADD MSTORE PUSH2 0xE84 DUP2 PUSH2 0xDCD JUMP JUMPDEST SWAP1 POP SWAP2 SWAP1 POP JUMP JUMPDEST PUSH1 0x0 PUSH1 0x20 DUP3 ADD SWAP1 POP PUSH2 0xEA0 PUSH1 0x0 DUP4 ADD DUP5 PUSH2 0xDF0 JUMP JUMPDEST SWAP3 SWAP2 POP POP JUMP JUMPDEST PUSH1 0x0 PUSH1 0x20 DUP3 ADD SWAP1 POP PUSH2 0xEBB PUSH1 0x0 DUP4 ADD DUP5 PUSH2 0xDFF JUMP JUMPDEST SWAP3 SWAP2 POP POP JUMP JUMPDEST PUSH1 0x0 DUP2 MLOAD SWAP1 POP SWAP2 SWAP1 POP JUMP JUMPDEST PUSH1 0x0 DUP3 DUP3 MSTORE PUSH1 0x20 DUP3 ADD SWAP1 POP SWAP3 SWAP2 POP POP JUMP JUMPDEST PUSH1 0x0 PUSH2 0xEE8 DUP3 PUSH2 0xFA5 JUMP JUMPDEST SWAP2 POP PUSH2 0xEF3 DUP4 PUSH2 0xFA5 JUMP JUMPDEST SWAP3 POP DUP3 PUSH32 0xFFFFFFFFFFFFFFFFFFFFFFFFFFFFFFFFFFFFFFFFFFFFFFFFFFFFFFFFFFFFFFFF SUB DUP3 GT ISZERO PUSH2 0xF28 JUMPI PUSH2 0xF27 PUSH2 0xFEF JUMP JUMPDEST JUMPDEST DUP3 DUP3 ADD SWAP1 POP SWAP3 SWAP2 POP POP JUMP JUMPDEST PUSH1 0x0 PUSH2 0xF3E DUP3 PUSH2 0xFA5 JUMP JUMPDEST SWAP2 POP PUSH2 0xF49 DUP4 PUSH2 0xFA5 JUMP JUMPDEST SWAP3 POP DUP3 DUP3 LT ISZERO PUSH2 0xF5C JUMPI PUSH2 0xF5B PUSH2 0xFEF JUMP JUMPDEST JUMPDEST DUP3 DUP3 SUB SWAP1 POP SWAP3 SWAP2 POP POP JUMP JUMPDEST PUSH1 0x0 PUSH2 0xF72 DUP3 PUSH2 0xF85 JUMP JUMPDEST SWAP1 POP SWAP2 SWAP1 POP JUMP JUMPDEST PUSH1 0x0 DUP2 ISZERO ISZERO SWAP1 POP SWAP2 SWAP1 POP JUMP JUMPDEST PUSH1 0x0 PUSH20 0xFFFFFFFFFFFFFFFFFFFFFFFFFFFFFFFFFFFFFFFF DUP3 AND SWAP1 POP SWAP2 SWAP1 POP JUMP JUMPDEST PUSH1 0x0 DUP2 SWAP1 POP SWAP2 SWAP1 POP JUMP JUMPDEST PUSH1 0x0 PUSH1 0xFF DUP3 AND SWAP1 POP SWAP2 SWAP1 POP JUMP JUMPDEST PUSH1 0x0 JUMPDEST DUP4 DUP2 LT ISZERO PUSH2 0xFDA JUMPI DUP1 DUP3 ADD MLOAD DUP2 DUP5 ADD MSTORE PUSH1 0x20 DUP2 ADD SWAP1 POP PUSH2 0xFBF JUMP JUMPDEST DUP4 DUP2 GT ISZERO PUSH2 0xFE9 JUMPI PUSH1 0x0 DUP5 DUP5 ADD MSTORE JUMPDEST POP POP POP POP JUMP JUMPDEST PUSH32 0x4E487B7100000000000000000000000000000000000000000000000000000000 PUSH1 0x0 MSTORE PUSH1 0x11 PUSH1 0x4 MSTORE PUSH1 0x24 PUSH1 0x0 REVERT JUMPDEST PUSH1 0x0 DUP1 REVERT JUMPDEST PUSH1 0x0 PUSH1 0x1F NOT PUSH1 0x1F DUP4 ADD AND SWAP1 POP SWAP2 SWAP1 POP JUMP JUMPDEST PUSH32 0x696E73756666696369656E742D62616C616E6365000000000000000000000000 PUSH1 0x0 DUP3 ADD MSTORE POP JUMP JUMPDEST PUSH32 0x4E6F742D617574686F72697A6564000000000000000000000000000000000000 PUSH1 0x0 DUP3 ADD MSTORE POP JUMP JUMPDEST PUSH2 0x108F DUP2 PUSH2 0xF67 JUMP JUMPDEST DUP2 EQ PUSH2 0x109A JUMPI PUSH1 0x0 DUP1 REVERT JUMPDEST POP JUMP JUMPDEST PUSH2 0x10A6 DUP2 PUSH2 0xFA5 JUMP JUMPDEST DUP2 EQ PUSH2 0x10B1 JUMPI PUSH1 0x0 DUP1 REVERT JUMPDEST POP JUMP INVALID LOG2 PUSH5 0x6970667358 0x22 SLT KECCAK256 0xAD BYTE 0xB7 0xED 0xA9 0xC0 0xF7 0x27 DUP15 0x21 SWAP6 DUP8 EXTCODESIZE 0xA5 POP LOG1 SWAP14 0x1E PUSH27 0xEC594067A04D397C7C11D25FCB64736F6C63430008070033000000 "
				},
				"gasEstimates": {
					"creation": {
						"codeDepositCost": "589000",
						"executionCost": "infinite",
						"totalCost": "infinite"
					},
					"external": {
						"buyStablecoinForETH(uint256)": "infinite",
						"depositETH(uint256)": "427",
						"getEthPriceCZK()": "infinite",
						"getVaultBalance()": "383",
						"sellStablecoinForETH(uint256)": "infinite",
						"wards(address)": "2814",
						"withdrawETH()": "infinite"
					}
				},
				"methodIdentifiers": {
					"buyStablecoinForETH(uint256)": "9f4fc5ca",
					"depositETH(uint256)": "5358fbda",
					"getEthPriceCZK()": "41b33680",
					"getVaultBalance()": "ed12e8ef",
					"sellStablecoinForETH(uint256)": "f68c3b96",
					"wards(address)": "bf353dbb",
					"withdrawETH()": "e086e5ec"
				}
			},
			"storageLayout": {
				"storage": [
					{
						"astId": 407,
						"contract": "contracts/Coin_contract.sol:Organization",
						"label": "wards",
						"offset": 0,
						"slot": "0",
						"type": "t_mapping(t_address,t_uint256)"
					},
					{
						"astId": 424,
						"contract": "contracts/Coin_contract.sol:Organization",
						"label": "coinContract",
						"offset": 0,
						"slot": "1",
						"type": "t_contract(StableCoin)403"
					},
					{
						"astId": 427,
						"contract": "contracts/Coin_contract.sol:Organization",
						"label": "priceFeed",
						"offset": 0,
						"slot": "2",
						"type": "t_contract(AggregatorV3Interface)45"
					},
					{
						"astId": 430,
						"contract": "contracts/Coin_contract.sol:Organization",
						"label": "USDinCZK",
						"offset": 0,
						"slot": "3",
						"type": "t_uint256"
					}
				],
				"types": {
					"t_address": {
						"encoding": "inplace",
						"label": "address",
						"numberOfBytes": "20"
					},
					"t_contract(AggregatorV3Interface)45": {
						"encoding": "inplace",
						"label": "contract AggregatorV3Interface",
						"numberOfBytes": "20"
					},
					"t_contract(StableCoin)403": {
						"encoding": "inplace",
						"label": "contract StableCoin",
						"numberOfBytes": "20"
					},
					"t_mapping(t_address,t_uint256)": {
						"encoding": "mapping",
						"key": "t_address",
						"label": "mapping(address => uint256)",
						"numberOfBytes": "32",
						"value": "t_uint256"
					},
					"t_uint256": {
						"encoding": "inplace",
						"label": "uint256",
						"numberOfBytes": "32"
					}
				}
			},
			"userdoc": {
				"kind": "user",
				"methods": {},
				"version": 1
			}
		}
	}
}