{
	"contracts/Coin_contract.sol": {
		"StableCoin": {
			"abi": [
				{
					"inputs": [],
					"stateMutability": "nonpayable",
					"type": "constructor"
				},
				{
					"anonymous": false,
					"inputs": [
						{
							"indexed": true,
							"internalType": "address",
							"name": "tokenOwner",
							"type": "address"
						},
						{
							"indexed": true,
							"internalType": "address",
							"name": "spender",
							"type": "address"
						},
						{
							"indexed": false,
							"internalType": "uint256",
							"name": "tokens",
							"type": "uint256"
						}
					],
					"name": "Approval",
					"type": "event"
				},
				{
					"anonymous": false,
					"inputs": [
						{
							"indexed": true,
							"internalType": "address",
							"name": "from",
							"type": "address"
						},
						{
							"indexed": true,
							"internalType": "address",
							"name": "to",
							"type": "address"
						},
						{
							"indexed": false,
							"internalType": "uint256",
							"name": "tokens",
							"type": "uint256"
						}
					],
					"name": "Transfer",
					"type": "event"
				},
				{
					"inputs": [
						{
							"internalType": "address",
							"name": "owner",
							"type": "address"
						},
						{
							"internalType": "address",
							"name": "delegate",
							"type": "address"
						}
					],
					"name": "allowance",
					"outputs": [
						{
							"internalType": "uint256",
							"name": "",
							"type": "uint256"
						}
					],
					"stateMutability": "view",
					"type": "function"
				},
				{
					"inputs": [
						{
							"internalType": "address",
							"name": "delegate",
							"type": "address"
						},
						{
							"internalType": "uint256",
							"name": "numTokens",
							"type": "uint256"
						}
					],
					"name": "approve",
					"outputs": [
						{
							"internalType": "bool",
							"name": "",
							"type": "bool"
						}
					],
					"stateMutability": "nonpayable",
					"type": "function"
				},
				{
					"inputs": [
						{
							"internalType": "address",
							"name": "tokenOwner",
							"type": "address"
						}
					],
					"name": "balanceOf",
					"outputs": [
						{
							"internalType": "uint256",
							"name": "",
							"type": "uint256"
						}
					],
					"stateMutability": "view",
					"type": "function"
				},
				{
					"inputs": [
						{
							"internalType": "address",
							"name": "usr",
							"type": "address"
						},
						{
							"internalType": "uint256",
							"name": "wad",
							"type": "uint256"
						}
					],
					"name": "burn",
					"outputs": [],
					"stateMutability": "nonpayable",
					"type": "function"
				},
				{
					"inputs": [],
					"name": "decimals",
					"outputs": [
						{
							"internalType": "uint8",
							"name": "",
							"type": "uint8"
						}
					],
					"stateMutability": "view",
					"type": "function"
				},
				{
					"inputs": [
						{
							"internalType": "address",
							"name": "usr",
							"type": "address"
						},
						{
							"internalType": "uint256",
							"name": "wad",
							"type": "uint256"
						}
					],
					"name": "mint",
					"outputs": [],
					"stateMutability": "nonpayable",
					"type": "function"
				},
				{
					"inputs": [],
					"name": "name",
					"outputs": [
						{
							"internalType": "string",
							"name": "",
							"type": "string"
						}
					],
					"stateMutability": "view",
					"type": "function"
				},
				{
					"inputs": [],
					"name": "symbol",
					"outputs": [
						{
							"internalType": "string",
							"name": "",
							"type": "string"
						}
					],
					"stateMutability": "view",
					"type": "function"
				},
				{
					"inputs": [],
					"name": "totalSupply",
					"outputs": [
						{
							"internalType": "uint256",
							"name": "",
							"type": "uint256"
						}
					],
					"stateMutability": "view",
					"type": "function"
				},
				{
					"inputs": [
						{
							"internalType": "address",
							"name": "receiver",
							"type": "address"
						},
						{
							"internalType": "uint256",
							"name": "numTokens",
							"type": "uint256"
						}
					],
					"name": "transfer",
					"outputs": [
						{
							"internalType": "bool",
							"name": "",
							"type": "bool"
						}
					],
					"stateMutability": "nonpayable",
					"type": "function"
				},
				{
					"inputs": [
						{
							"internalType": "address",
							"name": "owner",
							"type": "address"
						},
						{
							"internalType": "address",
							"name": "buyer",
							"type": "address"
						},
						{
							"internalType": "uint256",
							"name": "numTokens",
							"type": "uint256"
						}
					],
					"name": "transferFrom",
					"outputs": [
						{
							"internalType": "bool",
							"name": "",
							"type": "bool"
						}
					],
					"stateMutability": "nonpayable",
					"type": "function"
				},
				{
					"inputs": [
						{
							"internalType": "address",
							"name": "",
							"type": "address"
						}
					],
					"name": "wards",
					"outputs": [
						{
							"internalType": "uint256",
							"name": "",
							"type": "uint256"
						}
					],
					"stateMutability": "view",
					"type": "function"
				}
			],
			"devdoc": {
				"kind": "dev",
				"methods": {},
				"version": 1
			},
			"evm": {
				"assembly": "    /* \"contracts/Coin_contract.sol\":447:3351  contract StableCoin \r... */\n  mstore(0x40, 0x80)\n    /* \"contracts/Coin_contract.sol\":1332:1419  constructor() \r... */\n  callvalue\n  dup1\n  iszero\n  tag_1\n  jumpi\n  0x00\n  dup1\n  revert\ntag_1:\n  pop\n    /* \"contracts/Coin_contract.sol\":1383:1384  1 */\n  0x01\n    /* \"contracts/Coin_contract.sol\":1363:1368  wards */\n  0x00\n    /* \"contracts/Coin_contract.sol\":1363:1380  wards[msg.sender] */\n  dup1\n    /* \"contracts/Coin_contract.sol\":1369:1379  msg.sender */\n  caller\n    /* \"contracts/Coin_contract.sol\":1363:1380  wards[msg.sender] */\n  0xffffffffffffffffffffffffffffffffffffffff\n  and\n  0xffffffffffffffffffffffffffffffffffffffff\n  and\n  dup2\n  mstore\n  0x20\n  add\n  swap1\n  dup2\n  mstore\n  0x20\n  add\n  0x00\n  keccak256\n    /* \"contracts/Coin_contract.sol\":1363:1384  wards[msg.sender] = 1 */\n  dup2\n  swap1\n  sstore\n  pop\n    /* \"contracts/Coin_contract.sol\":1410:1411  0 */\n  0x00\n    /* \"contracts/Coin_contract.sol\":1395:1407  totalSupply_ */\n  0x01\n    /* \"contracts/Coin_contract.sol\":1395:1411  totalSupply_ = 0 */\n  dup2\n  swap1\n  sstore\n  pop\n    /* \"contracts/Coin_contract.sol\":447:3351  contract StableCoin \r... */\n  dataSize(sub_0)\n  dup1\n  dataOffset(sub_0)\n  0x00\n  codecopy\n  0x00\n  return\nstop\n\nsub_0: assembly {\n        /* \"contracts/Coin_contract.sol\":447:3351  contract StableCoin \r... */\n      mstore(0x40, 0x80)\n      callvalue\n      dup1\n      iszero\n      tag_1\n      jumpi\n      0x00\n      dup1\n      revert\n    tag_1:\n      pop\n      jumpi(tag_2, lt(calldatasize, 0x04))\n      shr(0xe0, calldataload(0x00))\n      dup1\n      0x70a08231\n      gt\n      tag_15\n      jumpi\n      dup1\n      0x70a08231\n      eq\n      tag_9\n      jumpi\n      dup1\n      0x95d89b41\n      eq\n      tag_10\n      jumpi\n      dup1\n      0x9dc29fac\n      eq\n      tag_11\n      jumpi\n      dup1\n      0xa9059cbb\n      eq\n      tag_12\n      jumpi\n      dup1\n      0xbf353dbb\n      eq\n      tag_13\n      jumpi\n      dup1\n      0xdd62ed3e\n      eq\n      tag_14\n      jumpi\n      jump(tag_2)\n    tag_15:\n      dup1\n      0x06fdde03\n      eq\n      tag_3\n      jumpi\n      dup1\n      0x095ea7b3\n      eq\n      tag_4\n      jumpi\n      dup1\n      0x18160ddd\n      eq\n      tag_5\n      jumpi\n      dup1\n      0x23b872dd\n      eq\n      tag_6\n      jumpi\n      dup1\n      0x313ce567\n      eq\n      tag_7\n      jumpi\n      dup1\n      0x40c10f19\n      eq\n      tag_8\n      jumpi\n    tag_2:\n      0x00\n      dup1\n      revert\n        /* \"contracts/Coin_contract.sol\":815:855  string public constant name = \"SomeCoin\" */\n    tag_3:\n      tag_16\n      tag_17\n      jump\t// in\n    tag_16:\n      mload(0x40)\n      tag_18\n      swap2\n      swap1\n      tag_19\n      jump\t// in\n    tag_18:\n      mload(0x40)\n      dup1\n      swap2\n      sub\n      swap1\n      return\n        /* \"contracts/Coin_contract.sol\":2309:2527  function approve(address delegate, uint numTokens) public returns (bool) \r... */\n    tag_4:\n      tag_20\n      0x04\n      dup1\n      calldatasize\n      sub\n      dup2\n      add\n      swap1\n      tag_21\n      swap2\n      swap1\n      tag_22\n      jump\t// in\n    tag_21:\n      tag_23\n      jump\t// in\n    tag_20:\n      mload(0x40)\n      tag_24\n      swap2\n      swap1\n      tag_25\n      jump\t// in\n    tag_24:\n      mload(0x40)\n      dup1\n      swap2\n      sub\n      swap1\n      return\n        /* \"contracts/Coin_contract.sol\":1427:1522  function totalSupply() public view returns (uint256) \r... */\n    tag_5:\n      tag_26\n      tag_27\n      jump\t// in\n    tag_26:\n      mload(0x40)\n      tag_28\n      swap2\n      swap1\n      tag_29\n      jump\t// in\n    tag_28:\n      mload(0x40)\n      dup1\n      swap2\n      sub\n      swap1\n      return\n        /* \"contracts/Coin_contract.sol\":1815:2301  function transferFrom(address owner, address buyer, uint numTokens) public returns (bool) \r... */\n    tag_6:\n      tag_30\n      0x04\n      dup1\n      calldatasize\n      sub\n      dup2\n      add\n      swap1\n      tag_31\n      swap2\n      swap1\n      tag_32\n      jump\t// in\n    tag_31:\n      tag_33\n      jump\t// in\n    tag_30:\n      mload(0x40)\n      tag_34\n      swap2\n      swap1\n      tag_25\n      jump\t// in\n    tag_34:\n      mload(0x40)\n      dup1\n      swap2\n      sub\n      swap1\n      return\n        /* \"contracts/Coin_contract.sol\":905:939  uint8 public constant decimals = 0 */\n    tag_7:\n      tag_35\n      tag_36\n      jump\t// in\n    tag_35:\n      mload(0x40)\n      tag_37\n      swap2\n      swap1\n      tag_38\n      jump\t// in\n    tag_37:\n      mload(0x40)\n      dup1\n      swap2\n      sub\n      swap1\n      return\n        /* \"contracts/Coin_contract.sol\":2707:2916  function mint(address usr, uint wad) external auth \r... */\n    tag_8:\n      tag_39\n      0x04\n      dup1\n      calldatasize\n      sub\n      dup2\n      add\n      swap1\n      tag_40\n      swap2\n      swap1\n      tag_22\n      jump\t// in\n    tag_40:\n      tag_41\n      jump\t// in\n    tag_39:\n      stop\n        /* \"contracts/Coin_contract.sol\":1530:1648  function balanceOf(address tokenOwner) public view returns (uint) \r... */\n    tag_9:\n      tag_42\n      0x04\n      dup1\n      calldatasize\n      sub\n      dup2\n      add\n      swap1\n      tag_43\n      swap2\n      swap1\n      tag_44\n      jump\t// in\n    tag_43:\n      tag_45\n      jump\t// in\n    tag_42:\n      mload(0x40)\n      tag_46\n      swap2\n      swap1\n      tag_29\n      jump\t// in\n    tag_46:\n      mload(0x40)\n      dup1\n      swap2\n      sub\n      swap1\n      return\n        /* \"contracts/Coin_contract.sol\":862:898  string public constant symbol = \"SC\" */\n    tag_10:\n      tag_47\n      tag_48\n      jump\t// in\n    tag_47:\n      mload(0x40)\n      tag_49\n      swap2\n      swap1\n      tag_19\n      jump\t// in\n    tag_49:\n      mload(0x40)\n      dup1\n      swap2\n      sub\n      swap1\n      return\n        /* \"contracts/Coin_contract.sol\":2922:3348  function burn(address usr, uint wad) external auth \r... */\n    tag_11:\n      tag_50\n      0x04\n      dup1\n      calldatasize\n      sub\n      dup2\n      add\n      swap1\n      tag_51\n      swap2\n      swap1\n      tag_22\n      jump\t// in\n    tag_51:\n      tag_52\n      jump\t// in\n    tag_50:\n      stop\n        /* \"contracts/Coin_contract.sol\":1656:1807  function transfer(address receiver, uint numTokens) public returns (bool) \r... */\n    tag_12:\n      tag_53\n      0x04\n      dup1\n      calldatasize\n      sub\n      dup2\n      add\n      swap1\n      tag_54\n      swap2\n      swap1\n      tag_22\n      jump\t// in\n    tag_54:\n      tag_55\n      jump\t// in\n    tag_53:\n      mload(0x40)\n      tag_56\n      swap2\n      swap1\n      tag_25\n      jump\t// in\n    tag_56:\n      mload(0x40)\n      dup1\n      swap2\n      sub\n      swap1\n      return\n        /* \"contracts/Coin_contract.sol\":497:535  mapping (address => uint) public wards */\n    tag_13:\n      tag_57\n      0x04\n      dup1\n      calldatasize\n      sub\n      dup2\n      add\n      swap1\n      tag_58\n      swap2\n      swap1\n      tag_44\n      jump\t// in\n    tag_58:\n      tag_59\n      jump\t// in\n    tag_57:\n      mload(0x40)\n      tag_60\n      swap2\n      swap1\n      tag_29\n      jump\t// in\n    tag_60:\n      mload(0x40)\n      dup1\n      swap2\n      sub\n      swap1\n      return\n        /* \"contracts/Coin_contract.sol\":2535:2670  function allowance(address owner, address delegate) public view returns (uint) \r... */\n    tag_14:\n      tag_61\n      0x04\n      dup1\n      calldatasize\n      sub\n      dup2\n      add\n      swap1\n      tag_62\n      swap2\n      swap1\n      tag_63\n      jump\t// in\n    tag_62:\n      tag_64\n      jump\t// in\n    tag_61:\n      mload(0x40)\n      tag_65\n      swap2\n      swap1\n      tag_29\n      jump\t// in\n    tag_65:\n      mload(0x40)\n      dup1\n      swap2\n      sub\n      swap1\n      return\n        /* \"contracts/Coin_contract.sol\":815:855  string public constant name = \"SomeCoin\" */\n    tag_17:\n      mload(0x40)\n      dup1\n      0x40\n      add\n      0x40\n      mstore\n      dup1\n      0x08\n      dup2\n      mstore\n      0x20\n      add\n      0x536f6d65436f696e000000000000000000000000000000000000000000000000\n      dup2\n      mstore\n      pop\n      dup2\n      jump\t// out\n        /* \"contracts/Coin_contract.sol\":2309:2527  function approve(address delegate, uint numTokens) public returns (bool) \r... */\n    tag_23:\n        /* \"contracts/Coin_contract.sol\":2376:2380  bool */\n      0x00\n        /* \"contracts/Coin_contract.sol\":2431:2440  numTokens */\n      dup2\n        /* \"contracts/Coin_contract.sol\":2399:2406  allowed */\n      0x03\n        /* \"contracts/Coin_contract.sol\":2399:2418  allowed[msg.sender] */\n      0x00\n        /* \"contracts/Coin_contract.sol\":2407:2417  msg.sender */\n      caller\n        /* \"contracts/Coin_contract.sol\":2399:2418  allowed[msg.sender] */\n      0xffffffffffffffffffffffffffffffffffffffff\n      and\n      0xffffffffffffffffffffffffffffffffffffffff\n      and\n      dup2\n      mstore\n      0x20\n      add\n      swap1\n      dup2\n      mstore\n      0x20\n      add\n      0x00\n      keccak256\n        /* \"contracts/Coin_contract.sol\":2399:2428  allowed[msg.sender][delegate] */\n      0x00\n        /* \"contracts/Coin_contract.sol\":2419:2427  delegate */\n      dup6\n        /* \"contracts/Coin_contract.sol\":2399:2428  allowed[msg.sender][delegate] */\n      0xffffffffffffffffffffffffffffffffffffffff\n      and\n      0xffffffffffffffffffffffffffffffffffffffff\n      and\n      dup2\n      mstore\n      0x20\n      add\n      swap1\n      dup2\n      mstore\n      0x20\n      add\n      0x00\n      keccak256\n        /* \"contracts/Coin_contract.sol\":2399:2440  allowed[msg.sender][delegate] = numTokens */\n      dup2\n      swap1\n      sstore\n      pop\n        /* \"contracts/Coin_contract.sol\":2477:2485  delegate */\n      dup3\n        /* \"contracts/Coin_contract.sol\":2456:2497  Approval(msg.sender, delegate, numTokens) */\n      0xffffffffffffffffffffffffffffffffffffffff\n      and\n        /* \"contracts/Coin_contract.sol\":2465:2475  msg.sender */\n      caller\n        /* \"contracts/Coin_contract.sol\":2456:2497  Approval(msg.sender, delegate, numTokens) */\n      0xffffffffffffffffffffffffffffffffffffffff\n      and\n      0x8c5be1e5ebec7d5bd14f71427d1e84f3dd0314c0f7b2291e5b200ac8c7c3b925\n        /* \"contracts/Coin_contract.sol\":2487:2496  numTokens */\n      dup5\n        /* \"contracts/Coin_contract.sol\":2456:2497  Approval(msg.sender, delegate, numTokens) */\n      mload(0x40)\n      tag_67\n      swap2\n      swap1\n      tag_29\n      jump\t// in\n    tag_67:\n      mload(0x40)\n      dup1\n      swap2\n      sub\n      swap1\n      log3\n        /* \"contracts/Coin_contract.sol\":2515:2519  true */\n      0x01\n        /* \"contracts/Coin_contract.sol\":2508:2519  return true */\n      swap1\n      pop\n        /* \"contracts/Coin_contract.sol\":2309:2527  function approve(address delegate, uint numTokens) public returns (bool) \r... */\n      swap3\n      swap2\n      pop\n      pop\n      jump\t// out\n        /* \"contracts/Coin_contract.sol\":1427:1522  function totalSupply() public view returns (uint256) \r... */\n    tag_27:\n        /* \"contracts/Coin_contract.sol\":1471:1478  uint256 */\n      0x00\n        /* \"contracts/Coin_contract.sol\":1502:1514  totalSupply_ */\n      sload(0x01)\n        /* \"contracts/Coin_contract.sol\":1495:1514  return totalSupply_ */\n      swap1\n      pop\n        /* \"contracts/Coin_contract.sol\":1427:1522  function totalSupply() public view returns (uint256) \r... */\n      swap1\n      jump\t// out\n        /* \"contracts/Coin_contract.sol\":1815:2301  function transferFrom(address owner, address buyer, uint numTokens) public returns (bool) \r... */\n    tag_33:\n        /* \"contracts/Coin_contract.sol\":1899:1903  bool */\n      0x00\n        /* \"contracts/Coin_contract.sol\":1943:1951  balances */\n      0x02\n        /* \"contracts/Coin_contract.sol\":1943:1958  balances[owner] */\n      0x00\n        /* \"contracts/Coin_contract.sol\":1952:1957  owner */\n      dup6\n        /* \"contracts/Coin_contract.sol\":1943:1958  balances[owner] */\n      0xffffffffffffffffffffffffffffffffffffffff\n      and\n      0xffffffffffffffffffffffffffffffffffffffff\n      and\n      dup2\n      mstore\n      0x20\n      add\n      swap1\n      dup2\n      mstore\n      0x20\n      add\n      0x00\n      keccak256\n      sload\n        /* \"contracts/Coin_contract.sol\":1930:1939  numTokens */\n      dup3\n        /* \"contracts/Coin_contract.sol\":1930:1958  numTokens <= balances[owner] */\n      gt\n      iszero\n        /* \"contracts/Coin_contract.sol\":1922:1959  require(numTokens <= balances[owner]) */\n      tag_70\n      jumpi\n      0x00\n      dup1\n      revert\n    tag_70:\n        /* \"contracts/Coin_contract.sol\":1991:1998  allowed */\n      0x03\n        /* \"contracts/Coin_contract.sol\":1991:2005  allowed[owner] */\n      0x00\n        /* \"contracts/Coin_contract.sol\":1999:2004  owner */\n      dup6\n        /* \"contracts/Coin_contract.sol\":1991:2005  allowed[owner] */\n      0xffffffffffffffffffffffffffffffffffffffff\n      and\n      0xffffffffffffffffffffffffffffffffffffffff\n      and\n      dup2\n      mstore\n      0x20\n      add\n      swap1\n      dup2\n      mstore\n      0x20\n      add\n      0x00\n      keccak256\n        /* \"contracts/Coin_contract.sol\":1991:2017  allowed[owner][msg.sender] */\n      0x00\n        /* \"contracts/Coin_contract.sol\":2006:2016  msg.sender */\n      caller\n        /* \"contracts/Coin_contract.sol\":1991:2017  allowed[owner][msg.sender] */\n      0xffffffffffffffffffffffffffffffffffffffff\n      and\n      0xffffffffffffffffffffffffffffffffffffffff\n      and\n      dup2\n      mstore\n      0x20\n      add\n      swap1\n      dup2\n      mstore\n      0x20\n      add\n      0x00\n      keccak256\n      sload\n        /* \"contracts/Coin_contract.sol\":1978:1987  numTokens */\n      dup3\n        /* \"contracts/Coin_contract.sol\":1978:2017  numTokens <= allowed[owner][msg.sender] */\n      gt\n      iszero\n        /* \"contracts/Coin_contract.sol\":1970:2018  require(numTokens <= allowed[owner][msg.sender]) */\n      tag_71\n      jumpi\n      0x00\n      dup1\n      revert\n    tag_71:\n        /* \"contracts/Coin_contract.sol\":2058:2100  sub(allowed[owner][msg.sender], numTokens) */\n      tag_72\n        /* \"contracts/Coin_contract.sol\":2062:2069  allowed */\n      0x03\n        /* \"contracts/Coin_contract.sol\":2062:2076  allowed[owner] */\n      0x00\n        /* \"contracts/Coin_contract.sol\":2070:2075  owner */\n      dup7\n        /* \"contracts/Coin_contract.sol\":2062:2076  allowed[owner] */\n      0xffffffffffffffffffffffffffffffffffffffff\n      and\n      0xffffffffffffffffffffffffffffffffffffffff\n      and\n      dup2\n      mstore\n      0x20\n      add\n      swap1\n      dup2\n      mstore\n      0x20\n      add\n      0x00\n      keccak256\n        /* \"contracts/Coin_contract.sol\":2062:2088  allowed[owner][msg.sender] */\n      0x00\n        /* \"contracts/Coin_contract.sol\":2077:2087  msg.sender */\n      caller\n        /* \"contracts/Coin_contract.sol\":2062:2088  allowed[owner][msg.sender] */\n      0xffffffffffffffffffffffffffffffffffffffff\n      and\n      0xffffffffffffffffffffffffffffffffffffffff\n      and\n      dup2\n      mstore\n      0x20\n      add\n      swap1\n      dup2\n      mstore\n      0x20\n      add\n      0x00\n      keccak256\n      sload\n        /* \"contracts/Coin_contract.sol\":2090:2099  numTokens */\n      dup4\n        /* \"contracts/Coin_contract.sol\":2058:2061  sub */\n      tag_73\n        /* \"contracts/Coin_contract.sol\":2058:2100  sub(allowed[owner][msg.sender], numTokens) */\n      jump\t// in\n    tag_72:\n        /* \"contracts/Coin_contract.sol\":2029:2036  allowed */\n      0x03\n        /* \"contracts/Coin_contract.sol\":2029:2043  allowed[owner] */\n      0x00\n        /* \"contracts/Coin_contract.sol\":2037:2042  owner */\n      dup7\n        /* \"contracts/Coin_contract.sol\":2029:2043  allowed[owner] */\n      0xffffffffffffffffffffffffffffffffffffffff\n      and\n      0xffffffffffffffffffffffffffffffffffffffff\n      and\n      dup2\n      mstore\n      0x20\n      add\n      swap1\n      dup2\n      mstore\n      0x20\n      add\n      0x00\n      keccak256\n        /* \"contracts/Coin_contract.sol\":2029:2055  allowed[owner][msg.sender] */\n      0x00\n        /* \"contracts/Coin_contract.sol\":2044:2054  msg.sender */\n      caller\n        /* \"contracts/Coin_contract.sol\":2029:2055  allowed[owner][msg.sender] */\n      0xffffffffffffffffffffffffffffffffffffffff\n      and\n      0xffffffffffffffffffffffffffffffffffffffff\n      and\n      dup2\n      mstore\n      0x20\n      add\n      swap1\n      dup2\n      mstore\n      0x20\n      add\n      0x00\n      keccak256\n        /* \"contracts/Coin_contract.sol\":2029:2100  allowed[owner][msg.sender] = sub(allowed[owner][msg.sender], numTokens) */\n      dup2\n      swap1\n      sstore\n      pop\n        /* \"contracts/Coin_contract.sol\":2129:2161  sub( balances[owner], numTokens) */\n      tag_74\n        /* \"contracts/Coin_contract.sol\":2134:2142  balances */\n      0x02\n        /* \"contracts/Coin_contract.sol\":2134:2149  balances[owner] */\n      0x00\n        /* \"contracts/Coin_contract.sol\":2143:2148  owner */\n      dup7\n        /* \"contracts/Coin_contract.sol\":2134:2149  balances[owner] */\n      0xffffffffffffffffffffffffffffffffffffffff\n      and\n      0xffffffffffffffffffffffffffffffffffffffff\n      and\n      dup2\n      mstore\n      0x20\n      add\n      swap1\n      dup2\n      mstore\n      0x20\n      add\n      0x00\n      keccak256\n      sload\n        /* \"contracts/Coin_contract.sol\":2151:2160  numTokens */\n      dup4\n        /* \"contracts/Coin_contract.sol\":2129:2132  sub */\n      tag_73\n        /* \"contracts/Coin_contract.sol\":2129:2161  sub( balances[owner], numTokens) */\n      jump\t// in\n    tag_74:\n        /* \"contracts/Coin_contract.sol\":2111:2119  balances */\n      0x02\n        /* \"contracts/Coin_contract.sol\":2111:2126  balances[owner] */\n      0x00\n        /* \"contracts/Coin_contract.sol\":2120:2125  owner */\n      dup7\n        /* \"contracts/Coin_contract.sol\":2111:2126  balances[owner] */\n      0xffffffffffffffffffffffffffffffffffffffff\n      and\n      0xffffffffffffffffffffffffffffffffffffffff\n      and\n      dup2\n      mstore\n      0x20\n      add\n      swap1\n      dup2\n      mstore\n      0x20\n      add\n      0x00\n      keccak256\n        /* \"contracts/Coin_contract.sol\":2111:2161  balances[owner] = sub( balances[owner], numTokens) */\n      dup2\n      swap1\n      sstore\n      pop\n        /* \"contracts/Coin_contract.sol\":2190:2222  add( balances[buyer], numTokens) */\n      tag_75\n        /* \"contracts/Coin_contract.sol\":2195:2203  balances */\n      0x02\n        /* \"contracts/Coin_contract.sol\":2195:2210  balances[buyer] */\n      0x00\n        /* \"contracts/Coin_contract.sol\":2204:2209  buyer */\n      dup6\n        /* \"contracts/Coin_contract.sol\":2195:2210  balances[buyer] */\n      0xffffffffffffffffffffffffffffffffffffffff\n      and\n      0xffffffffffffffffffffffffffffffffffffffff\n      and\n      dup2\n      mstore\n      0x20\n      add\n      swap1\n      dup2\n      mstore\n      0x20\n      add\n      0x00\n      keccak256\n      sload\n        /* \"contracts/Coin_contract.sol\":2212:2221  numTokens */\n      dup4\n        /* \"contracts/Coin_contract.sol\":2190:2193  add */\n      tag_76\n        /* \"contracts/Coin_contract.sol\":2190:2222  add( balances[buyer], numTokens) */\n      jump\t// in\n    tag_75:\n        /* \"contracts/Coin_contract.sol\":2172:2180  balances */\n      0x02\n        /* \"contracts/Coin_contract.sol\":2172:2187  balances[buyer] */\n      0x00\n        /* \"contracts/Coin_contract.sol\":2181:2186  buyer */\n      dup6\n        /* \"contracts/Coin_contract.sol\":2172:2187  balances[buyer] */\n      0xffffffffffffffffffffffffffffffffffffffff\n      and\n      0xffffffffffffffffffffffffffffffffffffffff\n      and\n      dup2\n      mstore\n      0x20\n      add\n      swap1\n      dup2\n      mstore\n      0x20\n      add\n      0x00\n      keccak256\n        /* \"contracts/Coin_contract.sol\":2172:2222  balances[buyer] = add( balances[buyer], numTokens) */\n      dup2\n      swap1\n      sstore\n      pop\n        /* \"contracts/Coin_contract.sol\":2254:2259  buyer */\n      dup3\n        /* \"contracts/Coin_contract.sol\":2238:2271  Transfer(owner, buyer, numTokens) */\n      0xffffffffffffffffffffffffffffffffffffffff\n      and\n        /* \"contracts/Coin_contract.sol\":2247:2252  owner */\n      dup5\n        /* \"contracts/Coin_contract.sol\":2238:2271  Transfer(owner, buyer, numTokens) */\n      0xffffffffffffffffffffffffffffffffffffffff\n      and\n      0xddf252ad1be2c89b69c2b068fc378daa952ba7f163c4a11628f55a4df523b3ef\n        /* \"contracts/Coin_contract.sol\":2261:2270  numTokens */\n      dup5\n        /* \"contracts/Coin_contract.sol\":2238:2271  Transfer(owner, buyer, numTokens) */\n      mload(0x40)\n      tag_77\n      swap2\n      swap1\n      tag_29\n      jump\t// in\n    tag_77:\n      mload(0x40)\n      dup1\n      swap2\n      sub\n      swap1\n      log3\n        /* \"contracts/Coin_contract.sol\":2289:2293  true */\n      0x01\n        /* \"contracts/Coin_contract.sol\":2282:2293  return true */\n      swap1\n      pop\n        /* \"contracts/Coin_contract.sol\":1815:2301  function transferFrom(address owner, address buyer, uint numTokens) public returns (bool) \r... */\n      swap4\n      swap3\n      pop\n      pop\n      pop\n      jump\t// out\n        /* \"contracts/Coin_contract.sol\":905:939  uint8 public constant decimals = 0 */\n    tag_36:\n        /* \"contracts/Coin_contract.sol\":938:939  0 */\n      0x00\n        /* \"contracts/Coin_contract.sol\":905:939  uint8 public constant decimals = 0 */\n      dup2\n      jump\t// out\n        /* \"contracts/Coin_contract.sol\":2707:2916  function mint(address usr, uint wad) external auth \r... */\n    tag_41:\n        /* \"contracts/Coin_contract.sol\":602:603  1 */\n      0x01\n        /* \"contracts/Coin_contract.sol\":581:586  wards */\n      0x00\n        /* \"contracts/Coin_contract.sol\":581:598  wards[msg.sender] */\n      dup1\n        /* \"contracts/Coin_contract.sol\":587:597  msg.sender */\n      caller\n        /* \"contracts/Coin_contract.sol\":581:598  wards[msg.sender] */\n      0xffffffffffffffffffffffffffffffffffffffff\n      and\n      0xffffffffffffffffffffffffffffffffffffffff\n      and\n      dup2\n      mstore\n      0x20\n      add\n      swap1\n      dup2\n      mstore\n      0x20\n      add\n      0x00\n      keccak256\n      sload\n        /* \"contracts/Coin_contract.sol\":581:603  wards[msg.sender] == 1 */\n      eq\n        /* \"contracts/Coin_contract.sol\":573:622  require(wards[msg.sender] == 1, \"Not-authorized\") */\n      tag_79\n      jumpi\n      mload(0x40)\n      0x08c379a000000000000000000000000000000000000000000000000000000000\n      dup2\n      mstore\n      0x04\n      add\n      tag_80\n      swap1\n      tag_81\n      jump\t// in\n    tag_80:\n      mload(0x40)\n      dup1\n      swap2\n      sub\n      swap1\n      revert\n    tag_79:\n        /* \"contracts/Coin_contract.sol\":2791:2814  add(balances[usr], wad) */\n      tag_83\n        /* \"contracts/Coin_contract.sol\":2795:2803  balances */\n      0x02\n        /* \"contracts/Coin_contract.sol\":2795:2808  balances[usr] */\n      0x00\n        /* \"contracts/Coin_contract.sol\":2804:2807  usr */\n      dup5\n        /* \"contracts/Coin_contract.sol\":2795:2808  balances[usr] */\n      0xffffffffffffffffffffffffffffffffffffffff\n      and\n      0xffffffffffffffffffffffffffffffffffffffff\n      and\n      dup2\n      mstore\n      0x20\n      add\n      swap1\n      dup2\n      mstore\n      0x20\n      add\n      0x00\n      keccak256\n      sload\n        /* \"contracts/Coin_contract.sol\":2810:2813  wad */\n      dup3\n        /* \"contracts/Coin_contract.sol\":2791:2794  add */\n      tag_76\n        /* \"contracts/Coin_contract.sol\":2791:2814  add(balances[usr], wad) */\n      jump\t// in\n    tag_83:\n        /* \"contracts/Coin_contract.sol\":2775:2783  balances */\n      0x02\n        /* \"contracts/Coin_contract.sol\":2775:2788  balances[usr] */\n      0x00\n        /* \"contracts/Coin_contract.sol\":2784:2787  usr */\n      dup5\n        /* \"contracts/Coin_contract.sol\":2775:2788  balances[usr] */\n      0xffffffffffffffffffffffffffffffffffffffff\n      and\n      0xffffffffffffffffffffffffffffffffffffffff\n      and\n      dup2\n      mstore\n      0x20\n      add\n      swap1\n      dup2\n      mstore\n      0x20\n      add\n      0x00\n      keccak256\n        /* \"contracts/Coin_contract.sol\":2775:2814  balances[usr] = add(balances[usr], wad) */\n      dup2\n      swap1\n      sstore\n      pop\n        /* \"contracts/Coin_contract.sol\":2840:2862  add(totalSupply_, wad) */\n      tag_84\n        /* \"contracts/Coin_contract.sol\":2844:2856  totalSupply_ */\n      sload(0x01)\n        /* \"contracts/Coin_contract.sol\":2858:2861  wad */\n      dup3\n        /* \"contracts/Coin_contract.sol\":2840:2843  add */\n      tag_76\n        /* \"contracts/Coin_contract.sol\":2840:2862  add(totalSupply_, wad) */\n      jump\t// in\n    tag_84:\n        /* \"contracts/Coin_contract.sol\":2825:2837  totalSupply_ */\n      0x01\n        /* \"contracts/Coin_contract.sol\":2825:2862  totalSupply_ = add(totalSupply_, wad) */\n      dup2\n      swap1\n      sstore\n      pop\n        /* \"contracts/Coin_contract.sol\":2899:2902  usr */\n      dup2\n        /* \"contracts/Coin_contract.sol\":2878:2908  Transfer(address(0), usr, wad) */\n      0xffffffffffffffffffffffffffffffffffffffff\n      and\n        /* \"contracts/Coin_contract.sol\":2895:2896  0 */\n      0x00\n        /* \"contracts/Coin_contract.sol\":2878:2908  Transfer(address(0), usr, wad) */\n      0xffffffffffffffffffffffffffffffffffffffff\n      and\n      0xddf252ad1be2c89b69c2b068fc378daa952ba7f163c4a11628f55a4df523b3ef\n        /* \"contracts/Coin_contract.sol\":2904:2907  wad */\n      dup4\n        /* \"contracts/Coin_contract.sol\":2878:2908  Transfer(address(0), usr, wad) */\n      mload(0x40)\n      tag_85\n      swap2\n      swap1\n      tag_29\n      jump\t// in\n    tag_85:\n      mload(0x40)\n      dup1\n      swap2\n      sub\n      swap1\n      log3\n        /* \"contracts/Coin_contract.sol\":2707:2916  function mint(address usr, uint wad) external auth \r... */\n      pop\n      pop\n      jump\t// out\n        /* \"contracts/Coin_contract.sol\":1530:1648  function balanceOf(address tokenOwner) public view returns (uint) \r... */\n    tag_45:\n        /* \"contracts/Coin_contract.sol\":1590:1594  uint */\n      0x00\n        /* \"contracts/Coin_contract.sol\":1620:1628  balances */\n      0x02\n        /* \"contracts/Coin_contract.sol\":1620:1640  balances[tokenOwner] */\n      0x00\n        /* \"contracts/Coin_contract.sol\":1629:1639  tokenOwner */\n      dup4\n        /* \"contracts/Coin_contract.sol\":1620:1640  balances[tokenOwner] */\n      0xffffffffffffffffffffffffffffffffffffffff\n      and\n      0xffffffffffffffffffffffffffffffffffffffff\n      and\n      dup2\n      mstore\n      0x20\n      add\n      swap1\n      dup2\n      mstore\n      0x20\n      add\n      0x00\n      keccak256\n      sload\n        /* \"contracts/Coin_contract.sol\":1613:1640  return balances[tokenOwner] */\n      swap1\n      pop\n        /* \"contracts/Coin_contract.sol\":1530:1648  function balanceOf(address tokenOwner) public view returns (uint) \r... */\n      swap2\n      swap1\n      pop\n      jump\t// out\n        /* \"contracts/Coin_contract.sol\":862:898  string public constant symbol = \"SC\" */\n    tag_48:\n      mload(0x40)\n      dup1\n      0x40\n      add\n      0x40\n      mstore\n      dup1\n      0x02\n      dup2\n      mstore\n      0x20\n      add\n      0x5343000000000000000000000000000000000000000000000000000000000000\n      dup2\n      mstore\n      pop\n      dup2\n      jump\t// out\n        /* \"contracts/Coin_contract.sol\":2922:3348  function burn(address usr, uint wad) external auth \r... */\n    tag_52:\n        /* \"contracts/Coin_contract.sol\":602:603  1 */\n      0x01\n        /* \"contracts/Coin_contract.sol\":581:586  wards */\n      0x00\n        /* \"contracts/Coin_contract.sol\":581:598  wards[msg.sender] */\n      dup1\n        /* \"contracts/Coin_contract.sol\":587:597  msg.sender */\n      caller\n        /* \"contracts/Coin_contract.sol\":581:598  wards[msg.sender] */\n      0xffffffffffffffffffffffffffffffffffffffff\n      and\n      0xffffffffffffffffffffffffffffffffffffffff\n      and\n      dup2\n      mstore\n      0x20\n      add\n      swap1\n      dup2\n      mstore\n      0x20\n      add\n      0x00\n      keccak256\n      sload\n        /* \"contracts/Coin_contract.sol\":581:603  wards[msg.sender] == 1 */\n      eq\n        /* \"contracts/Coin_contract.sol\":573:622  require(wards[msg.sender] == 1, \"Not-authorized\") */\n      tag_88\n      jumpi\n      mload(0x40)\n      0x08c379a000000000000000000000000000000000000000000000000000000000\n      dup2\n      mstore\n      0x04\n      add\n      tag_89\n      swap1\n      tag_81\n      jump\t// in\n    tag_89:\n      mload(0x40)\n      dup1\n      swap2\n      sub\n      swap1\n      revert\n    tag_88:\n        /* \"contracts/Coin_contract.sol\":3015:3018  wad */\n      dup1\n        /* \"contracts/Coin_contract.sol\":2998:3006  balances */\n      0x02\n        /* \"contracts/Coin_contract.sol\":2998:3011  balances[usr] */\n      0x00\n        /* \"contracts/Coin_contract.sol\":3007:3010  usr */\n      dup5\n        /* \"contracts/Coin_contract.sol\":2998:3011  balances[usr] */\n      0xffffffffffffffffffffffffffffffffffffffff\n      and\n      0xffffffffffffffffffffffffffffffffffffffff\n      and\n      dup2\n      mstore\n      0x20\n      add\n      swap1\n      dup2\n      mstore\n      0x20\n      add\n      0x00\n      keccak256\n      sload\n        /* \"contracts/Coin_contract.sol\":2998:3018  balances[usr] >= wad */\n      lt\n      iszero\n        /* \"contracts/Coin_contract.sol\":2990:3043  require(balances[usr] >= wad, \"insufficient-balance\") */\n      tag_91\n      jumpi\n      mload(0x40)\n      0x08c379a000000000000000000000000000000000000000000000000000000000\n      dup2\n      mstore\n      0x04\n      add\n      tag_92\n      swap1\n      tag_93\n      jump\t// in\n    tag_92:\n      mload(0x40)\n      dup1\n      swap2\n      sub\n      swap1\n      revert\n    tag_91:\n        /* \"contracts/Coin_contract.sol\":3223:3246  sub(balances[usr], wad) */\n      tag_94\n        /* \"contracts/Coin_contract.sol\":3227:3235  balances */\n      0x02\n        /* \"contracts/Coin_contract.sol\":3227:3240  balances[usr] */\n      0x00\n        /* \"contracts/Coin_contract.sol\":3236:3239  usr */\n      dup5\n        /* \"contracts/Coin_contract.sol\":3227:3240  balances[usr] */\n      0xffffffffffffffffffffffffffffffffffffffff\n      and\n      0xffffffffffffffffffffffffffffffffffffffff\n      and\n      dup2\n      mstore\n      0x20\n      add\n      swap1\n      dup2\n      mstore\n      0x20\n      add\n      0x00\n      keccak256\n      sload\n        /* \"contracts/Coin_contract.sol\":3242:3245  wad */\n      dup3\n        /* \"contracts/Coin_contract.sol\":3223:3226  sub */\n      tag_73\n        /* \"contracts/Coin_contract.sol\":3223:3246  sub(balances[usr], wad) */\n      jump\t// in\n    tag_94:\n        /* \"contracts/Coin_contract.sol\":3207:3215  balances */\n      0x02\n        /* \"contracts/Coin_contract.sol\":3207:3220  balances[usr] */\n      0x00\n        /* \"contracts/Coin_contract.sol\":3216:3219  usr */\n      dup5\n        /* \"contracts/Coin_contract.sol\":3207:3220  balances[usr] */\n      0xffffffffffffffffffffffffffffffffffffffff\n      and\n      0xffffffffffffffffffffffffffffffffffffffff\n      and\n      dup2\n      mstore\n      0x20\n      add\n      swap1\n      dup2\n      mstore\n      0x20\n      add\n      0x00\n      keccak256\n        /* \"contracts/Coin_contract.sol\":3207:3246  balances[usr] = sub(balances[usr], wad) */\n      dup2\n      swap1\n      sstore\n      pop\n        /* \"contracts/Coin_contract.sol\":3272:3294  sub(totalSupply_, wad) */\n      tag_95\n        /* \"contracts/Coin_contract.sol\":3276:3288  totalSupply_ */\n      sload(0x01)\n        /* \"contracts/Coin_contract.sol\":3290:3293  wad */\n      dup3\n        /* \"contracts/Coin_contract.sol\":3272:3275  sub */\n      tag_73\n        /* \"contracts/Coin_contract.sol\":3272:3294  sub(totalSupply_, wad) */\n      jump\t// in\n    tag_95:\n        /* \"contracts/Coin_contract.sol\":3257:3269  totalSupply_ */\n      0x01\n        /* \"contracts/Coin_contract.sol\":3257:3294  totalSupply_ = sub(totalSupply_, wad) */\n      dup2\n      swap1\n      sstore\n      pop\n        /* \"contracts/Coin_contract.sol\":3332:3333  0 */\n      0x00\n        /* \"contracts/Coin_contract.sol\":3310:3340  Transfer(usr, address(0), wad) */\n      0xffffffffffffffffffffffffffffffffffffffff\n      and\n        /* \"contracts/Coin_contract.sol\":3319:3322  usr */\n      dup3\n        /* \"contracts/Coin_contract.sol\":3310:3340  Transfer(usr, address(0), wad) */\n      0xffffffffffffffffffffffffffffffffffffffff\n      and\n      0xddf252ad1be2c89b69c2b068fc378daa952ba7f163c4a11628f55a4df523b3ef\n        /* \"contracts/Coin_contract.sol\":3336:3339  wad */\n      dup4\n        /* \"contracts/Coin_contract.sol\":3310:3340  Transfer(usr, address(0), wad) */\n      mload(0x40)\n      tag_96\n      swap2\n      swap1\n      tag_29\n      jump\t// in\n    tag_96:\n      mload(0x40)\n      dup1\n      swap2\n      sub\n      swap1\n      log3\n        /* \"contracts/Coin_contract.sol\":2922:3348  function burn(address usr, uint wad) external auth \r... */\n      pop\n      pop\n      jump\t// out\n        /* \"contracts/Coin_contract.sol\":1656:1807  function transfer(address receiver, uint numTokens) public returns (bool) \r... */\n    tag_55:\n        /* \"contracts/Coin_contract.sol\":1724:1728  bool */\n      0x00\n        /* \"contracts/Coin_contract.sol\":1754:1799  transferFrom(msg.sender, receiver, numTokens) */\n      tag_98\n        /* \"contracts/Coin_contract.sol\":1767:1777  msg.sender */\n      caller\n        /* \"contracts/Coin_contract.sol\":1779:1787  receiver */\n      dup5\n        /* \"contracts/Coin_contract.sol\":1789:1798  numTokens */\n      dup5\n        /* \"contracts/Coin_contract.sol\":1754:1766  transferFrom */\n      tag_33\n        /* \"contracts/Coin_contract.sol\":1754:1799  transferFrom(msg.sender, receiver, numTokens) */\n      jump\t// in\n    tag_98:\n        /* \"contracts/Coin_contract.sol\":1747:1799  return transferFrom(msg.sender, receiver, numTokens) */\n      swap1\n      pop\n        /* \"contracts/Coin_contract.sol\":1656:1807  function transfer(address receiver, uint numTokens) public returns (bool) \r... */\n      swap3\n      swap2\n      pop\n      pop\n      jump\t// out\n        /* \"contracts/Coin_contract.sol\":497:535  mapping (address => uint) public wards */\n    tag_59:\n      mstore(0x20, 0x00)\n      dup1\n      0x00\n      mstore\n      keccak256(0x00, 0x40)\n      0x00\n      swap2\n      pop\n      swap1\n      pop\n      sload\n      dup2\n      jump\t// out\n        /* \"contracts/Coin_contract.sol\":2535:2670  function allowance(address owner, address delegate) public view returns (uint) \r... */\n    tag_64:\n        /* \"contracts/Coin_contract.sol\":2608:2612  uint */\n      0x00\n        /* \"contracts/Coin_contract.sol\":2638:2645  allowed */\n      0x03\n        /* \"contracts/Coin_contract.sol\":2638:2652  allowed[owner] */\n      0x00\n        /* \"contracts/Coin_contract.sol\":2646:2651  owner */\n      dup5\n        /* \"contracts/Coin_contract.sol\":2638:2652  allowed[owner] */\n      0xffffffffffffffffffffffffffffffffffffffff\n      and\n      0xffffffffffffffffffffffffffffffffffffffff\n      and\n      dup2\n      mstore\n      0x20\n      add\n      swap1\n      dup2\n      mstore\n      0x20\n      add\n      0x00\n      keccak256\n        /* \"contracts/Coin_contract.sol\":2638:2662  allowed[owner][delegate] */\n      0x00\n        /* \"contracts/Coin_contract.sol\":2653:2661  delegate */\n      dup4\n        /* \"contracts/Coin_contract.sol\":2638:2662  allowed[owner][delegate] */\n      0xffffffffffffffffffffffffffffffffffffffff\n      and\n      0xffffffffffffffffffffffffffffffffffffffff\n      and\n      dup2\n      mstore\n      0x20\n      add\n      swap1\n      dup2\n      mstore\n      0x20\n      add\n      0x00\n      keccak256\n      sload\n        /* \"contracts/Coin_contract.sol\":2631:2662  return allowed[owner][delegate] */\n      swap1\n      pop\n        /* \"contracts/Coin_contract.sol\":2535:2670  function allowance(address owner, address delegate) public view returns (uint) \r... */\n      swap3\n      swap2\n      pop\n      pop\n      jump\t// out\n        /* \"contracts/Coin_contract.sol\":1214:1324  function sub(uint x, uint y) internal pure returns (uint z) \r... */\n    tag_73:\n        /* \"contracts/Coin_contract.sol\":1266:1272  uint z */\n      0x00\n        /* \"contracts/Coin_contract.sol\":1314:1315  x */\n      dup3\n        /* \"contracts/Coin_contract.sol\":1308:1309  y */\n      dup3\n        /* \"contracts/Coin_contract.sol\":1304:1305  x */\n      dup5\n        /* \"contracts/Coin_contract.sol\":1304:1309  x - y */\n      tag_101\n      swap2\n      swap1\n      tag_102\n      jump\t// in\n    tag_101:\n        /* \"contracts/Coin_contract.sol\":1300:1309  z = x - y */\n      swap2\n      pop\n      dup2\n        /* \"contracts/Coin_contract.sol\":1299:1315  (z = x - y) <= x */\n      gt\n      iszero\n        /* \"contracts/Coin_contract.sol\":1291:1316  require((z = x - y) <= x) */\n      tag_103\n      jumpi\n      0x00\n      dup1\n      revert\n    tag_103:\n        /* \"contracts/Coin_contract.sol\":1214:1324  function sub(uint x, uint y) internal pure returns (uint z) \r... */\n      swap3\n      swap2\n      pop\n      pop\n      jump\t// out\n        /* \"contracts/Coin_contract.sol\":1098:1208  function add(uint x, uint y) internal pure returns (uint z) \r... */\n    tag_76:\n        /* \"contracts/Coin_contract.sol\":1150:1156  uint z */\n      0x00\n        /* \"contracts/Coin_contract.sol\":1198:1199  x */\n      dup3\n        /* \"contracts/Coin_contract.sol\":1192:1193  y */\n      dup3\n        /* \"contracts/Coin_contract.sol\":1188:1189  x */\n      dup5\n        /* \"contracts/Coin_contract.sol\":1188:1193  x + y */\n      tag_105\n      swap2\n      swap1\n      tag_106\n      jump\t// in\n    tag_105:\n        /* \"contracts/Coin_contract.sol\":1184:1193  z = x + y */\n      swap2\n      pop\n      dup2\n        /* \"contracts/Coin_contract.sol\":1183:1199  (z = x + y) >= x */\n      lt\n      iszero\n        /* \"contracts/Coin_contract.sol\":1175:1200  require((z = x + y) >= x) */\n      tag_107\n      jumpi\n      0x00\n      dup1\n      revert\n    tag_107:\n        /* \"contracts/Coin_contract.sol\":1098:1208  function add(uint x, uint y) internal pure returns (uint z) \r... */\n      swap3\n      swap2\n      pop\n      pop\n      jump\t// out\n        /* \"#utility.yul\":7:146   */\n    tag_109:\n        /* \"#utility.yul\":53:58   */\n      0x00\n        /* \"#utility.yul\":91:97   */\n      dup2\n        /* \"#utility.yul\":78:98   */\n      calldataload\n        /* \"#utility.yul\":69:98   */\n      swap1\n      pop\n        /* \"#utility.yul\":107:140   */\n      tag_111\n        /* \"#utility.yul\":134:139   */\n      dup2\n        /* \"#utility.yul\":107:140   */\n      tag_112\n      jump\t// in\n    tag_111:\n        /* \"#utility.yul\":7:146   */\n      swap3\n      swap2\n      pop\n      pop\n      jump\t// out\n        /* \"#utility.yul\":152:291   */\n    tag_113:\n        /* \"#utility.yul\":198:203   */\n      0x00\n        /* \"#utility.yul\":236:242   */\n      dup2\n        /* \"#utility.yul\":223:243   */\n      calldataload\n        /* \"#utility.yul\":214:243   */\n      swap1\n      pop\n        /* \"#utility.yul\":252:285   */\n      tag_115\n        /* \"#utility.yul\":279:284   */\n      dup2\n        /* \"#utility.yul\":252:285   */\n      tag_116\n      jump\t// in\n    tag_115:\n        /* \"#utility.yul\":152:291   */\n      swap3\n      swap2\n      pop\n      pop\n      jump\t// out\n        /* \"#utility.yul\":297:626   */\n    tag_44:\n        /* \"#utility.yul\":356:362   */\n      0x00\n        /* \"#utility.yul\":405:407   */\n      0x20\n        /* \"#utility.yul\":393:402   */\n      dup3\n        /* \"#utility.yul\":384:391   */\n      dup5\n        /* \"#utility.yul\":380:403   */\n      sub\n        /* \"#utility.yul\":376:408   */\n      slt\n        /* \"#utility.yul\":373:492   */\n      iszero\n      tag_118\n      jumpi\n        /* \"#utility.yul\":411:490   */\n      tag_119\n      tag_120\n      jump\t// in\n    tag_119:\n        /* \"#utility.yul\":373:492   */\n    tag_118:\n        /* \"#utility.yul\":531:532   */\n      0x00\n        /* \"#utility.yul\":556:609   */\n      tag_121\n        /* \"#utility.yul\":601:608   */\n      dup5\n        /* \"#utility.yul\":592:598   */\n      dup3\n        /* \"#utility.yul\":581:590   */\n      dup6\n        /* \"#utility.yul\":577:599   */\n      add\n        /* \"#utility.yul\":556:609   */\n      tag_109\n      jump\t// in\n    tag_121:\n        /* \"#utility.yul\":546:609   */\n      swap2\n      pop\n        /* \"#utility.yul\":502:619   */\n      pop\n        /* \"#utility.yul\":297:626   */\n      swap3\n      swap2\n      pop\n      pop\n      jump\t// out\n        /* \"#utility.yul\":632:1106   */\n    tag_63:\n        /* \"#utility.yul\":700:706   */\n      0x00\n        /* \"#utility.yul\":708:714   */\n      dup1\n        /* \"#utility.yul\":757:759   */\n      0x40\n        /* \"#utility.yul\":745:754   */\n      dup4\n        /* \"#utility.yul\":736:743   */\n      dup6\n        /* \"#utility.yul\":732:755   */\n      sub\n        /* \"#utility.yul\":728:760   */\n      slt\n        /* \"#utility.yul\":725:844   */\n      iszero\n      tag_123\n      jumpi\n        /* \"#utility.yul\":763:842   */\n      tag_124\n      tag_120\n      jump\t// in\n    tag_124:\n        /* \"#utility.yul\":725:844   */\n    tag_123:\n        /* \"#utility.yul\":883:884   */\n      0x00\n        /* \"#utility.yul\":908:961   */\n      tag_125\n        /* \"#utility.yul\":953:960   */\n      dup6\n        /* \"#utility.yul\":944:950   */\n      dup3\n        /* \"#utility.yul\":933:942   */\n      dup7\n        /* \"#utility.yul\":929:951   */\n      add\n        /* \"#utility.yul\":908:961   */\n      tag_109\n      jump\t// in\n    tag_125:\n        /* \"#utility.yul\":898:961   */\n      swap3\n      pop\n        /* \"#utility.yul\":854:971   */\n      pop\n        /* \"#utility.yul\":1010:1012   */\n      0x20\n        /* \"#utility.yul\":1036:1089   */\n      tag_126\n        /* \"#utility.yul\":1081:1088   */\n      dup6\n        /* \"#utility.yul\":1072:1078   */\n      dup3\n        /* \"#utility.yul\":1061:1070   */\n      dup7\n        /* \"#utility.yul\":1057:1079   */\n      add\n        /* \"#utility.yul\":1036:1089   */\n      tag_109\n      jump\t// in\n    tag_126:\n        /* \"#utility.yul\":1026:1089   */\n      swap2\n      pop\n        /* \"#utility.yul\":981:1099   */\n      pop\n        /* \"#utility.yul\":632:1106   */\n      swap3\n      pop\n      swap3\n      swap1\n      pop\n      jump\t// out\n        /* \"#utility.yul\":1112:1731   */\n    tag_32:\n        /* \"#utility.yul\":1189:1195   */\n      0x00\n        /* \"#utility.yul\":1197:1203   */\n      dup1\n        /* \"#utility.yul\":1205:1211   */\n      0x00\n        /* \"#utility.yul\":1254:1256   */\n      0x60\n        /* \"#utility.yul\":1242:1251   */\n      dup5\n        /* \"#utility.yul\":1233:1240   */\n      dup7\n        /* \"#utility.yul\":1229:1252   */\n      sub\n        /* \"#utility.yul\":1225:1257   */\n      slt\n        /* \"#utility.yul\":1222:1341   */\n      iszero\n      tag_128\n      jumpi\n        /* \"#utility.yul\":1260:1339   */\n      tag_129\n      tag_120\n      jump\t// in\n    tag_129:\n        /* \"#utility.yul\":1222:1341   */\n    tag_128:\n        /* \"#utility.yul\":1380:1381   */\n      0x00\n        /* \"#utility.yul\":1405:1458   */\n      tag_130\n        /* \"#utility.yul\":1450:1457   */\n      dup7\n        /* \"#utility.yul\":1441:1447   */\n      dup3\n        /* \"#utility.yul\":1430:1439   */\n      dup8\n        /* \"#utility.yul\":1426:1448   */\n      add\n        /* \"#utility.yul\":1405:1458   */\n      tag_109\n      jump\t// in\n    tag_130:\n        /* \"#utility.yul\":1395:1458   */\n      swap4\n      pop\n        /* \"#utility.yul\":1351:1468   */\n      pop\n        /* \"#utility.yul\":1507:1509   */\n      0x20\n        /* \"#utility.yul\":1533:1586   */\n      tag_131\n        /* \"#utility.yul\":1578:1585   */\n      dup7\n        /* \"#utility.yul\":1569:1575   */\n      dup3\n        /* \"#utility.yul\":1558:1567   */\n      dup8\n        /* \"#utility.yul\":1554:1576   */\n      add\n        /* \"#utility.yul\":1533:1586   */\n      tag_109\n      jump\t// in\n    tag_131:\n        /* \"#utility.yul\":1523:1586   */\n      swap3\n      pop\n        /* \"#utility.yul\":1478:1596   */\n      pop\n        /* \"#utility.yul\":1635:1637   */\n      0x40\n        /* \"#utility.yul\":1661:1714   */\n      tag_132\n        /* \"#utility.yul\":1706:1713   */\n      dup7\n        /* \"#utility.yul\":1697:1703   */\n      dup3\n        /* \"#utility.yul\":1686:1695   */\n      dup8\n        /* \"#utility.yul\":1682:1704   */\n      add\n        /* \"#utility.yul\":1661:1714   */\n      tag_113\n      jump\t// in\n    tag_132:\n        /* \"#utility.yul\":1651:1714   */\n      swap2\n      pop\n        /* \"#utility.yul\":1606:1724   */\n      pop\n        /* \"#utility.yul\":1112:1731   */\n      swap3\n      pop\n      swap3\n      pop\n      swap3\n      jump\t// out\n        /* \"#utility.yul\":1737:2211   */\n    tag_22:\n        /* \"#utility.yul\":1805:1811   */\n      0x00\n        /* \"#utility.yul\":1813:1819   */\n      dup1\n        /* \"#utility.yul\":1862:1864   */\n      0x40\n        /* \"#utility.yul\":1850:1859   */\n      dup4\n        /* \"#utility.yul\":1841:1848   */\n      dup6\n        /* \"#utility.yul\":1837:1860   */\n      sub\n        /* \"#utility.yul\":1833:1865   */\n      slt\n        /* \"#utility.yul\":1830:1949   */\n      iszero\n      tag_134\n      jumpi\n        /* \"#utility.yul\":1868:1947   */\n      tag_135\n      tag_120\n      jump\t// in\n    tag_135:\n        /* \"#utility.yul\":1830:1949   */\n    tag_134:\n        /* \"#utility.yul\":1988:1989   */\n      0x00\n        /* \"#utility.yul\":2013:2066   */\n      tag_136\n        /* \"#utility.yul\":2058:2065   */\n      dup6\n        /* \"#utility.yul\":2049:2055   */\n      dup3\n        /* \"#utility.yul\":2038:2047   */\n      dup7\n        /* \"#utility.yul\":2034:2056   */\n      add\n        /* \"#utility.yul\":2013:2066   */\n      tag_109\n      jump\t// in\n    tag_136:\n        /* \"#utility.yul\":2003:2066   */\n      swap3\n      pop\n        /* \"#utility.yul\":1959:2076   */\n      pop\n        /* \"#utility.yul\":2115:2117   */\n      0x20\n        /* \"#utility.yul\":2141:2194   */\n      tag_137\n        /* \"#utility.yul\":2186:2193   */\n      dup6\n        /* \"#utility.yul\":2177:2183   */\n      dup3\n        /* \"#utility.yul\":2166:2175   */\n      dup7\n        /* \"#utility.yul\":2162:2184   */\n      add\n        /* \"#utility.yul\":2141:2194   */\n      tag_113\n      jump\t// in\n    tag_137:\n        /* \"#utility.yul\":2131:2194   */\n      swap2\n      pop\n        /* \"#utility.yul\":2086:2204   */\n      pop\n        /* \"#utility.yul\":1737:2211   */\n      swap3\n      pop\n      swap3\n      swap1\n      pop\n      jump\t// out\n        /* \"#utility.yul\":2217:2326   */\n    tag_138:\n        /* \"#utility.yul\":2298:2319   */\n      tag_140\n        /* \"#utility.yul\":2313:2318   */\n      dup2\n        /* \"#utility.yul\":2298:2319   */\n      tag_141\n      jump\t// in\n    tag_140:\n        /* \"#utility.yul\":2293:2296   */\n      dup3\n        /* \"#utility.yul\":2286:2320   */\n      mstore\n        /* \"#utility.yul\":2217:2326   */\n      pop\n      pop\n      jump\t// out\n        /* \"#utility.yul\":2332:2696   */\n    tag_142:\n        /* \"#utility.yul\":2420:2423   */\n      0x00\n        /* \"#utility.yul\":2448:2487   */\n      tag_144\n        /* \"#utility.yul\":2481:2486   */\n      dup3\n        /* \"#utility.yul\":2448:2487   */\n      tag_145\n      jump\t// in\n    tag_144:\n        /* \"#utility.yul\":2503:2574   */\n      tag_146\n        /* \"#utility.yul\":2567:2573   */\n      dup2\n        /* \"#utility.yul\":2562:2565   */\n      dup6\n        /* \"#utility.yul\":2503:2574   */\n      tag_147\n      jump\t// in\n    tag_146:\n        /* \"#utility.yul\":2496:2574   */\n      swap4\n      pop\n        /* \"#utility.yul\":2583:2635   */\n      tag_148\n        /* \"#utility.yul\":2628:2634   */\n      dup2\n        /* \"#utility.yul\":2623:2626   */\n      dup6\n        /* \"#utility.yul\":2616:2620   */\n      0x20\n        /* \"#utility.yul\":2609:2614   */\n      dup7\n        /* \"#utility.yul\":2605:2621   */\n      add\n        /* \"#utility.yul\":2583:2635   */\n      tag_149\n      jump\t// in\n    tag_148:\n        /* \"#utility.yul\":2660:2689   */\n      tag_150\n        /* \"#utility.yul\":2682:2688   */\n      dup2\n        /* \"#utility.yul\":2660:2689   */\n      tag_151\n      jump\t// in\n    tag_150:\n        /* \"#utility.yul\":2655:2658   */\n      dup5\n        /* \"#utility.yul\":2651:2690   */\n      add\n        /* \"#utility.yul\":2644:2690   */\n      swap2\n      pop\n        /* \"#utility.yul\":2424:2696   */\n      pop\n        /* \"#utility.yul\":2332:2696   */\n      swap3\n      swap2\n      pop\n      pop\n      jump\t// out\n        /* \"#utility.yul\":2702:3068   */\n    tag_152:\n        /* \"#utility.yul\":2844:2847   */\n      0x00\n        /* \"#utility.yul\":2865:2932   */\n      tag_154\n        /* \"#utility.yul\":2929:2931   */\n      0x14\n        /* \"#utility.yul\":2924:2927   */\n      dup4\n        /* \"#utility.yul\":2865:2932   */\n      tag_147\n      jump\t// in\n    tag_154:\n        /* \"#utility.yul\":2858:2932   */\n      swap2\n      pop\n        /* \"#utility.yul\":2941:3034   */\n      tag_155\n        /* \"#utility.yul\":3030:3033   */\n      dup3\n        /* \"#utility.yul\":2941:3034   */\n      tag_156\n      jump\t// in\n    tag_155:\n        /* \"#utility.yul\":3059:3061   */\n      0x20\n        /* \"#utility.yul\":3054:3057   */\n      dup3\n        /* \"#utility.yul\":3050:3062   */\n      add\n        /* \"#utility.yul\":3043:3062   */\n      swap1\n      pop\n        /* \"#utility.yul\":2702:3068   */\n      swap2\n      swap1\n      pop\n      jump\t// out\n        /* \"#utility.yul\":3074:3440   */\n    tag_157:\n        /* \"#utility.yul\":3216:3219   */\n      0x00\n        /* \"#utility.yul\":3237:3304   */\n      tag_159\n        /* \"#utility.yul\":3301:3303   */\n      0x0e\n        /* \"#utility.yul\":3296:3299   */\n      dup4\n        /* \"#utility.yul\":3237:3304   */\n      tag_147\n      jump\t// in\n    tag_159:\n        /* \"#utility.yul\":3230:3304   */\n      swap2\n      pop\n        /* \"#utility.yul\":3313:3406   */\n      tag_160\n        /* \"#utility.yul\":3402:3405   */\n      dup3\n        /* \"#utility.yul\":3313:3406   */\n      tag_161\n      jump\t// in\n    tag_160:\n        /* \"#utility.yul\":3431:3433   */\n      0x20\n        /* \"#utility.yul\":3426:3429   */\n      dup3\n        /* \"#utility.yul\":3422:3434   */\n      add\n        /* \"#utility.yul\":3415:3434   */\n      swap1\n      pop\n        /* \"#utility.yul\":3074:3440   */\n      swap2\n      swap1\n      pop\n      jump\t// out\n        /* \"#utility.yul\":3446:3564   */\n    tag_162:\n        /* \"#utility.yul\":3533:3557   */\n      tag_164\n        /* \"#utility.yul\":3551:3556   */\n      dup2\n        /* \"#utility.yul\":3533:3557   */\n      tag_165\n      jump\t// in\n    tag_164:\n        /* \"#utility.yul\":3528:3531   */\n      dup3\n        /* \"#utility.yul\":3521:3558   */\n      mstore\n        /* \"#utility.yul\":3446:3564   */\n      pop\n      pop\n      jump\t// out\n        /* \"#utility.yul\":3570:3682   */\n    tag_166:\n        /* \"#utility.yul\":3653:3675   */\n      tag_168\n        /* \"#utility.yul\":3669:3674   */\n      dup2\n        /* \"#utility.yul\":3653:3675   */\n      tag_169\n      jump\t// in\n    tag_168:\n        /* \"#utility.yul\":3648:3651   */\n      dup3\n        /* \"#utility.yul\":3641:3676   */\n      mstore\n        /* \"#utility.yul\":3570:3682   */\n      pop\n      pop\n      jump\t// out\n        /* \"#utility.yul\":3688:3898   */\n    tag_25:\n        /* \"#utility.yul\":3775:3779   */\n      0x00\n        /* \"#utility.yul\":3813:3815   */\n      0x20\n        /* \"#utility.yul\":3802:3811   */\n      dup3\n        /* \"#utility.yul\":3798:3816   */\n      add\n        /* \"#utility.yul\":3790:3816   */\n      swap1\n      pop\n        /* \"#utility.yul\":3826:3891   */\n      tag_171\n        /* \"#utility.yul\":3888:3889   */\n      0x00\n        /* \"#utility.yul\":3877:3886   */\n      dup4\n        /* \"#utility.yul\":3873:3890   */\n      add\n        /* \"#utility.yul\":3864:3870   */\n      dup5\n        /* \"#utility.yul\":3826:3891   */\n      tag_138\n      jump\t// in\n    tag_171:\n        /* \"#utility.yul\":3688:3898   */\n      swap3\n      swap2\n      pop\n      pop\n      jump\t// out\n        /* \"#utility.yul\":3904:4217   */\n    tag_19:\n        /* \"#utility.yul\":4017:4021   */\n      0x00\n        /* \"#utility.yul\":4055:4057   */\n      0x20\n        /* \"#utility.yul\":4044:4053   */\n      dup3\n        /* \"#utility.yul\":4040:4058   */\n      add\n        /* \"#utility.yul\":4032:4058   */\n      swap1\n      pop\n        /* \"#utility.yul\":4104:4113   */\n      dup2\n        /* \"#utility.yul\":4098:4102   */\n      dup2\n        /* \"#utility.yul\":4094:4114   */\n      sub\n        /* \"#utility.yul\":4090:4091   */\n      0x00\n        /* \"#utility.yul\":4079:4088   */\n      dup4\n        /* \"#utility.yul\":4075:4092   */\n      add\n        /* \"#utility.yul\":4068:4115   */\n      mstore\n        /* \"#utility.yul\":4132:4210   */\n      tag_173\n        /* \"#utility.yul\":4205:4209   */\n      dup2\n        /* \"#utility.yul\":4196:4202   */\n      dup5\n        /* \"#utility.yul\":4132:4210   */\n      tag_142\n      jump\t// in\n    tag_173:\n        /* \"#utility.yul\":4124:4210   */\n      swap1\n      pop\n        /* \"#utility.yul\":3904:4217   */\n      swap3\n      swap2\n      pop\n      pop\n      jump\t// out\n        /* \"#utility.yul\":4223:4642   */\n    tag_93:\n        /* \"#utility.yul\":4389:4393   */\n      0x00\n        /* \"#utility.yul\":4427:4429   */\n      0x20\n        /* \"#utility.yul\":4416:4425   */\n      dup3\n        /* \"#utility.yul\":4412:4430   */\n      add\n        /* \"#utility.yul\":4404:4430   */\n      swap1\n      pop\n        /* \"#utility.yul\":4476:4485   */\n      dup2\n        /* \"#utility.yul\":4470:4474   */\n      dup2\n        /* \"#utility.yul\":4466:4486   */\n      sub\n        /* \"#utility.yul\":4462:4463   */\n      0x00\n        /* \"#utility.yul\":4451:4460   */\n      dup4\n        /* \"#utility.yul\":4447:4464   */\n      add\n        /* \"#utility.yul\":4440:4487   */\n      mstore\n        /* \"#utility.yul\":4504:4635   */\n      tag_175\n        /* \"#utility.yul\":4630:4634   */\n      dup2\n        /* \"#utility.yul\":4504:4635   */\n      tag_152\n      jump\t// in\n    tag_175:\n        /* \"#utility.yul\":4496:4635   */\n      swap1\n      pop\n        /* \"#utility.yul\":4223:4642   */\n      swap2\n      swap1\n      pop\n      jump\t// out\n        /* \"#utility.yul\":4648:5067   */\n    tag_81:\n        /* \"#utility.yul\":4814:4818   */\n      0x00\n        /* \"#utility.yul\":4852:4854   */\n      0x20\n        /* \"#utility.yul\":4841:4850   */\n      dup3\n        /* \"#utility.yul\":4837:4855   */\n      add\n        /* \"#utility.yul\":4829:4855   */\n      swap1\n      pop\n        /* \"#utility.yul\":4901:4910   */\n      dup2\n        /* \"#utility.yul\":4895:4899   */\n      dup2\n        /* \"#utility.yul\":4891:4911   */\n      sub\n        /* \"#utility.yul\":4887:4888   */\n      0x00\n        /* \"#utility.yul\":4876:4885   */\n      dup4\n        /* \"#utility.yul\":4872:4889   */\n      add\n        /* \"#utility.yul\":4865:4912   */\n      mstore\n        /* \"#utility.yul\":4929:5060   */\n      tag_177\n        /* \"#utility.yul\":5055:5059   */\n      dup2\n        /* \"#utility.yul\":4929:5060   */\n      tag_157\n      jump\t// in\n    tag_177:\n        /* \"#utility.yul\":4921:5060   */\n      swap1\n      pop\n        /* \"#utility.yul\":4648:5067   */\n      swap2\n      swap1\n      pop\n      jump\t// out\n        /* \"#utility.yul\":5073:5295   */\n    tag_29:\n        /* \"#utility.yul\":5166:5170   */\n      0x00\n        /* \"#utility.yul\":5204:5206   */\n      0x20\n        /* \"#utility.yul\":5193:5202   */\n      dup3\n        /* \"#utility.yul\":5189:5207   */\n      add\n        /* \"#utility.yul\":5181:5207   */\n      swap1\n      pop\n        /* \"#utility.yul\":5217:5288   */\n      tag_179\n        /* \"#utility.yul\":5285:5286   */\n      0x00\n        /* \"#utility.yul\":5274:5283   */\n      dup4\n        /* \"#utility.yul\":5270:5287   */\n      add\n        /* \"#utility.yul\":5261:5267   */\n      dup5\n        /* \"#utility.yul\":5217:5288   */\n      tag_162\n      jump\t// in\n    tag_179:\n        /* \"#utility.yul\":5073:5295   */\n      swap3\n      swap2\n      pop\n      pop\n      jump\t// out\n        /* \"#utility.yul\":5301:5515   */\n    tag_38:\n        /* \"#utility.yul\":5390:5394   */\n      0x00\n        /* \"#utility.yul\":5428:5430   */\n      0x20\n        /* \"#utility.yul\":5417:5426   */\n      dup3\n        /* \"#utility.yul\":5413:5431   */\n      add\n        /* \"#utility.yul\":5405:5431   */\n      swap1\n      pop\n        /* \"#utility.yul\":5441:5508   */\n      tag_181\n        /* \"#utility.yul\":5505:5506   */\n      0x00\n        /* \"#utility.yul\":5494:5503   */\n      dup4\n        /* \"#utility.yul\":5490:5507   */\n      add\n        /* \"#utility.yul\":5481:5487   */\n      dup5\n        /* \"#utility.yul\":5441:5508   */\n      tag_166\n      jump\t// in\n    tag_181:\n        /* \"#utility.yul\":5301:5515   */\n      swap3\n      swap2\n      pop\n      pop\n      jump\t// out\n        /* \"#utility.yul\":5602:5701   */\n    tag_145:\n        /* \"#utility.yul\":5654:5660   */\n      0x00\n        /* \"#utility.yul\":5688:5693   */\n      dup2\n        /* \"#utility.yul\":5682:5694   */\n      mload\n        /* \"#utility.yul\":5672:5694   */\n      swap1\n      pop\n        /* \"#utility.yul\":5602:5701   */\n      swap2\n      swap1\n      pop\n      jump\t// out\n        /* \"#utility.yul\":5707:5876   */\n    tag_147:\n        /* \"#utility.yul\":5791:5802   */\n      0x00\n        /* \"#utility.yul\":5825:5831   */\n      dup3\n        /* \"#utility.yul\":5820:5823   */\n      dup3\n        /* \"#utility.yul\":5813:5832   */\n      mstore\n        /* \"#utility.yul\":5865:5869   */\n      0x20\n        /* \"#utility.yul\":5860:5863   */\n      dup3\n        /* \"#utility.yul\":5856:5870   */\n      add\n        /* \"#utility.yul\":5841:5870   */\n      swap1\n      pop\n        /* \"#utility.yul\":5707:5876   */\n      swap3\n      swap2\n      pop\n      pop\n      jump\t// out\n        /* \"#utility.yul\":5882:6187   */\n    tag_106:\n        /* \"#utility.yul\":5922:5925   */\n      0x00\n        /* \"#utility.yul\":5941:5961   */\n      tag_187\n        /* \"#utility.yul\":5959:5960   */\n      dup3\n        /* \"#utility.yul\":5941:5961   */\n      tag_165\n      jump\t// in\n    tag_187:\n        /* \"#utility.yul\":5936:5961   */\n      swap2\n      pop\n        /* \"#utility.yul\":5975:5995   */\n      tag_188\n        /* \"#utility.yul\":5993:5994   */\n      dup4\n        /* \"#utility.yul\":5975:5995   */\n      tag_165\n      jump\t// in\n    tag_188:\n        /* \"#utility.yul\":5970:5995   */\n      swap3\n      pop\n        /* \"#utility.yul\":6129:6130   */\n      dup3\n        /* \"#utility.yul\":6061:6127   */\n      0xffffffffffffffffffffffffffffffffffffffffffffffffffffffffffffffff\n        /* \"#utility.yul\":6057:6131   */\n      sub\n        /* \"#utility.yul\":6054:6055   */\n      dup3\n        /* \"#utility.yul\":6051:6132   */\n      gt\n        /* \"#utility.yul\":6048:6155   */\n      iszero\n      tag_189\n      jumpi\n        /* \"#utility.yul\":6135:6153   */\n      tag_190\n      tag_191\n      jump\t// in\n    tag_190:\n        /* \"#utility.yul\":6048:6155   */\n    tag_189:\n        /* \"#utility.yul\":6179:6180   */\n      dup3\n        /* \"#utility.yul\":6176:6177   */\n      dup3\n        /* \"#utility.yul\":6172:6181   */\n      add\n        /* \"#utility.yul\":6165:6181   */\n      swap1\n      pop\n        /* \"#utility.yul\":5882:6187   */\n      swap3\n      swap2\n      pop\n      pop\n      jump\t// out\n        /* \"#utility.yul\":6193:6384   */\n    tag_102:\n        /* \"#utility.yul\":6233:6237   */\n      0x00\n        /* \"#utility.yul\":6253:6273   */\n      tag_193\n        /* \"#utility.yul\":6271:6272   */\n      dup3\n        /* \"#utility.yul\":6253:6273   */\n      tag_165\n      jump\t// in\n    tag_193:\n        /* \"#utility.yul\":6248:6273   */\n      swap2\n      pop\n        /* \"#utility.yul\":6287:6307   */\n      tag_194\n        /* \"#utility.yul\":6305:6306   */\n      dup4\n        /* \"#utility.yul\":6287:6307   */\n      tag_165\n      jump\t// in\n    tag_194:\n        /* \"#utility.yul\":6282:6307   */\n      swap3\n      pop\n        /* \"#utility.yul\":6326:6327   */\n      dup3\n        /* \"#utility.yul\":6323:6324   */\n      dup3\n        /* \"#utility.yul\":6320:6328   */\n      lt\n        /* \"#utility.yul\":6317:6351   */\n      iszero\n      tag_195\n      jumpi\n        /* \"#utility.yul\":6331:6349   */\n      tag_196\n      tag_191\n      jump\t// in\n    tag_196:\n        /* \"#utility.yul\":6317:6351   */\n    tag_195:\n        /* \"#utility.yul\":6376:6377   */\n      dup3\n        /* \"#utility.yul\":6373:6374   */\n      dup3\n        /* \"#utility.yul\":6369:6378   */\n      sub\n        /* \"#utility.yul\":6361:6378   */\n      swap1\n      pop\n        /* \"#utility.yul\":6193:6384   */\n      swap3\n      swap2\n      pop\n      pop\n      jump\t// out\n        /* \"#utility.yul\":6390:6486   */\n    tag_197:\n        /* \"#utility.yul\":6427:6434   */\n      0x00\n        /* \"#utility.yul\":6456:6480   */\n      tag_199\n        /* \"#utility.yul\":6474:6479   */\n      dup3\n        /* \"#utility.yul\":6456:6480   */\n      tag_200\n      jump\t// in\n    tag_199:\n        /* \"#utility.yul\":6445:6480   */\n      swap1\n      pop\n        /* \"#utility.yul\":6390:6486   */\n      swap2\n      swap1\n      pop\n      jump\t// out\n        /* \"#utility.yul\":6492:6582   */\n    tag_141:\n        /* \"#utility.yul\":6526:6533   */\n      0x00\n        /* \"#utility.yul\":6569:6574   */\n      dup2\n        /* \"#utility.yul\":6562:6575   */\n      iszero\n        /* \"#utility.yul\":6555:6576   */\n      iszero\n        /* \"#utility.yul\":6544:6576   */\n      swap1\n      pop\n        /* \"#utility.yul\":6492:6582   */\n      swap2\n      swap1\n      pop\n      jump\t// out\n        /* \"#utility.yul\":6588:6714   */\n    tag_200:\n        /* \"#utility.yul\":6625:6632   */\n      0x00\n        /* \"#utility.yul\":6665:6707   */\n      0xffffffffffffffffffffffffffffffffffffffff\n        /* \"#utility.yul\":6658:6663   */\n      dup3\n        /* \"#utility.yul\":6654:6708   */\n      and\n        /* \"#utility.yul\":6643:6708   */\n      swap1\n      pop\n        /* \"#utility.yul\":6588:6714   */\n      swap2\n      swap1\n      pop\n      jump\t// out\n        /* \"#utility.yul\":6720:6797   */\n    tag_165:\n        /* \"#utility.yul\":6757:6764   */\n      0x00\n        /* \"#utility.yul\":6786:6791   */\n      dup2\n        /* \"#utility.yul\":6775:6791   */\n      swap1\n      pop\n        /* \"#utility.yul\":6720:6797   */\n      swap2\n      swap1\n      pop\n      jump\t// out\n        /* \"#utility.yul\":6803:6889   */\n    tag_169:\n        /* \"#utility.yul\":6838:6845   */\n      0x00\n        /* \"#utility.yul\":6878:6882   */\n      0xff\n        /* \"#utility.yul\":6871:6876   */\n      dup3\n        /* \"#utility.yul\":6867:6883   */\n      and\n        /* \"#utility.yul\":6856:6883   */\n      swap1\n      pop\n        /* \"#utility.yul\":6803:6889   */\n      swap2\n      swap1\n      pop\n      jump\t// out\n        /* \"#utility.yul\":6895:7202   */\n    tag_149:\n        /* \"#utility.yul\":6963:6964   */\n      0x00\n        /* \"#utility.yul\":6973:7086   */\n    tag_206:\n        /* \"#utility.yul\":6987:6993   */\n      dup4\n        /* \"#utility.yul\":6984:6985   */\n      dup2\n        /* \"#utility.yul\":6981:6994   */\n      lt\n        /* \"#utility.yul\":6973:7086   */\n      iszero\n      tag_208\n      jumpi\n        /* \"#utility.yul\":7072:7073   */\n      dup1\n        /* \"#utility.yul\":7067:7070   */\n      dup3\n        /* \"#utility.yul\":7063:7074   */\n      add\n        /* \"#utility.yul\":7057:7075   */\n      mload\n        /* \"#utility.yul\":7053:7054   */\n      dup2\n        /* \"#utility.yul\":7048:7051   */\n      dup5\n        /* \"#utility.yul\":7044:7055   */\n      add\n        /* \"#utility.yul\":7037:7076   */\n      mstore\n        /* \"#utility.yul\":7009:7011   */\n      0x20\n        /* \"#utility.yul\":7006:7007   */\n      dup2\n        /* \"#utility.yul\":7002:7012   */\n      add\n        /* \"#utility.yul\":6997:7012   */\n      swap1\n      pop\n        /* \"#utility.yul\":6973:7086   */\n      jump(tag_206)\n    tag_208:\n        /* \"#utility.yul\":7104:7110   */\n      dup4\n        /* \"#utility.yul\":7101:7102   */\n      dup2\n        /* \"#utility.yul\":7098:7111   */\n      gt\n        /* \"#utility.yul\":7095:7196   */\n      iszero\n      tag_209\n      jumpi\n        /* \"#utility.yul\":7184:7185   */\n      0x00\n        /* \"#utility.yul\":7175:7181   */\n      dup5\n        /* \"#utility.yul\":7170:7173   */\n      dup5\n        /* \"#utility.yul\":7166:7182   */\n      add\n        /* \"#utility.yul\":7159:7186   */\n      mstore\n        /* \"#utility.yul\":7095:7196   */\n    tag_209:\n        /* \"#utility.yul\":6944:7202   */\n      pop\n        /* \"#utility.yul\":6895:7202   */\n      pop\n      pop\n      pop\n      jump\t// out\n        /* \"#utility.yul\":7208:7388   */\n    tag_191:\n        /* \"#utility.yul\":7256:7333   */\n      0x4e487b7100000000000000000000000000000000000000000000000000000000\n        /* \"#utility.yul\":7253:7254   */\n      0x00\n        /* \"#utility.yul\":7246:7334   */\n      mstore\n        /* \"#utility.yul\":7353:7357   */\n      0x11\n        /* \"#utility.yul\":7350:7351   */\n      0x04\n        /* \"#utility.yul\":7343:7358   */\n      mstore\n        /* \"#utility.yul\":7377:7381   */\n      0x24\n        /* \"#utility.yul\":7374:7375   */\n      0x00\n        /* \"#utility.yul\":7367:7382   */\n      revert\n        /* \"#utility.yul\":7517:7634   */\n    tag_120:\n        /* \"#utility.yul\":7626:7627   */\n      0x00\n        /* \"#utility.yul\":7623:7624   */\n      dup1\n        /* \"#utility.yul\":7616:7628   */\n      revert\n        /* \"#utility.yul\":7640:7742   */\n    tag_151:\n        /* \"#utility.yul\":7681:7687   */\n      0x00\n        /* \"#utility.yul\":7732:7734   */\n      0x1f\n        /* \"#utility.yul\":7728:7735   */\n      not\n        /* \"#utility.yul\":7723:7725   */\n      0x1f\n        /* \"#utility.yul\":7716:7721   */\n      dup4\n        /* \"#utility.yul\":7712:7726   */\n      add\n        /* \"#utility.yul\":7708:7736   */\n      and\n        /* \"#utility.yul\":7698:7736   */\n      swap1\n      pop\n        /* \"#utility.yul\":7640:7742   */\n      swap2\n      swap1\n      pop\n      jump\t// out\n        /* \"#utility.yul\":7748:7918   */\n    tag_156:\n        /* \"#utility.yul\":7888:7910   */\n      0x696e73756666696369656e742d62616c616e6365000000000000000000000000\n        /* \"#utility.yul\":7884:7885   */\n      0x00\n        /* \"#utility.yul\":7876:7882   */\n      dup3\n        /* \"#utility.yul\":7872:7886   */\n      add\n        /* \"#utility.yul\":7865:7911   */\n      mstore\n        /* \"#utility.yul\":7748:7918   */\n      pop\n      jump\t// out\n        /* \"#utility.yul\":7924:8088   */\n    tag_161:\n        /* \"#utility.yul\":8064:8080   */\n      0x4e6f742d617574686f72697a6564000000000000000000000000000000000000\n        /* \"#utility.yul\":8060:8061   */\n      0x00\n        /* \"#utility.yul\":8052:8058   */\n      dup3\n        /* \"#utility.yul\":8048:8062   */\n      add\n        /* \"#utility.yul\":8041:8081   */\n      mstore\n        /* \"#utility.yul\":7924:8088   */\n      pop\n      jump\t// out\n        /* \"#utility.yul\":8094:8216   */\n    tag_112:\n        /* \"#utility.yul\":8167:8191   */\n      tag_218\n        /* \"#utility.yul\":8185:8190   */\n      dup2\n        /* \"#utility.yul\":8167:8191   */\n      tag_197\n      jump\t// in\n    tag_218:\n        /* \"#utility.yul\":8160:8165   */\n      dup2\n        /* \"#utility.yul\":8157:8192   */\n      eq\n        /* \"#utility.yul\":8147:8210   */\n      tag_219\n      jumpi\n        /* \"#utility.yul\":8206:8207   */\n      0x00\n        /* \"#utility.yul\":8203:8204   */\n      dup1\n        /* \"#utility.yul\":8196:8208   */\n      revert\n        /* \"#utility.yul\":8147:8210   */\n    tag_219:\n        /* \"#utility.yul\":8094:8216   */\n      pop\n      jump\t// out\n        /* \"#utility.yul\":8222:8344   */\n    tag_116:\n        /* \"#utility.yul\":8295:8319   */\n      tag_221\n        /* \"#utility.yul\":8313:8318   */\n      dup2\n        /* \"#utility.yul\":8295:8319   */\n      tag_165\n      jump\t// in\n    tag_221:\n        /* \"#utility.yul\":8288:8293   */\n      dup2\n        /* \"#utility.yul\":8285:8320   */\n      eq\n        /* \"#utility.yul\":8275:8338   */\n      tag_222\n      jumpi\n        /* \"#utility.yul\":8334:8335   */\n      0x00\n        /* \"#utility.yul\":8331:8332   */\n      dup1\n        /* \"#utility.yul\":8324:8336   */\n      revert\n        /* \"#utility.yul\":8275:8338   */\n    tag_222:\n        /* \"#utility.yul\":8222:8344   */\n      pop\n      jump\t// out\n\n    auxdata: 0xa2646970667358221220807f5d6d5799b563c60381026384e452688421087da5c1ecbc67b336f3074c4a64736f6c63430008070033\n}\n",
				"bytecode": {
					"linkReferences": {},
					"object": "608060405234801561001057600080fd5b5060016000803373ffffffffffffffffffffffffffffffffffffffff1673ffffffffffffffffffffffffffffffffffffffff1681526020019081526020016000208190555060006001819055506110ea8061006c6000396000f3fe608060405234801561001057600080fd5b50600436106100b45760003560e01c806370a082311161007157806370a082311461018f57806395d89b41146101bf5780639dc29fac146101dd578063a9059cbb146101f9578063bf353dbb14610229578063dd62ed3e14610259576100b4565b806306fdde03146100b9578063095ea7b3146100d757806318160ddd1461010757806323b872dd14610125578063313ce5671461015557806340c10f1914610173575b600080fd5b6100c1610289565b6040516100ce9190610e29565b60405180910390f35b6100f160048036038101906100ec9190610d22565b6102c2565b6040516100fe9190610e0e565b60405180910390f35b61010f6103b4565b60405161011c9190610e8b565b60405180910390f35b61013f600480360381019061013a9190610ccf565b6103be565b60405161014c9190610e0e565b60405180910390f35b61015d610723565b60405161016a9190610ea6565b60405180910390f35b61018d60048036038101906101889190610d22565b610728565b005b6101a960048036038101906101a49190610c62565b6108b1565b6040516101b69190610e8b565b60405180910390f35b6101c76108fa565b6040516101d49190610e29565b60405180910390f35b6101f760048036038101906101f29190610d22565b610933565b005b610213600480360381019061020e9190610d22565b610b3e565b6040516102209190610e0e565b60405180910390f35b610243600480360381019061023e9190610c62565b610b53565b6040516102509190610e8b565b60405180910390f35b610273600480360381019061026e9190610c8f565b610b6b565b6040516102809190610e8b565b60405180910390f35b6040518060400160405280600881526020017f536f6d65436f696e00000000000000000000000000000000000000000000000081525081565b600081600360003373ffffffffffffffffffffffffffffffffffffffff1673ffffffffffffffffffffffffffffffffffffffff16815260200190815260200160002060008573ffffffffffffffffffffffffffffffffffffffff1673ffffffffffffffffffffffffffffffffffffffff168152602001908152602001600020819055508273ffffffffffffffffffffffffffffffffffffffff163373ffffffffffffffffffffffffffffffffffffffff167f8c5be1e5ebec7d5bd14f71427d1e84f3dd0314c0f7b2291e5b200ac8c7c3b925846040516103a29190610e8b565b60405180910390a36001905092915050565b6000600154905090565b6000600260008573ffffffffffffffffffffffffffffffffffffffff1673ffffffffffffffffffffffffffffffffffffffff1681526020019081526020016000205482111561040c57600080fd5b600360008573ffffffffffffffffffffffffffffffffffffffff1673ffffffffffffffffffffffffffffffffffffffff16815260200190815260200160002060003373ffffffffffffffffffffffffffffffffffffffff1673ffffffffffffffffffffffffffffffffffffffff1681526020019081526020016000205482111561049557600080fd5b61051b600360008673ffffffffffffffffffffffffffffffffffffffff1673ffffffffffffffffffffffffffffffffffffffff16815260200190815260200160002060003373ffffffffffffffffffffffffffffffffffffffff1673ffffffffffffffffffffffffffffffffffffffff1681526020019081526020016000205483610bf2565b600360008673ffffffffffffffffffffffffffffffffffffffff1673ffffffffffffffffffffffffffffffffffffffff16815260200190815260200160002060003373ffffffffffffffffffffffffffffffffffffffff1673ffffffffffffffffffffffffffffffffffffffff168152602001908152602001600020819055506105e4600260008673ffffffffffffffffffffffffffffffffffffffff1673ffffffffffffffffffffffffffffffffffffffff1681526020019081526020016000205483610bf2565b600260008673ffffffffffffffffffffffffffffffffffffffff1673ffffffffffffffffffffffffffffffffffffffff16815260200190815260200160002081905550610670600260008573ffffffffffffffffffffffffffffffffffffffff1673ffffffffffffffffffffffffffffffffffffffff1681526020019081526020016000205483610c15565b600260008573ffffffffffffffffffffffffffffffffffffffff1673ffffffffffffffffffffffffffffffffffffffff168152602001908152602001600020819055508273ffffffffffffffffffffffffffffffffffffffff168473ffffffffffffffffffffffffffffffffffffffff167fddf252ad1be2c89b69c2b068fc378daa952ba7f163c4a11628f55a4df523b3ef846040516107109190610e8b565b60405180910390a3600190509392505050565b600081565b60016000803373ffffffffffffffffffffffffffffffffffffffff1673ffffffffffffffffffffffffffffffffffffffff16815260200190815260200160002054146107a9576040517f08c379a00000000000000000000000000000000000000000000000000000000081526004016107a090610e6b565b60405180910390fd5b6107f2600260008473ffffffffffffffffffffffffffffffffffffffff1673ffffffffffffffffffffffffffffffffffffffff1681526020019081526020016000205482610c15565b600260008473ffffffffffffffffffffffffffffffffffffffff1673ffffffffffffffffffffffffffffffffffffffff1681526020019081526020016000208190555061084160015482610c15565b6001819055508173ffffffffffffffffffffffffffffffffffffffff16600073ffffffffffffffffffffffffffffffffffffffff167fddf252ad1be2c89b69c2b068fc378daa952ba7f163c4a11628f55a4df523b3ef836040516108a59190610e8b565b60405180910390a35050565b6000600260008373ffffffffffffffffffffffffffffffffffffffff1673ffffffffffffffffffffffffffffffffffffffff168152602001908152602001600020549050919050565b6040518060400160405280600281526020017f534300000000000000000000000000000000000000000000000000000000000081525081565b60016000803373ffffffffffffffffffffffffffffffffffffffff1673ffffffffffffffffffffffffffffffffffffffff16815260200190815260200160002054146109b4576040517f08c379a00000000000000000000000000000000000000000000000000000000081526004016109ab90610e6b565b60405180910390fd5b80600260008473ffffffffffffffffffffffffffffffffffffffff1673ffffffffffffffffffffffffffffffffffffffff168152602001908152602001600020541015610a36576040517f08c379a0000000000000000000000000000000000000000000000000000000008152600401610a2d90610e4b565b60405180910390fd5b610a7f600260008473ffffffffffffffffffffffffffffffffffffffff1673ffffffffffffffffffffffffffffffffffffffff1681526020019081526020016000205482610bf2565b600260008473ffffffffffffffffffffffffffffffffffffffff1673ffffffffffffffffffffffffffffffffffffffff16815260200190815260200160002081905550610ace60015482610bf2565b600181905550600073ffffffffffffffffffffffffffffffffffffffff168273ffffffffffffffffffffffffffffffffffffffff167fddf252ad1be2c89b69c2b068fc378daa952ba7f163c4a11628f55a4df523b3ef83604051610b329190610e8b565b60405180910390a35050565b6000610b4b3384846103be565b905092915050565b60006020528060005260406000206000915090505481565b6000600360008473ffffffffffffffffffffffffffffffffffffffff1673ffffffffffffffffffffffffffffffffffffffff16815260200190815260200160002060008373ffffffffffffffffffffffffffffffffffffffff1673ffffffffffffffffffffffffffffffffffffffff16815260200190815260200160002054905092915050565b6000828284610c019190610f33565b9150811115610c0f57600080fd5b92915050565b6000828284610c249190610edd565b9150811015610c3257600080fd5b92915050565b600081359050610c4781611086565b92915050565b600081359050610c5c8161109d565b92915050565b600060208284031215610c7857610c7761101e565b5b6000610c8684828501610c38565b91505092915050565b60008060408385031215610ca657610ca561101e565b5b6000610cb485828601610c38565b9250506020610cc585828601610c38565b9150509250929050565b600080600060608486031215610ce857610ce761101e565b5b6000610cf686828701610c38565b9350506020610d0786828701610c38565b9250506040610d1886828701610c4d565b9150509250925092565b60008060408385031215610d3957610d3861101e565b5b6000610d4785828601610c38565b9250506020610d5885828601610c4d565b9150509250929050565b610d6b81610f79565b82525050565b6000610d7c82610ec1565b610d868185610ecc565b9350610d96818560208601610fbc565b610d9f81611023565b840191505092915050565b6000610db7601483610ecc565b9150610dc282611034565b602082019050919050565b6000610dda600e83610ecc565b9150610de58261105d565b602082019050919050565b610df981610fa5565b82525050565b610e0881610faf565b82525050565b6000602082019050610e236000830184610d62565b92915050565b60006020820190508181036000830152610e438184610d71565b905092915050565b60006020820190508181036000830152610e6481610daa565b9050919050565b60006020820190508181036000830152610e8481610dcd565b9050919050565b6000602082019050610ea06000830184610df0565b92915050565b6000602082019050610ebb6000830184610dff565b92915050565b600081519050919050565b600082825260208201905092915050565b6000610ee882610fa5565b9150610ef383610fa5565b9250827fffffffffffffffffffffffffffffffffffffffffffffffffffffffffffffffff03821115610f2857610f27610fef565b5b828201905092915050565b6000610f3e82610fa5565b9150610f4983610fa5565b925082821015610f5c57610f5b610fef565b5b828203905092915050565b6000610f7282610f85565b9050919050565b60008115159050919050565b600073ffffffffffffffffffffffffffffffffffffffff82169050919050565b6000819050919050565b600060ff82169050919050565b60005b83811015610fda578082015181840152602081019050610fbf565b83811115610fe9576000848401525b50505050565b7f4e487b7100000000000000000000000000000000000000000000000000000000600052601160045260246000fd5b600080fd5b6000601f19601f8301169050919050565b7f696e73756666696369656e742d62616c616e6365000000000000000000000000600082015250565b7f4e6f742d617574686f72697a6564000000000000000000000000000000000000600082015250565b61108f81610f67565b811461109a57600080fd5b50565b6110a681610fa5565b81146110b157600080fd5b5056fea2646970667358221220807f5d6d5799b563c60381026384e452688421087da5c1ecbc67b336f3074c4a64736f6c63430008070033",
					"opcodes": "PUSH1 0x80 PUSH1 0x40 MSTORE CALLVALUE DUP1 ISZERO PUSH2 0x10 JUMPI PUSH1 0x0 DUP1 REVERT JUMPDEST POP PUSH1 0x1 PUSH1 0x0 DUP1 CALLER PUSH20 0xFFFFFFFFFFFFFFFFFFFFFFFFFFFFFFFFFFFFFFFF AND PUSH20 0xFFFFFFFFFFFFFFFFFFFFFFFFFFFFFFFFFFFFFFFF AND DUP2 MSTORE PUSH1 0x20 ADD SWAP1 DUP2 MSTORE PUSH1 0x20 ADD PUSH1 0x0 KECCAK256 DUP2 SWAP1 SSTORE POP PUSH1 0x0 PUSH1 0x1 DUP2 SWAP1 SSTORE POP PUSH2 0x10EA DUP1 PUSH2 0x6C PUSH1 0x0 CODECOPY PUSH1 0x0 RETURN INVALID PUSH1 0x80 PUSH1 0x40 MSTORE CALLVALUE DUP1 ISZERO PUSH2 0x10 JUMPI PUSH1 0x0 DUP1 REVERT JUMPDEST POP PUSH1 0x4 CALLDATASIZE LT PUSH2 0xB4 JUMPI PUSH1 0x0 CALLDATALOAD PUSH1 0xE0 SHR DUP1 PUSH4 0x70A08231 GT PUSH2 0x71 JUMPI DUP1 PUSH4 0x70A08231 EQ PUSH2 0x18F JUMPI DUP1 PUSH4 0x95D89B41 EQ PUSH2 0x1BF JUMPI DUP1 PUSH4 0x9DC29FAC EQ PUSH2 0x1DD JUMPI DUP1 PUSH4 0xA9059CBB EQ PUSH2 0x1F9 JUMPI DUP1 PUSH4 0xBF353DBB EQ PUSH2 0x229 JUMPI DUP1 PUSH4 0xDD62ED3E EQ PUSH2 0x259 JUMPI PUSH2 0xB4 JUMP JUMPDEST DUP1 PUSH4 0x6FDDE03 EQ PUSH2 0xB9 JUMPI DUP1 PUSH4 0x95EA7B3 EQ PUSH2 0xD7 JUMPI DUP1 PUSH4 0x18160DDD EQ PUSH2 0x107 JUMPI DUP1 PUSH4 0x23B872DD EQ PUSH2 0x125 JUMPI DUP1 PUSH4 0x313CE567 EQ PUSH2 0x155 JUMPI DUP1 PUSH4 0x40C10F19 EQ PUSH2 0x173 JUMPI JUMPDEST PUSH1 0x0 DUP1 REVERT JUMPDEST PUSH2 0xC1 PUSH2 0x289 JUMP JUMPDEST PUSH1 0x40 MLOAD PUSH2 0xCE SWAP2 SWAP1 PUSH2 0xE29 JUMP JUMPDEST PUSH1 0x40 MLOAD DUP1 SWAP2 SUB SWAP1 RETURN JUMPDEST PUSH2 0xF1 PUSH1 0x4 DUP1 CALLDATASIZE SUB DUP2 ADD SWAP1 PUSH2 0xEC SWAP2 SWAP1 PUSH2 0xD22 JUMP JUMPDEST PUSH2 0x2C2 JUMP JUMPDEST PUSH1 0x40 MLOAD PUSH2 0xFE SWAP2 SWAP1 PUSH2 0xE0E JUMP JUMPDEST PUSH1 0x40 MLOAD DUP1 SWAP2 SUB SWAP1 RETURN JUMPDEST PUSH2 0x10F PUSH2 0x3B4 JUMP JUMPDEST PUSH1 0x40 MLOAD PUSH2 0x11C SWAP2 SWAP1 PUSH2 0xE8B JUMP JUMPDEST PUSH1 0x40 MLOAD DUP1 SWAP2 SUB SWAP1 RETURN JUMPDEST PUSH2 0x13F PUSH1 0x4 DUP1 CALLDATASIZE SUB DUP2 ADD SWAP1 PUSH2 0x13A SWAP2 SWAP1 PUSH2 0xCCF JUMP JUMPDEST PUSH2 0x3BE JUMP JUMPDEST PUSH1 0x40 MLOAD PUSH2 0x14C SWAP2 SWAP1 PUSH2 0xE0E JUMP JUMPDEST PUSH1 0x40 MLOAD DUP1 SWAP2 SUB SWAP1 RETURN JUMPDEST PUSH2 0x15D PUSH2 0x723 JUMP JUMPDEST PUSH1 0x40 MLOAD PUSH2 0x16A SWAP2 SWAP1 PUSH2 0xEA6 JUMP JUMPDEST PUSH1 0x40 MLOAD DUP1 SWAP2 SUB SWAP1 RETURN JUMPDEST PUSH2 0x18D PUSH1 0x4 DUP1 CALLDATASIZE SUB DUP2 ADD SWAP1 PUSH2 0x188 SWAP2 SWAP1 PUSH2 0xD22 JUMP JUMPDEST PUSH2 0x728 JUMP JUMPDEST STOP JUMPDEST PUSH2 0x1A9 PUSH1 0x4 DUP1 CALLDATASIZE SUB DUP2 ADD SWAP1 PUSH2 0x1A4 SWAP2 SWAP1 PUSH2 0xC62 JUMP JUMPDEST PUSH2 0x8B1 JUMP JUMPDEST PUSH1 0x40 MLOAD PUSH2 0x1B6 SWAP2 SWAP1 PUSH2 0xE8B JUMP JUMPDEST PUSH1 0x40 MLOAD DUP1 SWAP2 SUB SWAP1 RETURN JUMPDEST PUSH2 0x1C7 PUSH2 0x8FA JUMP JUMPDEST PUSH1 0x40 MLOAD PUSH2 0x1D4 SWAP2 SWAP1 PUSH2 0xE29 JUMP JUMPDEST PUSH1 0x40 MLOAD DUP1 SWAP2 SUB SWAP1 RETURN JUMPDEST PUSH2 0x1F7 PUSH1 0x4 DUP1 CALLDATASIZE SUB DUP2 ADD SWAP1 PUSH2 0x1F2 SWAP2 SWAP1 PUSH2 0xD22 JUMP JUMPDEST PUSH2 0x933 JUMP JUMPDEST STOP JUMPDEST PUSH2 0x213 PUSH1 0x4 DUP1 CALLDATASIZE SUB DUP2 ADD SWAP1 PUSH2 0x20E SWAP2 SWAP1 PUSH2 0xD22 JUMP JUMPDEST PUSH2 0xB3E JUMP JUMPDEST PUSH1 0x40 MLOAD PUSH2 0x220 SWAP2 SWAP1 PUSH2 0xE0E JUMP JUMPDEST PUSH1 0x40 MLOAD DUP1 SWAP2 SUB SWAP1 RETURN JUMPDEST PUSH2 0x243 PUSH1 0x4 DUP1 CALLDATASIZE SUB DUP2 ADD SWAP1 PUSH2 0x23E SWAP2 SWAP1 PUSH2 0xC62 JUMP JUMPDEST PUSH2 0xB53 JUMP JUMPDEST PUSH1 0x40 MLOAD PUSH2 0x250 SWAP2 SWAP1 PUSH2 0xE8B JUMP JUMPDEST PUSH1 0x40 MLOAD DUP1 SWAP2 SUB SWAP1 RETURN JUMPDEST PUSH2 0x273 PUSH1 0x4 DUP1 CALLDATASIZE SUB DUP2 ADD SWAP1 PUSH2 0x26E SWAP2 SWAP1 PUSH2 0xC8F JUMP JUMPDEST PUSH2 0xB6B JUMP JUMPDEST PUSH1 0x40 MLOAD PUSH2 0x280 SWAP2 SWAP1 PUSH2 0xE8B JUMP JUMPDEST PUSH1 0x40 MLOAD DUP1 SWAP2 SUB SWAP1 RETURN JUMPDEST PUSH1 0x40 MLOAD DUP1 PUSH1 0x40 ADD PUSH1 0x40 MSTORE DUP1 PUSH1 0x8 DUP2 MSTORE PUSH1 0x20 ADD PUSH32 0x536F6D65436F696E000000000000000000000000000000000000000000000000 DUP2 MSTORE POP DUP2 JUMP JUMPDEST PUSH1 0x0 DUP2 PUSH1 0x3 PUSH1 0x0 CALLER PUSH20 0xFFFFFFFFFFFFFFFFFFFFFFFFFFFFFFFFFFFFFFFF AND PUSH20 0xFFFFFFFFFFFFFFFFFFFFFFFFFFFFFFFFFFFFFFFF AND DUP2 MSTORE PUSH1 0x20 ADD SWAP1 DUP2 MSTORE PUSH1 0x20 ADD PUSH1 0x0 KECCAK256 PUSH1 0x0 DUP6 PUSH20 0xFFFFFFFFFFFFFFFFFFFFFFFFFFFFFFFFFFFFFFFF AND PUSH20 0xFFFFFFFFFFFFFFFFFFFFFFFFFFFFFFFFFFFFFFFF AND DUP2 MSTORE PUSH1 0x20 ADD SWAP1 DUP2 MSTORE PUSH1 0x20 ADD PUSH1 0x0 KECCAK256 DUP2 SWAP1 SSTORE POP DUP3 PUSH20 0xFFFFFFFFFFFFFFFFFFFFFFFFFFFFFFFFFFFFFFFF AND CALLER PUSH20 0xFFFFFFFFFFFFFFFFFFFFFFFFFFFFFFFFFFFFFFFF AND PUSH32 0x8C5BE1E5EBEC7D5BD14F71427D1E84F3DD0314C0F7B2291E5B200AC8C7C3B925 DUP5 PUSH1 0x40 MLOAD PUSH2 0x3A2 SWAP2 SWAP1 PUSH2 0xE8B JUMP JUMPDEST PUSH1 0x40 MLOAD DUP1 SWAP2 SUB SWAP1 LOG3 PUSH1 0x1 SWAP1 POP SWAP3 SWAP2 POP POP JUMP JUMPDEST PUSH1 0x0 PUSH1 0x1 SLOAD SWAP1 POP SWAP1 JUMP JUMPDEST PUSH1 0x0 PUSH1 0x2 PUSH1 0x0 DUP6 PUSH20 0xFFFFFFFFFFFFFFFFFFFFFFFFFFFFFFFFFFFFFFFF AND PUSH20 0xFFFFFFFFFFFFFFFFFFFFFFFFFFFFFFFFFFFFFFFF AND DUP2 MSTORE PUSH1 0x20 ADD SWAP1 DUP2 MSTORE PUSH1 0x20 ADD PUSH1 0x0 KECCAK256 SLOAD DUP3 GT ISZERO PUSH2 0x40C JUMPI PUSH1 0x0 DUP1 REVERT JUMPDEST PUSH1 0x3 PUSH1 0x0 DUP6 PUSH20 0xFFFFFFFFFFFFFFFFFFFFFFFFFFFFFFFFFFFFFFFF AND PUSH20 0xFFFFFFFFFFFFFFFFFFFFFFFFFFFFFFFFFFFFFFFF AND DUP2 MSTORE PUSH1 0x20 ADD SWAP1 DUP2 MSTORE PUSH1 0x20 ADD PUSH1 0x0 KECCAK256 PUSH1 0x0 CALLER PUSH20 0xFFFFFFFFFFFFFFFFFFFFFFFFFFFFFFFFFFFFFFFF AND PUSH20 0xFFFFFFFFFFFFFFFFFFFFFFFFFFFFFFFFFFFFFFFF AND DUP2 MSTORE PUSH1 0x20 ADD SWAP1 DUP2 MSTORE PUSH1 0x20 ADD PUSH1 0x0 KECCAK256 SLOAD DUP3 GT ISZERO PUSH2 0x495 JUMPI PUSH1 0x0 DUP1 REVERT JUMPDEST PUSH2 0x51B PUSH1 0x3 PUSH1 0x0 DUP7 PUSH20 0xFFFFFFFFFFFFFFFFFFFFFFFFFFFFFFFFFFFFFFFF AND PUSH20 0xFFFFFFFFFFFFFFFFFFFFFFFFFFFFFFFFFFFFFFFF AND DUP2 MSTORE PUSH1 0x20 ADD SWAP1 DUP2 MSTORE PUSH1 0x20 ADD PUSH1 0x0 KECCAK256 PUSH1 0x0 CALLER PUSH20 0xFFFFFFFFFFFFFFFFFFFFFFFFFFFFFFFFFFFFFFFF AND PUSH20 0xFFFFFFFFFFFFFFFFFFFFFFFFFFFFFFFFFFFFFFFF AND DUP2 MSTORE PUSH1 0x20 ADD SWAP1 DUP2 MSTORE PUSH1 0x20 ADD PUSH1 0x0 KECCAK256 SLOAD DUP4 PUSH2 0xBF2 JUMP JUMPDEST PUSH1 0x3 PUSH1 0x0 DUP7 PUSH20 0xFFFFFFFFFFFFFFFFFFFFFFFFFFFFFFFFFFFFFFFF AND PUSH20 0xFFFFFFFFFFFFFFFFFFFFFFFFFFFFFFFFFFFFFFFF AND DUP2 MSTORE PUSH1 0x20 ADD SWAP1 DUP2 MSTORE PUSH1 0x20 ADD PUSH1 0x0 KECCAK256 PUSH1 0x0 CALLER PUSH20 0xFFFFFFFFFFFFFFFFFFFFFFFFFFFFFFFFFFFFFFFF AND PUSH20 0xFFFFFFFFFFFFFFFFFFFFFFFFFFFFFFFFFFFFFFFF AND DUP2 MSTORE PUSH1 0x20 ADD SWAP1 DUP2 MSTORE PUSH1 0x20 ADD PUSH1 0x0 KECCAK256 DUP2 SWAP1 SSTORE POP PUSH2 0x5E4 PUSH1 0x2 PUSH1 0x0 DUP7 PUSH20 0xFFFFFFFFFFFFFFFFFFFFFFFFFFFFFFFFFFFFFFFF AND PUSH20 0xFFFFFFFFFFFFFFFFFFFFFFFFFFFFFFFFFFFFFFFF AND DUP2 MSTORE PUSH1 0x20 ADD SWAP1 DUP2 MSTORE PUSH1 0x20 ADD PUSH1 0x0 KECCAK256 SLOAD DUP4 PUSH2 0xBF2 JUMP JUMPDEST PUSH1 0x2 PUSH1 0x0 DUP7 PUSH20 0xFFFFFFFFFFFFFFFFFFFFFFFFFFFFFFFFFFFFFFFF AND PUSH20 0xFFFFFFFFFFFFFFFFFFFFFFFFFFFFFFFFFFFFFFFF AND DUP2 MSTORE PUSH1 0x20 ADD SWAP1 DUP2 MSTORE PUSH1 0x20 ADD PUSH1 0x0 KECCAK256 DUP2 SWAP1 SSTORE POP PUSH2 0x670 PUSH1 0x2 PUSH1 0x0 DUP6 PUSH20 0xFFFFFFFFFFFFFFFFFFFFFFFFFFFFFFFFFFFFFFFF AND PUSH20 0xFFFFFFFFFFFFFFFFFFFFFFFFFFFFFFFFFFFFFFFF AND DUP2 MSTORE PUSH1 0x20 ADD SWAP1 DUP2 MSTORE PUSH1 0x20 ADD PUSH1 0x0 KECCAK256 SLOAD DUP4 PUSH2 0xC15 JUMP JUMPDEST PUSH1 0x2 PUSH1 0x0 DUP6 PUSH20 0xFFFFFFFFFFFFFFFFFFFFFFFFFFFFFFFFFFFFFFFF AND PUSH20 0xFFFFFFFFFFFFFFFFFFFFFFFFFFFFFFFFFFFFFFFF AND DUP2 MSTORE PUSH1 0x20 ADD SWAP1 DUP2 MSTORE PUSH1 0x20 ADD PUSH1 0x0 KECCAK256 DUP2 SWAP1 SSTORE POP DUP3 PUSH20 0xFFFFFFFFFFFFFFFFFFFFFFFFFFFFFFFFFFFFFFFF AND DUP5 PUSH20 0xFFFFFFFFFFFFFFFFFFFFFFFFFFFFFFFFFFFFFFFF AND PUSH32 0xDDF252AD1BE2C89B69C2B068FC378DAA952BA7F163C4A11628F55A4DF523B3EF DUP5 PUSH1 0x40 MLOAD PUSH2 0x710 SWAP2 SWAP1 PUSH2 0xE8B JUMP JUMPDEST PUSH1 0x40 MLOAD DUP1 SWAP2 SUB SWAP1 LOG3 PUSH1 0x1 SWAP1 POP SWAP4 SWAP3 POP POP POP JUMP JUMPDEST PUSH1 0x0 DUP2 JUMP JUMPDEST PUSH1 0x1 PUSH1 0x0 DUP1 CALLER PUSH20 0xFFFFFFFFFFFFFFFFFFFFFFFFFFFFFFFFFFFFFFFF AND PUSH20 0xFFFFFFFFFFFFFFFFFFFFFFFFFFFFFFFFFFFFFFFF AND DUP2 MSTORE PUSH1 0x20 ADD SWAP1 DUP2 MSTORE PUSH1 0x20 ADD PUSH1 0x0 KECCAK256 SLOAD EQ PUSH2 0x7A9 JUMPI PUSH1 0x40 MLOAD PUSH32 0x8C379A000000000000000000000000000000000000000000000000000000000 DUP2 MSTORE PUSH1 0x4 ADD PUSH2 0x7A0 SWAP1 PUSH2 0xE6B JUMP JUMPDEST PUSH1 0x40 MLOAD DUP1 SWAP2 SUB SWAP1 REVERT JUMPDEST PUSH2 0x7F2 PUSH1 0x2 PUSH1 0x0 DUP5 PUSH20 0xFFFFFFFFFFFFFFFFFFFFFFFFFFFFFFFFFFFFFFFF AND PUSH20 0xFFFFFFFFFFFFFFFFFFFFFFFFFFFFFFFFFFFFFFFF AND DUP2 MSTORE PUSH1 0x20 ADD SWAP1 DUP2 MSTORE PUSH1 0x20 ADD PUSH1 0x0 KECCAK256 SLOAD DUP3 PUSH2 0xC15 JUMP JUMPDEST PUSH1 0x2 PUSH1 0x0 DUP5 PUSH20 0xFFFFFFFFFFFFFFFFFFFFFFFFFFFFFFFFFFFFFFFF AND PUSH20 0xFFFFFFFFFFFFFFFFFFFFFFFFFFFFFFFFFFFFFFFF AND DUP2 MSTORE PUSH1 0x20 ADD SWAP1 DUP2 MSTORE PUSH1 0x20 ADD PUSH1 0x0 KECCAK256 DUP2 SWAP1 SSTORE POP PUSH2 0x841 PUSH1 0x1 SLOAD DUP3 PUSH2 0xC15 JUMP JUMPDEST PUSH1 0x1 DUP2 SWAP1 SSTORE POP DUP2 PUSH20 0xFFFFFFFFFFFFFFFFFFFFFFFFFFFFFFFFFFFFFFFF AND PUSH1 0x0 PUSH20 0xFFFFFFFFFFFFFFFFFFFFFFFFFFFFFFFFFFFFFFFF AND PUSH32 0xDDF252AD1BE2C89B69C2B068FC378DAA952BA7F163C4A11628F55A4DF523B3EF DUP4 PUSH1 0x40 MLOAD PUSH2 0x8A5 SWAP2 SWAP1 PUSH2 0xE8B JUMP JUMPDEST PUSH1 0x40 MLOAD DUP1 SWAP2 SUB SWAP1 LOG3 POP POP JUMP JUMPDEST PUSH1 0x0 PUSH1 0x2 PUSH1 0x0 DUP4 PUSH20 0xFFFFFFFFFFFFFFFFFFFFFFFFFFFFFFFFFFFFFFFF AND PUSH20 0xFFFFFFFFFFFFFFFFFFFFFFFFFFFFFFFFFFFFFFFF AND DUP2 MSTORE PUSH1 0x20 ADD SWAP1 DUP2 MSTORE PUSH1 0x20 ADD PUSH1 0x0 KECCAK256 SLOAD SWAP1 POP SWAP2 SWAP1 POP JUMP JUMPDEST PUSH1 0x40 MLOAD DUP1 PUSH1 0x40 ADD PUSH1 0x40 MSTORE DUP1 PUSH1 0x2 DUP2 MSTORE PUSH1 0x20 ADD PUSH32 0x5343000000000000000000000000000000000000000000000000000000000000 DUP2 MSTORE POP DUP2 JUMP JUMPDEST PUSH1 0x1 PUSH1 0x0 DUP1 CALLER PUSH20 0xFFFFFFFFFFFFFFFFFFFFFFFFFFFFFFFFFFFFFFFF AND PUSH20 0xFFFFFFFFFFFFFFFFFFFFFFFFFFFFFFFFFFFFFFFF AND DUP2 MSTORE PUSH1 0x20 ADD SWAP1 DUP2 MSTORE PUSH1 0x20 ADD PUSH1 0x0 KECCAK256 SLOAD EQ PUSH2 0x9B4 JUMPI PUSH1 0x40 MLOAD PUSH32 0x8C379A000000000000000000000000000000000000000000000000000000000 DUP2 MSTORE PUSH1 0x4 ADD PUSH2 0x9AB SWAP1 PUSH2 0xE6B JUMP JUMPDEST PUSH1 0x40 MLOAD DUP1 SWAP2 SUB SWAP1 REVERT JUMPDEST DUP1 PUSH1 0x2 PUSH1 0x0 DUP5 PUSH20 0xFFFFFFFFFFFFFFFFFFFFFFFFFFFFFFFFFFFFFFFF AND PUSH20 0xFFFFFFFFFFFFFFFFFFFFFFFFFFFFFFFFFFFFFFFF AND DUP2 MSTORE PUSH1 0x20 ADD SWAP1 DUP2 MSTORE PUSH1 0x20 ADD PUSH1 0x0 KECCAK256 SLOAD LT ISZERO PUSH2 0xA36 JUMPI PUSH1 0x40 MLOAD PUSH32 0x8C379A000000000000000000000000000000000000000000000000000000000 DUP2 MSTORE PUSH1 0x4 ADD PUSH2 0xA2D SWAP1 PUSH2 0xE4B JUMP JUMPDEST PUSH1 0x40 MLOAD DUP1 SWAP2 SUB SWAP1 REVERT JUMPDEST PUSH2 0xA7F PUSH1 0x2 PUSH1 0x0 DUP5 PUSH20 0xFFFFFFFFFFFFFFFFFFFFFFFFFFFFFFFFFFFFFFFF AND PUSH20 0xFFFFFFFFFFFFFFFFFFFFFFFFFFFFFFFFFFFFFFFF AND DUP2 MSTORE PUSH1 0x20 ADD SWAP1 DUP2 MSTORE PUSH1 0x20 ADD PUSH1 0x0 KECCAK256 SLOAD DUP3 PUSH2 0xBF2 JUMP JUMPDEST PUSH1 0x2 PUSH1 0x0 DUP5 PUSH20 0xFFFFFFFFFFFFFFFFFFFFFFFFFFFFFFFFFFFFFFFF AND PUSH20 0xFFFFFFFFFFFFFFFFFFFFFFFFFFFFFFFFFFFFFFFF AND DUP2 MSTORE PUSH1 0x20 ADD SWAP1 DUP2 MSTORE PUSH1 0x20 ADD PUSH1 0x0 KECCAK256 DUP2 SWAP1 SSTORE POP PUSH2 0xACE PUSH1 0x1 SLOAD DUP3 PUSH2 0xBF2 JUMP JUMPDEST PUSH1 0x1 DUP2 SWAP1 SSTORE POP PUSH1 0x0 PUSH20 0xFFFFFFFFFFFFFFFFFFFFFFFFFFFFFFFFFFFFFFFF AND DUP3 PUSH20 0xFFFFFFFFFFFFFFFFFFFFFFFFFFFFFFFFFFFFFFFF AND PUSH32 0xDDF252AD1BE2C89B69C2B068FC378DAA952BA7F163C4A11628F55A4DF523B3EF DUP4 PUSH1 0x40 MLOAD PUSH2 0xB32 SWAP2 SWAP1 PUSH2 0xE8B JUMP JUMPDEST PUSH1 0x40 MLOAD DUP1 SWAP2 SUB SWAP1 LOG3 POP POP JUMP JUMPDEST PUSH1 0x0 PUSH2 0xB4B CALLER DUP5 DUP5 PUSH2 0x3BE JUMP JUMPDEST SWAP1 POP SWAP3 SWAP2 POP POP JUMP JUMPDEST PUSH1 0x0 PUSH1 0x20 MSTORE DUP1 PUSH1 0x0 MSTORE PUSH1 0x40 PUSH1 0x0 KECCAK256 PUSH1 0x0 SWAP2 POP SWAP1 POP SLOAD DUP2 JUMP JUMPDEST PUSH1 0x0 PUSH1 0x3 PUSH1 0x0 DUP5 PUSH20 0xFFFFFFFFFFFFFFFFFFFFFFFFFFFFFFFFFFFFFFFF AND PUSH20 0xFFFFFFFFFFFFFFFFFFFFFFFFFFFFFFFFFFFFFFFF AND DUP2 MSTORE PUSH1 0x20 ADD SWAP1 DUP2 MSTORE PUSH1 0x20 ADD PUSH1 0x0 KECCAK256 PUSH1 0x0 DUP4 PUSH20 0xFFFFFFFFFFFFFFFFFFFFFFFFFFFFFFFFFFFFFFFF AND PUSH20 0xFFFFFFFFFFFFFFFFFFFFFFFFFFFFFFFFFFFFFFFF AND DUP2 MSTORE PUSH1 0x20 ADD SWAP1 DUP2 MSTORE PUSH1 0x20 ADD PUSH1 0x0 KECCAK256 SLOAD SWAP1 POP SWAP3 SWAP2 POP POP JUMP JUMPDEST PUSH1 0x0 DUP3 DUP3 DUP5 PUSH2 0xC01 SWAP2 SWAP1 PUSH2 0xF33 JUMP JUMPDEST SWAP2 POP DUP2 GT ISZERO PUSH2 0xC0F JUMPI PUSH1 0x0 DUP1 REVERT JUMPDEST SWAP3 SWAP2 POP POP JUMP JUMPDEST PUSH1 0x0 DUP3 DUP3 DUP5 PUSH2 0xC24 SWAP2 SWAP1 PUSH2 0xEDD JUMP JUMPDEST SWAP2 POP DUP2 LT ISZERO PUSH2 0xC32 JUMPI PUSH1 0x0 DUP1 REVERT JUMPDEST SWAP3 SWAP2 POP POP JUMP JUMPDEST PUSH1 0x0 DUP2 CALLDATALOAD SWAP1 POP PUSH2 0xC47 DUP2 PUSH2 0x1086 JUMP JUMPDEST SWAP3 SWAP2 POP POP JUMP JUMPDEST PUSH1 0x0 DUP2 CALLDATALOAD SWAP1 POP PUSH2 0xC5C DUP2 PUSH2 0x109D JUMP JUMPDEST SWAP3 SWAP2 POP POP JUMP JUMPDEST PUSH1 0x0 PUSH1 0x20 DUP3 DUP5 SUB SLT ISZERO PUSH2 0xC78 JUMPI PUSH2 0xC77 PUSH2 0x101E JUMP JUMPDEST JUMPDEST PUSH1 0x0 PUSH2 0xC86 DUP5 DUP3 DUP6 ADD PUSH2 0xC38 JUMP JUMPDEST SWAP2 POP POP SWAP3 SWAP2 POP POP JUMP JUMPDEST PUSH1 0x0 DUP1 PUSH1 0x40 DUP4 DUP6 SUB SLT ISZERO PUSH2 0xCA6 JUMPI PUSH2 0xCA5 PUSH2 0x101E JUMP JUMPDEST JUMPDEST PUSH1 0x0 PUSH2 0xCB4 DUP6 DUP3 DUP7 ADD PUSH2 0xC38 JUMP JUMPDEST SWAP3 POP POP PUSH1 0x20 PUSH2 0xCC5 DUP6 DUP3 DUP7 ADD PUSH2 0xC38 JUMP JUMPDEST SWAP2 POP POP SWAP3 POP SWAP3 SWAP1 POP JUMP JUMPDEST PUSH1 0x0 DUP1 PUSH1 0x0 PUSH1 0x60 DUP5 DUP7 SUB SLT ISZERO PUSH2 0xCE8 JUMPI PUSH2 0xCE7 PUSH2 0x101E JUMP JUMPDEST JUMPDEST PUSH1 0x0 PUSH2 0xCF6 DUP7 DUP3 DUP8 ADD PUSH2 0xC38 JUMP JUMPDEST SWAP4 POP POP PUSH1 0x20 PUSH2 0xD07 DUP7 DUP3 DUP8 ADD PUSH2 0xC38 JUMP JUMPDEST SWAP3 POP POP PUSH1 0x40 PUSH2 0xD18 DUP7 DUP3 DUP8 ADD PUSH2 0xC4D JUMP JUMPDEST SWAP2 POP POP SWAP3 POP SWAP3 POP SWAP3 JUMP JUMPDEST PUSH1 0x0 DUP1 PUSH1 0x40 DUP4 DUP6 SUB SLT ISZERO PUSH2 0xD39 JUMPI PUSH2 0xD38 PUSH2 0x101E JUMP JUMPDEST JUMPDEST PUSH1 0x0 PUSH2 0xD47 DUP6 DUP3 DUP7 ADD PUSH2 0xC38 JUMP JUMPDEST SWAP3 POP POP PUSH1 0x20 PUSH2 0xD58 DUP6 DUP3 DUP7 ADD PUSH2 0xC4D JUMP JUMPDEST SWAP2 POP POP SWAP3 POP SWAP3 SWAP1 POP JUMP JUMPDEST PUSH2 0xD6B DUP2 PUSH2 0xF79 JUMP JUMPDEST DUP3 MSTORE POP POP JUMP JUMPDEST PUSH1 0x0 PUSH2 0xD7C DUP3 PUSH2 0xEC1 JUMP JUMPDEST PUSH2 0xD86 DUP2 DUP6 PUSH2 0xECC JUMP JUMPDEST SWAP4 POP PUSH2 0xD96 DUP2 DUP6 PUSH1 0x20 DUP7 ADD PUSH2 0xFBC JUMP JUMPDEST PUSH2 0xD9F DUP2 PUSH2 0x1023 JUMP JUMPDEST DUP5 ADD SWAP2 POP POP SWAP3 SWAP2 POP POP JUMP JUMPDEST PUSH1 0x0 PUSH2 0xDB7 PUSH1 0x14 DUP4 PUSH2 0xECC JUMP JUMPDEST SWAP2 POP PUSH2 0xDC2 DUP3 PUSH2 0x1034 JUMP JUMPDEST PUSH1 0x20 DUP3 ADD SWAP1 POP SWAP2 SWAP1 POP JUMP JUMPDEST PUSH1 0x0 PUSH2 0xDDA PUSH1 0xE DUP4 PUSH2 0xECC JUMP JUMPDEST SWAP2 POP PUSH2 0xDE5 DUP3 PUSH2 0x105D JUMP JUMPDEST PUSH1 0x20 DUP3 ADD SWAP1 POP SWAP2 SWAP1 POP JUMP JUMPDEST PUSH2 0xDF9 DUP2 PUSH2 0xFA5 JUMP JUMPDEST DUP3 MSTORE POP POP JUMP JUMPDEST PUSH2 0xE08 DUP2 PUSH2 0xFAF JUMP JUMPDEST DUP3 MSTORE POP POP JUMP JUMPDEST PUSH1 0x0 PUSH1 0x20 DUP3 ADD SWAP1 POP PUSH2 0xE23 PUSH1 0x0 DUP4 ADD DUP5 PUSH2 0xD62 JUMP JUMPDEST SWAP3 SWAP2 POP POP JUMP JUMPDEST PUSH1 0x0 PUSH1 0x20 DUP3 ADD SWAP1 POP DUP2 DUP2 SUB PUSH1 0x0 DUP4 ADD MSTORE PUSH2 0xE43 DUP2 DUP5 PUSH2 0xD71 JUMP JUMPDEST SWAP1 POP SWAP3 SWAP2 POP POP JUMP JUMPDEST PUSH1 0x0 PUSH1 0x20 DUP3 ADD SWAP1 POP DUP2 DUP2 SUB PUSH1 0x0 DUP4 ADD MSTORE PUSH2 0xE64 DUP2 PUSH2 0xDAA JUMP JUMPDEST SWAP1 POP SWAP2 SWAP1 POP JUMP JUMPDEST PUSH1 0x0 PUSH1 0x20 DUP3 ADD SWAP1 POP DUP2 DUP2 SUB PUSH1 0x0 DUP4 ADD MSTORE PUSH2 0xE84 DUP2 PUSH2 0xDCD JUMP JUMPDEST SWAP1 POP SWAP2 SWAP1 POP JUMP JUMPDEST PUSH1 0x0 PUSH1 0x20 DUP3 ADD SWAP1 POP PUSH2 0xEA0 PUSH1 0x0 DUP4 ADD DUP5 PUSH2 0xDF0 JUMP JUMPDEST SWAP3 SWAP2 POP POP JUMP JUMPDEST PUSH1 0x0 PUSH1 0x20 DUP3 ADD SWAP1 POP PUSH2 0xEBB PUSH1 0x0 DUP4 ADD DUP5 PUSH2 0xDFF JUMP JUMPDEST SWAP3 SWAP2 POP POP JUMP JUMPDEST PUSH1 0x0 DUP2 MLOAD SWAP1 POP SWAP2 SWAP1 POP JUMP JUMPDEST PUSH1 0x0 DUP3 DUP3 MSTORE PUSH1 0x20 DUP3 ADD SWAP1 POP SWAP3 SWAP2 POP POP JUMP JUMPDEST PUSH1 0x0 PUSH2 0xEE8 DUP3 PUSH2 0xFA5 JUMP JUMPDEST SWAP2 POP PUSH2 0xEF3 DUP4 PUSH2 0xFA5 JUMP JUMPDEST SWAP3 POP DUP3 PUSH32 0xFFFFFFFFFFFFFFFFFFFFFFFFFFFFFFFFFFFFFFFFFFFFFFFFFFFFFFFFFFFFFFFF SUB DUP3 GT ISZERO PUSH2 0xF28 JUMPI PUSH2 0xF27 PUSH2 0xFEF JUMP JUMPDEST JUMPDEST DUP3 DUP3 ADD SWAP1 POP SWAP3 SWAP2 POP POP JUMP JUMPDEST PUSH1 0x0 PUSH2 0xF3E DUP3 PUSH2 0xFA5 JUMP JUMPDEST SWAP2 POP PUSH2 0xF49 DUP4 PUSH2 0xFA5 JUMP JUMPDEST SWAP3 POP DUP3 DUP3 LT ISZERO PUSH2 0xF5C JUMPI PUSH2 0xF5B PUSH2 0xFEF JUMP JUMPDEST JUMPDEST DUP3 DUP3 SUB SWAP1 POP SWAP3 SWAP2 POP POP JUMP JUMPDEST PUSH1 0x0 PUSH2 0xF72 DUP3 PUSH2 0xF85 JUMP JUMPDEST SWAP1 POP SWAP2 SWAP1 POP JUMP JUMPDEST PUSH1 0x0 DUP2 ISZERO ISZERO SWAP1 POP SWAP2 SWAP1 POP JUMP JUMPDEST PUSH1 0x0 PUSH20 0xFFFFFFFFFFFFFFFFFFFFFFFFFFFFFFFFFFFFFFFF DUP3 AND SWAP1 POP SWAP2 SWAP1 POP JUMP JUMPDEST PUSH1 0x0 DUP2 SWAP1 POP SWAP2 SWAP1 POP JUMP JUMPDEST PUSH1 0x0 PUSH1 0xFF DUP3 AND SWAP1 POP SWAP2 SWAP1 POP JUMP JUMPDEST PUSH1 0x0 JUMPDEST DUP4 DUP2 LT ISZERO PUSH2 0xFDA JUMPI DUP1 DUP3 ADD MLOAD DUP2 DUP5 ADD MSTORE PUSH1 0x20 DUP2 ADD SWAP1 POP PUSH2 0xFBF JUMP JUMPDEST DUP4 DUP2 GT ISZERO PUSH2 0xFE9 JUMPI PUSH1 0x0 DUP5 DUP5 ADD MSTORE JUMPDEST POP POP POP POP JUMP JUMPDEST PUSH32 0x4E487B7100000000000000000000000000000000000000000000000000000000 PUSH1 0x0 MSTORE PUSH1 0x11 PUSH1 0x4 MSTORE PUSH1 0x24 PUSH1 0x0 REVERT JUMPDEST PUSH1 0x0 DUP1 REVERT JUMPDEST PUSH1 0x0 PUSH1 0x1F NOT PUSH1 0x1F DUP4 ADD AND SWAP1 POP SWAP2 SWAP1 POP JUMP JUMPDEST PUSH32 0x696E73756666696369656E742D62616C616E6365000000000000000000000000 PUSH1 0x0 DUP3 ADD MSTORE POP JUMP JUMPDEST PUSH32 0x4E6F742D617574686F72697A6564000000000000000000000000000000000000 PUSH1 0x0 DUP3 ADD MSTORE POP JUMP JUMPDEST PUSH2 0x108F DUP2 PUSH2 0xF67 JUMP JUMPDEST DUP2 EQ PUSH2 0x109A JUMPI PUSH1 0x0 DUP1 REVERT JUMPDEST POP JUMP JUMPDEST PUSH2 0x10A6 DUP2 PUSH2 0xFA5 JUMP JUMPDEST DUP2 EQ PUSH2 0x10B1 JUMPI PUSH1 0x0 DUP1 REVERT JUMPDEST POP JUMP INVALID LOG2 PUSH5 0x6970667358 0x22 SLT KECCAK256 DUP1 PUSH32 0x5D6D5799B563C60381026384E452688421087DA5C1ECBC67B336F3074C4A6473 PUSH16 0x6C634300080700330000000000000000 "
				},
				"gasEstimates": {
					"creation": {
						"codeDepositCost": "866000",
						"executionCost": "28120",
						"totalCost": "894120"
					},
					"external": {
						"allowance(address,address)": "infinite",
						"approve(address,uint256)": "infinite",
						"balanceOf(address)": "2841",
						"burn(address,uint256)": "infinite",
						"decimals()": "424",
						"mint(address,uint256)": "infinite",
						"name()": "infinite",
						"symbol()": "infinite",
						"totalSupply()": "2482",
						"transfer(address,uint256)": "infinite",
						"transferFrom(address,address,uint256)": "infinite",
						"wards(address)": "2902"
					},
					"internal": {
						"add(uint256,uint256)": "infinite",
						"sub(uint256,uint256)": "infinite"
					}
				},
				"methodIdentifiers": {
					"allowance(address,address)": "dd62ed3e",
					"approve(address,uint256)": "095ea7b3",
					"balanceOf(address)": "70a08231",
					"burn(address,uint256)": "9dc29fac",
					"decimals()": "313ce567",
					"mint(address,uint256)": "40c10f19",
					"name()": "06fdde03",
					"symbol()": "95d89b41",
					"totalSupply()": "18160ddd",
					"transfer(address,uint256)": "a9059cbb",
					"transferFrom(address,address,uint256)": "23b872dd",
					"wards(address)": "bf353dbb"
				}
			},
			"storageLayout": {
				"storage": [
					{
						"astId": 5,
						"contract": "contracts/Coin_contract.sol:StableCoin",
						"label": "wards",
						"offset": 0,
						"slot": "0",
						"type": "t_mapping(t_address,t_uint256)"
					},
					{
						"astId": 46,
						"contract": "contracts/Coin_contract.sol:StableCoin",
						"label": "totalSupply_",
						"offset": 0,
						"slot": "1",
						"type": "t_uint256"
					},
					{
						"astId": 50,
						"contract": "contracts/Coin_contract.sol:StableCoin",
						"label": "balances",
						"offset": 0,
						"slot": "2",
						"type": "t_mapping(t_address,t_uint256)"
					},
					{
						"astId": 56,
						"contract": "contracts/Coin_contract.sol:StableCoin",
						"label": "allowed",
						"offset": 0,
						"slot": "3",
						"type": "t_mapping(t_address,t_mapping(t_address,t_uint256))"
					}
				],
				"types": {
					"t_address": {
						"encoding": "inplace",
						"label": "address",
						"numberOfBytes": "20"
					},
					"t_mapping(t_address,t_mapping(t_address,t_uint256))": {
						"encoding": "mapping",
						"key": "t_address",
						"label": "mapping(address => mapping(address => uint256))",
						"numberOfBytes": "32",
						"value": "t_mapping(t_address,t_uint256)"
					},
					"t_mapping(t_address,t_uint256)": {
						"encoding": "mapping",
						"key": "t_address",
						"label": "mapping(address => uint256)",
						"numberOfBytes": "32",
						"value": "t_uint256"
					},
					"t_uint256": {
						"encoding": "inplace",
						"label": "uint256",
						"numberOfBytes": "32"
					}
				}
			},
			"userdoc": {
				"kind": "user",
				"methods": {},
				"version": 1
			}
		}
	}
}