{
	"contracts/Coin_contract.sol": {
		"Organization": {
			"abi": [
				{
					"inputs": [],
					"stateMutability": "nonpayable",
					"type": "constructor"
				},
				{
					"inputs": [
						{
							"internalType": "uint256",
							"name": "ETH_amount",
							"type": "uint256"
						}
					],
					"name": "buyStablecoinForETH",
					"outputs": [],
					"stateMutability": "payable",
					"type": "function"
				},
				{
					"inputs": [
						{
							"internalType": "uint256",
							"name": "amount",
							"type": "uint256"
						}
					],
					"name": "depositETH",
					"outputs": [],
					"stateMutability": "payable",
					"type": "function"
				},
				{
					"inputs": [],
					"name": "getEthPriceCZK",
					"outputs": [
						{
							"internalType": "uint256",
							"name": "",
							"type": "uint256"
						}
					],
					"stateMutability": "view",
					"type": "function"
				},
				{
					"inputs": [],
					"name": "getVaultBalance",
					"outputs": [
						{
							"internalType": "uint256",
							"name": "",
							"type": "uint256"
						}
					],
					"stateMutability": "view",
					"type": "function"
				},
				{
					"inputs": [
						{
							"internalType": "uint256",
							"name": "stable_tokens",
							"type": "uint256"
						}
					],
					"name": "sellStablecoinForETH",
					"outputs": [],
					"stateMutability": "nonpayable",
					"type": "function"
				},
				{
					"inputs": [
						{
							"internalType": "address",
							"name": "",
							"type": "address"
						}
					],
					"name": "wards",
					"outputs": [
						{
							"internalType": "uint256",
							"name": "",
							"type": "uint256"
						}
					],
					"stateMutability": "view",
					"type": "function"
				},
				{
					"inputs": [],
					"name": "withdrawETH",
					"outputs": [],
					"stateMutability": "nonpayable",
					"type": "function"
				}
			],
			"devdoc": {
				"kind": "dev",
				"methods": {},
				"version": 1
			},
			"evm": {
				"assembly": "    /* \"contracts/Coin_contract.sol\":2936:5544  contract Organization \r... */\n  mstore(0x40, 0x80)\n    /* \"contracts/Coin_contract.sol\":3246:3248  22 */\n  0x16\n    /* \"contracts/Coin_contract.sol\":3230:3248  uint USDinCZK = 22 */\n  0x03\n  sstore\n    /* \"contracts/Coin_contract.sol\":3291:3619  constructor() \r... */\n  callvalue\n  dup1\n  iszero\n  tag_1\n  jumpi\n  0x00\n  dup1\n  revert\ntag_1:\n  pop\n    /* \"contracts/Coin_contract.sol\":3342:3343  1 */\n  0x01\n    /* \"contracts/Coin_contract.sol\":3322:3327  wards */\n  0x00\n    /* \"contracts/Coin_contract.sol\":3322:3339  wards[msg.sender] */\n  dup1\n    /* \"contracts/Coin_contract.sol\":3328:3338  msg.sender */\n  caller\n    /* \"contracts/Coin_contract.sol\":3322:3339  wards[msg.sender] */\n  0xffffffffffffffffffffffffffffffffffffffff\n  and\n  0xffffffffffffffffffffffffffffffffffffffff\n  and\n  dup2\n  mstore\n  0x20\n  add\n  swap1\n  dup2\n  mstore\n  0x20\n  add\n  0x00\n  keccak256\n    /* \"contracts/Coin_contract.sol\":3322:3343  wards[msg.sender] = 1 */\n  dup2\n  swap1\n  sstore\n  pop\n    /* \"contracts/Coin_contract.sol\":3369:3385  new StableCoin() */\n  mload(0x40)\n  tag_4\n  swap1\n  tag_5\n  jump\t// in\ntag_4:\n  mload(0x40)\n  dup1\n  swap2\n  sub\n  swap1\n  0x00\n  create\n  dup1\n  iszero\n  dup1\n  iszero\n  tag_6\n  jumpi\n  returndatasize\n  0x00\n  dup1\n  returndatacopy\n  revert(0x00, returndatasize)\ntag_6:\n  pop\n    /* \"contracts/Coin_contract.sol\":3354:3366  coinContract */\n  0x01\n  0x00\n    /* \"contracts/Coin_contract.sol\":3354:3385  coinContract = new StableCoin() */\n  0x0100\n  exp\n  dup2\n  sload\n  dup2\n  0xffffffffffffffffffffffffffffffffffffffff\n  mul\n  not\n  and\n  swap1\n  dup4\n  0xffffffffffffffffffffffffffffffffffffffff\n  and\n  mul\n  or\n  swap1\n  sstore\n  pop\n    /* \"contracts/Coin_contract.sol\":3568:3610  0x13e3Ee699D1909E989722E753853AE30b17e08c5 */\n  0x13e3ee699d1909e989722e753853ae30b17e08c5\n    /* \"contracts/Coin_contract.sol\":3534:3543  priceFeed */\n  0x02\n  0x00\n    /* \"contracts/Coin_contract.sol\":3534:3611  priceFeed = AggregatorV3Interface(0x13e3Ee699D1909E989722E753853AE30b17e08c5) */\n  0x0100\n  exp\n  dup2\n  sload\n  dup2\n  0xffffffffffffffffffffffffffffffffffffffff\n  mul\n  not\n  and\n  swap1\n  dup4\n  0xffffffffffffffffffffffffffffffffffffffff\n  and\n  mul\n  or\n  swap1\n  sstore\n  pop\n    /* \"contracts/Coin_contract.sol\":2936:5544  contract Organization \r... */\n  jump(tag_7)\ntag_5:\n  dataSize(sub_1)\n  dup1\n  dataOffset(sub_1)\n  dup4\n  codecopy\n  add\n  swap1\n  jump\t// out\ntag_7:\n  dataSize(sub_0)\n  dup1\n  dataOffset(sub_0)\n  0x00\n  codecopy\n  0x00\n  return\nstop\n\nsub_0: assembly {\n        /* \"contracts/Coin_contract.sol\":2936:5544  contract Organization \r... */\n      mstore(0x40, 0x80)\n      jumpi(tag_1, lt(calldatasize, 0x04))\n      shr(0xe0, calldataload(0x00))\n      dup1\n      0xbf353dbb\n      gt\n      tag_9\n      jumpi\n      dup1\n      0xbf353dbb\n      eq\n      tag_5\n      jumpi\n      dup1\n      0xe086e5ec\n      eq\n      tag_6\n      jumpi\n      dup1\n      0xed12e8ef\n      eq\n      tag_7\n      jumpi\n      dup1\n      0xf68c3b96\n      eq\n      tag_8\n      jumpi\n      jump(tag_1)\n    tag_9:\n      dup1\n      0x41b33680\n      eq\n      tag_2\n      jumpi\n      dup1\n      0x5358fbda\n      eq\n      tag_3\n      jumpi\n      dup1\n      0x9f4fc5ca\n      eq\n      tag_4\n      jumpi\n    tag_1:\n      0x00\n      dup1\n      revert\n        /* \"contracts/Coin_contract.sol\":4048:4547  function getEthPriceCZK() public view returns (uint)\r... */\n    tag_2:\n      callvalue\n      dup1\n      iszero\n      tag_10\n      jumpi\n      0x00\n      dup1\n      revert\n    tag_10:\n      pop\n      tag_11\n      tag_12\n      jump\t// in\n    tag_11:\n      mload(0x40)\n      tag_13\n      swap2\n      swap1\n      tag_14\n      jump\t// in\n    tag_13:\n      mload(0x40)\n      dup1\n      swap2\n      sub\n      swap1\n      return\n        /* \"contracts/Coin_contract.sol\":3627:3730  function depositETH(uint256 amount) payable public\r... */\n    tag_3:\n      tag_15\n      0x04\n      dup1\n      calldatasize\n      sub\n      dup2\n      add\n      swap1\n      tag_16\n      swap2\n      swap1\n      tag_17\n      jump\t// in\n    tag_16:\n      tag_18\n      jump\t// in\n    tag_15:\n      stop\n        /* \"contracts/Coin_contract.sol\":4555:4904  function buyStablecoinForETH(uint256 ETH_amount) payable public\r... */\n    tag_4:\n      tag_19\n      0x04\n      dup1\n      calldatasize\n      sub\n      dup2\n      add\n      swap1\n      tag_20\n      swap2\n      swap1\n      tag_17\n      jump\t// in\n    tag_20:\n      tag_21\n      jump\t// in\n    tag_19:\n      stop\n        /* \"contracts/Coin_contract.sol\":2988:3026  mapping (address => uint) public wards */\n    tag_5:\n      callvalue\n      dup1\n      iszero\n      tag_22\n      jumpi\n      0x00\n      dup1\n      revert\n    tag_22:\n      pop\n      tag_23\n      0x04\n      dup1\n      calldatasize\n      sub\n      dup2\n      add\n      swap1\n      tag_24\n      swap2\n      swap1\n      tag_25\n      jump\t// in\n    tag_24:\n      tag_26\n      jump\t// in\n    tag_23:\n      mload(0x40)\n      tag_27\n      swap2\n      swap1\n      tag_14\n      jump\t// in\n    tag_27:\n      mload(0x40)\n      dup1\n      swap2\n      sub\n      swap1\n      return\n        /* \"contracts/Coin_contract.sol\":3738:3879  function withdrawETH() public auth \r... */\n    tag_6:\n      callvalue\n      dup1\n      iszero\n      tag_28\n      jumpi\n      0x00\n      dup1\n      revert\n    tag_28:\n      pop\n      tag_29\n      tag_30\n      jump\t// in\n    tag_29:\n      stop\n        /* \"contracts/Coin_contract.sol\":3891:3998  function getVaultBalance() public view returns (uint) \r... */\n    tag_7:\n      callvalue\n      dup1\n      iszero\n      tag_31\n      jumpi\n      0x00\n      dup1\n      revert\n    tag_31:\n      pop\n      tag_32\n      tag_33\n      jump\t// in\n    tag_32:\n      mload(0x40)\n      tag_34\n      swap2\n      swap1\n      tag_14\n      jump\t// in\n    tag_34:\n      mload(0x40)\n      dup1\n      swap2\n      sub\n      swap1\n      return\n        /* \"contracts/Coin_contract.sol\":4912:5541  function sellStablecoinForETH(uint256 stable_tokens) public  \r... */\n    tag_8:\n      callvalue\n      dup1\n      iszero\n      tag_35\n      jumpi\n      0x00\n      dup1\n      revert\n    tag_35:\n      pop\n      tag_36\n      0x04\n      dup1\n      calldatasize\n      sub\n      dup2\n      add\n      swap1\n      tag_37\n      swap2\n      swap1\n      tag_17\n      jump\t// in\n    tag_37:\n      tag_38\n      jump\t// in\n    tag_36:\n      stop\n        /* \"contracts/Coin_contract.sol\":4048:4547  function getEthPriceCZK() public view returns (uint)\r... */\n    tag_12:\n        /* \"contracts/Coin_contract.sol\":4095:4099  uint */\n      0x00\n        /* \"contracts/Coin_contract.sol\":4534:4539  30000 */\n      0x7530\n        /* \"contracts/Coin_contract.sol\":4527:4539  return 30000 */\n      swap1\n      pop\n        /* \"contracts/Coin_contract.sol\":4048:4547  function getEthPriceCZK() public view returns (uint)\r... */\n      swap1\n      jump\t// out\n        /* \"contracts/Coin_contract.sol\":3627:3730  function depositETH(uint256 amount) payable public\r... */\n    tag_18:\n        /* \"contracts/Coin_contract.sol\":3715:3721  amount */\n      dup1\n        /* \"contracts/Coin_contract.sol\":3702:3711  msg.value */\n      callvalue\n        /* \"contracts/Coin_contract.sol\":3702:3721  msg.value == amount */\n      eq\n        /* \"contracts/Coin_contract.sol\":3694:3722  require(msg.value == amount) */\n      tag_41\n      jumpi\n      0x00\n      dup1\n      revert\n    tag_41:\n        /* \"contracts/Coin_contract.sol\":3627:3730  function depositETH(uint256 amount) payable public\r... */\n      pop\n      jump\t// out\n        /* \"contracts/Coin_contract.sol\":4555:4904  function buyStablecoinForETH(uint256 ETH_amount) payable public\r... */\n    tag_21:\n        /* \"contracts/Coin_contract.sol\":4656:4666  ETH_amount */\n      dup1\n        /* \"contracts/Coin_contract.sol\":4643:4652  msg.value */\n      callvalue\n        /* \"contracts/Coin_contract.sol\":4643:4666  msg.value == ETH_amount */\n      eq\n        /* \"contracts/Coin_contract.sol\":4635:4667  require(msg.value == ETH_amount) */\n      tag_43\n      jumpi\n      0x00\n      dup1\n      revert\n    tag_43:\n        /* \"contracts/Coin_contract.sol\":4737:4748  uint amount */\n      0x00\n        /* \"contracts/Coin_contract.sol\":4787:4806  1000000000000000000 */\n      0x0de0b6b3a7640000\n        /* \"contracts/Coin_contract.sol\":4766:4782  getEthPriceCZK() */\n      tag_44\n        /* \"contracts/Coin_contract.sol\":4766:4780  getEthPriceCZK */\n      tag_12\n        /* \"contracts/Coin_contract.sol\":4766:4782  getEthPriceCZK() */\n      jump\t// in\n    tag_44:\n        /* \"contracts/Coin_contract.sol\":4753:4763  ETH_amount */\n      dup4\n        /* \"contracts/Coin_contract.sol\":4753:4782  ETH_amount * getEthPriceCZK() */\n      tag_45\n      swap2\n      swap1\n      tag_46\n      jump\t// in\n    tag_45:\n        /* \"contracts/Coin_contract.sol\":4751:4806  ( ETH_amount * getEthPriceCZK() ) / 1000000000000000000 */\n      tag_47\n      swap2\n      swap1\n      tag_48\n      jump\t// in\n    tag_47:\n        /* \"contracts/Coin_contract.sol\":4737:4806  uint amount = ( ETH_amount * getEthPriceCZK() ) / 1000000000000000000 */\n      swap1\n      pop\n        /* \"contracts/Coin_contract.sol\":4859:4871  coinContract */\n      0x01\n      0x00\n      swap1\n      sload\n      swap1\n      0x0100\n      exp\n      swap1\n      div\n      0xffffffffffffffffffffffffffffffffffffffff\n      and\n        /* \"contracts/Coin_contract.sol\":4859:4876  coinContract.mint */\n      0xffffffffffffffffffffffffffffffffffffffff\n      and\n      0x40c10f19\n        /* \"contracts/Coin_contract.sol\":4877:4887  msg.sender */\n      caller\n        /* \"contracts/Coin_contract.sol\":4889:4895  amount */\n      dup4\n        /* \"contracts/Coin_contract.sol\":4859:4896  coinContract.mint(msg.sender, amount) */\n      mload(0x40)\n      dup4\n      0xffffffff\n      and\n      0xe0\n      shl\n      dup2\n      mstore\n      0x04\n      add\n      tag_49\n      swap3\n      swap2\n      swap1\n      tag_50\n      jump\t// in\n    tag_49:\n      0x00\n      mload(0x40)\n      dup1\n      dup4\n      sub\n      dup2\n      0x00\n      dup8\n      dup1\n      extcodesize\n      iszero\n      dup1\n      iszero\n      tag_51\n      jumpi\n      0x00\n      dup1\n      revert\n    tag_51:\n      pop\n      gas\n      call\n      iszero\n      dup1\n      iszero\n      tag_53\n      jumpi\n      returndatasize\n      0x00\n      dup1\n      returndatacopy\n      revert(0x00, returndatasize)\n    tag_53:\n      pop\n      pop\n      pop\n      pop\n        /* \"contracts/Coin_contract.sol\":4624:4904  {\r... */\n      pop\n        /* \"contracts/Coin_contract.sol\":4555:4904  function buyStablecoinForETH(uint256 ETH_amount) payable public\r... */\n      pop\n      jump\t// out\n        /* \"contracts/Coin_contract.sol\":2988:3026  mapping (address => uint) public wards */\n    tag_26:\n      mstore(0x20, 0x00)\n      dup1\n      0x00\n      mstore\n      keccak256(0x00, 0x40)\n      0x00\n      swap2\n      pop\n      swap1\n      pop\n      sload\n      dup2\n      jump\t// out\n        /* \"contracts/Coin_contract.sol\":3738:3879  function withdrawETH() public auth \r... */\n    tag_30:\n        /* \"contracts/Coin_contract.sol\":3093:3094  1 */\n      0x01\n        /* \"contracts/Coin_contract.sol\":3072:3077  wards */\n      0x00\n        /* \"contracts/Coin_contract.sol\":3072:3089  wards[msg.sender] */\n      dup1\n        /* \"contracts/Coin_contract.sol\":3078:3088  msg.sender */\n      caller\n        /* \"contracts/Coin_contract.sol\":3072:3089  wards[msg.sender] */\n      0xffffffffffffffffffffffffffffffffffffffff\n      and\n      0xffffffffffffffffffffffffffffffffffffffff\n      and\n      dup2\n      mstore\n      0x20\n      add\n      swap1\n      dup2\n      mstore\n      0x20\n      add\n      0x00\n      keccak256\n      sload\n        /* \"contracts/Coin_contract.sol\":3072:3094  wards[msg.sender] == 1 */\n      eq\n        /* \"contracts/Coin_contract.sol\":3064:3113  require(wards[msg.sender] == 1, \"Not-authorized\") */\n      tag_55\n      jumpi\n      mload(0x40)\n      0x08c379a000000000000000000000000000000000000000000000000000000000\n      dup2\n      mstore\n      0x04\n      add\n      tag_56\n      swap1\n      tag_57\n      jump\t// in\n    tag_56:\n      mload(0x40)\n      dup1\n      swap2\n      sub\n      swap1\n      revert\n    tag_55:\n        /* \"contracts/Coin_contract.sol\":3790:3808  address payable to */\n      0x00\n        /* \"contracts/Coin_contract.sol\":3819:3829  msg.sender */\n      caller\n        /* \"contracts/Coin_contract.sol\":3790:3830  address payable to = payable(msg.sender) */\n      swap1\n      pop\n        /* \"contracts/Coin_contract.sol\":3841:3843  to */\n      dup1\n        /* \"contracts/Coin_contract.sol\":3841:3852  to.transfer */\n      0xffffffffffffffffffffffffffffffffffffffff\n      and\n        /* \"contracts/Coin_contract.sol\":3841:3871  to.transfer(getVaultBalance()) */\n      0x08fc\n        /* \"contracts/Coin_contract.sol\":3853:3870  getVaultBalance() */\n      tag_59\n        /* \"contracts/Coin_contract.sol\":3853:3868  getVaultBalance */\n      tag_33\n        /* \"contracts/Coin_contract.sol\":3853:3870  getVaultBalance() */\n      jump\t// in\n    tag_59:\n        /* \"contracts/Coin_contract.sol\":3841:3871  to.transfer(getVaultBalance()) */\n      swap1\n      dup2\n      iszero\n      mul\n      swap1\n      mload(0x40)\n      0x00\n      mload(0x40)\n      dup1\n      dup4\n      sub\n      dup2\n      dup6\n      dup9\n      dup9\n      call\n      swap4\n      pop\n      pop\n      pop\n      pop\n      iszero\n      dup1\n      iszero\n      tag_61\n      jumpi\n      returndatasize\n      0x00\n      dup1\n      returndatacopy\n      revert(0x00, returndatasize)\n    tag_61:\n      pop\n        /* \"contracts/Coin_contract.sol\":3779:3879  {\r... */\n      pop\n        /* \"contracts/Coin_contract.sol\":3738:3879  function withdrawETH() public auth \r... */\n      jump\t// out\n        /* \"contracts/Coin_contract.sol\":3891:3998  function getVaultBalance() public view returns (uint) \r... */\n    tag_33:\n        /* \"contracts/Coin_contract.sol\":3939:3943  uint */\n      0x00\n        /* \"contracts/Coin_contract.sol\":3969:3990  address(this).balance */\n      selfbalance\n        /* \"contracts/Coin_contract.sol\":3962:3990  return address(this).balance */\n      swap1\n      pop\n        /* \"contracts/Coin_contract.sol\":3891:3998  function getVaultBalance() public view returns (uint) \r... */\n      swap1\n      jump\t// out\n        /* \"contracts/Coin_contract.sol\":4912:5541  function sellStablecoinForETH(uint256 stable_tokens) public  \r... */\n    tag_38:\n        /* \"contracts/Coin_contract.sol\":5104:5117  stable_tokens */\n      dup1\n        /* \"contracts/Coin_contract.sol\":5066:5078  coinContract */\n      0x01\n      0x00\n      swap1\n      sload\n      swap1\n      0x0100\n      exp\n      swap1\n      div\n      0xffffffffffffffffffffffffffffffffffffffff\n      and\n        /* \"contracts/Coin_contract.sol\":5066:5088  coinContract.balanceOf */\n      0xffffffffffffffffffffffffffffffffffffffff\n      and\n      0x70a08231\n        /* \"contracts/Coin_contract.sol\":5089:5099  msg.sender */\n      caller\n        /* \"contracts/Coin_contract.sol\":5066:5100  coinContract.balanceOf(msg.sender) */\n      mload(0x40)\n      dup3\n      0xffffffff\n      and\n      0xe0\n      shl\n      dup2\n      mstore\n      0x04\n      add\n      tag_64\n      swap2\n      swap1\n      tag_65\n      jump\t// in\n    tag_64:\n      0x20\n      mload(0x40)\n      dup1\n      dup4\n      sub\n      dup2\n      dup7\n      dup1\n      extcodesize\n      iszero\n      dup1\n      iszero\n      tag_66\n      jumpi\n      0x00\n      dup1\n      revert\n    tag_66:\n      pop\n      gas\n      staticcall\n      iszero\n      dup1\n      iszero\n      tag_68\n      jumpi\n      returndatasize\n      0x00\n      dup1\n      returndatacopy\n      revert(0x00, returndatasize)\n    tag_68:\n      pop\n      pop\n      pop\n      pop\n      mload(0x40)\n      returndatasize\n      not(0x1f)\n      0x1f\n      dup3\n      add\n      and\n      dup3\n      add\n      dup1\n      0x40\n      mstore\n      pop\n      dup2\n      add\n      swap1\n      tag_69\n      swap2\n      swap1\n      tag_70\n      jump\t// in\n    tag_69:\n        /* \"contracts/Coin_contract.sol\":5066:5117  coinContract.balanceOf(msg.sender) >= stable_tokens */\n      lt\n      iszero\n        /* \"contracts/Coin_contract.sol\":5058:5142  require(coinContract.balanceOf(msg.sender) >= stable_tokens, \"insufficient-balance\") */\n      tag_71\n      jumpi\n      mload(0x40)\n      0x08c379a000000000000000000000000000000000000000000000000000000000\n      dup2\n      mstore\n      0x04\n      add\n      tag_72\n      swap1\n      tag_73\n      jump\t// in\n    tag_72:\n      mload(0x40)\n      dup1\n      swap2\n      sub\n      swap1\n      revert\n    tag_71:\n        /* \"contracts/Coin_contract.sol\":5196:5210  uint ethToSend */\n      0x00\n        /* \"contracts/Coin_contract.sol\":5254:5270  getEthPriceCZK() */\n      tag_74\n        /* \"contracts/Coin_contract.sol\":5254:5268  getEthPriceCZK */\n      tag_12\n        /* \"contracts/Coin_contract.sol\":5254:5270  getEthPriceCZK() */\n      jump\t// in\n    tag_74:\n        /* \"contracts/Coin_contract.sol\":5231:5250  1000000000000000000 */\n      0x0de0b6b3a7640000\n        /* \"contracts/Coin_contract.sol\":5215:5228  stable_tokens */\n      dup4\n        /* \"contracts/Coin_contract.sol\":5215:5250  stable_tokens * 1000000000000000000 */\n      tag_75\n      swap2\n      swap1\n      tag_46\n      jump\t// in\n    tag_75:\n        /* \"contracts/Coin_contract.sol\":5213:5270  ( stable_tokens * 1000000000000000000) / getEthPriceCZK() */\n      tag_76\n      swap2\n      swap1\n      tag_48\n      jump\t// in\n    tag_76:\n        /* \"contracts/Coin_contract.sol\":5196:5270  uint ethToSend = ( stable_tokens * 1000000000000000000) / getEthPriceCZK() */\n      swap1\n      pop\n        /* \"contracts/Coin_contract.sol\":5302:5319  getVaultBalance() */\n      tag_77\n        /* \"contracts/Coin_contract.sol\":5302:5317  getVaultBalance */\n      tag_33\n        /* \"contracts/Coin_contract.sol\":5302:5319  getVaultBalance() */\n      jump\t// in\n    tag_77:\n        /* \"contracts/Coin_contract.sol\":5289:5298  ethToSend */\n      dup2\n        /* \"contracts/Coin_contract.sol\":5289:5319  ethToSend <= getVaultBalance() */\n      gt\n      iszero\n        /* \"contracts/Coin_contract.sol\":5281:5357  require(ethToSend <= getVaultBalance(), \"Collateral vault was liquidated !\") */\n      tag_78\n      jumpi\n      mload(0x40)\n      0x08c379a000000000000000000000000000000000000000000000000000000000\n      dup2\n      mstore\n      0x04\n      add\n      tag_79\n      swap1\n      tag_80\n      jump\t// in\n    tag_79:\n      mload(0x40)\n      dup1\n      swap2\n      sub\n      swap1\n      revert\n    tag_78:\n        /* \"contracts/Coin_contract.sol\":5368:5386  address payable to */\n      0x00\n        /* \"contracts/Coin_contract.sol\":5397:5407  msg.sender */\n      caller\n        /* \"contracts/Coin_contract.sol\":5368:5408  address payable to = payable(msg.sender) */\n      swap1\n      pop\n        /* \"contracts/Coin_contract.sol\":5419:5421  to */\n      dup1\n        /* \"contracts/Coin_contract.sol\":5419:5430  to.transfer */\n      0xffffffffffffffffffffffffffffffffffffffff\n      and\n        /* \"contracts/Coin_contract.sol\":5419:5441  to.transfer(ethToSend) */\n      0x08fc\n        /* \"contracts/Coin_contract.sol\":5431:5440  ethToSend */\n      dup4\n        /* \"contracts/Coin_contract.sol\":5419:5441  to.transfer(ethToSend) */\n      swap1\n      dup2\n      iszero\n      mul\n      swap1\n      mload(0x40)\n      0x00\n      mload(0x40)\n      dup1\n      dup4\n      sub\n      dup2\n      dup6\n      dup9\n      dup9\n      call\n      swap4\n      pop\n      pop\n      pop\n      pop\n      iszero\n      dup1\n      iszero\n      tag_82\n      jumpi\n      returndatasize\n      0x00\n      dup1\n      returndatacopy\n      revert(0x00, returndatasize)\n    tag_82:\n      pop\n        /* \"contracts/Coin_contract.sol\":5489:5501  coinContract */\n      0x01\n      0x00\n      swap1\n      sload\n      swap1\n      0x0100\n      exp\n      swap1\n      div\n      0xffffffffffffffffffffffffffffffffffffffff\n      and\n        /* \"contracts/Coin_contract.sol\":5489:5506  coinContract.burn */\n      0xffffffffffffffffffffffffffffffffffffffff\n      and\n      0x9dc29fac\n        /* \"contracts/Coin_contract.sol\":5507:5517  msg.sender */\n      caller\n        /* \"contracts/Coin_contract.sol\":5519:5532  stable_tokens */\n      dup6\n        /* \"contracts/Coin_contract.sol\":5489:5533  coinContract.burn(msg.sender, stable_tokens) */\n      mload(0x40)\n      dup4\n      0xffffffff\n      and\n      0xe0\n      shl\n      dup2\n      mstore\n      0x04\n      add\n      tag_83\n      swap3\n      swap2\n      swap1\n      tag_50\n      jump\t// in\n    tag_83:\n      0x00\n      mload(0x40)\n      dup1\n      dup4\n      sub\n      dup2\n      0x00\n      dup8\n      dup1\n      extcodesize\n      iszero\n      dup1\n      iszero\n      tag_84\n      jumpi\n      0x00\n      dup1\n      revert\n    tag_84:\n      pop\n      gas\n      call\n      iszero\n      dup1\n      iszero\n      tag_86\n      jumpi\n      returndatasize\n      0x00\n      dup1\n      returndatacopy\n      revert(0x00, returndatasize)\n    tag_86:\n      pop\n      pop\n      pop\n      pop\n        /* \"contracts/Coin_contract.sol\":4979:5541  {\r... */\n      pop\n      pop\n        /* \"contracts/Coin_contract.sol\":4912:5541  function sellStablecoinForETH(uint256 stable_tokens) public  \r... */\n      pop\n      jump\t// out\n        /* \"#utility.yul\":7:146   */\n    tag_88:\n        /* \"#utility.yul\":53:58   */\n      0x00\n        /* \"#utility.yul\":91:97   */\n      dup2\n        /* \"#utility.yul\":78:98   */\n      calldataload\n        /* \"#utility.yul\":69:98   */\n      swap1\n      pop\n        /* \"#utility.yul\":107:140   */\n      tag_90\n        /* \"#utility.yul\":134:139   */\n      dup2\n        /* \"#utility.yul\":107:140   */\n      tag_91\n      jump\t// in\n    tag_90:\n        /* \"#utility.yul\":7:146   */\n      swap3\n      swap2\n      pop\n      pop\n      jump\t// out\n        /* \"#utility.yul\":152:291   */\n    tag_92:\n        /* \"#utility.yul\":198:203   */\n      0x00\n        /* \"#utility.yul\":236:242   */\n      dup2\n        /* \"#utility.yul\":223:243   */\n      calldataload\n        /* \"#utility.yul\":214:243   */\n      swap1\n      pop\n        /* \"#utility.yul\":252:285   */\n      tag_94\n        /* \"#utility.yul\":279:284   */\n      dup2\n        /* \"#utility.yul\":252:285   */\n      tag_95\n      jump\t// in\n    tag_94:\n        /* \"#utility.yul\":152:291   */\n      swap3\n      swap2\n      pop\n      pop\n      jump\t// out\n        /* \"#utility.yul\":297:440   */\n    tag_96:\n        /* \"#utility.yul\":354:359   */\n      0x00\n        /* \"#utility.yul\":385:391   */\n      dup2\n        /* \"#utility.yul\":379:392   */\n      mload\n        /* \"#utility.yul\":370:392   */\n      swap1\n      pop\n        /* \"#utility.yul\":401:434   */\n      tag_98\n        /* \"#utility.yul\":428:433   */\n      dup2\n        /* \"#utility.yul\":401:434   */\n      tag_95\n      jump\t// in\n    tag_98:\n        /* \"#utility.yul\":297:440   */\n      swap3\n      swap2\n      pop\n      pop\n      jump\t// out\n        /* \"#utility.yul\":446:775   */\n    tag_25:\n        /* \"#utility.yul\":505:511   */\n      0x00\n        /* \"#utility.yul\":554:556   */\n      0x20\n        /* \"#utility.yul\":542:551   */\n      dup3\n        /* \"#utility.yul\":533:540   */\n      dup5\n        /* \"#utility.yul\":529:552   */\n      sub\n        /* \"#utility.yul\":525:557   */\n      slt\n        /* \"#utility.yul\":522:641   */\n      iszero\n      tag_100\n      jumpi\n        /* \"#utility.yul\":560:639   */\n      tag_101\n      tag_102\n      jump\t// in\n    tag_101:\n        /* \"#utility.yul\":522:641   */\n    tag_100:\n        /* \"#utility.yul\":680:681   */\n      0x00\n        /* \"#utility.yul\":705:758   */\n      tag_103\n        /* \"#utility.yul\":750:757   */\n      dup5\n        /* \"#utility.yul\":741:747   */\n      dup3\n        /* \"#utility.yul\":730:739   */\n      dup6\n        /* \"#utility.yul\":726:748   */\n      add\n        /* \"#utility.yul\":705:758   */\n      tag_88\n      jump\t// in\n    tag_103:\n        /* \"#utility.yul\":695:758   */\n      swap2\n      pop\n        /* \"#utility.yul\":651:768   */\n      pop\n        /* \"#utility.yul\":446:775   */\n      swap3\n      swap2\n      pop\n      pop\n      jump\t// out\n        /* \"#utility.yul\":781:1110   */\n    tag_17:\n        /* \"#utility.yul\":840:846   */\n      0x00\n        /* \"#utility.yul\":889:891   */\n      0x20\n        /* \"#utility.yul\":877:886   */\n      dup3\n        /* \"#utility.yul\":868:875   */\n      dup5\n        /* \"#utility.yul\":864:887   */\n      sub\n        /* \"#utility.yul\":860:892   */\n      slt\n        /* \"#utility.yul\":857:976   */\n      iszero\n      tag_105\n      jumpi\n        /* \"#utility.yul\":895:974   */\n      tag_106\n      tag_102\n      jump\t// in\n    tag_106:\n        /* \"#utility.yul\":857:976   */\n    tag_105:\n        /* \"#utility.yul\":1015:1016   */\n      0x00\n        /* \"#utility.yul\":1040:1093   */\n      tag_107\n        /* \"#utility.yul\":1085:1092   */\n      dup5\n        /* \"#utility.yul\":1076:1082   */\n      dup3\n        /* \"#utility.yul\":1065:1074   */\n      dup6\n        /* \"#utility.yul\":1061:1083   */\n      add\n        /* \"#utility.yul\":1040:1093   */\n      tag_92\n      jump\t// in\n    tag_107:\n        /* \"#utility.yul\":1030:1093   */\n      swap2\n      pop\n        /* \"#utility.yul\":986:1103   */\n      pop\n        /* \"#utility.yul\":781:1110   */\n      swap3\n      swap2\n      pop\n      pop\n      jump\t// out\n        /* \"#utility.yul\":1116:1467   */\n    tag_70:\n        /* \"#utility.yul\":1186:1192   */\n      0x00\n        /* \"#utility.yul\":1235:1237   */\n      0x20\n        /* \"#utility.yul\":1223:1232   */\n      dup3\n        /* \"#utility.yul\":1214:1221   */\n      dup5\n        /* \"#utility.yul\":1210:1233   */\n      sub\n        /* \"#utility.yul\":1206:1238   */\n      slt\n        /* \"#utility.yul\":1203:1322   */\n      iszero\n      tag_109\n      jumpi\n        /* \"#utility.yul\":1241:1320   */\n      tag_110\n      tag_102\n      jump\t// in\n    tag_110:\n        /* \"#utility.yul\":1203:1322   */\n    tag_109:\n        /* \"#utility.yul\":1361:1362   */\n      0x00\n        /* \"#utility.yul\":1386:1450   */\n      tag_111\n        /* \"#utility.yul\":1442:1449   */\n      dup5\n        /* \"#utility.yul\":1433:1439   */\n      dup3\n        /* \"#utility.yul\":1422:1431   */\n      dup6\n        /* \"#utility.yul\":1418:1440   */\n      add\n        /* \"#utility.yul\":1386:1450   */\n      tag_96\n      jump\t// in\n    tag_111:\n        /* \"#utility.yul\":1376:1450   */\n      swap2\n      pop\n        /* \"#utility.yul\":1332:1460   */\n      pop\n        /* \"#utility.yul\":1116:1467   */\n      swap3\n      swap2\n      pop\n      pop\n      jump\t// out\n        /* \"#utility.yul\":1473:1591   */\n    tag_112:\n        /* \"#utility.yul\":1560:1584   */\n      tag_114\n        /* \"#utility.yul\":1578:1583   */\n      dup2\n        /* \"#utility.yul\":1560:1584   */\n      tag_115\n      jump\t// in\n    tag_114:\n        /* \"#utility.yul\":1555:1558   */\n      dup3\n        /* \"#utility.yul\":1548:1585   */\n      mstore\n        /* \"#utility.yul\":1473:1591   */\n      pop\n      pop\n      jump\t// out\n        /* \"#utility.yul\":1597:1963   */\n    tag_116:\n        /* \"#utility.yul\":1739:1742   */\n      0x00\n        /* \"#utility.yul\":1760:1827   */\n      tag_118\n        /* \"#utility.yul\":1824:1826   */\n      0x21\n        /* \"#utility.yul\":1819:1822   */\n      dup4\n        /* \"#utility.yul\":1760:1827   */\n      tag_119\n      jump\t// in\n    tag_118:\n        /* \"#utility.yul\":1753:1827   */\n      swap2\n      pop\n        /* \"#utility.yul\":1836:1929   */\n      tag_120\n        /* \"#utility.yul\":1925:1928   */\n      dup3\n        /* \"#utility.yul\":1836:1929   */\n      tag_121\n      jump\t// in\n    tag_120:\n        /* \"#utility.yul\":1954:1956   */\n      0x40\n        /* \"#utility.yul\":1949:1952   */\n      dup3\n        /* \"#utility.yul\":1945:1957   */\n      add\n        /* \"#utility.yul\":1938:1957   */\n      swap1\n      pop\n        /* \"#utility.yul\":1597:1963   */\n      swap2\n      swap1\n      pop\n      jump\t// out\n        /* \"#utility.yul\":1969:2335   */\n    tag_122:\n        /* \"#utility.yul\":2111:2114   */\n      0x00\n        /* \"#utility.yul\":2132:2199   */\n      tag_124\n        /* \"#utility.yul\":2196:2198   */\n      0x14\n        /* \"#utility.yul\":2191:2194   */\n      dup4\n        /* \"#utility.yul\":2132:2199   */\n      tag_119\n      jump\t// in\n    tag_124:\n        /* \"#utility.yul\":2125:2199   */\n      swap2\n      pop\n        /* \"#utility.yul\":2208:2301   */\n      tag_125\n        /* \"#utility.yul\":2297:2300   */\n      dup3\n        /* \"#utility.yul\":2208:2301   */\n      tag_126\n      jump\t// in\n    tag_125:\n        /* \"#utility.yul\":2326:2328   */\n      0x20\n        /* \"#utility.yul\":2321:2324   */\n      dup3\n        /* \"#utility.yul\":2317:2329   */\n      add\n        /* \"#utility.yul\":2310:2329   */\n      swap1\n      pop\n        /* \"#utility.yul\":1969:2335   */\n      swap2\n      swap1\n      pop\n      jump\t// out\n        /* \"#utility.yul\":2341:2707   */\n    tag_127:\n        /* \"#utility.yul\":2483:2486   */\n      0x00\n        /* \"#utility.yul\":2504:2571   */\n      tag_129\n        /* \"#utility.yul\":2568:2570   */\n      0x0e\n        /* \"#utility.yul\":2563:2566   */\n      dup4\n        /* \"#utility.yul\":2504:2571   */\n      tag_119\n      jump\t// in\n    tag_129:\n        /* \"#utility.yul\":2497:2571   */\n      swap2\n      pop\n        /* \"#utility.yul\":2580:2673   */\n      tag_130\n        /* \"#utility.yul\":2669:2672   */\n      dup3\n        /* \"#utility.yul\":2580:2673   */\n      tag_131\n      jump\t// in\n    tag_130:\n        /* \"#utility.yul\":2698:2700   */\n      0x20\n        /* \"#utility.yul\":2693:2696   */\n      dup3\n        /* \"#utility.yul\":2689:2701   */\n      add\n        /* \"#utility.yul\":2682:2701   */\n      swap1\n      pop\n        /* \"#utility.yul\":2341:2707   */\n      swap2\n      swap1\n      pop\n      jump\t// out\n        /* \"#utility.yul\":2713:2831   */\n    tag_132:\n        /* \"#utility.yul\":2800:2824   */\n      tag_134\n        /* \"#utility.yul\":2818:2823   */\n      dup2\n        /* \"#utility.yul\":2800:2824   */\n      tag_135\n      jump\t// in\n    tag_134:\n        /* \"#utility.yul\":2795:2798   */\n      dup3\n        /* \"#utility.yul\":2788:2825   */\n      mstore\n        /* \"#utility.yul\":2713:2831   */\n      pop\n      pop\n      jump\t// out\n        /* \"#utility.yul\":2837:3059   */\n    tag_65:\n        /* \"#utility.yul\":2930:2934   */\n      0x00\n        /* \"#utility.yul\":2968:2970   */\n      0x20\n        /* \"#utility.yul\":2957:2966   */\n      dup3\n        /* \"#utility.yul\":2953:2971   */\n      add\n        /* \"#utility.yul\":2945:2971   */\n      swap1\n      pop\n        /* \"#utility.yul\":2981:3052   */\n      tag_137\n        /* \"#utility.yul\":3049:3050   */\n      0x00\n        /* \"#utility.yul\":3038:3047   */\n      dup4\n        /* \"#utility.yul\":3034:3051   */\n      add\n        /* \"#utility.yul\":3025:3031   */\n      dup5\n        /* \"#utility.yul\":2981:3052   */\n      tag_112\n      jump\t// in\n    tag_137:\n        /* \"#utility.yul\":2837:3059   */\n      swap3\n      swap2\n      pop\n      pop\n      jump\t// out\n        /* \"#utility.yul\":3065:3397   */\n    tag_50:\n        /* \"#utility.yul\":3186:3190   */\n      0x00\n        /* \"#utility.yul\":3224:3226   */\n      0x40\n        /* \"#utility.yul\":3213:3222   */\n      dup3\n        /* \"#utility.yul\":3209:3227   */\n      add\n        /* \"#utility.yul\":3201:3227   */\n      swap1\n      pop\n        /* \"#utility.yul\":3237:3308   */\n      tag_139\n        /* \"#utility.yul\":3305:3306   */\n      0x00\n        /* \"#utility.yul\":3294:3303   */\n      dup4\n        /* \"#utility.yul\":3290:3307   */\n      add\n        /* \"#utility.yul\":3281:3287   */\n      dup6\n        /* \"#utility.yul\":3237:3308   */\n      tag_112\n      jump\t// in\n    tag_139:\n        /* \"#utility.yul\":3318:3390   */\n      tag_140\n        /* \"#utility.yul\":3386:3388   */\n      0x20\n        /* \"#utility.yul\":3375:3384   */\n      dup4\n        /* \"#utility.yul\":3371:3389   */\n      add\n        /* \"#utility.yul\":3362:3368   */\n      dup5\n        /* \"#utility.yul\":3318:3390   */\n      tag_132\n      jump\t// in\n    tag_140:\n        /* \"#utility.yul\":3065:3397   */\n      swap4\n      swap3\n      pop\n      pop\n      pop\n      jump\t// out\n        /* \"#utility.yul\":3403:3822   */\n    tag_80:\n        /* \"#utility.yul\":3569:3573   */\n      0x00\n        /* \"#utility.yul\":3607:3609   */\n      0x20\n        /* \"#utility.yul\":3596:3605   */\n      dup3\n        /* \"#utility.yul\":3592:3610   */\n      add\n        /* \"#utility.yul\":3584:3610   */\n      swap1\n      pop\n        /* \"#utility.yul\":3656:3665   */\n      dup2\n        /* \"#utility.yul\":3650:3654   */\n      dup2\n        /* \"#utility.yul\":3646:3666   */\n      sub\n        /* \"#utility.yul\":3642:3643   */\n      0x00\n        /* \"#utility.yul\":3631:3640   */\n      dup4\n        /* \"#utility.yul\":3627:3644   */\n      add\n        /* \"#utility.yul\":3620:3667   */\n      mstore\n        /* \"#utility.yul\":3684:3815   */\n      tag_142\n        /* \"#utility.yul\":3810:3814   */\n      dup2\n        /* \"#utility.yul\":3684:3815   */\n      tag_116\n      jump\t// in\n    tag_142:\n        /* \"#utility.yul\":3676:3815   */\n      swap1\n      pop\n        /* \"#utility.yul\":3403:3822   */\n      swap2\n      swap1\n      pop\n      jump\t// out\n        /* \"#utility.yul\":3828:4247   */\n    tag_73:\n        /* \"#utility.yul\":3994:3998   */\n      0x00\n        /* \"#utility.yul\":4032:4034   */\n      0x20\n        /* \"#utility.yul\":4021:4030   */\n      dup3\n        /* \"#utility.yul\":4017:4035   */\n      add\n        /* \"#utility.yul\":4009:4035   */\n      swap1\n      pop\n        /* \"#utility.yul\":4081:4090   */\n      dup2\n        /* \"#utility.yul\":4075:4079   */\n      dup2\n        /* \"#utility.yul\":4071:4091   */\n      sub\n        /* \"#utility.yul\":4067:4068   */\n      0x00\n        /* \"#utility.yul\":4056:4065   */\n      dup4\n        /* \"#utility.yul\":4052:4069   */\n      add\n        /* \"#utility.yul\":4045:4092   */\n      mstore\n        /* \"#utility.yul\":4109:4240   */\n      tag_144\n        /* \"#utility.yul\":4235:4239   */\n      dup2\n        /* \"#utility.yul\":4109:4240   */\n      tag_122\n      jump\t// in\n    tag_144:\n        /* \"#utility.yul\":4101:4240   */\n      swap1\n      pop\n        /* \"#utility.yul\":3828:4247   */\n      swap2\n      swap1\n      pop\n      jump\t// out\n        /* \"#utility.yul\":4253:4672   */\n    tag_57:\n        /* \"#utility.yul\":4419:4423   */\n      0x00\n        /* \"#utility.yul\":4457:4459   */\n      0x20\n        /* \"#utility.yul\":4446:4455   */\n      dup3\n        /* \"#utility.yul\":4442:4460   */\n      add\n        /* \"#utility.yul\":4434:4460   */\n      swap1\n      pop\n        /* \"#utility.yul\":4506:4515   */\n      dup2\n        /* \"#utility.yul\":4500:4504   */\n      dup2\n        /* \"#utility.yul\":4496:4516   */\n      sub\n        /* \"#utility.yul\":4492:4493   */\n      0x00\n        /* \"#utility.yul\":4481:4490   */\n      dup4\n        /* \"#utility.yul\":4477:4494   */\n      add\n        /* \"#utility.yul\":4470:4517   */\n      mstore\n        /* \"#utility.yul\":4534:4665   */\n      tag_146\n        /* \"#utility.yul\":4660:4664   */\n      dup2\n        /* \"#utility.yul\":4534:4665   */\n      tag_127\n      jump\t// in\n    tag_146:\n        /* \"#utility.yul\":4526:4665   */\n      swap1\n      pop\n        /* \"#utility.yul\":4253:4672   */\n      swap2\n      swap1\n      pop\n      jump\t// out\n        /* \"#utility.yul\":4678:4900   */\n    tag_14:\n        /* \"#utility.yul\":4771:4775   */\n      0x00\n        /* \"#utility.yul\":4809:4811   */\n      0x20\n        /* \"#utility.yul\":4798:4807   */\n      dup3\n        /* \"#utility.yul\":4794:4812   */\n      add\n        /* \"#utility.yul\":4786:4812   */\n      swap1\n      pop\n        /* \"#utility.yul\":4822:4893   */\n      tag_148\n        /* \"#utility.yul\":4890:4891   */\n      0x00\n        /* \"#utility.yul\":4879:4888   */\n      dup4\n        /* \"#utility.yul\":4875:4892   */\n      add\n        /* \"#utility.yul\":4866:4872   */\n      dup5\n        /* \"#utility.yul\":4822:4893   */\n      tag_132\n      jump\t// in\n    tag_148:\n        /* \"#utility.yul\":4678:4900   */\n      swap3\n      swap2\n      pop\n      pop\n      jump\t// out\n        /* \"#utility.yul\":4987:5156   */\n    tag_119:\n        /* \"#utility.yul\":5071:5082   */\n      0x00\n        /* \"#utility.yul\":5105:5111   */\n      dup3\n        /* \"#utility.yul\":5100:5103   */\n      dup3\n        /* \"#utility.yul\":5093:5112   */\n      mstore\n        /* \"#utility.yul\":5145:5149   */\n      0x20\n        /* \"#utility.yul\":5140:5143   */\n      dup3\n        /* \"#utility.yul\":5136:5150   */\n      add\n        /* \"#utility.yul\":5121:5150   */\n      swap1\n      pop\n        /* \"#utility.yul\":4987:5156   */\n      swap3\n      swap2\n      pop\n      pop\n      jump\t// out\n        /* \"#utility.yul\":5162:5347   */\n    tag_48:\n        /* \"#utility.yul\":5202:5203   */\n      0x00\n        /* \"#utility.yul\":5219:5239   */\n      tag_153\n        /* \"#utility.yul\":5237:5238   */\n      dup3\n        /* \"#utility.yul\":5219:5239   */\n      tag_135\n      jump\t// in\n    tag_153:\n        /* \"#utility.yul\":5214:5239   */\n      swap2\n      pop\n        /* \"#utility.yul\":5253:5273   */\n      tag_154\n        /* \"#utility.yul\":5271:5272   */\n      dup4\n        /* \"#utility.yul\":5253:5273   */\n      tag_135\n      jump\t// in\n    tag_154:\n        /* \"#utility.yul\":5248:5273   */\n      swap3\n      pop\n        /* \"#utility.yul\":5292:5293   */\n      dup3\n        /* \"#utility.yul\":5282:5317   */\n      tag_155\n      jumpi\n        /* \"#utility.yul\":5297:5315   */\n      tag_156\n      tag_157\n      jump\t// in\n    tag_156:\n        /* \"#utility.yul\":5282:5317   */\n    tag_155:\n        /* \"#utility.yul\":5339:5340   */\n      dup3\n        /* \"#utility.yul\":5336:5337   */\n      dup3\n        /* \"#utility.yul\":5332:5341   */\n      div\n        /* \"#utility.yul\":5327:5341   */\n      swap1\n      pop\n        /* \"#utility.yul\":5162:5347   */\n      swap3\n      swap2\n      pop\n      pop\n      jump\t// out\n        /* \"#utility.yul\":5353:5701   */\n    tag_46:\n        /* \"#utility.yul\":5393:5400   */\n      0x00\n        /* \"#utility.yul\":5416:5436   */\n      tag_159\n        /* \"#utility.yul\":5434:5435   */\n      dup3\n        /* \"#utility.yul\":5416:5436   */\n      tag_135\n      jump\t// in\n    tag_159:\n        /* \"#utility.yul\":5411:5436   */\n      swap2\n      pop\n        /* \"#utility.yul\":5450:5470   */\n      tag_160\n        /* \"#utility.yul\":5468:5469   */\n      dup4\n        /* \"#utility.yul\":5450:5470   */\n      tag_135\n      jump\t// in\n    tag_160:\n        /* \"#utility.yul\":5445:5470   */\n      swap3\n      pop\n        /* \"#utility.yul\":5638:5639   */\n      dup2\n        /* \"#utility.yul\":5570:5636   */\n      0xffffffffffffffffffffffffffffffffffffffffffffffffffffffffffffffff\n        /* \"#utility.yul\":5566:5640   */\n      div\n        /* \"#utility.yul\":5563:5564   */\n      dup4\n        /* \"#utility.yul\":5560:5641   */\n      gt\n        /* \"#utility.yul\":5555:5556   */\n      dup3\n        /* \"#utility.yul\":5548:5557   */\n      iszero\n        /* \"#utility.yul\":5541:5558   */\n      iszero\n        /* \"#utility.yul\":5537:5642   */\n      and\n        /* \"#utility.yul\":5534:5665   */\n      iszero\n      tag_161\n      jumpi\n        /* \"#utility.yul\":5645:5663   */\n      tag_162\n      tag_163\n      jump\t// in\n    tag_162:\n        /* \"#utility.yul\":5534:5665   */\n    tag_161:\n        /* \"#utility.yul\":5693:5694   */\n      dup3\n        /* \"#utility.yul\":5690:5691   */\n      dup3\n        /* \"#utility.yul\":5686:5695   */\n      mul\n        /* \"#utility.yul\":5675:5695   */\n      swap1\n      pop\n        /* \"#utility.yul\":5353:5701   */\n      swap3\n      swap2\n      pop\n      pop\n      jump\t// out\n        /* \"#utility.yul\":5707:5803   */\n    tag_115:\n        /* \"#utility.yul\":5744:5751   */\n      0x00\n        /* \"#utility.yul\":5773:5797   */\n      tag_165\n        /* \"#utility.yul\":5791:5796   */\n      dup3\n        /* \"#utility.yul\":5773:5797   */\n      tag_166\n      jump\t// in\n    tag_165:\n        /* \"#utility.yul\":5762:5797   */\n      swap1\n      pop\n        /* \"#utility.yul\":5707:5803   */\n      swap2\n      swap1\n      pop\n      jump\t// out\n        /* \"#utility.yul\":5809:5935   */\n    tag_166:\n        /* \"#utility.yul\":5846:5853   */\n      0x00\n        /* \"#utility.yul\":5886:5928   */\n      0xffffffffffffffffffffffffffffffffffffffff\n        /* \"#utility.yul\":5879:5884   */\n      dup3\n        /* \"#utility.yul\":5875:5929   */\n      and\n        /* \"#utility.yul\":5864:5929   */\n      swap1\n      pop\n        /* \"#utility.yul\":5809:5935   */\n      swap2\n      swap1\n      pop\n      jump\t// out\n        /* \"#utility.yul\":5941:6018   */\n    tag_135:\n        /* \"#utility.yul\":5978:5985   */\n      0x00\n        /* \"#utility.yul\":6007:6012   */\n      dup2\n        /* \"#utility.yul\":5996:6012   */\n      swap1\n      pop\n        /* \"#utility.yul\":5941:6018   */\n      swap2\n      swap1\n      pop\n      jump\t// out\n        /* \"#utility.yul\":6024:6204   */\n    tag_163:\n        /* \"#utility.yul\":6072:6149   */\n      0x4e487b7100000000000000000000000000000000000000000000000000000000\n        /* \"#utility.yul\":6069:6070   */\n      0x00\n        /* \"#utility.yul\":6062:6150   */\n      mstore\n        /* \"#utility.yul\":6169:6173   */\n      0x11\n        /* \"#utility.yul\":6166:6167   */\n      0x04\n        /* \"#utility.yul\":6159:6174   */\n      mstore\n        /* \"#utility.yul\":6193:6197   */\n      0x24\n        /* \"#utility.yul\":6190:6191   */\n      0x00\n        /* \"#utility.yul\":6183:6198   */\n      revert\n        /* \"#utility.yul\":6210:6390   */\n    tag_157:\n        /* \"#utility.yul\":6258:6335   */\n      0x4e487b7100000000000000000000000000000000000000000000000000000000\n        /* \"#utility.yul\":6255:6256   */\n      0x00\n        /* \"#utility.yul\":6248:6336   */\n      mstore\n        /* \"#utility.yul\":6355:6359   */\n      0x12\n        /* \"#utility.yul\":6352:6353   */\n      0x04\n        /* \"#utility.yul\":6345:6360   */\n      mstore\n        /* \"#utility.yul\":6379:6383   */\n      0x24\n        /* \"#utility.yul\":6376:6377   */\n      0x00\n        /* \"#utility.yul\":6369:6384   */\n      revert\n        /* \"#utility.yul\":6519:6636   */\n    tag_102:\n        /* \"#utility.yul\":6628:6629   */\n      0x00\n        /* \"#utility.yul\":6625:6626   */\n      dup1\n        /* \"#utility.yul\":6618:6630   */\n      revert\n        /* \"#utility.yul\":6642:6862   */\n    tag_121:\n        /* \"#utility.yul\":6782:6816   */\n      0x436f6c6c61746572616c207661756c7420776173206c69717569646174656420\n        /* \"#utility.yul\":6778:6779   */\n      0x00\n        /* \"#utility.yul\":6770:6776   */\n      dup3\n        /* \"#utility.yul\":6766:6780   */\n      add\n        /* \"#utility.yul\":6759:6817   */\n      mstore\n        /* \"#utility.yul\":6851:6854   */\n      0x2100000000000000000000000000000000000000000000000000000000000000\n        /* \"#utility.yul\":6846:6848   */\n      0x20\n        /* \"#utility.yul\":6838:6844   */\n      dup3\n        /* \"#utility.yul\":6834:6849   */\n      add\n        /* \"#utility.yul\":6827:6855   */\n      mstore\n        /* \"#utility.yul\":6642:6862   */\n      pop\n      jump\t// out\n        /* \"#utility.yul\":6868:7038   */\n    tag_126:\n        /* \"#utility.yul\":7008:7030   */\n      0x696e73756666696369656e742d62616c616e6365000000000000000000000000\n        /* \"#utility.yul\":7004:7005   */\n      0x00\n        /* \"#utility.yul\":6996:7002   */\n      dup3\n        /* \"#utility.yul\":6992:7006   */\n      add\n        /* \"#utility.yul\":6985:7031   */\n      mstore\n        /* \"#utility.yul\":6868:7038   */\n      pop\n      jump\t// out\n        /* \"#utility.yul\":7044:7208   */\n    tag_131:\n        /* \"#utility.yul\":7184:7200   */\n      0x4e6f742d617574686f72697a6564000000000000000000000000000000000000\n        /* \"#utility.yul\":7180:7181   */\n      0x00\n        /* \"#utility.yul\":7172:7178   */\n      dup3\n        /* \"#utility.yul\":7168:7182   */\n      add\n        /* \"#utility.yul\":7161:7201   */\n      mstore\n        /* \"#utility.yul\":7044:7208   */\n      pop\n      jump\t// out\n        /* \"#utility.yul\":7214:7336   */\n    tag_91:\n        /* \"#utility.yul\":7287:7311   */\n      tag_178\n        /* \"#utility.yul\":7305:7310   */\n      dup2\n        /* \"#utility.yul\":7287:7311   */\n      tag_115\n      jump\t// in\n    tag_178:\n        /* \"#utility.yul\":7280:7285   */\n      dup2\n        /* \"#utility.yul\":7277:7312   */\n      eq\n        /* \"#utility.yul\":7267:7330   */\n      tag_179\n      jumpi\n        /* \"#utility.yul\":7326:7327   */\n      0x00\n        /* \"#utility.yul\":7323:7324   */\n      dup1\n        /* \"#utility.yul\":7316:7328   */\n      revert\n        /* \"#utility.yul\":7267:7330   */\n    tag_179:\n        /* \"#utility.yul\":7214:7336   */\n      pop\n      jump\t// out\n        /* \"#utility.yul\":7342:7464   */\n    tag_95:\n        /* \"#utility.yul\":7415:7439   */\n      tag_181\n        /* \"#utility.yul\":7433:7438   */\n      dup2\n        /* \"#utility.yul\":7415:7439   */\n      tag_135\n      jump\t// in\n    tag_181:\n        /* \"#utility.yul\":7408:7413   */\n      dup2\n        /* \"#utility.yul\":7405:7440   */\n      eq\n        /* \"#utility.yul\":7395:7458   */\n      tag_182\n      jumpi\n        /* \"#utility.yul\":7454:7455   */\n      0x00\n        /* \"#utility.yul\":7451:7452   */\n      dup1\n        /* \"#utility.yul\":7444:7456   */\n      revert\n        /* \"#utility.yul\":7395:7458   */\n    tag_182:\n        /* \"#utility.yul\":7342:7464   */\n      pop\n      jump\t// out\n\n    auxdata: 0xa2646970667358221220e872d56e016437714fe9f002d0b3d2cc521ab129a15969c95074ac8afd4253a964736f6c63430008070033\n}\n\nsub_1: assembly {\n        /* \"contracts/Coin_contract.sol\":154:2928  contract StableCoin \r... */\n      mstore(0x40, 0x80)\n        /* \"contracts/Coin_contract.sol\":1152:1238  constructor() \r... */\n      callvalue\n      dup1\n      iszero\n      tag_1\n      jumpi\n      0x00\n      dup1\n      revert\n    tag_1:\n      pop\n        /* \"contracts/Coin_contract.sol\":1203:1204  1 */\n      0x01\n        /* \"contracts/Coin_contract.sol\":1183:1188  wards */\n      0x00\n        /* \"contracts/Coin_contract.sol\":1183:1200  wards[msg.sender] */\n      dup1\n        /* \"contracts/Coin_contract.sol\":1189:1199  msg.sender */\n      caller\n        /* \"contracts/Coin_contract.sol\":1183:1200  wards[msg.sender] */\n      0xffffffffffffffffffffffffffffffffffffffff\n      and\n      0xffffffffffffffffffffffffffffffffffffffff\n      and\n      dup2\n      mstore\n      0x20\n      add\n      swap1\n      dup2\n      mstore\n      0x20\n      add\n      0x00\n      keccak256\n        /* \"contracts/Coin_contract.sol\":1183:1204  wards[msg.sender] = 1 */\n      dup2\n      swap1\n      sstore\n      pop\n        /* \"contracts/Coin_contract.sol\":1229:1230  0 */\n      0x00\n        /* \"contracts/Coin_contract.sol\":1215:1226  totalSupply */\n      0x01\n        /* \"contracts/Coin_contract.sol\":1215:1230  totalSupply = 0 */\n      dup2\n      swap1\n      sstore\n      pop\n        /* \"contracts/Coin_contract.sol\":154:2928  contract StableCoin \r... */\n      dataSize(sub_0)\n      dup1\n      dataOffset(sub_0)\n      0x00\n      codecopy\n      0x00\n      return\n    stop\n\n    sub_0: assembly {\n            /* \"contracts/Coin_contract.sol\":154:2928  contract StableCoin \r... */\n          mstore(0x40, 0x80)\n          callvalue\n          dup1\n          iszero\n          tag_1\n          jumpi\n          0x00\n          dup1\n          revert\n        tag_1:\n          pop\n          jumpi(tag_2, lt(calldatasize, 0x04))\n          shr(0xe0, calldataload(0x00))\n          dup1\n          0x70a08231\n          gt\n          tag_17\n          jumpi\n          dup1\n          0x9dc29fac\n          gt\n          tag_18\n          jumpi\n          dup1\n          0x9dc29fac\n          eq\n          tag_13\n          jumpi\n          dup1\n          0xa9059cbb\n          eq\n          tag_14\n          jumpi\n          dup1\n          0xbf353dbb\n          eq\n          tag_15\n          jumpi\n          dup1\n          0xdd62ed3e\n          eq\n          tag_16\n          jumpi\n          jump(tag_2)\n        tag_18:\n          dup1\n          0x70a08231\n          eq\n          tag_10\n          jumpi\n          dup1\n          0x7ecebe00\n          eq\n          tag_11\n          jumpi\n          dup1\n          0x95d89b41\n          eq\n          tag_12\n          jumpi\n          jump(tag_2)\n        tag_17:\n          dup1\n          0x23b872dd\n          gt\n          tag_19\n          jumpi\n          dup1\n          0x23b872dd\n          eq\n          tag_6\n          jumpi\n          dup1\n          0x313ce567\n          eq\n          tag_7\n          jumpi\n          dup1\n          0x40c10f19\n          eq\n          tag_8\n          jumpi\n          dup1\n          0x54fd4d50\n          eq\n          tag_9\n          jumpi\n          jump(tag_2)\n        tag_19:\n          dup1\n          0x06fdde03\n          eq\n          tag_3\n          jumpi\n          dup1\n          0x095ea7b3\n          eq\n          tag_4\n          jumpi\n          dup1\n          0x18160ddd\n          eq\n          tag_5\n          jumpi\n        tag_2:\n          0x00\n          dup1\n          revert\n            /* \"contracts/Coin_contract.sol\":357:397  string public constant name = \"DotaCoin\" */\n        tag_3:\n          tag_20\n          tag_21\n          jump\t// in\n        tag_20:\n          mload(0x40)\n          tag_22\n          swap2\n          swap1\n          tag_23\n          jump\t// in\n        tag_22:\n          mload(0x40)\n          dup1\n          swap2\n          sub\n          swap1\n          return\n            /* \"contracts/Coin_contract.sol\":2026:2246  function approve(address delegate, uint numTokens) public returns (bool) \r... */\n        tag_4:\n          tag_24\n          0x04\n          dup1\n          calldatasize\n          sub\n          dup2\n          add\n          swap1\n          tag_25\n          swap2\n          swap1\n          tag_26\n          jump\t// in\n        tag_25:\n          tag_27\n          jump\t// in\n        tag_24:\n          mload(0x40)\n          tag_28\n          swap2\n          swap1\n          tag_29\n          jump\t// in\n        tag_28:\n          mload(0x40)\n          dup1\n          swap2\n          sub\n          swap1\n          return\n            /* \"contracts/Coin_contract.sol\":532:558  uint256 public totalSupply */\n        tag_5:\n          tag_30\n          tag_31\n          jump\t// in\n        tag_30:\n          mload(0x40)\n          tag_32\n          swap2\n          swap1\n          tag_33\n          jump\t// in\n        tag_32:\n          mload(0x40)\n          dup1\n          swap2\n          sub\n          swap1\n          return\n            /* \"contracts/Coin_contract.sol\":1407:2018  function transferFrom(address owner, address buyer, uint numTokens) public returns (bool) \r... */\n        tag_6:\n          tag_34\n          0x04\n          dup1\n          calldatasize\n          sub\n          dup2\n          add\n          swap1\n          tag_35\n          swap2\n          swap1\n          tag_36\n          jump\t// in\n        tag_35:\n          tag_37\n          jump\t// in\n        tag_34:\n          mload(0x40)\n          tag_38\n          swap2\n          swap1\n          tag_29\n          jump\t// in\n        tag_38:\n          mload(0x40)\n          dup1\n          swap2\n          sub\n          swap1\n          return\n            /* \"contracts/Coin_contract.sol\":491:525  uint8 public constant decimals = 0 */\n        tag_7:\n          tag_39\n          tag_40\n          jump\t// in\n        tag_39:\n          mload(0x40)\n          tag_41\n          swap2\n          swap1\n          tag_42\n          jump\t// in\n        tag_41:\n          mload(0x40)\n          dup1\n          swap2\n          sub\n          swap1\n          return\n            /* \"contracts/Coin_contract.sol\":2283:2492  function mint(address usr, uint wad) external auth \r... */\n        tag_8:\n          tag_43\n          0x04\n          dup1\n          calldatasize\n          sub\n          dup2\n          add\n          swap1\n          tag_44\n          swap2\n          swap1\n          tag_26\n          jump\t// in\n        tag_44:\n          tag_45\n          jump\t// in\n        tag_43:\n          stop\n            /* \"contracts/Coin_contract.sol\":447:484  string public constant version  = \"1\" */\n        tag_9:\n          tag_46\n          tag_47\n          jump\t// in\n        tag_46:\n          mload(0x40)\n          tag_48\n          swap2\n          swap1\n          tag_23\n          jump\t// in\n        tag_48:\n          mload(0x40)\n          dup1\n          swap2\n          sub\n          swap1\n          return\n            /* \"contracts/Coin_contract.sol\":567:608  mapping(address => uint) public balanceOf */\n        tag_10:\n          tag_49\n          0x04\n          dup1\n          calldatasize\n          sub\n          dup2\n          add\n          swap1\n          tag_50\n          swap2\n          swap1\n          tag_51\n          jump\t// in\n        tag_50:\n          tag_52\n          jump\t// in\n        tag_49:\n          mload(0x40)\n          tag_53\n          swap2\n          swap1\n          tag_33\n          jump\t// in\n        tag_53:\n          mload(0x40)\n          dup1\n          swap2\n          sub\n          swap1\n          return\n            /* \"contracts/Coin_contract.sol\":684:723  mapping (address => uint) public nonces */\n        tag_11:\n          tag_54\n          0x04\n          dup1\n          calldatasize\n          sub\n          dup2\n          add\n          swap1\n          tag_55\n          swap2\n          swap1\n          tag_51\n          jump\t// in\n        tag_55:\n          tag_56\n          jump\t// in\n        tag_54:\n          mload(0x40)\n          tag_57\n          swap2\n          swap1\n          tag_33\n          jump\t// in\n        tag_57:\n          mload(0x40)\n          dup1\n          swap2\n          sub\n          swap1\n          return\n            /* \"contracts/Coin_contract.sol\":404:440  string public constant symbol = \"DC\" */\n        tag_12:\n          tag_58\n          tag_59\n          jump\t// in\n        tag_58:\n          mload(0x40)\n          tag_60\n          swap2\n          swap1\n          tag_23\n          jump\t// in\n        tag_60:\n          mload(0x40)\n          dup1\n          swap2\n          sub\n          swap1\n          return\n            /* \"contracts/Coin_contract.sol\":2498:2925  function burn(address usr, uint wad) external auth \r... */\n        tag_13:\n          tag_61\n          0x04\n          dup1\n          calldatasize\n          sub\n          dup2\n          add\n          swap1\n          tag_62\n          swap2\n          swap1\n          tag_26\n          jump\t// in\n        tag_62:\n          tag_63\n          jump\t// in\n        tag_61:\n          stop\n            /* \"contracts/Coin_contract.sol\":1246:1399  function transfer(address receiver, uint numTokens) external returns (bool) \r... */\n        tag_14:\n          tag_64\n          0x04\n          dup1\n          calldatasize\n          sub\n          dup2\n          add\n          swap1\n          tag_65\n          swap2\n          swap1\n          tag_26\n          jump\t// in\n        tag_65:\n          tag_66\n          jump\t// in\n        tag_64:\n          mload(0x40)\n          tag_67\n          swap2\n          swap1\n          tag_29\n          jump\t// in\n        tag_67:\n          mload(0x40)\n          dup1\n          swap2\n          sub\n          swap1\n          return\n            /* \"contracts/Coin_contract.sol\":204:242  mapping (address => uint) public wards */\n        tag_15:\n          tag_68\n          0x04\n          dup1\n          calldatasize\n          sub\n          dup2\n          add\n          swap1\n          tag_69\n          swap2\n          swap1\n          tag_51\n          jump\t// in\n        tag_69:\n          tag_70\n          jump\t// in\n        tag_68:\n          mload(0x40)\n          tag_71\n          swap2\n          swap1\n          tag_33\n          jump\t// in\n        tag_71:\n          mload(0x40)\n          dup1\n          swap2\n          sub\n          swap1\n          return\n            /* \"contracts/Coin_contract.sol\":615:677  mapping(address => mapping (address => uint)) public allowance */\n        tag_16:\n          tag_72\n          0x04\n          dup1\n          calldatasize\n          sub\n          dup2\n          add\n          swap1\n          tag_73\n          swap2\n          swap1\n          tag_74\n          jump\t// in\n        tag_73:\n          tag_75\n          jump\t// in\n        tag_72:\n          mload(0x40)\n          tag_76\n          swap2\n          swap1\n          tag_33\n          jump\t// in\n        tag_76:\n          mload(0x40)\n          dup1\n          swap2\n          sub\n          swap1\n          return\n            /* \"contracts/Coin_contract.sol\":357:397  string public constant name = \"DotaCoin\" */\n        tag_21:\n          mload(0x40)\n          dup1\n          0x40\n          add\n          0x40\n          mstore\n          dup1\n          0x08\n          dup2\n          mstore\n          0x20\n          add\n          0x446f7461436f696e000000000000000000000000000000000000000000000000\n          dup2\n          mstore\n          pop\n          dup2\n          jump\t// out\n            /* \"contracts/Coin_contract.sol\":2026:2246  function approve(address delegate, uint numTokens) public returns (bool) \r... */\n        tag_27:\n            /* \"contracts/Coin_contract.sol\":2093:2097  bool */\n          0x00\n            /* \"contracts/Coin_contract.sol\":2150:2159  numTokens */\n          dup2\n            /* \"contracts/Coin_contract.sol\":2116:2125  allowance */\n          0x03\n            /* \"contracts/Coin_contract.sol\":2116:2137  allowance[msg.sender] */\n          0x00\n            /* \"contracts/Coin_contract.sol\":2126:2136  msg.sender */\n          caller\n            /* \"contracts/Coin_contract.sol\":2116:2137  allowance[msg.sender] */\n          0xffffffffffffffffffffffffffffffffffffffff\n          and\n          0xffffffffffffffffffffffffffffffffffffffff\n          and\n          dup2\n          mstore\n          0x20\n          add\n          swap1\n          dup2\n          mstore\n          0x20\n          add\n          0x00\n          keccak256\n            /* \"contracts/Coin_contract.sol\":2116:2147  allowance[msg.sender][delegate] */\n          0x00\n            /* \"contracts/Coin_contract.sol\":2138:2146  delegate */\n          dup6\n            /* \"contracts/Coin_contract.sol\":2116:2147  allowance[msg.sender][delegate] */\n          0xffffffffffffffffffffffffffffffffffffffff\n          and\n          0xffffffffffffffffffffffffffffffffffffffff\n          and\n          dup2\n          mstore\n          0x20\n          add\n          swap1\n          dup2\n          mstore\n          0x20\n          add\n          0x00\n          keccak256\n            /* \"contracts/Coin_contract.sol\":2116:2159  allowance[msg.sender][delegate] = numTokens */\n          dup2\n          swap1\n          sstore\n          pop\n            /* \"contracts/Coin_contract.sol\":2196:2204  delegate */\n          dup3\n            /* \"contracts/Coin_contract.sol\":2175:2216  Approval(msg.sender, delegate, numTokens) */\n          0xffffffffffffffffffffffffffffffffffffffff\n          and\n            /* \"contracts/Coin_contract.sol\":2184:2194  msg.sender */\n          caller\n            /* \"contracts/Coin_contract.sol\":2175:2216  Approval(msg.sender, delegate, numTokens) */\n          0xffffffffffffffffffffffffffffffffffffffff\n          and\n          0x8c5be1e5ebec7d5bd14f71427d1e84f3dd0314c0f7b2291e5b200ac8c7c3b925\n            /* \"contracts/Coin_contract.sol\":2206:2215  numTokens */\n          dup5\n            /* \"contracts/Coin_contract.sol\":2175:2216  Approval(msg.sender, delegate, numTokens) */\n          mload(0x40)\n          tag_78\n          swap2\n          swap1\n          tag_33\n          jump\t// in\n        tag_78:\n          mload(0x40)\n          dup1\n          swap2\n          sub\n          swap1\n          log3\n            /* \"contracts/Coin_contract.sol\":2234:2238  true */\n          0x01\n            /* \"contracts/Coin_contract.sol\":2227:2238  return true */\n          swap1\n          pop\n            /* \"contracts/Coin_contract.sol\":2026:2246  function approve(address delegate, uint numTokens) public returns (bool) \r... */\n          swap3\n          swap2\n          pop\n          pop\n          jump\t// out\n            /* \"contracts/Coin_contract.sol\":532:558  uint256 public totalSupply */\n        tag_31:\n          sload(0x01)\n          dup2\n          jump\t// out\n            /* \"contracts/Coin_contract.sol\":1407:2018  function transferFrom(address owner, address buyer, uint numTokens) public returns (bool) \r... */\n        tag_37:\n            /* \"contracts/Coin_contract.sol\":1491:1495  bool */\n          0x00\n            /* \"contracts/Coin_contract.sol\":1535:1544  balanceOf */\n          0x02\n            /* \"contracts/Coin_contract.sol\":1535:1551  balanceOf[owner] */\n          0x00\n            /* \"contracts/Coin_contract.sol\":1545:1550  owner */\n          dup6\n            /* \"contracts/Coin_contract.sol\":1535:1551  balanceOf[owner] */\n          0xffffffffffffffffffffffffffffffffffffffff\n          and\n          0xffffffffffffffffffffffffffffffffffffffff\n          and\n          dup2\n          mstore\n          0x20\n          add\n          swap1\n          dup2\n          mstore\n          0x20\n          add\n          0x00\n          keccak256\n          sload\n            /* \"contracts/Coin_contract.sol\":1522:1531  numTokens */\n          dup3\n            /* \"contracts/Coin_contract.sol\":1522:1551  numTokens <= balanceOf[owner] */\n          gt\n          iszero\n            /* \"contracts/Coin_contract.sol\":1514:1576  require(numTokens <= balanceOf[owner], \"insufficient-balance\") */\n          tag_80\n          jumpi\n          mload(0x40)\n          0x08c379a000000000000000000000000000000000000000000000000000000000\n          dup2\n          mstore\n          0x04\n          add\n          tag_81\n          swap1\n          tag_82\n          jump\t// in\n        tag_81:\n          mload(0x40)\n          dup1\n          swap2\n          sub\n          swap1\n          revert\n        tag_80:\n            /* \"contracts/Coin_contract.sol\":1600:1610  msg.sender */\n          caller\n            /* \"contracts/Coin_contract.sol\":1591:1610  owner != msg.sender */\n          0xffffffffffffffffffffffffffffffffffffffff\n          and\n            /* \"contracts/Coin_contract.sol\":1591:1596  owner */\n          dup5\n            /* \"contracts/Coin_contract.sol\":1591:1610  owner != msg.sender */\n          0xffffffffffffffffffffffffffffffffffffffff\n          and\n          eq\n            /* \"contracts/Coin_contract.sol\":1587:1814  if (owner != msg.sender)\r... */\n          tag_83\n          jumpi\n            /* \"contracts/Coin_contract.sol\":1657:1666  allowance */\n          0x03\n            /* \"contracts/Coin_contract.sol\":1657:1673  allowance[owner] */\n          0x00\n            /* \"contracts/Coin_contract.sol\":1667:1672  owner */\n          dup6\n            /* \"contracts/Coin_contract.sol\":1657:1673  allowance[owner] */\n          0xffffffffffffffffffffffffffffffffffffffff\n          and\n          0xffffffffffffffffffffffffffffffffffffffff\n          and\n          dup2\n          mstore\n          0x20\n          add\n          swap1\n          dup2\n          mstore\n          0x20\n          add\n          0x00\n          keccak256\n            /* \"contracts/Coin_contract.sol\":1657:1685  allowance[owner][msg.sender] */\n          0x00\n            /* \"contracts/Coin_contract.sol\":1674:1684  msg.sender */\n          caller\n            /* \"contracts/Coin_contract.sol\":1657:1685  allowance[owner][msg.sender] */\n          0xffffffffffffffffffffffffffffffffffffffff\n          and\n          0xffffffffffffffffffffffffffffffffffffffff\n          and\n          dup2\n          mstore\n          0x20\n          add\n          swap1\n          dup2\n          mstore\n          0x20\n          add\n          0x00\n          keccak256\n          sload\n            /* \"contracts/Coin_contract.sol\":1644:1653  numTokens */\n          dup3\n            /* \"contracts/Coin_contract.sol\":1644:1685  numTokens <= allowance[owner][msg.sender] */\n          gt\n          iszero\n            /* \"contracts/Coin_contract.sol\":1636:1712  require(numTokens <= allowance[owner][msg.sender], \"insufficient-allowance\") */\n          tag_84\n          jumpi\n          mload(0x40)\n          0x08c379a000000000000000000000000000000000000000000000000000000000\n          dup2\n          mstore\n          0x04\n          add\n          tag_85\n          swap1\n          tag_86\n          jump\t// in\n        tag_85:\n          mload(0x40)\n          dup1\n          swap2\n          sub\n          swap1\n          revert\n        tag_84:\n            /* \"contracts/Coin_contract.sol\":1758:1802  sub(allowance[owner][msg.sender], numTokens) */\n          tag_87\n            /* \"contracts/Coin_contract.sol\":1762:1771  allowance */\n          0x03\n            /* \"contracts/Coin_contract.sol\":1762:1778  allowance[owner] */\n          0x00\n            /* \"contracts/Coin_contract.sol\":1772:1777  owner */\n          dup7\n            /* \"contracts/Coin_contract.sol\":1762:1778  allowance[owner] */\n          0xffffffffffffffffffffffffffffffffffffffff\n          and\n          0xffffffffffffffffffffffffffffffffffffffff\n          and\n          dup2\n          mstore\n          0x20\n          add\n          swap1\n          dup2\n          mstore\n          0x20\n          add\n          0x00\n          keccak256\n            /* \"contracts/Coin_contract.sol\":1762:1790  allowance[owner][msg.sender] */\n          0x00\n            /* \"contracts/Coin_contract.sol\":1779:1789  msg.sender */\n          caller\n            /* \"contracts/Coin_contract.sol\":1762:1790  allowance[owner][msg.sender] */\n          0xffffffffffffffffffffffffffffffffffffffff\n          and\n          0xffffffffffffffffffffffffffffffffffffffff\n          and\n          dup2\n          mstore\n          0x20\n          add\n          swap1\n          dup2\n          mstore\n          0x20\n          add\n          0x00\n          keccak256\n          sload\n            /* \"contracts/Coin_contract.sol\":1792:1801  numTokens */\n          dup4\n            /* \"contracts/Coin_contract.sol\":1758:1761  sub */\n          tag_88\n            /* \"contracts/Coin_contract.sol\":1758:1802  sub(allowance[owner][msg.sender], numTokens) */\n          jump\t// in\n        tag_87:\n            /* \"contracts/Coin_contract.sol\":1727:1736  allowance */\n          0x03\n            /* \"contracts/Coin_contract.sol\":1727:1743  allowance[owner] */\n          0x00\n            /* \"contracts/Coin_contract.sol\":1737:1742  owner */\n          dup7\n            /* \"contracts/Coin_contract.sol\":1727:1743  allowance[owner] */\n          0xffffffffffffffffffffffffffffffffffffffff\n          and\n          0xffffffffffffffffffffffffffffffffffffffff\n          and\n          dup2\n          mstore\n          0x20\n          add\n          swap1\n          dup2\n          mstore\n          0x20\n          add\n          0x00\n          keccak256\n            /* \"contracts/Coin_contract.sol\":1727:1755  allowance[owner][msg.sender] */\n          0x00\n            /* \"contracts/Coin_contract.sol\":1744:1754  msg.sender */\n          caller\n            /* \"contracts/Coin_contract.sol\":1727:1755  allowance[owner][msg.sender] */\n          0xffffffffffffffffffffffffffffffffffffffff\n          and\n          0xffffffffffffffffffffffffffffffffffffffff\n          and\n          dup2\n          mstore\n          0x20\n          add\n          swap1\n          dup2\n          mstore\n          0x20\n          add\n          0x00\n          keccak256\n            /* \"contracts/Coin_contract.sol\":1727:1802  allowance[owner][msg.sender] = sub(allowance[owner][msg.sender], numTokens) */\n          dup2\n          swap1\n          sstore\n          pop\n            /* \"contracts/Coin_contract.sol\":1587:1814  if (owner != msg.sender)\r... */\n        tag_83:\n            /* \"contracts/Coin_contract.sol\":1843:1876  sub( balanceOf[owner], numTokens) */\n          tag_89\n            /* \"contracts/Coin_contract.sol\":1848:1857  balanceOf */\n          0x02\n            /* \"contracts/Coin_contract.sol\":1848:1864  balanceOf[owner] */\n          0x00\n            /* \"contracts/Coin_contract.sol\":1858:1863  owner */\n          dup7\n            /* \"contracts/Coin_contract.sol\":1848:1864  balanceOf[owner] */\n          0xffffffffffffffffffffffffffffffffffffffff\n          and\n          0xffffffffffffffffffffffffffffffffffffffff\n          and\n          dup2\n          mstore\n          0x20\n          add\n          swap1\n          dup2\n          mstore\n          0x20\n          add\n          0x00\n          keccak256\n          sload\n            /* \"contracts/Coin_contract.sol\":1866:1875  numTokens */\n          dup4\n            /* \"contracts/Coin_contract.sol\":1843:1846  sub */\n          tag_88\n            /* \"contracts/Coin_contract.sol\":1843:1876  sub( balanceOf[owner], numTokens) */\n          jump\t// in\n        tag_89:\n            /* \"contracts/Coin_contract.sol\":1824:1833  balanceOf */\n          0x02\n            /* \"contracts/Coin_contract.sol\":1824:1840  balanceOf[owner] */\n          0x00\n            /* \"contracts/Coin_contract.sol\":1834:1839  owner */\n          dup7\n            /* \"contracts/Coin_contract.sol\":1824:1840  balanceOf[owner] */\n          0xffffffffffffffffffffffffffffffffffffffff\n          and\n          0xffffffffffffffffffffffffffffffffffffffff\n          and\n          dup2\n          mstore\n          0x20\n          add\n          swap1\n          dup2\n          mstore\n          0x20\n          add\n          0x00\n          keccak256\n            /* \"contracts/Coin_contract.sol\":1824:1876  balanceOf[owner] = sub( balanceOf[owner], numTokens) */\n          dup2\n          swap1\n          sstore\n          pop\n            /* \"contracts/Coin_contract.sol\":1906:1939  add( balanceOf[buyer], numTokens) */\n          tag_90\n            /* \"contracts/Coin_contract.sol\":1911:1920  balanceOf */\n          0x02\n            /* \"contracts/Coin_contract.sol\":1911:1927  balanceOf[buyer] */\n          0x00\n            /* \"contracts/Coin_contract.sol\":1921:1926  buyer */\n          dup6\n            /* \"contracts/Coin_contract.sol\":1911:1927  balanceOf[buyer] */\n          0xffffffffffffffffffffffffffffffffffffffff\n          and\n          0xffffffffffffffffffffffffffffffffffffffff\n          and\n          dup2\n          mstore\n          0x20\n          add\n          swap1\n          dup2\n          mstore\n          0x20\n          add\n          0x00\n          keccak256\n          sload\n            /* \"contracts/Coin_contract.sol\":1929:1938  numTokens */\n          dup4\n            /* \"contracts/Coin_contract.sol\":1906:1909  add */\n          tag_91\n            /* \"contracts/Coin_contract.sol\":1906:1939  add( balanceOf[buyer], numTokens) */\n          jump\t// in\n        tag_90:\n            /* \"contracts/Coin_contract.sol\":1887:1896  balanceOf */\n          0x02\n            /* \"contracts/Coin_contract.sol\":1887:1903  balanceOf[buyer] */\n          0x00\n            /* \"contracts/Coin_contract.sol\":1897:1902  buyer */\n          dup6\n            /* \"contracts/Coin_contract.sol\":1887:1903  balanceOf[buyer] */\n          0xffffffffffffffffffffffffffffffffffffffff\n          and\n          0xffffffffffffffffffffffffffffffffffffffff\n          and\n          dup2\n          mstore\n          0x20\n          add\n          swap1\n          dup2\n          mstore\n          0x20\n          add\n          0x00\n          keccak256\n            /* \"contracts/Coin_contract.sol\":1887:1939  balanceOf[buyer] = add( balanceOf[buyer], numTokens) */\n          dup2\n          swap1\n          sstore\n          pop\n            /* \"contracts/Coin_contract.sol\":1971:1976  buyer */\n          dup3\n            /* \"contracts/Coin_contract.sol\":1955:1988  Transfer(owner, buyer, numTokens) */\n          0xffffffffffffffffffffffffffffffffffffffff\n          and\n            /* \"contracts/Coin_contract.sol\":1964:1969  owner */\n          dup5\n            /* \"contracts/Coin_contract.sol\":1955:1988  Transfer(owner, buyer, numTokens) */\n          0xffffffffffffffffffffffffffffffffffffffff\n          and\n          0xddf252ad1be2c89b69c2b068fc378daa952ba7f163c4a11628f55a4df523b3ef\n            /* \"contracts/Coin_contract.sol\":1978:1987  numTokens */\n          dup5\n            /* \"contracts/Coin_contract.sol\":1955:1988  Transfer(owner, buyer, numTokens) */\n          mload(0x40)\n          tag_92\n          swap2\n          swap1\n          tag_33\n          jump\t// in\n        tag_92:\n          mload(0x40)\n          dup1\n          swap2\n          sub\n          swap1\n          log3\n            /* \"contracts/Coin_contract.sol\":2006:2010  true */\n          0x01\n            /* \"contracts/Coin_contract.sol\":1999:2010  return true */\n          swap1\n          pop\n            /* \"contracts/Coin_contract.sol\":1407:2018  function transferFrom(address owner, address buyer, uint numTokens) public returns (bool) \r... */\n          swap4\n          swap3\n          pop\n          pop\n          pop\n          jump\t// out\n            /* \"contracts/Coin_contract.sol\":491:525  uint8 public constant decimals = 0 */\n        tag_40:\n            /* \"contracts/Coin_contract.sol\":524:525  0 */\n          0x00\n            /* \"contracts/Coin_contract.sol\":491:525  uint8 public constant decimals = 0 */\n          dup2\n          jump\t// out\n            /* \"contracts/Coin_contract.sol\":2283:2492  function mint(address usr, uint wad) external auth \r... */\n        tag_45:\n            /* \"contracts/Coin_contract.sol\":309:310  1 */\n          0x01\n            /* \"contracts/Coin_contract.sol\":288:293  wards */\n          0x00\n            /* \"contracts/Coin_contract.sol\":288:305  wards[msg.sender] */\n          dup1\n            /* \"contracts/Coin_contract.sol\":294:304  msg.sender */\n          caller\n            /* \"contracts/Coin_contract.sol\":288:305  wards[msg.sender] */\n          0xffffffffffffffffffffffffffffffffffffffff\n          and\n          0xffffffffffffffffffffffffffffffffffffffff\n          and\n          dup2\n          mstore\n          0x20\n          add\n          swap1\n          dup2\n          mstore\n          0x20\n          add\n          0x00\n          keccak256\n          sload\n            /* \"contracts/Coin_contract.sol\":288:310  wards[msg.sender] == 1 */\n          eq\n            /* \"contracts/Coin_contract.sol\":280:329  require(wards[msg.sender] == 1, \"Not-authorized\") */\n          tag_94\n          jumpi\n          mload(0x40)\n          0x08c379a000000000000000000000000000000000000000000000000000000000\n          dup2\n          mstore\n          0x04\n          add\n          tag_95\n          swap1\n          tag_96\n          jump\t// in\n        tag_95:\n          mload(0x40)\n          dup1\n          swap2\n          sub\n          swap1\n          revert\n        tag_94:\n            /* \"contracts/Coin_contract.sol\":2368:2392  add(balanceOf[usr], wad) */\n          tag_98\n            /* \"contracts/Coin_contract.sol\":2372:2381  balanceOf */\n          0x02\n            /* \"contracts/Coin_contract.sol\":2372:2386  balanceOf[usr] */\n          0x00\n            /* \"contracts/Coin_contract.sol\":2382:2385  usr */\n          dup5\n            /* \"contracts/Coin_contract.sol\":2372:2386  balanceOf[usr] */\n          0xffffffffffffffffffffffffffffffffffffffff\n          and\n          0xffffffffffffffffffffffffffffffffffffffff\n          and\n          dup2\n          mstore\n          0x20\n          add\n          swap1\n          dup2\n          mstore\n          0x20\n          add\n          0x00\n          keccak256\n          sload\n            /* \"contracts/Coin_contract.sol\":2388:2391  wad */\n          dup3\n            /* \"contracts/Coin_contract.sol\":2368:2371  add */\n          tag_91\n            /* \"contracts/Coin_contract.sol\":2368:2392  add(balanceOf[usr], wad) */\n          jump\t// in\n        tag_98:\n            /* \"contracts/Coin_contract.sol\":2351:2360  balanceOf */\n          0x02\n            /* \"contracts/Coin_contract.sol\":2351:2365  balanceOf[usr] */\n          0x00\n            /* \"contracts/Coin_contract.sol\":2361:2364  usr */\n          dup5\n            /* \"contracts/Coin_contract.sol\":2351:2365  balanceOf[usr] */\n          0xffffffffffffffffffffffffffffffffffffffff\n          and\n          0xffffffffffffffffffffffffffffffffffffffff\n          and\n          dup2\n          mstore\n          0x20\n          add\n          swap1\n          dup2\n          mstore\n          0x20\n          add\n          0x00\n          keccak256\n            /* \"contracts/Coin_contract.sol\":2351:2392  balanceOf[usr] = add(balanceOf[usr], wad) */\n          dup2\n          swap1\n          sstore\n          pop\n            /* \"contracts/Coin_contract.sol\":2417:2438  add(totalSupply, wad) */\n          tag_99\n            /* \"contracts/Coin_contract.sol\":2421:2432  totalSupply */\n          sload(0x01)\n            /* \"contracts/Coin_contract.sol\":2434:2437  wad */\n          dup3\n            /* \"contracts/Coin_contract.sol\":2417:2420  add */\n          tag_91\n            /* \"contracts/Coin_contract.sol\":2417:2438  add(totalSupply, wad) */\n          jump\t// in\n        tag_99:\n            /* \"contracts/Coin_contract.sol\":2403:2414  totalSupply */\n          0x01\n            /* \"contracts/Coin_contract.sol\":2403:2438  totalSupply = add(totalSupply, wad) */\n          dup2\n          swap1\n          sstore\n          pop\n            /* \"contracts/Coin_contract.sol\":2475:2478  usr */\n          dup2\n            /* \"contracts/Coin_contract.sol\":2454:2484  Transfer(address(0), usr, wad) */\n          0xffffffffffffffffffffffffffffffffffffffff\n          and\n            /* \"contracts/Coin_contract.sol\":2471:2472  0 */\n          0x00\n            /* \"contracts/Coin_contract.sol\":2454:2484  Transfer(address(0), usr, wad) */\n          0xffffffffffffffffffffffffffffffffffffffff\n          and\n          0xddf252ad1be2c89b69c2b068fc378daa952ba7f163c4a11628f55a4df523b3ef\n            /* \"contracts/Coin_contract.sol\":2480:2483  wad */\n          dup4\n            /* \"contracts/Coin_contract.sol\":2454:2484  Transfer(address(0), usr, wad) */\n          mload(0x40)\n          tag_100\n          swap2\n          swap1\n          tag_33\n          jump\t// in\n        tag_100:\n          mload(0x40)\n          dup1\n          swap2\n          sub\n          swap1\n          log3\n            /* \"contracts/Coin_contract.sol\":2283:2492  function mint(address usr, uint wad) external auth \r... */\n          pop\n          pop\n          jump\t// out\n            /* \"contracts/Coin_contract.sol\":447:484  string public constant version  = \"1\" */\n        tag_47:\n          mload(0x40)\n          dup1\n          0x40\n          add\n          0x40\n          mstore\n          dup1\n          0x01\n          dup2\n          mstore\n          0x20\n          add\n          0x3100000000000000000000000000000000000000000000000000000000000000\n          dup2\n          mstore\n          pop\n          dup2\n          jump\t// out\n            /* \"contracts/Coin_contract.sol\":567:608  mapping(address => uint) public balanceOf */\n        tag_52:\n          mstore(0x20, 0x02)\n          dup1\n          0x00\n          mstore\n          keccak256(0x00, 0x40)\n          0x00\n          swap2\n          pop\n          swap1\n          pop\n          sload\n          dup2\n          jump\t// out\n            /* \"contracts/Coin_contract.sol\":684:723  mapping (address => uint) public nonces */\n        tag_56:\n          mstore(0x20, 0x04)\n          dup1\n          0x00\n          mstore\n          keccak256(0x00, 0x40)\n          0x00\n          swap2\n          pop\n          swap1\n          pop\n          sload\n          dup2\n          jump\t// out\n            /* \"contracts/Coin_contract.sol\":404:440  string public constant symbol = \"DC\" */\n        tag_59:\n          mload(0x40)\n          dup1\n          0x40\n          add\n          0x40\n          mstore\n          dup1\n          0x02\n          dup2\n          mstore\n          0x20\n          add\n          0x4443000000000000000000000000000000000000000000000000000000000000\n          dup2\n          mstore\n          pop\n          dup2\n          jump\t// out\n            /* \"contracts/Coin_contract.sol\":2498:2925  function burn(address usr, uint wad) external auth \r... */\n        tag_63:\n            /* \"contracts/Coin_contract.sol\":309:310  1 */\n          0x01\n            /* \"contracts/Coin_contract.sol\":288:293  wards */\n          0x00\n            /* \"contracts/Coin_contract.sol\":288:305  wards[msg.sender] */\n          dup1\n            /* \"contracts/Coin_contract.sol\":294:304  msg.sender */\n          caller\n            /* \"contracts/Coin_contract.sol\":288:305  wards[msg.sender] */\n          0xffffffffffffffffffffffffffffffffffffffff\n          and\n          0xffffffffffffffffffffffffffffffffffffffff\n          and\n          dup2\n          mstore\n          0x20\n          add\n          swap1\n          dup2\n          mstore\n          0x20\n          add\n          0x00\n          keccak256\n          sload\n            /* \"contracts/Coin_contract.sol\":288:310  wards[msg.sender] == 1 */\n          eq\n            /* \"contracts/Coin_contract.sol\":280:329  require(wards[msg.sender] == 1, \"Not-authorized\") */\n          tag_102\n          jumpi\n          mload(0x40)\n          0x08c379a000000000000000000000000000000000000000000000000000000000\n          dup2\n          mstore\n          0x04\n          add\n          tag_103\n          swap1\n          tag_96\n          jump\t// in\n        tag_103:\n          mload(0x40)\n          dup1\n          swap2\n          sub\n          swap1\n          revert\n        tag_102:\n            /* \"contracts/Coin_contract.sol\":2592:2595  wad */\n          dup1\n            /* \"contracts/Coin_contract.sol\":2574:2583  balanceOf */\n          0x02\n            /* \"contracts/Coin_contract.sol\":2574:2588  balanceOf[usr] */\n          0x00\n            /* \"contracts/Coin_contract.sol\":2584:2587  usr */\n          dup5\n            /* \"contracts/Coin_contract.sol\":2574:2588  balanceOf[usr] */\n          0xffffffffffffffffffffffffffffffffffffffff\n          and\n          0xffffffffffffffffffffffffffffffffffffffff\n          and\n          dup2\n          mstore\n          0x20\n          add\n          swap1\n          dup2\n          mstore\n          0x20\n          add\n          0x00\n          keccak256\n          sload\n            /* \"contracts/Coin_contract.sol\":2574:2595  balanceOf[usr] >= wad */\n          lt\n          iszero\n            /* \"contracts/Coin_contract.sol\":2566:2620  require(balanceOf[usr] >= wad, \"insufficient-balance\") */\n          tag_105\n          jumpi\n          mload(0x40)\n          0x08c379a000000000000000000000000000000000000000000000000000000000\n          dup2\n          mstore\n          0x04\n          add\n          tag_106\n          swap1\n          tag_82\n          jump\t// in\n        tag_106:\n          mload(0x40)\n          dup1\n          swap2\n          sub\n          swap1\n          revert\n        tag_105:\n            /* \"contracts/Coin_contract.sol\":2801:2825  sub(balanceOf[usr], wad) */\n          tag_107\n            /* \"contracts/Coin_contract.sol\":2805:2814  balanceOf */\n          0x02\n            /* \"contracts/Coin_contract.sol\":2805:2819  balanceOf[usr] */\n          0x00\n            /* \"contracts/Coin_contract.sol\":2815:2818  usr */\n          dup5\n            /* \"contracts/Coin_contract.sol\":2805:2819  balanceOf[usr] */\n          0xffffffffffffffffffffffffffffffffffffffff\n          and\n          0xffffffffffffffffffffffffffffffffffffffff\n          and\n          dup2\n          mstore\n          0x20\n          add\n          swap1\n          dup2\n          mstore\n          0x20\n          add\n          0x00\n          keccak256\n          sload\n            /* \"contracts/Coin_contract.sol\":2821:2824  wad */\n          dup3\n            /* \"contracts/Coin_contract.sol\":2801:2804  sub */\n          tag_88\n            /* \"contracts/Coin_contract.sol\":2801:2825  sub(balanceOf[usr], wad) */\n          jump\t// in\n        tag_107:\n            /* \"contracts/Coin_contract.sol\":2784:2793  balanceOf */\n          0x02\n            /* \"contracts/Coin_contract.sol\":2784:2798  balanceOf[usr] */\n          0x00\n            /* \"contracts/Coin_contract.sol\":2794:2797  usr */\n          dup5\n            /* \"contracts/Coin_contract.sol\":2784:2798  balanceOf[usr] */\n          0xffffffffffffffffffffffffffffffffffffffff\n          and\n          0xffffffffffffffffffffffffffffffffffffffff\n          and\n          dup2\n          mstore\n          0x20\n          add\n          swap1\n          dup2\n          mstore\n          0x20\n          add\n          0x00\n          keccak256\n            /* \"contracts/Coin_contract.sol\":2784:2825  balanceOf[usr] = sub(balanceOf[usr], wad) */\n          dup2\n          swap1\n          sstore\n          pop\n            /* \"contracts/Coin_contract.sol\":2850:2871  sub(totalSupply, wad) */\n          tag_108\n            /* \"contracts/Coin_contract.sol\":2854:2865  totalSupply */\n          sload(0x01)\n            /* \"contracts/Coin_contract.sol\":2867:2870  wad */\n          dup3\n            /* \"contracts/Coin_contract.sol\":2850:2853  sub */\n          tag_88\n            /* \"contracts/Coin_contract.sol\":2850:2871  sub(totalSupply, wad) */\n          jump\t// in\n        tag_108:\n            /* \"contracts/Coin_contract.sol\":2836:2847  totalSupply */\n          0x01\n            /* \"contracts/Coin_contract.sol\":2836:2871  totalSupply = sub(totalSupply, wad) */\n          dup2\n          swap1\n          sstore\n          pop\n            /* \"contracts/Coin_contract.sol\":2909:2910  0 */\n          0x00\n            /* \"contracts/Coin_contract.sol\":2887:2917  Transfer(usr, address(0), wad) */\n          0xffffffffffffffffffffffffffffffffffffffff\n          and\n            /* \"contracts/Coin_contract.sol\":2896:2899  usr */\n          dup3\n            /* \"contracts/Coin_contract.sol\":2887:2917  Transfer(usr, address(0), wad) */\n          0xffffffffffffffffffffffffffffffffffffffff\n          and\n          0xddf252ad1be2c89b69c2b068fc378daa952ba7f163c4a11628f55a4df523b3ef\n            /* \"contracts/Coin_contract.sol\":2913:2916  wad */\n          dup4\n            /* \"contracts/Coin_contract.sol\":2887:2917  Transfer(usr, address(0), wad) */\n          mload(0x40)\n          tag_109\n          swap2\n          swap1\n          tag_33\n          jump\t// in\n        tag_109:\n          mload(0x40)\n          dup1\n          swap2\n          sub\n          swap1\n          log3\n            /* \"contracts/Coin_contract.sol\":2498:2925  function burn(address usr, uint wad) external auth \r... */\n          pop\n          pop\n          jump\t// out\n            /* \"contracts/Coin_contract.sol\":1246:1399  function transfer(address receiver, uint numTokens) external returns (bool) \r... */\n        tag_66:\n            /* \"contracts/Coin_contract.sol\":1316:1320  bool */\n          0x00\n            /* \"contracts/Coin_contract.sol\":1346:1391  transferFrom(msg.sender, receiver, numTokens) */\n          tag_111\n            /* \"contracts/Coin_contract.sol\":1359:1369  msg.sender */\n          caller\n            /* \"contracts/Coin_contract.sol\":1371:1379  receiver */\n          dup5\n            /* \"contracts/Coin_contract.sol\":1381:1390  numTokens */\n          dup5\n            /* \"contracts/Coin_contract.sol\":1346:1358  transferFrom */\n          tag_37\n            /* \"contracts/Coin_contract.sol\":1346:1391  transferFrom(msg.sender, receiver, numTokens) */\n          jump\t// in\n        tag_111:\n            /* \"contracts/Coin_contract.sol\":1339:1391  return transferFrom(msg.sender, receiver, numTokens) */\n          swap1\n          pop\n            /* \"contracts/Coin_contract.sol\":1246:1399  function transfer(address receiver, uint numTokens) external returns (bool) \r... */\n          swap3\n          swap2\n          pop\n          pop\n          jump\t// out\n            /* \"contracts/Coin_contract.sol\":204:242  mapping (address => uint) public wards */\n        tag_70:\n          mstore(0x20, 0x00)\n          dup1\n          0x00\n          mstore\n          keccak256(0x00, 0x40)\n          0x00\n          swap2\n          pop\n          swap1\n          pop\n          sload\n          dup2\n          jump\t// out\n            /* \"contracts/Coin_contract.sol\":615:677  mapping(address => mapping (address => uint)) public allowance */\n        tag_75:\n          mstore(0x20, 0x03)\n          dup2\n          0x00\n          mstore\n          mstore(0x20, keccak256(0x00, 0x40))\n          dup1\n          0x00\n          mstore\n          keccak256(0x00, 0x40)\n          0x00\n          swap2\n          pop\n          swap2\n          pop\n          pop\n          sload\n          dup2\n          jump\t// out\n            /* \"contracts/Coin_contract.sol\":1034:1144  function sub(uint x, uint y) internal pure returns (uint z) \r... */\n        tag_88:\n            /* \"contracts/Coin_contract.sol\":1086:1092  uint z */\n          0x00\n            /* \"contracts/Coin_contract.sol\":1134:1135  x */\n          dup3\n            /* \"contracts/Coin_contract.sol\":1128:1129  y */\n          dup3\n            /* \"contracts/Coin_contract.sol\":1124:1125  x */\n          dup5\n            /* \"contracts/Coin_contract.sol\":1124:1129  x - y */\n          tag_113\n          swap2\n          swap1\n          tag_114\n          jump\t// in\n        tag_113:\n            /* \"contracts/Coin_contract.sol\":1120:1129  z = x - y */\n          swap2\n          pop\n          dup2\n            /* \"contracts/Coin_contract.sol\":1119:1135  (z = x - y) <= x */\n          gt\n          iszero\n            /* \"contracts/Coin_contract.sol\":1111:1136  require((z = x - y) <= x) */\n          tag_115\n          jumpi\n          0x00\n          dup1\n          revert\n        tag_115:\n            /* \"contracts/Coin_contract.sol\":1034:1144  function sub(uint x, uint y) internal pure returns (uint z) \r... */\n          swap3\n          swap2\n          pop\n          pop\n          jump\t// out\n            /* \"contracts/Coin_contract.sol\":918:1028  function add(uint x, uint y) internal pure returns (uint z) \r... */\n        tag_91:\n            /* \"contracts/Coin_contract.sol\":970:976  uint z */\n          0x00\n            /* \"contracts/Coin_contract.sol\":1018:1019  x */\n          dup3\n            /* \"contracts/Coin_contract.sol\":1012:1013  y */\n          dup3\n            /* \"contracts/Coin_contract.sol\":1008:1009  x */\n          dup5\n            /* \"contracts/Coin_contract.sol\":1008:1013  x + y */\n          tag_117\n          swap2\n          swap1\n          tag_118\n          jump\t// in\n        tag_117:\n            /* \"contracts/Coin_contract.sol\":1004:1013  z = x + y */\n          swap2\n          pop\n          dup2\n            /* \"contracts/Coin_contract.sol\":1003:1019  (z = x + y) >= x */\n          lt\n          iszero\n            /* \"contracts/Coin_contract.sol\":995:1020  require((z = x + y) >= x) */\n          tag_119\n          jumpi\n          0x00\n          dup1\n          revert\n        tag_119:\n            /* \"contracts/Coin_contract.sol\":918:1028  function add(uint x, uint y) internal pure returns (uint z) \r... */\n          swap3\n          swap2\n          pop\n          pop\n          jump\t// out\n            /* \"#utility.yul\":7:146   */\n        tag_121:\n            /* \"#utility.yul\":53:58   */\n          0x00\n            /* \"#utility.yul\":91:97   */\n          dup2\n            /* \"#utility.yul\":78:98   */\n          calldataload\n            /* \"#utility.yul\":69:98   */\n          swap1\n          pop\n            /* \"#utility.yul\":107:140   */\n          tag_123\n            /* \"#utility.yul\":134:139   */\n          dup2\n            /* \"#utility.yul\":107:140   */\n          tag_124\n          jump\t// in\n        tag_123:\n            /* \"#utility.yul\":7:146   */\n          swap3\n          swap2\n          pop\n          pop\n          jump\t// out\n            /* \"#utility.yul\":152:291   */\n        tag_125:\n            /* \"#utility.yul\":198:203   */\n          0x00\n            /* \"#utility.yul\":236:242   */\n          dup2\n            /* \"#utility.yul\":223:243   */\n          calldataload\n            /* \"#utility.yul\":214:243   */\n          swap1\n          pop\n            /* \"#utility.yul\":252:285   */\n          tag_127\n            /* \"#utility.yul\":279:284   */\n          dup2\n            /* \"#utility.yul\":252:285   */\n          tag_128\n          jump\t// in\n        tag_127:\n            /* \"#utility.yul\":152:291   */\n          swap3\n          swap2\n          pop\n          pop\n          jump\t// out\n            /* \"#utility.yul\":297:626   */\n        tag_51:\n            /* \"#utility.yul\":356:362   */\n          0x00\n            /* \"#utility.yul\":405:407   */\n          0x20\n            /* \"#utility.yul\":393:402   */\n          dup3\n            /* \"#utility.yul\":384:391   */\n          dup5\n            /* \"#utility.yul\":380:403   */\n          sub\n            /* \"#utility.yul\":376:408   */\n          slt\n            /* \"#utility.yul\":373:492   */\n          iszero\n          tag_130\n          jumpi\n            /* \"#utility.yul\":411:490   */\n          tag_131\n          tag_132\n          jump\t// in\n        tag_131:\n            /* \"#utility.yul\":373:492   */\n        tag_130:\n            /* \"#utility.yul\":531:532   */\n          0x00\n            /* \"#utility.yul\":556:609   */\n          tag_133\n            /* \"#utility.yul\":601:608   */\n          dup5\n            /* \"#utility.yul\":592:598   */\n          dup3\n            /* \"#utility.yul\":581:590   */\n          dup6\n            /* \"#utility.yul\":577:599   */\n          add\n            /* \"#utility.yul\":556:609   */\n          tag_121\n          jump\t// in\n        tag_133:\n            /* \"#utility.yul\":546:609   */\n          swap2\n          pop\n            /* \"#utility.yul\":502:619   */\n          pop\n            /* \"#utility.yul\":297:626   */\n          swap3\n          swap2\n          pop\n          pop\n          jump\t// out\n            /* \"#utility.yul\":632:1106   */\n        tag_74:\n            /* \"#utility.yul\":700:706   */\n          0x00\n            /* \"#utility.yul\":708:714   */\n          dup1\n            /* \"#utility.yul\":757:759   */\n          0x40\n            /* \"#utility.yul\":745:754   */\n          dup4\n            /* \"#utility.yul\":736:743   */\n          dup6\n            /* \"#utility.yul\":732:755   */\n          sub\n            /* \"#utility.yul\":728:760   */\n          slt\n            /* \"#utility.yul\":725:844   */\n          iszero\n          tag_135\n          jumpi\n            /* \"#utility.yul\":763:842   */\n          tag_136\n          tag_132\n          jump\t// in\n        tag_136:\n            /* \"#utility.yul\":725:844   */\n        tag_135:\n            /* \"#utility.yul\":883:884   */\n          0x00\n            /* \"#utility.yul\":908:961   */\n          tag_137\n            /* \"#utility.yul\":953:960   */\n          dup6\n            /* \"#utility.yul\":944:950   */\n          dup3\n            /* \"#utility.yul\":933:942   */\n          dup7\n            /* \"#utility.yul\":929:951   */\n          add\n            /* \"#utility.yul\":908:961   */\n          tag_121\n          jump\t// in\n        tag_137:\n            /* \"#utility.yul\":898:961   */\n          swap3\n          pop\n            /* \"#utility.yul\":854:971   */\n          pop\n            /* \"#utility.yul\":1010:1012   */\n          0x20\n            /* \"#utility.yul\":1036:1089   */\n          tag_138\n            /* \"#utility.yul\":1081:1088   */\n          dup6\n            /* \"#utility.yul\":1072:1078   */\n          dup3\n            /* \"#utility.yul\":1061:1070   */\n          dup7\n            /* \"#utility.yul\":1057:1079   */\n          add\n            /* \"#utility.yul\":1036:1089   */\n          tag_121\n          jump\t// in\n        tag_138:\n            /* \"#utility.yul\":1026:1089   */\n          swap2\n          pop\n            /* \"#utility.yul\":981:1099   */\n          pop\n            /* \"#utility.yul\":632:1106   */\n          swap3\n          pop\n          swap3\n          swap1\n          pop\n          jump\t// out\n            /* \"#utility.yul\":1112:1731   */\n        tag_36:\n            /* \"#utility.yul\":1189:1195   */\n          0x00\n            /* \"#utility.yul\":1197:1203   */\n          dup1\n            /* \"#utility.yul\":1205:1211   */\n          0x00\n            /* \"#utility.yul\":1254:1256   */\n          0x60\n            /* \"#utility.yul\":1242:1251   */\n          dup5\n            /* \"#utility.yul\":1233:1240   */\n          dup7\n            /* \"#utility.yul\":1229:1252   */\n          sub\n            /* \"#utility.yul\":1225:1257   */\n          slt\n            /* \"#utility.yul\":1222:1341   */\n          iszero\n          tag_140\n          jumpi\n            /* \"#utility.yul\":1260:1339   */\n          tag_141\n          tag_132\n          jump\t// in\n        tag_141:\n            /* \"#utility.yul\":1222:1341   */\n        tag_140:\n            /* \"#utility.yul\":1380:1381   */\n          0x00\n            /* \"#utility.yul\":1405:1458   */\n          tag_142\n            /* \"#utility.yul\":1450:1457   */\n          dup7\n            /* \"#utility.yul\":1441:1447   */\n          dup3\n            /* \"#utility.yul\":1430:1439   */\n          dup8\n            /* \"#utility.yul\":1426:1448   */\n          add\n            /* \"#utility.yul\":1405:1458   */\n          tag_121\n          jump\t// in\n        tag_142:\n            /* \"#utility.yul\":1395:1458   */\n          swap4\n          pop\n            /* \"#utility.yul\":1351:1468   */\n          pop\n            /* \"#utility.yul\":1507:1509   */\n          0x20\n            /* \"#utility.yul\":1533:1586   */\n          tag_143\n            /* \"#utility.yul\":1578:1585   */\n          dup7\n            /* \"#utility.yul\":1569:1575   */\n          dup3\n            /* \"#utility.yul\":1558:1567   */\n          dup8\n            /* \"#utility.yul\":1554:1576   */\n          add\n            /* \"#utility.yul\":1533:1586   */\n          tag_121\n          jump\t// in\n        tag_143:\n            /* \"#utility.yul\":1523:1586   */\n          swap3\n          pop\n            /* \"#utility.yul\":1478:1596   */\n          pop\n            /* \"#utility.yul\":1635:1637   */\n          0x40\n            /* \"#utility.yul\":1661:1714   */\n          tag_144\n            /* \"#utility.yul\":1706:1713   */\n          dup7\n            /* \"#utility.yul\":1697:1703   */\n          dup3\n            /* \"#utility.yul\":1686:1695   */\n          dup8\n            /* \"#utility.yul\":1682:1704   */\n          add\n            /* \"#utility.yul\":1661:1714   */\n          tag_125\n          jump\t// in\n        tag_144:\n            /* \"#utility.yul\":1651:1714   */\n          swap2\n          pop\n            /* \"#utility.yul\":1606:1724   */\n          pop\n            /* \"#utility.yul\":1112:1731   */\n          swap3\n          pop\n          swap3\n          pop\n          swap3\n          jump\t// out\n            /* \"#utility.yul\":1737:2211   */\n        tag_26:\n            /* \"#utility.yul\":1805:1811   */\n          0x00\n            /* \"#utility.yul\":1813:1819   */\n          dup1\n            /* \"#utility.yul\":1862:1864   */\n          0x40\n            /* \"#utility.yul\":1850:1859   */\n          dup4\n            /* \"#utility.yul\":1841:1848   */\n          dup6\n            /* \"#utility.yul\":1837:1860   */\n          sub\n            /* \"#utility.yul\":1833:1865   */\n          slt\n            /* \"#utility.yul\":1830:1949   */\n          iszero\n          tag_146\n          jumpi\n            /* \"#utility.yul\":1868:1947   */\n          tag_147\n          tag_132\n          jump\t// in\n        tag_147:\n            /* \"#utility.yul\":1830:1949   */\n        tag_146:\n            /* \"#utility.yul\":1988:1989   */\n          0x00\n            /* \"#utility.yul\":2013:2066   */\n          tag_148\n            /* \"#utility.yul\":2058:2065   */\n          dup6\n            /* \"#utility.yul\":2049:2055   */\n          dup3\n            /* \"#utility.yul\":2038:2047   */\n          dup7\n            /* \"#utility.yul\":2034:2056   */\n          add\n            /* \"#utility.yul\":2013:2066   */\n          tag_121\n          jump\t// in\n        tag_148:\n            /* \"#utility.yul\":2003:2066   */\n          swap3\n          pop\n            /* \"#utility.yul\":1959:2076   */\n          pop\n            /* \"#utility.yul\":2115:2117   */\n          0x20\n            /* \"#utility.yul\":2141:2194   */\n          tag_149\n            /* \"#utility.yul\":2186:2193   */\n          dup6\n            /* \"#utility.yul\":2177:2183   */\n          dup3\n            /* \"#utility.yul\":2166:2175   */\n          dup7\n            /* \"#utility.yul\":2162:2184   */\n          add\n            /* \"#utility.yul\":2141:2194   */\n          tag_125\n          jump\t// in\n        tag_149:\n            /* \"#utility.yul\":2131:2194   */\n          swap2\n          pop\n            /* \"#utility.yul\":2086:2204   */\n          pop\n            /* \"#utility.yul\":1737:2211   */\n          swap3\n          pop\n          swap3\n          swap1\n          pop\n          jump\t// out\n            /* \"#utility.yul\":2217:2326   */\n        tag_150:\n            /* \"#utility.yul\":2298:2319   */\n          tag_152\n            /* \"#utility.yul\":2313:2318   */\n          dup2\n            /* \"#utility.yul\":2298:2319   */\n          tag_153\n          jump\t// in\n        tag_152:\n            /* \"#utility.yul\":2293:2296   */\n          dup3\n            /* \"#utility.yul\":2286:2320   */\n          mstore\n            /* \"#utility.yul\":2217:2326   */\n          pop\n          pop\n          jump\t// out\n            /* \"#utility.yul\":2332:2696   */\n        tag_154:\n            /* \"#utility.yul\":2420:2423   */\n          0x00\n            /* \"#utility.yul\":2448:2487   */\n          tag_156\n            /* \"#utility.yul\":2481:2486   */\n          dup3\n            /* \"#utility.yul\":2448:2487   */\n          tag_157\n          jump\t// in\n        tag_156:\n            /* \"#utility.yul\":2503:2574   */\n          tag_158\n            /* \"#utility.yul\":2567:2573   */\n          dup2\n            /* \"#utility.yul\":2562:2565   */\n          dup6\n            /* \"#utility.yul\":2503:2574   */\n          tag_159\n          jump\t// in\n        tag_158:\n            /* \"#utility.yul\":2496:2574   */\n          swap4\n          pop\n            /* \"#utility.yul\":2583:2635   */\n          tag_160\n            /* \"#utility.yul\":2628:2634   */\n          dup2\n            /* \"#utility.yul\":2623:2626   */\n          dup6\n            /* \"#utility.yul\":2616:2620   */\n          0x20\n            /* \"#utility.yul\":2609:2614   */\n          dup7\n            /* \"#utility.yul\":2605:2621   */\n          add\n            /* \"#utility.yul\":2583:2635   */\n          tag_161\n          jump\t// in\n        tag_160:\n            /* \"#utility.yul\":2660:2689   */\n          tag_162\n            /* \"#utility.yul\":2682:2688   */\n          dup2\n            /* \"#utility.yul\":2660:2689   */\n          tag_163\n          jump\t// in\n        tag_162:\n            /* \"#utility.yul\":2655:2658   */\n          dup5\n            /* \"#utility.yul\":2651:2690   */\n          add\n            /* \"#utility.yul\":2644:2690   */\n          swap2\n          pop\n            /* \"#utility.yul\":2424:2696   */\n          pop\n            /* \"#utility.yul\":2332:2696   */\n          swap3\n          swap2\n          pop\n          pop\n          jump\t// out\n            /* \"#utility.yul\":2702:3068   */\n        tag_164:\n            /* \"#utility.yul\":2844:2847   */\n          0x00\n            /* \"#utility.yul\":2865:2932   */\n          tag_166\n            /* \"#utility.yul\":2929:2931   */\n          0x14\n            /* \"#utility.yul\":2924:2927   */\n          dup4\n            /* \"#utility.yul\":2865:2932   */\n          tag_159\n          jump\t// in\n        tag_166:\n            /* \"#utility.yul\":2858:2932   */\n          swap2\n          pop\n            /* \"#utility.yul\":2941:3034   */\n          tag_167\n            /* \"#utility.yul\":3030:3033   */\n          dup3\n            /* \"#utility.yul\":2941:3034   */\n          tag_168\n          jump\t// in\n        tag_167:\n            /* \"#utility.yul\":3059:3061   */\n          0x20\n            /* \"#utility.yul\":3054:3057   */\n          dup3\n            /* \"#utility.yul\":3050:3062   */\n          add\n            /* \"#utility.yul\":3043:3062   */\n          swap1\n          pop\n            /* \"#utility.yul\":2702:3068   */\n          swap2\n          swap1\n          pop\n          jump\t// out\n            /* \"#utility.yul\":3074:3440   */\n        tag_169:\n            /* \"#utility.yul\":3216:3219   */\n          0x00\n            /* \"#utility.yul\":3237:3304   */\n          tag_171\n            /* \"#utility.yul\":3301:3303   */\n          0x0e\n            /* \"#utility.yul\":3296:3299   */\n          dup4\n            /* \"#utility.yul\":3237:3304   */\n          tag_159\n          jump\t// in\n        tag_171:\n            /* \"#utility.yul\":3230:3304   */\n          swap2\n          pop\n            /* \"#utility.yul\":3313:3406   */\n          tag_172\n            /* \"#utility.yul\":3402:3405   */\n          dup3\n            /* \"#utility.yul\":3313:3406   */\n          tag_173\n          jump\t// in\n        tag_172:\n            /* \"#utility.yul\":3431:3433   */\n          0x20\n            /* \"#utility.yul\":3426:3429   */\n          dup3\n            /* \"#utility.yul\":3422:3434   */\n          add\n            /* \"#utility.yul\":3415:3434   */\n          swap1\n          pop\n            /* \"#utility.yul\":3074:3440   */\n          swap2\n          swap1\n          pop\n          jump\t// out\n            /* \"#utility.yul\":3446:3812   */\n        tag_174:\n            /* \"#utility.yul\":3588:3591   */\n          0x00\n            /* \"#utility.yul\":3609:3676   */\n          tag_176\n            /* \"#utility.yul\":3673:3675   */\n          0x16\n            /* \"#utility.yul\":3668:3671   */\n          dup4\n            /* \"#utility.yul\":3609:3676   */\n          tag_159\n          jump\t// in\n        tag_176:\n            /* \"#utility.yul\":3602:3676   */\n          swap2\n          pop\n            /* \"#utility.yul\":3685:3778   */\n          tag_177\n            /* \"#utility.yul\":3774:3777   */\n          dup3\n            /* \"#utility.yul\":3685:3778   */\n          tag_178\n          jump\t// in\n        tag_177:\n            /* \"#utility.yul\":3803:3805   */\n          0x20\n            /* \"#utility.yul\":3798:3801   */\n          dup3\n            /* \"#utility.yul\":3794:3806   */\n          add\n            /* \"#utility.yul\":3787:3806   */\n          swap1\n          pop\n            /* \"#utility.yul\":3446:3812   */\n          swap2\n          swap1\n          pop\n          jump\t// out\n            /* \"#utility.yul\":3818:3936   */\n        tag_179:\n            /* \"#utility.yul\":3905:3929   */\n          tag_181\n            /* \"#utility.yul\":3923:3928   */\n          dup2\n            /* \"#utility.yul\":3905:3929   */\n          tag_182\n          jump\t// in\n        tag_181:\n            /* \"#utility.yul\":3900:3903   */\n          dup3\n            /* \"#utility.yul\":3893:3930   */\n          mstore\n            /* \"#utility.yul\":3818:3936   */\n          pop\n          pop\n          jump\t// out\n            /* \"#utility.yul\":3942:4054   */\n        tag_183:\n            /* \"#utility.yul\":4025:4047   */\n          tag_185\n            /* \"#utility.yul\":4041:4046   */\n          dup2\n            /* \"#utility.yul\":4025:4047   */\n          tag_186\n          jump\t// in\n        tag_185:\n            /* \"#utility.yul\":4020:4023   */\n          dup3\n            /* \"#utility.yul\":4013:4048   */\n          mstore\n            /* \"#utility.yul\":3942:4054   */\n          pop\n          pop\n          jump\t// out\n            /* \"#utility.yul\":4060:4270   */\n        tag_29:\n            /* \"#utility.yul\":4147:4151   */\n          0x00\n            /* \"#utility.yul\":4185:4187   */\n          0x20\n            /* \"#utility.yul\":4174:4183   */\n          dup3\n            /* \"#utility.yul\":4170:4188   */\n          add\n            /* \"#utility.yul\":4162:4188   */\n          swap1\n          pop\n            /* \"#utility.yul\":4198:4263   */\n          tag_188\n            /* \"#utility.yul\":4260:4261   */\n          0x00\n            /* \"#utility.yul\":4249:4258   */\n          dup4\n            /* \"#utility.yul\":4245:4262   */\n          add\n            /* \"#utility.yul\":4236:4242   */\n          dup5\n            /* \"#utility.yul\":4198:4263   */\n          tag_150\n          jump\t// in\n        tag_188:\n            /* \"#utility.yul\":4060:4270   */\n          swap3\n          swap2\n          pop\n          pop\n          jump\t// out\n            /* \"#utility.yul\":4276:4589   */\n        tag_23:\n            /* \"#utility.yul\":4389:4393   */\n          0x00\n            /* \"#utility.yul\":4427:4429   */\n          0x20\n            /* \"#utility.yul\":4416:4425   */\n          dup3\n            /* \"#utility.yul\":4412:4430   */\n          add\n            /* \"#utility.yul\":4404:4430   */\n          swap1\n          pop\n            /* \"#utility.yul\":4476:4485   */\n          dup2\n            /* \"#utility.yul\":4470:4474   */\n          dup2\n            /* \"#utility.yul\":4466:4486   */\n          sub\n            /* \"#utility.yul\":4462:4463   */\n          0x00\n            /* \"#utility.yul\":4451:4460   */\n          dup4\n            /* \"#utility.yul\":4447:4464   */\n          add\n            /* \"#utility.yul\":4440:4487   */\n          mstore\n            /* \"#utility.yul\":4504:4582   */\n          tag_190\n            /* \"#utility.yul\":4577:4581   */\n          dup2\n            /* \"#utility.yul\":4568:4574   */\n          dup5\n            /* \"#utility.yul\":4504:4582   */\n          tag_154\n          jump\t// in\n        tag_190:\n            /* \"#utility.yul\":4496:4582   */\n          swap1\n          pop\n            /* \"#utility.yul\":4276:4589   */\n          swap3\n          swap2\n          pop\n          pop\n          jump\t// out\n            /* \"#utility.yul\":4595:5014   */\n        tag_82:\n            /* \"#utility.yul\":4761:4765   */\n          0x00\n            /* \"#utility.yul\":4799:4801   */\n          0x20\n            /* \"#utility.yul\":4788:4797   */\n          dup3\n            /* \"#utility.yul\":4784:4802   */\n          add\n            /* \"#utility.yul\":4776:4802   */\n          swap1\n          pop\n            /* \"#utility.yul\":4848:4857   */\n          dup2\n            /* \"#utility.yul\":4842:4846   */\n          dup2\n            /* \"#utility.yul\":4838:4858   */\n          sub\n            /* \"#utility.yul\":4834:4835   */\n          0x00\n            /* \"#utility.yul\":4823:4832   */\n          dup4\n            /* \"#utility.yul\":4819:4836   */\n          add\n            /* \"#utility.yul\":4812:4859   */\n          mstore\n            /* \"#utility.yul\":4876:5007   */\n          tag_192\n            /* \"#utility.yul\":5002:5006   */\n          dup2\n            /* \"#utility.yul\":4876:5007   */\n          tag_164\n          jump\t// in\n        tag_192:\n            /* \"#utility.yul\":4868:5007   */\n          swap1\n          pop\n            /* \"#utility.yul\":4595:5014   */\n          swap2\n          swap1\n          pop\n          jump\t// out\n            /* \"#utility.yul\":5020:5439   */\n        tag_96:\n            /* \"#utility.yul\":5186:5190   */\n          0x00\n            /* \"#utility.yul\":5224:5226   */\n          0x20\n            /* \"#utility.yul\":5213:5222   */\n          dup3\n            /* \"#utility.yul\":5209:5227   */\n          add\n            /* \"#utility.yul\":5201:5227   */\n          swap1\n          pop\n            /* \"#utility.yul\":5273:5282   */\n          dup2\n            /* \"#utility.yul\":5267:5271   */\n          dup2\n            /* \"#utility.yul\":5263:5283   */\n          sub\n            /* \"#utility.yul\":5259:5260   */\n          0x00\n            /* \"#utility.yul\":5248:5257   */\n          dup4\n            /* \"#utility.yul\":5244:5261   */\n          add\n            /* \"#utility.yul\":5237:5284   */\n          mstore\n            /* \"#utility.yul\":5301:5432   */\n          tag_194\n            /* \"#utility.yul\":5427:5431   */\n          dup2\n            /* \"#utility.yul\":5301:5432   */\n          tag_169\n          jump\t// in\n        tag_194:\n            /* \"#utility.yul\":5293:5432   */\n          swap1\n          pop\n            /* \"#utility.yul\":5020:5439   */\n          swap2\n          swap1\n          pop\n          jump\t// out\n            /* \"#utility.yul\":5445:5864   */\n        tag_86:\n            /* \"#utility.yul\":5611:5615   */\n          0x00\n            /* \"#utility.yul\":5649:5651   */\n          0x20\n            /* \"#utility.yul\":5638:5647   */\n          dup3\n            /* \"#utility.yul\":5634:5652   */\n          add\n            /* \"#utility.yul\":5626:5652   */\n          swap1\n          pop\n            /* \"#utility.yul\":5698:5707   */\n          dup2\n            /* \"#utility.yul\":5692:5696   */\n          dup2\n            /* \"#utility.yul\":5688:5708   */\n          sub\n            /* \"#utility.yul\":5684:5685   */\n          0x00\n            /* \"#utility.yul\":5673:5682   */\n          dup4\n            /* \"#utility.yul\":5669:5686   */\n          add\n            /* \"#utility.yul\":5662:5709   */\n          mstore\n            /* \"#utility.yul\":5726:5857   */\n          tag_196\n            /* \"#utility.yul\":5852:5856   */\n          dup2\n            /* \"#utility.yul\":5726:5857   */\n          tag_174\n          jump\t// in\n        tag_196:\n            /* \"#utility.yul\":5718:5857   */\n          swap1\n          pop\n            /* \"#utility.yul\":5445:5864   */\n          swap2\n          swap1\n          pop\n          jump\t// out\n            /* \"#utility.yul\":5870:6092   */\n        tag_33:\n            /* \"#utility.yul\":5963:5967   */\n          0x00\n            /* \"#utility.yul\":6001:6003   */\n          0x20\n            /* \"#utility.yul\":5990:5999   */\n          dup3\n            /* \"#utility.yul\":5986:6004   */\n          add\n            /* \"#utility.yul\":5978:6004   */\n          swap1\n          pop\n            /* \"#utility.yul\":6014:6085   */\n          tag_198\n            /* \"#utility.yul\":6082:6083   */\n          0x00\n            /* \"#utility.yul\":6071:6080   */\n          dup4\n            /* \"#utility.yul\":6067:6084   */\n          add\n            /* \"#utility.yul\":6058:6064   */\n          dup5\n            /* \"#utility.yul\":6014:6085   */\n          tag_179\n          jump\t// in\n        tag_198:\n            /* \"#utility.yul\":5870:6092   */\n          swap3\n          swap2\n          pop\n          pop\n          jump\t// out\n            /* \"#utility.yul\":6098:6312   */\n        tag_42:\n            /* \"#utility.yul\":6187:6191   */\n          0x00\n            /* \"#utility.yul\":6225:6227   */\n          0x20\n            /* \"#utility.yul\":6214:6223   */\n          dup3\n            /* \"#utility.yul\":6210:6228   */\n          add\n            /* \"#utility.yul\":6202:6228   */\n          swap1\n          pop\n            /* \"#utility.yul\":6238:6305   */\n          tag_200\n            /* \"#utility.yul\":6302:6303   */\n          0x00\n            /* \"#utility.yul\":6291:6300   */\n          dup4\n            /* \"#utility.yul\":6287:6304   */\n          add\n            /* \"#utility.yul\":6278:6284   */\n          dup5\n            /* \"#utility.yul\":6238:6305   */\n          tag_183\n          jump\t// in\n        tag_200:\n            /* \"#utility.yul\":6098:6312   */\n          swap3\n          swap2\n          pop\n          pop\n          jump\t// out\n            /* \"#utility.yul\":6399:6498   */\n        tag_157:\n            /* \"#utility.yul\":6451:6457   */\n          0x00\n            /* \"#utility.yul\":6485:6490   */\n          dup2\n            /* \"#utility.yul\":6479:6491   */\n          mload\n            /* \"#utility.yul\":6469:6491   */\n          swap1\n          pop\n            /* \"#utility.yul\":6399:6498   */\n          swap2\n          swap1\n          pop\n          jump\t// out\n            /* \"#utility.yul\":6504:6673   */\n        tag_159:\n            /* \"#utility.yul\":6588:6599   */\n          0x00\n            /* \"#utility.yul\":6622:6628   */\n          dup3\n            /* \"#utility.yul\":6617:6620   */\n          dup3\n            /* \"#utility.yul\":6610:6629   */\n          mstore\n            /* \"#utility.yul\":6662:6666   */\n          0x20\n            /* \"#utility.yul\":6657:6660   */\n          dup3\n            /* \"#utility.yul\":6653:6667   */\n          add\n            /* \"#utility.yul\":6638:6667   */\n          swap1\n          pop\n            /* \"#utility.yul\":6504:6673   */\n          swap3\n          swap2\n          pop\n          pop\n          jump\t// out\n            /* \"#utility.yul\":6679:6984   */\n        tag_118:\n            /* \"#utility.yul\":6719:6722   */\n          0x00\n            /* \"#utility.yul\":6738:6758   */\n          tag_206\n            /* \"#utility.yul\":6756:6757   */\n          dup3\n            /* \"#utility.yul\":6738:6758   */\n          tag_182\n          jump\t// in\n        tag_206:\n            /* \"#utility.yul\":6733:6758   */\n          swap2\n          pop\n            /* \"#utility.yul\":6772:6792   */\n          tag_207\n            /* \"#utility.yul\":6790:6791   */\n          dup4\n            /* \"#utility.yul\":6772:6792   */\n          tag_182\n          jump\t// in\n        tag_207:\n            /* \"#utility.yul\":6767:6792   */\n          swap3\n          pop\n            /* \"#utility.yul\":6926:6927   */\n          dup3\n            /* \"#utility.yul\":6858:6924   */\n          0xffffffffffffffffffffffffffffffffffffffffffffffffffffffffffffffff\n            /* \"#utility.yul\":6854:6928   */\n          sub\n            /* \"#utility.yul\":6851:6852   */\n          dup3\n            /* \"#utility.yul\":6848:6929   */\n          gt\n            /* \"#utility.yul\":6845:6952   */\n          iszero\n          tag_208\n          jumpi\n            /* \"#utility.yul\":6932:6950   */\n          tag_209\n          tag_210\n          jump\t// in\n        tag_209:\n            /* \"#utility.yul\":6845:6952   */\n        tag_208:\n            /* \"#utility.yul\":6976:6977   */\n          dup3\n            /* \"#utility.yul\":6973:6974   */\n          dup3\n            /* \"#utility.yul\":6969:6978   */\n          add\n            /* \"#utility.yul\":6962:6978   */\n          swap1\n          pop\n            /* \"#utility.yul\":6679:6984   */\n          swap3\n          swap2\n          pop\n          pop\n          jump\t// out\n            /* \"#utility.yul\":6990:7181   */\n        tag_114:\n            /* \"#utility.yul\":7030:7034   */\n          0x00\n            /* \"#utility.yul\":7050:7070   */\n          tag_212\n            /* \"#utility.yul\":7068:7069   */\n          dup3\n            /* \"#utility.yul\":7050:7070   */\n          tag_182\n          jump\t// in\n        tag_212:\n            /* \"#utility.yul\":7045:7070   */\n          swap2\n          pop\n            /* \"#utility.yul\":7084:7104   */\n          tag_213\n            /* \"#utility.yul\":7102:7103   */\n          dup4\n            /* \"#utility.yul\":7084:7104   */\n          tag_182\n          jump\t// in\n        tag_213:\n            /* \"#utility.yul\":7079:7104   */\n          swap3\n          pop\n            /* \"#utility.yul\":7123:7124   */\n          dup3\n            /* \"#utility.yul\":7120:7121   */\n          dup3\n            /* \"#utility.yul\":7117:7125   */\n          lt\n            /* \"#utility.yul\":7114:7148   */\n          iszero\n          tag_214\n          jumpi\n            /* \"#utility.yul\":7128:7146   */\n          tag_215\n          tag_210\n          jump\t// in\n        tag_215:\n            /* \"#utility.yul\":7114:7148   */\n        tag_214:\n            /* \"#utility.yul\":7173:7174   */\n          dup3\n            /* \"#utility.yul\":7170:7171   */\n          dup3\n            /* \"#utility.yul\":7166:7175   */\n          sub\n            /* \"#utility.yul\":7158:7175   */\n          swap1\n          pop\n            /* \"#utility.yul\":6990:7181   */\n          swap3\n          swap2\n          pop\n          pop\n          jump\t// out\n            /* \"#utility.yul\":7187:7283   */\n        tag_216:\n            /* \"#utility.yul\":7224:7231   */\n          0x00\n            /* \"#utility.yul\":7253:7277   */\n          tag_218\n            /* \"#utility.yul\":7271:7276   */\n          dup3\n            /* \"#utility.yul\":7253:7277   */\n          tag_219\n          jump\t// in\n        tag_218:\n            /* \"#utility.yul\":7242:7277   */\n          swap1\n          pop\n            /* \"#utility.yul\":7187:7283   */\n          swap2\n          swap1\n          pop\n          jump\t// out\n            /* \"#utility.yul\":7289:7379   */\n        tag_153:\n            /* \"#utility.yul\":7323:7330   */\n          0x00\n            /* \"#utility.yul\":7366:7371   */\n          dup2\n            /* \"#utility.yul\":7359:7372   */\n          iszero\n            /* \"#utility.yul\":7352:7373   */\n          iszero\n            /* \"#utility.yul\":7341:7373   */\n          swap1\n          pop\n            /* \"#utility.yul\":7289:7379   */\n          swap2\n          swap1\n          pop\n          jump\t// out\n            /* \"#utility.yul\":7385:7511   */\n        tag_219:\n            /* \"#utility.yul\":7422:7429   */\n          0x00\n            /* \"#utility.yul\":7462:7504   */\n          0xffffffffffffffffffffffffffffffffffffffff\n            /* \"#utility.yul\":7455:7460   */\n          dup3\n            /* \"#utility.yul\":7451:7505   */\n          and\n            /* \"#utility.yul\":7440:7505   */\n          swap1\n          pop\n            /* \"#utility.yul\":7385:7511   */\n          swap2\n          swap1\n          pop\n          jump\t// out\n            /* \"#utility.yul\":7517:7594   */\n        tag_182:\n            /* \"#utility.yul\":7554:7561   */\n          0x00\n            /* \"#utility.yul\":7583:7588   */\n          dup2\n            /* \"#utility.yul\":7572:7588   */\n          swap1\n          pop\n            /* \"#utility.yul\":7517:7594   */\n          swap2\n          swap1\n          pop\n          jump\t// out\n            /* \"#utility.yul\":7600:7686   */\n        tag_186:\n            /* \"#utility.yul\":7635:7642   */\n          0x00\n            /* \"#utility.yul\":7675:7679   */\n          0xff\n            /* \"#utility.yul\":7668:7673   */\n          dup3\n            /* \"#utility.yul\":7664:7680   */\n          and\n            /* \"#utility.yul\":7653:7680   */\n          swap1\n          pop\n            /* \"#utility.yul\":7600:7686   */\n          swap2\n          swap1\n          pop\n          jump\t// out\n            /* \"#utility.yul\":7692:7999   */\n        tag_161:\n            /* \"#utility.yul\":7760:7761   */\n          0x00\n            /* \"#utility.yul\":7770:7883   */\n        tag_225:\n            /* \"#utility.yul\":7784:7790   */\n          dup4\n            /* \"#utility.yul\":7781:7782   */\n          dup2\n            /* \"#utility.yul\":7778:7791   */\n          lt\n            /* \"#utility.yul\":7770:7883   */\n          iszero\n          tag_227\n          jumpi\n            /* \"#utility.yul\":7869:7870   */\n          dup1\n            /* \"#utility.yul\":7864:7867   */\n          dup3\n            /* \"#utility.yul\":7860:7871   */\n          add\n            /* \"#utility.yul\":7854:7872   */\n          mload\n            /* \"#utility.yul\":7850:7851   */\n          dup2\n            /* \"#utility.yul\":7845:7848   */\n          dup5\n            /* \"#utility.yul\":7841:7852   */\n          add\n            /* \"#utility.yul\":7834:7873   */\n          mstore\n            /* \"#utility.yul\":7806:7808   */\n          0x20\n            /* \"#utility.yul\":7803:7804   */\n          dup2\n            /* \"#utility.yul\":7799:7809   */\n          add\n            /* \"#utility.yul\":7794:7809   */\n          swap1\n          pop\n            /* \"#utility.yul\":7770:7883   */\n          jump(tag_225)\n        tag_227:\n            /* \"#utility.yul\":7901:7907   */\n          dup4\n            /* \"#utility.yul\":7898:7899   */\n          dup2\n            /* \"#utility.yul\":7895:7908   */\n          gt\n            /* \"#utility.yul\":7892:7993   */\n          iszero\n          tag_228\n          jumpi\n            /* \"#utility.yul\":7981:7982   */\n          0x00\n            /* \"#utility.yul\":7972:7978   */\n          dup5\n            /* \"#utility.yul\":7967:7970   */\n          dup5\n            /* \"#utility.yul\":7963:7979   */\n          add\n            /* \"#utility.yul\":7956:7983   */\n          mstore\n            /* \"#utility.yul\":7892:7993   */\n        tag_228:\n            /* \"#utility.yul\":7741:7999   */\n          pop\n            /* \"#utility.yul\":7692:7999   */\n          pop\n          pop\n          pop\n          jump\t// out\n            /* \"#utility.yul\":8005:8185   */\n        tag_210:\n            /* \"#utility.yul\":8053:8130   */\n          0x4e487b7100000000000000000000000000000000000000000000000000000000\n            /* \"#utility.yul\":8050:8051   */\n          0x00\n            /* \"#utility.yul\":8043:8131   */\n          mstore\n            /* \"#utility.yul\":8150:8154   */\n          0x11\n            /* \"#utility.yul\":8147:8148   */\n          0x04\n            /* \"#utility.yul\":8140:8155   */\n          mstore\n            /* \"#utility.yul\":8174:8178   */\n          0x24\n            /* \"#utility.yul\":8171:8172   */\n          0x00\n            /* \"#utility.yul\":8164:8179   */\n          revert\n            /* \"#utility.yul\":8314:8431   */\n        tag_132:\n            /* \"#utility.yul\":8423:8424   */\n          0x00\n            /* \"#utility.yul\":8420:8421   */\n          dup1\n            /* \"#utility.yul\":8413:8425   */\n          revert\n            /* \"#utility.yul\":8437:8539   */\n        tag_163:\n            /* \"#utility.yul\":8478:8484   */\n          0x00\n            /* \"#utility.yul\":8529:8531   */\n          0x1f\n            /* \"#utility.yul\":8525:8532   */\n          not\n            /* \"#utility.yul\":8520:8522   */\n          0x1f\n            /* \"#utility.yul\":8513:8518   */\n          dup4\n            /* \"#utility.yul\":8509:8523   */\n          add\n            /* \"#utility.yul\":8505:8533   */\n          and\n            /* \"#utility.yul\":8495:8533   */\n          swap1\n          pop\n            /* \"#utility.yul\":8437:8539   */\n          swap2\n          swap1\n          pop\n          jump\t// out\n            /* \"#utility.yul\":8545:8715   */\n        tag_168:\n            /* \"#utility.yul\":8685:8707   */\n          0x696e73756666696369656e742d62616c616e6365000000000000000000000000\n            /* \"#utility.yul\":8681:8682   */\n          0x00\n            /* \"#utility.yul\":8673:8679   */\n          dup3\n            /* \"#utility.yul\":8669:8683   */\n          add\n            /* \"#utility.yul\":8662:8708   */\n          mstore\n            /* \"#utility.yul\":8545:8715   */\n          pop\n          jump\t// out\n            /* \"#utility.yul\":8721:8885   */\n        tag_173:\n            /* \"#utility.yul\":8861:8877   */\n          0x4e6f742d617574686f72697a6564000000000000000000000000000000000000\n            /* \"#utility.yul\":8857:8858   */\n          0x00\n            /* \"#utility.yul\":8849:8855   */\n          dup3\n            /* \"#utility.yul\":8845:8859   */\n          add\n            /* \"#utility.yul\":8838:8878   */\n          mstore\n            /* \"#utility.yul\":8721:8885   */\n          pop\n          jump\t// out\n            /* \"#utility.yul\":8891:9063   */\n        tag_178:\n            /* \"#utility.yul\":9031:9055   */\n          0x696e73756666696369656e742d616c6c6f77616e636500000000000000000000\n            /* \"#utility.yul\":9027:9028   */\n          0x00\n            /* \"#utility.yul\":9019:9025   */\n          dup3\n            /* \"#utility.yul\":9015:9029   */\n          add\n            /* \"#utility.yul\":9008:9056   */\n          mstore\n            /* \"#utility.yul\":8891:9063   */\n          pop\n          jump\t// out\n            /* \"#utility.yul\":9069:9191   */\n        tag_124:\n            /* \"#utility.yul\":9142:9166   */\n          tag_238\n            /* \"#utility.yul\":9160:9165   */\n          dup2\n            /* \"#utility.yul\":9142:9166   */\n          tag_216\n          jump\t// in\n        tag_238:\n            /* \"#utility.yul\":9135:9140   */\n          dup2\n            /* \"#utility.yul\":9132:9167   */\n          eq\n            /* \"#utility.yul\":9122:9185   */\n          tag_239\n          jumpi\n            /* \"#utility.yul\":9181:9182   */\n          0x00\n            /* \"#utility.yul\":9178:9179   */\n          dup1\n            /* \"#utility.yul\":9171:9183   */\n          revert\n            /* \"#utility.yul\":9122:9185   */\n        tag_239:\n            /* \"#utility.yul\":9069:9191   */\n          pop\n          jump\t// out\n            /* \"#utility.yul\":9197:9319   */\n        tag_128:\n            /* \"#utility.yul\":9270:9294   */\n          tag_241\n            /* \"#utility.yul\":9288:9293   */\n          dup2\n            /* \"#utility.yul\":9270:9294   */\n          tag_182\n          jump\t// in\n        tag_241:\n            /* \"#utility.yul\":9263:9268   */\n          dup2\n            /* \"#utility.yul\":9260:9295   */\n          eq\n            /* \"#utility.yul\":9250:9313   */\n          tag_242\n          jumpi\n            /* \"#utility.yul\":9309:9310   */\n          0x00\n            /* \"#utility.yul\":9306:9307   */\n          dup1\n            /* \"#utility.yul\":9299:9311   */\n          revert\n            /* \"#utility.yul\":9250:9313   */\n        tag_242:\n            /* \"#utility.yul\":9197:9319   */\n          pop\n          jump\t// out\n\n        auxdata: 0xa264697066735822122072f2a52ddf5c40da7824ca697982c23c6085889b536237b7c57f26c313a649b364736f6c63430008070033\n    }\n}\n",
				"bytecode": {
					"linkReferences": {},
					"object": "6080604052601660035534801561001557600080fd5b5060016000803373ffffffffffffffffffffffffffffffffffffffff1673ffffffffffffffffffffffffffffffffffffffff168152602001908152602001600020819055506040516100669061011d565b604051809103906000f080158015610082573d6000803e3d6000fd5b50600160006101000a81548173ffffffffffffffffffffffffffffffffffffffff021916908373ffffffffffffffffffffffffffffffffffffffff1602179055507313e3ee699d1909e989722e753853ae30b17e08c5600260006101000a81548173ffffffffffffffffffffffffffffffffffffffff021916908373ffffffffffffffffffffffffffffffffffffffff16021790555061012a565b6112a080610b1f83390190565b6109e6806101396000396000f3fe6080604052600436106100705760003560e01c8063bf353dbb1161004e578063bf353dbb146100d8578063e086e5ec14610115578063ed12e8ef1461012c578063f68c3b961461015757610070565b806341b33680146100755780635358fbda146100a05780639f4fc5ca146100bc575b600080fd5b34801561008157600080fd5b5061008a610180565b604051610097919061078b565b60405180910390f35b6100ba60048036038101906100b59190610606565b61018a565b005b6100d660048036038101906100d19190610606565b610199565b005b3480156100e457600080fd5b506100ff60048036038101906100fa91906105d9565b610262565b60405161010c919061078b565b60405180910390f35b34801561012157600080fd5b5061012a61027a565b005b34801561013857600080fd5b50610141610351565b60405161014e919061078b565b60405180910390f35b34801561016357600080fd5b5061017e60048036038101906101799190610606565b610359565b005b6000617530905090565b80341461019657600080fd5b50565b8034146101a557600080fd5b6000670de0b6b3a76400006101b8610180565b836101c391906107e8565b6101cd91906107b7565b9050600160009054906101000a900473ffffffffffffffffffffffffffffffffffffffff1673ffffffffffffffffffffffffffffffffffffffff166340c10f1933836040518363ffffffff1660e01b815260040161022c929190610702565b600060405180830381600087803b15801561024657600080fd5b505af115801561025a573d6000803e3d6000fd5b505050505050565b60006020528060005260406000206000915090505481565b60016000803373ffffffffffffffffffffffffffffffffffffffff1673ffffffffffffffffffffffffffffffffffffffff16815260200190815260200160002054146102fb576040517f08c379a00000000000000000000000000000000000000000000000000000000081526004016102f29061076b565b60405180910390fd5b60003390508073ffffffffffffffffffffffffffffffffffffffff166108fc610322610351565b9081150290604051600060405180830381858888f1935050505015801561034d573d6000803e3d6000fd5b5050565b600047905090565b80600160009054906101000a900473ffffffffffffffffffffffffffffffffffffffff1673ffffffffffffffffffffffffffffffffffffffff166370a08231336040518263ffffffff1660e01b81526004016103b591906106e7565b60206040518083038186803b1580156103cd57600080fd5b505afa1580156103e1573d6000803e3d6000fd5b505050506040513d601f19601f820116820180604052508101906104059190610633565b1015610446576040517f08c379a000000000000000000000000000000000000000000000000000000000815260040161043d9061074b565b60405180910390fd5b6000610450610180565b670de0b6b3a76400008361046491906107e8565b61046e91906107b7565b9050610478610351565b8111156104ba576040517f08c379a00000000000000000000000000000000000000000000000000000000081526004016104b19061072b565b60405180910390fd5b60003390508073ffffffffffffffffffffffffffffffffffffffff166108fc839081150290604051600060405180830381858888f19350505050158015610505573d6000803e3d6000fd5b50600160009054906101000a900473ffffffffffffffffffffffffffffffffffffffff1673ffffffffffffffffffffffffffffffffffffffff16639dc29fac33856040518363ffffffff1660e01b8152600401610563929190610702565b600060405180830381600087803b15801561057d57600080fd5b505af1158015610591573d6000803e3d6000fd5b50505050505050565b6000813590506105a981610982565b92915050565b6000813590506105be81610999565b92915050565b6000815190506105d381610999565b92915050565b6000602082840312156105ef576105ee6108dc565b5b60006105fd8482850161059a565b91505092915050565b60006020828403121561061c5761061b6108dc565b5b600061062a848285016105af565b91505092915050565b600060208284031215610649576106486108dc565b5b6000610657848285016105c4565b91505092915050565b61066981610842565b82525050565b600061067c6021836107a6565b9150610687826108e1565b604082019050919050565b600061069f6014836107a6565b91506106aa82610930565b602082019050919050565b60006106c2600e836107a6565b91506106cd82610959565b602082019050919050565b6106e181610874565b82525050565b60006020820190506106fc6000830184610660565b92915050565b60006040820190506107176000830185610660565b61072460208301846106d8565b9392505050565b600060208201905081810360008301526107448161066f565b9050919050565b6000602082019050818103600083015261076481610692565b9050919050565b60006020820190508181036000830152610784816106b5565b9050919050565b60006020820190506107a060008301846106d8565b92915050565b600082825260208201905092915050565b60006107c282610874565b91506107cd83610874565b9250826107dd576107dc6108ad565b5b828204905092915050565b60006107f382610874565b91506107fe83610874565b9250817fffffffffffffffffffffffffffffffffffffffffffffffffffffffffffffffff04831182151516156108375761083661087e565b5b828202905092915050565b600061084d82610854565b9050919050565b600073ffffffffffffffffffffffffffffffffffffffff82169050919050565b6000819050919050565b7f4e487b7100000000000000000000000000000000000000000000000000000000600052601160045260246000fd5b7f4e487b7100000000000000000000000000000000000000000000000000000000600052601260045260246000fd5b600080fd5b7f436f6c6c61746572616c207661756c7420776173206c6971756964617465642060008201527f2100000000000000000000000000000000000000000000000000000000000000602082015250565b7f696e73756666696369656e742d62616c616e6365000000000000000000000000600082015250565b7f4e6f742d617574686f72697a6564000000000000000000000000000000000000600082015250565b61098b81610842565b811461099657600080fd5b50565b6109a281610874565b81146109ad57600080fd5b5056fea2646970667358221220e872d56e016437714fe9f002d0b3d2cc521ab129a15969c95074ac8afd4253a964736f6c63430008070033608060405234801561001057600080fd5b5060016000803373ffffffffffffffffffffffffffffffffffffffff1673ffffffffffffffffffffffffffffffffffffffff1681526020019081526020016000208190555060006001819055506112348061006c6000396000f3fe608060405234801561001057600080fd5b50600436106100ea5760003560e01c806370a082311161008c5780639dc29fac116100665780639dc29fac14610261578063a9059cbb1461027d578063bf353dbb146102ad578063dd62ed3e146102dd576100ea565b806370a08231146101e35780637ecebe001461021357806395d89b4114610243576100ea565b806323b872dd116100c857806323b872dd1461015b578063313ce5671461018b57806340c10f19146101a957806354fd4d50146101c5576100ea565b806306fdde03146100ef578063095ea7b31461010d57806318160ddd1461013d575b600080fd5b6100f761030d565b6040516101049190610f2a565b60405180910390f35b61012760048036038101906101229190610e00565b610346565b6040516101349190610f0f565b60405180910390f35b610145610438565b6040516101529190610fac565b60405180910390f35b61017560048036038101906101709190610dad565b61043e565b6040516101829190610f0f565b60405180910390f35b610193610843565b6040516101a09190610fc7565b60405180910390f35b6101c360048036038101906101be9190610e00565b610848565b005b6101cd6109d1565b6040516101da9190610f2a565b60405180910390f35b6101fd60048036038101906101f89190610d40565b610a0a565b60405161020a9190610fac565b60405180910390f35b61022d60048036038101906102289190610d40565b610a22565b60405161023a9190610fac565b60405180910390f35b61024b610a3a565b6040516102589190610f2a565b60405180910390f35b61027b60048036038101906102769190610e00565b610a73565b005b61029760048036038101906102929190610e00565b610c7e565b6040516102a49190610f0f565b60405180910390f35b6102c760048036038101906102c29190610d40565b610c93565b6040516102d49190610fac565b60405180910390f35b6102f760048036038101906102f29190610d6d565b610cab565b6040516103049190610fac565b60405180910390f35b6040518060400160405280600881526020017f446f7461436f696e00000000000000000000000000000000000000000000000081525081565b600081600360003373ffffffffffffffffffffffffffffffffffffffff1673ffffffffffffffffffffffffffffffffffffffff16815260200190815260200160002060008573ffffffffffffffffffffffffffffffffffffffff1673ffffffffffffffffffffffffffffffffffffffff168152602001908152602001600020819055508273ffffffffffffffffffffffffffffffffffffffff163373ffffffffffffffffffffffffffffffffffffffff167f8c5be1e5ebec7d5bd14f71427d1e84f3dd0314c0f7b2291e5b200ac8c7c3b925846040516104269190610fac565b60405180910390a36001905092915050565b60015481565b6000600260008573ffffffffffffffffffffffffffffffffffffffff1673ffffffffffffffffffffffffffffffffffffffff168152602001908152602001600020548211156104c2576040517f08c379a00000000000000000000000000000000000000000000000000000000081526004016104b990610f4c565b60405180910390fd5b3373ffffffffffffffffffffffffffffffffffffffff168473ffffffffffffffffffffffffffffffffffffffff16146106bb57600360008573ffffffffffffffffffffffffffffffffffffffff1673ffffffffffffffffffffffffffffffffffffffff16815260200190815260200160002060003373ffffffffffffffffffffffffffffffffffffffff1673ffffffffffffffffffffffffffffffffffffffff168152602001908152602001600020548211156105b4576040517f08c379a00000000000000000000000000000000000000000000000000000000081526004016105ab90610f8c565b60405180910390fd5b61063a600360008673ffffffffffffffffffffffffffffffffffffffff1673ffffffffffffffffffffffffffffffffffffffff16815260200190815260200160002060003373ffffffffffffffffffffffffffffffffffffffff1673ffffffffffffffffffffffffffffffffffffffff1681526020019081526020016000205483610cd0565b600360008673ffffffffffffffffffffffffffffffffffffffff1673ffffffffffffffffffffffffffffffffffffffff16815260200190815260200160002060003373ffffffffffffffffffffffffffffffffffffffff1673ffffffffffffffffffffffffffffffffffffffff168152602001908152602001600020819055505b610704600260008673ffffffffffffffffffffffffffffffffffffffff1673ffffffffffffffffffffffffffffffffffffffff1681526020019081526020016000205483610cd0565b600260008673ffffffffffffffffffffffffffffffffffffffff1673ffffffffffffffffffffffffffffffffffffffff16815260200190815260200160002081905550610790600260008573ffffffffffffffffffffffffffffffffffffffff1673ffffffffffffffffffffffffffffffffffffffff1681526020019081526020016000205483610cf3565b600260008573ffffffffffffffffffffffffffffffffffffffff1673ffffffffffffffffffffffffffffffffffffffff168152602001908152602001600020819055508273ffffffffffffffffffffffffffffffffffffffff168473ffffffffffffffffffffffffffffffffffffffff167fddf252ad1be2c89b69c2b068fc378daa952ba7f163c4a11628f55a4df523b3ef846040516108309190610fac565b60405180910390a3600190509392505050565b600081565b60016000803373ffffffffffffffffffffffffffffffffffffffff1673ffffffffffffffffffffffffffffffffffffffff16815260200190815260200160002054146108c9576040517f08c379a00000000000000000000000000000000000000000000000000000000081526004016108c090610f6c565b60405180910390fd5b610912600260008473ffffffffffffffffffffffffffffffffffffffff1673ffffffffffffffffffffffffffffffffffffffff1681526020019081526020016000205482610cf3565b600260008473ffffffffffffffffffffffffffffffffffffffff1673ffffffffffffffffffffffffffffffffffffffff1681526020019081526020016000208190555061096160015482610cf3565b6001819055508173ffffffffffffffffffffffffffffffffffffffff16600073ffffffffffffffffffffffffffffffffffffffff167fddf252ad1be2c89b69c2b068fc378daa952ba7f163c4a11628f55a4df523b3ef836040516109c59190610fac565b60405180910390a35050565b6040518060400160405280600181526020017f310000000000000000000000000000000000000000000000000000000000000081525081565b60026020528060005260406000206000915090505481565b60046020528060005260406000206000915090505481565b6040518060400160405280600281526020017f444300000000000000000000000000000000000000000000000000000000000081525081565b60016000803373ffffffffffffffffffffffffffffffffffffffff1673ffffffffffffffffffffffffffffffffffffffff1681526020019081526020016000205414610af4576040517f08c379a0000000000000000000000000000000000000000000000000000000008152600401610aeb90610f6c565b60405180910390fd5b80600260008473ffffffffffffffffffffffffffffffffffffffff1673ffffffffffffffffffffffffffffffffffffffff168152602001908152602001600020541015610b76576040517f08c379a0000000000000000000000000000000000000000000000000000000008152600401610b6d90610f4c565b60405180910390fd5b610bbf600260008473ffffffffffffffffffffffffffffffffffffffff1673ffffffffffffffffffffffffffffffffffffffff1681526020019081526020016000205482610cd0565b600260008473ffffffffffffffffffffffffffffffffffffffff1673ffffffffffffffffffffffffffffffffffffffff16815260200190815260200160002081905550610c0e60015482610cd0565b600181905550600073ffffffffffffffffffffffffffffffffffffffff168273ffffffffffffffffffffffffffffffffffffffff167fddf252ad1be2c89b69c2b068fc378daa952ba7f163c4a11628f55a4df523b3ef83604051610c729190610fac565b60405180910390a35050565b6000610c8b33848461043e565b905092915050565b60006020528060005260406000206000915090505481565b6003602052816000526040600020602052806000526040600020600091509150505481565b6000828284610cdf9190611054565b9150811115610ced57600080fd5b92915050565b6000828284610d029190610ffe565b9150811015610d1057600080fd5b92915050565b600081359050610d25816111d0565b92915050565b600081359050610d3a816111e7565b92915050565b600060208284031215610d5657610d5561113f565b5b6000610d6484828501610d16565b91505092915050565b60008060408385031215610d8457610d8361113f565b5b6000610d9285828601610d16565b9250506020610da385828601610d16565b9150509250929050565b600080600060608486031215610dc657610dc561113f565b5b6000610dd486828701610d16565b9350506020610de586828701610d16565b9250506040610df686828701610d2b565b9150509250925092565b60008060408385031215610e1757610e1661113f565b5b6000610e2585828601610d16565b9250506020610e3685828601610d2b565b9150509250929050565b610e498161109a565b82525050565b6000610e5a82610fe2565b610e648185610fed565b9350610e748185602086016110dd565b610e7d81611144565b840191505092915050565b6000610e95601483610fed565b9150610ea082611155565b602082019050919050565b6000610eb8600e83610fed565b9150610ec38261117e565b602082019050919050565b6000610edb601683610fed565b9150610ee6826111a7565b602082019050919050565b610efa816110c6565b82525050565b610f09816110d0565b82525050565b6000602082019050610f246000830184610e40565b92915050565b60006020820190508181036000830152610f448184610e4f565b905092915050565b60006020820190508181036000830152610f6581610e88565b9050919050565b60006020820190508181036000830152610f8581610eab565b9050919050565b60006020820190508181036000830152610fa581610ece565b9050919050565b6000602082019050610fc16000830184610ef1565b92915050565b6000602082019050610fdc6000830184610f00565b92915050565b600081519050919050565b600082825260208201905092915050565b6000611009826110c6565b9150611014836110c6565b9250827fffffffffffffffffffffffffffffffffffffffffffffffffffffffffffffffff0382111561104957611048611110565b5b828201905092915050565b600061105f826110c6565b915061106a836110c6565b92508282101561107d5761107c611110565b5b828203905092915050565b6000611093826110a6565b9050919050565b60008115159050919050565b600073ffffffffffffffffffffffffffffffffffffffff82169050919050565b6000819050919050565b600060ff82169050919050565b60005b838110156110fb5780820151818401526020810190506110e0565b8381111561110a576000848401525b50505050565b7f4e487b7100000000000000000000000000000000000000000000000000000000600052601160045260246000fd5b600080fd5b6000601f19601f8301169050919050565b7f696e73756666696369656e742d62616c616e6365000000000000000000000000600082015250565b7f4e6f742d617574686f72697a6564000000000000000000000000000000000000600082015250565b7f696e73756666696369656e742d616c6c6f77616e636500000000000000000000600082015250565b6111d981611088565b81146111e457600080fd5b50565b6111f0816110c6565b81146111fb57600080fd5b5056fea264697066735822122072f2a52ddf5c40da7824ca697982c23c6085889b536237b7c57f26c313a649b364736f6c63430008070033",
					"opcodes": "PUSH1 0x80 PUSH1 0x40 MSTORE PUSH1 0x16 PUSH1 0x3 SSTORE CALLVALUE DUP1 ISZERO PUSH2 0x15 JUMPI PUSH1 0x0 DUP1 REVERT JUMPDEST POP PUSH1 0x1 PUSH1 0x0 DUP1 CALLER PUSH20 0xFFFFFFFFFFFFFFFFFFFFFFFFFFFFFFFFFFFFFFFF AND PUSH20 0xFFFFFFFFFFFFFFFFFFFFFFFFFFFFFFFFFFFFFFFF AND DUP2 MSTORE PUSH1 0x20 ADD SWAP1 DUP2 MSTORE PUSH1 0x20 ADD PUSH1 0x0 KECCAK256 DUP2 SWAP1 SSTORE POP PUSH1 0x40 MLOAD PUSH2 0x66 SWAP1 PUSH2 0x11D JUMP JUMPDEST PUSH1 0x40 MLOAD DUP1 SWAP2 SUB SWAP1 PUSH1 0x0 CREATE DUP1 ISZERO DUP1 ISZERO PUSH2 0x82 JUMPI RETURNDATASIZE PUSH1 0x0 DUP1 RETURNDATACOPY RETURNDATASIZE PUSH1 0x0 REVERT JUMPDEST POP PUSH1 0x1 PUSH1 0x0 PUSH2 0x100 EXP DUP2 SLOAD DUP2 PUSH20 0xFFFFFFFFFFFFFFFFFFFFFFFFFFFFFFFFFFFFFFFF MUL NOT AND SWAP1 DUP4 PUSH20 0xFFFFFFFFFFFFFFFFFFFFFFFFFFFFFFFFFFFFFFFF AND MUL OR SWAP1 SSTORE POP PUSH20 0x13E3EE699D1909E989722E753853AE30B17E08C5 PUSH1 0x2 PUSH1 0x0 PUSH2 0x100 EXP DUP2 SLOAD DUP2 PUSH20 0xFFFFFFFFFFFFFFFFFFFFFFFFFFFFFFFFFFFFFFFF MUL NOT AND SWAP1 DUP4 PUSH20 0xFFFFFFFFFFFFFFFFFFFFFFFFFFFFFFFFFFFFFFFF AND MUL OR SWAP1 SSTORE POP PUSH2 0x12A JUMP JUMPDEST PUSH2 0x12A0 DUP1 PUSH2 0xB1F DUP4 CODECOPY ADD SWAP1 JUMP JUMPDEST PUSH2 0x9E6 DUP1 PUSH2 0x139 PUSH1 0x0 CODECOPY PUSH1 0x0 RETURN INVALID PUSH1 0x80 PUSH1 0x40 MSTORE PUSH1 0x4 CALLDATASIZE LT PUSH2 0x70 JUMPI PUSH1 0x0 CALLDATALOAD PUSH1 0xE0 SHR DUP1 PUSH4 0xBF353DBB GT PUSH2 0x4E JUMPI DUP1 PUSH4 0xBF353DBB EQ PUSH2 0xD8 JUMPI DUP1 PUSH4 0xE086E5EC EQ PUSH2 0x115 JUMPI DUP1 PUSH4 0xED12E8EF EQ PUSH2 0x12C JUMPI DUP1 PUSH4 0xF68C3B96 EQ PUSH2 0x157 JUMPI PUSH2 0x70 JUMP JUMPDEST DUP1 PUSH4 0x41B33680 EQ PUSH2 0x75 JUMPI DUP1 PUSH4 0x5358FBDA EQ PUSH2 0xA0 JUMPI DUP1 PUSH4 0x9F4FC5CA EQ PUSH2 0xBC JUMPI JUMPDEST PUSH1 0x0 DUP1 REVERT JUMPDEST CALLVALUE DUP1 ISZERO PUSH2 0x81 JUMPI PUSH1 0x0 DUP1 REVERT JUMPDEST POP PUSH2 0x8A PUSH2 0x180 JUMP JUMPDEST PUSH1 0x40 MLOAD PUSH2 0x97 SWAP2 SWAP1 PUSH2 0x78B JUMP JUMPDEST PUSH1 0x40 MLOAD DUP1 SWAP2 SUB SWAP1 RETURN JUMPDEST PUSH2 0xBA PUSH1 0x4 DUP1 CALLDATASIZE SUB DUP2 ADD SWAP1 PUSH2 0xB5 SWAP2 SWAP1 PUSH2 0x606 JUMP JUMPDEST PUSH2 0x18A JUMP JUMPDEST STOP JUMPDEST PUSH2 0xD6 PUSH1 0x4 DUP1 CALLDATASIZE SUB DUP2 ADD SWAP1 PUSH2 0xD1 SWAP2 SWAP1 PUSH2 0x606 JUMP JUMPDEST PUSH2 0x199 JUMP JUMPDEST STOP JUMPDEST CALLVALUE DUP1 ISZERO PUSH2 0xE4 JUMPI PUSH1 0x0 DUP1 REVERT JUMPDEST POP PUSH2 0xFF PUSH1 0x4 DUP1 CALLDATASIZE SUB DUP2 ADD SWAP1 PUSH2 0xFA SWAP2 SWAP1 PUSH2 0x5D9 JUMP JUMPDEST PUSH2 0x262 JUMP JUMPDEST PUSH1 0x40 MLOAD PUSH2 0x10C SWAP2 SWAP1 PUSH2 0x78B JUMP JUMPDEST PUSH1 0x40 MLOAD DUP1 SWAP2 SUB SWAP1 RETURN JUMPDEST CALLVALUE DUP1 ISZERO PUSH2 0x121 JUMPI PUSH1 0x0 DUP1 REVERT JUMPDEST POP PUSH2 0x12A PUSH2 0x27A JUMP JUMPDEST STOP JUMPDEST CALLVALUE DUP1 ISZERO PUSH2 0x138 JUMPI PUSH1 0x0 DUP1 REVERT JUMPDEST POP PUSH2 0x141 PUSH2 0x351 JUMP JUMPDEST PUSH1 0x40 MLOAD PUSH2 0x14E SWAP2 SWAP1 PUSH2 0x78B JUMP JUMPDEST PUSH1 0x40 MLOAD DUP1 SWAP2 SUB SWAP1 RETURN JUMPDEST CALLVALUE DUP1 ISZERO PUSH2 0x163 JUMPI PUSH1 0x0 DUP1 REVERT JUMPDEST POP PUSH2 0x17E PUSH1 0x4 DUP1 CALLDATASIZE SUB DUP2 ADD SWAP1 PUSH2 0x179 SWAP2 SWAP1 PUSH2 0x606 JUMP JUMPDEST PUSH2 0x359 JUMP JUMPDEST STOP JUMPDEST PUSH1 0x0 PUSH2 0x7530 SWAP1 POP SWAP1 JUMP JUMPDEST DUP1 CALLVALUE EQ PUSH2 0x196 JUMPI PUSH1 0x0 DUP1 REVERT JUMPDEST POP JUMP JUMPDEST DUP1 CALLVALUE EQ PUSH2 0x1A5 JUMPI PUSH1 0x0 DUP1 REVERT JUMPDEST PUSH1 0x0 PUSH8 0xDE0B6B3A7640000 PUSH2 0x1B8 PUSH2 0x180 JUMP JUMPDEST DUP4 PUSH2 0x1C3 SWAP2 SWAP1 PUSH2 0x7E8 JUMP JUMPDEST PUSH2 0x1CD SWAP2 SWAP1 PUSH2 0x7B7 JUMP JUMPDEST SWAP1 POP PUSH1 0x1 PUSH1 0x0 SWAP1 SLOAD SWAP1 PUSH2 0x100 EXP SWAP1 DIV PUSH20 0xFFFFFFFFFFFFFFFFFFFFFFFFFFFFFFFFFFFFFFFF AND PUSH20 0xFFFFFFFFFFFFFFFFFFFFFFFFFFFFFFFFFFFFFFFF AND PUSH4 0x40C10F19 CALLER DUP4 PUSH1 0x40 MLOAD DUP4 PUSH4 0xFFFFFFFF AND PUSH1 0xE0 SHL DUP2 MSTORE PUSH1 0x4 ADD PUSH2 0x22C SWAP3 SWAP2 SWAP1 PUSH2 0x702 JUMP JUMPDEST PUSH1 0x0 PUSH1 0x40 MLOAD DUP1 DUP4 SUB DUP2 PUSH1 0x0 DUP8 DUP1 EXTCODESIZE ISZERO DUP1 ISZERO PUSH2 0x246 JUMPI PUSH1 0x0 DUP1 REVERT JUMPDEST POP GAS CALL ISZERO DUP1 ISZERO PUSH2 0x25A JUMPI RETURNDATASIZE PUSH1 0x0 DUP1 RETURNDATACOPY RETURNDATASIZE PUSH1 0x0 REVERT JUMPDEST POP POP POP POP POP POP JUMP JUMPDEST PUSH1 0x0 PUSH1 0x20 MSTORE DUP1 PUSH1 0x0 MSTORE PUSH1 0x40 PUSH1 0x0 KECCAK256 PUSH1 0x0 SWAP2 POP SWAP1 POP SLOAD DUP2 JUMP JUMPDEST PUSH1 0x1 PUSH1 0x0 DUP1 CALLER PUSH20 0xFFFFFFFFFFFFFFFFFFFFFFFFFFFFFFFFFFFFFFFF AND PUSH20 0xFFFFFFFFFFFFFFFFFFFFFFFFFFFFFFFFFFFFFFFF AND DUP2 MSTORE PUSH1 0x20 ADD SWAP1 DUP2 MSTORE PUSH1 0x20 ADD PUSH1 0x0 KECCAK256 SLOAD EQ PUSH2 0x2FB JUMPI PUSH1 0x40 MLOAD PUSH32 0x8C379A000000000000000000000000000000000000000000000000000000000 DUP2 MSTORE PUSH1 0x4 ADD PUSH2 0x2F2 SWAP1 PUSH2 0x76B JUMP JUMPDEST PUSH1 0x40 MLOAD DUP1 SWAP2 SUB SWAP1 REVERT JUMPDEST PUSH1 0x0 CALLER SWAP1 POP DUP1 PUSH20 0xFFFFFFFFFFFFFFFFFFFFFFFFFFFFFFFFFFFFFFFF AND PUSH2 0x8FC PUSH2 0x322 PUSH2 0x351 JUMP JUMPDEST SWAP1 DUP2 ISZERO MUL SWAP1 PUSH1 0x40 MLOAD PUSH1 0x0 PUSH1 0x40 MLOAD DUP1 DUP4 SUB DUP2 DUP6 DUP9 DUP9 CALL SWAP4 POP POP POP POP ISZERO DUP1 ISZERO PUSH2 0x34D JUMPI RETURNDATASIZE PUSH1 0x0 DUP1 RETURNDATACOPY RETURNDATASIZE PUSH1 0x0 REVERT JUMPDEST POP POP JUMP JUMPDEST PUSH1 0x0 SELFBALANCE SWAP1 POP SWAP1 JUMP JUMPDEST DUP1 PUSH1 0x1 PUSH1 0x0 SWAP1 SLOAD SWAP1 PUSH2 0x100 EXP SWAP1 DIV PUSH20 0xFFFFFFFFFFFFFFFFFFFFFFFFFFFFFFFFFFFFFFFF AND PUSH20 0xFFFFFFFFFFFFFFFFFFFFFFFFFFFFFFFFFFFFFFFF AND PUSH4 0x70A08231 CALLER PUSH1 0x40 MLOAD DUP3 PUSH4 0xFFFFFFFF AND PUSH1 0xE0 SHL DUP2 MSTORE PUSH1 0x4 ADD PUSH2 0x3B5 SWAP2 SWAP1 PUSH2 0x6E7 JUMP JUMPDEST PUSH1 0x20 PUSH1 0x40 MLOAD DUP1 DUP4 SUB DUP2 DUP7 DUP1 EXTCODESIZE ISZERO DUP1 ISZERO PUSH2 0x3CD JUMPI PUSH1 0x0 DUP1 REVERT JUMPDEST POP GAS STATICCALL ISZERO DUP1 ISZERO PUSH2 0x3E1 JUMPI RETURNDATASIZE PUSH1 0x0 DUP1 RETURNDATACOPY RETURNDATASIZE PUSH1 0x0 REVERT JUMPDEST POP POP POP POP PUSH1 0x40 MLOAD RETURNDATASIZE PUSH1 0x1F NOT PUSH1 0x1F DUP3 ADD AND DUP3 ADD DUP1 PUSH1 0x40 MSTORE POP DUP2 ADD SWAP1 PUSH2 0x405 SWAP2 SWAP1 PUSH2 0x633 JUMP JUMPDEST LT ISZERO PUSH2 0x446 JUMPI PUSH1 0x40 MLOAD PUSH32 0x8C379A000000000000000000000000000000000000000000000000000000000 DUP2 MSTORE PUSH1 0x4 ADD PUSH2 0x43D SWAP1 PUSH2 0x74B JUMP JUMPDEST PUSH1 0x40 MLOAD DUP1 SWAP2 SUB SWAP1 REVERT JUMPDEST PUSH1 0x0 PUSH2 0x450 PUSH2 0x180 JUMP JUMPDEST PUSH8 0xDE0B6B3A7640000 DUP4 PUSH2 0x464 SWAP2 SWAP1 PUSH2 0x7E8 JUMP JUMPDEST PUSH2 0x46E SWAP2 SWAP1 PUSH2 0x7B7 JUMP JUMPDEST SWAP1 POP PUSH2 0x478 PUSH2 0x351 JUMP JUMPDEST DUP2 GT ISZERO PUSH2 0x4BA JUMPI PUSH1 0x40 MLOAD PUSH32 0x8C379A000000000000000000000000000000000000000000000000000000000 DUP2 MSTORE PUSH1 0x4 ADD PUSH2 0x4B1 SWAP1 PUSH2 0x72B JUMP JUMPDEST PUSH1 0x40 MLOAD DUP1 SWAP2 SUB SWAP1 REVERT JUMPDEST PUSH1 0x0 CALLER SWAP1 POP DUP1 PUSH20 0xFFFFFFFFFFFFFFFFFFFFFFFFFFFFFFFFFFFFFFFF AND PUSH2 0x8FC DUP4 SWAP1 DUP2 ISZERO MUL SWAP1 PUSH1 0x40 MLOAD PUSH1 0x0 PUSH1 0x40 MLOAD DUP1 DUP4 SUB DUP2 DUP6 DUP9 DUP9 CALL SWAP4 POP POP POP POP ISZERO DUP1 ISZERO PUSH2 0x505 JUMPI RETURNDATASIZE PUSH1 0x0 DUP1 RETURNDATACOPY RETURNDATASIZE PUSH1 0x0 REVERT JUMPDEST POP PUSH1 0x1 PUSH1 0x0 SWAP1 SLOAD SWAP1 PUSH2 0x100 EXP SWAP1 DIV PUSH20 0xFFFFFFFFFFFFFFFFFFFFFFFFFFFFFFFFFFFFFFFF AND PUSH20 0xFFFFFFFFFFFFFFFFFFFFFFFFFFFFFFFFFFFFFFFF AND PUSH4 0x9DC29FAC CALLER DUP6 PUSH1 0x40 MLOAD DUP4 PUSH4 0xFFFFFFFF AND PUSH1 0xE0 SHL DUP2 MSTORE PUSH1 0x4 ADD PUSH2 0x563 SWAP3 SWAP2 SWAP1 PUSH2 0x702 JUMP JUMPDEST PUSH1 0x0 PUSH1 0x40 MLOAD DUP1 DUP4 SUB DUP2 PUSH1 0x0 DUP8 DUP1 EXTCODESIZE ISZERO DUP1 ISZERO PUSH2 0x57D JUMPI PUSH1 0x0 DUP1 REVERT JUMPDEST POP GAS CALL ISZERO DUP1 ISZERO PUSH2 0x591 JUMPI RETURNDATASIZE PUSH1 0x0 DUP1 RETURNDATACOPY RETURNDATASIZE PUSH1 0x0 REVERT JUMPDEST POP POP POP POP POP POP POP JUMP JUMPDEST PUSH1 0x0 DUP2 CALLDATALOAD SWAP1 POP PUSH2 0x5A9 DUP2 PUSH2 0x982 JUMP JUMPDEST SWAP3 SWAP2 POP POP JUMP JUMPDEST PUSH1 0x0 DUP2 CALLDATALOAD SWAP1 POP PUSH2 0x5BE DUP2 PUSH2 0x999 JUMP JUMPDEST SWAP3 SWAP2 POP POP JUMP JUMPDEST PUSH1 0x0 DUP2 MLOAD SWAP1 POP PUSH2 0x5D3 DUP2 PUSH2 0x999 JUMP JUMPDEST SWAP3 SWAP2 POP POP JUMP JUMPDEST PUSH1 0x0 PUSH1 0x20 DUP3 DUP5 SUB SLT ISZERO PUSH2 0x5EF JUMPI PUSH2 0x5EE PUSH2 0x8DC JUMP JUMPDEST JUMPDEST PUSH1 0x0 PUSH2 0x5FD DUP5 DUP3 DUP6 ADD PUSH2 0x59A JUMP JUMPDEST SWAP2 POP POP SWAP3 SWAP2 POP POP JUMP JUMPDEST PUSH1 0x0 PUSH1 0x20 DUP3 DUP5 SUB SLT ISZERO PUSH2 0x61C JUMPI PUSH2 0x61B PUSH2 0x8DC JUMP JUMPDEST JUMPDEST PUSH1 0x0 PUSH2 0x62A DUP5 DUP3 DUP6 ADD PUSH2 0x5AF JUMP JUMPDEST SWAP2 POP POP SWAP3 SWAP2 POP POP JUMP JUMPDEST PUSH1 0x0 PUSH1 0x20 DUP3 DUP5 SUB SLT ISZERO PUSH2 0x649 JUMPI PUSH2 0x648 PUSH2 0x8DC JUMP JUMPDEST JUMPDEST PUSH1 0x0 PUSH2 0x657 DUP5 DUP3 DUP6 ADD PUSH2 0x5C4 JUMP JUMPDEST SWAP2 POP POP SWAP3 SWAP2 POP POP JUMP JUMPDEST PUSH2 0x669 DUP2 PUSH2 0x842 JUMP JUMPDEST DUP3 MSTORE POP POP JUMP JUMPDEST PUSH1 0x0 PUSH2 0x67C PUSH1 0x21 DUP4 PUSH2 0x7A6 JUMP JUMPDEST SWAP2 POP PUSH2 0x687 DUP3 PUSH2 0x8E1 JUMP JUMPDEST PUSH1 0x40 DUP3 ADD SWAP1 POP SWAP2 SWAP1 POP JUMP JUMPDEST PUSH1 0x0 PUSH2 0x69F PUSH1 0x14 DUP4 PUSH2 0x7A6 JUMP JUMPDEST SWAP2 POP PUSH2 0x6AA DUP3 PUSH2 0x930 JUMP JUMPDEST PUSH1 0x20 DUP3 ADD SWAP1 POP SWAP2 SWAP1 POP JUMP JUMPDEST PUSH1 0x0 PUSH2 0x6C2 PUSH1 0xE DUP4 PUSH2 0x7A6 JUMP JUMPDEST SWAP2 POP PUSH2 0x6CD DUP3 PUSH2 0x959 JUMP JUMPDEST PUSH1 0x20 DUP3 ADD SWAP1 POP SWAP2 SWAP1 POP JUMP JUMPDEST PUSH2 0x6E1 DUP2 PUSH2 0x874 JUMP JUMPDEST DUP3 MSTORE POP POP JUMP JUMPDEST PUSH1 0x0 PUSH1 0x20 DUP3 ADD SWAP1 POP PUSH2 0x6FC PUSH1 0x0 DUP4 ADD DUP5 PUSH2 0x660 JUMP JUMPDEST SWAP3 SWAP2 POP POP JUMP JUMPDEST PUSH1 0x0 PUSH1 0x40 DUP3 ADD SWAP1 POP PUSH2 0x717 PUSH1 0x0 DUP4 ADD DUP6 PUSH2 0x660 JUMP JUMPDEST PUSH2 0x724 PUSH1 0x20 DUP4 ADD DUP5 PUSH2 0x6D8 JUMP JUMPDEST SWAP4 SWAP3 POP POP POP JUMP JUMPDEST PUSH1 0x0 PUSH1 0x20 DUP3 ADD SWAP1 POP DUP2 DUP2 SUB PUSH1 0x0 DUP4 ADD MSTORE PUSH2 0x744 DUP2 PUSH2 0x66F JUMP JUMPDEST SWAP1 POP SWAP2 SWAP1 POP JUMP JUMPDEST PUSH1 0x0 PUSH1 0x20 DUP3 ADD SWAP1 POP DUP2 DUP2 SUB PUSH1 0x0 DUP4 ADD MSTORE PUSH2 0x764 DUP2 PUSH2 0x692 JUMP JUMPDEST SWAP1 POP SWAP2 SWAP1 POP JUMP JUMPDEST PUSH1 0x0 PUSH1 0x20 DUP3 ADD SWAP1 POP DUP2 DUP2 SUB PUSH1 0x0 DUP4 ADD MSTORE PUSH2 0x784 DUP2 PUSH2 0x6B5 JUMP JUMPDEST SWAP1 POP SWAP2 SWAP1 POP JUMP JUMPDEST PUSH1 0x0 PUSH1 0x20 DUP3 ADD SWAP1 POP PUSH2 0x7A0 PUSH1 0x0 DUP4 ADD DUP5 PUSH2 0x6D8 JUMP JUMPDEST SWAP3 SWAP2 POP POP JUMP JUMPDEST PUSH1 0x0 DUP3 DUP3 MSTORE PUSH1 0x20 DUP3 ADD SWAP1 POP SWAP3 SWAP2 POP POP JUMP JUMPDEST PUSH1 0x0 PUSH2 0x7C2 DUP3 PUSH2 0x874 JUMP JUMPDEST SWAP2 POP PUSH2 0x7CD DUP4 PUSH2 0x874 JUMP JUMPDEST SWAP3 POP DUP3 PUSH2 0x7DD JUMPI PUSH2 0x7DC PUSH2 0x8AD JUMP JUMPDEST JUMPDEST DUP3 DUP3 DIV SWAP1 POP SWAP3 SWAP2 POP POP JUMP JUMPDEST PUSH1 0x0 PUSH2 0x7F3 DUP3 PUSH2 0x874 JUMP JUMPDEST SWAP2 POP PUSH2 0x7FE DUP4 PUSH2 0x874 JUMP JUMPDEST SWAP3 POP DUP2 PUSH32 0xFFFFFFFFFFFFFFFFFFFFFFFFFFFFFFFFFFFFFFFFFFFFFFFFFFFFFFFFFFFFFFFF DIV DUP4 GT DUP3 ISZERO ISZERO AND ISZERO PUSH2 0x837 JUMPI PUSH2 0x836 PUSH2 0x87E JUMP JUMPDEST JUMPDEST DUP3 DUP3 MUL SWAP1 POP SWAP3 SWAP2 POP POP JUMP JUMPDEST PUSH1 0x0 PUSH2 0x84D DUP3 PUSH2 0x854 JUMP JUMPDEST SWAP1 POP SWAP2 SWAP1 POP JUMP JUMPDEST PUSH1 0x0 PUSH20 0xFFFFFFFFFFFFFFFFFFFFFFFFFFFFFFFFFFFFFFFF DUP3 AND SWAP1 POP SWAP2 SWAP1 POP JUMP JUMPDEST PUSH1 0x0 DUP2 SWAP1 POP SWAP2 SWAP1 POP JUMP JUMPDEST PUSH32 0x4E487B7100000000000000000000000000000000000000000000000000000000 PUSH1 0x0 MSTORE PUSH1 0x11 PUSH1 0x4 MSTORE PUSH1 0x24 PUSH1 0x0 REVERT JUMPDEST PUSH32 0x4E487B7100000000000000000000000000000000000000000000000000000000 PUSH1 0x0 MSTORE PUSH1 0x12 PUSH1 0x4 MSTORE PUSH1 0x24 PUSH1 0x0 REVERT JUMPDEST PUSH1 0x0 DUP1 REVERT JUMPDEST PUSH32 0x436F6C6C61746572616C207661756C7420776173206C69717569646174656420 PUSH1 0x0 DUP3 ADD MSTORE PUSH32 0x2100000000000000000000000000000000000000000000000000000000000000 PUSH1 0x20 DUP3 ADD MSTORE POP JUMP JUMPDEST PUSH32 0x696E73756666696369656E742D62616C616E6365000000000000000000000000 PUSH1 0x0 DUP3 ADD MSTORE POP JUMP JUMPDEST PUSH32 0x4E6F742D617574686F72697A6564000000000000000000000000000000000000 PUSH1 0x0 DUP3 ADD MSTORE POP JUMP JUMPDEST PUSH2 0x98B DUP2 PUSH2 0x842 JUMP JUMPDEST DUP2 EQ PUSH2 0x996 JUMPI PUSH1 0x0 DUP1 REVERT JUMPDEST POP JUMP JUMPDEST PUSH2 0x9A2 DUP2 PUSH2 0x874 JUMP JUMPDEST DUP2 EQ PUSH2 0x9AD JUMPI PUSH1 0x0 DUP1 REVERT JUMPDEST POP JUMP INVALID LOG2 PUSH5 0x6970667358 0x22 SLT KECCAK256 0xE8 PUSH19 0xD56E016437714FE9F002D0B3D2CC521AB129A1 MSIZE PUSH10 0xC95074AC8AFD4253A964 PUSH20 0x6F6C634300080700336080604052348015610010 JUMPI PUSH1 0x0 DUP1 REVERT JUMPDEST POP PUSH1 0x1 PUSH1 0x0 DUP1 CALLER PUSH20 0xFFFFFFFFFFFFFFFFFFFFFFFFFFFFFFFFFFFFFFFF AND PUSH20 0xFFFFFFFFFFFFFFFFFFFFFFFFFFFFFFFFFFFFFFFF AND DUP2 MSTORE PUSH1 0x20 ADD SWAP1 DUP2 MSTORE PUSH1 0x20 ADD PUSH1 0x0 KECCAK256 DUP2 SWAP1 SSTORE POP PUSH1 0x0 PUSH1 0x1 DUP2 SWAP1 SSTORE POP PUSH2 0x1234 DUP1 PUSH2 0x6C PUSH1 0x0 CODECOPY PUSH1 0x0 RETURN INVALID PUSH1 0x80 PUSH1 0x40 MSTORE CALLVALUE DUP1 ISZERO PUSH2 0x10 JUMPI PUSH1 0x0 DUP1 REVERT JUMPDEST POP PUSH1 0x4 CALLDATASIZE LT PUSH2 0xEA JUMPI PUSH1 0x0 CALLDATALOAD PUSH1 0xE0 SHR DUP1 PUSH4 0x70A08231 GT PUSH2 0x8C JUMPI DUP1 PUSH4 0x9DC29FAC GT PUSH2 0x66 JUMPI DUP1 PUSH4 0x9DC29FAC EQ PUSH2 0x261 JUMPI DUP1 PUSH4 0xA9059CBB EQ PUSH2 0x27D JUMPI DUP1 PUSH4 0xBF353DBB EQ PUSH2 0x2AD JUMPI DUP1 PUSH4 0xDD62ED3E EQ PUSH2 0x2DD JUMPI PUSH2 0xEA JUMP JUMPDEST DUP1 PUSH4 0x70A08231 EQ PUSH2 0x1E3 JUMPI DUP1 PUSH4 0x7ECEBE00 EQ PUSH2 0x213 JUMPI DUP1 PUSH4 0x95D89B41 EQ PUSH2 0x243 JUMPI PUSH2 0xEA JUMP JUMPDEST DUP1 PUSH4 0x23B872DD GT PUSH2 0xC8 JUMPI DUP1 PUSH4 0x23B872DD EQ PUSH2 0x15B JUMPI DUP1 PUSH4 0x313CE567 EQ PUSH2 0x18B JUMPI DUP1 PUSH4 0x40C10F19 EQ PUSH2 0x1A9 JUMPI DUP1 PUSH4 0x54FD4D50 EQ PUSH2 0x1C5 JUMPI PUSH2 0xEA JUMP JUMPDEST DUP1 PUSH4 0x6FDDE03 EQ PUSH2 0xEF JUMPI DUP1 PUSH4 0x95EA7B3 EQ PUSH2 0x10D JUMPI DUP1 PUSH4 0x18160DDD EQ PUSH2 0x13D JUMPI JUMPDEST PUSH1 0x0 DUP1 REVERT JUMPDEST PUSH2 0xF7 PUSH2 0x30D JUMP JUMPDEST PUSH1 0x40 MLOAD PUSH2 0x104 SWAP2 SWAP1 PUSH2 0xF2A JUMP JUMPDEST PUSH1 0x40 MLOAD DUP1 SWAP2 SUB SWAP1 RETURN JUMPDEST PUSH2 0x127 PUSH1 0x4 DUP1 CALLDATASIZE SUB DUP2 ADD SWAP1 PUSH2 0x122 SWAP2 SWAP1 PUSH2 0xE00 JUMP JUMPDEST PUSH2 0x346 JUMP JUMPDEST PUSH1 0x40 MLOAD PUSH2 0x134 SWAP2 SWAP1 PUSH2 0xF0F JUMP JUMPDEST PUSH1 0x40 MLOAD DUP1 SWAP2 SUB SWAP1 RETURN JUMPDEST PUSH2 0x145 PUSH2 0x438 JUMP JUMPDEST PUSH1 0x40 MLOAD PUSH2 0x152 SWAP2 SWAP1 PUSH2 0xFAC JUMP JUMPDEST PUSH1 0x40 MLOAD DUP1 SWAP2 SUB SWAP1 RETURN JUMPDEST PUSH2 0x175 PUSH1 0x4 DUP1 CALLDATASIZE SUB DUP2 ADD SWAP1 PUSH2 0x170 SWAP2 SWAP1 PUSH2 0xDAD JUMP JUMPDEST PUSH2 0x43E JUMP JUMPDEST PUSH1 0x40 MLOAD PUSH2 0x182 SWAP2 SWAP1 PUSH2 0xF0F JUMP JUMPDEST PUSH1 0x40 MLOAD DUP1 SWAP2 SUB SWAP1 RETURN JUMPDEST PUSH2 0x193 PUSH2 0x843 JUMP JUMPDEST PUSH1 0x40 MLOAD PUSH2 0x1A0 SWAP2 SWAP1 PUSH2 0xFC7 JUMP JUMPDEST PUSH1 0x40 MLOAD DUP1 SWAP2 SUB SWAP1 RETURN JUMPDEST PUSH2 0x1C3 PUSH1 0x4 DUP1 CALLDATASIZE SUB DUP2 ADD SWAP1 PUSH2 0x1BE SWAP2 SWAP1 PUSH2 0xE00 JUMP JUMPDEST PUSH2 0x848 JUMP JUMPDEST STOP JUMPDEST PUSH2 0x1CD PUSH2 0x9D1 JUMP JUMPDEST PUSH1 0x40 MLOAD PUSH2 0x1DA SWAP2 SWAP1 PUSH2 0xF2A JUMP JUMPDEST PUSH1 0x40 MLOAD DUP1 SWAP2 SUB SWAP1 RETURN JUMPDEST PUSH2 0x1FD PUSH1 0x4 DUP1 CALLDATASIZE SUB DUP2 ADD SWAP1 PUSH2 0x1F8 SWAP2 SWAP1 PUSH2 0xD40 JUMP JUMPDEST PUSH2 0xA0A JUMP JUMPDEST PUSH1 0x40 MLOAD PUSH2 0x20A SWAP2 SWAP1 PUSH2 0xFAC JUMP JUMPDEST PUSH1 0x40 MLOAD DUP1 SWAP2 SUB SWAP1 RETURN JUMPDEST PUSH2 0x22D PUSH1 0x4 DUP1 CALLDATASIZE SUB DUP2 ADD SWAP1 PUSH2 0x228 SWAP2 SWAP1 PUSH2 0xD40 JUMP JUMPDEST PUSH2 0xA22 JUMP JUMPDEST PUSH1 0x40 MLOAD PUSH2 0x23A SWAP2 SWAP1 PUSH2 0xFAC JUMP JUMPDEST PUSH1 0x40 MLOAD DUP1 SWAP2 SUB SWAP1 RETURN JUMPDEST PUSH2 0x24B PUSH2 0xA3A JUMP JUMPDEST PUSH1 0x40 MLOAD PUSH2 0x258 SWAP2 SWAP1 PUSH2 0xF2A JUMP JUMPDEST PUSH1 0x40 MLOAD DUP1 SWAP2 SUB SWAP1 RETURN JUMPDEST PUSH2 0x27B PUSH1 0x4 DUP1 CALLDATASIZE SUB DUP2 ADD SWAP1 PUSH2 0x276 SWAP2 SWAP1 PUSH2 0xE00 JUMP JUMPDEST PUSH2 0xA73 JUMP JUMPDEST STOP JUMPDEST PUSH2 0x297 PUSH1 0x4 DUP1 CALLDATASIZE SUB DUP2 ADD SWAP1 PUSH2 0x292 SWAP2 SWAP1 PUSH2 0xE00 JUMP JUMPDEST PUSH2 0xC7E JUMP JUMPDEST PUSH1 0x40 MLOAD PUSH2 0x2A4 SWAP2 SWAP1 PUSH2 0xF0F JUMP JUMPDEST PUSH1 0x40 MLOAD DUP1 SWAP2 SUB SWAP1 RETURN JUMPDEST PUSH2 0x2C7 PUSH1 0x4 DUP1 CALLDATASIZE SUB DUP2 ADD SWAP1 PUSH2 0x2C2 SWAP2 SWAP1 PUSH2 0xD40 JUMP JUMPDEST PUSH2 0xC93 JUMP JUMPDEST PUSH1 0x40 MLOAD PUSH2 0x2D4 SWAP2 SWAP1 PUSH2 0xFAC JUMP JUMPDEST PUSH1 0x40 MLOAD DUP1 SWAP2 SUB SWAP1 RETURN JUMPDEST PUSH2 0x2F7 PUSH1 0x4 DUP1 CALLDATASIZE SUB DUP2 ADD SWAP1 PUSH2 0x2F2 SWAP2 SWAP1 PUSH2 0xD6D JUMP JUMPDEST PUSH2 0xCAB JUMP JUMPDEST PUSH1 0x40 MLOAD PUSH2 0x304 SWAP2 SWAP1 PUSH2 0xFAC JUMP JUMPDEST PUSH1 0x40 MLOAD DUP1 SWAP2 SUB SWAP1 RETURN JUMPDEST PUSH1 0x40 MLOAD DUP1 PUSH1 0x40 ADD PUSH1 0x40 MSTORE DUP1 PUSH1 0x8 DUP2 MSTORE PUSH1 0x20 ADD PUSH32 0x446F7461436F696E000000000000000000000000000000000000000000000000 DUP2 MSTORE POP DUP2 JUMP JUMPDEST PUSH1 0x0 DUP2 PUSH1 0x3 PUSH1 0x0 CALLER PUSH20 0xFFFFFFFFFFFFFFFFFFFFFFFFFFFFFFFFFFFFFFFF AND PUSH20 0xFFFFFFFFFFFFFFFFFFFFFFFFFFFFFFFFFFFFFFFF AND DUP2 MSTORE PUSH1 0x20 ADD SWAP1 DUP2 MSTORE PUSH1 0x20 ADD PUSH1 0x0 KECCAK256 PUSH1 0x0 DUP6 PUSH20 0xFFFFFFFFFFFFFFFFFFFFFFFFFFFFFFFFFFFFFFFF AND PUSH20 0xFFFFFFFFFFFFFFFFFFFFFFFFFFFFFFFFFFFFFFFF AND DUP2 MSTORE PUSH1 0x20 ADD SWAP1 DUP2 MSTORE PUSH1 0x20 ADD PUSH1 0x0 KECCAK256 DUP2 SWAP1 SSTORE POP DUP3 PUSH20 0xFFFFFFFFFFFFFFFFFFFFFFFFFFFFFFFFFFFFFFFF AND CALLER PUSH20 0xFFFFFFFFFFFFFFFFFFFFFFFFFFFFFFFFFFFFFFFF AND PUSH32 0x8C5BE1E5EBEC7D5BD14F71427D1E84F3DD0314C0F7B2291E5B200AC8C7C3B925 DUP5 PUSH1 0x40 MLOAD PUSH2 0x426 SWAP2 SWAP1 PUSH2 0xFAC JUMP JUMPDEST PUSH1 0x40 MLOAD DUP1 SWAP2 SUB SWAP1 LOG3 PUSH1 0x1 SWAP1 POP SWAP3 SWAP2 POP POP JUMP JUMPDEST PUSH1 0x1 SLOAD DUP2 JUMP JUMPDEST PUSH1 0x0 PUSH1 0x2 PUSH1 0x0 DUP6 PUSH20 0xFFFFFFFFFFFFFFFFFFFFFFFFFFFFFFFFFFFFFFFF AND PUSH20 0xFFFFFFFFFFFFFFFFFFFFFFFFFFFFFFFFFFFFFFFF AND DUP2 MSTORE PUSH1 0x20 ADD SWAP1 DUP2 MSTORE PUSH1 0x20 ADD PUSH1 0x0 KECCAK256 SLOAD DUP3 GT ISZERO PUSH2 0x4C2 JUMPI PUSH1 0x40 MLOAD PUSH32 0x8C379A000000000000000000000000000000000000000000000000000000000 DUP2 MSTORE PUSH1 0x4 ADD PUSH2 0x4B9 SWAP1 PUSH2 0xF4C JUMP JUMPDEST PUSH1 0x40 MLOAD DUP1 SWAP2 SUB SWAP1 REVERT JUMPDEST CALLER PUSH20 0xFFFFFFFFFFFFFFFFFFFFFFFFFFFFFFFFFFFFFFFF AND DUP5 PUSH20 0xFFFFFFFFFFFFFFFFFFFFFFFFFFFFFFFFFFFFFFFF AND EQ PUSH2 0x6BB JUMPI PUSH1 0x3 PUSH1 0x0 DUP6 PUSH20 0xFFFFFFFFFFFFFFFFFFFFFFFFFFFFFFFFFFFFFFFF AND PUSH20 0xFFFFFFFFFFFFFFFFFFFFFFFFFFFFFFFFFFFFFFFF AND DUP2 MSTORE PUSH1 0x20 ADD SWAP1 DUP2 MSTORE PUSH1 0x20 ADD PUSH1 0x0 KECCAK256 PUSH1 0x0 CALLER PUSH20 0xFFFFFFFFFFFFFFFFFFFFFFFFFFFFFFFFFFFFFFFF AND PUSH20 0xFFFFFFFFFFFFFFFFFFFFFFFFFFFFFFFFFFFFFFFF AND DUP2 MSTORE PUSH1 0x20 ADD SWAP1 DUP2 MSTORE PUSH1 0x20 ADD PUSH1 0x0 KECCAK256 SLOAD DUP3 GT ISZERO PUSH2 0x5B4 JUMPI PUSH1 0x40 MLOAD PUSH32 0x8C379A000000000000000000000000000000000000000000000000000000000 DUP2 MSTORE PUSH1 0x4 ADD PUSH2 0x5AB SWAP1 PUSH2 0xF8C JUMP JUMPDEST PUSH1 0x40 MLOAD DUP1 SWAP2 SUB SWAP1 REVERT JUMPDEST PUSH2 0x63A PUSH1 0x3 PUSH1 0x0 DUP7 PUSH20 0xFFFFFFFFFFFFFFFFFFFFFFFFFFFFFFFFFFFFFFFF AND PUSH20 0xFFFFFFFFFFFFFFFFFFFFFFFFFFFFFFFFFFFFFFFF AND DUP2 MSTORE PUSH1 0x20 ADD SWAP1 DUP2 MSTORE PUSH1 0x20 ADD PUSH1 0x0 KECCAK256 PUSH1 0x0 CALLER PUSH20 0xFFFFFFFFFFFFFFFFFFFFFFFFFFFFFFFFFFFFFFFF AND PUSH20 0xFFFFFFFFFFFFFFFFFFFFFFFFFFFFFFFFFFFFFFFF AND DUP2 MSTORE PUSH1 0x20 ADD SWAP1 DUP2 MSTORE PUSH1 0x20 ADD PUSH1 0x0 KECCAK256 SLOAD DUP4 PUSH2 0xCD0 JUMP JUMPDEST PUSH1 0x3 PUSH1 0x0 DUP7 PUSH20 0xFFFFFFFFFFFFFFFFFFFFFFFFFFFFFFFFFFFFFFFF AND PUSH20 0xFFFFFFFFFFFFFFFFFFFFFFFFFFFFFFFFFFFFFFFF AND DUP2 MSTORE PUSH1 0x20 ADD SWAP1 DUP2 MSTORE PUSH1 0x20 ADD PUSH1 0x0 KECCAK256 PUSH1 0x0 CALLER PUSH20 0xFFFFFFFFFFFFFFFFFFFFFFFFFFFFFFFFFFFFFFFF AND PUSH20 0xFFFFFFFFFFFFFFFFFFFFFFFFFFFFFFFFFFFFFFFF AND DUP2 MSTORE PUSH1 0x20 ADD SWAP1 DUP2 MSTORE PUSH1 0x20 ADD PUSH1 0x0 KECCAK256 DUP2 SWAP1 SSTORE POP JUMPDEST PUSH2 0x704 PUSH1 0x2 PUSH1 0x0 DUP7 PUSH20 0xFFFFFFFFFFFFFFFFFFFFFFFFFFFFFFFFFFFFFFFF AND PUSH20 0xFFFFFFFFFFFFFFFFFFFFFFFFFFFFFFFFFFFFFFFF AND DUP2 MSTORE PUSH1 0x20 ADD SWAP1 DUP2 MSTORE PUSH1 0x20 ADD PUSH1 0x0 KECCAK256 SLOAD DUP4 PUSH2 0xCD0 JUMP JUMPDEST PUSH1 0x2 PUSH1 0x0 DUP7 PUSH20 0xFFFFFFFFFFFFFFFFFFFFFFFFFFFFFFFFFFFFFFFF AND PUSH20 0xFFFFFFFFFFFFFFFFFFFFFFFFFFFFFFFFFFFFFFFF AND DUP2 MSTORE PUSH1 0x20 ADD SWAP1 DUP2 MSTORE PUSH1 0x20 ADD PUSH1 0x0 KECCAK256 DUP2 SWAP1 SSTORE POP PUSH2 0x790 PUSH1 0x2 PUSH1 0x0 DUP6 PUSH20 0xFFFFFFFFFFFFFFFFFFFFFFFFFFFFFFFFFFFFFFFF AND PUSH20 0xFFFFFFFFFFFFFFFFFFFFFFFFFFFFFFFFFFFFFFFF AND DUP2 MSTORE PUSH1 0x20 ADD SWAP1 DUP2 MSTORE PUSH1 0x20 ADD PUSH1 0x0 KECCAK256 SLOAD DUP4 PUSH2 0xCF3 JUMP JUMPDEST PUSH1 0x2 PUSH1 0x0 DUP6 PUSH20 0xFFFFFFFFFFFFFFFFFFFFFFFFFFFFFFFFFFFFFFFF AND PUSH20 0xFFFFFFFFFFFFFFFFFFFFFFFFFFFFFFFFFFFFFFFF AND DUP2 MSTORE PUSH1 0x20 ADD SWAP1 DUP2 MSTORE PUSH1 0x20 ADD PUSH1 0x0 KECCAK256 DUP2 SWAP1 SSTORE POP DUP3 PUSH20 0xFFFFFFFFFFFFFFFFFFFFFFFFFFFFFFFFFFFFFFFF AND DUP5 PUSH20 0xFFFFFFFFFFFFFFFFFFFFFFFFFFFFFFFFFFFFFFFF AND PUSH32 0xDDF252AD1BE2C89B69C2B068FC378DAA952BA7F163C4A11628F55A4DF523B3EF DUP5 PUSH1 0x40 MLOAD PUSH2 0x830 SWAP2 SWAP1 PUSH2 0xFAC JUMP JUMPDEST PUSH1 0x40 MLOAD DUP1 SWAP2 SUB SWAP1 LOG3 PUSH1 0x1 SWAP1 POP SWAP4 SWAP3 POP POP POP JUMP JUMPDEST PUSH1 0x0 DUP2 JUMP JUMPDEST PUSH1 0x1 PUSH1 0x0 DUP1 CALLER PUSH20 0xFFFFFFFFFFFFFFFFFFFFFFFFFFFFFFFFFFFFFFFF AND PUSH20 0xFFFFFFFFFFFFFFFFFFFFFFFFFFFFFFFFFFFFFFFF AND DUP2 MSTORE PUSH1 0x20 ADD SWAP1 DUP2 MSTORE PUSH1 0x20 ADD PUSH1 0x0 KECCAK256 SLOAD EQ PUSH2 0x8C9 JUMPI PUSH1 0x40 MLOAD PUSH32 0x8C379A000000000000000000000000000000000000000000000000000000000 DUP2 MSTORE PUSH1 0x4 ADD PUSH2 0x8C0 SWAP1 PUSH2 0xF6C JUMP JUMPDEST PUSH1 0x40 MLOAD DUP1 SWAP2 SUB SWAP1 REVERT JUMPDEST PUSH2 0x912 PUSH1 0x2 PUSH1 0x0 DUP5 PUSH20 0xFFFFFFFFFFFFFFFFFFFFFFFFFFFFFFFFFFFFFFFF AND PUSH20 0xFFFFFFFFFFFFFFFFFFFFFFFFFFFFFFFFFFFFFFFF AND DUP2 MSTORE PUSH1 0x20 ADD SWAP1 DUP2 MSTORE PUSH1 0x20 ADD PUSH1 0x0 KECCAK256 SLOAD DUP3 PUSH2 0xCF3 JUMP JUMPDEST PUSH1 0x2 PUSH1 0x0 DUP5 PUSH20 0xFFFFFFFFFFFFFFFFFFFFFFFFFFFFFFFFFFFFFFFF AND PUSH20 0xFFFFFFFFFFFFFFFFFFFFFFFFFFFFFFFFFFFFFFFF AND DUP2 MSTORE PUSH1 0x20 ADD SWAP1 DUP2 MSTORE PUSH1 0x20 ADD PUSH1 0x0 KECCAK256 DUP2 SWAP1 SSTORE POP PUSH2 0x961 PUSH1 0x1 SLOAD DUP3 PUSH2 0xCF3 JUMP JUMPDEST PUSH1 0x1 DUP2 SWAP1 SSTORE POP DUP2 PUSH20 0xFFFFFFFFFFFFFFFFFFFFFFFFFFFFFFFFFFFFFFFF AND PUSH1 0x0 PUSH20 0xFFFFFFFFFFFFFFFFFFFFFFFFFFFFFFFFFFFFFFFF AND PUSH32 0xDDF252AD1BE2C89B69C2B068FC378DAA952BA7F163C4A11628F55A4DF523B3EF DUP4 PUSH1 0x40 MLOAD PUSH2 0x9C5 SWAP2 SWAP1 PUSH2 0xFAC JUMP JUMPDEST PUSH1 0x40 MLOAD DUP1 SWAP2 SUB SWAP1 LOG3 POP POP JUMP JUMPDEST PUSH1 0x40 MLOAD DUP1 PUSH1 0x40 ADD PUSH1 0x40 MSTORE DUP1 PUSH1 0x1 DUP2 MSTORE PUSH1 0x20 ADD PUSH32 0x3100000000000000000000000000000000000000000000000000000000000000 DUP2 MSTORE POP DUP2 JUMP JUMPDEST PUSH1 0x2 PUSH1 0x20 MSTORE DUP1 PUSH1 0x0 MSTORE PUSH1 0x40 PUSH1 0x0 KECCAK256 PUSH1 0x0 SWAP2 POP SWAP1 POP SLOAD DUP2 JUMP JUMPDEST PUSH1 0x4 PUSH1 0x20 MSTORE DUP1 PUSH1 0x0 MSTORE PUSH1 0x40 PUSH1 0x0 KECCAK256 PUSH1 0x0 SWAP2 POP SWAP1 POP SLOAD DUP2 JUMP JUMPDEST PUSH1 0x40 MLOAD DUP1 PUSH1 0x40 ADD PUSH1 0x40 MSTORE DUP1 PUSH1 0x2 DUP2 MSTORE PUSH1 0x20 ADD PUSH32 0x4443000000000000000000000000000000000000000000000000000000000000 DUP2 MSTORE POP DUP2 JUMP JUMPDEST PUSH1 0x1 PUSH1 0x0 DUP1 CALLER PUSH20 0xFFFFFFFFFFFFFFFFFFFFFFFFFFFFFFFFFFFFFFFF AND PUSH20 0xFFFFFFFFFFFFFFFFFFFFFFFFFFFFFFFFFFFFFFFF AND DUP2 MSTORE PUSH1 0x20 ADD SWAP1 DUP2 MSTORE PUSH1 0x20 ADD PUSH1 0x0 KECCAK256 SLOAD EQ PUSH2 0xAF4 JUMPI PUSH1 0x40 MLOAD PUSH32 0x8C379A000000000000000000000000000000000000000000000000000000000 DUP2 MSTORE PUSH1 0x4 ADD PUSH2 0xAEB SWAP1 PUSH2 0xF6C JUMP JUMPDEST PUSH1 0x40 MLOAD DUP1 SWAP2 SUB SWAP1 REVERT JUMPDEST DUP1 PUSH1 0x2 PUSH1 0x0 DUP5 PUSH20 0xFFFFFFFFFFFFFFFFFFFFFFFFFFFFFFFFFFFFFFFF AND PUSH20 0xFFFFFFFFFFFFFFFFFFFFFFFFFFFFFFFFFFFFFFFF AND DUP2 MSTORE PUSH1 0x20 ADD SWAP1 DUP2 MSTORE PUSH1 0x20 ADD PUSH1 0x0 KECCAK256 SLOAD LT ISZERO PUSH2 0xB76 JUMPI PUSH1 0x40 MLOAD PUSH32 0x8C379A000000000000000000000000000000000000000000000000000000000 DUP2 MSTORE PUSH1 0x4 ADD PUSH2 0xB6D SWAP1 PUSH2 0xF4C JUMP JUMPDEST PUSH1 0x40 MLOAD DUP1 SWAP2 SUB SWAP1 REVERT JUMPDEST PUSH2 0xBBF PUSH1 0x2 PUSH1 0x0 DUP5 PUSH20 0xFFFFFFFFFFFFFFFFFFFFFFFFFFFFFFFFFFFFFFFF AND PUSH20 0xFFFFFFFFFFFFFFFFFFFFFFFFFFFFFFFFFFFFFFFF AND DUP2 MSTORE PUSH1 0x20 ADD SWAP1 DUP2 MSTORE PUSH1 0x20 ADD PUSH1 0x0 KECCAK256 SLOAD DUP3 PUSH2 0xCD0 JUMP JUMPDEST PUSH1 0x2 PUSH1 0x0 DUP5 PUSH20 0xFFFFFFFFFFFFFFFFFFFFFFFFFFFFFFFFFFFFFFFF AND PUSH20 0xFFFFFFFFFFFFFFFFFFFFFFFFFFFFFFFFFFFFFFFF AND DUP2 MSTORE PUSH1 0x20 ADD SWAP1 DUP2 MSTORE PUSH1 0x20 ADD PUSH1 0x0 KECCAK256 DUP2 SWAP1 SSTORE POP PUSH2 0xC0E PUSH1 0x1 SLOAD DUP3 PUSH2 0xCD0 JUMP JUMPDEST PUSH1 0x1 DUP2 SWAP1 SSTORE POP PUSH1 0x0 PUSH20 0xFFFFFFFFFFFFFFFFFFFFFFFFFFFFFFFFFFFFFFFF AND DUP3 PUSH20 0xFFFFFFFFFFFFFFFFFFFFFFFFFFFFFFFFFFFFFFFF AND PUSH32 0xDDF252AD1BE2C89B69C2B068FC378DAA952BA7F163C4A11628F55A4DF523B3EF DUP4 PUSH1 0x40 MLOAD PUSH2 0xC72 SWAP2 SWAP1 PUSH2 0xFAC JUMP JUMPDEST PUSH1 0x40 MLOAD DUP1 SWAP2 SUB SWAP1 LOG3 POP POP JUMP JUMPDEST PUSH1 0x0 PUSH2 0xC8B CALLER DUP5 DUP5 PUSH2 0x43E JUMP JUMPDEST SWAP1 POP SWAP3 SWAP2 POP POP JUMP JUMPDEST PUSH1 0x0 PUSH1 0x20 MSTORE DUP1 PUSH1 0x0 MSTORE PUSH1 0x40 PUSH1 0x0 KECCAK256 PUSH1 0x0 SWAP2 POP SWAP1 POP SLOAD DUP2 JUMP JUMPDEST PUSH1 0x3 PUSH1 0x20 MSTORE DUP2 PUSH1 0x0 MSTORE PUSH1 0x40 PUSH1 0x0 KECCAK256 PUSH1 0x20 MSTORE DUP1 PUSH1 0x0 MSTORE PUSH1 0x40 PUSH1 0x0 KECCAK256 PUSH1 0x0 SWAP2 POP SWAP2 POP POP SLOAD DUP2 JUMP JUMPDEST PUSH1 0x0 DUP3 DUP3 DUP5 PUSH2 0xCDF SWAP2 SWAP1 PUSH2 0x1054 JUMP JUMPDEST SWAP2 POP DUP2 GT ISZERO PUSH2 0xCED JUMPI PUSH1 0x0 DUP1 REVERT JUMPDEST SWAP3 SWAP2 POP POP JUMP JUMPDEST PUSH1 0x0 DUP3 DUP3 DUP5 PUSH2 0xD02 SWAP2 SWAP1 PUSH2 0xFFE JUMP JUMPDEST SWAP2 POP DUP2 LT ISZERO PUSH2 0xD10 JUMPI PUSH1 0x0 DUP1 REVERT JUMPDEST SWAP3 SWAP2 POP POP JUMP JUMPDEST PUSH1 0x0 DUP2 CALLDATALOAD SWAP1 POP PUSH2 0xD25 DUP2 PUSH2 0x11D0 JUMP JUMPDEST SWAP3 SWAP2 POP POP JUMP JUMPDEST PUSH1 0x0 DUP2 CALLDATALOAD SWAP1 POP PUSH2 0xD3A DUP2 PUSH2 0x11E7 JUMP JUMPDEST SWAP3 SWAP2 POP POP JUMP JUMPDEST PUSH1 0x0 PUSH1 0x20 DUP3 DUP5 SUB SLT ISZERO PUSH2 0xD56 JUMPI PUSH2 0xD55 PUSH2 0x113F JUMP JUMPDEST JUMPDEST PUSH1 0x0 PUSH2 0xD64 DUP5 DUP3 DUP6 ADD PUSH2 0xD16 JUMP JUMPDEST SWAP2 POP POP SWAP3 SWAP2 POP POP JUMP JUMPDEST PUSH1 0x0 DUP1 PUSH1 0x40 DUP4 DUP6 SUB SLT ISZERO PUSH2 0xD84 JUMPI PUSH2 0xD83 PUSH2 0x113F JUMP JUMPDEST JUMPDEST PUSH1 0x0 PUSH2 0xD92 DUP6 DUP3 DUP7 ADD PUSH2 0xD16 JUMP JUMPDEST SWAP3 POP POP PUSH1 0x20 PUSH2 0xDA3 DUP6 DUP3 DUP7 ADD PUSH2 0xD16 JUMP JUMPDEST SWAP2 POP POP SWAP3 POP SWAP3 SWAP1 POP JUMP JUMPDEST PUSH1 0x0 DUP1 PUSH1 0x0 PUSH1 0x60 DUP5 DUP7 SUB SLT ISZERO PUSH2 0xDC6 JUMPI PUSH2 0xDC5 PUSH2 0x113F JUMP JUMPDEST JUMPDEST PUSH1 0x0 PUSH2 0xDD4 DUP7 DUP3 DUP8 ADD PUSH2 0xD16 JUMP JUMPDEST SWAP4 POP POP PUSH1 0x20 PUSH2 0xDE5 DUP7 DUP3 DUP8 ADD PUSH2 0xD16 JUMP JUMPDEST SWAP3 POP POP PUSH1 0x40 PUSH2 0xDF6 DUP7 DUP3 DUP8 ADD PUSH2 0xD2B JUMP JUMPDEST SWAP2 POP POP SWAP3 POP SWAP3 POP SWAP3 JUMP JUMPDEST PUSH1 0x0 DUP1 PUSH1 0x40 DUP4 DUP6 SUB SLT ISZERO PUSH2 0xE17 JUMPI PUSH2 0xE16 PUSH2 0x113F JUMP JUMPDEST JUMPDEST PUSH1 0x0 PUSH2 0xE25 DUP6 DUP3 DUP7 ADD PUSH2 0xD16 JUMP JUMPDEST SWAP3 POP POP PUSH1 0x20 PUSH2 0xE36 DUP6 DUP3 DUP7 ADD PUSH2 0xD2B JUMP JUMPDEST SWAP2 POP POP SWAP3 POP SWAP3 SWAP1 POP JUMP JUMPDEST PUSH2 0xE49 DUP2 PUSH2 0x109A JUMP JUMPDEST DUP3 MSTORE POP POP JUMP JUMPDEST PUSH1 0x0 PUSH2 0xE5A DUP3 PUSH2 0xFE2 JUMP JUMPDEST PUSH2 0xE64 DUP2 DUP6 PUSH2 0xFED JUMP JUMPDEST SWAP4 POP PUSH2 0xE74 DUP2 DUP6 PUSH1 0x20 DUP7 ADD PUSH2 0x10DD JUMP JUMPDEST PUSH2 0xE7D DUP2 PUSH2 0x1144 JUMP JUMPDEST DUP5 ADD SWAP2 POP POP SWAP3 SWAP2 POP POP JUMP JUMPDEST PUSH1 0x0 PUSH2 0xE95 PUSH1 0x14 DUP4 PUSH2 0xFED JUMP JUMPDEST SWAP2 POP PUSH2 0xEA0 DUP3 PUSH2 0x1155 JUMP JUMPDEST PUSH1 0x20 DUP3 ADD SWAP1 POP SWAP2 SWAP1 POP JUMP JUMPDEST PUSH1 0x0 PUSH2 0xEB8 PUSH1 0xE DUP4 PUSH2 0xFED JUMP JUMPDEST SWAP2 POP PUSH2 0xEC3 DUP3 PUSH2 0x117E JUMP JUMPDEST PUSH1 0x20 DUP3 ADD SWAP1 POP SWAP2 SWAP1 POP JUMP JUMPDEST PUSH1 0x0 PUSH2 0xEDB PUSH1 0x16 DUP4 PUSH2 0xFED JUMP JUMPDEST SWAP2 POP PUSH2 0xEE6 DUP3 PUSH2 0x11A7 JUMP JUMPDEST PUSH1 0x20 DUP3 ADD SWAP1 POP SWAP2 SWAP1 POP JUMP JUMPDEST PUSH2 0xEFA DUP2 PUSH2 0x10C6 JUMP JUMPDEST DUP3 MSTORE POP POP JUMP JUMPDEST PUSH2 0xF09 DUP2 PUSH2 0x10D0 JUMP JUMPDEST DUP3 MSTORE POP POP JUMP JUMPDEST PUSH1 0x0 PUSH1 0x20 DUP3 ADD SWAP1 POP PUSH2 0xF24 PUSH1 0x0 DUP4 ADD DUP5 PUSH2 0xE40 JUMP JUMPDEST SWAP3 SWAP2 POP POP JUMP JUMPDEST PUSH1 0x0 PUSH1 0x20 DUP3 ADD SWAP1 POP DUP2 DUP2 SUB PUSH1 0x0 DUP4 ADD MSTORE PUSH2 0xF44 DUP2 DUP5 PUSH2 0xE4F JUMP JUMPDEST SWAP1 POP SWAP3 SWAP2 POP POP JUMP JUMPDEST PUSH1 0x0 PUSH1 0x20 DUP3 ADD SWAP1 POP DUP2 DUP2 SUB PUSH1 0x0 DUP4 ADD MSTORE PUSH2 0xF65 DUP2 PUSH2 0xE88 JUMP JUMPDEST SWAP1 POP SWAP2 SWAP1 POP JUMP JUMPDEST PUSH1 0x0 PUSH1 0x20 DUP3 ADD SWAP1 POP DUP2 DUP2 SUB PUSH1 0x0 DUP4 ADD MSTORE PUSH2 0xF85 DUP2 PUSH2 0xEAB JUMP JUMPDEST SWAP1 POP SWAP2 SWAP1 POP JUMP JUMPDEST PUSH1 0x0 PUSH1 0x20 DUP3 ADD SWAP1 POP DUP2 DUP2 SUB PUSH1 0x0 DUP4 ADD MSTORE PUSH2 0xFA5 DUP2 PUSH2 0xECE JUMP JUMPDEST SWAP1 POP SWAP2 SWAP1 POP JUMP JUMPDEST PUSH1 0x0 PUSH1 0x20 DUP3 ADD SWAP1 POP PUSH2 0xFC1 PUSH1 0x0 DUP4 ADD DUP5 PUSH2 0xEF1 JUMP JUMPDEST SWAP3 SWAP2 POP POP JUMP JUMPDEST PUSH1 0x0 PUSH1 0x20 DUP3 ADD SWAP1 POP PUSH2 0xFDC PUSH1 0x0 DUP4 ADD DUP5 PUSH2 0xF00 JUMP JUMPDEST SWAP3 SWAP2 POP POP JUMP JUMPDEST PUSH1 0x0 DUP2 MLOAD SWAP1 POP SWAP2 SWAP1 POP JUMP JUMPDEST PUSH1 0x0 DUP3 DUP3 MSTORE PUSH1 0x20 DUP3 ADD SWAP1 POP SWAP3 SWAP2 POP POP JUMP JUMPDEST PUSH1 0x0 PUSH2 0x1009 DUP3 PUSH2 0x10C6 JUMP JUMPDEST SWAP2 POP PUSH2 0x1014 DUP4 PUSH2 0x10C6 JUMP JUMPDEST SWAP3 POP DUP3 PUSH32 0xFFFFFFFFFFFFFFFFFFFFFFFFFFFFFFFFFFFFFFFFFFFFFFFFFFFFFFFFFFFFFFFF SUB DUP3 GT ISZERO PUSH2 0x1049 JUMPI PUSH2 0x1048 PUSH2 0x1110 JUMP JUMPDEST JUMPDEST DUP3 DUP3 ADD SWAP1 POP SWAP3 SWAP2 POP POP JUMP JUMPDEST PUSH1 0x0 PUSH2 0x105F DUP3 PUSH2 0x10C6 JUMP JUMPDEST SWAP2 POP PUSH2 0x106A DUP4 PUSH2 0x10C6 JUMP JUMPDEST SWAP3 POP DUP3 DUP3 LT ISZERO PUSH2 0x107D JUMPI PUSH2 0x107C PUSH2 0x1110 JUMP JUMPDEST JUMPDEST DUP3 DUP3 SUB SWAP1 POP SWAP3 SWAP2 POP POP JUMP JUMPDEST PUSH1 0x0 PUSH2 0x1093 DUP3 PUSH2 0x10A6 JUMP JUMPDEST SWAP1 POP SWAP2 SWAP1 POP JUMP JUMPDEST PUSH1 0x0 DUP2 ISZERO ISZERO SWAP1 POP SWAP2 SWAP1 POP JUMP JUMPDEST PUSH1 0x0 PUSH20 0xFFFFFFFFFFFFFFFFFFFFFFFFFFFFFFFFFFFFFFFF DUP3 AND SWAP1 POP SWAP2 SWAP1 POP JUMP JUMPDEST PUSH1 0x0 DUP2 SWAP1 POP SWAP2 SWAP1 POP JUMP JUMPDEST PUSH1 0x0 PUSH1 0xFF DUP3 AND SWAP1 POP SWAP2 SWAP1 POP JUMP JUMPDEST PUSH1 0x0 JUMPDEST DUP4 DUP2 LT ISZERO PUSH2 0x10FB JUMPI DUP1 DUP3 ADD MLOAD DUP2 DUP5 ADD MSTORE PUSH1 0x20 DUP2 ADD SWAP1 POP PUSH2 0x10E0 JUMP JUMPDEST DUP4 DUP2 GT ISZERO PUSH2 0x110A JUMPI PUSH1 0x0 DUP5 DUP5 ADD MSTORE JUMPDEST POP POP POP POP JUMP JUMPDEST PUSH32 0x4E487B7100000000000000000000000000000000000000000000000000000000 PUSH1 0x0 MSTORE PUSH1 0x11 PUSH1 0x4 MSTORE PUSH1 0x24 PUSH1 0x0 REVERT JUMPDEST PUSH1 0x0 DUP1 REVERT JUMPDEST PUSH1 0x0 PUSH1 0x1F NOT PUSH1 0x1F DUP4 ADD AND SWAP1 POP SWAP2 SWAP1 POP JUMP JUMPDEST PUSH32 0x696E73756666696369656E742D62616C616E6365000000000000000000000000 PUSH1 0x0 DUP3 ADD MSTORE POP JUMP JUMPDEST PUSH32 0x4E6F742D617574686F72697A6564000000000000000000000000000000000000 PUSH1 0x0 DUP3 ADD MSTORE POP JUMP JUMPDEST PUSH32 0x696E73756666696369656E742D616C6C6F77616E636500000000000000000000 PUSH1 0x0 DUP3 ADD MSTORE POP JUMP JUMPDEST PUSH2 0x11D9 DUP2 PUSH2 0x1088 JUMP JUMPDEST DUP2 EQ PUSH2 0x11E4 JUMPI PUSH1 0x0 DUP1 REVERT JUMPDEST POP JUMP JUMPDEST PUSH2 0x11F0 DUP2 PUSH2 0x10C6 JUMP JUMPDEST DUP2 EQ PUSH2 0x11FB JUMPI PUSH1 0x0 DUP1 REVERT JUMPDEST POP JUMP INVALID LOG2 PUSH5 0x6970667358 0x22 SLT KECCAK256 PUSH19 0xF2A52DDF5C40DA7824CA697982C23C6085889B MSTORE8 PUSH3 0x37B7C5 PUSH32 0x26C313A649B364736F6C63430008070033000000000000000000000000000000 "
				},
				"gasEstimates": {
					"creation": {
						"codeDepositCost": "506800",
						"executionCost": "infinite",
						"totalCost": "infinite"
					},
					"external": {
						"buyStablecoinForETH(uint256)": "infinite",
						"depositETH(uint256)": "427",
						"getEthPriceCZK()": "338",
						"getVaultBalance()": "383",
						"sellStablecoinForETH(uint256)": "infinite",
						"wards(address)": "2814",
						"withdrawETH()": "infinite"
					}
				},
				"methodIdentifiers": {
					"buyStablecoinForETH(uint256)": "9f4fc5ca",
					"depositETH(uint256)": "5358fbda",
					"getEthPriceCZK()": "41b33680",
					"getVaultBalance()": "ed12e8ef",
					"sellStablecoinForETH(uint256)": "f68c3b96",
					"wards(address)": "bf353dbb",
					"withdrawETH()": "e086e5ec"
				}
			},
			"storageLayout": {
				"storage": [
					{
						"astId": 386,
						"contract": "contracts/Coin_contract.sol:Organization",
						"label": "wards",
						"offset": 0,
						"slot": "0",
						"type": "t_mapping(t_address,t_uint256)"
					},
					{
						"astId": 403,
						"contract": "contracts/Coin_contract.sol:Organization",
						"label": "coinContract",
						"offset": 0,
						"slot": "1",
						"type": "t_contract(StableCoin)382"
					},
					{
						"astId": 406,
						"contract": "contracts/Coin_contract.sol:Organization",
						"label": "priceFeed",
						"offset": 0,
						"slot": "2",
						"type": "t_contract(AggregatorV3Interface)45"
					},
					{
						"astId": 409,
						"contract": "contracts/Coin_contract.sol:Organization",
						"label": "USDinCZK",
						"offset": 0,
						"slot": "3",
						"type": "t_uint256"
					}
				],
				"types": {
					"t_address": {
						"encoding": "inplace",
						"label": "address",
						"numberOfBytes": "20"
					},
					"t_contract(AggregatorV3Interface)45": {
						"encoding": "inplace",
						"label": "contract AggregatorV3Interface",
						"numberOfBytes": "20"
					},
					"t_contract(StableCoin)382": {
						"encoding": "inplace",
						"label": "contract StableCoin",
						"numberOfBytes": "20"
					},
					"t_mapping(t_address,t_uint256)": {
						"encoding": "mapping",
						"key": "t_address",
						"label": "mapping(address => uint256)",
						"numberOfBytes": "32",
						"value": "t_uint256"
					},
					"t_uint256": {
						"encoding": "inplace",
						"label": "uint256",
						"numberOfBytes": "32"
					}
				}
			},
			"userdoc": {
				"kind": "user",
				"methods": {},
				"version": 1
			}
		}
	}
}