{
	"contracts/Coin_contract.sol": {
		"StableCoin": {
			"abi": [
				{
					"inputs": [],
					"stateMutability": "nonpayable",
					"type": "constructor"
				},
				{
					"anonymous": false,
					"inputs": [
						{
							"indexed": true,
							"internalType": "address",
							"name": "tokenOwner",
							"type": "address"
						},
						{
							"indexed": true,
							"internalType": "address",
							"name": "spender",
							"type": "address"
						},
						{
							"indexed": false,
							"internalType": "uint256",
							"name": "tokens",
							"type": "uint256"
						}
					],
					"name": "Approval",
					"type": "event"
				},
				{
					"anonymous": false,
					"inputs": [
						{
							"indexed": true,
							"internalType": "address",
							"name": "from",
							"type": "address"
						},
						{
							"indexed": true,
							"internalType": "address",
							"name": "to",
							"type": "address"
						},
						{
							"indexed": false,
							"internalType": "uint256",
							"name": "tokens",
							"type": "uint256"
						}
					],
					"name": "Transfer",
					"type": "event"
				},
				{
					"inputs": [
						{
							"internalType": "address",
							"name": "",
							"type": "address"
						},
						{
							"internalType": "address",
							"name": "",
							"type": "address"
						}
					],
					"name": "allowance",
					"outputs": [
						{
							"internalType": "uint256",
							"name": "",
							"type": "uint256"
						}
					],
					"stateMutability": "view",
					"type": "function"
				},
				{
					"inputs": [
						{
							"internalType": "address",
							"name": "delegate",
							"type": "address"
						},
						{
							"internalType": "uint256",
							"name": "numTokens",
							"type": "uint256"
						}
					],
					"name": "approve",
					"outputs": [
						{
							"internalType": "bool",
							"name": "",
							"type": "bool"
						}
					],
					"stateMutability": "nonpayable",
					"type": "function"
				},
				{
					"inputs": [
						{
							"internalType": "address",
							"name": "",
							"type": "address"
						}
					],
					"name": "balanceOf",
					"outputs": [
						{
							"internalType": "uint256",
							"name": "",
							"type": "uint256"
						}
					],
					"stateMutability": "view",
					"type": "function"
				},
				{
					"inputs": [
						{
							"internalType": "address",
							"name": "usr",
							"type": "address"
						},
						{
							"internalType": "uint256",
							"name": "wad",
							"type": "uint256"
						}
					],
					"name": "burn",
					"outputs": [],
					"stateMutability": "nonpayable",
					"type": "function"
				},
				{
					"inputs": [],
					"name": "decimals",
					"outputs": [
						{
							"internalType": "uint8",
							"name": "",
							"type": "uint8"
						}
					],
					"stateMutability": "view",
					"type": "function"
				},
				{
					"inputs": [
						{
							"internalType": "address",
							"name": "usr",
							"type": "address"
						},
						{
							"internalType": "uint256",
							"name": "wad",
							"type": "uint256"
						}
					],
					"name": "mint",
					"outputs": [],
					"stateMutability": "nonpayable",
					"type": "function"
				},
				{
					"inputs": [],
					"name": "name",
					"outputs": [
						{
							"internalType": "string",
							"name": "",
							"type": "string"
						}
					],
					"stateMutability": "view",
					"type": "function"
				},
				{
					"inputs": [
						{
							"internalType": "address",
							"name": "",
							"type": "address"
						}
					],
					"name": "nonces",
					"outputs": [
						{
							"internalType": "uint256",
							"name": "",
							"type": "uint256"
						}
					],
					"stateMutability": "view",
					"type": "function"
				},
				{
					"inputs": [],
					"name": "symbol",
					"outputs": [
						{
							"internalType": "string",
							"name": "",
							"type": "string"
						}
					],
					"stateMutability": "view",
					"type": "function"
				},
				{
					"inputs": [],
					"name": "totalSupply",
					"outputs": [
						{
							"internalType": "uint256",
							"name": "",
							"type": "uint256"
						}
					],
					"stateMutability": "view",
					"type": "function"
				},
				{
					"inputs": [
						{
							"internalType": "address",
							"name": "receiver",
							"type": "address"
						},
						{
							"internalType": "uint256",
							"name": "numTokens",
							"type": "uint256"
						}
					],
					"name": "transfer",
					"outputs": [
						{
							"internalType": "bool",
							"name": "",
							"type": "bool"
						}
					],
					"stateMutability": "nonpayable",
					"type": "function"
				},
				{
					"inputs": [
						{
							"internalType": "address",
							"name": "owner",
							"type": "address"
						},
						{
							"internalType": "address",
							"name": "buyer",
							"type": "address"
						},
						{
							"internalType": "uint256",
							"name": "numTokens",
							"type": "uint256"
						}
					],
					"name": "transferFrom",
					"outputs": [
						{
							"internalType": "bool",
							"name": "",
							"type": "bool"
						}
					],
					"stateMutability": "nonpayable",
					"type": "function"
				},
				{
					"inputs": [],
					"name": "version",
					"outputs": [
						{
							"internalType": "string",
							"name": "",
							"type": "string"
						}
					],
					"stateMutability": "view",
					"type": "function"
				},
				{
					"inputs": [
						{
							"internalType": "address",
							"name": "",
							"type": "address"
						}
					],
					"name": "wards",
					"outputs": [
						{
							"internalType": "uint256",
							"name": "",
							"type": "uint256"
						}
					],
					"stateMutability": "view",
					"type": "function"
				}
			],
			"devdoc": {
				"kind": "dev",
				"methods": {},
				"version": 1
			},
			"evm": {
				"assembly": "    /* \"contracts/Coin_contract.sol\":154:2928  contract StableCoin \r... */\n  mstore(0x40, 0x80)\n    /* \"contracts/Coin_contract.sol\":1152:1238  constructor() \r... */\n  callvalue\n  dup1\n  iszero\n  tag_1\n  jumpi\n  0x00\n  dup1\n  revert\ntag_1:\n  pop\n    /* \"contracts/Coin_contract.sol\":1203:1204  1 */\n  0x01\n    /* \"contracts/Coin_contract.sol\":1183:1188  wards */\n  0x00\n    /* \"contracts/Coin_contract.sol\":1183:1200  wards[msg.sender] */\n  dup1\n    /* \"contracts/Coin_contract.sol\":1189:1199  msg.sender */\n  caller\n    /* \"contracts/Coin_contract.sol\":1183:1200  wards[msg.sender] */\n  0xffffffffffffffffffffffffffffffffffffffff\n  and\n  0xffffffffffffffffffffffffffffffffffffffff\n  and\n  dup2\n  mstore\n  0x20\n  add\n  swap1\n  dup2\n  mstore\n  0x20\n  add\n  0x00\n  keccak256\n    /* \"contracts/Coin_contract.sol\":1183:1204  wards[msg.sender] = 1 */\n  dup2\n  swap1\n  sstore\n  pop\n    /* \"contracts/Coin_contract.sol\":1229:1230  0 */\n  0x00\n    /* \"contracts/Coin_contract.sol\":1215:1226  totalSupply */\n  0x01\n    /* \"contracts/Coin_contract.sol\":1215:1230  totalSupply = 0 */\n  dup2\n  swap1\n  sstore\n  pop\n    /* \"contracts/Coin_contract.sol\":154:2928  contract StableCoin \r... */\n  dataSize(sub_0)\n  dup1\n  dataOffset(sub_0)\n  0x00\n  codecopy\n  0x00\n  return\nstop\n\nsub_0: assembly {\n        /* \"contracts/Coin_contract.sol\":154:2928  contract StableCoin \r... */\n      mstore(0x40, 0x80)\n      callvalue\n      dup1\n      iszero\n      tag_1\n      jumpi\n      0x00\n      dup1\n      revert\n    tag_1:\n      pop\n      jumpi(tag_2, lt(calldatasize, 0x04))\n      shr(0xe0, calldataload(0x00))\n      dup1\n      0x70a08231\n      gt\n      tag_17\n      jumpi\n      dup1\n      0x9dc29fac\n      gt\n      tag_18\n      jumpi\n      dup1\n      0x9dc29fac\n      eq\n      tag_13\n      jumpi\n      dup1\n      0xa9059cbb\n      eq\n      tag_14\n      jumpi\n      dup1\n      0xbf353dbb\n      eq\n      tag_15\n      jumpi\n      dup1\n      0xdd62ed3e\n      eq\n      tag_16\n      jumpi\n      jump(tag_2)\n    tag_18:\n      dup1\n      0x70a08231\n      eq\n      tag_10\n      jumpi\n      dup1\n      0x7ecebe00\n      eq\n      tag_11\n      jumpi\n      dup1\n      0x95d89b41\n      eq\n      tag_12\n      jumpi\n      jump(tag_2)\n    tag_17:\n      dup1\n      0x23b872dd\n      gt\n      tag_19\n      jumpi\n      dup1\n      0x23b872dd\n      eq\n      tag_6\n      jumpi\n      dup1\n      0x313ce567\n      eq\n      tag_7\n      jumpi\n      dup1\n      0x40c10f19\n      eq\n      tag_8\n      jumpi\n      dup1\n      0x54fd4d50\n      eq\n      tag_9\n      jumpi\n      jump(tag_2)\n    tag_19:\n      dup1\n      0x06fdde03\n      eq\n      tag_3\n      jumpi\n      dup1\n      0x095ea7b3\n      eq\n      tag_4\n      jumpi\n      dup1\n      0x18160ddd\n      eq\n      tag_5\n      jumpi\n    tag_2:\n      0x00\n      dup1\n      revert\n        /* \"contracts/Coin_contract.sol\":357:397  string public constant name = \"DotaCoin\" */\n    tag_3:\n      tag_20\n      tag_21\n      jump\t// in\n    tag_20:\n      mload(0x40)\n      tag_22\n      swap2\n      swap1\n      tag_23\n      jump\t// in\n    tag_22:\n      mload(0x40)\n      dup1\n      swap2\n      sub\n      swap1\n      return\n        /* \"contracts/Coin_contract.sol\":2026:2246  function approve(address delegate, uint numTokens) public returns (bool) \r... */\n    tag_4:\n      tag_24\n      0x04\n      dup1\n      calldatasize\n      sub\n      dup2\n      add\n      swap1\n      tag_25\n      swap2\n      swap1\n      tag_26\n      jump\t// in\n    tag_25:\n      tag_27\n      jump\t// in\n    tag_24:\n      mload(0x40)\n      tag_28\n      swap2\n      swap1\n      tag_29\n      jump\t// in\n    tag_28:\n      mload(0x40)\n      dup1\n      swap2\n      sub\n      swap1\n      return\n        /* \"contracts/Coin_contract.sol\":532:558  uint256 public totalSupply */\n    tag_5:\n      tag_30\n      tag_31\n      jump\t// in\n    tag_30:\n      mload(0x40)\n      tag_32\n      swap2\n      swap1\n      tag_33\n      jump\t// in\n    tag_32:\n      mload(0x40)\n      dup1\n      swap2\n      sub\n      swap1\n      return\n        /* \"contracts/Coin_contract.sol\":1407:2018  function transferFrom(address owner, address buyer, uint numTokens) public returns (bool) \r... */\n    tag_6:\n      tag_34\n      0x04\n      dup1\n      calldatasize\n      sub\n      dup2\n      add\n      swap1\n      tag_35\n      swap2\n      swap1\n      tag_36\n      jump\t// in\n    tag_35:\n      tag_37\n      jump\t// in\n    tag_34:\n      mload(0x40)\n      tag_38\n      swap2\n      swap1\n      tag_29\n      jump\t// in\n    tag_38:\n      mload(0x40)\n      dup1\n      swap2\n      sub\n      swap1\n      return\n        /* \"contracts/Coin_contract.sol\":491:525  uint8 public constant decimals = 0 */\n    tag_7:\n      tag_39\n      tag_40\n      jump\t// in\n    tag_39:\n      mload(0x40)\n      tag_41\n      swap2\n      swap1\n      tag_42\n      jump\t// in\n    tag_41:\n      mload(0x40)\n      dup1\n      swap2\n      sub\n      swap1\n      return\n        /* \"contracts/Coin_contract.sol\":2283:2492  function mint(address usr, uint wad) external auth \r... */\n    tag_8:\n      tag_43\n      0x04\n      dup1\n      calldatasize\n      sub\n      dup2\n      add\n      swap1\n      tag_44\n      swap2\n      swap1\n      tag_26\n      jump\t// in\n    tag_44:\n      tag_45\n      jump\t// in\n    tag_43:\n      stop\n        /* \"contracts/Coin_contract.sol\":447:484  string public constant version  = \"1\" */\n    tag_9:\n      tag_46\n      tag_47\n      jump\t// in\n    tag_46:\n      mload(0x40)\n      tag_48\n      swap2\n      swap1\n      tag_23\n      jump\t// in\n    tag_48:\n      mload(0x40)\n      dup1\n      swap2\n      sub\n      swap1\n      return\n        /* \"contracts/Coin_contract.sol\":567:608  mapping(address => uint) public balanceOf */\n    tag_10:\n      tag_49\n      0x04\n      dup1\n      calldatasize\n      sub\n      dup2\n      add\n      swap1\n      tag_50\n      swap2\n      swap1\n      tag_51\n      jump\t// in\n    tag_50:\n      tag_52\n      jump\t// in\n    tag_49:\n      mload(0x40)\n      tag_53\n      swap2\n      swap1\n      tag_33\n      jump\t// in\n    tag_53:\n      mload(0x40)\n      dup1\n      swap2\n      sub\n      swap1\n      return\n        /* \"contracts/Coin_contract.sol\":684:723  mapping (address => uint) public nonces */\n    tag_11:\n      tag_54\n      0x04\n      dup1\n      calldatasize\n      sub\n      dup2\n      add\n      swap1\n      tag_55\n      swap2\n      swap1\n      tag_51\n      jump\t// in\n    tag_55:\n      tag_56\n      jump\t// in\n    tag_54:\n      mload(0x40)\n      tag_57\n      swap2\n      swap1\n      tag_33\n      jump\t// in\n    tag_57:\n      mload(0x40)\n      dup1\n      swap2\n      sub\n      swap1\n      return\n        /* \"contracts/Coin_contract.sol\":404:440  string public constant symbol = \"DC\" */\n    tag_12:\n      tag_58\n      tag_59\n      jump\t// in\n    tag_58:\n      mload(0x40)\n      tag_60\n      swap2\n      swap1\n      tag_23\n      jump\t// in\n    tag_60:\n      mload(0x40)\n      dup1\n      swap2\n      sub\n      swap1\n      return\n        /* \"contracts/Coin_contract.sol\":2498:2925  function burn(address usr, uint wad) external auth \r... */\n    tag_13:\n      tag_61\n      0x04\n      dup1\n      calldatasize\n      sub\n      dup2\n      add\n      swap1\n      tag_62\n      swap2\n      swap1\n      tag_26\n      jump\t// in\n    tag_62:\n      tag_63\n      jump\t// in\n    tag_61:\n      stop\n        /* \"contracts/Coin_contract.sol\":1246:1399  function transfer(address receiver, uint numTokens) external returns (bool) \r... */\n    tag_14:\n      tag_64\n      0x04\n      dup1\n      calldatasize\n      sub\n      dup2\n      add\n      swap1\n      tag_65\n      swap2\n      swap1\n      tag_26\n      jump\t// in\n    tag_65:\n      tag_66\n      jump\t// in\n    tag_64:\n      mload(0x40)\n      tag_67\n      swap2\n      swap1\n      tag_29\n      jump\t// in\n    tag_67:\n      mload(0x40)\n      dup1\n      swap2\n      sub\n      swap1\n      return\n        /* \"contracts/Coin_contract.sol\":204:242  mapping (address => uint) public wards */\n    tag_15:\n      tag_68\n      0x04\n      dup1\n      calldatasize\n      sub\n      dup2\n      add\n      swap1\n      tag_69\n      swap2\n      swap1\n      tag_51\n      jump\t// in\n    tag_69:\n      tag_70\n      jump\t// in\n    tag_68:\n      mload(0x40)\n      tag_71\n      swap2\n      swap1\n      tag_33\n      jump\t// in\n    tag_71:\n      mload(0x40)\n      dup1\n      swap2\n      sub\n      swap1\n      return\n        /* \"contracts/Coin_contract.sol\":615:677  mapping(address => mapping (address => uint)) public allowance */\n    tag_16:\n      tag_72\n      0x04\n      dup1\n      calldatasize\n      sub\n      dup2\n      add\n      swap1\n      tag_73\n      swap2\n      swap1\n      tag_74\n      jump\t// in\n    tag_73:\n      tag_75\n      jump\t// in\n    tag_72:\n      mload(0x40)\n      tag_76\n      swap2\n      swap1\n      tag_33\n      jump\t// in\n    tag_76:\n      mload(0x40)\n      dup1\n      swap2\n      sub\n      swap1\n      return\n        /* \"contracts/Coin_contract.sol\":357:397  string public constant name = \"DotaCoin\" */\n    tag_21:\n      mload(0x40)\n      dup1\n      0x40\n      add\n      0x40\n      mstore\n      dup1\n      0x08\n      dup2\n      mstore\n      0x20\n      add\n      0x446f7461436f696e000000000000000000000000000000000000000000000000\n      dup2\n      mstore\n      pop\n      dup2\n      jump\t// out\n        /* \"contracts/Coin_contract.sol\":2026:2246  function approve(address delegate, uint numTokens) public returns (bool) \r... */\n    tag_27:\n        /* \"contracts/Coin_contract.sol\":2093:2097  bool */\n      0x00\n        /* \"contracts/Coin_contract.sol\":2150:2159  numTokens */\n      dup2\n        /* \"contracts/Coin_contract.sol\":2116:2125  allowance */\n      0x03\n        /* \"contracts/Coin_contract.sol\":2116:2137  allowance[msg.sender] */\n      0x00\n        /* \"contracts/Coin_contract.sol\":2126:2136  msg.sender */\n      caller\n        /* \"contracts/Coin_contract.sol\":2116:2137  allowance[msg.sender] */\n      0xffffffffffffffffffffffffffffffffffffffff\n      and\n      0xffffffffffffffffffffffffffffffffffffffff\n      and\n      dup2\n      mstore\n      0x20\n      add\n      swap1\n      dup2\n      mstore\n      0x20\n      add\n      0x00\n      keccak256\n        /* \"contracts/Coin_contract.sol\":2116:2147  allowance[msg.sender][delegate] */\n      0x00\n        /* \"contracts/Coin_contract.sol\":2138:2146  delegate */\n      dup6\n        /* \"contracts/Coin_contract.sol\":2116:2147  allowance[msg.sender][delegate] */\n      0xffffffffffffffffffffffffffffffffffffffff\n      and\n      0xffffffffffffffffffffffffffffffffffffffff\n      and\n      dup2\n      mstore\n      0x20\n      add\n      swap1\n      dup2\n      mstore\n      0x20\n      add\n      0x00\n      keccak256\n        /* \"contracts/Coin_contract.sol\":2116:2159  allowance[msg.sender][delegate] = numTokens */\n      dup2\n      swap1\n      sstore\n      pop\n        /* \"contracts/Coin_contract.sol\":2196:2204  delegate */\n      dup3\n        /* \"contracts/Coin_contract.sol\":2175:2216  Approval(msg.sender, delegate, numTokens) */\n      0xffffffffffffffffffffffffffffffffffffffff\n      and\n        /* \"contracts/Coin_contract.sol\":2184:2194  msg.sender */\n      caller\n        /* \"contracts/Coin_contract.sol\":2175:2216  Approval(msg.sender, delegate, numTokens) */\n      0xffffffffffffffffffffffffffffffffffffffff\n      and\n      0x8c5be1e5ebec7d5bd14f71427d1e84f3dd0314c0f7b2291e5b200ac8c7c3b925\n        /* \"contracts/Coin_contract.sol\":2206:2215  numTokens */\n      dup5\n        /* \"contracts/Coin_contract.sol\":2175:2216  Approval(msg.sender, delegate, numTokens) */\n      mload(0x40)\n      tag_78\n      swap2\n      swap1\n      tag_33\n      jump\t// in\n    tag_78:\n      mload(0x40)\n      dup1\n      swap2\n      sub\n      swap1\n      log3\n        /* \"contracts/Coin_contract.sol\":2234:2238  true */\n      0x01\n        /* \"contracts/Coin_contract.sol\":2227:2238  return true */\n      swap1\n      pop\n        /* \"contracts/Coin_contract.sol\":2026:2246  function approve(address delegate, uint numTokens) public returns (bool) \r... */\n      swap3\n      swap2\n      pop\n      pop\n      jump\t// out\n        /* \"contracts/Coin_contract.sol\":532:558  uint256 public totalSupply */\n    tag_31:\n      sload(0x01)\n      dup2\n      jump\t// out\n        /* \"contracts/Coin_contract.sol\":1407:2018  function transferFrom(address owner, address buyer, uint numTokens) public returns (bool) \r... */\n    tag_37:\n        /* \"contracts/Coin_contract.sol\":1491:1495  bool */\n      0x00\n        /* \"contracts/Coin_contract.sol\":1535:1544  balanceOf */\n      0x02\n        /* \"contracts/Coin_contract.sol\":1535:1551  balanceOf[owner] */\n      0x00\n        /* \"contracts/Coin_contract.sol\":1545:1550  owner */\n      dup6\n        /* \"contracts/Coin_contract.sol\":1535:1551  balanceOf[owner] */\n      0xffffffffffffffffffffffffffffffffffffffff\n      and\n      0xffffffffffffffffffffffffffffffffffffffff\n      and\n      dup2\n      mstore\n      0x20\n      add\n      swap1\n      dup2\n      mstore\n      0x20\n      add\n      0x00\n      keccak256\n      sload\n        /* \"contracts/Coin_contract.sol\":1522:1531  numTokens */\n      dup3\n        /* \"contracts/Coin_contract.sol\":1522:1551  numTokens <= balanceOf[owner] */\n      gt\n      iszero\n        /* \"contracts/Coin_contract.sol\":1514:1576  require(numTokens <= balanceOf[owner], \"insufficient-balance\") */\n      tag_80\n      jumpi\n      mload(0x40)\n      0x08c379a000000000000000000000000000000000000000000000000000000000\n      dup2\n      mstore\n      0x04\n      add\n      tag_81\n      swap1\n      tag_82\n      jump\t// in\n    tag_81:\n      mload(0x40)\n      dup1\n      swap2\n      sub\n      swap1\n      revert\n    tag_80:\n        /* \"contracts/Coin_contract.sol\":1600:1610  msg.sender */\n      caller\n        /* \"contracts/Coin_contract.sol\":1591:1610  owner != msg.sender */\n      0xffffffffffffffffffffffffffffffffffffffff\n      and\n        /* \"contracts/Coin_contract.sol\":1591:1596  owner */\n      dup5\n        /* \"contracts/Coin_contract.sol\":1591:1610  owner != msg.sender */\n      0xffffffffffffffffffffffffffffffffffffffff\n      and\n      eq\n        /* \"contracts/Coin_contract.sol\":1587:1814  if (owner != msg.sender)\r... */\n      tag_83\n      jumpi\n        /* \"contracts/Coin_contract.sol\":1657:1666  allowance */\n      0x03\n        /* \"contracts/Coin_contract.sol\":1657:1673  allowance[owner] */\n      0x00\n        /* \"contracts/Coin_contract.sol\":1667:1672  owner */\n      dup6\n        /* \"contracts/Coin_contract.sol\":1657:1673  allowance[owner] */\n      0xffffffffffffffffffffffffffffffffffffffff\n      and\n      0xffffffffffffffffffffffffffffffffffffffff\n      and\n      dup2\n      mstore\n      0x20\n      add\n      swap1\n      dup2\n      mstore\n      0x20\n      add\n      0x00\n      keccak256\n        /* \"contracts/Coin_contract.sol\":1657:1685  allowance[owner][msg.sender] */\n      0x00\n        /* \"contracts/Coin_contract.sol\":1674:1684  msg.sender */\n      caller\n        /* \"contracts/Coin_contract.sol\":1657:1685  allowance[owner][msg.sender] */\n      0xffffffffffffffffffffffffffffffffffffffff\n      and\n      0xffffffffffffffffffffffffffffffffffffffff\n      and\n      dup2\n      mstore\n      0x20\n      add\n      swap1\n      dup2\n      mstore\n      0x20\n      add\n      0x00\n      keccak256\n      sload\n        /* \"contracts/Coin_contract.sol\":1644:1653  numTokens */\n      dup3\n        /* \"contracts/Coin_contract.sol\":1644:1685  numTokens <= allowance[owner][msg.sender] */\n      gt\n      iszero\n        /* \"contracts/Coin_contract.sol\":1636:1712  require(numTokens <= allowance[owner][msg.sender], \"insufficient-allowance\") */\n      tag_84\n      jumpi\n      mload(0x40)\n      0x08c379a000000000000000000000000000000000000000000000000000000000\n      dup2\n      mstore\n      0x04\n      add\n      tag_85\n      swap1\n      tag_86\n      jump\t// in\n    tag_85:\n      mload(0x40)\n      dup1\n      swap2\n      sub\n      swap1\n      revert\n    tag_84:\n        /* \"contracts/Coin_contract.sol\":1758:1802  sub(allowance[owner][msg.sender], numTokens) */\n      tag_87\n        /* \"contracts/Coin_contract.sol\":1762:1771  allowance */\n      0x03\n        /* \"contracts/Coin_contract.sol\":1762:1778  allowance[owner] */\n      0x00\n        /* \"contracts/Coin_contract.sol\":1772:1777  owner */\n      dup7\n        /* \"contracts/Coin_contract.sol\":1762:1778  allowance[owner] */\n      0xffffffffffffffffffffffffffffffffffffffff\n      and\n      0xffffffffffffffffffffffffffffffffffffffff\n      and\n      dup2\n      mstore\n      0x20\n      add\n      swap1\n      dup2\n      mstore\n      0x20\n      add\n      0x00\n      keccak256\n        /* \"contracts/Coin_contract.sol\":1762:1790  allowance[owner][msg.sender] */\n      0x00\n        /* \"contracts/Coin_contract.sol\":1779:1789  msg.sender */\n      caller\n        /* \"contracts/Coin_contract.sol\":1762:1790  allowance[owner][msg.sender] */\n      0xffffffffffffffffffffffffffffffffffffffff\n      and\n      0xffffffffffffffffffffffffffffffffffffffff\n      and\n      dup2\n      mstore\n      0x20\n      add\n      swap1\n      dup2\n      mstore\n      0x20\n      add\n      0x00\n      keccak256\n      sload\n        /* \"contracts/Coin_contract.sol\":1792:1801  numTokens */\n      dup4\n        /* \"contracts/Coin_contract.sol\":1758:1761  sub */\n      tag_88\n        /* \"contracts/Coin_contract.sol\":1758:1802  sub(allowance[owner][msg.sender], numTokens) */\n      jump\t// in\n    tag_87:\n        /* \"contracts/Coin_contract.sol\":1727:1736  allowance */\n      0x03\n        /* \"contracts/Coin_contract.sol\":1727:1743  allowance[owner] */\n      0x00\n        /* \"contracts/Coin_contract.sol\":1737:1742  owner */\n      dup7\n        /* \"contracts/Coin_contract.sol\":1727:1743  allowance[owner] */\n      0xffffffffffffffffffffffffffffffffffffffff\n      and\n      0xffffffffffffffffffffffffffffffffffffffff\n      and\n      dup2\n      mstore\n      0x20\n      add\n      swap1\n      dup2\n      mstore\n      0x20\n      add\n      0x00\n      keccak256\n        /* \"contracts/Coin_contract.sol\":1727:1755  allowance[owner][msg.sender] */\n      0x00\n        /* \"contracts/Coin_contract.sol\":1744:1754  msg.sender */\n      caller\n        /* \"contracts/Coin_contract.sol\":1727:1755  allowance[owner][msg.sender] */\n      0xffffffffffffffffffffffffffffffffffffffff\n      and\n      0xffffffffffffffffffffffffffffffffffffffff\n      and\n      dup2\n      mstore\n      0x20\n      add\n      swap1\n      dup2\n      mstore\n      0x20\n      add\n      0x00\n      keccak256\n        /* \"contracts/Coin_contract.sol\":1727:1802  allowance[owner][msg.sender] = sub(allowance[owner][msg.sender], numTokens) */\n      dup2\n      swap1\n      sstore\n      pop\n        /* \"contracts/Coin_contract.sol\":1587:1814  if (owner != msg.sender)\r... */\n    tag_83:\n        /* \"contracts/Coin_contract.sol\":1843:1876  sub( balanceOf[owner], numTokens) */\n      tag_89\n        /* \"contracts/Coin_contract.sol\":1848:1857  balanceOf */\n      0x02\n        /* \"contracts/Coin_contract.sol\":1848:1864  balanceOf[owner] */\n      0x00\n        /* \"contracts/Coin_contract.sol\":1858:1863  owner */\n      dup7\n        /* \"contracts/Coin_contract.sol\":1848:1864  balanceOf[owner] */\n      0xffffffffffffffffffffffffffffffffffffffff\n      and\n      0xffffffffffffffffffffffffffffffffffffffff\n      and\n      dup2\n      mstore\n      0x20\n      add\n      swap1\n      dup2\n      mstore\n      0x20\n      add\n      0x00\n      keccak256\n      sload\n        /* \"contracts/Coin_contract.sol\":1866:1875  numTokens */\n      dup4\n        /* \"contracts/Coin_contract.sol\":1843:1846  sub */\n      tag_88\n        /* \"contracts/Coin_contract.sol\":1843:1876  sub( balanceOf[owner], numTokens) */\n      jump\t// in\n    tag_89:\n        /* \"contracts/Coin_contract.sol\":1824:1833  balanceOf */\n      0x02\n        /* \"contracts/Coin_contract.sol\":1824:1840  balanceOf[owner] */\n      0x00\n        /* \"contracts/Coin_contract.sol\":1834:1839  owner */\n      dup7\n        /* \"contracts/Coin_contract.sol\":1824:1840  balanceOf[owner] */\n      0xffffffffffffffffffffffffffffffffffffffff\n      and\n      0xffffffffffffffffffffffffffffffffffffffff\n      and\n      dup2\n      mstore\n      0x20\n      add\n      swap1\n      dup2\n      mstore\n      0x20\n      add\n      0x00\n      keccak256\n        /* \"contracts/Coin_contract.sol\":1824:1876  balanceOf[owner] = sub( balanceOf[owner], numTokens) */\n      dup2\n      swap1\n      sstore\n      pop\n        /* \"contracts/Coin_contract.sol\":1906:1939  add( balanceOf[buyer], numTokens) */\n      tag_90\n        /* \"contracts/Coin_contract.sol\":1911:1920  balanceOf */\n      0x02\n        /* \"contracts/Coin_contract.sol\":1911:1927  balanceOf[buyer] */\n      0x00\n        /* \"contracts/Coin_contract.sol\":1921:1926  buyer */\n      dup6\n        /* \"contracts/Coin_contract.sol\":1911:1927  balanceOf[buyer] */\n      0xffffffffffffffffffffffffffffffffffffffff\n      and\n      0xffffffffffffffffffffffffffffffffffffffff\n      and\n      dup2\n      mstore\n      0x20\n      add\n      swap1\n      dup2\n      mstore\n      0x20\n      add\n      0x00\n      keccak256\n      sload\n        /* \"contracts/Coin_contract.sol\":1929:1938  numTokens */\n      dup4\n        /* \"contracts/Coin_contract.sol\":1906:1909  add */\n      tag_91\n        /* \"contracts/Coin_contract.sol\":1906:1939  add( balanceOf[buyer], numTokens) */\n      jump\t// in\n    tag_90:\n        /* \"contracts/Coin_contract.sol\":1887:1896  balanceOf */\n      0x02\n        /* \"contracts/Coin_contract.sol\":1887:1903  balanceOf[buyer] */\n      0x00\n        /* \"contracts/Coin_contract.sol\":1897:1902  buyer */\n      dup6\n        /* \"contracts/Coin_contract.sol\":1887:1903  balanceOf[buyer] */\n      0xffffffffffffffffffffffffffffffffffffffff\n      and\n      0xffffffffffffffffffffffffffffffffffffffff\n      and\n      dup2\n      mstore\n      0x20\n      add\n      swap1\n      dup2\n      mstore\n      0x20\n      add\n      0x00\n      keccak256\n        /* \"contracts/Coin_contract.sol\":1887:1939  balanceOf[buyer] = add( balanceOf[buyer], numTokens) */\n      dup2\n      swap1\n      sstore\n      pop\n        /* \"contracts/Coin_contract.sol\":1971:1976  buyer */\n      dup3\n        /* \"contracts/Coin_contract.sol\":1955:1988  Transfer(owner, buyer, numTokens) */\n      0xffffffffffffffffffffffffffffffffffffffff\n      and\n        /* \"contracts/Coin_contract.sol\":1964:1969  owner */\n      dup5\n        /* \"contracts/Coin_contract.sol\":1955:1988  Transfer(owner, buyer, numTokens) */\n      0xffffffffffffffffffffffffffffffffffffffff\n      and\n      0xddf252ad1be2c89b69c2b068fc378daa952ba7f163c4a11628f55a4df523b3ef\n        /* \"contracts/Coin_contract.sol\":1978:1987  numTokens */\n      dup5\n        /* \"contracts/Coin_contract.sol\":1955:1988  Transfer(owner, buyer, numTokens) */\n      mload(0x40)\n      tag_92\n      swap2\n      swap1\n      tag_33\n      jump\t// in\n    tag_92:\n      mload(0x40)\n      dup1\n      swap2\n      sub\n      swap1\n      log3\n        /* \"contracts/Coin_contract.sol\":2006:2010  true */\n      0x01\n        /* \"contracts/Coin_contract.sol\":1999:2010  return true */\n      swap1\n      pop\n        /* \"contracts/Coin_contract.sol\":1407:2018  function transferFrom(address owner, address buyer, uint numTokens) public returns (bool) \r... */\n      swap4\n      swap3\n      pop\n      pop\n      pop\n      jump\t// out\n        /* \"contracts/Coin_contract.sol\":491:525  uint8 public constant decimals = 0 */\n    tag_40:\n        /* \"contracts/Coin_contract.sol\":524:525  0 */\n      0x00\n        /* \"contracts/Coin_contract.sol\":491:525  uint8 public constant decimals = 0 */\n      dup2\n      jump\t// out\n        /* \"contracts/Coin_contract.sol\":2283:2492  function mint(address usr, uint wad) external auth \r... */\n    tag_45:\n        /* \"contracts/Coin_contract.sol\":309:310  1 */\n      0x01\n        /* \"contracts/Coin_contract.sol\":288:293  wards */\n      0x00\n        /* \"contracts/Coin_contract.sol\":288:305  wards[msg.sender] */\n      dup1\n        /* \"contracts/Coin_contract.sol\":294:304  msg.sender */\n      caller\n        /* \"contracts/Coin_contract.sol\":288:305  wards[msg.sender] */\n      0xffffffffffffffffffffffffffffffffffffffff\n      and\n      0xffffffffffffffffffffffffffffffffffffffff\n      and\n      dup2\n      mstore\n      0x20\n      add\n      swap1\n      dup2\n      mstore\n      0x20\n      add\n      0x00\n      keccak256\n      sload\n        /* \"contracts/Coin_contract.sol\":288:310  wards[msg.sender] == 1 */\n      eq\n        /* \"contracts/Coin_contract.sol\":280:329  require(wards[msg.sender] == 1, \"Not-authorized\") */\n      tag_94\n      jumpi\n      mload(0x40)\n      0x08c379a000000000000000000000000000000000000000000000000000000000\n      dup2\n      mstore\n      0x04\n      add\n      tag_95\n      swap1\n      tag_96\n      jump\t// in\n    tag_95:\n      mload(0x40)\n      dup1\n      swap2\n      sub\n      swap1\n      revert\n    tag_94:\n        /* \"contracts/Coin_contract.sol\":2368:2392  add(balanceOf[usr], wad) */\n      tag_98\n        /* \"contracts/Coin_contract.sol\":2372:2381  balanceOf */\n      0x02\n        /* \"contracts/Coin_contract.sol\":2372:2386  balanceOf[usr] */\n      0x00\n        /* \"contracts/Coin_contract.sol\":2382:2385  usr */\n      dup5\n        /* \"contracts/Coin_contract.sol\":2372:2386  balanceOf[usr] */\n      0xffffffffffffffffffffffffffffffffffffffff\n      and\n      0xffffffffffffffffffffffffffffffffffffffff\n      and\n      dup2\n      mstore\n      0x20\n      add\n      swap1\n      dup2\n      mstore\n      0x20\n      add\n      0x00\n      keccak256\n      sload\n        /* \"contracts/Coin_contract.sol\":2388:2391  wad */\n      dup3\n        /* \"contracts/Coin_contract.sol\":2368:2371  add */\n      tag_91\n        /* \"contracts/Coin_contract.sol\":2368:2392  add(balanceOf[usr], wad) */\n      jump\t// in\n    tag_98:\n        /* \"contracts/Coin_contract.sol\":2351:2360  balanceOf */\n      0x02\n        /* \"contracts/Coin_contract.sol\":2351:2365  balanceOf[usr] */\n      0x00\n        /* \"contracts/Coin_contract.sol\":2361:2364  usr */\n      dup5\n        /* \"contracts/Coin_contract.sol\":2351:2365  balanceOf[usr] */\n      0xffffffffffffffffffffffffffffffffffffffff\n      and\n      0xffffffffffffffffffffffffffffffffffffffff\n      and\n      dup2\n      mstore\n      0x20\n      add\n      swap1\n      dup2\n      mstore\n      0x20\n      add\n      0x00\n      keccak256\n        /* \"contracts/Coin_contract.sol\":2351:2392  balanceOf[usr] = add(balanceOf[usr], wad) */\n      dup2\n      swap1\n      sstore\n      pop\n        /* \"contracts/Coin_contract.sol\":2417:2438  add(totalSupply, wad) */\n      tag_99\n        /* \"contracts/Coin_contract.sol\":2421:2432  totalSupply */\n      sload(0x01)\n        /* \"contracts/Coin_contract.sol\":2434:2437  wad */\n      dup3\n        /* \"contracts/Coin_contract.sol\":2417:2420  add */\n      tag_91\n        /* \"contracts/Coin_contract.sol\":2417:2438  add(totalSupply, wad) */\n      jump\t// in\n    tag_99:\n        /* \"contracts/Coin_contract.sol\":2403:2414  totalSupply */\n      0x01\n        /* \"contracts/Coin_contract.sol\":2403:2438  totalSupply = add(totalSupply, wad) */\n      dup2\n      swap1\n      sstore\n      pop\n        /* \"contracts/Coin_contract.sol\":2475:2478  usr */\n      dup2\n        /* \"contracts/Coin_contract.sol\":2454:2484  Transfer(address(0), usr, wad) */\n      0xffffffffffffffffffffffffffffffffffffffff\n      and\n        /* \"contracts/Coin_contract.sol\":2471:2472  0 */\n      0x00\n        /* \"contracts/Coin_contract.sol\":2454:2484  Transfer(address(0), usr, wad) */\n      0xffffffffffffffffffffffffffffffffffffffff\n      and\n      0xddf252ad1be2c89b69c2b068fc378daa952ba7f163c4a11628f55a4df523b3ef\n        /* \"contracts/Coin_contract.sol\":2480:2483  wad */\n      dup4\n        /* \"contracts/Coin_contract.sol\":2454:2484  Transfer(address(0), usr, wad) */\n      mload(0x40)\n      tag_100\n      swap2\n      swap1\n      tag_33\n      jump\t// in\n    tag_100:\n      mload(0x40)\n      dup1\n      swap2\n      sub\n      swap1\n      log3\n        /* \"contracts/Coin_contract.sol\":2283:2492  function mint(address usr, uint wad) external auth \r... */\n      pop\n      pop\n      jump\t// out\n        /* \"contracts/Coin_contract.sol\":447:484  string public constant version  = \"1\" */\n    tag_47:\n      mload(0x40)\n      dup1\n      0x40\n      add\n      0x40\n      mstore\n      dup1\n      0x01\n      dup2\n      mstore\n      0x20\n      add\n      0x3100000000000000000000000000000000000000000000000000000000000000\n      dup2\n      mstore\n      pop\n      dup2\n      jump\t// out\n        /* \"contracts/Coin_contract.sol\":567:608  mapping(address => uint) public balanceOf */\n    tag_52:\n      mstore(0x20, 0x02)\n      dup1\n      0x00\n      mstore\n      keccak256(0x00, 0x40)\n      0x00\n      swap2\n      pop\n      swap1\n      pop\n      sload\n      dup2\n      jump\t// out\n        /* \"contracts/Coin_contract.sol\":684:723  mapping (address => uint) public nonces */\n    tag_56:\n      mstore(0x20, 0x04)\n      dup1\n      0x00\n      mstore\n      keccak256(0x00, 0x40)\n      0x00\n      swap2\n      pop\n      swap1\n      pop\n      sload\n      dup2\n      jump\t// out\n        /* \"contracts/Coin_contract.sol\":404:440  string public constant symbol = \"DC\" */\n    tag_59:\n      mload(0x40)\n      dup1\n      0x40\n      add\n      0x40\n      mstore\n      dup1\n      0x02\n      dup2\n      mstore\n      0x20\n      add\n      0x4443000000000000000000000000000000000000000000000000000000000000\n      dup2\n      mstore\n      pop\n      dup2\n      jump\t// out\n        /* \"contracts/Coin_contract.sol\":2498:2925  function burn(address usr, uint wad) external auth \r... */\n    tag_63:\n        /* \"contracts/Coin_contract.sol\":309:310  1 */\n      0x01\n        /* \"contracts/Coin_contract.sol\":288:293  wards */\n      0x00\n        /* \"contracts/Coin_contract.sol\":288:305  wards[msg.sender] */\n      dup1\n        /* \"contracts/Coin_contract.sol\":294:304  msg.sender */\n      caller\n        /* \"contracts/Coin_contract.sol\":288:305  wards[msg.sender] */\n      0xffffffffffffffffffffffffffffffffffffffff\n      and\n      0xffffffffffffffffffffffffffffffffffffffff\n      and\n      dup2\n      mstore\n      0x20\n      add\n      swap1\n      dup2\n      mstore\n      0x20\n      add\n      0x00\n      keccak256\n      sload\n        /* \"contracts/Coin_contract.sol\":288:310  wards[msg.sender] == 1 */\n      eq\n        /* \"contracts/Coin_contract.sol\":280:329  require(wards[msg.sender] == 1, \"Not-authorized\") */\n      tag_102\n      jumpi\n      mload(0x40)\n      0x08c379a000000000000000000000000000000000000000000000000000000000\n      dup2\n      mstore\n      0x04\n      add\n      tag_103\n      swap1\n      tag_96\n      jump\t// in\n    tag_103:\n      mload(0x40)\n      dup1\n      swap2\n      sub\n      swap1\n      revert\n    tag_102:\n        /* \"contracts/Coin_contract.sol\":2592:2595  wad */\n      dup1\n        /* \"contracts/Coin_contract.sol\":2574:2583  balanceOf */\n      0x02\n        /* \"contracts/Coin_contract.sol\":2574:2588  balanceOf[usr] */\n      0x00\n        /* \"contracts/Coin_contract.sol\":2584:2587  usr */\n      dup5\n        /* \"contracts/Coin_contract.sol\":2574:2588  balanceOf[usr] */\n      0xffffffffffffffffffffffffffffffffffffffff\n      and\n      0xffffffffffffffffffffffffffffffffffffffff\n      and\n      dup2\n      mstore\n      0x20\n      add\n      swap1\n      dup2\n      mstore\n      0x20\n      add\n      0x00\n      keccak256\n      sload\n        /* \"contracts/Coin_contract.sol\":2574:2595  balanceOf[usr] >= wad */\n      lt\n      iszero\n        /* \"contracts/Coin_contract.sol\":2566:2620  require(balanceOf[usr] >= wad, \"insufficient-balance\") */\n      tag_105\n      jumpi\n      mload(0x40)\n      0x08c379a000000000000000000000000000000000000000000000000000000000\n      dup2\n      mstore\n      0x04\n      add\n      tag_106\n      swap1\n      tag_82\n      jump\t// in\n    tag_106:\n      mload(0x40)\n      dup1\n      swap2\n      sub\n      swap1\n      revert\n    tag_105:\n        /* \"contracts/Coin_contract.sol\":2801:2825  sub(balanceOf[usr], wad) */\n      tag_107\n        /* \"contracts/Coin_contract.sol\":2805:2814  balanceOf */\n      0x02\n        /* \"contracts/Coin_contract.sol\":2805:2819  balanceOf[usr] */\n      0x00\n        /* \"contracts/Coin_contract.sol\":2815:2818  usr */\n      dup5\n        /* \"contracts/Coin_contract.sol\":2805:2819  balanceOf[usr] */\n      0xffffffffffffffffffffffffffffffffffffffff\n      and\n      0xffffffffffffffffffffffffffffffffffffffff\n      and\n      dup2\n      mstore\n      0x20\n      add\n      swap1\n      dup2\n      mstore\n      0x20\n      add\n      0x00\n      keccak256\n      sload\n        /* \"contracts/Coin_contract.sol\":2821:2824  wad */\n      dup3\n        /* \"contracts/Coin_contract.sol\":2801:2804  sub */\n      tag_88\n        /* \"contracts/Coin_contract.sol\":2801:2825  sub(balanceOf[usr], wad) */\n      jump\t// in\n    tag_107:\n        /* \"contracts/Coin_contract.sol\":2784:2793  balanceOf */\n      0x02\n        /* \"contracts/Coin_contract.sol\":2784:2798  balanceOf[usr] */\n      0x00\n        /* \"contracts/Coin_contract.sol\":2794:2797  usr */\n      dup5\n        /* \"contracts/Coin_contract.sol\":2784:2798  balanceOf[usr] */\n      0xffffffffffffffffffffffffffffffffffffffff\n      and\n      0xffffffffffffffffffffffffffffffffffffffff\n      and\n      dup2\n      mstore\n      0x20\n      add\n      swap1\n      dup2\n      mstore\n      0x20\n      add\n      0x00\n      keccak256\n        /* \"contracts/Coin_contract.sol\":2784:2825  balanceOf[usr] = sub(balanceOf[usr], wad) */\n      dup2\n      swap1\n      sstore\n      pop\n        /* \"contracts/Coin_contract.sol\":2850:2871  sub(totalSupply, wad) */\n      tag_108\n        /* \"contracts/Coin_contract.sol\":2854:2865  totalSupply */\n      sload(0x01)\n        /* \"contracts/Coin_contract.sol\":2867:2870  wad */\n      dup3\n        /* \"contracts/Coin_contract.sol\":2850:2853  sub */\n      tag_88\n        /* \"contracts/Coin_contract.sol\":2850:2871  sub(totalSupply, wad) */\n      jump\t// in\n    tag_108:\n        /* \"contracts/Coin_contract.sol\":2836:2847  totalSupply */\n      0x01\n        /* \"contracts/Coin_contract.sol\":2836:2871  totalSupply = sub(totalSupply, wad) */\n      dup2\n      swap1\n      sstore\n      pop\n        /* \"contracts/Coin_contract.sol\":2909:2910  0 */\n      0x00\n        /* \"contracts/Coin_contract.sol\":2887:2917  Transfer(usr, address(0), wad) */\n      0xffffffffffffffffffffffffffffffffffffffff\n      and\n        /* \"contracts/Coin_contract.sol\":2896:2899  usr */\n      dup3\n        /* \"contracts/Coin_contract.sol\":2887:2917  Transfer(usr, address(0), wad) */\n      0xffffffffffffffffffffffffffffffffffffffff\n      and\n      0xddf252ad1be2c89b69c2b068fc378daa952ba7f163c4a11628f55a4df523b3ef\n        /* \"contracts/Coin_contract.sol\":2913:2916  wad */\n      dup4\n        /* \"contracts/Coin_contract.sol\":2887:2917  Transfer(usr, address(0), wad) */\n      mload(0x40)\n      tag_109\n      swap2\n      swap1\n      tag_33\n      jump\t// in\n    tag_109:\n      mload(0x40)\n      dup1\n      swap2\n      sub\n      swap1\n      log3\n        /* \"contracts/Coin_contract.sol\":2498:2925  function burn(address usr, uint wad) external auth \r... */\n      pop\n      pop\n      jump\t// out\n        /* \"contracts/Coin_contract.sol\":1246:1399  function transfer(address receiver, uint numTokens) external returns (bool) \r... */\n    tag_66:\n        /* \"contracts/Coin_contract.sol\":1316:1320  bool */\n      0x00\n        /* \"contracts/Coin_contract.sol\":1346:1391  transferFrom(msg.sender, receiver, numTokens) */\n      tag_111\n        /* \"contracts/Coin_contract.sol\":1359:1369  msg.sender */\n      caller\n        /* \"contracts/Coin_contract.sol\":1371:1379  receiver */\n      dup5\n        /* \"contracts/Coin_contract.sol\":1381:1390  numTokens */\n      dup5\n        /* \"contracts/Coin_contract.sol\":1346:1358  transferFrom */\n      tag_37\n        /* \"contracts/Coin_contract.sol\":1346:1391  transferFrom(msg.sender, receiver, numTokens) */\n      jump\t// in\n    tag_111:\n        /* \"contracts/Coin_contract.sol\":1339:1391  return transferFrom(msg.sender, receiver, numTokens) */\n      swap1\n      pop\n        /* \"contracts/Coin_contract.sol\":1246:1399  function transfer(address receiver, uint numTokens) external returns (bool) \r... */\n      swap3\n      swap2\n      pop\n      pop\n      jump\t// out\n        /* \"contracts/Coin_contract.sol\":204:242  mapping (address => uint) public wards */\n    tag_70:\n      mstore(0x20, 0x00)\n      dup1\n      0x00\n      mstore\n      keccak256(0x00, 0x40)\n      0x00\n      swap2\n      pop\n      swap1\n      pop\n      sload\n      dup2\n      jump\t// out\n        /* \"contracts/Coin_contract.sol\":615:677  mapping(address => mapping (address => uint)) public allowance */\n    tag_75:\n      mstore(0x20, 0x03)\n      dup2\n      0x00\n      mstore\n      mstore(0x20, keccak256(0x00, 0x40))\n      dup1\n      0x00\n      mstore\n      keccak256(0x00, 0x40)\n      0x00\n      swap2\n      pop\n      swap2\n      pop\n      pop\n      sload\n      dup2\n      jump\t// out\n        /* \"contracts/Coin_contract.sol\":1034:1144  function sub(uint x, uint y) internal pure returns (uint z) \r... */\n    tag_88:\n        /* \"contracts/Coin_contract.sol\":1086:1092  uint z */\n      0x00\n        /* \"contracts/Coin_contract.sol\":1134:1135  x */\n      dup3\n        /* \"contracts/Coin_contract.sol\":1128:1129  y */\n      dup3\n        /* \"contracts/Coin_contract.sol\":1124:1125  x */\n      dup5\n        /* \"contracts/Coin_contract.sol\":1124:1129  x - y */\n      tag_113\n      swap2\n      swap1\n      tag_114\n      jump\t// in\n    tag_113:\n        /* \"contracts/Coin_contract.sol\":1120:1129  z = x - y */\n      swap2\n      pop\n      dup2\n        /* \"contracts/Coin_contract.sol\":1119:1135  (z = x - y) <= x */\n      gt\n      iszero\n        /* \"contracts/Coin_contract.sol\":1111:1136  require((z = x - y) <= x) */\n      tag_115\n      jumpi\n      0x00\n      dup1\n      revert\n    tag_115:\n        /* \"contracts/Coin_contract.sol\":1034:1144  function sub(uint x, uint y) internal pure returns (uint z) \r... */\n      swap3\n      swap2\n      pop\n      pop\n      jump\t// out\n        /* \"contracts/Coin_contract.sol\":918:1028  function add(uint x, uint y) internal pure returns (uint z) \r... */\n    tag_91:\n        /* \"contracts/Coin_contract.sol\":970:976  uint z */\n      0x00\n        /* \"contracts/Coin_contract.sol\":1018:1019  x */\n      dup3\n        /* \"contracts/Coin_contract.sol\":1012:1013  y */\n      dup3\n        /* \"contracts/Coin_contract.sol\":1008:1009  x */\n      dup5\n        /* \"contracts/Coin_contract.sol\":1008:1013  x + y */\n      tag_117\n      swap2\n      swap1\n      tag_118\n      jump\t// in\n    tag_117:\n        /* \"contracts/Coin_contract.sol\":1004:1013  z = x + y */\n      swap2\n      pop\n      dup2\n        /* \"contracts/Coin_contract.sol\":1003:1019  (z = x + y) >= x */\n      lt\n      iszero\n        /* \"contracts/Coin_contract.sol\":995:1020  require((z = x + y) >= x) */\n      tag_119\n      jumpi\n      0x00\n      dup1\n      revert\n    tag_119:\n        /* \"contracts/Coin_contract.sol\":918:1028  function add(uint x, uint y) internal pure returns (uint z) \r... */\n      swap3\n      swap2\n      pop\n      pop\n      jump\t// out\n        /* \"#utility.yul\":7:146   */\n    tag_121:\n        /* \"#utility.yul\":53:58   */\n      0x00\n        /* \"#utility.yul\":91:97   */\n      dup2\n        /* \"#utility.yul\":78:98   */\n      calldataload\n        /* \"#utility.yul\":69:98   */\n      swap1\n      pop\n        /* \"#utility.yul\":107:140   */\n      tag_123\n        /* \"#utility.yul\":134:139   */\n      dup2\n        /* \"#utility.yul\":107:140   */\n      tag_124\n      jump\t// in\n    tag_123:\n        /* \"#utility.yul\":7:146   */\n      swap3\n      swap2\n      pop\n      pop\n      jump\t// out\n        /* \"#utility.yul\":152:291   */\n    tag_125:\n        /* \"#utility.yul\":198:203   */\n      0x00\n        /* \"#utility.yul\":236:242   */\n      dup2\n        /* \"#utility.yul\":223:243   */\n      calldataload\n        /* \"#utility.yul\":214:243   */\n      swap1\n      pop\n        /* \"#utility.yul\":252:285   */\n      tag_127\n        /* \"#utility.yul\":279:284   */\n      dup2\n        /* \"#utility.yul\":252:285   */\n      tag_128\n      jump\t// in\n    tag_127:\n        /* \"#utility.yul\":152:291   */\n      swap3\n      swap2\n      pop\n      pop\n      jump\t// out\n        /* \"#utility.yul\":297:626   */\n    tag_51:\n        /* \"#utility.yul\":356:362   */\n      0x00\n        /* \"#utility.yul\":405:407   */\n      0x20\n        /* \"#utility.yul\":393:402   */\n      dup3\n        /* \"#utility.yul\":384:391   */\n      dup5\n        /* \"#utility.yul\":380:403   */\n      sub\n        /* \"#utility.yul\":376:408   */\n      slt\n        /* \"#utility.yul\":373:492   */\n      iszero\n      tag_130\n      jumpi\n        /* \"#utility.yul\":411:490   */\n      tag_131\n      tag_132\n      jump\t// in\n    tag_131:\n        /* \"#utility.yul\":373:492   */\n    tag_130:\n        /* \"#utility.yul\":531:532   */\n      0x00\n        /* \"#utility.yul\":556:609   */\n      tag_133\n        /* \"#utility.yul\":601:608   */\n      dup5\n        /* \"#utility.yul\":592:598   */\n      dup3\n        /* \"#utility.yul\":581:590   */\n      dup6\n        /* \"#utility.yul\":577:599   */\n      add\n        /* \"#utility.yul\":556:609   */\n      tag_121\n      jump\t// in\n    tag_133:\n        /* \"#utility.yul\":546:609   */\n      swap2\n      pop\n        /* \"#utility.yul\":502:619   */\n      pop\n        /* \"#utility.yul\":297:626   */\n      swap3\n      swap2\n      pop\n      pop\n      jump\t// out\n        /* \"#utility.yul\":632:1106   */\n    tag_74:\n        /* \"#utility.yul\":700:706   */\n      0x00\n        /* \"#utility.yul\":708:714   */\n      dup1\n        /* \"#utility.yul\":757:759   */\n      0x40\n        /* \"#utility.yul\":745:754   */\n      dup4\n        /* \"#utility.yul\":736:743   */\n      dup6\n        /* \"#utility.yul\":732:755   */\n      sub\n        /* \"#utility.yul\":728:760   */\n      slt\n        /* \"#utility.yul\":725:844   */\n      iszero\n      tag_135\n      jumpi\n        /* \"#utility.yul\":763:842   */\n      tag_136\n      tag_132\n      jump\t// in\n    tag_136:\n        /* \"#utility.yul\":725:844   */\n    tag_135:\n        /* \"#utility.yul\":883:884   */\n      0x00\n        /* \"#utility.yul\":908:961   */\n      tag_137\n        /* \"#utility.yul\":953:960   */\n      dup6\n        /* \"#utility.yul\":944:950   */\n      dup3\n        /* \"#utility.yul\":933:942   */\n      dup7\n        /* \"#utility.yul\":929:951   */\n      add\n        /* \"#utility.yul\":908:961   */\n      tag_121\n      jump\t// in\n    tag_137:\n        /* \"#utility.yul\":898:961   */\n      swap3\n      pop\n        /* \"#utility.yul\":854:971   */\n      pop\n        /* \"#utility.yul\":1010:1012   */\n      0x20\n        /* \"#utility.yul\":1036:1089   */\n      tag_138\n        /* \"#utility.yul\":1081:1088   */\n      dup6\n        /* \"#utility.yul\":1072:1078   */\n      dup3\n        /* \"#utility.yul\":1061:1070   */\n      dup7\n        /* \"#utility.yul\":1057:1079   */\n      add\n        /* \"#utility.yul\":1036:1089   */\n      tag_121\n      jump\t// in\n    tag_138:\n        /* \"#utility.yul\":1026:1089   */\n      swap2\n      pop\n        /* \"#utility.yul\":981:1099   */\n      pop\n        /* \"#utility.yul\":632:1106   */\n      swap3\n      pop\n      swap3\n      swap1\n      pop\n      jump\t// out\n        /* \"#utility.yul\":1112:1731   */\n    tag_36:\n        /* \"#utility.yul\":1189:1195   */\n      0x00\n        /* \"#utility.yul\":1197:1203   */\n      dup1\n        /* \"#utility.yul\":1205:1211   */\n      0x00\n        /* \"#utility.yul\":1254:1256   */\n      0x60\n        /* \"#utility.yul\":1242:1251   */\n      dup5\n        /* \"#utility.yul\":1233:1240   */\n      dup7\n        /* \"#utility.yul\":1229:1252   */\n      sub\n        /* \"#utility.yul\":1225:1257   */\n      slt\n        /* \"#utility.yul\":1222:1341   */\n      iszero\n      tag_140\n      jumpi\n        /* \"#utility.yul\":1260:1339   */\n      tag_141\n      tag_132\n      jump\t// in\n    tag_141:\n        /* \"#utility.yul\":1222:1341   */\n    tag_140:\n        /* \"#utility.yul\":1380:1381   */\n      0x00\n        /* \"#utility.yul\":1405:1458   */\n      tag_142\n        /* \"#utility.yul\":1450:1457   */\n      dup7\n        /* \"#utility.yul\":1441:1447   */\n      dup3\n        /* \"#utility.yul\":1430:1439   */\n      dup8\n        /* \"#utility.yul\":1426:1448   */\n      add\n        /* \"#utility.yul\":1405:1458   */\n      tag_121\n      jump\t// in\n    tag_142:\n        /* \"#utility.yul\":1395:1458   */\n      swap4\n      pop\n        /* \"#utility.yul\":1351:1468   */\n      pop\n        /* \"#utility.yul\":1507:1509   */\n      0x20\n        /* \"#utility.yul\":1533:1586   */\n      tag_143\n        /* \"#utility.yul\":1578:1585   */\n      dup7\n        /* \"#utility.yul\":1569:1575   */\n      dup3\n        /* \"#utility.yul\":1558:1567   */\n      dup8\n        /* \"#utility.yul\":1554:1576   */\n      add\n        /* \"#utility.yul\":1533:1586   */\n      tag_121\n      jump\t// in\n    tag_143:\n        /* \"#utility.yul\":1523:1586   */\n      swap3\n      pop\n        /* \"#utility.yul\":1478:1596   */\n      pop\n        /* \"#utility.yul\":1635:1637   */\n      0x40\n        /* \"#utility.yul\":1661:1714   */\n      tag_144\n        /* \"#utility.yul\":1706:1713   */\n      dup7\n        /* \"#utility.yul\":1697:1703   */\n      dup3\n        /* \"#utility.yul\":1686:1695   */\n      dup8\n        /* \"#utility.yul\":1682:1704   */\n      add\n        /* \"#utility.yul\":1661:1714   */\n      tag_125\n      jump\t// in\n    tag_144:\n        /* \"#utility.yul\":1651:1714   */\n      swap2\n      pop\n        /* \"#utility.yul\":1606:1724   */\n      pop\n        /* \"#utility.yul\":1112:1731   */\n      swap3\n      pop\n      swap3\n      pop\n      swap3\n      jump\t// out\n        /* \"#utility.yul\":1737:2211   */\n    tag_26:\n        /* \"#utility.yul\":1805:1811   */\n      0x00\n        /* \"#utility.yul\":1813:1819   */\n      dup1\n        /* \"#utility.yul\":1862:1864   */\n      0x40\n        /* \"#utility.yul\":1850:1859   */\n      dup4\n        /* \"#utility.yul\":1841:1848   */\n      dup6\n        /* \"#utility.yul\":1837:1860   */\n      sub\n        /* \"#utility.yul\":1833:1865   */\n      slt\n        /* \"#utility.yul\":1830:1949   */\n      iszero\n      tag_146\n      jumpi\n        /* \"#utility.yul\":1868:1947   */\n      tag_147\n      tag_132\n      jump\t// in\n    tag_147:\n        /* \"#utility.yul\":1830:1949   */\n    tag_146:\n        /* \"#utility.yul\":1988:1989   */\n      0x00\n        /* \"#utility.yul\":2013:2066   */\n      tag_148\n        /* \"#utility.yul\":2058:2065   */\n      dup6\n        /* \"#utility.yul\":2049:2055   */\n      dup3\n        /* \"#utility.yul\":2038:2047   */\n      dup7\n        /* \"#utility.yul\":2034:2056   */\n      add\n        /* \"#utility.yul\":2013:2066   */\n      tag_121\n      jump\t// in\n    tag_148:\n        /* \"#utility.yul\":2003:2066   */\n      swap3\n      pop\n        /* \"#utility.yul\":1959:2076   */\n      pop\n        /* \"#utility.yul\":2115:2117   */\n      0x20\n        /* \"#utility.yul\":2141:2194   */\n      tag_149\n        /* \"#utility.yul\":2186:2193   */\n      dup6\n        /* \"#utility.yul\":2177:2183   */\n      dup3\n        /* \"#utility.yul\":2166:2175   */\n      dup7\n        /* \"#utility.yul\":2162:2184   */\n      add\n        /* \"#utility.yul\":2141:2194   */\n      tag_125\n      jump\t// in\n    tag_149:\n        /* \"#utility.yul\":2131:2194   */\n      swap2\n      pop\n        /* \"#utility.yul\":2086:2204   */\n      pop\n        /* \"#utility.yul\":1737:2211   */\n      swap3\n      pop\n      swap3\n      swap1\n      pop\n      jump\t// out\n        /* \"#utility.yul\":2217:2326   */\n    tag_150:\n        /* \"#utility.yul\":2298:2319   */\n      tag_152\n        /* \"#utility.yul\":2313:2318   */\n      dup2\n        /* \"#utility.yul\":2298:2319   */\n      tag_153\n      jump\t// in\n    tag_152:\n        /* \"#utility.yul\":2293:2296   */\n      dup3\n        /* \"#utility.yul\":2286:2320   */\n      mstore\n        /* \"#utility.yul\":2217:2326   */\n      pop\n      pop\n      jump\t// out\n        /* \"#utility.yul\":2332:2696   */\n    tag_154:\n        /* \"#utility.yul\":2420:2423   */\n      0x00\n        /* \"#utility.yul\":2448:2487   */\n      tag_156\n        /* \"#utility.yul\":2481:2486   */\n      dup3\n        /* \"#utility.yul\":2448:2487   */\n      tag_157\n      jump\t// in\n    tag_156:\n        /* \"#utility.yul\":2503:2574   */\n      tag_158\n        /* \"#utility.yul\":2567:2573   */\n      dup2\n        /* \"#utility.yul\":2562:2565   */\n      dup6\n        /* \"#utility.yul\":2503:2574   */\n      tag_159\n      jump\t// in\n    tag_158:\n        /* \"#utility.yul\":2496:2574   */\n      swap4\n      pop\n        /* \"#utility.yul\":2583:2635   */\n      tag_160\n        /* \"#utility.yul\":2628:2634   */\n      dup2\n        /* \"#utility.yul\":2623:2626   */\n      dup6\n        /* \"#utility.yul\":2616:2620   */\n      0x20\n        /* \"#utility.yul\":2609:2614   */\n      dup7\n        /* \"#utility.yul\":2605:2621   */\n      add\n        /* \"#utility.yul\":2583:2635   */\n      tag_161\n      jump\t// in\n    tag_160:\n        /* \"#utility.yul\":2660:2689   */\n      tag_162\n        /* \"#utility.yul\":2682:2688   */\n      dup2\n        /* \"#utility.yul\":2660:2689   */\n      tag_163\n      jump\t// in\n    tag_162:\n        /* \"#utility.yul\":2655:2658   */\n      dup5\n        /* \"#utility.yul\":2651:2690   */\n      add\n        /* \"#utility.yul\":2644:2690   */\n      swap2\n      pop\n        /* \"#utility.yul\":2424:2696   */\n      pop\n        /* \"#utility.yul\":2332:2696   */\n      swap3\n      swap2\n      pop\n      pop\n      jump\t// out\n        /* \"#utility.yul\":2702:3068   */\n    tag_164:\n        /* \"#utility.yul\":2844:2847   */\n      0x00\n        /* \"#utility.yul\":2865:2932   */\n      tag_166\n        /* \"#utility.yul\":2929:2931   */\n      0x14\n        /* \"#utility.yul\":2924:2927   */\n      dup4\n        /* \"#utility.yul\":2865:2932   */\n      tag_159\n      jump\t// in\n    tag_166:\n        /* \"#utility.yul\":2858:2932   */\n      swap2\n      pop\n        /* \"#utility.yul\":2941:3034   */\n      tag_167\n        /* \"#utility.yul\":3030:3033   */\n      dup3\n        /* \"#utility.yul\":2941:3034   */\n      tag_168\n      jump\t// in\n    tag_167:\n        /* \"#utility.yul\":3059:3061   */\n      0x20\n        /* \"#utility.yul\":3054:3057   */\n      dup3\n        /* \"#utility.yul\":3050:3062   */\n      add\n        /* \"#utility.yul\":3043:3062   */\n      swap1\n      pop\n        /* \"#utility.yul\":2702:3068   */\n      swap2\n      swap1\n      pop\n      jump\t// out\n        /* \"#utility.yul\":3074:3440   */\n    tag_169:\n        /* \"#utility.yul\":3216:3219   */\n      0x00\n        /* \"#utility.yul\":3237:3304   */\n      tag_171\n        /* \"#utility.yul\":3301:3303   */\n      0x0e\n        /* \"#utility.yul\":3296:3299   */\n      dup4\n        /* \"#utility.yul\":3237:3304   */\n      tag_159\n      jump\t// in\n    tag_171:\n        /* \"#utility.yul\":3230:3304   */\n      swap2\n      pop\n        /* \"#utility.yul\":3313:3406   */\n      tag_172\n        /* \"#utility.yul\":3402:3405   */\n      dup3\n        /* \"#utility.yul\":3313:3406   */\n      tag_173\n      jump\t// in\n    tag_172:\n        /* \"#utility.yul\":3431:3433   */\n      0x20\n        /* \"#utility.yul\":3426:3429   */\n      dup3\n        /* \"#utility.yul\":3422:3434   */\n      add\n        /* \"#utility.yul\":3415:3434   */\n      swap1\n      pop\n        /* \"#utility.yul\":3074:3440   */\n      swap2\n      swap1\n      pop\n      jump\t// out\n        /* \"#utility.yul\":3446:3812   */\n    tag_174:\n        /* \"#utility.yul\":3588:3591   */\n      0x00\n        /* \"#utility.yul\":3609:3676   */\n      tag_176\n        /* \"#utility.yul\":3673:3675   */\n      0x16\n        /* \"#utility.yul\":3668:3671   */\n      dup4\n        /* \"#utility.yul\":3609:3676   */\n      tag_159\n      jump\t// in\n    tag_176:\n        /* \"#utility.yul\":3602:3676   */\n      swap2\n      pop\n        /* \"#utility.yul\":3685:3778   */\n      tag_177\n        /* \"#utility.yul\":3774:3777   */\n      dup3\n        /* \"#utility.yul\":3685:3778   */\n      tag_178\n      jump\t// in\n    tag_177:\n        /* \"#utility.yul\":3803:3805   */\n      0x20\n        /* \"#utility.yul\":3798:3801   */\n      dup3\n        /* \"#utility.yul\":3794:3806   */\n      add\n        /* \"#utility.yul\":3787:3806   */\n      swap1\n      pop\n        /* \"#utility.yul\":3446:3812   */\n      swap2\n      swap1\n      pop\n      jump\t// out\n        /* \"#utility.yul\":3818:3936   */\n    tag_179:\n        /* \"#utility.yul\":3905:3929   */\n      tag_181\n        /* \"#utility.yul\":3923:3928   */\n      dup2\n        /* \"#utility.yul\":3905:3929   */\n      tag_182\n      jump\t// in\n    tag_181:\n        /* \"#utility.yul\":3900:3903   */\n      dup3\n        /* \"#utility.yul\":3893:3930   */\n      mstore\n        /* \"#utility.yul\":3818:3936   */\n      pop\n      pop\n      jump\t// out\n        /* \"#utility.yul\":3942:4054   */\n    tag_183:\n        /* \"#utility.yul\":4025:4047   */\n      tag_185\n        /* \"#utility.yul\":4041:4046   */\n      dup2\n        /* \"#utility.yul\":4025:4047   */\n      tag_186\n      jump\t// in\n    tag_185:\n        /* \"#utility.yul\":4020:4023   */\n      dup3\n        /* \"#utility.yul\":4013:4048   */\n      mstore\n        /* \"#utility.yul\":3942:4054   */\n      pop\n      pop\n      jump\t// out\n        /* \"#utility.yul\":4060:4270   */\n    tag_29:\n        /* \"#utility.yul\":4147:4151   */\n      0x00\n        /* \"#utility.yul\":4185:4187   */\n      0x20\n        /* \"#utility.yul\":4174:4183   */\n      dup3\n        /* \"#utility.yul\":4170:4188   */\n      add\n        /* \"#utility.yul\":4162:4188   */\n      swap1\n      pop\n        /* \"#utility.yul\":4198:4263   */\n      tag_188\n        /* \"#utility.yul\":4260:4261   */\n      0x00\n        /* \"#utility.yul\":4249:4258   */\n      dup4\n        /* \"#utility.yul\":4245:4262   */\n      add\n        /* \"#utility.yul\":4236:4242   */\n      dup5\n        /* \"#utility.yul\":4198:4263   */\n      tag_150\n      jump\t// in\n    tag_188:\n        /* \"#utility.yul\":4060:4270   */\n      swap3\n      swap2\n      pop\n      pop\n      jump\t// out\n        /* \"#utility.yul\":4276:4589   */\n    tag_23:\n        /* \"#utility.yul\":4389:4393   */\n      0x00\n        /* \"#utility.yul\":4427:4429   */\n      0x20\n        /* \"#utility.yul\":4416:4425   */\n      dup3\n        /* \"#utility.yul\":4412:4430   */\n      add\n        /* \"#utility.yul\":4404:4430   */\n      swap1\n      pop\n        /* \"#utility.yul\":4476:4485   */\n      dup2\n        /* \"#utility.yul\":4470:4474   */\n      dup2\n        /* \"#utility.yul\":4466:4486   */\n      sub\n        /* \"#utility.yul\":4462:4463   */\n      0x00\n        /* \"#utility.yul\":4451:4460   */\n      dup4\n        /* \"#utility.yul\":4447:4464   */\n      add\n        /* \"#utility.yul\":4440:4487   */\n      mstore\n        /* \"#utility.yul\":4504:4582   */\n      tag_190\n        /* \"#utility.yul\":4577:4581   */\n      dup2\n        /* \"#utility.yul\":4568:4574   */\n      dup5\n        /* \"#utility.yul\":4504:4582   */\n      tag_154\n      jump\t// in\n    tag_190:\n        /* \"#utility.yul\":4496:4582   */\n      swap1\n      pop\n        /* \"#utility.yul\":4276:4589   */\n      swap3\n      swap2\n      pop\n      pop\n      jump\t// out\n        /* \"#utility.yul\":4595:5014   */\n    tag_82:\n        /* \"#utility.yul\":4761:4765   */\n      0x00\n        /* \"#utility.yul\":4799:4801   */\n      0x20\n        /* \"#utility.yul\":4788:4797   */\n      dup3\n        /* \"#utility.yul\":4784:4802   */\n      add\n        /* \"#utility.yul\":4776:4802   */\n      swap1\n      pop\n        /* \"#utility.yul\":4848:4857   */\n      dup2\n        /* \"#utility.yul\":4842:4846   */\n      dup2\n        /* \"#utility.yul\":4838:4858   */\n      sub\n        /* \"#utility.yul\":4834:4835   */\n      0x00\n        /* \"#utility.yul\":4823:4832   */\n      dup4\n        /* \"#utility.yul\":4819:4836   */\n      add\n        /* \"#utility.yul\":4812:4859   */\n      mstore\n        /* \"#utility.yul\":4876:5007   */\n      tag_192\n        /* \"#utility.yul\":5002:5006   */\n      dup2\n        /* \"#utility.yul\":4876:5007   */\n      tag_164\n      jump\t// in\n    tag_192:\n        /* \"#utility.yul\":4868:5007   */\n      swap1\n      pop\n        /* \"#utility.yul\":4595:5014   */\n      swap2\n      swap1\n      pop\n      jump\t// out\n        /* \"#utility.yul\":5020:5439   */\n    tag_96:\n        /* \"#utility.yul\":5186:5190   */\n      0x00\n        /* \"#utility.yul\":5224:5226   */\n      0x20\n        /* \"#utility.yul\":5213:5222   */\n      dup3\n        /* \"#utility.yul\":5209:5227   */\n      add\n        /* \"#utility.yul\":5201:5227   */\n      swap1\n      pop\n        /* \"#utility.yul\":5273:5282   */\n      dup2\n        /* \"#utility.yul\":5267:5271   */\n      dup2\n        /* \"#utility.yul\":5263:5283   */\n      sub\n        /* \"#utility.yul\":5259:5260   */\n      0x00\n        /* \"#utility.yul\":5248:5257   */\n      dup4\n        /* \"#utility.yul\":5244:5261   */\n      add\n        /* \"#utility.yul\":5237:5284   */\n      mstore\n        /* \"#utility.yul\":5301:5432   */\n      tag_194\n        /* \"#utility.yul\":5427:5431   */\n      dup2\n        /* \"#utility.yul\":5301:5432   */\n      tag_169\n      jump\t// in\n    tag_194:\n        /* \"#utility.yul\":5293:5432   */\n      swap1\n      pop\n        /* \"#utility.yul\":5020:5439   */\n      swap2\n      swap1\n      pop\n      jump\t// out\n        /* \"#utility.yul\":5445:5864   */\n    tag_86:\n        /* \"#utility.yul\":5611:5615   */\n      0x00\n        /* \"#utility.yul\":5649:5651   */\n      0x20\n        /* \"#utility.yul\":5638:5647   */\n      dup3\n        /* \"#utility.yul\":5634:5652   */\n      add\n        /* \"#utility.yul\":5626:5652   */\n      swap1\n      pop\n        /* \"#utility.yul\":5698:5707   */\n      dup2\n        /* \"#utility.yul\":5692:5696   */\n      dup2\n        /* \"#utility.yul\":5688:5708   */\n      sub\n        /* \"#utility.yul\":5684:5685   */\n      0x00\n        /* \"#utility.yul\":5673:5682   */\n      dup4\n        /* \"#utility.yul\":5669:5686   */\n      add\n        /* \"#utility.yul\":5662:5709   */\n      mstore\n        /* \"#utility.yul\":5726:5857   */\n      tag_196\n        /* \"#utility.yul\":5852:5856   */\n      dup2\n        /* \"#utility.yul\":5726:5857   */\n      tag_174\n      jump\t// in\n    tag_196:\n        /* \"#utility.yul\":5718:5857   */\n      swap1\n      pop\n        /* \"#utility.yul\":5445:5864   */\n      swap2\n      swap1\n      pop\n      jump\t// out\n        /* \"#utility.yul\":5870:6092   */\n    tag_33:\n        /* \"#utility.yul\":5963:5967   */\n      0x00\n        /* \"#utility.yul\":6001:6003   */\n      0x20\n        /* \"#utility.yul\":5990:5999   */\n      dup3\n        /* \"#utility.yul\":5986:6004   */\n      add\n        /* \"#utility.yul\":5978:6004   */\n      swap1\n      pop\n        /* \"#utility.yul\":6014:6085   */\n      tag_198\n        /* \"#utility.yul\":6082:6083   */\n      0x00\n        /* \"#utility.yul\":6071:6080   */\n      dup4\n        /* \"#utility.yul\":6067:6084   */\n      add\n        /* \"#utility.yul\":6058:6064   */\n      dup5\n        /* \"#utility.yul\":6014:6085   */\n      tag_179\n      jump\t// in\n    tag_198:\n        /* \"#utility.yul\":5870:6092   */\n      swap3\n      swap2\n      pop\n      pop\n      jump\t// out\n        /* \"#utility.yul\":6098:6312   */\n    tag_42:\n        /* \"#utility.yul\":6187:6191   */\n      0x00\n        /* \"#utility.yul\":6225:6227   */\n      0x20\n        /* \"#utility.yul\":6214:6223   */\n      dup3\n        /* \"#utility.yul\":6210:6228   */\n      add\n        /* \"#utility.yul\":6202:6228   */\n      swap1\n      pop\n        /* \"#utility.yul\":6238:6305   */\n      tag_200\n        /* \"#utility.yul\":6302:6303   */\n      0x00\n        /* \"#utility.yul\":6291:6300   */\n      dup4\n        /* \"#utility.yul\":6287:6304   */\n      add\n        /* \"#utility.yul\":6278:6284   */\n      dup5\n        /* \"#utility.yul\":6238:6305   */\n      tag_183\n      jump\t// in\n    tag_200:\n        /* \"#utility.yul\":6098:6312   */\n      swap3\n      swap2\n      pop\n      pop\n      jump\t// out\n        /* \"#utility.yul\":6399:6498   */\n    tag_157:\n        /* \"#utility.yul\":6451:6457   */\n      0x00\n        /* \"#utility.yul\":6485:6490   */\n      dup2\n        /* \"#utility.yul\":6479:6491   */\n      mload\n        /* \"#utility.yul\":6469:6491   */\n      swap1\n      pop\n        /* \"#utility.yul\":6399:6498   */\n      swap2\n      swap1\n      pop\n      jump\t// out\n        /* \"#utility.yul\":6504:6673   */\n    tag_159:\n        /* \"#utility.yul\":6588:6599   */\n      0x00\n        /* \"#utility.yul\":6622:6628   */\n      dup3\n        /* \"#utility.yul\":6617:6620   */\n      dup3\n        /* \"#utility.yul\":6610:6629   */\n      mstore\n        /* \"#utility.yul\":6662:6666   */\n      0x20\n        /* \"#utility.yul\":6657:6660   */\n      dup3\n        /* \"#utility.yul\":6653:6667   */\n      add\n        /* \"#utility.yul\":6638:6667   */\n      swap1\n      pop\n        /* \"#utility.yul\":6504:6673   */\n      swap3\n      swap2\n      pop\n      pop\n      jump\t// out\n        /* \"#utility.yul\":6679:6984   */\n    tag_118:\n        /* \"#utility.yul\":6719:6722   */\n      0x00\n        /* \"#utility.yul\":6738:6758   */\n      tag_206\n        /* \"#utility.yul\":6756:6757   */\n      dup3\n        /* \"#utility.yul\":6738:6758   */\n      tag_182\n      jump\t// in\n    tag_206:\n        /* \"#utility.yul\":6733:6758   */\n      swap2\n      pop\n        /* \"#utility.yul\":6772:6792   */\n      tag_207\n        /* \"#utility.yul\":6790:6791   */\n      dup4\n        /* \"#utility.yul\":6772:6792   */\n      tag_182\n      jump\t// in\n    tag_207:\n        /* \"#utility.yul\":6767:6792   */\n      swap3\n      pop\n        /* \"#utility.yul\":6926:6927   */\n      dup3\n        /* \"#utility.yul\":6858:6924   */\n      0xffffffffffffffffffffffffffffffffffffffffffffffffffffffffffffffff\n        /* \"#utility.yul\":6854:6928   */\n      sub\n        /* \"#utility.yul\":6851:6852   */\n      dup3\n        /* \"#utility.yul\":6848:6929   */\n      gt\n        /* \"#utility.yul\":6845:6952   */\n      iszero\n      tag_208\n      jumpi\n        /* \"#utility.yul\":6932:6950   */\n      tag_209\n      tag_210\n      jump\t// in\n    tag_209:\n        /* \"#utility.yul\":6845:6952   */\n    tag_208:\n        /* \"#utility.yul\":6976:6977   */\n      dup3\n        /* \"#utility.yul\":6973:6974   */\n      dup3\n        /* \"#utility.yul\":6969:6978   */\n      add\n        /* \"#utility.yul\":6962:6978   */\n      swap1\n      pop\n        /* \"#utility.yul\":6679:6984   */\n      swap3\n      swap2\n      pop\n      pop\n      jump\t// out\n        /* \"#utility.yul\":6990:7181   */\n    tag_114:\n        /* \"#utility.yul\":7030:7034   */\n      0x00\n        /* \"#utility.yul\":7050:7070   */\n      tag_212\n        /* \"#utility.yul\":7068:7069   */\n      dup3\n        /* \"#utility.yul\":7050:7070   */\n      tag_182\n      jump\t// in\n    tag_212:\n        /* \"#utility.yul\":7045:7070   */\n      swap2\n      pop\n        /* \"#utility.yul\":7084:7104   */\n      tag_213\n        /* \"#utility.yul\":7102:7103   */\n      dup4\n        /* \"#utility.yul\":7084:7104   */\n      tag_182\n      jump\t// in\n    tag_213:\n        /* \"#utility.yul\":7079:7104   */\n      swap3\n      pop\n        /* \"#utility.yul\":7123:7124   */\n      dup3\n        /* \"#utility.yul\":7120:7121   */\n      dup3\n        /* \"#utility.yul\":7117:7125   */\n      lt\n        /* \"#utility.yul\":7114:7148   */\n      iszero\n      tag_214\n      jumpi\n        /* \"#utility.yul\":7128:7146   */\n      tag_215\n      tag_210\n      jump\t// in\n    tag_215:\n        /* \"#utility.yul\":7114:7148   */\n    tag_214:\n        /* \"#utility.yul\":7173:7174   */\n      dup3\n        /* \"#utility.yul\":7170:7171   */\n      dup3\n        /* \"#utility.yul\":7166:7175   */\n      sub\n        /* \"#utility.yul\":7158:7175   */\n      swap1\n      pop\n        /* \"#utility.yul\":6990:7181   */\n      swap3\n      swap2\n      pop\n      pop\n      jump\t// out\n        /* \"#utility.yul\":7187:7283   */\n    tag_216:\n        /* \"#utility.yul\":7224:7231   */\n      0x00\n        /* \"#utility.yul\":7253:7277   */\n      tag_218\n        /* \"#utility.yul\":7271:7276   */\n      dup3\n        /* \"#utility.yul\":7253:7277   */\n      tag_219\n      jump\t// in\n    tag_218:\n        /* \"#utility.yul\":7242:7277   */\n      swap1\n      pop\n        /* \"#utility.yul\":7187:7283   */\n      swap2\n      swap1\n      pop\n      jump\t// out\n        /* \"#utility.yul\":7289:7379   */\n    tag_153:\n        /* \"#utility.yul\":7323:7330   */\n      0x00\n        /* \"#utility.yul\":7366:7371   */\n      dup2\n        /* \"#utility.yul\":7359:7372   */\n      iszero\n        /* \"#utility.yul\":7352:7373   */\n      iszero\n        /* \"#utility.yul\":7341:7373   */\n      swap1\n      pop\n        /* \"#utility.yul\":7289:7379   */\n      swap2\n      swap1\n      pop\n      jump\t// out\n        /* \"#utility.yul\":7385:7511   */\n    tag_219:\n        /* \"#utility.yul\":7422:7429   */\n      0x00\n        /* \"#utility.yul\":7462:7504   */\n      0xffffffffffffffffffffffffffffffffffffffff\n        /* \"#utility.yul\":7455:7460   */\n      dup3\n        /* \"#utility.yul\":7451:7505   */\n      and\n        /* \"#utility.yul\":7440:7505   */\n      swap1\n      pop\n        /* \"#utility.yul\":7385:7511   */\n      swap2\n      swap1\n      pop\n      jump\t// out\n        /* \"#utility.yul\":7517:7594   */\n    tag_182:\n        /* \"#utility.yul\":7554:7561   */\n      0x00\n        /* \"#utility.yul\":7583:7588   */\n      dup2\n        /* \"#utility.yul\":7572:7588   */\n      swap1\n      pop\n        /* \"#utility.yul\":7517:7594   */\n      swap2\n      swap1\n      pop\n      jump\t// out\n        /* \"#utility.yul\":7600:7686   */\n    tag_186:\n        /* \"#utility.yul\":7635:7642   */\n      0x00\n        /* \"#utility.yul\":7675:7679   */\n      0xff\n        /* \"#utility.yul\":7668:7673   */\n      dup3\n        /* \"#utility.yul\":7664:7680   */\n      and\n        /* \"#utility.yul\":7653:7680   */\n      swap1\n      pop\n        /* \"#utility.yul\":7600:7686   */\n      swap2\n      swap1\n      pop\n      jump\t// out\n        /* \"#utility.yul\":7692:7999   */\n    tag_161:\n        /* \"#utility.yul\":7760:7761   */\n      0x00\n        /* \"#utility.yul\":7770:7883   */\n    tag_225:\n        /* \"#utility.yul\":7784:7790   */\n      dup4\n        /* \"#utility.yul\":7781:7782   */\n      dup2\n        /* \"#utility.yul\":7778:7791   */\n      lt\n        /* \"#utility.yul\":7770:7883   */\n      iszero\n      tag_227\n      jumpi\n        /* \"#utility.yul\":7869:7870   */\n      dup1\n        /* \"#utility.yul\":7864:7867   */\n      dup3\n        /* \"#utility.yul\":7860:7871   */\n      add\n        /* \"#utility.yul\":7854:7872   */\n      mload\n        /* \"#utility.yul\":7850:7851   */\n      dup2\n        /* \"#utility.yul\":7845:7848   */\n      dup5\n        /* \"#utility.yul\":7841:7852   */\n      add\n        /* \"#utility.yul\":7834:7873   */\n      mstore\n        /* \"#utility.yul\":7806:7808   */\n      0x20\n        /* \"#utility.yul\":7803:7804   */\n      dup2\n        /* \"#utility.yul\":7799:7809   */\n      add\n        /* \"#utility.yul\":7794:7809   */\n      swap1\n      pop\n        /* \"#utility.yul\":7770:7883   */\n      jump(tag_225)\n    tag_227:\n        /* \"#utility.yul\":7901:7907   */\n      dup4\n        /* \"#utility.yul\":7898:7899   */\n      dup2\n        /* \"#utility.yul\":7895:7908   */\n      gt\n        /* \"#utility.yul\":7892:7993   */\n      iszero\n      tag_228\n      jumpi\n        /* \"#utility.yul\":7981:7982   */\n      0x00\n        /* \"#utility.yul\":7972:7978   */\n      dup5\n        /* \"#utility.yul\":7967:7970   */\n      dup5\n        /* \"#utility.yul\":7963:7979   */\n      add\n        /* \"#utility.yul\":7956:7983   */\n      mstore\n        /* \"#utility.yul\":7892:7993   */\n    tag_228:\n        /* \"#utility.yul\":7741:7999   */\n      pop\n        /* \"#utility.yul\":7692:7999   */\n      pop\n      pop\n      pop\n      jump\t// out\n        /* \"#utility.yul\":8005:8185   */\n    tag_210:\n        /* \"#utility.yul\":8053:8130   */\n      0x4e487b7100000000000000000000000000000000000000000000000000000000\n        /* \"#utility.yul\":8050:8051   */\n      0x00\n        /* \"#utility.yul\":8043:8131   */\n      mstore\n        /* \"#utility.yul\":8150:8154   */\n      0x11\n        /* \"#utility.yul\":8147:8148   */\n      0x04\n        /* \"#utility.yul\":8140:8155   */\n      mstore\n        /* \"#utility.yul\":8174:8178   */\n      0x24\n        /* \"#utility.yul\":8171:8172   */\n      0x00\n        /* \"#utility.yul\":8164:8179   */\n      revert\n        /* \"#utility.yul\":8314:8431   */\n    tag_132:\n        /* \"#utility.yul\":8423:8424   */\n      0x00\n        /* \"#utility.yul\":8420:8421   */\n      dup1\n        /* \"#utility.yul\":8413:8425   */\n      revert\n        /* \"#utility.yul\":8437:8539   */\n    tag_163:\n        /* \"#utility.yul\":8478:8484   */\n      0x00\n        /* \"#utility.yul\":8529:8531   */\n      0x1f\n        /* \"#utility.yul\":8525:8532   */\n      not\n        /* \"#utility.yul\":8520:8522   */\n      0x1f\n        /* \"#utility.yul\":8513:8518   */\n      dup4\n        /* \"#utility.yul\":8509:8523   */\n      add\n        /* \"#utility.yul\":8505:8533   */\n      and\n        /* \"#utility.yul\":8495:8533   */\n      swap1\n      pop\n        /* \"#utility.yul\":8437:8539   */\n      swap2\n      swap1\n      pop\n      jump\t// out\n        /* \"#utility.yul\":8545:8715   */\n    tag_168:\n        /* \"#utility.yul\":8685:8707   */\n      0x696e73756666696369656e742d62616c616e6365000000000000000000000000\n        /* \"#utility.yul\":8681:8682   */\n      0x00\n        /* \"#utility.yul\":8673:8679   */\n      dup3\n        /* \"#utility.yul\":8669:8683   */\n      add\n        /* \"#utility.yul\":8662:8708   */\n      mstore\n        /* \"#utility.yul\":8545:8715   */\n      pop\n      jump\t// out\n        /* \"#utility.yul\":8721:8885   */\n    tag_173:\n        /* \"#utility.yul\":8861:8877   */\n      0x4e6f742d617574686f72697a6564000000000000000000000000000000000000\n        /* \"#utility.yul\":8857:8858   */\n      0x00\n        /* \"#utility.yul\":8849:8855   */\n      dup3\n        /* \"#utility.yul\":8845:8859   */\n      add\n        /* \"#utility.yul\":8838:8878   */\n      mstore\n        /* \"#utility.yul\":8721:8885   */\n      pop\n      jump\t// out\n        /* \"#utility.yul\":8891:9063   */\n    tag_178:\n        /* \"#utility.yul\":9031:9055   */\n      0x696e73756666696369656e742d616c6c6f77616e636500000000000000000000\n        /* \"#utility.yul\":9027:9028   */\n      0x00\n        /* \"#utility.yul\":9019:9025   */\n      dup3\n        /* \"#utility.yul\":9015:9029   */\n      add\n        /* \"#utility.yul\":9008:9056   */\n      mstore\n        /* \"#utility.yul\":8891:9063   */\n      pop\n      jump\t// out\n        /* \"#utility.yul\":9069:9191   */\n    tag_124:\n        /* \"#utility.yul\":9142:9166   */\n      tag_238\n        /* \"#utility.yul\":9160:9165   */\n      dup2\n        /* \"#utility.yul\":9142:9166   */\n      tag_216\n      jump\t// in\n    tag_238:\n        /* \"#utility.yul\":9135:9140   */\n      dup2\n        /* \"#utility.yul\":9132:9167   */\n      eq\n        /* \"#utility.yul\":9122:9185   */\n      tag_239\n      jumpi\n        /* \"#utility.yul\":9181:9182   */\n      0x00\n        /* \"#utility.yul\":9178:9179   */\n      dup1\n        /* \"#utility.yul\":9171:9183   */\n      revert\n        /* \"#utility.yul\":9122:9185   */\n    tag_239:\n        /* \"#utility.yul\":9069:9191   */\n      pop\n      jump\t// out\n        /* \"#utility.yul\":9197:9319   */\n    tag_128:\n        /* \"#utility.yul\":9270:9294   */\n      tag_241\n        /* \"#utility.yul\":9288:9293   */\n      dup2\n        /* \"#utility.yul\":9270:9294   */\n      tag_182\n      jump\t// in\n    tag_241:\n        /* \"#utility.yul\":9263:9268   */\n      dup2\n        /* \"#utility.yul\":9260:9295   */\n      eq\n        /* \"#utility.yul\":9250:9313   */\n      tag_242\n      jumpi\n        /* \"#utility.yul\":9309:9310   */\n      0x00\n        /* \"#utility.yul\":9306:9307   */\n      dup1\n        /* \"#utility.yul\":9299:9311   */\n      revert\n        /* \"#utility.yul\":9250:9313   */\n    tag_242:\n        /* \"#utility.yul\":9197:9319   */\n      pop\n      jump\t// out\n\n    auxdata: 0xa264697066735822122072f2a52ddf5c40da7824ca697982c23c6085889b536237b7c57f26c313a649b364736f6c63430008070033\n}\n",
				"bytecode": {
					"linkReferences": {},
					"object": "608060405234801561001057600080fd5b5060016000803373ffffffffffffffffffffffffffffffffffffffff1673ffffffffffffffffffffffffffffffffffffffff1681526020019081526020016000208190555060006001819055506112348061006c6000396000f3fe608060405234801561001057600080fd5b50600436106100ea5760003560e01c806370a082311161008c5780639dc29fac116100665780639dc29fac14610261578063a9059cbb1461027d578063bf353dbb146102ad578063dd62ed3e146102dd576100ea565b806370a08231146101e35780637ecebe001461021357806395d89b4114610243576100ea565b806323b872dd116100c857806323b872dd1461015b578063313ce5671461018b57806340c10f19146101a957806354fd4d50146101c5576100ea565b806306fdde03146100ef578063095ea7b31461010d57806318160ddd1461013d575b600080fd5b6100f761030d565b6040516101049190610f2a565b60405180910390f35b61012760048036038101906101229190610e00565b610346565b6040516101349190610f0f565b60405180910390f35b610145610438565b6040516101529190610fac565b60405180910390f35b61017560048036038101906101709190610dad565b61043e565b6040516101829190610f0f565b60405180910390f35b610193610843565b6040516101a09190610fc7565b60405180910390f35b6101c360048036038101906101be9190610e00565b610848565b005b6101cd6109d1565b6040516101da9190610f2a565b60405180910390f35b6101fd60048036038101906101f89190610d40565b610a0a565b60405161020a9190610fac565b60405180910390f35b61022d60048036038101906102289190610d40565b610a22565b60405161023a9190610fac565b60405180910390f35b61024b610a3a565b6040516102589190610f2a565b60405180910390f35b61027b60048036038101906102769190610e00565b610a73565b005b61029760048036038101906102929190610e00565b610c7e565b6040516102a49190610f0f565b60405180910390f35b6102c760048036038101906102c29190610d40565b610c93565b6040516102d49190610fac565b60405180910390f35b6102f760048036038101906102f29190610d6d565b610cab565b6040516103049190610fac565b60405180910390f35b6040518060400160405280600881526020017f446f7461436f696e00000000000000000000000000000000000000000000000081525081565b600081600360003373ffffffffffffffffffffffffffffffffffffffff1673ffffffffffffffffffffffffffffffffffffffff16815260200190815260200160002060008573ffffffffffffffffffffffffffffffffffffffff1673ffffffffffffffffffffffffffffffffffffffff168152602001908152602001600020819055508273ffffffffffffffffffffffffffffffffffffffff163373ffffffffffffffffffffffffffffffffffffffff167f8c5be1e5ebec7d5bd14f71427d1e84f3dd0314c0f7b2291e5b200ac8c7c3b925846040516104269190610fac565b60405180910390a36001905092915050565b60015481565b6000600260008573ffffffffffffffffffffffffffffffffffffffff1673ffffffffffffffffffffffffffffffffffffffff168152602001908152602001600020548211156104c2576040517f08c379a00000000000000000000000000000000000000000000000000000000081526004016104b990610f4c565b60405180910390fd5b3373ffffffffffffffffffffffffffffffffffffffff168473ffffffffffffffffffffffffffffffffffffffff16146106bb57600360008573ffffffffffffffffffffffffffffffffffffffff1673ffffffffffffffffffffffffffffffffffffffff16815260200190815260200160002060003373ffffffffffffffffffffffffffffffffffffffff1673ffffffffffffffffffffffffffffffffffffffff168152602001908152602001600020548211156105b4576040517f08c379a00000000000000000000000000000000000000000000000000000000081526004016105ab90610f8c565b60405180910390fd5b61063a600360008673ffffffffffffffffffffffffffffffffffffffff1673ffffffffffffffffffffffffffffffffffffffff16815260200190815260200160002060003373ffffffffffffffffffffffffffffffffffffffff1673ffffffffffffffffffffffffffffffffffffffff1681526020019081526020016000205483610cd0565b600360008673ffffffffffffffffffffffffffffffffffffffff1673ffffffffffffffffffffffffffffffffffffffff16815260200190815260200160002060003373ffffffffffffffffffffffffffffffffffffffff1673ffffffffffffffffffffffffffffffffffffffff168152602001908152602001600020819055505b610704600260008673ffffffffffffffffffffffffffffffffffffffff1673ffffffffffffffffffffffffffffffffffffffff1681526020019081526020016000205483610cd0565b600260008673ffffffffffffffffffffffffffffffffffffffff1673ffffffffffffffffffffffffffffffffffffffff16815260200190815260200160002081905550610790600260008573ffffffffffffffffffffffffffffffffffffffff1673ffffffffffffffffffffffffffffffffffffffff1681526020019081526020016000205483610cf3565b600260008573ffffffffffffffffffffffffffffffffffffffff1673ffffffffffffffffffffffffffffffffffffffff168152602001908152602001600020819055508273ffffffffffffffffffffffffffffffffffffffff168473ffffffffffffffffffffffffffffffffffffffff167fddf252ad1be2c89b69c2b068fc378daa952ba7f163c4a11628f55a4df523b3ef846040516108309190610fac565b60405180910390a3600190509392505050565b600081565b60016000803373ffffffffffffffffffffffffffffffffffffffff1673ffffffffffffffffffffffffffffffffffffffff16815260200190815260200160002054146108c9576040517f08c379a00000000000000000000000000000000000000000000000000000000081526004016108c090610f6c565b60405180910390fd5b610912600260008473ffffffffffffffffffffffffffffffffffffffff1673ffffffffffffffffffffffffffffffffffffffff1681526020019081526020016000205482610cf3565b600260008473ffffffffffffffffffffffffffffffffffffffff1673ffffffffffffffffffffffffffffffffffffffff1681526020019081526020016000208190555061096160015482610cf3565b6001819055508173ffffffffffffffffffffffffffffffffffffffff16600073ffffffffffffffffffffffffffffffffffffffff167fddf252ad1be2c89b69c2b068fc378daa952ba7f163c4a11628f55a4df523b3ef836040516109c59190610fac565b60405180910390a35050565b6040518060400160405280600181526020017f310000000000000000000000000000000000000000000000000000000000000081525081565b60026020528060005260406000206000915090505481565b60046020528060005260406000206000915090505481565b6040518060400160405280600281526020017f444300000000000000000000000000000000000000000000000000000000000081525081565b60016000803373ffffffffffffffffffffffffffffffffffffffff1673ffffffffffffffffffffffffffffffffffffffff1681526020019081526020016000205414610af4576040517f08c379a0000000000000000000000000000000000000000000000000000000008152600401610aeb90610f6c565b60405180910390fd5b80600260008473ffffffffffffffffffffffffffffffffffffffff1673ffffffffffffffffffffffffffffffffffffffff168152602001908152602001600020541015610b76576040517f08c379a0000000000000000000000000000000000000000000000000000000008152600401610b6d90610f4c565b60405180910390fd5b610bbf600260008473ffffffffffffffffffffffffffffffffffffffff1673ffffffffffffffffffffffffffffffffffffffff1681526020019081526020016000205482610cd0565b600260008473ffffffffffffffffffffffffffffffffffffffff1673ffffffffffffffffffffffffffffffffffffffff16815260200190815260200160002081905550610c0e60015482610cd0565b600181905550600073ffffffffffffffffffffffffffffffffffffffff168273ffffffffffffffffffffffffffffffffffffffff167fddf252ad1be2c89b69c2b068fc378daa952ba7f163c4a11628f55a4df523b3ef83604051610c729190610fac565b60405180910390a35050565b6000610c8b33848461043e565b905092915050565b60006020528060005260406000206000915090505481565b6003602052816000526040600020602052806000526040600020600091509150505481565b6000828284610cdf9190611054565b9150811115610ced57600080fd5b92915050565b6000828284610d029190610ffe565b9150811015610d1057600080fd5b92915050565b600081359050610d25816111d0565b92915050565b600081359050610d3a816111e7565b92915050565b600060208284031215610d5657610d5561113f565b5b6000610d6484828501610d16565b91505092915050565b60008060408385031215610d8457610d8361113f565b5b6000610d9285828601610d16565b9250506020610da385828601610d16565b9150509250929050565b600080600060608486031215610dc657610dc561113f565b5b6000610dd486828701610d16565b9350506020610de586828701610d16565b9250506040610df686828701610d2b565b9150509250925092565b60008060408385031215610e1757610e1661113f565b5b6000610e2585828601610d16565b9250506020610e3685828601610d2b565b9150509250929050565b610e498161109a565b82525050565b6000610e5a82610fe2565b610e648185610fed565b9350610e748185602086016110dd565b610e7d81611144565b840191505092915050565b6000610e95601483610fed565b9150610ea082611155565b602082019050919050565b6000610eb8600e83610fed565b9150610ec38261117e565b602082019050919050565b6000610edb601683610fed565b9150610ee6826111a7565b602082019050919050565b610efa816110c6565b82525050565b610f09816110d0565b82525050565b6000602082019050610f246000830184610e40565b92915050565b60006020820190508181036000830152610f448184610e4f565b905092915050565b60006020820190508181036000830152610f6581610e88565b9050919050565b60006020820190508181036000830152610f8581610eab565b9050919050565b60006020820190508181036000830152610fa581610ece565b9050919050565b6000602082019050610fc16000830184610ef1565b92915050565b6000602082019050610fdc6000830184610f00565b92915050565b600081519050919050565b600082825260208201905092915050565b6000611009826110c6565b9150611014836110c6565b9250827fffffffffffffffffffffffffffffffffffffffffffffffffffffffffffffffff0382111561104957611048611110565b5b828201905092915050565b600061105f826110c6565b915061106a836110c6565b92508282101561107d5761107c611110565b5b828203905092915050565b6000611093826110a6565b9050919050565b60008115159050919050565b600073ffffffffffffffffffffffffffffffffffffffff82169050919050565b6000819050919050565b600060ff82169050919050565b60005b838110156110fb5780820151818401526020810190506110e0565b8381111561110a576000848401525b50505050565b7f4e487b7100000000000000000000000000000000000000000000000000000000600052601160045260246000fd5b600080fd5b6000601f19601f8301169050919050565b7f696e73756666696369656e742d62616c616e6365000000000000000000000000600082015250565b7f4e6f742d617574686f72697a6564000000000000000000000000000000000000600082015250565b7f696e73756666696369656e742d616c6c6f77616e636500000000000000000000600082015250565b6111d981611088565b81146111e457600080fd5b50565b6111f0816110c6565b81146111fb57600080fd5b5056fea264697066735822122072f2a52ddf5c40da7824ca697982c23c6085889b536237b7c57f26c313a649b364736f6c63430008070033",
					"opcodes": "PUSH1 0x80 PUSH1 0x40 MSTORE CALLVALUE DUP1 ISZERO PUSH2 0x10 JUMPI PUSH1 0x0 DUP1 REVERT JUMPDEST POP PUSH1 0x1 PUSH1 0x0 DUP1 CALLER PUSH20 0xFFFFFFFFFFFFFFFFFFFFFFFFFFFFFFFFFFFFFFFF AND PUSH20 0xFFFFFFFFFFFFFFFFFFFFFFFFFFFFFFFFFFFFFFFF AND DUP2 MSTORE PUSH1 0x20 ADD SWAP1 DUP2 MSTORE PUSH1 0x20 ADD PUSH1 0x0 KECCAK256 DUP2 SWAP1 SSTORE POP PUSH1 0x0 PUSH1 0x1 DUP2 SWAP1 SSTORE POP PUSH2 0x1234 DUP1 PUSH2 0x6C PUSH1 0x0 CODECOPY PUSH1 0x0 RETURN INVALID PUSH1 0x80 PUSH1 0x40 MSTORE CALLVALUE DUP1 ISZERO PUSH2 0x10 JUMPI PUSH1 0x0 DUP1 REVERT JUMPDEST POP PUSH1 0x4 CALLDATASIZE LT PUSH2 0xEA JUMPI PUSH1 0x0 CALLDATALOAD PUSH1 0xE0 SHR DUP1 PUSH4 0x70A08231 GT PUSH2 0x8C JUMPI DUP1 PUSH4 0x9DC29FAC GT PUSH2 0x66 JUMPI DUP1 PUSH4 0x9DC29FAC EQ PUSH2 0x261 JUMPI DUP1 PUSH4 0xA9059CBB EQ PUSH2 0x27D JUMPI DUP1 PUSH4 0xBF353DBB EQ PUSH2 0x2AD JUMPI DUP1 PUSH4 0xDD62ED3E EQ PUSH2 0x2DD JUMPI PUSH2 0xEA JUMP JUMPDEST DUP1 PUSH4 0x70A08231 EQ PUSH2 0x1E3 JUMPI DUP1 PUSH4 0x7ECEBE00 EQ PUSH2 0x213 JUMPI DUP1 PUSH4 0x95D89B41 EQ PUSH2 0x243 JUMPI PUSH2 0xEA JUMP JUMPDEST DUP1 PUSH4 0x23B872DD GT PUSH2 0xC8 JUMPI DUP1 PUSH4 0x23B872DD EQ PUSH2 0x15B JUMPI DUP1 PUSH4 0x313CE567 EQ PUSH2 0x18B JUMPI DUP1 PUSH4 0x40C10F19 EQ PUSH2 0x1A9 JUMPI DUP1 PUSH4 0x54FD4D50 EQ PUSH2 0x1C5 JUMPI PUSH2 0xEA JUMP JUMPDEST DUP1 PUSH4 0x6FDDE03 EQ PUSH2 0xEF JUMPI DUP1 PUSH4 0x95EA7B3 EQ PUSH2 0x10D JUMPI DUP1 PUSH4 0x18160DDD EQ PUSH2 0x13D JUMPI JUMPDEST PUSH1 0x0 DUP1 REVERT JUMPDEST PUSH2 0xF7 PUSH2 0x30D JUMP JUMPDEST PUSH1 0x40 MLOAD PUSH2 0x104 SWAP2 SWAP1 PUSH2 0xF2A JUMP JUMPDEST PUSH1 0x40 MLOAD DUP1 SWAP2 SUB SWAP1 RETURN JUMPDEST PUSH2 0x127 PUSH1 0x4 DUP1 CALLDATASIZE SUB DUP2 ADD SWAP1 PUSH2 0x122 SWAP2 SWAP1 PUSH2 0xE00 JUMP JUMPDEST PUSH2 0x346 JUMP JUMPDEST PUSH1 0x40 MLOAD PUSH2 0x134 SWAP2 SWAP1 PUSH2 0xF0F JUMP JUMPDEST PUSH1 0x40 MLOAD DUP1 SWAP2 SUB SWAP1 RETURN JUMPDEST PUSH2 0x145 PUSH2 0x438 JUMP JUMPDEST PUSH1 0x40 MLOAD PUSH2 0x152 SWAP2 SWAP1 PUSH2 0xFAC JUMP JUMPDEST PUSH1 0x40 MLOAD DUP1 SWAP2 SUB SWAP1 RETURN JUMPDEST PUSH2 0x175 PUSH1 0x4 DUP1 CALLDATASIZE SUB DUP2 ADD SWAP1 PUSH2 0x170 SWAP2 SWAP1 PUSH2 0xDAD JUMP JUMPDEST PUSH2 0x43E JUMP JUMPDEST PUSH1 0x40 MLOAD PUSH2 0x182 SWAP2 SWAP1 PUSH2 0xF0F JUMP JUMPDEST PUSH1 0x40 MLOAD DUP1 SWAP2 SUB SWAP1 RETURN JUMPDEST PUSH2 0x193 PUSH2 0x843 JUMP JUMPDEST PUSH1 0x40 MLOAD PUSH2 0x1A0 SWAP2 SWAP1 PUSH2 0xFC7 JUMP JUMPDEST PUSH1 0x40 MLOAD DUP1 SWAP2 SUB SWAP1 RETURN JUMPDEST PUSH2 0x1C3 PUSH1 0x4 DUP1 CALLDATASIZE SUB DUP2 ADD SWAP1 PUSH2 0x1BE SWAP2 SWAP1 PUSH2 0xE00 JUMP JUMPDEST PUSH2 0x848 JUMP JUMPDEST STOP JUMPDEST PUSH2 0x1CD PUSH2 0x9D1 JUMP JUMPDEST PUSH1 0x40 MLOAD PUSH2 0x1DA SWAP2 SWAP1 PUSH2 0xF2A JUMP JUMPDEST PUSH1 0x40 MLOAD DUP1 SWAP2 SUB SWAP1 RETURN JUMPDEST PUSH2 0x1FD PUSH1 0x4 DUP1 CALLDATASIZE SUB DUP2 ADD SWAP1 PUSH2 0x1F8 SWAP2 SWAP1 PUSH2 0xD40 JUMP JUMPDEST PUSH2 0xA0A JUMP JUMPDEST PUSH1 0x40 MLOAD PUSH2 0x20A SWAP2 SWAP1 PUSH2 0xFAC JUMP JUMPDEST PUSH1 0x40 MLOAD DUP1 SWAP2 SUB SWAP1 RETURN JUMPDEST PUSH2 0x22D PUSH1 0x4 DUP1 CALLDATASIZE SUB DUP2 ADD SWAP1 PUSH2 0x228 SWAP2 SWAP1 PUSH2 0xD40 JUMP JUMPDEST PUSH2 0xA22 JUMP JUMPDEST PUSH1 0x40 MLOAD PUSH2 0x23A SWAP2 SWAP1 PUSH2 0xFAC JUMP JUMPDEST PUSH1 0x40 MLOAD DUP1 SWAP2 SUB SWAP1 RETURN JUMPDEST PUSH2 0x24B PUSH2 0xA3A JUMP JUMPDEST PUSH1 0x40 MLOAD PUSH2 0x258 SWAP2 SWAP1 PUSH2 0xF2A JUMP JUMPDEST PUSH1 0x40 MLOAD DUP1 SWAP2 SUB SWAP1 RETURN JUMPDEST PUSH2 0x27B PUSH1 0x4 DUP1 CALLDATASIZE SUB DUP2 ADD SWAP1 PUSH2 0x276 SWAP2 SWAP1 PUSH2 0xE00 JUMP JUMPDEST PUSH2 0xA73 JUMP JUMPDEST STOP JUMPDEST PUSH2 0x297 PUSH1 0x4 DUP1 CALLDATASIZE SUB DUP2 ADD SWAP1 PUSH2 0x292 SWAP2 SWAP1 PUSH2 0xE00 JUMP JUMPDEST PUSH2 0xC7E JUMP JUMPDEST PUSH1 0x40 MLOAD PUSH2 0x2A4 SWAP2 SWAP1 PUSH2 0xF0F JUMP JUMPDEST PUSH1 0x40 MLOAD DUP1 SWAP2 SUB SWAP1 RETURN JUMPDEST PUSH2 0x2C7 PUSH1 0x4 DUP1 CALLDATASIZE SUB DUP2 ADD SWAP1 PUSH2 0x2C2 SWAP2 SWAP1 PUSH2 0xD40 JUMP JUMPDEST PUSH2 0xC93 JUMP JUMPDEST PUSH1 0x40 MLOAD PUSH2 0x2D4 SWAP2 SWAP1 PUSH2 0xFAC JUMP JUMPDEST PUSH1 0x40 MLOAD DUP1 SWAP2 SUB SWAP1 RETURN JUMPDEST PUSH2 0x2F7 PUSH1 0x4 DUP1 CALLDATASIZE SUB DUP2 ADD SWAP1 PUSH2 0x2F2 SWAP2 SWAP1 PUSH2 0xD6D JUMP JUMPDEST PUSH2 0xCAB JUMP JUMPDEST PUSH1 0x40 MLOAD PUSH2 0x304 SWAP2 SWAP1 PUSH2 0xFAC JUMP JUMPDEST PUSH1 0x40 MLOAD DUP1 SWAP2 SUB SWAP1 RETURN JUMPDEST PUSH1 0x40 MLOAD DUP1 PUSH1 0x40 ADD PUSH1 0x40 MSTORE DUP1 PUSH1 0x8 DUP2 MSTORE PUSH1 0x20 ADD PUSH32 0x446F7461436F696E000000000000000000000000000000000000000000000000 DUP2 MSTORE POP DUP2 JUMP JUMPDEST PUSH1 0x0 DUP2 PUSH1 0x3 PUSH1 0x0 CALLER PUSH20 0xFFFFFFFFFFFFFFFFFFFFFFFFFFFFFFFFFFFFFFFF AND PUSH20 0xFFFFFFFFFFFFFFFFFFFFFFFFFFFFFFFFFFFFFFFF AND DUP2 MSTORE PUSH1 0x20 ADD SWAP1 DUP2 MSTORE PUSH1 0x20 ADD PUSH1 0x0 KECCAK256 PUSH1 0x0 DUP6 PUSH20 0xFFFFFFFFFFFFFFFFFFFFFFFFFFFFFFFFFFFFFFFF AND PUSH20 0xFFFFFFFFFFFFFFFFFFFFFFFFFFFFFFFFFFFFFFFF AND DUP2 MSTORE PUSH1 0x20 ADD SWAP1 DUP2 MSTORE PUSH1 0x20 ADD PUSH1 0x0 KECCAK256 DUP2 SWAP1 SSTORE POP DUP3 PUSH20 0xFFFFFFFFFFFFFFFFFFFFFFFFFFFFFFFFFFFFFFFF AND CALLER PUSH20 0xFFFFFFFFFFFFFFFFFFFFFFFFFFFFFFFFFFFFFFFF AND PUSH32 0x8C5BE1E5EBEC7D5BD14F71427D1E84F3DD0314C0F7B2291E5B200AC8C7C3B925 DUP5 PUSH1 0x40 MLOAD PUSH2 0x426 SWAP2 SWAP1 PUSH2 0xFAC JUMP JUMPDEST PUSH1 0x40 MLOAD DUP1 SWAP2 SUB SWAP1 LOG3 PUSH1 0x1 SWAP1 POP SWAP3 SWAP2 POP POP JUMP JUMPDEST PUSH1 0x1 SLOAD DUP2 JUMP JUMPDEST PUSH1 0x0 PUSH1 0x2 PUSH1 0x0 DUP6 PUSH20 0xFFFFFFFFFFFFFFFFFFFFFFFFFFFFFFFFFFFFFFFF AND PUSH20 0xFFFFFFFFFFFFFFFFFFFFFFFFFFFFFFFFFFFFFFFF AND DUP2 MSTORE PUSH1 0x20 ADD SWAP1 DUP2 MSTORE PUSH1 0x20 ADD PUSH1 0x0 KECCAK256 SLOAD DUP3 GT ISZERO PUSH2 0x4C2 JUMPI PUSH1 0x40 MLOAD PUSH32 0x8C379A000000000000000000000000000000000000000000000000000000000 DUP2 MSTORE PUSH1 0x4 ADD PUSH2 0x4B9 SWAP1 PUSH2 0xF4C JUMP JUMPDEST PUSH1 0x40 MLOAD DUP1 SWAP2 SUB SWAP1 REVERT JUMPDEST CALLER PUSH20 0xFFFFFFFFFFFFFFFFFFFFFFFFFFFFFFFFFFFFFFFF AND DUP5 PUSH20 0xFFFFFFFFFFFFFFFFFFFFFFFFFFFFFFFFFFFFFFFF AND EQ PUSH2 0x6BB JUMPI PUSH1 0x3 PUSH1 0x0 DUP6 PUSH20 0xFFFFFFFFFFFFFFFFFFFFFFFFFFFFFFFFFFFFFFFF AND PUSH20 0xFFFFFFFFFFFFFFFFFFFFFFFFFFFFFFFFFFFFFFFF AND DUP2 MSTORE PUSH1 0x20 ADD SWAP1 DUP2 MSTORE PUSH1 0x20 ADD PUSH1 0x0 KECCAK256 PUSH1 0x0 CALLER PUSH20 0xFFFFFFFFFFFFFFFFFFFFFFFFFFFFFFFFFFFFFFFF AND PUSH20 0xFFFFFFFFFFFFFFFFFFFFFFFFFFFFFFFFFFFFFFFF AND DUP2 MSTORE PUSH1 0x20 ADD SWAP1 DUP2 MSTORE PUSH1 0x20 ADD PUSH1 0x0 KECCAK256 SLOAD DUP3 GT ISZERO PUSH2 0x5B4 JUMPI PUSH1 0x40 MLOAD PUSH32 0x8C379A000000000000000000000000000000000000000000000000000000000 DUP2 MSTORE PUSH1 0x4 ADD PUSH2 0x5AB SWAP1 PUSH2 0xF8C JUMP JUMPDEST PUSH1 0x40 MLOAD DUP1 SWAP2 SUB SWAP1 REVERT JUMPDEST PUSH2 0x63A PUSH1 0x3 PUSH1 0x0 DUP7 PUSH20 0xFFFFFFFFFFFFFFFFFFFFFFFFFFFFFFFFFFFFFFFF AND PUSH20 0xFFFFFFFFFFFFFFFFFFFFFFFFFFFFFFFFFFFFFFFF AND DUP2 MSTORE PUSH1 0x20 ADD SWAP1 DUP2 MSTORE PUSH1 0x20 ADD PUSH1 0x0 KECCAK256 PUSH1 0x0 CALLER PUSH20 0xFFFFFFFFFFFFFFFFFFFFFFFFFFFFFFFFFFFFFFFF AND PUSH20 0xFFFFFFFFFFFFFFFFFFFFFFFFFFFFFFFFFFFFFFFF AND DUP2 MSTORE PUSH1 0x20 ADD SWAP1 DUP2 MSTORE PUSH1 0x20 ADD PUSH1 0x0 KECCAK256 SLOAD DUP4 PUSH2 0xCD0 JUMP JUMPDEST PUSH1 0x3 PUSH1 0x0 DUP7 PUSH20 0xFFFFFFFFFFFFFFFFFFFFFFFFFFFFFFFFFFFFFFFF AND PUSH20 0xFFFFFFFFFFFFFFFFFFFFFFFFFFFFFFFFFFFFFFFF AND DUP2 MSTORE PUSH1 0x20 ADD SWAP1 DUP2 MSTORE PUSH1 0x20 ADD PUSH1 0x0 KECCAK256 PUSH1 0x0 CALLER PUSH20 0xFFFFFFFFFFFFFFFFFFFFFFFFFFFFFFFFFFFFFFFF AND PUSH20 0xFFFFFFFFFFFFFFFFFFFFFFFFFFFFFFFFFFFFFFFF AND DUP2 MSTORE PUSH1 0x20 ADD SWAP1 DUP2 MSTORE PUSH1 0x20 ADD PUSH1 0x0 KECCAK256 DUP2 SWAP1 SSTORE POP JUMPDEST PUSH2 0x704 PUSH1 0x2 PUSH1 0x0 DUP7 PUSH20 0xFFFFFFFFFFFFFFFFFFFFFFFFFFFFFFFFFFFFFFFF AND PUSH20 0xFFFFFFFFFFFFFFFFFFFFFFFFFFFFFFFFFFFFFFFF AND DUP2 MSTORE PUSH1 0x20 ADD SWAP1 DUP2 MSTORE PUSH1 0x20 ADD PUSH1 0x0 KECCAK256 SLOAD DUP4 PUSH2 0xCD0 JUMP JUMPDEST PUSH1 0x2 PUSH1 0x0 DUP7 PUSH20 0xFFFFFFFFFFFFFFFFFFFFFFFFFFFFFFFFFFFFFFFF AND PUSH20 0xFFFFFFFFFFFFFFFFFFFFFFFFFFFFFFFFFFFFFFFF AND DUP2 MSTORE PUSH1 0x20 ADD SWAP1 DUP2 MSTORE PUSH1 0x20 ADD PUSH1 0x0 KECCAK256 DUP2 SWAP1 SSTORE POP PUSH2 0x790 PUSH1 0x2 PUSH1 0x0 DUP6 PUSH20 0xFFFFFFFFFFFFFFFFFFFFFFFFFFFFFFFFFFFFFFFF AND PUSH20 0xFFFFFFFFFFFFFFFFFFFFFFFFFFFFFFFFFFFFFFFF AND DUP2 MSTORE PUSH1 0x20 ADD SWAP1 DUP2 MSTORE PUSH1 0x20 ADD PUSH1 0x0 KECCAK256 SLOAD DUP4 PUSH2 0xCF3 JUMP JUMPDEST PUSH1 0x2 PUSH1 0x0 DUP6 PUSH20 0xFFFFFFFFFFFFFFFFFFFFFFFFFFFFFFFFFFFFFFFF AND PUSH20 0xFFFFFFFFFFFFFFFFFFFFFFFFFFFFFFFFFFFFFFFF AND DUP2 MSTORE PUSH1 0x20 ADD SWAP1 DUP2 MSTORE PUSH1 0x20 ADD PUSH1 0x0 KECCAK256 DUP2 SWAP1 SSTORE POP DUP3 PUSH20 0xFFFFFFFFFFFFFFFFFFFFFFFFFFFFFFFFFFFFFFFF AND DUP5 PUSH20 0xFFFFFFFFFFFFFFFFFFFFFFFFFFFFFFFFFFFFFFFF AND PUSH32 0xDDF252AD1BE2C89B69C2B068FC378DAA952BA7F163C4A11628F55A4DF523B3EF DUP5 PUSH1 0x40 MLOAD PUSH2 0x830 SWAP2 SWAP1 PUSH2 0xFAC JUMP JUMPDEST PUSH1 0x40 MLOAD DUP1 SWAP2 SUB SWAP1 LOG3 PUSH1 0x1 SWAP1 POP SWAP4 SWAP3 POP POP POP JUMP JUMPDEST PUSH1 0x0 DUP2 JUMP JUMPDEST PUSH1 0x1 PUSH1 0x0 DUP1 CALLER PUSH20 0xFFFFFFFFFFFFFFFFFFFFFFFFFFFFFFFFFFFFFFFF AND PUSH20 0xFFFFFFFFFFFFFFFFFFFFFFFFFFFFFFFFFFFFFFFF AND DUP2 MSTORE PUSH1 0x20 ADD SWAP1 DUP2 MSTORE PUSH1 0x20 ADD PUSH1 0x0 KECCAK256 SLOAD EQ PUSH2 0x8C9 JUMPI PUSH1 0x40 MLOAD PUSH32 0x8C379A000000000000000000000000000000000000000000000000000000000 DUP2 MSTORE PUSH1 0x4 ADD PUSH2 0x8C0 SWAP1 PUSH2 0xF6C JUMP JUMPDEST PUSH1 0x40 MLOAD DUP1 SWAP2 SUB SWAP1 REVERT JUMPDEST PUSH2 0x912 PUSH1 0x2 PUSH1 0x0 DUP5 PUSH20 0xFFFFFFFFFFFFFFFFFFFFFFFFFFFFFFFFFFFFFFFF AND PUSH20 0xFFFFFFFFFFFFFFFFFFFFFFFFFFFFFFFFFFFFFFFF AND DUP2 MSTORE PUSH1 0x20 ADD SWAP1 DUP2 MSTORE PUSH1 0x20 ADD PUSH1 0x0 KECCAK256 SLOAD DUP3 PUSH2 0xCF3 JUMP JUMPDEST PUSH1 0x2 PUSH1 0x0 DUP5 PUSH20 0xFFFFFFFFFFFFFFFFFFFFFFFFFFFFFFFFFFFFFFFF AND PUSH20 0xFFFFFFFFFFFFFFFFFFFFFFFFFFFFFFFFFFFFFFFF AND DUP2 MSTORE PUSH1 0x20 ADD SWAP1 DUP2 MSTORE PUSH1 0x20 ADD PUSH1 0x0 KECCAK256 DUP2 SWAP1 SSTORE POP PUSH2 0x961 PUSH1 0x1 SLOAD DUP3 PUSH2 0xCF3 JUMP JUMPDEST PUSH1 0x1 DUP2 SWAP1 SSTORE POP DUP2 PUSH20 0xFFFFFFFFFFFFFFFFFFFFFFFFFFFFFFFFFFFFFFFF AND PUSH1 0x0 PUSH20 0xFFFFFFFFFFFFFFFFFFFFFFFFFFFFFFFFFFFFFFFF AND PUSH32 0xDDF252AD1BE2C89B69C2B068FC378DAA952BA7F163C4A11628F55A4DF523B3EF DUP4 PUSH1 0x40 MLOAD PUSH2 0x9C5 SWAP2 SWAP1 PUSH2 0xFAC JUMP JUMPDEST PUSH1 0x40 MLOAD DUP1 SWAP2 SUB SWAP1 LOG3 POP POP JUMP JUMPDEST PUSH1 0x40 MLOAD DUP1 PUSH1 0x40 ADD PUSH1 0x40 MSTORE DUP1 PUSH1 0x1 DUP2 MSTORE PUSH1 0x20 ADD PUSH32 0x3100000000000000000000000000000000000000000000000000000000000000 DUP2 MSTORE POP DUP2 JUMP JUMPDEST PUSH1 0x2 PUSH1 0x20 MSTORE DUP1 PUSH1 0x0 MSTORE PUSH1 0x40 PUSH1 0x0 KECCAK256 PUSH1 0x0 SWAP2 POP SWAP1 POP SLOAD DUP2 JUMP JUMPDEST PUSH1 0x4 PUSH1 0x20 MSTORE DUP1 PUSH1 0x0 MSTORE PUSH1 0x40 PUSH1 0x0 KECCAK256 PUSH1 0x0 SWAP2 POP SWAP1 POP SLOAD DUP2 JUMP JUMPDEST PUSH1 0x40 MLOAD DUP1 PUSH1 0x40 ADD PUSH1 0x40 MSTORE DUP1 PUSH1 0x2 DUP2 MSTORE PUSH1 0x20 ADD PUSH32 0x4443000000000000000000000000000000000000000000000000000000000000 DUP2 MSTORE POP DUP2 JUMP JUMPDEST PUSH1 0x1 PUSH1 0x0 DUP1 CALLER PUSH20 0xFFFFFFFFFFFFFFFFFFFFFFFFFFFFFFFFFFFFFFFF AND PUSH20 0xFFFFFFFFFFFFFFFFFFFFFFFFFFFFFFFFFFFFFFFF AND DUP2 MSTORE PUSH1 0x20 ADD SWAP1 DUP2 MSTORE PUSH1 0x20 ADD PUSH1 0x0 KECCAK256 SLOAD EQ PUSH2 0xAF4 JUMPI PUSH1 0x40 MLOAD PUSH32 0x8C379A000000000000000000000000000000000000000000000000000000000 DUP2 MSTORE PUSH1 0x4 ADD PUSH2 0xAEB SWAP1 PUSH2 0xF6C JUMP JUMPDEST PUSH1 0x40 MLOAD DUP1 SWAP2 SUB SWAP1 REVERT JUMPDEST DUP1 PUSH1 0x2 PUSH1 0x0 DUP5 PUSH20 0xFFFFFFFFFFFFFFFFFFFFFFFFFFFFFFFFFFFFFFFF AND PUSH20 0xFFFFFFFFFFFFFFFFFFFFFFFFFFFFFFFFFFFFFFFF AND DUP2 MSTORE PUSH1 0x20 ADD SWAP1 DUP2 MSTORE PUSH1 0x20 ADD PUSH1 0x0 KECCAK256 SLOAD LT ISZERO PUSH2 0xB76 JUMPI PUSH1 0x40 MLOAD PUSH32 0x8C379A000000000000000000000000000000000000000000000000000000000 DUP2 MSTORE PUSH1 0x4 ADD PUSH2 0xB6D SWAP1 PUSH2 0xF4C JUMP JUMPDEST PUSH1 0x40 MLOAD DUP1 SWAP2 SUB SWAP1 REVERT JUMPDEST PUSH2 0xBBF PUSH1 0x2 PUSH1 0x0 DUP5 PUSH20 0xFFFFFFFFFFFFFFFFFFFFFFFFFFFFFFFFFFFFFFFF AND PUSH20 0xFFFFFFFFFFFFFFFFFFFFFFFFFFFFFFFFFFFFFFFF AND DUP2 MSTORE PUSH1 0x20 ADD SWAP1 DUP2 MSTORE PUSH1 0x20 ADD PUSH1 0x0 KECCAK256 SLOAD DUP3 PUSH2 0xCD0 JUMP JUMPDEST PUSH1 0x2 PUSH1 0x0 DUP5 PUSH20 0xFFFFFFFFFFFFFFFFFFFFFFFFFFFFFFFFFFFFFFFF AND PUSH20 0xFFFFFFFFFFFFFFFFFFFFFFFFFFFFFFFFFFFFFFFF AND DUP2 MSTORE PUSH1 0x20 ADD SWAP1 DUP2 MSTORE PUSH1 0x20 ADD PUSH1 0x0 KECCAK256 DUP2 SWAP1 SSTORE POP PUSH2 0xC0E PUSH1 0x1 SLOAD DUP3 PUSH2 0xCD0 JUMP JUMPDEST PUSH1 0x1 DUP2 SWAP1 SSTORE POP PUSH1 0x0 PUSH20 0xFFFFFFFFFFFFFFFFFFFFFFFFFFFFFFFFFFFFFFFF AND DUP3 PUSH20 0xFFFFFFFFFFFFFFFFFFFFFFFFFFFFFFFFFFFFFFFF AND PUSH32 0xDDF252AD1BE2C89B69C2B068FC378DAA952BA7F163C4A11628F55A4DF523B3EF DUP4 PUSH1 0x40 MLOAD PUSH2 0xC72 SWAP2 SWAP1 PUSH2 0xFAC JUMP JUMPDEST PUSH1 0x40 MLOAD DUP1 SWAP2 SUB SWAP1 LOG3 POP POP JUMP JUMPDEST PUSH1 0x0 PUSH2 0xC8B CALLER DUP5 DUP5 PUSH2 0x43E JUMP JUMPDEST SWAP1 POP SWAP3 SWAP2 POP POP JUMP JUMPDEST PUSH1 0x0 PUSH1 0x20 MSTORE DUP1 PUSH1 0x0 MSTORE PUSH1 0x40 PUSH1 0x0 KECCAK256 PUSH1 0x0 SWAP2 POP SWAP1 POP SLOAD DUP2 JUMP JUMPDEST PUSH1 0x3 PUSH1 0x20 MSTORE DUP2 PUSH1 0x0 MSTORE PUSH1 0x40 PUSH1 0x0 KECCAK256 PUSH1 0x20 MSTORE DUP1 PUSH1 0x0 MSTORE PUSH1 0x40 PUSH1 0x0 KECCAK256 PUSH1 0x0 SWAP2 POP SWAP2 POP POP SLOAD DUP2 JUMP JUMPDEST PUSH1 0x0 DUP3 DUP3 DUP5 PUSH2 0xCDF SWAP2 SWAP1 PUSH2 0x1054 JUMP JUMPDEST SWAP2 POP DUP2 GT ISZERO PUSH2 0xCED JUMPI PUSH1 0x0 DUP1 REVERT JUMPDEST SWAP3 SWAP2 POP POP JUMP JUMPDEST PUSH1 0x0 DUP3 DUP3 DUP5 PUSH2 0xD02 SWAP2 SWAP1 PUSH2 0xFFE JUMP JUMPDEST SWAP2 POP DUP2 LT ISZERO PUSH2 0xD10 JUMPI PUSH1 0x0 DUP1 REVERT JUMPDEST SWAP3 SWAP2 POP POP JUMP JUMPDEST PUSH1 0x0 DUP2 CALLDATALOAD SWAP1 POP PUSH2 0xD25 DUP2 PUSH2 0x11D0 JUMP JUMPDEST SWAP3 SWAP2 POP POP JUMP JUMPDEST PUSH1 0x0 DUP2 CALLDATALOAD SWAP1 POP PUSH2 0xD3A DUP2 PUSH2 0x11E7 JUMP JUMPDEST SWAP3 SWAP2 POP POP JUMP JUMPDEST PUSH1 0x0 PUSH1 0x20 DUP3 DUP5 SUB SLT ISZERO PUSH2 0xD56 JUMPI PUSH2 0xD55 PUSH2 0x113F JUMP JUMPDEST JUMPDEST PUSH1 0x0 PUSH2 0xD64 DUP5 DUP3 DUP6 ADD PUSH2 0xD16 JUMP JUMPDEST SWAP2 POP POP SWAP3 SWAP2 POP POP JUMP JUMPDEST PUSH1 0x0 DUP1 PUSH1 0x40 DUP4 DUP6 SUB SLT ISZERO PUSH2 0xD84 JUMPI PUSH2 0xD83 PUSH2 0x113F JUMP JUMPDEST JUMPDEST PUSH1 0x0 PUSH2 0xD92 DUP6 DUP3 DUP7 ADD PUSH2 0xD16 JUMP JUMPDEST SWAP3 POP POP PUSH1 0x20 PUSH2 0xDA3 DUP6 DUP3 DUP7 ADD PUSH2 0xD16 JUMP JUMPDEST SWAP2 POP POP SWAP3 POP SWAP3 SWAP1 POP JUMP JUMPDEST PUSH1 0x0 DUP1 PUSH1 0x0 PUSH1 0x60 DUP5 DUP7 SUB SLT ISZERO PUSH2 0xDC6 JUMPI PUSH2 0xDC5 PUSH2 0x113F JUMP JUMPDEST JUMPDEST PUSH1 0x0 PUSH2 0xDD4 DUP7 DUP3 DUP8 ADD PUSH2 0xD16 JUMP JUMPDEST SWAP4 POP POP PUSH1 0x20 PUSH2 0xDE5 DUP7 DUP3 DUP8 ADD PUSH2 0xD16 JUMP JUMPDEST SWAP3 POP POP PUSH1 0x40 PUSH2 0xDF6 DUP7 DUP3 DUP8 ADD PUSH2 0xD2B JUMP JUMPDEST SWAP2 POP POP SWAP3 POP SWAP3 POP SWAP3 JUMP JUMPDEST PUSH1 0x0 DUP1 PUSH1 0x40 DUP4 DUP6 SUB SLT ISZERO PUSH2 0xE17 JUMPI PUSH2 0xE16 PUSH2 0x113F JUMP JUMPDEST JUMPDEST PUSH1 0x0 PUSH2 0xE25 DUP6 DUP3 DUP7 ADD PUSH2 0xD16 JUMP JUMPDEST SWAP3 POP POP PUSH1 0x20 PUSH2 0xE36 DUP6 DUP3 DUP7 ADD PUSH2 0xD2B JUMP JUMPDEST SWAP2 POP POP SWAP3 POP SWAP3 SWAP1 POP JUMP JUMPDEST PUSH2 0xE49 DUP2 PUSH2 0x109A JUMP JUMPDEST DUP3 MSTORE POP POP JUMP JUMPDEST PUSH1 0x0 PUSH2 0xE5A DUP3 PUSH2 0xFE2 JUMP JUMPDEST PUSH2 0xE64 DUP2 DUP6 PUSH2 0xFED JUMP JUMPDEST SWAP4 POP PUSH2 0xE74 DUP2 DUP6 PUSH1 0x20 DUP7 ADD PUSH2 0x10DD JUMP JUMPDEST PUSH2 0xE7D DUP2 PUSH2 0x1144 JUMP JUMPDEST DUP5 ADD SWAP2 POP POP SWAP3 SWAP2 POP POP JUMP JUMPDEST PUSH1 0x0 PUSH2 0xE95 PUSH1 0x14 DUP4 PUSH2 0xFED JUMP JUMPDEST SWAP2 POP PUSH2 0xEA0 DUP3 PUSH2 0x1155 JUMP JUMPDEST PUSH1 0x20 DUP3 ADD SWAP1 POP SWAP2 SWAP1 POP JUMP JUMPDEST PUSH1 0x0 PUSH2 0xEB8 PUSH1 0xE DUP4 PUSH2 0xFED JUMP JUMPDEST SWAP2 POP PUSH2 0xEC3 DUP3 PUSH2 0x117E JUMP JUMPDEST PUSH1 0x20 DUP3 ADD SWAP1 POP SWAP2 SWAP1 POP JUMP JUMPDEST PUSH1 0x0 PUSH2 0xEDB PUSH1 0x16 DUP4 PUSH2 0xFED JUMP JUMPDEST SWAP2 POP PUSH2 0xEE6 DUP3 PUSH2 0x11A7 JUMP JUMPDEST PUSH1 0x20 DUP3 ADD SWAP1 POP SWAP2 SWAP1 POP JUMP JUMPDEST PUSH2 0xEFA DUP2 PUSH2 0x10C6 JUMP JUMPDEST DUP3 MSTORE POP POP JUMP JUMPDEST PUSH2 0xF09 DUP2 PUSH2 0x10D0 JUMP JUMPDEST DUP3 MSTORE POP POP JUMP JUMPDEST PUSH1 0x0 PUSH1 0x20 DUP3 ADD SWAP1 POP PUSH2 0xF24 PUSH1 0x0 DUP4 ADD DUP5 PUSH2 0xE40 JUMP JUMPDEST SWAP3 SWAP2 POP POP JUMP JUMPDEST PUSH1 0x0 PUSH1 0x20 DUP3 ADD SWAP1 POP DUP2 DUP2 SUB PUSH1 0x0 DUP4 ADD MSTORE PUSH2 0xF44 DUP2 DUP5 PUSH2 0xE4F JUMP JUMPDEST SWAP1 POP SWAP3 SWAP2 POP POP JUMP JUMPDEST PUSH1 0x0 PUSH1 0x20 DUP3 ADD SWAP1 POP DUP2 DUP2 SUB PUSH1 0x0 DUP4 ADD MSTORE PUSH2 0xF65 DUP2 PUSH2 0xE88 JUMP JUMPDEST SWAP1 POP SWAP2 SWAP1 POP JUMP JUMPDEST PUSH1 0x0 PUSH1 0x20 DUP3 ADD SWAP1 POP DUP2 DUP2 SUB PUSH1 0x0 DUP4 ADD MSTORE PUSH2 0xF85 DUP2 PUSH2 0xEAB JUMP JUMPDEST SWAP1 POP SWAP2 SWAP1 POP JUMP JUMPDEST PUSH1 0x0 PUSH1 0x20 DUP3 ADD SWAP1 POP DUP2 DUP2 SUB PUSH1 0x0 DUP4 ADD MSTORE PUSH2 0xFA5 DUP2 PUSH2 0xECE JUMP JUMPDEST SWAP1 POP SWAP2 SWAP1 POP JUMP JUMPDEST PUSH1 0x0 PUSH1 0x20 DUP3 ADD SWAP1 POP PUSH2 0xFC1 PUSH1 0x0 DUP4 ADD DUP5 PUSH2 0xEF1 JUMP JUMPDEST SWAP3 SWAP2 POP POP JUMP JUMPDEST PUSH1 0x0 PUSH1 0x20 DUP3 ADD SWAP1 POP PUSH2 0xFDC PUSH1 0x0 DUP4 ADD DUP5 PUSH2 0xF00 JUMP JUMPDEST SWAP3 SWAP2 POP POP JUMP JUMPDEST PUSH1 0x0 DUP2 MLOAD SWAP1 POP SWAP2 SWAP1 POP JUMP JUMPDEST PUSH1 0x0 DUP3 DUP3 MSTORE PUSH1 0x20 DUP3 ADD SWAP1 POP SWAP3 SWAP2 POP POP JUMP JUMPDEST PUSH1 0x0 PUSH2 0x1009 DUP3 PUSH2 0x10C6 JUMP JUMPDEST SWAP2 POP PUSH2 0x1014 DUP4 PUSH2 0x10C6 JUMP JUMPDEST SWAP3 POP DUP3 PUSH32 0xFFFFFFFFFFFFFFFFFFFFFFFFFFFFFFFFFFFFFFFFFFFFFFFFFFFFFFFFFFFFFFFF SUB DUP3 GT ISZERO PUSH2 0x1049 JUMPI PUSH2 0x1048 PUSH2 0x1110 JUMP JUMPDEST JUMPDEST DUP3 DUP3 ADD SWAP1 POP SWAP3 SWAP2 POP POP JUMP JUMPDEST PUSH1 0x0 PUSH2 0x105F DUP3 PUSH2 0x10C6 JUMP JUMPDEST SWAP2 POP PUSH2 0x106A DUP4 PUSH2 0x10C6 JUMP JUMPDEST SWAP3 POP DUP3 DUP3 LT ISZERO PUSH2 0x107D JUMPI PUSH2 0x107C PUSH2 0x1110 JUMP JUMPDEST JUMPDEST DUP3 DUP3 SUB SWAP1 POP SWAP3 SWAP2 POP POP JUMP JUMPDEST PUSH1 0x0 PUSH2 0x1093 DUP3 PUSH2 0x10A6 JUMP JUMPDEST SWAP1 POP SWAP2 SWAP1 POP JUMP JUMPDEST PUSH1 0x0 DUP2 ISZERO ISZERO SWAP1 POP SWAP2 SWAP1 POP JUMP JUMPDEST PUSH1 0x0 PUSH20 0xFFFFFFFFFFFFFFFFFFFFFFFFFFFFFFFFFFFFFFFF DUP3 AND SWAP1 POP SWAP2 SWAP1 POP JUMP JUMPDEST PUSH1 0x0 DUP2 SWAP1 POP SWAP2 SWAP1 POP JUMP JUMPDEST PUSH1 0x0 PUSH1 0xFF DUP3 AND SWAP1 POP SWAP2 SWAP1 POP JUMP JUMPDEST PUSH1 0x0 JUMPDEST DUP4 DUP2 LT ISZERO PUSH2 0x10FB JUMPI DUP1 DUP3 ADD MLOAD DUP2 DUP5 ADD MSTORE PUSH1 0x20 DUP2 ADD SWAP1 POP PUSH2 0x10E0 JUMP JUMPDEST DUP4 DUP2 GT ISZERO PUSH2 0x110A JUMPI PUSH1 0x0 DUP5 DUP5 ADD MSTORE JUMPDEST POP POP POP POP JUMP JUMPDEST PUSH32 0x4E487B7100000000000000000000000000000000000000000000000000000000 PUSH1 0x0 MSTORE PUSH1 0x11 PUSH1 0x4 MSTORE PUSH1 0x24 PUSH1 0x0 REVERT JUMPDEST PUSH1 0x0 DUP1 REVERT JUMPDEST PUSH1 0x0 PUSH1 0x1F NOT PUSH1 0x1F DUP4 ADD AND SWAP1 POP SWAP2 SWAP1 POP JUMP JUMPDEST PUSH32 0x696E73756666696369656E742D62616C616E6365000000000000000000000000 PUSH1 0x0 DUP3 ADD MSTORE POP JUMP JUMPDEST PUSH32 0x4E6F742D617574686F72697A6564000000000000000000000000000000000000 PUSH1 0x0 DUP3 ADD MSTORE POP JUMP JUMPDEST PUSH32 0x696E73756666696369656E742D616C6C6F77616E636500000000000000000000 PUSH1 0x0 DUP3 ADD MSTORE POP JUMP JUMPDEST PUSH2 0x11D9 DUP2 PUSH2 0x1088 JUMP JUMPDEST DUP2 EQ PUSH2 0x11E4 JUMPI PUSH1 0x0 DUP1 REVERT JUMPDEST POP JUMP JUMPDEST PUSH2 0x11F0 DUP2 PUSH2 0x10C6 JUMP JUMPDEST DUP2 EQ PUSH2 0x11FB JUMPI PUSH1 0x0 DUP1 REVERT JUMPDEST POP JUMP INVALID LOG2 PUSH5 0x6970667358 0x22 SLT KECCAK256 PUSH19 0xF2A52DDF5C40DA7824CA697982C23C6085889B MSTORE8 PUSH3 0x37B7C5 PUSH32 0x26C313A649B364736F6C63430008070033000000000000000000000000000000 "
				},
				"gasEstimates": {
					"creation": {
						"codeDepositCost": "932000",
						"executionCost": "28185",
						"totalCost": "960185"
					},
					"external": {
						"allowance(address,address)": "infinite",
						"approve(address,uint256)": "infinite",
						"balanceOf(address)": "2837",
						"burn(address,uint256)": "infinite",
						"decimals()": "380",
						"mint(address,uint256)": "infinite",
						"name()": "infinite",
						"nonces(address)": "2859",
						"symbol()": "infinite",
						"totalSupply()": "2497",
						"transfer(address,uint256)": "infinite",
						"transferFrom(address,address,uint256)": "infinite",
						"version()": "infinite",
						"wards(address)": "2880"
					},
					"internal": {
						"add(uint256,uint256)": "infinite",
						"sub(uint256,uint256)": "infinite"
					}
				},
				"methodIdentifiers": {
					"allowance(address,address)": "dd62ed3e",
					"approve(address,uint256)": "095ea7b3",
					"balanceOf(address)": "70a08231",
					"burn(address,uint256)": "9dc29fac",
					"decimals()": "313ce567",
					"mint(address,uint256)": "40c10f19",
					"name()": "06fdde03",
					"nonces(address)": "7ecebe00",
					"symbol()": "95d89b41",
					"totalSupply()": "18160ddd",
					"transfer(address,uint256)": "a9059cbb",
					"transferFrom(address,address,uint256)": "23b872dd",
					"version()": "54fd4d50",
					"wards(address)": "bf353dbb"
				}
			},
			"storageLayout": {
				"storage": [
					{
						"astId": 52,
						"contract": "contracts/Coin_contract.sol:StableCoin",
						"label": "wards",
						"offset": 0,
						"slot": "0",
						"type": "t_mapping(t_address,t_uint256)"
					},
					{
						"astId": 80,
						"contract": "contracts/Coin_contract.sol:StableCoin",
						"label": "totalSupply",
						"offset": 0,
						"slot": "1",
						"type": "t_uint256"
					},
					{
						"astId": 84,
						"contract": "contracts/Coin_contract.sol:StableCoin",
						"label": "balanceOf",
						"offset": 0,
						"slot": "2",
						"type": "t_mapping(t_address,t_uint256)"
					},
					{
						"astId": 90,
						"contract": "contracts/Coin_contract.sol:StableCoin",
						"label": "allowance",
						"offset": 0,
						"slot": "3",
						"type": "t_mapping(t_address,t_mapping(t_address,t_uint256))"
					},
					{
						"astId": 94,
						"contract": "contracts/Coin_contract.sol:StableCoin",
						"label": "nonces",
						"offset": 0,
						"slot": "4",
						"type": "t_mapping(t_address,t_uint256)"
					}
				],
				"types": {
					"t_address": {
						"encoding": "inplace",
						"label": "address",
						"numberOfBytes": "20"
					},
					"t_mapping(t_address,t_mapping(t_address,t_uint256))": {
						"encoding": "mapping",
						"key": "t_address",
						"label": "mapping(address => mapping(address => uint256))",
						"numberOfBytes": "32",
						"value": "t_mapping(t_address,t_uint256)"
					},
					"t_mapping(t_address,t_uint256)": {
						"encoding": "mapping",
						"key": "t_address",
						"label": "mapping(address => uint256)",
						"numberOfBytes": "32",
						"value": "t_uint256"
					},
					"t_uint256": {
						"encoding": "inplace",
						"label": "uint256",
						"numberOfBytes": "32"
					}
				}
			},
			"userdoc": {
				"kind": "user",
				"methods": {},
				"version": 1
			}
		}
	}
}