{
	"contracts/price_feed_experiment.sol": {
		"PriceConsumerV3": {
			"abi": [
				{
					"inputs": [],
					"stateMutability": "nonpayable",
					"type": "constructor"
				},
				{
					"inputs": [],
					"name": "getEthPriceCZK",
					"outputs": [
						{
							"internalType": "uint256",
							"name": "",
							"type": "uint256"
						}
					],
					"stateMutability": "view",
					"type": "function"
				}
			],
			"devdoc": {
				"kind": "dev",
				"methods": {},
				"version": 1
			},
			"evm": {
				"assembly": "    /* \"contracts/price_feed_experiment.sol\":204:1212  contract PriceConsumerV3 {\r... */\n  mstore(0x40, 0x80)\n    /* \"contracts/price_feed_experiment.sol\":301:303  22 */\n  0x16\n    /* \"contracts/price_feed_experiment.sol\":285:303  uint USDinCZK = 22 */\n  0x01\n  sstore\n    /* \"contracts/price_feed_experiment.sol\":609:719  constructor() {\r... */\n  callvalue\n  dup1\n  iszero\n  tag_1\n  jumpi\n  0x00\n  dup1\n  revert\ntag_1:\n  pop\n    /* \"contracts/price_feed_experiment.sol\":668:710  0x13e3Ee699D1909E989722E753853AE30b17e08c5 */\n  0x13e3ee699d1909e989722e753853ae30b17e08c5\n    /* \"contracts/price_feed_experiment.sol\":634:643  priceFeed */\n  0x00\n  dup1\n    /* \"contracts/price_feed_experiment.sol\":634:711  priceFeed = AggregatorV3Interface(0x13e3Ee699D1909E989722E753853AE30b17e08c5) */\n  0x0100\n  exp\n  dup2\n  sload\n  dup2\n  0xffffffffffffffffffffffffffffffffffffffff\n  mul\n  not\n  and\n  swap1\n  dup4\n  0xffffffffffffffffffffffffffffffffffffffff\n  and\n  mul\n  or\n  swap1\n  sstore\n  pop\n    /* \"contracts/price_feed_experiment.sol\":204:1212  contract PriceConsumerV3 {\r... */\n  dataSize(sub_0)\n  dup1\n  dataOffset(sub_0)\n  0x00\n  codecopy\n  0x00\n  return\nstop\n\nsub_0: assembly {\n        /* \"contracts/price_feed_experiment.sol\":204:1212  contract PriceConsumerV3 {\r... */\n      mstore(0x40, 0x80)\n      callvalue\n      dup1\n      iszero\n      tag_1\n      jumpi\n      0x00\n      dup1\n      revert\n    tag_1:\n      pop\n      jumpi(tag_2, lt(calldatasize, 0x04))\n      shr(0xe0, calldataload(0x00))\n      dup1\n      0x41b33680\n      eq\n      tag_3\n      jumpi\n    tag_2:\n      0x00\n      dup1\n      revert\n        /* \"contracts/price_feed_experiment.sol\":727:1207  function getEthPriceCZK() public view returns (uint)\r... */\n    tag_3:\n      tag_4\n      tag_5\n      jump\t// in\n    tag_4:\n      mload(0x40)\n      tag_6\n      swap2\n      swap1\n      tag_7\n      jump\t// in\n    tag_6:\n      mload(0x40)\n      dup1\n      swap2\n      sub\n      swap1\n      return\n    tag_5:\n        /* \"contracts/price_feed_experiment.sol\":774:778  uint */\n      0x00\n        /* \"contracts/price_feed_experiment.sol\":899:908  int price */\n      dup1\n        /* \"contracts/price_feed_experiment.sol\":1029:1038  priceFeed */\n      0x00\n      dup1\n      sload\n      swap1\n      0x0100\n      exp\n      swap1\n      div\n      0xffffffffffffffffffffffffffffffffffffffff\n      and\n        /* \"contracts/price_feed_experiment.sol\":1029:1054  priceFeed.latestRoundData */\n      0xffffffffffffffffffffffffffffffffffffffff\n      and\n      0xfeaf968c\n        /* \"contracts/price_feed_experiment.sol\":1029:1056  priceFeed.latestRoundData() */\n      mload(0x40)\n      dup2\n      0xffffffff\n      and\n      0xe0\n      shl\n      dup2\n      mstore\n      0x04\n      add\n      0xa0\n      mload(0x40)\n      dup1\n      dup4\n      sub\n      dup2\n      dup7\n      dup1\n      extcodesize\n      iszero\n      dup1\n      iszero\n      tag_9\n      jumpi\n      0x00\n      dup1\n      revert\n    tag_9:\n      pop\n      gas\n      staticcall\n      iszero\n      dup1\n      iszero\n      tag_11\n      jumpi\n      returndatasize\n      0x00\n      dup1\n      returndatacopy\n      revert(0x00, returndatasize)\n    tag_11:\n      pop\n      pop\n      pop\n      pop\n      mload(0x40)\n      returndatasize\n      not(0x1f)\n      0x1f\n      dup3\n      add\n      and\n      dup3\n      add\n      dup1\n      0x40\n      mstore\n      pop\n      dup2\n      add\n      swap1\n      tag_12\n      swap2\n      swap1\n      tag_13\n      jump\t// in\n    tag_12:\n        /* \"contracts/price_feed_experiment.sol\":851:1056  (\r... */\n      pop\n      pop\n      pop\n      swap2\n      pop\n      pop\n        /* \"contracts/price_feed_experiment.sol\":1067:1078  uint uprice */\n      0x00\n        /* \"contracts/price_feed_experiment.sol\":1086:1091  price */\n      dup2\n        /* \"contracts/price_feed_experiment.sol\":1067:1092  uint uprice = uint(price) */\n      swap1\n      pop\n        /* \"contracts/price_feed_experiment.sol\":1165:1174  100000000 */\n      0x05f5e100\n        /* \"contracts/price_feed_experiment.sol\":1153:1161  USDinCZK */\n      sload(0x01)\n        /* \"contracts/price_feed_experiment.sol\":1144:1150  uprice */\n      dup3\n        /* \"contracts/price_feed_experiment.sol\":1144:1161  uprice * USDinCZK */\n      tag_14\n      swap2\n      swap1\n      tag_15\n      jump\t// in\n    tag_14:\n        /* \"contracts/price_feed_experiment.sol\":1143:1174  (uprice * USDinCZK) / 100000000 */\n      tag_16\n      swap2\n      swap1\n      tag_17\n      jump\t// in\n    tag_16:\n        /* \"contracts/price_feed_experiment.sol\":1136:1174  return (uprice * USDinCZK) / 100000000 */\n      swap3\n      pop\n      pop\n      pop\n        /* \"contracts/price_feed_experiment.sol\":727:1207  function getEthPriceCZK() public view returns (uint)\r... */\n      swap1\n      jump\t// out\n        /* \"#utility.yul\":7:148   */\n    tag_19:\n        /* \"#utility.yul\":63:68   */\n      0x00\n        /* \"#utility.yul\":94:100   */\n      dup2\n        /* \"#utility.yul\":88:101   */\n      mload\n        /* \"#utility.yul\":79:101   */\n      swap1\n      pop\n        /* \"#utility.yul\":110:142   */\n      tag_21\n        /* \"#utility.yul\":136:141   */\n      dup2\n        /* \"#utility.yul\":110:142   */\n      tag_22\n      jump\t// in\n    tag_21:\n        /* \"#utility.yul\":7:148   */\n      swap3\n      swap2\n      pop\n      pop\n      jump\t// out\n        /* \"#utility.yul\":154:297   */\n    tag_23:\n        /* \"#utility.yul\":211:216   */\n      0x00\n        /* \"#utility.yul\":242:248   */\n      dup2\n        /* \"#utility.yul\":236:249   */\n      mload\n        /* \"#utility.yul\":227:249   */\n      swap1\n      pop\n        /* \"#utility.yul\":258:291   */\n      tag_25\n        /* \"#utility.yul\":285:290   */\n      dup2\n        /* \"#utility.yul\":258:291   */\n      tag_26\n      jump\t// in\n    tag_25:\n        /* \"#utility.yul\":154:297   */\n      swap3\n      swap2\n      pop\n      pop\n      jump\t// out\n        /* \"#utility.yul\":303:444   */\n    tag_27:\n        /* \"#utility.yul\":359:364   */\n      0x00\n        /* \"#utility.yul\":390:396   */\n      dup2\n        /* \"#utility.yul\":384:397   */\n      mload\n        /* \"#utility.yul\":375:397   */\n      swap1\n      pop\n        /* \"#utility.yul\":406:438   */\n      tag_29\n        /* \"#utility.yul\":432:437   */\n      dup2\n        /* \"#utility.yul\":406:438   */\n      tag_30\n      jump\t// in\n    tag_29:\n        /* \"#utility.yul\":303:444   */\n      swap3\n      swap2\n      pop\n      pop\n      jump\t// out\n        /* \"#utility.yul\":450:1421   */\n    tag_13:\n        /* \"#utility.yul\":553:559   */\n      0x00\n        /* \"#utility.yul\":561:567   */\n      dup1\n        /* \"#utility.yul\":569:575   */\n      0x00\n        /* \"#utility.yul\":577:583   */\n      dup1\n        /* \"#utility.yul\":585:591   */\n      0x00\n        /* \"#utility.yul\":634:637   */\n      0xa0\n        /* \"#utility.yul\":622:631   */\n      dup7\n        /* \"#utility.yul\":613:620   */\n      dup9\n        /* \"#utility.yul\":609:632   */\n      sub\n        /* \"#utility.yul\":605:638   */\n      slt\n        /* \"#utility.yul\":602:722   */\n      iszero\n      tag_32\n      jumpi\n        /* \"#utility.yul\":641:720   */\n      tag_33\n      tag_34\n      jump\t// in\n    tag_33:\n        /* \"#utility.yul\":602:722   */\n    tag_32:\n        /* \"#utility.yul\":761:762   */\n      0x00\n        /* \"#utility.yul\":786:849   */\n      tag_35\n        /* \"#utility.yul\":841:848   */\n      dup9\n        /* \"#utility.yul\":832:838   */\n      dup3\n        /* \"#utility.yul\":821:830   */\n      dup10\n        /* \"#utility.yul\":817:839   */\n      add\n        /* \"#utility.yul\":786:849   */\n      tag_27\n      jump\t// in\n    tag_35:\n        /* \"#utility.yul\":776:849   */\n      swap6\n      pop\n        /* \"#utility.yul\":732:859   */\n      pop\n        /* \"#utility.yul\":898:900   */\n      0x20\n        /* \"#utility.yul\":924:987   */\n      tag_36\n        /* \"#utility.yul\":979:986   */\n      dup9\n        /* \"#utility.yul\":970:976   */\n      dup3\n        /* \"#utility.yul\":959:968   */\n      dup10\n        /* \"#utility.yul\":955:977   */\n      add\n        /* \"#utility.yul\":924:987   */\n      tag_19\n      jump\t// in\n    tag_36:\n        /* \"#utility.yul\":914:987   */\n      swap5\n      pop\n        /* \"#utility.yul\":869:997   */\n      pop\n        /* \"#utility.yul\":1036:1038   */\n      0x40\n        /* \"#utility.yul\":1062:1126   */\n      tag_37\n        /* \"#utility.yul\":1118:1125   */\n      dup9\n        /* \"#utility.yul\":1109:1115   */\n      dup3\n        /* \"#utility.yul\":1098:1107   */\n      dup10\n        /* \"#utility.yul\":1094:1116   */\n      add\n        /* \"#utility.yul\":1062:1126   */\n      tag_23\n      jump\t// in\n    tag_37:\n        /* \"#utility.yul\":1052:1126   */\n      swap4\n      pop\n        /* \"#utility.yul\":1007:1136   */\n      pop\n        /* \"#utility.yul\":1175:1177   */\n      0x60\n        /* \"#utility.yul\":1201:1265   */\n      tag_38\n        /* \"#utility.yul\":1257:1264   */\n      dup9\n        /* \"#utility.yul\":1248:1254   */\n      dup3\n        /* \"#utility.yul\":1237:1246   */\n      dup10\n        /* \"#utility.yul\":1233:1255   */\n      add\n        /* \"#utility.yul\":1201:1265   */\n      tag_23\n      jump\t// in\n    tag_38:\n        /* \"#utility.yul\":1191:1265   */\n      swap3\n      pop\n        /* \"#utility.yul\":1146:1275   */\n      pop\n        /* \"#utility.yul\":1314:1317   */\n      0x80\n        /* \"#utility.yul\":1341:1404   */\n      tag_39\n        /* \"#utility.yul\":1396:1403   */\n      dup9\n        /* \"#utility.yul\":1387:1393   */\n      dup3\n        /* \"#utility.yul\":1376:1385   */\n      dup10\n        /* \"#utility.yul\":1372:1394   */\n      add\n        /* \"#utility.yul\":1341:1404   */\n      tag_27\n      jump\t// in\n    tag_39:\n        /* \"#utility.yul\":1331:1404   */\n      swap2\n      pop\n        /* \"#utility.yul\":1285:1414   */\n      pop\n        /* \"#utility.yul\":450:1421   */\n      swap3\n      swap6\n      pop\n      swap3\n      swap6\n      swap1\n      swap4\n      pop\n      jump\t// out\n        /* \"#utility.yul\":1427:1545   */\n    tag_40:\n        /* \"#utility.yul\":1514:1538   */\n      tag_42\n        /* \"#utility.yul\":1532:1537   */\n      dup2\n        /* \"#utility.yul\":1514:1538   */\n      tag_43\n      jump\t// in\n    tag_42:\n        /* \"#utility.yul\":1509:1512   */\n      dup3\n        /* \"#utility.yul\":1502:1539   */\n      mstore\n        /* \"#utility.yul\":1427:1545   */\n      pop\n      pop\n      jump\t// out\n        /* \"#utility.yul\":1551:1773   */\n    tag_7:\n        /* \"#utility.yul\":1644:1648   */\n      0x00\n        /* \"#utility.yul\":1682:1684   */\n      0x20\n        /* \"#utility.yul\":1671:1680   */\n      dup3\n        /* \"#utility.yul\":1667:1685   */\n      add\n        /* \"#utility.yul\":1659:1685   */\n      swap1\n      pop\n        /* \"#utility.yul\":1695:1766   */\n      tag_45\n        /* \"#utility.yul\":1763:1764   */\n      0x00\n        /* \"#utility.yul\":1752:1761   */\n      dup4\n        /* \"#utility.yul\":1748:1765   */\n      add\n        /* \"#utility.yul\":1739:1745   */\n      dup5\n        /* \"#utility.yul\":1695:1766   */\n      tag_40\n      jump\t// in\n    tag_45:\n        /* \"#utility.yul\":1551:1773   */\n      swap3\n      swap2\n      pop\n      pop\n      jump\t// out\n        /* \"#utility.yul\":1860:2045   */\n    tag_17:\n        /* \"#utility.yul\":1900:1901   */\n      0x00\n        /* \"#utility.yul\":1917:1937   */\n      tag_49\n        /* \"#utility.yul\":1935:1936   */\n      dup3\n        /* \"#utility.yul\":1917:1937   */\n      tag_43\n      jump\t// in\n    tag_49:\n        /* \"#utility.yul\":1912:1937   */\n      swap2\n      pop\n        /* \"#utility.yul\":1951:1971   */\n      tag_50\n        /* \"#utility.yul\":1969:1970   */\n      dup4\n        /* \"#utility.yul\":1951:1971   */\n      tag_43\n      jump\t// in\n    tag_50:\n        /* \"#utility.yul\":1946:1971   */\n      swap3\n      pop\n        /* \"#utility.yul\":1990:1991   */\n      dup3\n        /* \"#utility.yul\":1980:2015   */\n      tag_51\n      jumpi\n        /* \"#utility.yul\":1995:2013   */\n      tag_52\n      tag_53\n      jump\t// in\n    tag_52:\n        /* \"#utility.yul\":1980:2015   */\n    tag_51:\n        /* \"#utility.yul\":2037:2038   */\n      dup3\n        /* \"#utility.yul\":2034:2035   */\n      dup3\n        /* \"#utility.yul\":2030:2039   */\n      div\n        /* \"#utility.yul\":2025:2039   */\n      swap1\n      pop\n        /* \"#utility.yul\":1860:2045   */\n      swap3\n      swap2\n      pop\n      pop\n      jump\t// out\n        /* \"#utility.yul\":2051:2399   */\n    tag_15:\n        /* \"#utility.yul\":2091:2098   */\n      0x00\n        /* \"#utility.yul\":2114:2134   */\n      tag_55\n        /* \"#utility.yul\":2132:2133   */\n      dup3\n        /* \"#utility.yul\":2114:2134   */\n      tag_43\n      jump\t// in\n    tag_55:\n        /* \"#utility.yul\":2109:2134   */\n      swap2\n      pop\n        /* \"#utility.yul\":2148:2168   */\n      tag_56\n        /* \"#utility.yul\":2166:2167   */\n      dup4\n        /* \"#utility.yul\":2148:2168   */\n      tag_43\n      jump\t// in\n    tag_56:\n        /* \"#utility.yul\":2143:2168   */\n      swap3\n      pop\n        /* \"#utility.yul\":2336:2337   */\n      dup2\n        /* \"#utility.yul\":2268:2334   */\n      0xffffffffffffffffffffffffffffffffffffffffffffffffffffffffffffffff\n        /* \"#utility.yul\":2264:2338   */\n      div\n        /* \"#utility.yul\":2261:2262   */\n      dup4\n        /* \"#utility.yul\":2258:2339   */\n      gt\n        /* \"#utility.yul\":2253:2254   */\n      dup3\n        /* \"#utility.yul\":2246:2255   */\n      iszero\n        /* \"#utility.yul\":2239:2256   */\n      iszero\n        /* \"#utility.yul\":2235:2340   */\n      and\n        /* \"#utility.yul\":2232:2363   */\n      iszero\n      tag_57\n      jumpi\n        /* \"#utility.yul\":2343:2361   */\n      tag_58\n      tag_59\n      jump\t// in\n    tag_58:\n        /* \"#utility.yul\":2232:2363   */\n    tag_57:\n        /* \"#utility.yul\":2391:2392   */\n      dup3\n        /* \"#utility.yul\":2388:2389   */\n      dup3\n        /* \"#utility.yul\":2384:2393   */\n      mul\n        /* \"#utility.yul\":2373:2393   */\n      swap1\n      pop\n        /* \"#utility.yul\":2051:2399   */\n      swap3\n      swap2\n      pop\n      pop\n      jump\t// out\n        /* \"#utility.yul\":2405:2481   */\n    tag_60:\n        /* \"#utility.yul\":2441:2448   */\n      0x00\n        /* \"#utility.yul\":2470:2475   */\n      dup2\n        /* \"#utility.yul\":2459:2475   */\n      swap1\n      pop\n        /* \"#utility.yul\":2405:2481   */\n      swap2\n      swap1\n      pop\n      jump\t// out\n        /* \"#utility.yul\":2487:2564   */\n    tag_43:\n        /* \"#utility.yul\":2524:2531   */\n      0x00\n        /* \"#utility.yul\":2553:2558   */\n      dup2\n        /* \"#utility.yul\":2542:2558   */\n      swap1\n      pop\n        /* \"#utility.yul\":2487:2564   */\n      swap2\n      swap1\n      pop\n      jump\t// out\n        /* \"#utility.yul\":2570:2675   */\n    tag_63:\n        /* \"#utility.yul\":2606:2613   */\n      0x00\n        /* \"#utility.yul\":2646:2668   */\n      0xffffffffffffffffffff\n        /* \"#utility.yul\":2639:2644   */\n      dup3\n        /* \"#utility.yul\":2635:2669   */\n      and\n        /* \"#utility.yul\":2624:2669   */\n      swap1\n      pop\n        /* \"#utility.yul\":2570:2675   */\n      swap2\n      swap1\n      pop\n      jump\t// out\n        /* \"#utility.yul\":2681:2861   */\n    tag_59:\n        /* \"#utility.yul\":2729:2806   */\n      0x4e487b7100000000000000000000000000000000000000000000000000000000\n        /* \"#utility.yul\":2726:2727   */\n      0x00\n        /* \"#utility.yul\":2719:2807   */\n      mstore\n        /* \"#utility.yul\":2826:2830   */\n      0x11\n        /* \"#utility.yul\":2823:2824   */\n      0x04\n        /* \"#utility.yul\":2816:2831   */\n      mstore\n        /* \"#utility.yul\":2850:2854   */\n      0x24\n        /* \"#utility.yul\":2847:2848   */\n      0x00\n        /* \"#utility.yul\":2840:2855   */\n      revert\n        /* \"#utility.yul\":2867:3047   */\n    tag_53:\n        /* \"#utility.yul\":2915:2992   */\n      0x4e487b7100000000000000000000000000000000000000000000000000000000\n        /* \"#utility.yul\":2912:2913   */\n      0x00\n        /* \"#utility.yul\":2905:2993   */\n      mstore\n        /* \"#utility.yul\":3012:3016   */\n      0x12\n        /* \"#utility.yul\":3009:3010   */\n      0x04\n        /* \"#utility.yul\":3002:3017   */\n      mstore\n        /* \"#utility.yul\":3036:3040   */\n      0x24\n        /* \"#utility.yul\":3033:3034   */\n      0x00\n        /* \"#utility.yul\":3026:3041   */\n      revert\n        /* \"#utility.yul\":3176:3293   */\n    tag_34:\n        /* \"#utility.yul\":3285:3286   */\n      0x00\n        /* \"#utility.yul\":3282:3283   */\n      dup1\n        /* \"#utility.yul\":3275:3287   */\n      revert\n        /* \"#utility.yul\":3299:3419   */\n    tag_22:\n        /* \"#utility.yul\":3371:3394   */\n      tag_71\n        /* \"#utility.yul\":3388:3393   */\n      dup2\n        /* \"#utility.yul\":3371:3394   */\n      tag_60\n      jump\t// in\n    tag_71:\n        /* \"#utility.yul\":3364:3369   */\n      dup2\n        /* \"#utility.yul\":3361:3395   */\n      eq\n        /* \"#utility.yul\":3351:3413   */\n      tag_72\n      jumpi\n        /* \"#utility.yul\":3409:3410   */\n      0x00\n        /* \"#utility.yul\":3406:3407   */\n      dup1\n        /* \"#utility.yul\":3399:3411   */\n      revert\n        /* \"#utility.yul\":3351:3413   */\n    tag_72:\n        /* \"#utility.yul\":3299:3419   */\n      pop\n      jump\t// out\n        /* \"#utility.yul\":3425:3547   */\n    tag_26:\n        /* \"#utility.yul\":3498:3522   */\n      tag_74\n        /* \"#utility.yul\":3516:3521   */\n      dup2\n        /* \"#utility.yul\":3498:3522   */\n      tag_43\n      jump\t// in\n    tag_74:\n        /* \"#utility.yul\":3491:3496   */\n      dup2\n        /* \"#utility.yul\":3488:3523   */\n      eq\n        /* \"#utility.yul\":3478:3541   */\n      tag_75\n      jumpi\n        /* \"#utility.yul\":3537:3538   */\n      0x00\n        /* \"#utility.yul\":3534:3535   */\n      dup1\n        /* \"#utility.yul\":3527:3539   */\n      revert\n        /* \"#utility.yul\":3478:3541   */\n    tag_75:\n        /* \"#utility.yul\":3425:3547   */\n      pop\n      jump\t// out\n        /* \"#utility.yul\":3553:3673   */\n    tag_30:\n        /* \"#utility.yul\":3625:3648   */\n      tag_77\n        /* \"#utility.yul\":3642:3647   */\n      dup2\n        /* \"#utility.yul\":3625:3648   */\n      tag_63\n      jump\t// in\n    tag_77:\n        /* \"#utility.yul\":3618:3623   */\n      dup2\n        /* \"#utility.yul\":3615:3649   */\n      eq\n        /* \"#utility.yul\":3605:3667   */\n      tag_78\n      jumpi\n        /* \"#utility.yul\":3663:3664   */\n      0x00\n        /* \"#utility.yul\":3660:3661   */\n      dup1\n        /* \"#utility.yul\":3653:3665   */\n      revert\n        /* \"#utility.yul\":3605:3667   */\n    tag_78:\n        /* \"#utility.yul\":3553:3673   */\n      pop\n      jump\t// out\n\n    auxdata: 0xa264697066735822122087b2183b734d6a066627b3a4f31be9b6914d0b6e03b2d727b3e6a260e0572c5664736f6c63430008070033\n}\n",
				"bytecode": {
					"linkReferences": {},
					"object": "6080604052601660015534801561001557600080fd5b507313e3ee699d1909e989722e753853ae30b17e08c56000806101000a81548173ffffffffffffffffffffffffffffffffffffffff021916908373ffffffffffffffffffffffffffffffffffffffff160217905550610395806100796000396000f3fe608060405234801561001057600080fd5b506004361061002b5760003560e01c806341b3368014610030575b600080fd5b61003861004e565b60405161004591906101e7565b60405180910390f35b60008060008054906101000a900473ffffffffffffffffffffffffffffffffffffffff1673ffffffffffffffffffffffffffffffffffffffff1663feaf968c6040518163ffffffff1660e01b815260040160a06040518083038186803b1580156100b757600080fd5b505afa1580156100cb573d6000803e3d6000fd5b505050506040513d601f19601f820116820180604052508101906100ef919061015d565b50505091505060008190506305f5e1006001548261010d9190610233565b6101179190610202565b9250505090565b60008151905061012d8161031a565b92915050565b60008151905061014281610331565b92915050565b60008151905061015781610348565b92915050565b600080600080600060a0868803121561017957610178610315565b5b600061018788828901610148565b95505060206101988882890161011e565b94505060406101a988828901610133565b93505060606101ba88828901610133565b92505060806101cb88828901610148565b9150509295509295909350565b6101e181610297565b82525050565b60006020820190506101fc60008301846101d8565b92915050565b600061020d82610297565b915061021883610297565b925082610228576102276102e6565b5b828204905092915050565b600061023e82610297565b915061024983610297565b9250817fffffffffffffffffffffffffffffffffffffffffffffffffffffffffffffffff0483118215151615610282576102816102b7565b5b828202905092915050565b6000819050919050565b6000819050919050565b600069ffffffffffffffffffff82169050919050565b7f4e487b7100000000000000000000000000000000000000000000000000000000600052601160045260246000fd5b7f4e487b7100000000000000000000000000000000000000000000000000000000600052601260045260246000fd5b600080fd5b6103238161028d565b811461032e57600080fd5b50565b61033a81610297565b811461034557600080fd5b50565b610351816102a1565b811461035c57600080fd5b5056fea264697066735822122087b2183b734d6a066627b3a4f31be9b6914d0b6e03b2d727b3e6a260e0572c5664736f6c63430008070033",
					"opcodes": "PUSH1 0x80 PUSH1 0x40 MSTORE PUSH1 0x16 PUSH1 0x1 SSTORE CALLVALUE DUP1 ISZERO PUSH2 0x15 JUMPI PUSH1 0x0 DUP1 REVERT JUMPDEST POP PUSH20 0x13E3EE699D1909E989722E753853AE30B17E08C5 PUSH1 0x0 DUP1 PUSH2 0x100 EXP DUP2 SLOAD DUP2 PUSH20 0xFFFFFFFFFFFFFFFFFFFFFFFFFFFFFFFFFFFFFFFF MUL NOT AND SWAP1 DUP4 PUSH20 0xFFFFFFFFFFFFFFFFFFFFFFFFFFFFFFFFFFFFFFFF AND MUL OR SWAP1 SSTORE POP PUSH2 0x395 DUP1 PUSH2 0x79 PUSH1 0x0 CODECOPY PUSH1 0x0 RETURN INVALID PUSH1 0x80 PUSH1 0x40 MSTORE CALLVALUE DUP1 ISZERO PUSH2 0x10 JUMPI PUSH1 0x0 DUP1 REVERT JUMPDEST POP PUSH1 0x4 CALLDATASIZE LT PUSH2 0x2B JUMPI PUSH1 0x0 CALLDATALOAD PUSH1 0xE0 SHR DUP1 PUSH4 0x41B33680 EQ PUSH2 0x30 JUMPI JUMPDEST PUSH1 0x0 DUP1 REVERT JUMPDEST PUSH2 0x38 PUSH2 0x4E JUMP JUMPDEST PUSH1 0x40 MLOAD PUSH2 0x45 SWAP2 SWAP1 PUSH2 0x1E7 JUMP JUMPDEST PUSH1 0x40 MLOAD DUP1 SWAP2 SUB SWAP1 RETURN JUMPDEST PUSH1 0x0 DUP1 PUSH1 0x0 DUP1 SLOAD SWAP1 PUSH2 0x100 EXP SWAP1 DIV PUSH20 0xFFFFFFFFFFFFFFFFFFFFFFFFFFFFFFFFFFFFFFFF AND PUSH20 0xFFFFFFFFFFFFFFFFFFFFFFFFFFFFFFFFFFFFFFFF AND PUSH4 0xFEAF968C PUSH1 0x40 MLOAD DUP2 PUSH4 0xFFFFFFFF AND PUSH1 0xE0 SHL DUP2 MSTORE PUSH1 0x4 ADD PUSH1 0xA0 PUSH1 0x40 MLOAD DUP1 DUP4 SUB DUP2 DUP7 DUP1 EXTCODESIZE ISZERO DUP1 ISZERO PUSH2 0xB7 JUMPI PUSH1 0x0 DUP1 REVERT JUMPDEST POP GAS STATICCALL ISZERO DUP1 ISZERO PUSH2 0xCB JUMPI RETURNDATASIZE PUSH1 0x0 DUP1 RETURNDATACOPY RETURNDATASIZE PUSH1 0x0 REVERT JUMPDEST POP POP POP POP PUSH1 0x40 MLOAD RETURNDATASIZE PUSH1 0x1F NOT PUSH1 0x1F DUP3 ADD AND DUP3 ADD DUP1 PUSH1 0x40 MSTORE POP DUP2 ADD SWAP1 PUSH2 0xEF SWAP2 SWAP1 PUSH2 0x15D JUMP JUMPDEST POP POP POP SWAP2 POP POP PUSH1 0x0 DUP2 SWAP1 POP PUSH4 0x5F5E100 PUSH1 0x1 SLOAD DUP3 PUSH2 0x10D SWAP2 SWAP1 PUSH2 0x233 JUMP JUMPDEST PUSH2 0x117 SWAP2 SWAP1 PUSH2 0x202 JUMP JUMPDEST SWAP3 POP POP POP SWAP1 JUMP JUMPDEST PUSH1 0x0 DUP2 MLOAD SWAP1 POP PUSH2 0x12D DUP2 PUSH2 0x31A JUMP JUMPDEST SWAP3 SWAP2 POP POP JUMP JUMPDEST PUSH1 0x0 DUP2 MLOAD SWAP1 POP PUSH2 0x142 DUP2 PUSH2 0x331 JUMP JUMPDEST SWAP3 SWAP2 POP POP JUMP JUMPDEST PUSH1 0x0 DUP2 MLOAD SWAP1 POP PUSH2 0x157 DUP2 PUSH2 0x348 JUMP JUMPDEST SWAP3 SWAP2 POP POP JUMP JUMPDEST PUSH1 0x0 DUP1 PUSH1 0x0 DUP1 PUSH1 0x0 PUSH1 0xA0 DUP7 DUP9 SUB SLT ISZERO PUSH2 0x179 JUMPI PUSH2 0x178 PUSH2 0x315 JUMP JUMPDEST JUMPDEST PUSH1 0x0 PUSH2 0x187 DUP9 DUP3 DUP10 ADD PUSH2 0x148 JUMP JUMPDEST SWAP6 POP POP PUSH1 0x20 PUSH2 0x198 DUP9 DUP3 DUP10 ADD PUSH2 0x11E JUMP JUMPDEST SWAP5 POP POP PUSH1 0x40 PUSH2 0x1A9 DUP9 DUP3 DUP10 ADD PUSH2 0x133 JUMP JUMPDEST SWAP4 POP POP PUSH1 0x60 PUSH2 0x1BA DUP9 DUP3 DUP10 ADD PUSH2 0x133 JUMP JUMPDEST SWAP3 POP POP PUSH1 0x80 PUSH2 0x1CB DUP9 DUP3 DUP10 ADD PUSH2 0x148 JUMP JUMPDEST SWAP2 POP POP SWAP3 SWAP6 POP SWAP3 SWAP6 SWAP1 SWAP4 POP JUMP JUMPDEST PUSH2 0x1E1 DUP2 PUSH2 0x297 JUMP JUMPDEST DUP3 MSTORE POP POP JUMP JUMPDEST PUSH1 0x0 PUSH1 0x20 DUP3 ADD SWAP1 POP PUSH2 0x1FC PUSH1 0x0 DUP4 ADD DUP5 PUSH2 0x1D8 JUMP JUMPDEST SWAP3 SWAP2 POP POP JUMP JUMPDEST PUSH1 0x0 PUSH2 0x20D DUP3 PUSH2 0x297 JUMP JUMPDEST SWAP2 POP PUSH2 0x218 DUP4 PUSH2 0x297 JUMP JUMPDEST SWAP3 POP DUP3 PUSH2 0x228 JUMPI PUSH2 0x227 PUSH2 0x2E6 JUMP JUMPDEST JUMPDEST DUP3 DUP3 DIV SWAP1 POP SWAP3 SWAP2 POP POP JUMP JUMPDEST PUSH1 0x0 PUSH2 0x23E DUP3 PUSH2 0x297 JUMP JUMPDEST SWAP2 POP PUSH2 0x249 DUP4 PUSH2 0x297 JUMP JUMPDEST SWAP3 POP DUP2 PUSH32 0xFFFFFFFFFFFFFFFFFFFFFFFFFFFFFFFFFFFFFFFFFFFFFFFFFFFFFFFFFFFFFFFF DIV DUP4 GT DUP3 ISZERO ISZERO AND ISZERO PUSH2 0x282 JUMPI PUSH2 0x281 PUSH2 0x2B7 JUMP JUMPDEST JUMPDEST DUP3 DUP3 MUL SWAP1 POP SWAP3 SWAP2 POP POP JUMP JUMPDEST PUSH1 0x0 DUP2 SWAP1 POP SWAP2 SWAP1 POP JUMP JUMPDEST PUSH1 0x0 DUP2 SWAP1 POP SWAP2 SWAP1 POP JUMP JUMPDEST PUSH1 0x0 PUSH10 0xFFFFFFFFFFFFFFFFFFFF DUP3 AND SWAP1 POP SWAP2 SWAP1 POP JUMP JUMPDEST PUSH32 0x4E487B7100000000000000000000000000000000000000000000000000000000 PUSH1 0x0 MSTORE PUSH1 0x11 PUSH1 0x4 MSTORE PUSH1 0x24 PUSH1 0x0 REVERT JUMPDEST PUSH32 0x4E487B7100000000000000000000000000000000000000000000000000000000 PUSH1 0x0 MSTORE PUSH1 0x12 PUSH1 0x4 MSTORE PUSH1 0x24 PUSH1 0x0 REVERT JUMPDEST PUSH1 0x0 DUP1 REVERT JUMPDEST PUSH2 0x323 DUP2 PUSH2 0x28D JUMP JUMPDEST DUP2 EQ PUSH2 0x32E JUMPI PUSH1 0x0 DUP1 REVERT JUMPDEST POP JUMP JUMPDEST PUSH2 0x33A DUP2 PUSH2 0x297 JUMP JUMPDEST DUP2 EQ PUSH2 0x345 JUMPI PUSH1 0x0 DUP1 REVERT JUMPDEST POP JUMP JUMPDEST PUSH2 0x351 DUP2 PUSH2 0x2A1 JUMP JUMPDEST DUP2 EQ PUSH2 0x35C JUMPI PUSH1 0x0 DUP1 REVERT JUMPDEST POP JUMP INVALID LOG2 PUSH5 0x6970667358 0x22 SLT KECCAK256 DUP8 0xB2 XOR EXTCODESIZE PUSH20 0x4D6A066627B3A4F31BE9B6914D0B6E03B2D727B3 0xE6 LOG2 PUSH1 0xE0 JUMPI 0x2C JUMP PUSH5 0x736F6C6343 STOP ADDMOD SMOD STOP CALLER "
				},
				"gasEstimates": {
					"creation": {
						"codeDepositCost": "183400",
						"executionCost": "46599",
						"totalCost": "229999"
					},
					"external": {
						"getEthPriceCZK()": "infinite"
					}
				},
				"methodIdentifiers": {
					"getEthPriceCZK()": "41b33680"
				}
			},
			"storageLayout": {
				"storage": [
					{
						"astId": 51,
						"contract": "contracts/price_feed_experiment.sol:PriceConsumerV3",
						"label": "priceFeed",
						"offset": 0,
						"slot": "0",
						"type": "t_contract(AggregatorV3Interface)45"
					},
					{
						"astId": 54,
						"contract": "contracts/price_feed_experiment.sol:PriceConsumerV3",
						"label": "USDinCZK",
						"offset": 0,
						"slot": "1",
						"type": "t_uint256"
					}
				],
				"types": {
					"t_contract(AggregatorV3Interface)45": {
						"encoding": "inplace",
						"label": "contract AggregatorV3Interface",
						"numberOfBytes": "20"
					},
					"t_uint256": {
						"encoding": "inplace",
						"label": "uint256",
						"numberOfBytes": "32"
					}
				}
			},
			"userdoc": {
				"kind": "user",
				"methods": {
					"constructor": {
						"notice": "Network: Optimism Aggregator: ETH/USD Address: 0x13e3Ee699D1909E989722E753853AE30b17e08c5"
					}
				},
				"version": 1
			}
		}
	}
}