{
	"contracts/coin_development.sol": {
		"StableCoin": {
			"abi": [
				{
					"inputs": [],
					"stateMutability": "nonpayable",
					"type": "constructor"
				},
				{
					"anonymous": false,
					"inputs": [
						{
							"indexed": true,
							"internalType": "address",
							"name": "tokenOwner",
							"type": "address"
						},
						{
							"indexed": true,
							"internalType": "address",
							"name": "spender",
							"type": "address"
						},
						{
							"indexed": false,
							"internalType": "uint256",
							"name": "tokens",
							"type": "uint256"
						}
					],
					"name": "Approval",
					"type": "event"
				},
				{
					"anonymous": false,
					"inputs": [
						{
							"indexed": true,
							"internalType": "address",
							"name": "from",
							"type": "address"
						},
						{
							"indexed": true,
							"internalType": "address",
							"name": "to",
							"type": "address"
						},
						{
							"indexed": false,
							"internalType": "uint256",
							"name": "tokens",
							"type": "uint256"
						}
					],
					"name": "Transfer",
					"type": "event"
				},
				{
					"inputs": [
						{
							"internalType": "address",
							"name": "",
							"type": "address"
						},
						{
							"internalType": "address",
							"name": "",
							"type": "address"
						}
					],
					"name": "allowance",
					"outputs": [
						{
							"internalType": "uint256",
							"name": "",
							"type": "uint256"
						}
					],
					"stateMutability": "view",
					"type": "function"
				},
				{
					"inputs": [
						{
							"internalType": "address",
							"name": "delegate",
							"type": "address"
						},
						{
							"internalType": "uint256",
							"name": "numTokens",
							"type": "uint256"
						}
					],
					"name": "approve",
					"outputs": [
						{
							"internalType": "bool",
							"name": "",
							"type": "bool"
						}
					],
					"stateMutability": "nonpayable",
					"type": "function"
				},
				{
					"inputs": [
						{
							"internalType": "address",
							"name": "",
							"type": "address"
						}
					],
					"name": "balanceOf",
					"outputs": [
						{
							"internalType": "uint256",
							"name": "",
							"type": "uint256"
						}
					],
					"stateMutability": "view",
					"type": "function"
				},
				{
					"inputs": [
						{
							"internalType": "address",
							"name": "usr",
							"type": "address"
						},
						{
							"internalType": "uint256",
							"name": "wad",
							"type": "uint256"
						}
					],
					"name": "burn",
					"outputs": [],
					"stateMutability": "nonpayable",
					"type": "function"
				},
				{
					"inputs": [],
					"name": "decimals",
					"outputs": [
						{
							"internalType": "uint8",
							"name": "",
							"type": "uint8"
						}
					],
					"stateMutability": "view",
					"type": "function"
				},
				{
					"inputs": [
						{
							"internalType": "address",
							"name": "usr",
							"type": "address"
						},
						{
							"internalType": "uint256",
							"name": "wad",
							"type": "uint256"
						}
					],
					"name": "mint",
					"outputs": [],
					"stateMutability": "nonpayable",
					"type": "function"
				},
				{
					"inputs": [],
					"name": "name",
					"outputs": [
						{
							"internalType": "string",
							"name": "",
							"type": "string"
						}
					],
					"stateMutability": "view",
					"type": "function"
				},
				{
					"inputs": [
						{
							"internalType": "address",
							"name": "",
							"type": "address"
						}
					],
					"name": "nonces",
					"outputs": [
						{
							"internalType": "uint256",
							"name": "",
							"type": "uint256"
						}
					],
					"stateMutability": "view",
					"type": "function"
				},
				{
					"inputs": [],
					"name": "symbol",
					"outputs": [
						{
							"internalType": "string",
							"name": "",
							"type": "string"
						}
					],
					"stateMutability": "view",
					"type": "function"
				},
				{
					"inputs": [],
					"name": "totalSupply",
					"outputs": [
						{
							"internalType": "uint256",
							"name": "",
							"type": "uint256"
						}
					],
					"stateMutability": "view",
					"type": "function"
				},
				{
					"inputs": [
						{
							"internalType": "address",
							"name": "receiver",
							"type": "address"
						},
						{
							"internalType": "uint256",
							"name": "numTokens",
							"type": "uint256"
						}
					],
					"name": "transfer",
					"outputs": [
						{
							"internalType": "bool",
							"name": "",
							"type": "bool"
						}
					],
					"stateMutability": "nonpayable",
					"type": "function"
				},
				{
					"inputs": [
						{
							"internalType": "address",
							"name": "owner",
							"type": "address"
						},
						{
							"internalType": "address",
							"name": "buyer",
							"type": "address"
						},
						{
							"internalType": "uint256",
							"name": "numTokens",
							"type": "uint256"
						}
					],
					"name": "transferFrom",
					"outputs": [
						{
							"internalType": "bool",
							"name": "",
							"type": "bool"
						}
					],
					"stateMutability": "nonpayable",
					"type": "function"
				},
				{
					"inputs": [],
					"name": "version",
					"outputs": [
						{
							"internalType": "string",
							"name": "",
							"type": "string"
						}
					],
					"stateMutability": "view",
					"type": "function"
				},
				{
					"inputs": [
						{
							"internalType": "address",
							"name": "",
							"type": "address"
						}
					],
					"name": "wards",
					"outputs": [
						{
							"internalType": "uint256",
							"name": "",
							"type": "uint256"
						}
					],
					"stateMutability": "view",
					"type": "function"
				}
			],
			"devdoc": {
				"kind": "dev",
				"methods": {},
				"version": 1
			},
			"evm": {
				"assembly": "    /* \"contracts/coin_development.sol\":76:2738  contract StableCoin \r... */\n  mstore(0x40, 0x80)\n    /* \"contracts/coin_development.sol\":1078:1164  constructor() \r... */\n  callvalue\n  dup1\n  iszero\n  tag_1\n  jumpi\n  0x00\n  dup1\n  revert\ntag_1:\n  pop\n    /* \"contracts/coin_development.sol\":1129:1130  1 */\n  0x01\n    /* \"contracts/coin_development.sol\":1109:1114  wards */\n  0x00\n    /* \"contracts/coin_development.sol\":1109:1126  wards[msg.sender] */\n  dup1\n    /* \"contracts/coin_development.sol\":1115:1125  msg.sender */\n  caller\n    /* \"contracts/coin_development.sol\":1109:1126  wards[msg.sender] */\n  0xffffffffffffffffffffffffffffffffffffffff\n  and\n  0xffffffffffffffffffffffffffffffffffffffff\n  and\n  dup2\n  mstore\n  0x20\n  add\n  swap1\n  dup2\n  mstore\n  0x20\n  add\n  0x00\n  keccak256\n    /* \"contracts/coin_development.sol\":1109:1130  wards[msg.sender] = 1 */\n  dup2\n  swap1\n  sstore\n  pop\n    /* \"contracts/coin_development.sol\":1155:1156  0 */\n  0x00\n    /* \"contracts/coin_development.sol\":1141:1152  totalSupply */\n  0x01\n    /* \"contracts/coin_development.sol\":1141:1156  totalSupply = 0 */\n  dup2\n  swap1\n  sstore\n  pop\n    /* \"contracts/coin_development.sol\":76:2738  contract StableCoin \r... */\n  dataSize(sub_0)\n  dup1\n  dataOffset(sub_0)\n  0x00\n  codecopy\n  0x00\n  return\nstop\n\nsub_0: assembly {\n        /* \"contracts/coin_development.sol\":76:2738  contract StableCoin \r... */\n      mstore(0x40, 0x80)\n      callvalue\n      dup1\n      iszero\n      tag_1\n      jumpi\n      0x00\n      dup1\n      revert\n    tag_1:\n      pop\n      jumpi(tag_2, lt(calldatasize, 0x04))\n      shr(0xe0, calldataload(0x00))\n      dup1\n      0x70a08231\n      gt\n      tag_17\n      jumpi\n      dup1\n      0x9dc29fac\n      gt\n      tag_18\n      jumpi\n      dup1\n      0x9dc29fac\n      eq\n      tag_13\n      jumpi\n      dup1\n      0xa9059cbb\n      eq\n      tag_14\n      jumpi\n      dup1\n      0xbf353dbb\n      eq\n      tag_15\n      jumpi\n      dup1\n      0xdd62ed3e\n      eq\n      tag_16\n      jumpi\n      jump(tag_2)\n    tag_18:\n      dup1\n      0x70a08231\n      eq\n      tag_10\n      jumpi\n      dup1\n      0x7ecebe00\n      eq\n      tag_11\n      jumpi\n      dup1\n      0x95d89b41\n      eq\n      tag_12\n      jumpi\n      jump(tag_2)\n    tag_17:\n      dup1\n      0x23b872dd\n      gt\n      tag_19\n      jumpi\n      dup1\n      0x23b872dd\n      eq\n      tag_6\n      jumpi\n      dup1\n      0x313ce567\n      eq\n      tag_7\n      jumpi\n      dup1\n      0x40c10f19\n      eq\n      tag_8\n      jumpi\n      dup1\n      0x54fd4d50\n      eq\n      tag_9\n      jumpi\n      jump(tag_2)\n    tag_19:\n      dup1\n      0x06fdde03\n      eq\n      tag_3\n      jumpi\n      dup1\n      0x095ea7b3\n      eq\n      tag_4\n      jumpi\n      dup1\n      0x18160ddd\n      eq\n      tag_5\n      jumpi\n    tag_2:\n      0x00\n      dup1\n      revert\n        /* \"contracts/coin_development.sol\":279:319  string public constant name = \"DotaCoin\" */\n    tag_3:\n      tag_20\n      tag_21\n      jump\t// in\n    tag_20:\n      mload(0x40)\n      tag_22\n      swap2\n      swap1\n      tag_23\n      jump\t// in\n    tag_22:\n      mload(0x40)\n      dup1\n      swap2\n      sub\n      swap1\n      return\n        /* \"contracts/coin_development.sol\":1836:2056  function approve(address delegate, uint numTokens) public returns (bool) \r... */\n    tag_4:\n      tag_24\n      0x04\n      dup1\n      calldatasize\n      sub\n      dup2\n      add\n      swap1\n      tag_25\n      swap2\n      swap1\n      tag_26\n      jump\t// in\n    tag_25:\n      tag_27\n      jump\t// in\n    tag_24:\n      mload(0x40)\n      tag_28\n      swap2\n      swap1\n      tag_29\n      jump\t// in\n    tag_28:\n      mload(0x40)\n      dup1\n      swap2\n      sub\n      swap1\n      return\n        /* \"contracts/coin_development.sol\":454:480  uint256 public totalSupply */\n    tag_5:\n      tag_30\n      tag_31\n      jump\t// in\n    tag_30:\n      mload(0x40)\n      tag_32\n      swap2\n      swap1\n      tag_33\n      jump\t// in\n    tag_32:\n      mload(0x40)\n      dup1\n      swap2\n      sub\n      swap1\n      return\n        /* \"contracts/coin_development.sol\":1331:1828  function transferFrom(address owner, address buyer, uint numTokens) public returns (bool) \r... */\n    tag_6:\n      tag_34\n      0x04\n      dup1\n      calldatasize\n      sub\n      dup2\n      add\n      swap1\n      tag_35\n      swap2\n      swap1\n      tag_36\n      jump\t// in\n    tag_35:\n      tag_37\n      jump\t// in\n    tag_34:\n      mload(0x40)\n      tag_38\n      swap2\n      swap1\n      tag_29\n      jump\t// in\n    tag_38:\n      mload(0x40)\n      dup1\n      swap2\n      sub\n      swap1\n      return\n        /* \"contracts/coin_development.sol\":413:447  uint8 public constant decimals = 0 */\n    tag_7:\n      tag_39\n      tag_40\n      jump\t// in\n    tag_39:\n      mload(0x40)\n      tag_41\n      swap2\n      swap1\n      tag_42\n      jump\t// in\n    tag_41:\n      mload(0x40)\n      dup1\n      swap2\n      sub\n      swap1\n      return\n        /* \"contracts/coin_development.sol\":2093:2302  function mint(address usr, uint wad) external auth \r... */\n    tag_8:\n      tag_43\n      0x04\n      dup1\n      calldatasize\n      sub\n      dup2\n      add\n      swap1\n      tag_44\n      swap2\n      swap1\n      tag_26\n      jump\t// in\n    tag_44:\n      tag_45\n      jump\t// in\n    tag_43:\n      stop\n        /* \"contracts/coin_development.sol\":369:406  string public constant version  = \"1\" */\n    tag_9:\n      tag_46\n      tag_47\n      jump\t// in\n    tag_46:\n      mload(0x40)\n      tag_48\n      swap2\n      swap1\n      tag_23\n      jump\t// in\n    tag_48:\n      mload(0x40)\n      dup1\n      swap2\n      sub\n      swap1\n      return\n        /* \"contracts/coin_development.sol\":489:530  mapping(address => uint) public balanceOf */\n    tag_10:\n      tag_49\n      0x04\n      dup1\n      calldatasize\n      sub\n      dup2\n      add\n      swap1\n      tag_50\n      swap2\n      swap1\n      tag_51\n      jump\t// in\n    tag_50:\n      tag_52\n      jump\t// in\n    tag_49:\n      mload(0x40)\n      tag_53\n      swap2\n      swap1\n      tag_33\n      jump\t// in\n    tag_53:\n      mload(0x40)\n      dup1\n      swap2\n      sub\n      swap1\n      return\n        /* \"contracts/coin_development.sol\":606:645  mapping (address => uint) public nonces */\n    tag_11:\n      tag_54\n      0x04\n      dup1\n      calldatasize\n      sub\n      dup2\n      add\n      swap1\n      tag_55\n      swap2\n      swap1\n      tag_51\n      jump\t// in\n    tag_55:\n      tag_56\n      jump\t// in\n    tag_54:\n      mload(0x40)\n      tag_57\n      swap2\n      swap1\n      tag_33\n      jump\t// in\n    tag_57:\n      mload(0x40)\n      dup1\n      swap2\n      sub\n      swap1\n      return\n        /* \"contracts/coin_development.sol\":326:362  string public constant symbol = \"DC\" */\n    tag_12:\n      tag_58\n      tag_59\n      jump\t// in\n    tag_58:\n      mload(0x40)\n      tag_60\n      swap2\n      swap1\n      tag_23\n      jump\t// in\n    tag_60:\n      mload(0x40)\n      dup1\n      swap2\n      sub\n      swap1\n      return\n        /* \"contracts/coin_development.sol\":2308:2735  function burn(address usr, uint wad) external auth \r... */\n    tag_13:\n      tag_61\n      0x04\n      dup1\n      calldatasize\n      sub\n      dup2\n      add\n      swap1\n      tag_62\n      swap2\n      swap1\n      tag_26\n      jump\t// in\n    tag_62:\n      tag_63\n      jump\t// in\n    tag_61:\n      stop\n        /* \"contracts/coin_development.sol\":1172:1323  function transfer(address receiver, uint numTokens) public returns (bool) \r... */\n    tag_14:\n      tag_64\n      0x04\n      dup1\n      calldatasize\n      sub\n      dup2\n      add\n      swap1\n      tag_65\n      swap2\n      swap1\n      tag_26\n      jump\t// in\n    tag_65:\n      tag_66\n      jump\t// in\n    tag_64:\n      mload(0x40)\n      tag_67\n      swap2\n      swap1\n      tag_29\n      jump\t// in\n    tag_67:\n      mload(0x40)\n      dup1\n      swap2\n      sub\n      swap1\n      return\n        /* \"contracts/coin_development.sol\":126:164  mapping (address => uint) public wards */\n    tag_15:\n      tag_68\n      0x04\n      dup1\n      calldatasize\n      sub\n      dup2\n      add\n      swap1\n      tag_69\n      swap2\n      swap1\n      tag_51\n      jump\t// in\n    tag_69:\n      tag_70\n      jump\t// in\n    tag_68:\n      mload(0x40)\n      tag_71\n      swap2\n      swap1\n      tag_33\n      jump\t// in\n    tag_71:\n      mload(0x40)\n      dup1\n      swap2\n      sub\n      swap1\n      return\n        /* \"contracts/coin_development.sol\":537:599  mapping(address => mapping (address => uint)) public allowance */\n    tag_16:\n      tag_72\n      0x04\n      dup1\n      calldatasize\n      sub\n      dup2\n      add\n      swap1\n      tag_73\n      swap2\n      swap1\n      tag_74\n      jump\t// in\n    tag_73:\n      tag_75\n      jump\t// in\n    tag_72:\n      mload(0x40)\n      tag_76\n      swap2\n      swap1\n      tag_33\n      jump\t// in\n    tag_76:\n      mload(0x40)\n      dup1\n      swap2\n      sub\n      swap1\n      return\n        /* \"contracts/coin_development.sol\":279:319  string public constant name = \"DotaCoin\" */\n    tag_21:\n      mload(0x40)\n      dup1\n      0x40\n      add\n      0x40\n      mstore\n      dup1\n      0x08\n      dup2\n      mstore\n      0x20\n      add\n      0x446f7461436f696e000000000000000000000000000000000000000000000000\n      dup2\n      mstore\n      pop\n      dup2\n      jump\t// out\n        /* \"contracts/coin_development.sol\":1836:2056  function approve(address delegate, uint numTokens) public returns (bool) \r... */\n    tag_27:\n        /* \"contracts/coin_development.sol\":1903:1907  bool */\n      0x00\n        /* \"contracts/coin_development.sol\":1960:1969  numTokens */\n      dup2\n        /* \"contracts/coin_development.sol\":1926:1935  allowance */\n      0x03\n        /* \"contracts/coin_development.sol\":1926:1947  allowance[msg.sender] */\n      0x00\n        /* \"contracts/coin_development.sol\":1936:1946  msg.sender */\n      caller\n        /* \"contracts/coin_development.sol\":1926:1947  allowance[msg.sender] */\n      0xffffffffffffffffffffffffffffffffffffffff\n      and\n      0xffffffffffffffffffffffffffffffffffffffff\n      and\n      dup2\n      mstore\n      0x20\n      add\n      swap1\n      dup2\n      mstore\n      0x20\n      add\n      0x00\n      keccak256\n        /* \"contracts/coin_development.sol\":1926:1957  allowance[msg.sender][delegate] */\n      0x00\n        /* \"contracts/coin_development.sol\":1948:1956  delegate */\n      dup6\n        /* \"contracts/coin_development.sol\":1926:1957  allowance[msg.sender][delegate] */\n      0xffffffffffffffffffffffffffffffffffffffff\n      and\n      0xffffffffffffffffffffffffffffffffffffffff\n      and\n      dup2\n      mstore\n      0x20\n      add\n      swap1\n      dup2\n      mstore\n      0x20\n      add\n      0x00\n      keccak256\n        /* \"contracts/coin_development.sol\":1926:1969  allowance[msg.sender][delegate] = numTokens */\n      dup2\n      swap1\n      sstore\n      pop\n        /* \"contracts/coin_development.sol\":2006:2014  delegate */\n      dup3\n        /* \"contracts/coin_development.sol\":1985:2026  Approval(msg.sender, delegate, numTokens) */\n      0xffffffffffffffffffffffffffffffffffffffff\n      and\n        /* \"contracts/coin_development.sol\":1994:2004  msg.sender */\n      caller\n        /* \"contracts/coin_development.sol\":1985:2026  Approval(msg.sender, delegate, numTokens) */\n      0xffffffffffffffffffffffffffffffffffffffff\n      and\n      0x8c5be1e5ebec7d5bd14f71427d1e84f3dd0314c0f7b2291e5b200ac8c7c3b925\n        /* \"contracts/coin_development.sol\":2016:2025  numTokens */\n      dup5\n        /* \"contracts/coin_development.sol\":1985:2026  Approval(msg.sender, delegate, numTokens) */\n      mload(0x40)\n      tag_78\n      swap2\n      swap1\n      tag_33\n      jump\t// in\n    tag_78:\n      mload(0x40)\n      dup1\n      swap2\n      sub\n      swap1\n      log3\n        /* \"contracts/coin_development.sol\":2044:2048  true */\n      0x01\n        /* \"contracts/coin_development.sol\":2037:2048  return true */\n      swap1\n      pop\n        /* \"contracts/coin_development.sol\":1836:2056  function approve(address delegate, uint numTokens) public returns (bool) \r... */\n      swap3\n      swap2\n      pop\n      pop\n      jump\t// out\n        /* \"contracts/coin_development.sol\":454:480  uint256 public totalSupply */\n    tag_31:\n      sload(0x01)\n      dup2\n      jump\t// out\n        /* \"contracts/coin_development.sol\":1331:1828  function transferFrom(address owner, address buyer, uint numTokens) public returns (bool) \r... */\n    tag_37:\n        /* \"contracts/coin_development.sol\":1415:1419  bool */\n      0x00\n        /* \"contracts/coin_development.sol\":1459:1468  balanceOf */\n      0x02\n        /* \"contracts/coin_development.sol\":1459:1475  balanceOf[owner] */\n      0x00\n        /* \"contracts/coin_development.sol\":1469:1474  owner */\n      dup6\n        /* \"contracts/coin_development.sol\":1459:1475  balanceOf[owner] */\n      0xffffffffffffffffffffffffffffffffffffffff\n      and\n      0xffffffffffffffffffffffffffffffffffffffff\n      and\n      dup2\n      mstore\n      0x20\n      add\n      swap1\n      dup2\n      mstore\n      0x20\n      add\n      0x00\n      keccak256\n      sload\n        /* \"contracts/coin_development.sol\":1446:1455  numTokens */\n      dup3\n        /* \"contracts/coin_development.sol\":1446:1475  numTokens <= balanceOf[owner] */\n      gt\n      iszero\n        /* \"contracts/coin_development.sol\":1438:1476  require(numTokens <= balanceOf[owner]) */\n      tag_80\n      jumpi\n      0x00\n      dup1\n      revert\n    tag_80:\n        /* \"contracts/coin_development.sol\":1508:1517  allowance */\n      0x03\n        /* \"contracts/coin_development.sol\":1508:1524  allowance[owner] */\n      0x00\n        /* \"contracts/coin_development.sol\":1518:1523  owner */\n      dup6\n        /* \"contracts/coin_development.sol\":1508:1524  allowance[owner] */\n      0xffffffffffffffffffffffffffffffffffffffff\n      and\n      0xffffffffffffffffffffffffffffffffffffffff\n      and\n      dup2\n      mstore\n      0x20\n      add\n      swap1\n      dup2\n      mstore\n      0x20\n      add\n      0x00\n      keccak256\n        /* \"contracts/coin_development.sol\":1508:1536  allowance[owner][msg.sender] */\n      0x00\n        /* \"contracts/coin_development.sol\":1525:1535  msg.sender */\n      caller\n        /* \"contracts/coin_development.sol\":1508:1536  allowance[owner][msg.sender] */\n      0xffffffffffffffffffffffffffffffffffffffff\n      and\n      0xffffffffffffffffffffffffffffffffffffffff\n      and\n      dup2\n      mstore\n      0x20\n      add\n      swap1\n      dup2\n      mstore\n      0x20\n      add\n      0x00\n      keccak256\n      sload\n        /* \"contracts/coin_development.sol\":1495:1504  numTokens */\n      dup3\n        /* \"contracts/coin_development.sol\":1495:1536  numTokens <= allowance[owner][msg.sender] */\n      gt\n      iszero\n        /* \"contracts/coin_development.sol\":1487:1537  require(numTokens <= allowance[owner][msg.sender]) */\n      tag_81\n      jumpi\n      0x00\n      dup1\n      revert\n    tag_81:\n        /* \"contracts/coin_development.sol\":1579:1623  sub(allowance[owner][msg.sender], numTokens) */\n      tag_82\n        /* \"contracts/coin_development.sol\":1583:1592  allowance */\n      0x03\n        /* \"contracts/coin_development.sol\":1583:1599  allowance[owner] */\n      0x00\n        /* \"contracts/coin_development.sol\":1593:1598  owner */\n      dup7\n        /* \"contracts/coin_development.sol\":1583:1599  allowance[owner] */\n      0xffffffffffffffffffffffffffffffffffffffff\n      and\n      0xffffffffffffffffffffffffffffffffffffffff\n      and\n      dup2\n      mstore\n      0x20\n      add\n      swap1\n      dup2\n      mstore\n      0x20\n      add\n      0x00\n      keccak256\n        /* \"contracts/coin_development.sol\":1583:1611  allowance[owner][msg.sender] */\n      0x00\n        /* \"contracts/coin_development.sol\":1600:1610  msg.sender */\n      caller\n        /* \"contracts/coin_development.sol\":1583:1611  allowance[owner][msg.sender] */\n      0xffffffffffffffffffffffffffffffffffffffff\n      and\n      0xffffffffffffffffffffffffffffffffffffffff\n      and\n      dup2\n      mstore\n      0x20\n      add\n      swap1\n      dup2\n      mstore\n      0x20\n      add\n      0x00\n      keccak256\n      sload\n        /* \"contracts/coin_development.sol\":1613:1622  numTokens */\n      dup4\n        /* \"contracts/coin_development.sol\":1579:1582  sub */\n      tag_83\n        /* \"contracts/coin_development.sol\":1579:1623  sub(allowance[owner][msg.sender], numTokens) */\n      jump\t// in\n    tag_82:\n        /* \"contracts/coin_development.sol\":1548:1557  allowance */\n      0x03\n        /* \"contracts/coin_development.sol\":1548:1564  allowance[owner] */\n      0x00\n        /* \"contracts/coin_development.sol\":1558:1563  owner */\n      dup7\n        /* \"contracts/coin_development.sol\":1548:1564  allowance[owner] */\n      0xffffffffffffffffffffffffffffffffffffffff\n      and\n      0xffffffffffffffffffffffffffffffffffffffff\n      and\n      dup2\n      mstore\n      0x20\n      add\n      swap1\n      dup2\n      mstore\n      0x20\n      add\n      0x00\n      keccak256\n        /* \"contracts/coin_development.sol\":1548:1576  allowance[owner][msg.sender] */\n      0x00\n        /* \"contracts/coin_development.sol\":1565:1575  msg.sender */\n      caller\n        /* \"contracts/coin_development.sol\":1548:1576  allowance[owner][msg.sender] */\n      0xffffffffffffffffffffffffffffffffffffffff\n      and\n      0xffffffffffffffffffffffffffffffffffffffff\n      and\n      dup2\n      mstore\n      0x20\n      add\n      swap1\n      dup2\n      mstore\n      0x20\n      add\n      0x00\n      keccak256\n        /* \"contracts/coin_development.sol\":1548:1623  allowance[owner][msg.sender] = sub(allowance[owner][msg.sender], numTokens) */\n      dup2\n      swap1\n      sstore\n      pop\n        /* \"contracts/coin_development.sol\":1653:1686  sub( balanceOf[owner], numTokens) */\n      tag_84\n        /* \"contracts/coin_development.sol\":1658:1667  balanceOf */\n      0x02\n        /* \"contracts/coin_development.sol\":1658:1674  balanceOf[owner] */\n      0x00\n        /* \"contracts/coin_development.sol\":1668:1673  owner */\n      dup7\n        /* \"contracts/coin_development.sol\":1658:1674  balanceOf[owner] */\n      0xffffffffffffffffffffffffffffffffffffffff\n      and\n      0xffffffffffffffffffffffffffffffffffffffff\n      and\n      dup2\n      mstore\n      0x20\n      add\n      swap1\n      dup2\n      mstore\n      0x20\n      add\n      0x00\n      keccak256\n      sload\n        /* \"contracts/coin_development.sol\":1676:1685  numTokens */\n      dup4\n        /* \"contracts/coin_development.sol\":1653:1656  sub */\n      tag_83\n        /* \"contracts/coin_development.sol\":1653:1686  sub( balanceOf[owner], numTokens) */\n      jump\t// in\n    tag_84:\n        /* \"contracts/coin_development.sol\":1634:1643  balanceOf */\n      0x02\n        /* \"contracts/coin_development.sol\":1634:1650  balanceOf[owner] */\n      0x00\n        /* \"contracts/coin_development.sol\":1644:1649  owner */\n      dup7\n        /* \"contracts/coin_development.sol\":1634:1650  balanceOf[owner] */\n      0xffffffffffffffffffffffffffffffffffffffff\n      and\n      0xffffffffffffffffffffffffffffffffffffffff\n      and\n      dup2\n      mstore\n      0x20\n      add\n      swap1\n      dup2\n      mstore\n      0x20\n      add\n      0x00\n      keccak256\n        /* \"contracts/coin_development.sol\":1634:1686  balanceOf[owner] = sub( balanceOf[owner], numTokens) */\n      dup2\n      swap1\n      sstore\n      pop\n        /* \"contracts/coin_development.sol\":1716:1749  add( balanceOf[buyer], numTokens) */\n      tag_85\n        /* \"contracts/coin_development.sol\":1721:1730  balanceOf */\n      0x02\n        /* \"contracts/coin_development.sol\":1721:1737  balanceOf[buyer] */\n      0x00\n        /* \"contracts/coin_development.sol\":1731:1736  buyer */\n      dup6\n        /* \"contracts/coin_development.sol\":1721:1737  balanceOf[buyer] */\n      0xffffffffffffffffffffffffffffffffffffffff\n      and\n      0xffffffffffffffffffffffffffffffffffffffff\n      and\n      dup2\n      mstore\n      0x20\n      add\n      swap1\n      dup2\n      mstore\n      0x20\n      add\n      0x00\n      keccak256\n      sload\n        /* \"contracts/coin_development.sol\":1739:1748  numTokens */\n      dup4\n        /* \"contracts/coin_development.sol\":1716:1719  add */\n      tag_86\n        /* \"contracts/coin_development.sol\":1716:1749  add( balanceOf[buyer], numTokens) */\n      jump\t// in\n    tag_85:\n        /* \"contracts/coin_development.sol\":1697:1706  balanceOf */\n      0x02\n        /* \"contracts/coin_development.sol\":1697:1713  balanceOf[buyer] */\n      0x00\n        /* \"contracts/coin_development.sol\":1707:1712  buyer */\n      dup6\n        /* \"contracts/coin_development.sol\":1697:1713  balanceOf[buyer] */\n      0xffffffffffffffffffffffffffffffffffffffff\n      and\n      0xffffffffffffffffffffffffffffffffffffffff\n      and\n      dup2\n      mstore\n      0x20\n      add\n      swap1\n      dup2\n      mstore\n      0x20\n      add\n      0x00\n      keccak256\n        /* \"contracts/coin_development.sol\":1697:1749  balanceOf[buyer] = add( balanceOf[buyer], numTokens) */\n      dup2\n      swap1\n      sstore\n      pop\n        /* \"contracts/coin_development.sol\":1781:1786  buyer */\n      dup3\n        /* \"contracts/coin_development.sol\":1765:1798  Transfer(owner, buyer, numTokens) */\n      0xffffffffffffffffffffffffffffffffffffffff\n      and\n        /* \"contracts/coin_development.sol\":1774:1779  owner */\n      dup5\n        /* \"contracts/coin_development.sol\":1765:1798  Transfer(owner, buyer, numTokens) */\n      0xffffffffffffffffffffffffffffffffffffffff\n      and\n      0xddf252ad1be2c89b69c2b068fc378daa952ba7f163c4a11628f55a4df523b3ef\n        /* \"contracts/coin_development.sol\":1788:1797  numTokens */\n      dup5\n        /* \"contracts/coin_development.sol\":1765:1798  Transfer(owner, buyer, numTokens) */\n      mload(0x40)\n      tag_87\n      swap2\n      swap1\n      tag_33\n      jump\t// in\n    tag_87:\n      mload(0x40)\n      dup1\n      swap2\n      sub\n      swap1\n      log3\n        /* \"contracts/coin_development.sol\":1816:1820  true */\n      0x01\n        /* \"contracts/coin_development.sol\":1809:1820  return true */\n      swap1\n      pop\n        /* \"contracts/coin_development.sol\":1331:1828  function transferFrom(address owner, address buyer, uint numTokens) public returns (bool) \r... */\n      swap4\n      swap3\n      pop\n      pop\n      pop\n      jump\t// out\n        /* \"contracts/coin_development.sol\":413:447  uint8 public constant decimals = 0 */\n    tag_40:\n        /* \"contracts/coin_development.sol\":446:447  0 */\n      0x00\n        /* \"contracts/coin_development.sol\":413:447  uint8 public constant decimals = 0 */\n      dup2\n      jump\t// out\n        /* \"contracts/coin_development.sol\":2093:2302  function mint(address usr, uint wad) external auth \r... */\n    tag_45:\n        /* \"contracts/coin_development.sol\":231:232  1 */\n      0x01\n        /* \"contracts/coin_development.sol\":210:215  wards */\n      0x00\n        /* \"contracts/coin_development.sol\":210:227  wards[msg.sender] */\n      dup1\n        /* \"contracts/coin_development.sol\":216:226  msg.sender */\n      caller\n        /* \"contracts/coin_development.sol\":210:227  wards[msg.sender] */\n      0xffffffffffffffffffffffffffffffffffffffff\n      and\n      0xffffffffffffffffffffffffffffffffffffffff\n      and\n      dup2\n      mstore\n      0x20\n      add\n      swap1\n      dup2\n      mstore\n      0x20\n      add\n      0x00\n      keccak256\n      sload\n        /* \"contracts/coin_development.sol\":210:232  wards[msg.sender] == 1 */\n      eq\n        /* \"contracts/coin_development.sol\":202:251  require(wards[msg.sender] == 1, \"Not-authorized\") */\n      tag_89\n      jumpi\n      mload(0x40)\n      0x08c379a000000000000000000000000000000000000000000000000000000000\n      dup2\n      mstore\n      0x04\n      add\n      tag_90\n      swap1\n      tag_91\n      jump\t// in\n    tag_90:\n      mload(0x40)\n      dup1\n      swap2\n      sub\n      swap1\n      revert\n    tag_89:\n        /* \"contracts/coin_development.sol\":2178:2202  add(balanceOf[usr], wad) */\n      tag_93\n        /* \"contracts/coin_development.sol\":2182:2191  balanceOf */\n      0x02\n        /* \"contracts/coin_development.sol\":2182:2196  balanceOf[usr] */\n      0x00\n        /* \"contracts/coin_development.sol\":2192:2195  usr */\n      dup5\n        /* \"contracts/coin_development.sol\":2182:2196  balanceOf[usr] */\n      0xffffffffffffffffffffffffffffffffffffffff\n      and\n      0xffffffffffffffffffffffffffffffffffffffff\n      and\n      dup2\n      mstore\n      0x20\n      add\n      swap1\n      dup2\n      mstore\n      0x20\n      add\n      0x00\n      keccak256\n      sload\n        /* \"contracts/coin_development.sol\":2198:2201  wad */\n      dup3\n        /* \"contracts/coin_development.sol\":2178:2181  add */\n      tag_86\n        /* \"contracts/coin_development.sol\":2178:2202  add(balanceOf[usr], wad) */\n      jump\t// in\n    tag_93:\n        /* \"contracts/coin_development.sol\":2161:2170  balanceOf */\n      0x02\n        /* \"contracts/coin_development.sol\":2161:2175  balanceOf[usr] */\n      0x00\n        /* \"contracts/coin_development.sol\":2171:2174  usr */\n      dup5\n        /* \"contracts/coin_development.sol\":2161:2175  balanceOf[usr] */\n      0xffffffffffffffffffffffffffffffffffffffff\n      and\n      0xffffffffffffffffffffffffffffffffffffffff\n      and\n      dup2\n      mstore\n      0x20\n      add\n      swap1\n      dup2\n      mstore\n      0x20\n      add\n      0x00\n      keccak256\n        /* \"contracts/coin_development.sol\":2161:2202  balanceOf[usr] = add(balanceOf[usr], wad) */\n      dup2\n      swap1\n      sstore\n      pop\n        /* \"contracts/coin_development.sol\":2227:2248  add(totalSupply, wad) */\n      tag_94\n        /* \"contracts/coin_development.sol\":2231:2242  totalSupply */\n      sload(0x01)\n        /* \"contracts/coin_development.sol\":2244:2247  wad */\n      dup3\n        /* \"contracts/coin_development.sol\":2227:2230  add */\n      tag_86\n        /* \"contracts/coin_development.sol\":2227:2248  add(totalSupply, wad) */\n      jump\t// in\n    tag_94:\n        /* \"contracts/coin_development.sol\":2213:2224  totalSupply */\n      0x01\n        /* \"contracts/coin_development.sol\":2213:2248  totalSupply = add(totalSupply, wad) */\n      dup2\n      swap1\n      sstore\n      pop\n        /* \"contracts/coin_development.sol\":2285:2288  usr */\n      dup2\n        /* \"contracts/coin_development.sol\":2264:2294  Transfer(address(0), usr, wad) */\n      0xffffffffffffffffffffffffffffffffffffffff\n      and\n        /* \"contracts/coin_development.sol\":2281:2282  0 */\n      0x00\n        /* \"contracts/coin_development.sol\":2264:2294  Transfer(address(0), usr, wad) */\n      0xffffffffffffffffffffffffffffffffffffffff\n      and\n      0xddf252ad1be2c89b69c2b068fc378daa952ba7f163c4a11628f55a4df523b3ef\n        /* \"contracts/coin_development.sol\":2290:2293  wad */\n      dup4\n        /* \"contracts/coin_development.sol\":2264:2294  Transfer(address(0), usr, wad) */\n      mload(0x40)\n      tag_95\n      swap2\n      swap1\n      tag_33\n      jump\t// in\n    tag_95:\n      mload(0x40)\n      dup1\n      swap2\n      sub\n      swap1\n      log3\n        /* \"contracts/coin_development.sol\":2093:2302  function mint(address usr, uint wad) external auth \r... */\n      pop\n      pop\n      jump\t// out\n        /* \"contracts/coin_development.sol\":369:406  string public constant version  = \"1\" */\n    tag_47:\n      mload(0x40)\n      dup1\n      0x40\n      add\n      0x40\n      mstore\n      dup1\n      0x01\n      dup2\n      mstore\n      0x20\n      add\n      0x3100000000000000000000000000000000000000000000000000000000000000\n      dup2\n      mstore\n      pop\n      dup2\n      jump\t// out\n        /* \"contracts/coin_development.sol\":489:530  mapping(address => uint) public balanceOf */\n    tag_52:\n      mstore(0x20, 0x02)\n      dup1\n      0x00\n      mstore\n      keccak256(0x00, 0x40)\n      0x00\n      swap2\n      pop\n      swap1\n      pop\n      sload\n      dup2\n      jump\t// out\n        /* \"contracts/coin_development.sol\":606:645  mapping (address => uint) public nonces */\n    tag_56:\n      mstore(0x20, 0x04)\n      dup1\n      0x00\n      mstore\n      keccak256(0x00, 0x40)\n      0x00\n      swap2\n      pop\n      swap1\n      pop\n      sload\n      dup2\n      jump\t// out\n        /* \"contracts/coin_development.sol\":326:362  string public constant symbol = \"DC\" */\n    tag_59:\n      mload(0x40)\n      dup1\n      0x40\n      add\n      0x40\n      mstore\n      dup1\n      0x02\n      dup2\n      mstore\n      0x20\n      add\n      0x4443000000000000000000000000000000000000000000000000000000000000\n      dup2\n      mstore\n      pop\n      dup2\n      jump\t// out\n        /* \"contracts/coin_development.sol\":2308:2735  function burn(address usr, uint wad) external auth \r... */\n    tag_63:\n        /* \"contracts/coin_development.sol\":231:232  1 */\n      0x01\n        /* \"contracts/coin_development.sol\":210:215  wards */\n      0x00\n        /* \"contracts/coin_development.sol\":210:227  wards[msg.sender] */\n      dup1\n        /* \"contracts/coin_development.sol\":216:226  msg.sender */\n      caller\n        /* \"contracts/coin_development.sol\":210:227  wards[msg.sender] */\n      0xffffffffffffffffffffffffffffffffffffffff\n      and\n      0xffffffffffffffffffffffffffffffffffffffff\n      and\n      dup2\n      mstore\n      0x20\n      add\n      swap1\n      dup2\n      mstore\n      0x20\n      add\n      0x00\n      keccak256\n      sload\n        /* \"contracts/coin_development.sol\":210:232  wards[msg.sender] == 1 */\n      eq\n        /* \"contracts/coin_development.sol\":202:251  require(wards[msg.sender] == 1, \"Not-authorized\") */\n      tag_97\n      jumpi\n      mload(0x40)\n      0x08c379a000000000000000000000000000000000000000000000000000000000\n      dup2\n      mstore\n      0x04\n      add\n      tag_98\n      swap1\n      tag_91\n      jump\t// in\n    tag_98:\n      mload(0x40)\n      dup1\n      swap2\n      sub\n      swap1\n      revert\n    tag_97:\n        /* \"contracts/coin_development.sol\":2402:2405  wad */\n      dup1\n        /* \"contracts/coin_development.sol\":2384:2393  balanceOf */\n      0x02\n        /* \"contracts/coin_development.sol\":2384:2398  balanceOf[usr] */\n      0x00\n        /* \"contracts/coin_development.sol\":2394:2397  usr */\n      dup5\n        /* \"contracts/coin_development.sol\":2384:2398  balanceOf[usr] */\n      0xffffffffffffffffffffffffffffffffffffffff\n      and\n      0xffffffffffffffffffffffffffffffffffffffff\n      and\n      dup2\n      mstore\n      0x20\n      add\n      swap1\n      dup2\n      mstore\n      0x20\n      add\n      0x00\n      keccak256\n      sload\n        /* \"contracts/coin_development.sol\":2384:2405  balanceOf[usr] >= wad */\n      lt\n      iszero\n        /* \"contracts/coin_development.sol\":2376:2430  require(balanceOf[usr] >= wad, \"insufficient-balance\") */\n      tag_100\n      jumpi\n      mload(0x40)\n      0x08c379a000000000000000000000000000000000000000000000000000000000\n      dup2\n      mstore\n      0x04\n      add\n      tag_101\n      swap1\n      tag_102\n      jump\t// in\n    tag_101:\n      mload(0x40)\n      dup1\n      swap2\n      sub\n      swap1\n      revert\n    tag_100:\n        /* \"contracts/coin_development.sol\":2611:2635  sub(balanceOf[usr], wad) */\n      tag_103\n        /* \"contracts/coin_development.sol\":2615:2624  balanceOf */\n      0x02\n        /* \"contracts/coin_development.sol\":2615:2629  balanceOf[usr] */\n      0x00\n        /* \"contracts/coin_development.sol\":2625:2628  usr */\n      dup5\n        /* \"contracts/coin_development.sol\":2615:2629  balanceOf[usr] */\n      0xffffffffffffffffffffffffffffffffffffffff\n      and\n      0xffffffffffffffffffffffffffffffffffffffff\n      and\n      dup2\n      mstore\n      0x20\n      add\n      swap1\n      dup2\n      mstore\n      0x20\n      add\n      0x00\n      keccak256\n      sload\n        /* \"contracts/coin_development.sol\":2631:2634  wad */\n      dup3\n        /* \"contracts/coin_development.sol\":2611:2614  sub */\n      tag_83\n        /* \"contracts/coin_development.sol\":2611:2635  sub(balanceOf[usr], wad) */\n      jump\t// in\n    tag_103:\n        /* \"contracts/coin_development.sol\":2594:2603  balanceOf */\n      0x02\n        /* \"contracts/coin_development.sol\":2594:2608  balanceOf[usr] */\n      0x00\n        /* \"contracts/coin_development.sol\":2604:2607  usr */\n      dup5\n        /* \"contracts/coin_development.sol\":2594:2608  balanceOf[usr] */\n      0xffffffffffffffffffffffffffffffffffffffff\n      and\n      0xffffffffffffffffffffffffffffffffffffffff\n      and\n      dup2\n      mstore\n      0x20\n      add\n      swap1\n      dup2\n      mstore\n      0x20\n      add\n      0x00\n      keccak256\n        /* \"contracts/coin_development.sol\":2594:2635  balanceOf[usr] = sub(balanceOf[usr], wad) */\n      dup2\n      swap1\n      sstore\n      pop\n        /* \"contracts/coin_development.sol\":2660:2681  sub(totalSupply, wad) */\n      tag_104\n        /* \"contracts/coin_development.sol\":2664:2675  totalSupply */\n      sload(0x01)\n        /* \"contracts/coin_development.sol\":2677:2680  wad */\n      dup3\n        /* \"contracts/coin_development.sol\":2660:2663  sub */\n      tag_83\n        /* \"contracts/coin_development.sol\":2660:2681  sub(totalSupply, wad) */\n      jump\t// in\n    tag_104:\n        /* \"contracts/coin_development.sol\":2646:2657  totalSupply */\n      0x01\n        /* \"contracts/coin_development.sol\":2646:2681  totalSupply = sub(totalSupply, wad) */\n      dup2\n      swap1\n      sstore\n      pop\n        /* \"contracts/coin_development.sol\":2719:2720  0 */\n      0x00\n        /* \"contracts/coin_development.sol\":2697:2727  Transfer(usr, address(0), wad) */\n      0xffffffffffffffffffffffffffffffffffffffff\n      and\n        /* \"contracts/coin_development.sol\":2706:2709  usr */\n      dup3\n        /* \"contracts/coin_development.sol\":2697:2727  Transfer(usr, address(0), wad) */\n      0xffffffffffffffffffffffffffffffffffffffff\n      and\n      0xddf252ad1be2c89b69c2b068fc378daa952ba7f163c4a11628f55a4df523b3ef\n        /* \"contracts/coin_development.sol\":2723:2726  wad */\n      dup4\n        /* \"contracts/coin_development.sol\":2697:2727  Transfer(usr, address(0), wad) */\n      mload(0x40)\n      tag_105\n      swap2\n      swap1\n      tag_33\n      jump\t// in\n    tag_105:\n      mload(0x40)\n      dup1\n      swap2\n      sub\n      swap1\n      log3\n        /* \"contracts/coin_development.sol\":2308:2735  function burn(address usr, uint wad) external auth \r... */\n      pop\n      pop\n      jump\t// out\n        /* \"contracts/coin_development.sol\":1172:1323  function transfer(address receiver, uint numTokens) public returns (bool) \r... */\n    tag_66:\n        /* \"contracts/coin_development.sol\":1240:1244  bool */\n      0x00\n        /* \"contracts/coin_development.sol\":1270:1315  transferFrom(msg.sender, receiver, numTokens) */\n      tag_107\n        /* \"contracts/coin_development.sol\":1283:1293  msg.sender */\n      caller\n        /* \"contracts/coin_development.sol\":1295:1303  receiver */\n      dup5\n        /* \"contracts/coin_development.sol\":1305:1314  numTokens */\n      dup5\n        /* \"contracts/coin_development.sol\":1270:1282  transferFrom */\n      tag_37\n        /* \"contracts/coin_development.sol\":1270:1315  transferFrom(msg.sender, receiver, numTokens) */\n      jump\t// in\n    tag_107:\n        /* \"contracts/coin_development.sol\":1263:1315  return transferFrom(msg.sender, receiver, numTokens) */\n      swap1\n      pop\n        /* \"contracts/coin_development.sol\":1172:1323  function transfer(address receiver, uint numTokens) public returns (bool) \r... */\n      swap3\n      swap2\n      pop\n      pop\n      jump\t// out\n        /* \"contracts/coin_development.sol\":126:164  mapping (address => uint) public wards */\n    tag_70:\n      mstore(0x20, 0x00)\n      dup1\n      0x00\n      mstore\n      keccak256(0x00, 0x40)\n      0x00\n      swap2\n      pop\n      swap1\n      pop\n      sload\n      dup2\n      jump\t// out\n        /* \"contracts/coin_development.sol\":537:599  mapping(address => mapping (address => uint)) public allowance */\n    tag_75:\n      mstore(0x20, 0x03)\n      dup2\n      0x00\n      mstore\n      mstore(0x20, keccak256(0x00, 0x40))\n      dup1\n      0x00\n      mstore\n      keccak256(0x00, 0x40)\n      0x00\n      swap2\n      pop\n      swap2\n      pop\n      pop\n      sload\n      dup2\n      jump\t// out\n        /* \"contracts/coin_development.sol\":960:1070  function sub(uint x, uint y) internal pure returns (uint z) \r... */\n    tag_83:\n        /* \"contracts/coin_development.sol\":1012:1018  uint z */\n      0x00\n        /* \"contracts/coin_development.sol\":1060:1061  x */\n      dup3\n        /* \"contracts/coin_development.sol\":1054:1055  y */\n      dup3\n        /* \"contracts/coin_development.sol\":1050:1051  x */\n      dup5\n        /* \"contracts/coin_development.sol\":1050:1055  x - y */\n      tag_109\n      swap2\n      swap1\n      tag_110\n      jump\t// in\n    tag_109:\n        /* \"contracts/coin_development.sol\":1046:1055  z = x - y */\n      swap2\n      pop\n      dup2\n        /* \"contracts/coin_development.sol\":1045:1061  (z = x - y) <= x */\n      gt\n      iszero\n        /* \"contracts/coin_development.sol\":1037:1062  require((z = x - y) <= x) */\n      tag_111\n      jumpi\n      0x00\n      dup1\n      revert\n    tag_111:\n        /* \"contracts/coin_development.sol\":960:1070  function sub(uint x, uint y) internal pure returns (uint z) \r... */\n      swap3\n      swap2\n      pop\n      pop\n      jump\t// out\n        /* \"contracts/coin_development.sol\":844:954  function add(uint x, uint y) internal pure returns (uint z) \r... */\n    tag_86:\n        /* \"contracts/coin_development.sol\":896:902  uint z */\n      0x00\n        /* \"contracts/coin_development.sol\":944:945  x */\n      dup3\n        /* \"contracts/coin_development.sol\":938:939  y */\n      dup3\n        /* \"contracts/coin_development.sol\":934:935  x */\n      dup5\n        /* \"contracts/coin_development.sol\":934:939  x + y */\n      tag_113\n      swap2\n      swap1\n      tag_114\n      jump\t// in\n    tag_113:\n        /* \"contracts/coin_development.sol\":930:939  z = x + y */\n      swap2\n      pop\n      dup2\n        /* \"contracts/coin_development.sol\":929:945  (z = x + y) >= x */\n      lt\n      iszero\n        /* \"contracts/coin_development.sol\":921:946  require((z = x + y) >= x) */\n      tag_115\n      jumpi\n      0x00\n      dup1\n      revert\n    tag_115:\n        /* \"contracts/coin_development.sol\":844:954  function add(uint x, uint y) internal pure returns (uint z) \r... */\n      swap3\n      swap2\n      pop\n      pop\n      jump\t// out\n        /* \"#utility.yul\":7:146   */\n    tag_117:\n        /* \"#utility.yul\":53:58   */\n      0x00\n        /* \"#utility.yul\":91:97   */\n      dup2\n        /* \"#utility.yul\":78:98   */\n      calldataload\n        /* \"#utility.yul\":69:98   */\n      swap1\n      pop\n        /* \"#utility.yul\":107:140   */\n      tag_119\n        /* \"#utility.yul\":134:139   */\n      dup2\n        /* \"#utility.yul\":107:140   */\n      tag_120\n      jump\t// in\n    tag_119:\n        /* \"#utility.yul\":7:146   */\n      swap3\n      swap2\n      pop\n      pop\n      jump\t// out\n        /* \"#utility.yul\":152:291   */\n    tag_121:\n        /* \"#utility.yul\":198:203   */\n      0x00\n        /* \"#utility.yul\":236:242   */\n      dup2\n        /* \"#utility.yul\":223:243   */\n      calldataload\n        /* \"#utility.yul\":214:243   */\n      swap1\n      pop\n        /* \"#utility.yul\":252:285   */\n      tag_123\n        /* \"#utility.yul\":279:284   */\n      dup2\n        /* \"#utility.yul\":252:285   */\n      tag_124\n      jump\t// in\n    tag_123:\n        /* \"#utility.yul\":152:291   */\n      swap3\n      swap2\n      pop\n      pop\n      jump\t// out\n        /* \"#utility.yul\":297:626   */\n    tag_51:\n        /* \"#utility.yul\":356:362   */\n      0x00\n        /* \"#utility.yul\":405:407   */\n      0x20\n        /* \"#utility.yul\":393:402   */\n      dup3\n        /* \"#utility.yul\":384:391   */\n      dup5\n        /* \"#utility.yul\":380:403   */\n      sub\n        /* \"#utility.yul\":376:408   */\n      slt\n        /* \"#utility.yul\":373:492   */\n      iszero\n      tag_126\n      jumpi\n        /* \"#utility.yul\":411:490   */\n      tag_127\n      tag_128\n      jump\t// in\n    tag_127:\n        /* \"#utility.yul\":373:492   */\n    tag_126:\n        /* \"#utility.yul\":531:532   */\n      0x00\n        /* \"#utility.yul\":556:609   */\n      tag_129\n        /* \"#utility.yul\":601:608   */\n      dup5\n        /* \"#utility.yul\":592:598   */\n      dup3\n        /* \"#utility.yul\":581:590   */\n      dup6\n        /* \"#utility.yul\":577:599   */\n      add\n        /* \"#utility.yul\":556:609   */\n      tag_117\n      jump\t// in\n    tag_129:\n        /* \"#utility.yul\":546:609   */\n      swap2\n      pop\n        /* \"#utility.yul\":502:619   */\n      pop\n        /* \"#utility.yul\":297:626   */\n      swap3\n      swap2\n      pop\n      pop\n      jump\t// out\n        /* \"#utility.yul\":632:1106   */\n    tag_74:\n        /* \"#utility.yul\":700:706   */\n      0x00\n        /* \"#utility.yul\":708:714   */\n      dup1\n        /* \"#utility.yul\":757:759   */\n      0x40\n        /* \"#utility.yul\":745:754   */\n      dup4\n        /* \"#utility.yul\":736:743   */\n      dup6\n        /* \"#utility.yul\":732:755   */\n      sub\n        /* \"#utility.yul\":728:760   */\n      slt\n        /* \"#utility.yul\":725:844   */\n      iszero\n      tag_131\n      jumpi\n        /* \"#utility.yul\":763:842   */\n      tag_132\n      tag_128\n      jump\t// in\n    tag_132:\n        /* \"#utility.yul\":725:844   */\n    tag_131:\n        /* \"#utility.yul\":883:884   */\n      0x00\n        /* \"#utility.yul\":908:961   */\n      tag_133\n        /* \"#utility.yul\":953:960   */\n      dup6\n        /* \"#utility.yul\":944:950   */\n      dup3\n        /* \"#utility.yul\":933:942   */\n      dup7\n        /* \"#utility.yul\":929:951   */\n      add\n        /* \"#utility.yul\":908:961   */\n      tag_117\n      jump\t// in\n    tag_133:\n        /* \"#utility.yul\":898:961   */\n      swap3\n      pop\n        /* \"#utility.yul\":854:971   */\n      pop\n        /* \"#utility.yul\":1010:1012   */\n      0x20\n        /* \"#utility.yul\":1036:1089   */\n      tag_134\n        /* \"#utility.yul\":1081:1088   */\n      dup6\n        /* \"#utility.yul\":1072:1078   */\n      dup3\n        /* \"#utility.yul\":1061:1070   */\n      dup7\n        /* \"#utility.yul\":1057:1079   */\n      add\n        /* \"#utility.yul\":1036:1089   */\n      tag_117\n      jump\t// in\n    tag_134:\n        /* \"#utility.yul\":1026:1089   */\n      swap2\n      pop\n        /* \"#utility.yul\":981:1099   */\n      pop\n        /* \"#utility.yul\":632:1106   */\n      swap3\n      pop\n      swap3\n      swap1\n      pop\n      jump\t// out\n        /* \"#utility.yul\":1112:1731   */\n    tag_36:\n        /* \"#utility.yul\":1189:1195   */\n      0x00\n        /* \"#utility.yul\":1197:1203   */\n      dup1\n        /* \"#utility.yul\":1205:1211   */\n      0x00\n        /* \"#utility.yul\":1254:1256   */\n      0x60\n        /* \"#utility.yul\":1242:1251   */\n      dup5\n        /* \"#utility.yul\":1233:1240   */\n      dup7\n        /* \"#utility.yul\":1229:1252   */\n      sub\n        /* \"#utility.yul\":1225:1257   */\n      slt\n        /* \"#utility.yul\":1222:1341   */\n      iszero\n      tag_136\n      jumpi\n        /* \"#utility.yul\":1260:1339   */\n      tag_137\n      tag_128\n      jump\t// in\n    tag_137:\n        /* \"#utility.yul\":1222:1341   */\n    tag_136:\n        /* \"#utility.yul\":1380:1381   */\n      0x00\n        /* \"#utility.yul\":1405:1458   */\n      tag_138\n        /* \"#utility.yul\":1450:1457   */\n      dup7\n        /* \"#utility.yul\":1441:1447   */\n      dup3\n        /* \"#utility.yul\":1430:1439   */\n      dup8\n        /* \"#utility.yul\":1426:1448   */\n      add\n        /* \"#utility.yul\":1405:1458   */\n      tag_117\n      jump\t// in\n    tag_138:\n        /* \"#utility.yul\":1395:1458   */\n      swap4\n      pop\n        /* \"#utility.yul\":1351:1468   */\n      pop\n        /* \"#utility.yul\":1507:1509   */\n      0x20\n        /* \"#utility.yul\":1533:1586   */\n      tag_139\n        /* \"#utility.yul\":1578:1585   */\n      dup7\n        /* \"#utility.yul\":1569:1575   */\n      dup3\n        /* \"#utility.yul\":1558:1567   */\n      dup8\n        /* \"#utility.yul\":1554:1576   */\n      add\n        /* \"#utility.yul\":1533:1586   */\n      tag_117\n      jump\t// in\n    tag_139:\n        /* \"#utility.yul\":1523:1586   */\n      swap3\n      pop\n        /* \"#utility.yul\":1478:1596   */\n      pop\n        /* \"#utility.yul\":1635:1637   */\n      0x40\n        /* \"#utility.yul\":1661:1714   */\n      tag_140\n        /* \"#utility.yul\":1706:1713   */\n      dup7\n        /* \"#utility.yul\":1697:1703   */\n      dup3\n        /* \"#utility.yul\":1686:1695   */\n      dup8\n        /* \"#utility.yul\":1682:1704   */\n      add\n        /* \"#utility.yul\":1661:1714   */\n      tag_121\n      jump\t// in\n    tag_140:\n        /* \"#utility.yul\":1651:1714   */\n      swap2\n      pop\n        /* \"#utility.yul\":1606:1724   */\n      pop\n        /* \"#utility.yul\":1112:1731   */\n      swap3\n      pop\n      swap3\n      pop\n      swap3\n      jump\t// out\n        /* \"#utility.yul\":1737:2211   */\n    tag_26:\n        /* \"#utility.yul\":1805:1811   */\n      0x00\n        /* \"#utility.yul\":1813:1819   */\n      dup1\n        /* \"#utility.yul\":1862:1864   */\n      0x40\n        /* \"#utility.yul\":1850:1859   */\n      dup4\n        /* \"#utility.yul\":1841:1848   */\n      dup6\n        /* \"#utility.yul\":1837:1860   */\n      sub\n        /* \"#utility.yul\":1833:1865   */\n      slt\n        /* \"#utility.yul\":1830:1949   */\n      iszero\n      tag_142\n      jumpi\n        /* \"#utility.yul\":1868:1947   */\n      tag_143\n      tag_128\n      jump\t// in\n    tag_143:\n        /* \"#utility.yul\":1830:1949   */\n    tag_142:\n        /* \"#utility.yul\":1988:1989   */\n      0x00\n        /* \"#utility.yul\":2013:2066   */\n      tag_144\n        /* \"#utility.yul\":2058:2065   */\n      dup6\n        /* \"#utility.yul\":2049:2055   */\n      dup3\n        /* \"#utility.yul\":2038:2047   */\n      dup7\n        /* \"#utility.yul\":2034:2056   */\n      add\n        /* \"#utility.yul\":2013:2066   */\n      tag_117\n      jump\t// in\n    tag_144:\n        /* \"#utility.yul\":2003:2066   */\n      swap3\n      pop\n        /* \"#utility.yul\":1959:2076   */\n      pop\n        /* \"#utility.yul\":2115:2117   */\n      0x20\n        /* \"#utility.yul\":2141:2194   */\n      tag_145\n        /* \"#utility.yul\":2186:2193   */\n      dup6\n        /* \"#utility.yul\":2177:2183   */\n      dup3\n        /* \"#utility.yul\":2166:2175   */\n      dup7\n        /* \"#utility.yul\":2162:2184   */\n      add\n        /* \"#utility.yul\":2141:2194   */\n      tag_121\n      jump\t// in\n    tag_145:\n        /* \"#utility.yul\":2131:2194   */\n      swap2\n      pop\n        /* \"#utility.yul\":2086:2204   */\n      pop\n        /* \"#utility.yul\":1737:2211   */\n      swap3\n      pop\n      swap3\n      swap1\n      pop\n      jump\t// out\n        /* \"#utility.yul\":2217:2326   */\n    tag_146:\n        /* \"#utility.yul\":2298:2319   */\n      tag_148\n        /* \"#utility.yul\":2313:2318   */\n      dup2\n        /* \"#utility.yul\":2298:2319   */\n      tag_149\n      jump\t// in\n    tag_148:\n        /* \"#utility.yul\":2293:2296   */\n      dup3\n        /* \"#utility.yul\":2286:2320   */\n      mstore\n        /* \"#utility.yul\":2217:2326   */\n      pop\n      pop\n      jump\t// out\n        /* \"#utility.yul\":2332:2696   */\n    tag_150:\n        /* \"#utility.yul\":2420:2423   */\n      0x00\n        /* \"#utility.yul\":2448:2487   */\n      tag_152\n        /* \"#utility.yul\":2481:2486   */\n      dup3\n        /* \"#utility.yul\":2448:2487   */\n      tag_153\n      jump\t// in\n    tag_152:\n        /* \"#utility.yul\":2503:2574   */\n      tag_154\n        /* \"#utility.yul\":2567:2573   */\n      dup2\n        /* \"#utility.yul\":2562:2565   */\n      dup6\n        /* \"#utility.yul\":2503:2574   */\n      tag_155\n      jump\t// in\n    tag_154:\n        /* \"#utility.yul\":2496:2574   */\n      swap4\n      pop\n        /* \"#utility.yul\":2583:2635   */\n      tag_156\n        /* \"#utility.yul\":2628:2634   */\n      dup2\n        /* \"#utility.yul\":2623:2626   */\n      dup6\n        /* \"#utility.yul\":2616:2620   */\n      0x20\n        /* \"#utility.yul\":2609:2614   */\n      dup7\n        /* \"#utility.yul\":2605:2621   */\n      add\n        /* \"#utility.yul\":2583:2635   */\n      tag_157\n      jump\t// in\n    tag_156:\n        /* \"#utility.yul\":2660:2689   */\n      tag_158\n        /* \"#utility.yul\":2682:2688   */\n      dup2\n        /* \"#utility.yul\":2660:2689   */\n      tag_159\n      jump\t// in\n    tag_158:\n        /* \"#utility.yul\":2655:2658   */\n      dup5\n        /* \"#utility.yul\":2651:2690   */\n      add\n        /* \"#utility.yul\":2644:2690   */\n      swap2\n      pop\n        /* \"#utility.yul\":2424:2696   */\n      pop\n        /* \"#utility.yul\":2332:2696   */\n      swap3\n      swap2\n      pop\n      pop\n      jump\t// out\n        /* \"#utility.yul\":2702:3068   */\n    tag_160:\n        /* \"#utility.yul\":2844:2847   */\n      0x00\n        /* \"#utility.yul\":2865:2932   */\n      tag_162\n        /* \"#utility.yul\":2929:2931   */\n      0x14\n        /* \"#utility.yul\":2924:2927   */\n      dup4\n        /* \"#utility.yul\":2865:2932   */\n      tag_155\n      jump\t// in\n    tag_162:\n        /* \"#utility.yul\":2858:2932   */\n      swap2\n      pop\n        /* \"#utility.yul\":2941:3034   */\n      tag_163\n        /* \"#utility.yul\":3030:3033   */\n      dup3\n        /* \"#utility.yul\":2941:3034   */\n      tag_164\n      jump\t// in\n    tag_163:\n        /* \"#utility.yul\":3059:3061   */\n      0x20\n        /* \"#utility.yul\":3054:3057   */\n      dup3\n        /* \"#utility.yul\":3050:3062   */\n      add\n        /* \"#utility.yul\":3043:3062   */\n      swap1\n      pop\n        /* \"#utility.yul\":2702:3068   */\n      swap2\n      swap1\n      pop\n      jump\t// out\n        /* \"#utility.yul\":3074:3440   */\n    tag_165:\n        /* \"#utility.yul\":3216:3219   */\n      0x00\n        /* \"#utility.yul\":3237:3304   */\n      tag_167\n        /* \"#utility.yul\":3301:3303   */\n      0x0e\n        /* \"#utility.yul\":3296:3299   */\n      dup4\n        /* \"#utility.yul\":3237:3304   */\n      tag_155\n      jump\t// in\n    tag_167:\n        /* \"#utility.yul\":3230:3304   */\n      swap2\n      pop\n        /* \"#utility.yul\":3313:3406   */\n      tag_168\n        /* \"#utility.yul\":3402:3405   */\n      dup3\n        /* \"#utility.yul\":3313:3406   */\n      tag_169\n      jump\t// in\n    tag_168:\n        /* \"#utility.yul\":3431:3433   */\n      0x20\n        /* \"#utility.yul\":3426:3429   */\n      dup3\n        /* \"#utility.yul\":3422:3434   */\n      add\n        /* \"#utility.yul\":3415:3434   */\n      swap1\n      pop\n        /* \"#utility.yul\":3074:3440   */\n      swap2\n      swap1\n      pop\n      jump\t// out\n        /* \"#utility.yul\":3446:3564   */\n    tag_170:\n        /* \"#utility.yul\":3533:3557   */\n      tag_172\n        /* \"#utility.yul\":3551:3556   */\n      dup2\n        /* \"#utility.yul\":3533:3557   */\n      tag_173\n      jump\t// in\n    tag_172:\n        /* \"#utility.yul\":3528:3531   */\n      dup3\n        /* \"#utility.yul\":3521:3558   */\n      mstore\n        /* \"#utility.yul\":3446:3564   */\n      pop\n      pop\n      jump\t// out\n        /* \"#utility.yul\":3570:3682   */\n    tag_174:\n        /* \"#utility.yul\":3653:3675   */\n      tag_176\n        /* \"#utility.yul\":3669:3674   */\n      dup2\n        /* \"#utility.yul\":3653:3675   */\n      tag_177\n      jump\t// in\n    tag_176:\n        /* \"#utility.yul\":3648:3651   */\n      dup3\n        /* \"#utility.yul\":3641:3676   */\n      mstore\n        /* \"#utility.yul\":3570:3682   */\n      pop\n      pop\n      jump\t// out\n        /* \"#utility.yul\":3688:3898   */\n    tag_29:\n        /* \"#utility.yul\":3775:3779   */\n      0x00\n        /* \"#utility.yul\":3813:3815   */\n      0x20\n        /* \"#utility.yul\":3802:3811   */\n      dup3\n        /* \"#utility.yul\":3798:3816   */\n      add\n        /* \"#utility.yul\":3790:3816   */\n      swap1\n      pop\n        /* \"#utility.yul\":3826:3891   */\n      tag_179\n        /* \"#utility.yul\":3888:3889   */\n      0x00\n        /* \"#utility.yul\":3877:3886   */\n      dup4\n        /* \"#utility.yul\":3873:3890   */\n      add\n        /* \"#utility.yul\":3864:3870   */\n      dup5\n        /* \"#utility.yul\":3826:3891   */\n      tag_146\n      jump\t// in\n    tag_179:\n        /* \"#utility.yul\":3688:3898   */\n      swap3\n      swap2\n      pop\n      pop\n      jump\t// out\n        /* \"#utility.yul\":3904:4217   */\n    tag_23:\n        /* \"#utility.yul\":4017:4021   */\n      0x00\n        /* \"#utility.yul\":4055:4057   */\n      0x20\n        /* \"#utility.yul\":4044:4053   */\n      dup3\n        /* \"#utility.yul\":4040:4058   */\n      add\n        /* \"#utility.yul\":4032:4058   */\n      swap1\n      pop\n        /* \"#utility.yul\":4104:4113   */\n      dup2\n        /* \"#utility.yul\":4098:4102   */\n      dup2\n        /* \"#utility.yul\":4094:4114   */\n      sub\n        /* \"#utility.yul\":4090:4091   */\n      0x00\n        /* \"#utility.yul\":4079:4088   */\n      dup4\n        /* \"#utility.yul\":4075:4092   */\n      add\n        /* \"#utility.yul\":4068:4115   */\n      mstore\n        /* \"#utility.yul\":4132:4210   */\n      tag_181\n        /* \"#utility.yul\":4205:4209   */\n      dup2\n        /* \"#utility.yul\":4196:4202   */\n      dup5\n        /* \"#utility.yul\":4132:4210   */\n      tag_150\n      jump\t// in\n    tag_181:\n        /* \"#utility.yul\":4124:4210   */\n      swap1\n      pop\n        /* \"#utility.yul\":3904:4217   */\n      swap3\n      swap2\n      pop\n      pop\n      jump\t// out\n        /* \"#utility.yul\":4223:4642   */\n    tag_102:\n        /* \"#utility.yul\":4389:4393   */\n      0x00\n        /* \"#utility.yul\":4427:4429   */\n      0x20\n        /* \"#utility.yul\":4416:4425   */\n      dup3\n        /* \"#utility.yul\":4412:4430   */\n      add\n        /* \"#utility.yul\":4404:4430   */\n      swap1\n      pop\n        /* \"#utility.yul\":4476:4485   */\n      dup2\n        /* \"#utility.yul\":4470:4474   */\n      dup2\n        /* \"#utility.yul\":4466:4486   */\n      sub\n        /* \"#utility.yul\":4462:4463   */\n      0x00\n        /* \"#utility.yul\":4451:4460   */\n      dup4\n        /* \"#utility.yul\":4447:4464   */\n      add\n        /* \"#utility.yul\":4440:4487   */\n      mstore\n        /* \"#utility.yul\":4504:4635   */\n      tag_183\n        /* \"#utility.yul\":4630:4634   */\n      dup2\n        /* \"#utility.yul\":4504:4635   */\n      tag_160\n      jump\t// in\n    tag_183:\n        /* \"#utility.yul\":4496:4635   */\n      swap1\n      pop\n        /* \"#utility.yul\":4223:4642   */\n      swap2\n      swap1\n      pop\n      jump\t// out\n        /* \"#utility.yul\":4648:5067   */\n    tag_91:\n        /* \"#utility.yul\":4814:4818   */\n      0x00\n        /* \"#utility.yul\":4852:4854   */\n      0x20\n        /* \"#utility.yul\":4841:4850   */\n      dup3\n        /* \"#utility.yul\":4837:4855   */\n      add\n        /* \"#utility.yul\":4829:4855   */\n      swap1\n      pop\n        /* \"#utility.yul\":4901:4910   */\n      dup2\n        /* \"#utility.yul\":4895:4899   */\n      dup2\n        /* \"#utility.yul\":4891:4911   */\n      sub\n        /* \"#utility.yul\":4887:4888   */\n      0x00\n        /* \"#utility.yul\":4876:4885   */\n      dup4\n        /* \"#utility.yul\":4872:4889   */\n      add\n        /* \"#utility.yul\":4865:4912   */\n      mstore\n        /* \"#utility.yul\":4929:5060   */\n      tag_185\n        /* \"#utility.yul\":5055:5059   */\n      dup2\n        /* \"#utility.yul\":4929:5060   */\n      tag_165\n      jump\t// in\n    tag_185:\n        /* \"#utility.yul\":4921:5060   */\n      swap1\n      pop\n        /* \"#utility.yul\":4648:5067   */\n      swap2\n      swap1\n      pop\n      jump\t// out\n        /* \"#utility.yul\":5073:5295   */\n    tag_33:\n        /* \"#utility.yul\":5166:5170   */\n      0x00\n        /* \"#utility.yul\":5204:5206   */\n      0x20\n        /* \"#utility.yul\":5193:5202   */\n      dup3\n        /* \"#utility.yul\":5189:5207   */\n      add\n        /* \"#utility.yul\":5181:5207   */\n      swap1\n      pop\n        /* \"#utility.yul\":5217:5288   */\n      tag_187\n        /* \"#utility.yul\":5285:5286   */\n      0x00\n        /* \"#utility.yul\":5274:5283   */\n      dup4\n        /* \"#utility.yul\":5270:5287   */\n      add\n        /* \"#utility.yul\":5261:5267   */\n      dup5\n        /* \"#utility.yul\":5217:5288   */\n      tag_170\n      jump\t// in\n    tag_187:\n        /* \"#utility.yul\":5073:5295   */\n      swap3\n      swap2\n      pop\n      pop\n      jump\t// out\n        /* \"#utility.yul\":5301:5515   */\n    tag_42:\n        /* \"#utility.yul\":5390:5394   */\n      0x00\n        /* \"#utility.yul\":5428:5430   */\n      0x20\n        /* \"#utility.yul\":5417:5426   */\n      dup3\n        /* \"#utility.yul\":5413:5431   */\n      add\n        /* \"#utility.yul\":5405:5431   */\n      swap1\n      pop\n        /* \"#utility.yul\":5441:5508   */\n      tag_189\n        /* \"#utility.yul\":5505:5506   */\n      0x00\n        /* \"#utility.yul\":5494:5503   */\n      dup4\n        /* \"#utility.yul\":5490:5507   */\n      add\n        /* \"#utility.yul\":5481:5487   */\n      dup5\n        /* \"#utility.yul\":5441:5508   */\n      tag_174\n      jump\t// in\n    tag_189:\n        /* \"#utility.yul\":5301:5515   */\n      swap3\n      swap2\n      pop\n      pop\n      jump\t// out\n        /* \"#utility.yul\":5602:5701   */\n    tag_153:\n        /* \"#utility.yul\":5654:5660   */\n      0x00\n        /* \"#utility.yul\":5688:5693   */\n      dup2\n        /* \"#utility.yul\":5682:5694   */\n      mload\n        /* \"#utility.yul\":5672:5694   */\n      swap1\n      pop\n        /* \"#utility.yul\":5602:5701   */\n      swap2\n      swap1\n      pop\n      jump\t// out\n        /* \"#utility.yul\":5707:5876   */\n    tag_155:\n        /* \"#utility.yul\":5791:5802   */\n      0x00\n        /* \"#utility.yul\":5825:5831   */\n      dup3\n        /* \"#utility.yul\":5820:5823   */\n      dup3\n        /* \"#utility.yul\":5813:5832   */\n      mstore\n        /* \"#utility.yul\":5865:5869   */\n      0x20\n        /* \"#utility.yul\":5860:5863   */\n      dup3\n        /* \"#utility.yul\":5856:5870   */\n      add\n        /* \"#utility.yul\":5841:5870   */\n      swap1\n      pop\n        /* \"#utility.yul\":5707:5876   */\n      swap3\n      swap2\n      pop\n      pop\n      jump\t// out\n        /* \"#utility.yul\":5882:6187   */\n    tag_114:\n        /* \"#utility.yul\":5922:5925   */\n      0x00\n        /* \"#utility.yul\":5941:5961   */\n      tag_195\n        /* \"#utility.yul\":5959:5960   */\n      dup3\n        /* \"#utility.yul\":5941:5961   */\n      tag_173\n      jump\t// in\n    tag_195:\n        /* \"#utility.yul\":5936:5961   */\n      swap2\n      pop\n        /* \"#utility.yul\":5975:5995   */\n      tag_196\n        /* \"#utility.yul\":5993:5994   */\n      dup4\n        /* \"#utility.yul\":5975:5995   */\n      tag_173\n      jump\t// in\n    tag_196:\n        /* \"#utility.yul\":5970:5995   */\n      swap3\n      pop\n        /* \"#utility.yul\":6129:6130   */\n      dup3\n        /* \"#utility.yul\":6061:6127   */\n      0xffffffffffffffffffffffffffffffffffffffffffffffffffffffffffffffff\n        /* \"#utility.yul\":6057:6131   */\n      sub\n        /* \"#utility.yul\":6054:6055   */\n      dup3\n        /* \"#utility.yul\":6051:6132   */\n      gt\n        /* \"#utility.yul\":6048:6155   */\n      iszero\n      tag_197\n      jumpi\n        /* \"#utility.yul\":6135:6153   */\n      tag_198\n      tag_199\n      jump\t// in\n    tag_198:\n        /* \"#utility.yul\":6048:6155   */\n    tag_197:\n        /* \"#utility.yul\":6179:6180   */\n      dup3\n        /* \"#utility.yul\":6176:6177   */\n      dup3\n        /* \"#utility.yul\":6172:6181   */\n      add\n        /* \"#utility.yul\":6165:6181   */\n      swap1\n      pop\n        /* \"#utility.yul\":5882:6187   */\n      swap3\n      swap2\n      pop\n      pop\n      jump\t// out\n        /* \"#utility.yul\":6193:6384   */\n    tag_110:\n        /* \"#utility.yul\":6233:6237   */\n      0x00\n        /* \"#utility.yul\":6253:6273   */\n      tag_201\n        /* \"#utility.yul\":6271:6272   */\n      dup3\n        /* \"#utility.yul\":6253:6273   */\n      tag_173\n      jump\t// in\n    tag_201:\n        /* \"#utility.yul\":6248:6273   */\n      swap2\n      pop\n        /* \"#utility.yul\":6287:6307   */\n      tag_202\n        /* \"#utility.yul\":6305:6306   */\n      dup4\n        /* \"#utility.yul\":6287:6307   */\n      tag_173\n      jump\t// in\n    tag_202:\n        /* \"#utility.yul\":6282:6307   */\n      swap3\n      pop\n        /* \"#utility.yul\":6326:6327   */\n      dup3\n        /* \"#utility.yul\":6323:6324   */\n      dup3\n        /* \"#utility.yul\":6320:6328   */\n      lt\n        /* \"#utility.yul\":6317:6351   */\n      iszero\n      tag_203\n      jumpi\n        /* \"#utility.yul\":6331:6349   */\n      tag_204\n      tag_199\n      jump\t// in\n    tag_204:\n        /* \"#utility.yul\":6317:6351   */\n    tag_203:\n        /* \"#utility.yul\":6376:6377   */\n      dup3\n        /* \"#utility.yul\":6373:6374   */\n      dup3\n        /* \"#utility.yul\":6369:6378   */\n      sub\n        /* \"#utility.yul\":6361:6378   */\n      swap1\n      pop\n        /* \"#utility.yul\":6193:6384   */\n      swap3\n      swap2\n      pop\n      pop\n      jump\t// out\n        /* \"#utility.yul\":6390:6486   */\n    tag_205:\n        /* \"#utility.yul\":6427:6434   */\n      0x00\n        /* \"#utility.yul\":6456:6480   */\n      tag_207\n        /* \"#utility.yul\":6474:6479   */\n      dup3\n        /* \"#utility.yul\":6456:6480   */\n      tag_208\n      jump\t// in\n    tag_207:\n        /* \"#utility.yul\":6445:6480   */\n      swap1\n      pop\n        /* \"#utility.yul\":6390:6486   */\n      swap2\n      swap1\n      pop\n      jump\t// out\n        /* \"#utility.yul\":6492:6582   */\n    tag_149:\n        /* \"#utility.yul\":6526:6533   */\n      0x00\n        /* \"#utility.yul\":6569:6574   */\n      dup2\n        /* \"#utility.yul\":6562:6575   */\n      iszero\n        /* \"#utility.yul\":6555:6576   */\n      iszero\n        /* \"#utility.yul\":6544:6576   */\n      swap1\n      pop\n        /* \"#utility.yul\":6492:6582   */\n      swap2\n      swap1\n      pop\n      jump\t// out\n        /* \"#utility.yul\":6588:6714   */\n    tag_208:\n        /* \"#utility.yul\":6625:6632   */\n      0x00\n        /* \"#utility.yul\":6665:6707   */\n      0xffffffffffffffffffffffffffffffffffffffff\n        /* \"#utility.yul\":6658:6663   */\n      dup3\n        /* \"#utility.yul\":6654:6708   */\n      and\n        /* \"#utility.yul\":6643:6708   */\n      swap1\n      pop\n        /* \"#utility.yul\":6588:6714   */\n      swap2\n      swap1\n      pop\n      jump\t// out\n        /* \"#utility.yul\":6720:6797   */\n    tag_173:\n        /* \"#utility.yul\":6757:6764   */\n      0x00\n        /* \"#utility.yul\":6786:6791   */\n      dup2\n        /* \"#utility.yul\":6775:6791   */\n      swap1\n      pop\n        /* \"#utility.yul\":6720:6797   */\n      swap2\n      swap1\n      pop\n      jump\t// out\n        /* \"#utility.yul\":6803:6889   */\n    tag_177:\n        /* \"#utility.yul\":6838:6845   */\n      0x00\n        /* \"#utility.yul\":6878:6882   */\n      0xff\n        /* \"#utility.yul\":6871:6876   */\n      dup3\n        /* \"#utility.yul\":6867:6883   */\n      and\n        /* \"#utility.yul\":6856:6883   */\n      swap1\n      pop\n        /* \"#utility.yul\":6803:6889   */\n      swap2\n      swap1\n      pop\n      jump\t// out\n        /* \"#utility.yul\":6895:7202   */\n    tag_157:\n        /* \"#utility.yul\":6963:6964   */\n      0x00\n        /* \"#utility.yul\":6973:7086   */\n    tag_214:\n        /* \"#utility.yul\":6987:6993   */\n      dup4\n        /* \"#utility.yul\":6984:6985   */\n      dup2\n        /* \"#utility.yul\":6981:6994   */\n      lt\n        /* \"#utility.yul\":6973:7086   */\n      iszero\n      tag_216\n      jumpi\n        /* \"#utility.yul\":7072:7073   */\n      dup1\n        /* \"#utility.yul\":7067:7070   */\n      dup3\n        /* \"#utility.yul\":7063:7074   */\n      add\n        /* \"#utility.yul\":7057:7075   */\n      mload\n        /* \"#utility.yul\":7053:7054   */\n      dup2\n        /* \"#utility.yul\":7048:7051   */\n      dup5\n        /* \"#utility.yul\":7044:7055   */\n      add\n        /* \"#utility.yul\":7037:7076   */\n      mstore\n        /* \"#utility.yul\":7009:7011   */\n      0x20\n        /* \"#utility.yul\":7006:7007   */\n      dup2\n        /* \"#utility.yul\":7002:7012   */\n      add\n        /* \"#utility.yul\":6997:7012   */\n      swap1\n      pop\n        /* \"#utility.yul\":6973:7086   */\n      jump(tag_214)\n    tag_216:\n        /* \"#utility.yul\":7104:7110   */\n      dup4\n        /* \"#utility.yul\":7101:7102   */\n      dup2\n        /* \"#utility.yul\":7098:7111   */\n      gt\n        /* \"#utility.yul\":7095:7196   */\n      iszero\n      tag_217\n      jumpi\n        /* \"#utility.yul\":7184:7185   */\n      0x00\n        /* \"#utility.yul\":7175:7181   */\n      dup5\n        /* \"#utility.yul\":7170:7173   */\n      dup5\n        /* \"#utility.yul\":7166:7182   */\n      add\n        /* \"#utility.yul\":7159:7186   */\n      mstore\n        /* \"#utility.yul\":7095:7196   */\n    tag_217:\n        /* \"#utility.yul\":6944:7202   */\n      pop\n        /* \"#utility.yul\":6895:7202   */\n      pop\n      pop\n      pop\n      jump\t// out\n        /* \"#utility.yul\":7208:7388   */\n    tag_199:\n        /* \"#utility.yul\":7256:7333   */\n      0x4e487b7100000000000000000000000000000000000000000000000000000000\n        /* \"#utility.yul\":7253:7254   */\n      0x00\n        /* \"#utility.yul\":7246:7334   */\n      mstore\n        /* \"#utility.yul\":7353:7357   */\n      0x11\n        /* \"#utility.yul\":7350:7351   */\n      0x04\n        /* \"#utility.yul\":7343:7358   */\n      mstore\n        /* \"#utility.yul\":7377:7381   */\n      0x24\n        /* \"#utility.yul\":7374:7375   */\n      0x00\n        /* \"#utility.yul\":7367:7382   */\n      revert\n        /* \"#utility.yul\":7517:7634   */\n    tag_128:\n        /* \"#utility.yul\":7626:7627   */\n      0x00\n        /* \"#utility.yul\":7623:7624   */\n      dup1\n        /* \"#utility.yul\":7616:7628   */\n      revert\n        /* \"#utility.yul\":7640:7742   */\n    tag_159:\n        /* \"#utility.yul\":7681:7687   */\n      0x00\n        /* \"#utility.yul\":7732:7734   */\n      0x1f\n        /* \"#utility.yul\":7728:7735   */\n      not\n        /* \"#utility.yul\":7723:7725   */\n      0x1f\n        /* \"#utility.yul\":7716:7721   */\n      dup4\n        /* \"#utility.yul\":7712:7726   */\n      add\n        /* \"#utility.yul\":7708:7736   */\n      and\n        /* \"#utility.yul\":7698:7736   */\n      swap1\n      pop\n        /* \"#utility.yul\":7640:7742   */\n      swap2\n      swap1\n      pop\n      jump\t// out\n        /* \"#utility.yul\":7748:7918   */\n    tag_164:\n        /* \"#utility.yul\":7888:7910   */\n      0x696e73756666696369656e742d62616c616e6365000000000000000000000000\n        /* \"#utility.yul\":7884:7885   */\n      0x00\n        /* \"#utility.yul\":7876:7882   */\n      dup3\n        /* \"#utility.yul\":7872:7886   */\n      add\n        /* \"#utility.yul\":7865:7911   */\n      mstore\n        /* \"#utility.yul\":7748:7918   */\n      pop\n      jump\t// out\n        /* \"#utility.yul\":7924:8088   */\n    tag_169:\n        /* \"#utility.yul\":8064:8080   */\n      0x4e6f742d617574686f72697a6564000000000000000000000000000000000000\n        /* \"#utility.yul\":8060:8061   */\n      0x00\n        /* \"#utility.yul\":8052:8058   */\n      dup3\n        /* \"#utility.yul\":8048:8062   */\n      add\n        /* \"#utility.yul\":8041:8081   */\n      mstore\n        /* \"#utility.yul\":7924:8088   */\n      pop\n      jump\t// out\n        /* \"#utility.yul\":8094:8216   */\n    tag_120:\n        /* \"#utility.yul\":8167:8191   */\n      tag_226\n        /* \"#utility.yul\":8185:8190   */\n      dup2\n        /* \"#utility.yul\":8167:8191   */\n      tag_205\n      jump\t// in\n    tag_226:\n        /* \"#utility.yul\":8160:8165   */\n      dup2\n        /* \"#utility.yul\":8157:8192   */\n      eq\n        /* \"#utility.yul\":8147:8210   */\n      tag_227\n      jumpi\n        /* \"#utility.yul\":8206:8207   */\n      0x00\n        /* \"#utility.yul\":8203:8204   */\n      dup1\n        /* \"#utility.yul\":8196:8208   */\n      revert\n        /* \"#utility.yul\":8147:8210   */\n    tag_227:\n        /* \"#utility.yul\":8094:8216   */\n      pop\n      jump\t// out\n        /* \"#utility.yul\":8222:8344   */\n    tag_124:\n        /* \"#utility.yul\":8295:8319   */\n      tag_229\n        /* \"#utility.yul\":8313:8318   */\n      dup2\n        /* \"#utility.yul\":8295:8319   */\n      tag_173\n      jump\t// in\n    tag_229:\n        /* \"#utility.yul\":8288:8293   */\n      dup2\n        /* \"#utility.yul\":8285:8320   */\n      eq\n        /* \"#utility.yul\":8275:8338   */\n      tag_230\n      jumpi\n        /* \"#utility.yul\":8334:8335   */\n      0x00\n        /* \"#utility.yul\":8331:8332   */\n      dup1\n        /* \"#utility.yul\":8324:8336   */\n      revert\n        /* \"#utility.yul\":8275:8338   */\n    tag_230:\n        /* \"#utility.yul\":8222:8344   */\n      pop\n      jump\t// out\n\n    auxdata: 0xa2646970667358221220048955cba4a722e190ee5917220ac6df0d143b833c491185614dce8ff6ec5fb664736f6c63430008070033\n}\n",
				"bytecode": {
					"linkReferences": {},
					"object": "608060405234801561001057600080fd5b5060016000803373ffffffffffffffffffffffffffffffffffffffff1673ffffffffffffffffffffffffffffffffffffffff1681526020019081526020016000208190555060006001819055506111288061006c6000396000f3fe608060405234801561001057600080fd5b50600436106100ea5760003560e01c806370a082311161008c5780639dc29fac116100665780639dc29fac14610261578063a9059cbb1461027d578063bf353dbb146102ad578063dd62ed3e146102dd576100ea565b806370a08231146101e35780637ecebe001461021357806395d89b4114610243576100ea565b806323b872dd116100c857806323b872dd1461015b578063313ce5671461018b57806340c10f19146101a957806354fd4d50146101c5576100ea565b806306fdde03146100ef578063095ea7b31461010d57806318160ddd1461013d575b600080fd5b6100f761030d565b6040516101049190610e67565b60405180910390f35b61012760048036038101906101229190610d60565b610346565b6040516101349190610e4c565b60405180910390f35b610145610438565b6040516101529190610ec9565b60405180910390f35b61017560048036038101906101709190610d0d565b61043e565b6040516101829190610e4c565b60405180910390f35b6101936107a3565b6040516101a09190610ee4565b60405180910390f35b6101c360048036038101906101be9190610d60565b6107a8565b005b6101cd610931565b6040516101da9190610e67565b60405180910390f35b6101fd60048036038101906101f89190610ca0565b61096a565b60405161020a9190610ec9565b60405180910390f35b61022d60048036038101906102289190610ca0565b610982565b60405161023a9190610ec9565b60405180910390f35b61024b61099a565b6040516102589190610e67565b60405180910390f35b61027b60048036038101906102769190610d60565b6109d3565b005b61029760048036038101906102929190610d60565b610bde565b6040516102a49190610e4c565b60405180910390f35b6102c760048036038101906102c29190610ca0565b610bf3565b6040516102d49190610ec9565b60405180910390f35b6102f760048036038101906102f29190610ccd565b610c0b565b6040516103049190610ec9565b60405180910390f35b6040518060400160405280600881526020017f446f7461436f696e00000000000000000000000000000000000000000000000081525081565b600081600360003373ffffffffffffffffffffffffffffffffffffffff1673ffffffffffffffffffffffffffffffffffffffff16815260200190815260200160002060008573ffffffffffffffffffffffffffffffffffffffff1673ffffffffffffffffffffffffffffffffffffffff168152602001908152602001600020819055508273ffffffffffffffffffffffffffffffffffffffff163373ffffffffffffffffffffffffffffffffffffffff167f8c5be1e5ebec7d5bd14f71427d1e84f3dd0314c0f7b2291e5b200ac8c7c3b925846040516104269190610ec9565b60405180910390a36001905092915050565b60015481565b6000600260008573ffffffffffffffffffffffffffffffffffffffff1673ffffffffffffffffffffffffffffffffffffffff1681526020019081526020016000205482111561048c57600080fd5b600360008573ffffffffffffffffffffffffffffffffffffffff1673ffffffffffffffffffffffffffffffffffffffff16815260200190815260200160002060003373ffffffffffffffffffffffffffffffffffffffff1673ffffffffffffffffffffffffffffffffffffffff1681526020019081526020016000205482111561051557600080fd5b61059b600360008673ffffffffffffffffffffffffffffffffffffffff1673ffffffffffffffffffffffffffffffffffffffff16815260200190815260200160002060003373ffffffffffffffffffffffffffffffffffffffff1673ffffffffffffffffffffffffffffffffffffffff1681526020019081526020016000205483610c30565b600360008673ffffffffffffffffffffffffffffffffffffffff1673ffffffffffffffffffffffffffffffffffffffff16815260200190815260200160002060003373ffffffffffffffffffffffffffffffffffffffff1673ffffffffffffffffffffffffffffffffffffffff16815260200190815260200160002081905550610664600260008673ffffffffffffffffffffffffffffffffffffffff1673ffffffffffffffffffffffffffffffffffffffff1681526020019081526020016000205483610c30565b600260008673ffffffffffffffffffffffffffffffffffffffff1673ffffffffffffffffffffffffffffffffffffffff168152602001908152602001600020819055506106f0600260008573ffffffffffffffffffffffffffffffffffffffff1673ffffffffffffffffffffffffffffffffffffffff1681526020019081526020016000205483610c53565b600260008573ffffffffffffffffffffffffffffffffffffffff1673ffffffffffffffffffffffffffffffffffffffff168152602001908152602001600020819055508273ffffffffffffffffffffffffffffffffffffffff168473ffffffffffffffffffffffffffffffffffffffff167fddf252ad1be2c89b69c2b068fc378daa952ba7f163c4a11628f55a4df523b3ef846040516107909190610ec9565b60405180910390a3600190509392505050565b600081565b60016000803373ffffffffffffffffffffffffffffffffffffffff1673ffffffffffffffffffffffffffffffffffffffff1681526020019081526020016000205414610829576040517f08c379a000000000000000000000000000000000000000000000000000000000815260040161082090610ea9565b60405180910390fd5b610872600260008473ffffffffffffffffffffffffffffffffffffffff1673ffffffffffffffffffffffffffffffffffffffff1681526020019081526020016000205482610c53565b600260008473ffffffffffffffffffffffffffffffffffffffff1673ffffffffffffffffffffffffffffffffffffffff168152602001908152602001600020819055506108c160015482610c53565b6001819055508173ffffffffffffffffffffffffffffffffffffffff16600073ffffffffffffffffffffffffffffffffffffffff167fddf252ad1be2c89b69c2b068fc378daa952ba7f163c4a11628f55a4df523b3ef836040516109259190610ec9565b60405180910390a35050565b6040518060400160405280600181526020017f310000000000000000000000000000000000000000000000000000000000000081525081565b60026020528060005260406000206000915090505481565b60046020528060005260406000206000915090505481565b6040518060400160405280600281526020017f444300000000000000000000000000000000000000000000000000000000000081525081565b60016000803373ffffffffffffffffffffffffffffffffffffffff1673ffffffffffffffffffffffffffffffffffffffff1681526020019081526020016000205414610a54576040517f08c379a0000000000000000000000000000000000000000000000000000000008152600401610a4b90610ea9565b60405180910390fd5b80600260008473ffffffffffffffffffffffffffffffffffffffff1673ffffffffffffffffffffffffffffffffffffffff168152602001908152602001600020541015610ad6576040517f08c379a0000000000000000000000000000000000000000000000000000000008152600401610acd90610e89565b60405180910390fd5b610b1f600260008473ffffffffffffffffffffffffffffffffffffffff1673ffffffffffffffffffffffffffffffffffffffff1681526020019081526020016000205482610c30565b600260008473ffffffffffffffffffffffffffffffffffffffff1673ffffffffffffffffffffffffffffffffffffffff16815260200190815260200160002081905550610b6e60015482610c30565b600181905550600073ffffffffffffffffffffffffffffffffffffffff168273ffffffffffffffffffffffffffffffffffffffff167fddf252ad1be2c89b69c2b068fc378daa952ba7f163c4a11628f55a4df523b3ef83604051610bd29190610ec9565b60405180910390a35050565b6000610beb33848461043e565b905092915050565b60006020528060005260406000206000915090505481565b6003602052816000526040600020602052806000526040600020600091509150505481565b6000828284610c3f9190610f71565b9150811115610c4d57600080fd5b92915050565b6000828284610c629190610f1b565b9150811015610c7057600080fd5b92915050565b600081359050610c85816110c4565b92915050565b600081359050610c9a816110db565b92915050565b600060208284031215610cb657610cb561105c565b5b6000610cc484828501610c76565b91505092915050565b60008060408385031215610ce457610ce361105c565b5b6000610cf285828601610c76565b9250506020610d0385828601610c76565b9150509250929050565b600080600060608486031215610d2657610d2561105c565b5b6000610d3486828701610c76565b9350506020610d4586828701610c76565b9250506040610d5686828701610c8b565b9150509250925092565b60008060408385031215610d7757610d7661105c565b5b6000610d8585828601610c76565b9250506020610d9685828601610c8b565b9150509250929050565b610da981610fb7565b82525050565b6000610dba82610eff565b610dc48185610f0a565b9350610dd4818560208601610ffa565b610ddd81611061565b840191505092915050565b6000610df5601483610f0a565b9150610e0082611072565b602082019050919050565b6000610e18600e83610f0a565b9150610e238261109b565b602082019050919050565b610e3781610fe3565b82525050565b610e4681610fed565b82525050565b6000602082019050610e616000830184610da0565b92915050565b60006020820190508181036000830152610e818184610daf565b905092915050565b60006020820190508181036000830152610ea281610de8565b9050919050565b60006020820190508181036000830152610ec281610e0b565b9050919050565b6000602082019050610ede6000830184610e2e565b92915050565b6000602082019050610ef96000830184610e3d565b92915050565b600081519050919050565b600082825260208201905092915050565b6000610f2682610fe3565b9150610f3183610fe3565b9250827fffffffffffffffffffffffffffffffffffffffffffffffffffffffffffffffff03821115610f6657610f6561102d565b5b828201905092915050565b6000610f7c82610fe3565b9150610f8783610fe3565b925082821015610f9a57610f9961102d565b5b828203905092915050565b6000610fb082610fc3565b9050919050565b60008115159050919050565b600073ffffffffffffffffffffffffffffffffffffffff82169050919050565b6000819050919050565b600060ff82169050919050565b60005b83811015611018578082015181840152602081019050610ffd565b83811115611027576000848401525b50505050565b7f4e487b7100000000000000000000000000000000000000000000000000000000600052601160045260246000fd5b600080fd5b6000601f19601f8301169050919050565b7f696e73756666696369656e742d62616c616e6365000000000000000000000000600082015250565b7f4e6f742d617574686f72697a6564000000000000000000000000000000000000600082015250565b6110cd81610fa5565b81146110d857600080fd5b50565b6110e481610fe3565b81146110ef57600080fd5b5056fea2646970667358221220048955cba4a722e190ee5917220ac6df0d143b833c491185614dce8ff6ec5fb664736f6c63430008070033",
					"opcodes": "PUSH1 0x80 PUSH1 0x40 MSTORE CALLVALUE DUP1 ISZERO PUSH2 0x10 JUMPI PUSH1 0x0 DUP1 REVERT JUMPDEST POP PUSH1 0x1 PUSH1 0x0 DUP1 CALLER PUSH20 0xFFFFFFFFFFFFFFFFFFFFFFFFFFFFFFFFFFFFFFFF AND PUSH20 0xFFFFFFFFFFFFFFFFFFFFFFFFFFFFFFFFFFFFFFFF AND DUP2 MSTORE PUSH1 0x20 ADD SWAP1 DUP2 MSTORE PUSH1 0x20 ADD PUSH1 0x0 KECCAK256 DUP2 SWAP1 SSTORE POP PUSH1 0x0 PUSH1 0x1 DUP2 SWAP1 SSTORE POP PUSH2 0x1128 DUP1 PUSH2 0x6C PUSH1 0x0 CODECOPY PUSH1 0x0 RETURN INVALID PUSH1 0x80 PUSH1 0x40 MSTORE CALLVALUE DUP1 ISZERO PUSH2 0x10 JUMPI PUSH1 0x0 DUP1 REVERT JUMPDEST POP PUSH1 0x4 CALLDATASIZE LT PUSH2 0xEA JUMPI PUSH1 0x0 CALLDATALOAD PUSH1 0xE0 SHR DUP1 PUSH4 0x70A08231 GT PUSH2 0x8C JUMPI DUP1 PUSH4 0x9DC29FAC GT PUSH2 0x66 JUMPI DUP1 PUSH4 0x9DC29FAC EQ PUSH2 0x261 JUMPI DUP1 PUSH4 0xA9059CBB EQ PUSH2 0x27D JUMPI DUP1 PUSH4 0xBF353DBB EQ PUSH2 0x2AD JUMPI DUP1 PUSH4 0xDD62ED3E EQ PUSH2 0x2DD JUMPI PUSH2 0xEA JUMP JUMPDEST DUP1 PUSH4 0x70A08231 EQ PUSH2 0x1E3 JUMPI DUP1 PUSH4 0x7ECEBE00 EQ PUSH2 0x213 JUMPI DUP1 PUSH4 0x95D89B41 EQ PUSH2 0x243 JUMPI PUSH2 0xEA JUMP JUMPDEST DUP1 PUSH4 0x23B872DD GT PUSH2 0xC8 JUMPI DUP1 PUSH4 0x23B872DD EQ PUSH2 0x15B JUMPI DUP1 PUSH4 0x313CE567 EQ PUSH2 0x18B JUMPI DUP1 PUSH4 0x40C10F19 EQ PUSH2 0x1A9 JUMPI DUP1 PUSH4 0x54FD4D50 EQ PUSH2 0x1C5 JUMPI PUSH2 0xEA JUMP JUMPDEST DUP1 PUSH4 0x6FDDE03 EQ PUSH2 0xEF JUMPI DUP1 PUSH4 0x95EA7B3 EQ PUSH2 0x10D JUMPI DUP1 PUSH4 0x18160DDD EQ PUSH2 0x13D JUMPI JUMPDEST PUSH1 0x0 DUP1 REVERT JUMPDEST PUSH2 0xF7 PUSH2 0x30D JUMP JUMPDEST PUSH1 0x40 MLOAD PUSH2 0x104 SWAP2 SWAP1 PUSH2 0xE67 JUMP JUMPDEST PUSH1 0x40 MLOAD DUP1 SWAP2 SUB SWAP1 RETURN JUMPDEST PUSH2 0x127 PUSH1 0x4 DUP1 CALLDATASIZE SUB DUP2 ADD SWAP1 PUSH2 0x122 SWAP2 SWAP1 PUSH2 0xD60 JUMP JUMPDEST PUSH2 0x346 JUMP JUMPDEST PUSH1 0x40 MLOAD PUSH2 0x134 SWAP2 SWAP1 PUSH2 0xE4C JUMP JUMPDEST PUSH1 0x40 MLOAD DUP1 SWAP2 SUB SWAP1 RETURN JUMPDEST PUSH2 0x145 PUSH2 0x438 JUMP JUMPDEST PUSH1 0x40 MLOAD PUSH2 0x152 SWAP2 SWAP1 PUSH2 0xEC9 JUMP JUMPDEST PUSH1 0x40 MLOAD DUP1 SWAP2 SUB SWAP1 RETURN JUMPDEST PUSH2 0x175 PUSH1 0x4 DUP1 CALLDATASIZE SUB DUP2 ADD SWAP1 PUSH2 0x170 SWAP2 SWAP1 PUSH2 0xD0D JUMP JUMPDEST PUSH2 0x43E JUMP JUMPDEST PUSH1 0x40 MLOAD PUSH2 0x182 SWAP2 SWAP1 PUSH2 0xE4C JUMP JUMPDEST PUSH1 0x40 MLOAD DUP1 SWAP2 SUB SWAP1 RETURN JUMPDEST PUSH2 0x193 PUSH2 0x7A3 JUMP JUMPDEST PUSH1 0x40 MLOAD PUSH2 0x1A0 SWAP2 SWAP1 PUSH2 0xEE4 JUMP JUMPDEST PUSH1 0x40 MLOAD DUP1 SWAP2 SUB SWAP1 RETURN JUMPDEST PUSH2 0x1C3 PUSH1 0x4 DUP1 CALLDATASIZE SUB DUP2 ADD SWAP1 PUSH2 0x1BE SWAP2 SWAP1 PUSH2 0xD60 JUMP JUMPDEST PUSH2 0x7A8 JUMP JUMPDEST STOP JUMPDEST PUSH2 0x1CD PUSH2 0x931 JUMP JUMPDEST PUSH1 0x40 MLOAD PUSH2 0x1DA SWAP2 SWAP1 PUSH2 0xE67 JUMP JUMPDEST PUSH1 0x40 MLOAD DUP1 SWAP2 SUB SWAP1 RETURN JUMPDEST PUSH2 0x1FD PUSH1 0x4 DUP1 CALLDATASIZE SUB DUP2 ADD SWAP1 PUSH2 0x1F8 SWAP2 SWAP1 PUSH2 0xCA0 JUMP JUMPDEST PUSH2 0x96A JUMP JUMPDEST PUSH1 0x40 MLOAD PUSH2 0x20A SWAP2 SWAP1 PUSH2 0xEC9 JUMP JUMPDEST PUSH1 0x40 MLOAD DUP1 SWAP2 SUB SWAP1 RETURN JUMPDEST PUSH2 0x22D PUSH1 0x4 DUP1 CALLDATASIZE SUB DUP2 ADD SWAP1 PUSH2 0x228 SWAP2 SWAP1 PUSH2 0xCA0 JUMP JUMPDEST PUSH2 0x982 JUMP JUMPDEST PUSH1 0x40 MLOAD PUSH2 0x23A SWAP2 SWAP1 PUSH2 0xEC9 JUMP JUMPDEST PUSH1 0x40 MLOAD DUP1 SWAP2 SUB SWAP1 RETURN JUMPDEST PUSH2 0x24B PUSH2 0x99A JUMP JUMPDEST PUSH1 0x40 MLOAD PUSH2 0x258 SWAP2 SWAP1 PUSH2 0xE67 JUMP JUMPDEST PUSH1 0x40 MLOAD DUP1 SWAP2 SUB SWAP1 RETURN JUMPDEST PUSH2 0x27B PUSH1 0x4 DUP1 CALLDATASIZE SUB DUP2 ADD SWAP1 PUSH2 0x276 SWAP2 SWAP1 PUSH2 0xD60 JUMP JUMPDEST PUSH2 0x9D3 JUMP JUMPDEST STOP JUMPDEST PUSH2 0x297 PUSH1 0x4 DUP1 CALLDATASIZE SUB DUP2 ADD SWAP1 PUSH2 0x292 SWAP2 SWAP1 PUSH2 0xD60 JUMP JUMPDEST PUSH2 0xBDE JUMP JUMPDEST PUSH1 0x40 MLOAD PUSH2 0x2A4 SWAP2 SWAP1 PUSH2 0xE4C JUMP JUMPDEST PUSH1 0x40 MLOAD DUP1 SWAP2 SUB SWAP1 RETURN JUMPDEST PUSH2 0x2C7 PUSH1 0x4 DUP1 CALLDATASIZE SUB DUP2 ADD SWAP1 PUSH2 0x2C2 SWAP2 SWAP1 PUSH2 0xCA0 JUMP JUMPDEST PUSH2 0xBF3 JUMP JUMPDEST PUSH1 0x40 MLOAD PUSH2 0x2D4 SWAP2 SWAP1 PUSH2 0xEC9 JUMP JUMPDEST PUSH1 0x40 MLOAD DUP1 SWAP2 SUB SWAP1 RETURN JUMPDEST PUSH2 0x2F7 PUSH1 0x4 DUP1 CALLDATASIZE SUB DUP2 ADD SWAP1 PUSH2 0x2F2 SWAP2 SWAP1 PUSH2 0xCCD JUMP JUMPDEST PUSH2 0xC0B JUMP JUMPDEST PUSH1 0x40 MLOAD PUSH2 0x304 SWAP2 SWAP1 PUSH2 0xEC9 JUMP JUMPDEST PUSH1 0x40 MLOAD DUP1 SWAP2 SUB SWAP1 RETURN JUMPDEST PUSH1 0x40 MLOAD DUP1 PUSH1 0x40 ADD PUSH1 0x40 MSTORE DUP1 PUSH1 0x8 DUP2 MSTORE PUSH1 0x20 ADD PUSH32 0x446F7461436F696E000000000000000000000000000000000000000000000000 DUP2 MSTORE POP DUP2 JUMP JUMPDEST PUSH1 0x0 DUP2 PUSH1 0x3 PUSH1 0x0 CALLER PUSH20 0xFFFFFFFFFFFFFFFFFFFFFFFFFFFFFFFFFFFFFFFF AND PUSH20 0xFFFFFFFFFFFFFFFFFFFFFFFFFFFFFFFFFFFFFFFF AND DUP2 MSTORE PUSH1 0x20 ADD SWAP1 DUP2 MSTORE PUSH1 0x20 ADD PUSH1 0x0 KECCAK256 PUSH1 0x0 DUP6 PUSH20 0xFFFFFFFFFFFFFFFFFFFFFFFFFFFFFFFFFFFFFFFF AND PUSH20 0xFFFFFFFFFFFFFFFFFFFFFFFFFFFFFFFFFFFFFFFF AND DUP2 MSTORE PUSH1 0x20 ADD SWAP1 DUP2 MSTORE PUSH1 0x20 ADD PUSH1 0x0 KECCAK256 DUP2 SWAP1 SSTORE POP DUP3 PUSH20 0xFFFFFFFFFFFFFFFFFFFFFFFFFFFFFFFFFFFFFFFF AND CALLER PUSH20 0xFFFFFFFFFFFFFFFFFFFFFFFFFFFFFFFFFFFFFFFF AND PUSH32 0x8C5BE1E5EBEC7D5BD14F71427D1E84F3DD0314C0F7B2291E5B200AC8C7C3B925 DUP5 PUSH1 0x40 MLOAD PUSH2 0x426 SWAP2 SWAP1 PUSH2 0xEC9 JUMP JUMPDEST PUSH1 0x40 MLOAD DUP1 SWAP2 SUB SWAP1 LOG3 PUSH1 0x1 SWAP1 POP SWAP3 SWAP2 POP POP JUMP JUMPDEST PUSH1 0x1 SLOAD DUP2 JUMP JUMPDEST PUSH1 0x0 PUSH1 0x2 PUSH1 0x0 DUP6 PUSH20 0xFFFFFFFFFFFFFFFFFFFFFFFFFFFFFFFFFFFFFFFF AND PUSH20 0xFFFFFFFFFFFFFFFFFFFFFFFFFFFFFFFFFFFFFFFF AND DUP2 MSTORE PUSH1 0x20 ADD SWAP1 DUP2 MSTORE PUSH1 0x20 ADD PUSH1 0x0 KECCAK256 SLOAD DUP3 GT ISZERO PUSH2 0x48C JUMPI PUSH1 0x0 DUP1 REVERT JUMPDEST PUSH1 0x3 PUSH1 0x0 DUP6 PUSH20 0xFFFFFFFFFFFFFFFFFFFFFFFFFFFFFFFFFFFFFFFF AND PUSH20 0xFFFFFFFFFFFFFFFFFFFFFFFFFFFFFFFFFFFFFFFF AND DUP2 MSTORE PUSH1 0x20 ADD SWAP1 DUP2 MSTORE PUSH1 0x20 ADD PUSH1 0x0 KECCAK256 PUSH1 0x0 CALLER PUSH20 0xFFFFFFFFFFFFFFFFFFFFFFFFFFFFFFFFFFFFFFFF AND PUSH20 0xFFFFFFFFFFFFFFFFFFFFFFFFFFFFFFFFFFFFFFFF AND DUP2 MSTORE PUSH1 0x20 ADD SWAP1 DUP2 MSTORE PUSH1 0x20 ADD PUSH1 0x0 KECCAK256 SLOAD DUP3 GT ISZERO PUSH2 0x515 JUMPI PUSH1 0x0 DUP1 REVERT JUMPDEST PUSH2 0x59B PUSH1 0x3 PUSH1 0x0 DUP7 PUSH20 0xFFFFFFFFFFFFFFFFFFFFFFFFFFFFFFFFFFFFFFFF AND PUSH20 0xFFFFFFFFFFFFFFFFFFFFFFFFFFFFFFFFFFFFFFFF AND DUP2 MSTORE PUSH1 0x20 ADD SWAP1 DUP2 MSTORE PUSH1 0x20 ADD PUSH1 0x0 KECCAK256 PUSH1 0x0 CALLER PUSH20 0xFFFFFFFFFFFFFFFFFFFFFFFFFFFFFFFFFFFFFFFF AND PUSH20 0xFFFFFFFFFFFFFFFFFFFFFFFFFFFFFFFFFFFFFFFF AND DUP2 MSTORE PUSH1 0x20 ADD SWAP1 DUP2 MSTORE PUSH1 0x20 ADD PUSH1 0x0 KECCAK256 SLOAD DUP4 PUSH2 0xC30 JUMP JUMPDEST PUSH1 0x3 PUSH1 0x0 DUP7 PUSH20 0xFFFFFFFFFFFFFFFFFFFFFFFFFFFFFFFFFFFFFFFF AND PUSH20 0xFFFFFFFFFFFFFFFFFFFFFFFFFFFFFFFFFFFFFFFF AND DUP2 MSTORE PUSH1 0x20 ADD SWAP1 DUP2 MSTORE PUSH1 0x20 ADD PUSH1 0x0 KECCAK256 PUSH1 0x0 CALLER PUSH20 0xFFFFFFFFFFFFFFFFFFFFFFFFFFFFFFFFFFFFFFFF AND PUSH20 0xFFFFFFFFFFFFFFFFFFFFFFFFFFFFFFFFFFFFFFFF AND DUP2 MSTORE PUSH1 0x20 ADD SWAP1 DUP2 MSTORE PUSH1 0x20 ADD PUSH1 0x0 KECCAK256 DUP2 SWAP1 SSTORE POP PUSH2 0x664 PUSH1 0x2 PUSH1 0x0 DUP7 PUSH20 0xFFFFFFFFFFFFFFFFFFFFFFFFFFFFFFFFFFFFFFFF AND PUSH20 0xFFFFFFFFFFFFFFFFFFFFFFFFFFFFFFFFFFFFFFFF AND DUP2 MSTORE PUSH1 0x20 ADD SWAP1 DUP2 MSTORE PUSH1 0x20 ADD PUSH1 0x0 KECCAK256 SLOAD DUP4 PUSH2 0xC30 JUMP JUMPDEST PUSH1 0x2 PUSH1 0x0 DUP7 PUSH20 0xFFFFFFFFFFFFFFFFFFFFFFFFFFFFFFFFFFFFFFFF AND PUSH20 0xFFFFFFFFFFFFFFFFFFFFFFFFFFFFFFFFFFFFFFFF AND DUP2 MSTORE PUSH1 0x20 ADD SWAP1 DUP2 MSTORE PUSH1 0x20 ADD PUSH1 0x0 KECCAK256 DUP2 SWAP1 SSTORE POP PUSH2 0x6F0 PUSH1 0x2 PUSH1 0x0 DUP6 PUSH20 0xFFFFFFFFFFFFFFFFFFFFFFFFFFFFFFFFFFFFFFFF AND PUSH20 0xFFFFFFFFFFFFFFFFFFFFFFFFFFFFFFFFFFFFFFFF AND DUP2 MSTORE PUSH1 0x20 ADD SWAP1 DUP2 MSTORE PUSH1 0x20 ADD PUSH1 0x0 KECCAK256 SLOAD DUP4 PUSH2 0xC53 JUMP JUMPDEST PUSH1 0x2 PUSH1 0x0 DUP6 PUSH20 0xFFFFFFFFFFFFFFFFFFFFFFFFFFFFFFFFFFFFFFFF AND PUSH20 0xFFFFFFFFFFFFFFFFFFFFFFFFFFFFFFFFFFFFFFFF AND DUP2 MSTORE PUSH1 0x20 ADD SWAP1 DUP2 MSTORE PUSH1 0x20 ADD PUSH1 0x0 KECCAK256 DUP2 SWAP1 SSTORE POP DUP3 PUSH20 0xFFFFFFFFFFFFFFFFFFFFFFFFFFFFFFFFFFFFFFFF AND DUP5 PUSH20 0xFFFFFFFFFFFFFFFFFFFFFFFFFFFFFFFFFFFFFFFF AND PUSH32 0xDDF252AD1BE2C89B69C2B068FC378DAA952BA7F163C4A11628F55A4DF523B3EF DUP5 PUSH1 0x40 MLOAD PUSH2 0x790 SWAP2 SWAP1 PUSH2 0xEC9 JUMP JUMPDEST PUSH1 0x40 MLOAD DUP1 SWAP2 SUB SWAP1 LOG3 PUSH1 0x1 SWAP1 POP SWAP4 SWAP3 POP POP POP JUMP JUMPDEST PUSH1 0x0 DUP2 JUMP JUMPDEST PUSH1 0x1 PUSH1 0x0 DUP1 CALLER PUSH20 0xFFFFFFFFFFFFFFFFFFFFFFFFFFFFFFFFFFFFFFFF AND PUSH20 0xFFFFFFFFFFFFFFFFFFFFFFFFFFFFFFFFFFFFFFFF AND DUP2 MSTORE PUSH1 0x20 ADD SWAP1 DUP2 MSTORE PUSH1 0x20 ADD PUSH1 0x0 KECCAK256 SLOAD EQ PUSH2 0x829 JUMPI PUSH1 0x40 MLOAD PUSH32 0x8C379A000000000000000000000000000000000000000000000000000000000 DUP2 MSTORE PUSH1 0x4 ADD PUSH2 0x820 SWAP1 PUSH2 0xEA9 JUMP JUMPDEST PUSH1 0x40 MLOAD DUP1 SWAP2 SUB SWAP1 REVERT JUMPDEST PUSH2 0x872 PUSH1 0x2 PUSH1 0x0 DUP5 PUSH20 0xFFFFFFFFFFFFFFFFFFFFFFFFFFFFFFFFFFFFFFFF AND PUSH20 0xFFFFFFFFFFFFFFFFFFFFFFFFFFFFFFFFFFFFFFFF AND DUP2 MSTORE PUSH1 0x20 ADD SWAP1 DUP2 MSTORE PUSH1 0x20 ADD PUSH1 0x0 KECCAK256 SLOAD DUP3 PUSH2 0xC53 JUMP JUMPDEST PUSH1 0x2 PUSH1 0x0 DUP5 PUSH20 0xFFFFFFFFFFFFFFFFFFFFFFFFFFFFFFFFFFFFFFFF AND PUSH20 0xFFFFFFFFFFFFFFFFFFFFFFFFFFFFFFFFFFFFFFFF AND DUP2 MSTORE PUSH1 0x20 ADD SWAP1 DUP2 MSTORE PUSH1 0x20 ADD PUSH1 0x0 KECCAK256 DUP2 SWAP1 SSTORE POP PUSH2 0x8C1 PUSH1 0x1 SLOAD DUP3 PUSH2 0xC53 JUMP JUMPDEST PUSH1 0x1 DUP2 SWAP1 SSTORE POP DUP2 PUSH20 0xFFFFFFFFFFFFFFFFFFFFFFFFFFFFFFFFFFFFFFFF AND PUSH1 0x0 PUSH20 0xFFFFFFFFFFFFFFFFFFFFFFFFFFFFFFFFFFFFFFFF AND PUSH32 0xDDF252AD1BE2C89B69C2B068FC378DAA952BA7F163C4A11628F55A4DF523B3EF DUP4 PUSH1 0x40 MLOAD PUSH2 0x925 SWAP2 SWAP1 PUSH2 0xEC9 JUMP JUMPDEST PUSH1 0x40 MLOAD DUP1 SWAP2 SUB SWAP1 LOG3 POP POP JUMP JUMPDEST PUSH1 0x40 MLOAD DUP1 PUSH1 0x40 ADD PUSH1 0x40 MSTORE DUP1 PUSH1 0x1 DUP2 MSTORE PUSH1 0x20 ADD PUSH32 0x3100000000000000000000000000000000000000000000000000000000000000 DUP2 MSTORE POP DUP2 JUMP JUMPDEST PUSH1 0x2 PUSH1 0x20 MSTORE DUP1 PUSH1 0x0 MSTORE PUSH1 0x40 PUSH1 0x0 KECCAK256 PUSH1 0x0 SWAP2 POP SWAP1 POP SLOAD DUP2 JUMP JUMPDEST PUSH1 0x4 PUSH1 0x20 MSTORE DUP1 PUSH1 0x0 MSTORE PUSH1 0x40 PUSH1 0x0 KECCAK256 PUSH1 0x0 SWAP2 POP SWAP1 POP SLOAD DUP2 JUMP JUMPDEST PUSH1 0x40 MLOAD DUP1 PUSH1 0x40 ADD PUSH1 0x40 MSTORE DUP1 PUSH1 0x2 DUP2 MSTORE PUSH1 0x20 ADD PUSH32 0x4443000000000000000000000000000000000000000000000000000000000000 DUP2 MSTORE POP DUP2 JUMP JUMPDEST PUSH1 0x1 PUSH1 0x0 DUP1 CALLER PUSH20 0xFFFFFFFFFFFFFFFFFFFFFFFFFFFFFFFFFFFFFFFF AND PUSH20 0xFFFFFFFFFFFFFFFFFFFFFFFFFFFFFFFFFFFFFFFF AND DUP2 MSTORE PUSH1 0x20 ADD SWAP1 DUP2 MSTORE PUSH1 0x20 ADD PUSH1 0x0 KECCAK256 SLOAD EQ PUSH2 0xA54 JUMPI PUSH1 0x40 MLOAD PUSH32 0x8C379A000000000000000000000000000000000000000000000000000000000 DUP2 MSTORE PUSH1 0x4 ADD PUSH2 0xA4B SWAP1 PUSH2 0xEA9 JUMP JUMPDEST PUSH1 0x40 MLOAD DUP1 SWAP2 SUB SWAP1 REVERT JUMPDEST DUP1 PUSH1 0x2 PUSH1 0x0 DUP5 PUSH20 0xFFFFFFFFFFFFFFFFFFFFFFFFFFFFFFFFFFFFFFFF AND PUSH20 0xFFFFFFFFFFFFFFFFFFFFFFFFFFFFFFFFFFFFFFFF AND DUP2 MSTORE PUSH1 0x20 ADD SWAP1 DUP2 MSTORE PUSH1 0x20 ADD PUSH1 0x0 KECCAK256 SLOAD LT ISZERO PUSH2 0xAD6 JUMPI PUSH1 0x40 MLOAD PUSH32 0x8C379A000000000000000000000000000000000000000000000000000000000 DUP2 MSTORE PUSH1 0x4 ADD PUSH2 0xACD SWAP1 PUSH2 0xE89 JUMP JUMPDEST PUSH1 0x40 MLOAD DUP1 SWAP2 SUB SWAP1 REVERT JUMPDEST PUSH2 0xB1F PUSH1 0x2 PUSH1 0x0 DUP5 PUSH20 0xFFFFFFFFFFFFFFFFFFFFFFFFFFFFFFFFFFFFFFFF AND PUSH20 0xFFFFFFFFFFFFFFFFFFFFFFFFFFFFFFFFFFFFFFFF AND DUP2 MSTORE PUSH1 0x20 ADD SWAP1 DUP2 MSTORE PUSH1 0x20 ADD PUSH1 0x0 KECCAK256 SLOAD DUP3 PUSH2 0xC30 JUMP JUMPDEST PUSH1 0x2 PUSH1 0x0 DUP5 PUSH20 0xFFFFFFFFFFFFFFFFFFFFFFFFFFFFFFFFFFFFFFFF AND PUSH20 0xFFFFFFFFFFFFFFFFFFFFFFFFFFFFFFFFFFFFFFFF AND DUP2 MSTORE PUSH1 0x20 ADD SWAP1 DUP2 MSTORE PUSH1 0x20 ADD PUSH1 0x0 KECCAK256 DUP2 SWAP1 SSTORE POP PUSH2 0xB6E PUSH1 0x1 SLOAD DUP3 PUSH2 0xC30 JUMP JUMPDEST PUSH1 0x1 DUP2 SWAP1 SSTORE POP PUSH1 0x0 PUSH20 0xFFFFFFFFFFFFFFFFFFFFFFFFFFFFFFFFFFFFFFFF AND DUP3 PUSH20 0xFFFFFFFFFFFFFFFFFFFFFFFFFFFFFFFFFFFFFFFF AND PUSH32 0xDDF252AD1BE2C89B69C2B068FC378DAA952BA7F163C4A11628F55A4DF523B3EF DUP4 PUSH1 0x40 MLOAD PUSH2 0xBD2 SWAP2 SWAP1 PUSH2 0xEC9 JUMP JUMPDEST PUSH1 0x40 MLOAD DUP1 SWAP2 SUB SWAP1 LOG3 POP POP JUMP JUMPDEST PUSH1 0x0 PUSH2 0xBEB CALLER DUP5 DUP5 PUSH2 0x43E JUMP JUMPDEST SWAP1 POP SWAP3 SWAP2 POP POP JUMP JUMPDEST PUSH1 0x0 PUSH1 0x20 MSTORE DUP1 PUSH1 0x0 MSTORE PUSH1 0x40 PUSH1 0x0 KECCAK256 PUSH1 0x0 SWAP2 POP SWAP1 POP SLOAD DUP2 JUMP JUMPDEST PUSH1 0x3 PUSH1 0x20 MSTORE DUP2 PUSH1 0x0 MSTORE PUSH1 0x40 PUSH1 0x0 KECCAK256 PUSH1 0x20 MSTORE DUP1 PUSH1 0x0 MSTORE PUSH1 0x40 PUSH1 0x0 KECCAK256 PUSH1 0x0 SWAP2 POP SWAP2 POP POP SLOAD DUP2 JUMP JUMPDEST PUSH1 0x0 DUP3 DUP3 DUP5 PUSH2 0xC3F SWAP2 SWAP1 PUSH2 0xF71 JUMP JUMPDEST SWAP2 POP DUP2 GT ISZERO PUSH2 0xC4D JUMPI PUSH1 0x0 DUP1 REVERT JUMPDEST SWAP3 SWAP2 POP POP JUMP JUMPDEST PUSH1 0x0 DUP3 DUP3 DUP5 PUSH2 0xC62 SWAP2 SWAP1 PUSH2 0xF1B JUMP JUMPDEST SWAP2 POP DUP2 LT ISZERO PUSH2 0xC70 JUMPI PUSH1 0x0 DUP1 REVERT JUMPDEST SWAP3 SWAP2 POP POP JUMP JUMPDEST PUSH1 0x0 DUP2 CALLDATALOAD SWAP1 POP PUSH2 0xC85 DUP2 PUSH2 0x10C4 JUMP JUMPDEST SWAP3 SWAP2 POP POP JUMP JUMPDEST PUSH1 0x0 DUP2 CALLDATALOAD SWAP1 POP PUSH2 0xC9A DUP2 PUSH2 0x10DB JUMP JUMPDEST SWAP3 SWAP2 POP POP JUMP JUMPDEST PUSH1 0x0 PUSH1 0x20 DUP3 DUP5 SUB SLT ISZERO PUSH2 0xCB6 JUMPI PUSH2 0xCB5 PUSH2 0x105C JUMP JUMPDEST JUMPDEST PUSH1 0x0 PUSH2 0xCC4 DUP5 DUP3 DUP6 ADD PUSH2 0xC76 JUMP JUMPDEST SWAP2 POP POP SWAP3 SWAP2 POP POP JUMP JUMPDEST PUSH1 0x0 DUP1 PUSH1 0x40 DUP4 DUP6 SUB SLT ISZERO PUSH2 0xCE4 JUMPI PUSH2 0xCE3 PUSH2 0x105C JUMP JUMPDEST JUMPDEST PUSH1 0x0 PUSH2 0xCF2 DUP6 DUP3 DUP7 ADD PUSH2 0xC76 JUMP JUMPDEST SWAP3 POP POP PUSH1 0x20 PUSH2 0xD03 DUP6 DUP3 DUP7 ADD PUSH2 0xC76 JUMP JUMPDEST SWAP2 POP POP SWAP3 POP SWAP3 SWAP1 POP JUMP JUMPDEST PUSH1 0x0 DUP1 PUSH1 0x0 PUSH1 0x60 DUP5 DUP7 SUB SLT ISZERO PUSH2 0xD26 JUMPI PUSH2 0xD25 PUSH2 0x105C JUMP JUMPDEST JUMPDEST PUSH1 0x0 PUSH2 0xD34 DUP7 DUP3 DUP8 ADD PUSH2 0xC76 JUMP JUMPDEST SWAP4 POP POP PUSH1 0x20 PUSH2 0xD45 DUP7 DUP3 DUP8 ADD PUSH2 0xC76 JUMP JUMPDEST SWAP3 POP POP PUSH1 0x40 PUSH2 0xD56 DUP7 DUP3 DUP8 ADD PUSH2 0xC8B JUMP JUMPDEST SWAP2 POP POP SWAP3 POP SWAP3 POP SWAP3 JUMP JUMPDEST PUSH1 0x0 DUP1 PUSH1 0x40 DUP4 DUP6 SUB SLT ISZERO PUSH2 0xD77 JUMPI PUSH2 0xD76 PUSH2 0x105C JUMP JUMPDEST JUMPDEST PUSH1 0x0 PUSH2 0xD85 DUP6 DUP3 DUP7 ADD PUSH2 0xC76 JUMP JUMPDEST SWAP3 POP POP PUSH1 0x20 PUSH2 0xD96 DUP6 DUP3 DUP7 ADD PUSH2 0xC8B JUMP JUMPDEST SWAP2 POP POP SWAP3 POP SWAP3 SWAP1 POP JUMP JUMPDEST PUSH2 0xDA9 DUP2 PUSH2 0xFB7 JUMP JUMPDEST DUP3 MSTORE POP POP JUMP JUMPDEST PUSH1 0x0 PUSH2 0xDBA DUP3 PUSH2 0xEFF JUMP JUMPDEST PUSH2 0xDC4 DUP2 DUP6 PUSH2 0xF0A JUMP JUMPDEST SWAP4 POP PUSH2 0xDD4 DUP2 DUP6 PUSH1 0x20 DUP7 ADD PUSH2 0xFFA JUMP JUMPDEST PUSH2 0xDDD DUP2 PUSH2 0x1061 JUMP JUMPDEST DUP5 ADD SWAP2 POP POP SWAP3 SWAP2 POP POP JUMP JUMPDEST PUSH1 0x0 PUSH2 0xDF5 PUSH1 0x14 DUP4 PUSH2 0xF0A JUMP JUMPDEST SWAP2 POP PUSH2 0xE00 DUP3 PUSH2 0x1072 JUMP JUMPDEST PUSH1 0x20 DUP3 ADD SWAP1 POP SWAP2 SWAP1 POP JUMP JUMPDEST PUSH1 0x0 PUSH2 0xE18 PUSH1 0xE DUP4 PUSH2 0xF0A JUMP JUMPDEST SWAP2 POP PUSH2 0xE23 DUP3 PUSH2 0x109B JUMP JUMPDEST PUSH1 0x20 DUP3 ADD SWAP1 POP SWAP2 SWAP1 POP JUMP JUMPDEST PUSH2 0xE37 DUP2 PUSH2 0xFE3 JUMP JUMPDEST DUP3 MSTORE POP POP JUMP JUMPDEST PUSH2 0xE46 DUP2 PUSH2 0xFED JUMP JUMPDEST DUP3 MSTORE POP POP JUMP JUMPDEST PUSH1 0x0 PUSH1 0x20 DUP3 ADD SWAP1 POP PUSH2 0xE61 PUSH1 0x0 DUP4 ADD DUP5 PUSH2 0xDA0 JUMP JUMPDEST SWAP3 SWAP2 POP POP JUMP JUMPDEST PUSH1 0x0 PUSH1 0x20 DUP3 ADD SWAP1 POP DUP2 DUP2 SUB PUSH1 0x0 DUP4 ADD MSTORE PUSH2 0xE81 DUP2 DUP5 PUSH2 0xDAF JUMP JUMPDEST SWAP1 POP SWAP3 SWAP2 POP POP JUMP JUMPDEST PUSH1 0x0 PUSH1 0x20 DUP3 ADD SWAP1 POP DUP2 DUP2 SUB PUSH1 0x0 DUP4 ADD MSTORE PUSH2 0xEA2 DUP2 PUSH2 0xDE8 JUMP JUMPDEST SWAP1 POP SWAP2 SWAP1 POP JUMP JUMPDEST PUSH1 0x0 PUSH1 0x20 DUP3 ADD SWAP1 POP DUP2 DUP2 SUB PUSH1 0x0 DUP4 ADD MSTORE PUSH2 0xEC2 DUP2 PUSH2 0xE0B JUMP JUMPDEST SWAP1 POP SWAP2 SWAP1 POP JUMP JUMPDEST PUSH1 0x0 PUSH1 0x20 DUP3 ADD SWAP1 POP PUSH2 0xEDE PUSH1 0x0 DUP4 ADD DUP5 PUSH2 0xE2E JUMP JUMPDEST SWAP3 SWAP2 POP POP JUMP JUMPDEST PUSH1 0x0 PUSH1 0x20 DUP3 ADD SWAP1 POP PUSH2 0xEF9 PUSH1 0x0 DUP4 ADD DUP5 PUSH2 0xE3D JUMP JUMPDEST SWAP3 SWAP2 POP POP JUMP JUMPDEST PUSH1 0x0 DUP2 MLOAD SWAP1 POP SWAP2 SWAP1 POP JUMP JUMPDEST PUSH1 0x0 DUP3 DUP3 MSTORE PUSH1 0x20 DUP3 ADD SWAP1 POP SWAP3 SWAP2 POP POP JUMP JUMPDEST PUSH1 0x0 PUSH2 0xF26 DUP3 PUSH2 0xFE3 JUMP JUMPDEST SWAP2 POP PUSH2 0xF31 DUP4 PUSH2 0xFE3 JUMP JUMPDEST SWAP3 POP DUP3 PUSH32 0xFFFFFFFFFFFFFFFFFFFFFFFFFFFFFFFFFFFFFFFFFFFFFFFFFFFFFFFFFFFFFFFF SUB DUP3 GT ISZERO PUSH2 0xF66 JUMPI PUSH2 0xF65 PUSH2 0x102D JUMP JUMPDEST JUMPDEST DUP3 DUP3 ADD SWAP1 POP SWAP3 SWAP2 POP POP JUMP JUMPDEST PUSH1 0x0 PUSH2 0xF7C DUP3 PUSH2 0xFE3 JUMP JUMPDEST SWAP2 POP PUSH2 0xF87 DUP4 PUSH2 0xFE3 JUMP JUMPDEST SWAP3 POP DUP3 DUP3 LT ISZERO PUSH2 0xF9A JUMPI PUSH2 0xF99 PUSH2 0x102D JUMP JUMPDEST JUMPDEST DUP3 DUP3 SUB SWAP1 POP SWAP3 SWAP2 POP POP JUMP JUMPDEST PUSH1 0x0 PUSH2 0xFB0 DUP3 PUSH2 0xFC3 JUMP JUMPDEST SWAP1 POP SWAP2 SWAP1 POP JUMP JUMPDEST PUSH1 0x0 DUP2 ISZERO ISZERO SWAP1 POP SWAP2 SWAP1 POP JUMP JUMPDEST PUSH1 0x0 PUSH20 0xFFFFFFFFFFFFFFFFFFFFFFFFFFFFFFFFFFFFFFFF DUP3 AND SWAP1 POP SWAP2 SWAP1 POP JUMP JUMPDEST PUSH1 0x0 DUP2 SWAP1 POP SWAP2 SWAP1 POP JUMP JUMPDEST PUSH1 0x0 PUSH1 0xFF DUP3 AND SWAP1 POP SWAP2 SWAP1 POP JUMP JUMPDEST PUSH1 0x0 JUMPDEST DUP4 DUP2 LT ISZERO PUSH2 0x1018 JUMPI DUP1 DUP3 ADD MLOAD DUP2 DUP5 ADD MSTORE PUSH1 0x20 DUP2 ADD SWAP1 POP PUSH2 0xFFD JUMP JUMPDEST DUP4 DUP2 GT ISZERO PUSH2 0x1027 JUMPI PUSH1 0x0 DUP5 DUP5 ADD MSTORE JUMPDEST POP POP POP POP JUMP JUMPDEST PUSH32 0x4E487B7100000000000000000000000000000000000000000000000000000000 PUSH1 0x0 MSTORE PUSH1 0x11 PUSH1 0x4 MSTORE PUSH1 0x24 PUSH1 0x0 REVERT JUMPDEST PUSH1 0x0 DUP1 REVERT JUMPDEST PUSH1 0x0 PUSH1 0x1F NOT PUSH1 0x1F DUP4 ADD AND SWAP1 POP SWAP2 SWAP1 POP JUMP JUMPDEST PUSH32 0x696E73756666696369656E742D62616C616E6365000000000000000000000000 PUSH1 0x0 DUP3 ADD MSTORE POP JUMP JUMPDEST PUSH32 0x4E6F742D617574686F72697A6564000000000000000000000000000000000000 PUSH1 0x0 DUP3 ADD MSTORE POP JUMP JUMPDEST PUSH2 0x10CD DUP2 PUSH2 0xFA5 JUMP JUMPDEST DUP2 EQ PUSH2 0x10D8 JUMPI PUSH1 0x0 DUP1 REVERT JUMPDEST POP JUMP JUMPDEST PUSH2 0x10E4 DUP2 PUSH2 0xFE3 JUMP JUMPDEST DUP2 EQ PUSH2 0x10EF JUMPI PUSH1 0x0 DUP1 REVERT JUMPDEST POP JUMP INVALID LOG2 PUSH5 0x6970667358 0x22 SLT KECCAK256 DIV DUP10 SSTORE 0xCB LOG4 0xA7 0x22 0xE1 SWAP1 0xEE MSIZE OR 0x22 EXP 0xC6 0xDF 0xD EQ EXTCODESIZE DUP4 EXTCODECOPY 0x49 GT DUP6 PUSH2 0x4DCE DUP16 0xF6 0xEC 0x5F 0xB6 PUSH5 0x736F6C6343 STOP ADDMOD SMOD STOP CALLER "
				},
				"gasEstimates": {
					"creation": {
						"codeDepositCost": "878400",
						"executionCost": "28133",
						"totalCost": "906533"
					},
					"external": {
						"allowance(address,address)": "infinite",
						"approve(address,uint256)": "infinite",
						"balanceOf(address)": "2837",
						"burn(address,uint256)": "infinite",
						"decimals()": "380",
						"mint(address,uint256)": "infinite",
						"name()": "infinite",
						"nonces(address)": "2859",
						"symbol()": "infinite",
						"totalSupply()": "2497",
						"transfer(address,uint256)": "infinite",
						"transferFrom(address,address,uint256)": "infinite",
						"version()": "infinite",
						"wards(address)": "2880"
					},
					"internal": {
						"add(uint256,uint256)": "infinite",
						"sub(uint256,uint256)": "infinite"
					}
				},
				"methodIdentifiers": {
					"allowance(address,address)": "dd62ed3e",
					"approve(address,uint256)": "095ea7b3",
					"balanceOf(address)": "70a08231",
					"burn(address,uint256)": "9dc29fac",
					"decimals()": "313ce567",
					"mint(address,uint256)": "40c10f19",
					"name()": "06fdde03",
					"nonces(address)": "7ecebe00",
					"symbol()": "95d89b41",
					"totalSupply()": "18160ddd",
					"transfer(address,uint256)": "a9059cbb",
					"transferFrom(address,address,uint256)": "23b872dd",
					"version()": "54fd4d50",
					"wards(address)": "bf353dbb"
				}
			},
			"storageLayout": {
				"storage": [
					{
						"astId": 5,
						"contract": "contracts/coin_development.sol:StableCoin",
						"label": "wards",
						"offset": 0,
						"slot": "0",
						"type": "t_mapping(t_address,t_uint256)"
					},
					{
						"astId": 33,
						"contract": "contracts/coin_development.sol:StableCoin",
						"label": "totalSupply",
						"offset": 0,
						"slot": "1",
						"type": "t_uint256"
					},
					{
						"astId": 37,
						"contract": "contracts/coin_development.sol:StableCoin",
						"label": "balanceOf",
						"offset": 0,
						"slot": "2",
						"type": "t_mapping(t_address,t_uint256)"
					},
					{
						"astId": 43,
						"contract": "contracts/coin_development.sol:StableCoin",
						"label": "allowance",
						"offset": 0,
						"slot": "3",
						"type": "t_mapping(t_address,t_mapping(t_address,t_uint256))"
					},
					{
						"astId": 47,
						"contract": "contracts/coin_development.sol:StableCoin",
						"label": "nonces",
						"offset": 0,
						"slot": "4",
						"type": "t_mapping(t_address,t_uint256)"
					}
				],
				"types": {
					"t_address": {
						"encoding": "inplace",
						"label": "address",
						"numberOfBytes": "20"
					},
					"t_mapping(t_address,t_mapping(t_address,t_uint256))": {
						"encoding": "mapping",
						"key": "t_address",
						"label": "mapping(address => mapping(address => uint256))",
						"numberOfBytes": "32",
						"value": "t_mapping(t_address,t_uint256)"
					},
					"t_mapping(t_address,t_uint256)": {
						"encoding": "mapping",
						"key": "t_address",
						"label": "mapping(address => uint256)",
						"numberOfBytes": "32",
						"value": "t_uint256"
					},
					"t_uint256": {
						"encoding": "inplace",
						"label": "uint256",
						"numberOfBytes": "32"
					}
				}
			},
			"userdoc": {
				"kind": "user",
				"methods": {},
				"version": 1
			}
		}
	}
}