{
	"contracts/coin_development.sol": {
		"StableCoin": {
			"abi": [
				{
					"inputs": [],
					"stateMutability": "nonpayable",
					"type": "constructor"
				},
				{
					"anonymous": false,
					"inputs": [
						{
							"indexed": true,
							"internalType": "address",
							"name": "tokenOwner",
							"type": "address"
						},
						{
							"indexed": true,
							"internalType": "address",
							"name": "spender",
							"type": "address"
						},
						{
							"indexed": false,
							"internalType": "uint256",
							"name": "tokens",
							"type": "uint256"
						}
					],
					"name": "Approval",
					"type": "event"
				},
				{
					"anonymous": false,
					"inputs": [
						{
							"indexed": true,
							"internalType": "address",
							"name": "from",
							"type": "address"
						},
						{
							"indexed": true,
							"internalType": "address",
							"name": "to",
							"type": "address"
						},
						{
							"indexed": false,
							"internalType": "uint256",
							"name": "tokens",
							"type": "uint256"
						}
					],
					"name": "Transfer",
					"type": "event"
				},
				{
					"inputs": [
						{
							"internalType": "address",
							"name": "owner",
							"type": "address"
						},
						{
							"internalType": "address",
							"name": "delegate",
							"type": "address"
						}
					],
					"name": "allowance",
					"outputs": [
						{
							"internalType": "uint256",
							"name": "",
							"type": "uint256"
						}
					],
					"stateMutability": "view",
					"type": "function"
				},
				{
					"inputs": [
						{
							"internalType": "address",
							"name": "delegate",
							"type": "address"
						},
						{
							"internalType": "uint256",
							"name": "numTokens",
							"type": "uint256"
						}
					],
					"name": "approve",
					"outputs": [
						{
							"internalType": "bool",
							"name": "",
							"type": "bool"
						}
					],
					"stateMutability": "nonpayable",
					"type": "function"
				},
				{
					"inputs": [
						{
							"internalType": "address",
							"name": "tokenOwner",
							"type": "address"
						}
					],
					"name": "balanceOf",
					"outputs": [
						{
							"internalType": "uint256",
							"name": "",
							"type": "uint256"
						}
					],
					"stateMutability": "view",
					"type": "function"
				},
				{
					"inputs": [
						{
							"internalType": "address",
							"name": "usr",
							"type": "address"
						},
						{
							"internalType": "uint256",
							"name": "wad",
							"type": "uint256"
						}
					],
					"name": "burn",
					"outputs": [],
					"stateMutability": "nonpayable",
					"type": "function"
				},
				{
					"inputs": [],
					"name": "decimals",
					"outputs": [
						{
							"internalType": "uint8",
							"name": "",
							"type": "uint8"
						}
					],
					"stateMutability": "view",
					"type": "function"
				},
				{
					"inputs": [
						{
							"internalType": "address",
							"name": "usr",
							"type": "address"
						},
						{
							"internalType": "uint256",
							"name": "wad",
							"type": "uint256"
						}
					],
					"name": "mint",
					"outputs": [],
					"stateMutability": "nonpayable",
					"type": "function"
				},
				{
					"inputs": [],
					"name": "name",
					"outputs": [
						{
							"internalType": "string",
							"name": "",
							"type": "string"
						}
					],
					"stateMutability": "view",
					"type": "function"
				},
				{
					"inputs": [],
					"name": "symbol",
					"outputs": [
						{
							"internalType": "string",
							"name": "",
							"type": "string"
						}
					],
					"stateMutability": "view",
					"type": "function"
				},
				{
					"inputs": [],
					"name": "totalSupply",
					"outputs": [
						{
							"internalType": "uint256",
							"name": "",
							"type": "uint256"
						}
					],
					"stateMutability": "view",
					"type": "function"
				},
				{
					"inputs": [
						{
							"internalType": "address",
							"name": "receiver",
							"type": "address"
						},
						{
							"internalType": "uint256",
							"name": "numTokens",
							"type": "uint256"
						}
					],
					"name": "transfer",
					"outputs": [
						{
							"internalType": "bool",
							"name": "",
							"type": "bool"
						}
					],
					"stateMutability": "nonpayable",
					"type": "function"
				},
				{
					"inputs": [
						{
							"internalType": "address",
							"name": "owner",
							"type": "address"
						},
						{
							"internalType": "address",
							"name": "buyer",
							"type": "address"
						},
						{
							"internalType": "uint256",
							"name": "numTokens",
							"type": "uint256"
						}
					],
					"name": "transferFrom",
					"outputs": [
						{
							"internalType": "bool",
							"name": "",
							"type": "bool"
						}
					],
					"stateMutability": "nonpayable",
					"type": "function"
				},
				{
					"inputs": [],
					"name": "version",
					"outputs": [
						{
							"internalType": "string",
							"name": "",
							"type": "string"
						}
					],
					"stateMutability": "view",
					"type": "function"
				},
				{
					"inputs": [
						{
							"internalType": "address",
							"name": "",
							"type": "address"
						}
					],
					"name": "wards",
					"outputs": [
						{
							"internalType": "uint256",
							"name": "",
							"type": "uint256"
						}
					],
					"stateMutability": "view",
					"type": "function"
				}
			],
			"devdoc": {
				"kind": "dev",
				"methods": {},
				"version": 1
			},
			"evm": {
				"assembly": "    /* \"contracts/coin_development.sol\":76:2930  contract StableCoin \r... */\n  mstore(0x40, 0x80)\n    /* \"contracts/coin_development.sol\":1019:1105  constructor() \r... */\n  callvalue\n  dup1\n  iszero\n  tag_1\n  jumpi\n  0x00\n  dup1\n  revert\ntag_1:\n  pop\n    /* \"contracts/coin_development.sol\":1070:1071  1 */\n  0x01\n    /* \"contracts/coin_development.sol\":1050:1055  wards */\n  0x00\n    /* \"contracts/coin_development.sol\":1050:1067  wards[msg.sender] */\n  dup1\n    /* \"contracts/coin_development.sol\":1056:1066  msg.sender */\n  caller\n    /* \"contracts/coin_development.sol\":1050:1067  wards[msg.sender] */\n  0xffffffffffffffffffffffffffffffffffffffff\n  and\n  0xffffffffffffffffffffffffffffffffffffffff\n  and\n  dup2\n  mstore\n  0x20\n  add\n  swap1\n  dup2\n  mstore\n  0x20\n  add\n  0x00\n  keccak256\n    /* \"contracts/coin_development.sol\":1050:1071  wards[msg.sender] = 1 */\n  dup2\n  swap1\n  sstore\n  pop\n    /* \"contracts/coin_development.sol\":1096:1097  0 */\n  0x00\n    /* \"contracts/coin_development.sol\":1082:1093  totalSupply */\n  0x01\n    /* \"contracts/coin_development.sol\":1082:1097  totalSupply = 0 */\n  dup2\n  swap1\n  sstore\n  pop\n    /* \"contracts/coin_development.sol\":76:2930  contract StableCoin \r... */\n  dataSize(sub_0)\n  dup1\n  dataOffset(sub_0)\n  0x00\n  codecopy\n  0x00\n  return\nstop\n\nsub_0: assembly {\n        /* \"contracts/coin_development.sol\":76:2930  contract StableCoin \r... */\n      mstore(0x40, 0x80)\n      callvalue\n      dup1\n      iszero\n      tag_1\n      jumpi\n      0x00\n      dup1\n      revert\n    tag_1:\n      pop\n      jumpi(tag_2, lt(calldatasize, 0x04))\n      shr(0xe0, calldataload(0x00))\n      dup1\n      0x54fd4d50\n      gt\n      tag_16\n      jumpi\n      dup1\n      0x9dc29fac\n      gt\n      tag_17\n      jumpi\n      dup1\n      0x9dc29fac\n      eq\n      tag_12\n      jumpi\n      dup1\n      0xa9059cbb\n      eq\n      tag_13\n      jumpi\n      dup1\n      0xbf353dbb\n      eq\n      tag_14\n      jumpi\n      dup1\n      0xdd62ed3e\n      eq\n      tag_15\n      jumpi\n      jump(tag_2)\n    tag_17:\n      dup1\n      0x54fd4d50\n      eq\n      tag_9\n      jumpi\n      dup1\n      0x70a08231\n      eq\n      tag_10\n      jumpi\n      dup1\n      0x95d89b41\n      eq\n      tag_11\n      jumpi\n      jump(tag_2)\n    tag_16:\n      dup1\n      0x06fdde03\n      eq\n      tag_3\n      jumpi\n      dup1\n      0x095ea7b3\n      eq\n      tag_4\n      jumpi\n      dup1\n      0x18160ddd\n      eq\n      tag_5\n      jumpi\n      dup1\n      0x23b872dd\n      eq\n      tag_6\n      jumpi\n      dup1\n      0x313ce567\n      eq\n      tag_7\n      jumpi\n      dup1\n      0x40c10f19\n      eq\n      tag_8\n      jumpi\n    tag_2:\n      0x00\n      dup1\n      revert\n        /* \"contracts/coin_development.sol\":279:319  string public constant name = \"DotaCoin\" */\n    tag_3:\n      tag_18\n      tag_19\n      jump\t// in\n    tag_18:\n      mload(0x40)\n      tag_20\n      swap2\n      swap1\n      tag_21\n      jump\t// in\n    tag_20:\n      mload(0x40)\n      dup1\n      swap2\n      sub\n      swap1\n      return\n        /* \"contracts/coin_development.sol\":1892:2110  function approve(address delegate, uint numTokens) public returns (bool) \r... */\n    tag_4:\n      tag_22\n      0x04\n      dup1\n      calldatasize\n      sub\n      dup2\n      add\n      swap1\n      tag_23\n      swap2\n      swap1\n      tag_24\n      jump\t// in\n    tag_23:\n      tag_25\n      jump\t// in\n    tag_22:\n      mload(0x40)\n      tag_26\n      swap2\n      swap1\n      tag_27\n      jump\t// in\n    tag_26:\n      mload(0x40)\n      dup1\n      swap2\n      sub\n      swap1\n      return\n        /* \"contracts/coin_development.sol\":454:480  uint256 public totalSupply */\n    tag_5:\n      tag_28\n      tag_29\n      jump\t// in\n    tag_28:\n      mload(0x40)\n      tag_30\n      swap2\n      swap1\n      tag_31\n      jump\t// in\n    tag_30:\n      mload(0x40)\n      dup1\n      swap2\n      sub\n      swap1\n      return\n        /* \"contracts/coin_development.sol\":1398:1884  function transferFrom(address owner, address buyer, uint numTokens) public returns (bool) \r... */\n    tag_6:\n      tag_32\n      0x04\n      dup1\n      calldatasize\n      sub\n      dup2\n      add\n      swap1\n      tag_33\n      swap2\n      swap1\n      tag_34\n      jump\t// in\n    tag_33:\n      tag_35\n      jump\t// in\n    tag_32:\n      mload(0x40)\n      tag_36\n      swap2\n      swap1\n      tag_27\n      jump\t// in\n    tag_36:\n      mload(0x40)\n      dup1\n      swap2\n      sub\n      swap1\n      return\n        /* \"contracts/coin_development.sol\":413:447  uint8 public constant decimals = 0 */\n    tag_7:\n      tag_37\n      tag_38\n      jump\t// in\n    tag_37:\n      mload(0x40)\n      tag_39\n      swap2\n      swap1\n      tag_40\n      jump\t// in\n    tag_39:\n      mload(0x40)\n      dup1\n      swap2\n      sub\n      swap1\n      return\n        /* \"contracts/coin_development.sol\":2290:2497  function mint(address usr, uint wad) external auth \r... */\n    tag_8:\n      tag_41\n      0x04\n      dup1\n      calldatasize\n      sub\n      dup2\n      add\n      swap1\n      tag_42\n      swap2\n      swap1\n      tag_24\n      jump\t// in\n    tag_42:\n      tag_43\n      jump\t// in\n    tag_41:\n      stop\n        /* \"contracts/coin_development.sol\":369:406  string public constant version  = \"1\" */\n    tag_9:\n      tag_44\n      tag_45\n      jump\t// in\n    tag_44:\n      mload(0x40)\n      tag_46\n      swap2\n      swap1\n      tag_21\n      jump\t// in\n    tag_46:\n      mload(0x40)\n      dup1\n      swap2\n      sub\n      swap1\n      return\n        /* \"contracts/coin_development.sol\":1113:1231  function balanceOf(address tokenOwner) public view returns (uint) \r... */\n    tag_10:\n      tag_47\n      0x04\n      dup1\n      calldatasize\n      sub\n      dup2\n      add\n      swap1\n      tag_48\n      swap2\n      swap1\n      tag_49\n      jump\t// in\n    tag_48:\n      tag_50\n      jump\t// in\n    tag_47:\n      mload(0x40)\n      tag_51\n      swap2\n      swap1\n      tag_31\n      jump\t// in\n    tag_51:\n      mload(0x40)\n      dup1\n      swap2\n      sub\n      swap1\n      return\n        /* \"contracts/coin_development.sol\":326:362  string public constant symbol = \"DC\" */\n    tag_11:\n      tag_52\n      tag_53\n      jump\t// in\n    tag_52:\n      mload(0x40)\n      tag_54\n      swap2\n      swap1\n      tag_21\n      jump\t// in\n    tag_54:\n      mload(0x40)\n      dup1\n      swap2\n      sub\n      swap1\n      return\n        /* \"contracts/coin_development.sol\":2503:2927  function burn(address usr, uint wad) external auth \r... */\n    tag_12:\n      tag_55\n      0x04\n      dup1\n      calldatasize\n      sub\n      dup2\n      add\n      swap1\n      tag_56\n      swap2\n      swap1\n      tag_24\n      jump\t// in\n    tag_56:\n      tag_57\n      jump\t// in\n    tag_55:\n      stop\n        /* \"contracts/coin_development.sol\":1239:1390  function transfer(address receiver, uint numTokens) public returns (bool) \r... */\n    tag_13:\n      tag_58\n      0x04\n      dup1\n      calldatasize\n      sub\n      dup2\n      add\n      swap1\n      tag_59\n      swap2\n      swap1\n      tag_24\n      jump\t// in\n    tag_59:\n      tag_60\n      jump\t// in\n    tag_58:\n      mload(0x40)\n      tag_61\n      swap2\n      swap1\n      tag_27\n      jump\t// in\n    tag_61:\n      mload(0x40)\n      dup1\n      swap2\n      sub\n      swap1\n      return\n        /* \"contracts/coin_development.sol\":126:164  mapping (address => uint) public wards */\n    tag_14:\n      tag_62\n      0x04\n      dup1\n      calldatasize\n      sub\n      dup2\n      add\n      swap1\n      tag_63\n      swap2\n      swap1\n      tag_49\n      jump\t// in\n    tag_63:\n      tag_64\n      jump\t// in\n    tag_62:\n      mload(0x40)\n      tag_65\n      swap2\n      swap1\n      tag_31\n      jump\t// in\n    tag_65:\n      mload(0x40)\n      dup1\n      swap2\n      sub\n      swap1\n      return\n        /* \"contracts/coin_development.sol\":2118:2253  function allowance(address owner, address delegate) public view returns (uint) \r... */\n    tag_15:\n      tag_66\n      0x04\n      dup1\n      calldatasize\n      sub\n      dup2\n      add\n      swap1\n      tag_67\n      swap2\n      swap1\n      tag_68\n      jump\t// in\n    tag_67:\n      tag_69\n      jump\t// in\n    tag_66:\n      mload(0x40)\n      tag_70\n      swap2\n      swap1\n      tag_31\n      jump\t// in\n    tag_70:\n      mload(0x40)\n      dup1\n      swap2\n      sub\n      swap1\n      return\n        /* \"contracts/coin_development.sol\":279:319  string public constant name = \"DotaCoin\" */\n    tag_19:\n      mload(0x40)\n      dup1\n      0x40\n      add\n      0x40\n      mstore\n      dup1\n      0x08\n      dup2\n      mstore\n      0x20\n      add\n      0x446f7461436f696e000000000000000000000000000000000000000000000000\n      dup2\n      mstore\n      pop\n      dup2\n      jump\t// out\n        /* \"contracts/coin_development.sol\":1892:2110  function approve(address delegate, uint numTokens) public returns (bool) \r... */\n    tag_25:\n        /* \"contracts/coin_development.sol\":1959:1963  bool */\n      0x00\n        /* \"contracts/coin_development.sol\":2014:2023  numTokens */\n      dup2\n        /* \"contracts/coin_development.sol\":1982:1989  allowed */\n      0x03\n        /* \"contracts/coin_development.sol\":1982:2001  allowed[msg.sender] */\n      0x00\n        /* \"contracts/coin_development.sol\":1990:2000  msg.sender */\n      caller\n        /* \"contracts/coin_development.sol\":1982:2001  allowed[msg.sender] */\n      0xffffffffffffffffffffffffffffffffffffffff\n      and\n      0xffffffffffffffffffffffffffffffffffffffff\n      and\n      dup2\n      mstore\n      0x20\n      add\n      swap1\n      dup2\n      mstore\n      0x20\n      add\n      0x00\n      keccak256\n        /* \"contracts/coin_development.sol\":1982:2011  allowed[msg.sender][delegate] */\n      0x00\n        /* \"contracts/coin_development.sol\":2002:2010  delegate */\n      dup6\n        /* \"contracts/coin_development.sol\":1982:2011  allowed[msg.sender][delegate] */\n      0xffffffffffffffffffffffffffffffffffffffff\n      and\n      0xffffffffffffffffffffffffffffffffffffffff\n      and\n      dup2\n      mstore\n      0x20\n      add\n      swap1\n      dup2\n      mstore\n      0x20\n      add\n      0x00\n      keccak256\n        /* \"contracts/coin_development.sol\":1982:2023  allowed[msg.sender][delegate] = numTokens */\n      dup2\n      swap1\n      sstore\n      pop\n        /* \"contracts/coin_development.sol\":2060:2068  delegate */\n      dup3\n        /* \"contracts/coin_development.sol\":2039:2080  Approval(msg.sender, delegate, numTokens) */\n      0xffffffffffffffffffffffffffffffffffffffff\n      and\n        /* \"contracts/coin_development.sol\":2048:2058  msg.sender */\n      caller\n        /* \"contracts/coin_development.sol\":2039:2080  Approval(msg.sender, delegate, numTokens) */\n      0xffffffffffffffffffffffffffffffffffffffff\n      and\n      0x8c5be1e5ebec7d5bd14f71427d1e84f3dd0314c0f7b2291e5b200ac8c7c3b925\n        /* \"contracts/coin_development.sol\":2070:2079  numTokens */\n      dup5\n        /* \"contracts/coin_development.sol\":2039:2080  Approval(msg.sender, delegate, numTokens) */\n      mload(0x40)\n      tag_72\n      swap2\n      swap1\n      tag_31\n      jump\t// in\n    tag_72:\n      mload(0x40)\n      dup1\n      swap2\n      sub\n      swap1\n      log3\n        /* \"contracts/coin_development.sol\":2098:2102  true */\n      0x01\n        /* \"contracts/coin_development.sol\":2091:2102  return true */\n      swap1\n      pop\n        /* \"contracts/coin_development.sol\":1892:2110  function approve(address delegate, uint numTokens) public returns (bool) \r... */\n      swap3\n      swap2\n      pop\n      pop\n      jump\t// out\n        /* \"contracts/coin_development.sol\":454:480  uint256 public totalSupply */\n    tag_29:\n      sload(0x01)\n      dup2\n      jump\t// out\n        /* \"contracts/coin_development.sol\":1398:1884  function transferFrom(address owner, address buyer, uint numTokens) public returns (bool) \r... */\n    tag_35:\n        /* \"contracts/coin_development.sol\":1482:1486  bool */\n      0x00\n        /* \"contracts/coin_development.sol\":1526:1534  balances */\n      0x02\n        /* \"contracts/coin_development.sol\":1526:1541  balances[owner] */\n      0x00\n        /* \"contracts/coin_development.sol\":1535:1540  owner */\n      dup6\n        /* \"contracts/coin_development.sol\":1526:1541  balances[owner] */\n      0xffffffffffffffffffffffffffffffffffffffff\n      and\n      0xffffffffffffffffffffffffffffffffffffffff\n      and\n      dup2\n      mstore\n      0x20\n      add\n      swap1\n      dup2\n      mstore\n      0x20\n      add\n      0x00\n      keccak256\n      sload\n        /* \"contracts/coin_development.sol\":1513:1522  numTokens */\n      dup3\n        /* \"contracts/coin_development.sol\":1513:1541  numTokens <= balances[owner] */\n      gt\n      iszero\n        /* \"contracts/coin_development.sol\":1505:1542  require(numTokens <= balances[owner]) */\n      tag_74\n      jumpi\n      0x00\n      dup1\n      revert\n    tag_74:\n        /* \"contracts/coin_development.sol\":1574:1581  allowed */\n      0x03\n        /* \"contracts/coin_development.sol\":1574:1588  allowed[owner] */\n      0x00\n        /* \"contracts/coin_development.sol\":1582:1587  owner */\n      dup6\n        /* \"contracts/coin_development.sol\":1574:1588  allowed[owner] */\n      0xffffffffffffffffffffffffffffffffffffffff\n      and\n      0xffffffffffffffffffffffffffffffffffffffff\n      and\n      dup2\n      mstore\n      0x20\n      add\n      swap1\n      dup2\n      mstore\n      0x20\n      add\n      0x00\n      keccak256\n        /* \"contracts/coin_development.sol\":1574:1600  allowed[owner][msg.sender] */\n      0x00\n        /* \"contracts/coin_development.sol\":1589:1599  msg.sender */\n      caller\n        /* \"contracts/coin_development.sol\":1574:1600  allowed[owner][msg.sender] */\n      0xffffffffffffffffffffffffffffffffffffffff\n      and\n      0xffffffffffffffffffffffffffffffffffffffff\n      and\n      dup2\n      mstore\n      0x20\n      add\n      swap1\n      dup2\n      mstore\n      0x20\n      add\n      0x00\n      keccak256\n      sload\n        /* \"contracts/coin_development.sol\":1561:1570  numTokens */\n      dup3\n        /* \"contracts/coin_development.sol\":1561:1600  numTokens <= allowed[owner][msg.sender] */\n      gt\n      iszero\n        /* \"contracts/coin_development.sol\":1553:1601  require(numTokens <= allowed[owner][msg.sender]) */\n      tag_75\n      jumpi\n      0x00\n      dup1\n      revert\n    tag_75:\n        /* \"contracts/coin_development.sol\":1641:1683  sub(allowed[owner][msg.sender], numTokens) */\n      tag_76\n        /* \"contracts/coin_development.sol\":1645:1652  allowed */\n      0x03\n        /* \"contracts/coin_development.sol\":1645:1659  allowed[owner] */\n      0x00\n        /* \"contracts/coin_development.sol\":1653:1658  owner */\n      dup7\n        /* \"contracts/coin_development.sol\":1645:1659  allowed[owner] */\n      0xffffffffffffffffffffffffffffffffffffffff\n      and\n      0xffffffffffffffffffffffffffffffffffffffff\n      and\n      dup2\n      mstore\n      0x20\n      add\n      swap1\n      dup2\n      mstore\n      0x20\n      add\n      0x00\n      keccak256\n        /* \"contracts/coin_development.sol\":1645:1671  allowed[owner][msg.sender] */\n      0x00\n        /* \"contracts/coin_development.sol\":1660:1670  msg.sender */\n      caller\n        /* \"contracts/coin_development.sol\":1645:1671  allowed[owner][msg.sender] */\n      0xffffffffffffffffffffffffffffffffffffffff\n      and\n      0xffffffffffffffffffffffffffffffffffffffff\n      and\n      dup2\n      mstore\n      0x20\n      add\n      swap1\n      dup2\n      mstore\n      0x20\n      add\n      0x00\n      keccak256\n      sload\n        /* \"contracts/coin_development.sol\":1673:1682  numTokens */\n      dup4\n        /* \"contracts/coin_development.sol\":1641:1644  sub */\n      tag_77\n        /* \"contracts/coin_development.sol\":1641:1683  sub(allowed[owner][msg.sender], numTokens) */\n      jump\t// in\n    tag_76:\n        /* \"contracts/coin_development.sol\":1612:1619  allowed */\n      0x03\n        /* \"contracts/coin_development.sol\":1612:1626  allowed[owner] */\n      0x00\n        /* \"contracts/coin_development.sol\":1620:1625  owner */\n      dup7\n        /* \"contracts/coin_development.sol\":1612:1626  allowed[owner] */\n      0xffffffffffffffffffffffffffffffffffffffff\n      and\n      0xffffffffffffffffffffffffffffffffffffffff\n      and\n      dup2\n      mstore\n      0x20\n      add\n      swap1\n      dup2\n      mstore\n      0x20\n      add\n      0x00\n      keccak256\n        /* \"contracts/coin_development.sol\":1612:1638  allowed[owner][msg.sender] */\n      0x00\n        /* \"contracts/coin_development.sol\":1627:1637  msg.sender */\n      caller\n        /* \"contracts/coin_development.sol\":1612:1638  allowed[owner][msg.sender] */\n      0xffffffffffffffffffffffffffffffffffffffff\n      and\n      0xffffffffffffffffffffffffffffffffffffffff\n      and\n      dup2\n      mstore\n      0x20\n      add\n      swap1\n      dup2\n      mstore\n      0x20\n      add\n      0x00\n      keccak256\n        /* \"contracts/coin_development.sol\":1612:1683  allowed[owner][msg.sender] = sub(allowed[owner][msg.sender], numTokens) */\n      dup2\n      swap1\n      sstore\n      pop\n        /* \"contracts/coin_development.sol\":1712:1744  sub( balances[owner], numTokens) */\n      tag_78\n        /* \"contracts/coin_development.sol\":1717:1725  balances */\n      0x02\n        /* \"contracts/coin_development.sol\":1717:1732  balances[owner] */\n      0x00\n        /* \"contracts/coin_development.sol\":1726:1731  owner */\n      dup7\n        /* \"contracts/coin_development.sol\":1717:1732  balances[owner] */\n      0xffffffffffffffffffffffffffffffffffffffff\n      and\n      0xffffffffffffffffffffffffffffffffffffffff\n      and\n      dup2\n      mstore\n      0x20\n      add\n      swap1\n      dup2\n      mstore\n      0x20\n      add\n      0x00\n      keccak256\n      sload\n        /* \"contracts/coin_development.sol\":1734:1743  numTokens */\n      dup4\n        /* \"contracts/coin_development.sol\":1712:1715  sub */\n      tag_77\n        /* \"contracts/coin_development.sol\":1712:1744  sub( balances[owner], numTokens) */\n      jump\t// in\n    tag_78:\n        /* \"contracts/coin_development.sol\":1694:1702  balances */\n      0x02\n        /* \"contracts/coin_development.sol\":1694:1709  balances[owner] */\n      0x00\n        /* \"contracts/coin_development.sol\":1703:1708  owner */\n      dup7\n        /* \"contracts/coin_development.sol\":1694:1709  balances[owner] */\n      0xffffffffffffffffffffffffffffffffffffffff\n      and\n      0xffffffffffffffffffffffffffffffffffffffff\n      and\n      dup2\n      mstore\n      0x20\n      add\n      swap1\n      dup2\n      mstore\n      0x20\n      add\n      0x00\n      keccak256\n        /* \"contracts/coin_development.sol\":1694:1744  balances[owner] = sub( balances[owner], numTokens) */\n      dup2\n      swap1\n      sstore\n      pop\n        /* \"contracts/coin_development.sol\":1773:1805  add( balances[buyer], numTokens) */\n      tag_79\n        /* \"contracts/coin_development.sol\":1778:1786  balances */\n      0x02\n        /* \"contracts/coin_development.sol\":1778:1793  balances[buyer] */\n      0x00\n        /* \"contracts/coin_development.sol\":1787:1792  buyer */\n      dup6\n        /* \"contracts/coin_development.sol\":1778:1793  balances[buyer] */\n      0xffffffffffffffffffffffffffffffffffffffff\n      and\n      0xffffffffffffffffffffffffffffffffffffffff\n      and\n      dup2\n      mstore\n      0x20\n      add\n      swap1\n      dup2\n      mstore\n      0x20\n      add\n      0x00\n      keccak256\n      sload\n        /* \"contracts/coin_development.sol\":1795:1804  numTokens */\n      dup4\n        /* \"contracts/coin_development.sol\":1773:1776  add */\n      tag_80\n        /* \"contracts/coin_development.sol\":1773:1805  add( balances[buyer], numTokens) */\n      jump\t// in\n    tag_79:\n        /* \"contracts/coin_development.sol\":1755:1763  balances */\n      0x02\n        /* \"contracts/coin_development.sol\":1755:1770  balances[buyer] */\n      0x00\n        /* \"contracts/coin_development.sol\":1764:1769  buyer */\n      dup6\n        /* \"contracts/coin_development.sol\":1755:1770  balances[buyer] */\n      0xffffffffffffffffffffffffffffffffffffffff\n      and\n      0xffffffffffffffffffffffffffffffffffffffff\n      and\n      dup2\n      mstore\n      0x20\n      add\n      swap1\n      dup2\n      mstore\n      0x20\n      add\n      0x00\n      keccak256\n        /* \"contracts/coin_development.sol\":1755:1805  balances[buyer] = add( balances[buyer], numTokens) */\n      dup2\n      swap1\n      sstore\n      pop\n        /* \"contracts/coin_development.sol\":1837:1842  buyer */\n      dup3\n        /* \"contracts/coin_development.sol\":1821:1854  Transfer(owner, buyer, numTokens) */\n      0xffffffffffffffffffffffffffffffffffffffff\n      and\n        /* \"contracts/coin_development.sol\":1830:1835  owner */\n      dup5\n        /* \"contracts/coin_development.sol\":1821:1854  Transfer(owner, buyer, numTokens) */\n      0xffffffffffffffffffffffffffffffffffffffff\n      and\n      0xddf252ad1be2c89b69c2b068fc378daa952ba7f163c4a11628f55a4df523b3ef\n        /* \"contracts/coin_development.sol\":1844:1853  numTokens */\n      dup5\n        /* \"contracts/coin_development.sol\":1821:1854  Transfer(owner, buyer, numTokens) */\n      mload(0x40)\n      tag_81\n      swap2\n      swap1\n      tag_31\n      jump\t// in\n    tag_81:\n      mload(0x40)\n      dup1\n      swap2\n      sub\n      swap1\n      log3\n        /* \"contracts/coin_development.sol\":1872:1876  true */\n      0x01\n        /* \"contracts/coin_development.sol\":1865:1876  return true */\n      swap1\n      pop\n        /* \"contracts/coin_development.sol\":1398:1884  function transferFrom(address owner, address buyer, uint numTokens) public returns (bool) \r... */\n      swap4\n      swap3\n      pop\n      pop\n      pop\n      jump\t// out\n        /* \"contracts/coin_development.sol\":413:447  uint8 public constant decimals = 0 */\n    tag_38:\n        /* \"contracts/coin_development.sol\":446:447  0 */\n      0x00\n        /* \"contracts/coin_development.sol\":413:447  uint8 public constant decimals = 0 */\n      dup2\n      jump\t// out\n        /* \"contracts/coin_development.sol\":2290:2497  function mint(address usr, uint wad) external auth \r... */\n    tag_43:\n        /* \"contracts/coin_development.sol\":231:232  1 */\n      0x01\n        /* \"contracts/coin_development.sol\":210:215  wards */\n      0x00\n        /* \"contracts/coin_development.sol\":210:227  wards[msg.sender] */\n      dup1\n        /* \"contracts/coin_development.sol\":216:226  msg.sender */\n      caller\n        /* \"contracts/coin_development.sol\":210:227  wards[msg.sender] */\n      0xffffffffffffffffffffffffffffffffffffffff\n      and\n      0xffffffffffffffffffffffffffffffffffffffff\n      and\n      dup2\n      mstore\n      0x20\n      add\n      swap1\n      dup2\n      mstore\n      0x20\n      add\n      0x00\n      keccak256\n      sload\n        /* \"contracts/coin_development.sol\":210:232  wards[msg.sender] == 1 */\n      eq\n        /* \"contracts/coin_development.sol\":202:251  require(wards[msg.sender] == 1, \"Not-authorized\") */\n      tag_83\n      jumpi\n      mload(0x40)\n      0x08c379a000000000000000000000000000000000000000000000000000000000\n      dup2\n      mstore\n      0x04\n      add\n      tag_84\n      swap1\n      tag_85\n      jump\t// in\n    tag_84:\n      mload(0x40)\n      dup1\n      swap2\n      sub\n      swap1\n      revert\n    tag_83:\n        /* \"contracts/coin_development.sol\":2374:2397  add(balances[usr], wad) */\n      tag_87\n        /* \"contracts/coin_development.sol\":2378:2386  balances */\n      0x02\n        /* \"contracts/coin_development.sol\":2378:2391  balances[usr] */\n      0x00\n        /* \"contracts/coin_development.sol\":2387:2390  usr */\n      dup5\n        /* \"contracts/coin_development.sol\":2378:2391  balances[usr] */\n      0xffffffffffffffffffffffffffffffffffffffff\n      and\n      0xffffffffffffffffffffffffffffffffffffffff\n      and\n      dup2\n      mstore\n      0x20\n      add\n      swap1\n      dup2\n      mstore\n      0x20\n      add\n      0x00\n      keccak256\n      sload\n        /* \"contracts/coin_development.sol\":2393:2396  wad */\n      dup3\n        /* \"contracts/coin_development.sol\":2374:2377  add */\n      tag_80\n        /* \"contracts/coin_development.sol\":2374:2397  add(balances[usr], wad) */\n      jump\t// in\n    tag_87:\n        /* \"contracts/coin_development.sol\":2358:2366  balances */\n      0x02\n        /* \"contracts/coin_development.sol\":2358:2371  balances[usr] */\n      0x00\n        /* \"contracts/coin_development.sol\":2367:2370  usr */\n      dup5\n        /* \"contracts/coin_development.sol\":2358:2371  balances[usr] */\n      0xffffffffffffffffffffffffffffffffffffffff\n      and\n      0xffffffffffffffffffffffffffffffffffffffff\n      and\n      dup2\n      mstore\n      0x20\n      add\n      swap1\n      dup2\n      mstore\n      0x20\n      add\n      0x00\n      keccak256\n        /* \"contracts/coin_development.sol\":2358:2397  balances[usr] = add(balances[usr], wad) */\n      dup2\n      swap1\n      sstore\n      pop\n        /* \"contracts/coin_development.sol\":2422:2443  add(totalSupply, wad) */\n      tag_88\n        /* \"contracts/coin_development.sol\":2426:2437  totalSupply */\n      sload(0x01)\n        /* \"contracts/coin_development.sol\":2439:2442  wad */\n      dup3\n        /* \"contracts/coin_development.sol\":2422:2425  add */\n      tag_80\n        /* \"contracts/coin_development.sol\":2422:2443  add(totalSupply, wad) */\n      jump\t// in\n    tag_88:\n        /* \"contracts/coin_development.sol\":2408:2419  totalSupply */\n      0x01\n        /* \"contracts/coin_development.sol\":2408:2443  totalSupply = add(totalSupply, wad) */\n      dup2\n      swap1\n      sstore\n      pop\n        /* \"contracts/coin_development.sol\":2480:2483  usr */\n      dup2\n        /* \"contracts/coin_development.sol\":2459:2489  Transfer(address(0), usr, wad) */\n      0xffffffffffffffffffffffffffffffffffffffff\n      and\n        /* \"contracts/coin_development.sol\":2476:2477  0 */\n      0x00\n        /* \"contracts/coin_development.sol\":2459:2489  Transfer(address(0), usr, wad) */\n      0xffffffffffffffffffffffffffffffffffffffff\n      and\n      0xddf252ad1be2c89b69c2b068fc378daa952ba7f163c4a11628f55a4df523b3ef\n        /* \"contracts/coin_development.sol\":2485:2488  wad */\n      dup4\n        /* \"contracts/coin_development.sol\":2459:2489  Transfer(address(0), usr, wad) */\n      mload(0x40)\n      tag_89\n      swap2\n      swap1\n      tag_31\n      jump\t// in\n    tag_89:\n      mload(0x40)\n      dup1\n      swap2\n      sub\n      swap1\n      log3\n        /* \"contracts/coin_development.sol\":2290:2497  function mint(address usr, uint wad) external auth \r... */\n      pop\n      pop\n      jump\t// out\n        /* \"contracts/coin_development.sol\":369:406  string public constant version  = \"1\" */\n    tag_45:\n      mload(0x40)\n      dup1\n      0x40\n      add\n      0x40\n      mstore\n      dup1\n      0x01\n      dup2\n      mstore\n      0x20\n      add\n      0x3100000000000000000000000000000000000000000000000000000000000000\n      dup2\n      mstore\n      pop\n      dup2\n      jump\t// out\n        /* \"contracts/coin_development.sol\":1113:1231  function balanceOf(address tokenOwner) public view returns (uint) \r... */\n    tag_50:\n        /* \"contracts/coin_development.sol\":1173:1177  uint */\n      0x00\n        /* \"contracts/coin_development.sol\":1203:1211  balances */\n      0x02\n        /* \"contracts/coin_development.sol\":1203:1223  balances[tokenOwner] */\n      0x00\n        /* \"contracts/coin_development.sol\":1212:1222  tokenOwner */\n      dup4\n        /* \"contracts/coin_development.sol\":1203:1223  balances[tokenOwner] */\n      0xffffffffffffffffffffffffffffffffffffffff\n      and\n      0xffffffffffffffffffffffffffffffffffffffff\n      and\n      dup2\n      mstore\n      0x20\n      add\n      swap1\n      dup2\n      mstore\n      0x20\n      add\n      0x00\n      keccak256\n      sload\n        /* \"contracts/coin_development.sol\":1196:1223  return balances[tokenOwner] */\n      swap1\n      pop\n        /* \"contracts/coin_development.sol\":1113:1231  function balanceOf(address tokenOwner) public view returns (uint) \r... */\n      swap2\n      swap1\n      pop\n      jump\t// out\n        /* \"contracts/coin_development.sol\":326:362  string public constant symbol = \"DC\" */\n    tag_53:\n      mload(0x40)\n      dup1\n      0x40\n      add\n      0x40\n      mstore\n      dup1\n      0x02\n      dup2\n      mstore\n      0x20\n      add\n      0x4443000000000000000000000000000000000000000000000000000000000000\n      dup2\n      mstore\n      pop\n      dup2\n      jump\t// out\n        /* \"contracts/coin_development.sol\":2503:2927  function burn(address usr, uint wad) external auth \r... */\n    tag_57:\n        /* \"contracts/coin_development.sol\":231:232  1 */\n      0x01\n        /* \"contracts/coin_development.sol\":210:215  wards */\n      0x00\n        /* \"contracts/coin_development.sol\":210:227  wards[msg.sender] */\n      dup1\n        /* \"contracts/coin_development.sol\":216:226  msg.sender */\n      caller\n        /* \"contracts/coin_development.sol\":210:227  wards[msg.sender] */\n      0xffffffffffffffffffffffffffffffffffffffff\n      and\n      0xffffffffffffffffffffffffffffffffffffffff\n      and\n      dup2\n      mstore\n      0x20\n      add\n      swap1\n      dup2\n      mstore\n      0x20\n      add\n      0x00\n      keccak256\n      sload\n        /* \"contracts/coin_development.sol\":210:232  wards[msg.sender] == 1 */\n      eq\n        /* \"contracts/coin_development.sol\":202:251  require(wards[msg.sender] == 1, \"Not-authorized\") */\n      tag_92\n      jumpi\n      mload(0x40)\n      0x08c379a000000000000000000000000000000000000000000000000000000000\n      dup2\n      mstore\n      0x04\n      add\n      tag_93\n      swap1\n      tag_85\n      jump\t// in\n    tag_93:\n      mload(0x40)\n      dup1\n      swap2\n      sub\n      swap1\n      revert\n    tag_92:\n        /* \"contracts/coin_development.sol\":2596:2599  wad */\n      dup1\n        /* \"contracts/coin_development.sol\":2579:2587  balances */\n      0x02\n        /* \"contracts/coin_development.sol\":2579:2592  balances[usr] */\n      0x00\n        /* \"contracts/coin_development.sol\":2588:2591  usr */\n      dup5\n        /* \"contracts/coin_development.sol\":2579:2592  balances[usr] */\n      0xffffffffffffffffffffffffffffffffffffffff\n      and\n      0xffffffffffffffffffffffffffffffffffffffff\n      and\n      dup2\n      mstore\n      0x20\n      add\n      swap1\n      dup2\n      mstore\n      0x20\n      add\n      0x00\n      keccak256\n      sload\n        /* \"contracts/coin_development.sol\":2579:2599  balances[usr] >= wad */\n      lt\n      iszero\n        /* \"contracts/coin_development.sol\":2571:2624  require(balances[usr] >= wad, \"insufficient-balance\") */\n      tag_95\n      jumpi\n      mload(0x40)\n      0x08c379a000000000000000000000000000000000000000000000000000000000\n      dup2\n      mstore\n      0x04\n      add\n      tag_96\n      swap1\n      tag_97\n      jump\t// in\n    tag_96:\n      mload(0x40)\n      dup1\n      swap2\n      sub\n      swap1\n      revert\n    tag_95:\n        /* \"contracts/coin_development.sol\":2804:2827  sub(balances[usr], wad) */\n      tag_98\n        /* \"contracts/coin_development.sol\":2808:2816  balances */\n      0x02\n        /* \"contracts/coin_development.sol\":2808:2821  balances[usr] */\n      0x00\n        /* \"contracts/coin_development.sol\":2817:2820  usr */\n      dup5\n        /* \"contracts/coin_development.sol\":2808:2821  balances[usr] */\n      0xffffffffffffffffffffffffffffffffffffffff\n      and\n      0xffffffffffffffffffffffffffffffffffffffff\n      and\n      dup2\n      mstore\n      0x20\n      add\n      swap1\n      dup2\n      mstore\n      0x20\n      add\n      0x00\n      keccak256\n      sload\n        /* \"contracts/coin_development.sol\":2823:2826  wad */\n      dup3\n        /* \"contracts/coin_development.sol\":2804:2807  sub */\n      tag_77\n        /* \"contracts/coin_development.sol\":2804:2827  sub(balances[usr], wad) */\n      jump\t// in\n    tag_98:\n        /* \"contracts/coin_development.sol\":2788:2796  balances */\n      0x02\n        /* \"contracts/coin_development.sol\":2788:2801  balances[usr] */\n      0x00\n        /* \"contracts/coin_development.sol\":2797:2800  usr */\n      dup5\n        /* \"contracts/coin_development.sol\":2788:2801  balances[usr] */\n      0xffffffffffffffffffffffffffffffffffffffff\n      and\n      0xffffffffffffffffffffffffffffffffffffffff\n      and\n      dup2\n      mstore\n      0x20\n      add\n      swap1\n      dup2\n      mstore\n      0x20\n      add\n      0x00\n      keccak256\n        /* \"contracts/coin_development.sol\":2788:2827  balances[usr] = sub(balances[usr], wad) */\n      dup2\n      swap1\n      sstore\n      pop\n        /* \"contracts/coin_development.sol\":2852:2873  sub(totalSupply, wad) */\n      tag_99\n        /* \"contracts/coin_development.sol\":2856:2867  totalSupply */\n      sload(0x01)\n        /* \"contracts/coin_development.sol\":2869:2872  wad */\n      dup3\n        /* \"contracts/coin_development.sol\":2852:2855  sub */\n      tag_77\n        /* \"contracts/coin_development.sol\":2852:2873  sub(totalSupply, wad) */\n      jump\t// in\n    tag_99:\n        /* \"contracts/coin_development.sol\":2838:2849  totalSupply */\n      0x01\n        /* \"contracts/coin_development.sol\":2838:2873  totalSupply = sub(totalSupply, wad) */\n      dup2\n      swap1\n      sstore\n      pop\n        /* \"contracts/coin_development.sol\":2911:2912  0 */\n      0x00\n        /* \"contracts/coin_development.sol\":2889:2919  Transfer(usr, address(0), wad) */\n      0xffffffffffffffffffffffffffffffffffffffff\n      and\n        /* \"contracts/coin_development.sol\":2898:2901  usr */\n      dup3\n        /* \"contracts/coin_development.sol\":2889:2919  Transfer(usr, address(0), wad) */\n      0xffffffffffffffffffffffffffffffffffffffff\n      and\n      0xddf252ad1be2c89b69c2b068fc378daa952ba7f163c4a11628f55a4df523b3ef\n        /* \"contracts/coin_development.sol\":2915:2918  wad */\n      dup4\n        /* \"contracts/coin_development.sol\":2889:2919  Transfer(usr, address(0), wad) */\n      mload(0x40)\n      tag_100\n      swap2\n      swap1\n      tag_31\n      jump\t// in\n    tag_100:\n      mload(0x40)\n      dup1\n      swap2\n      sub\n      swap1\n      log3\n        /* \"contracts/coin_development.sol\":2503:2927  function burn(address usr, uint wad) external auth \r... */\n      pop\n      pop\n      jump\t// out\n        /* \"contracts/coin_development.sol\":1239:1390  function transfer(address receiver, uint numTokens) public returns (bool) \r... */\n    tag_60:\n        /* \"contracts/coin_development.sol\":1307:1311  bool */\n      0x00\n        /* \"contracts/coin_development.sol\":1337:1382  transferFrom(msg.sender, receiver, numTokens) */\n      tag_102\n        /* \"contracts/coin_development.sol\":1350:1360  msg.sender */\n      caller\n        /* \"contracts/coin_development.sol\":1362:1370  receiver */\n      dup5\n        /* \"contracts/coin_development.sol\":1372:1381  numTokens */\n      dup5\n        /* \"contracts/coin_development.sol\":1337:1349  transferFrom */\n      tag_35\n        /* \"contracts/coin_development.sol\":1337:1382  transferFrom(msg.sender, receiver, numTokens) */\n      jump\t// in\n    tag_102:\n        /* \"contracts/coin_development.sol\":1330:1382  return transferFrom(msg.sender, receiver, numTokens) */\n      swap1\n      pop\n        /* \"contracts/coin_development.sol\":1239:1390  function transfer(address receiver, uint numTokens) public returns (bool) \r... */\n      swap3\n      swap2\n      pop\n      pop\n      jump\t// out\n        /* \"contracts/coin_development.sol\":126:164  mapping (address => uint) public wards */\n    tag_64:\n      mstore(0x20, 0x00)\n      dup1\n      0x00\n      mstore\n      keccak256(0x00, 0x40)\n      0x00\n      swap2\n      pop\n      swap1\n      pop\n      sload\n      dup2\n      jump\t// out\n        /* \"contracts/coin_development.sol\":2118:2253  function allowance(address owner, address delegate) public view returns (uint) \r... */\n    tag_69:\n        /* \"contracts/coin_development.sol\":2191:2195  uint */\n      0x00\n        /* \"contracts/coin_development.sol\":2221:2228  allowed */\n      0x03\n        /* \"contracts/coin_development.sol\":2221:2235  allowed[owner] */\n      0x00\n        /* \"contracts/coin_development.sol\":2229:2234  owner */\n      dup5\n        /* \"contracts/coin_development.sol\":2221:2235  allowed[owner] */\n      0xffffffffffffffffffffffffffffffffffffffff\n      and\n      0xffffffffffffffffffffffffffffffffffffffff\n      and\n      dup2\n      mstore\n      0x20\n      add\n      swap1\n      dup2\n      mstore\n      0x20\n      add\n      0x00\n      keccak256\n        /* \"contracts/coin_development.sol\":2221:2245  allowed[owner][delegate] */\n      0x00\n        /* \"contracts/coin_development.sol\":2236:2244  delegate */\n      dup4\n        /* \"contracts/coin_development.sol\":2221:2245  allowed[owner][delegate] */\n      0xffffffffffffffffffffffffffffffffffffffff\n      and\n      0xffffffffffffffffffffffffffffffffffffffff\n      and\n      dup2\n      mstore\n      0x20\n      add\n      swap1\n      dup2\n      mstore\n      0x20\n      add\n      0x00\n      keccak256\n      sload\n        /* \"contracts/coin_development.sol\":2214:2245  return allowed[owner][delegate] */\n      swap1\n      pop\n        /* \"contracts/coin_development.sol\":2118:2253  function allowance(address owner, address delegate) public view returns (uint) \r... */\n      swap3\n      swap2\n      pop\n      pop\n      jump\t// out\n        /* \"contracts/coin_development.sol\":901:1011  function sub(uint x, uint y) internal pure returns (uint z) \r... */\n    tag_77:\n        /* \"contracts/coin_development.sol\":953:959  uint z */\n      0x00\n        /* \"contracts/coin_development.sol\":1001:1002  x */\n      dup3\n        /* \"contracts/coin_development.sol\":995:996  y */\n      dup3\n        /* \"contracts/coin_development.sol\":991:992  x */\n      dup5\n        /* \"contracts/coin_development.sol\":991:996  x - y */\n      tag_105\n      swap2\n      swap1\n      tag_106\n      jump\t// in\n    tag_105:\n        /* \"contracts/coin_development.sol\":987:996  z = x - y */\n      swap2\n      pop\n      dup2\n        /* \"contracts/coin_development.sol\":986:1002  (z = x - y) <= x */\n      gt\n      iszero\n        /* \"contracts/coin_development.sol\":978:1003  require((z = x - y) <= x) */\n      tag_107\n      jumpi\n      0x00\n      dup1\n      revert\n    tag_107:\n        /* \"contracts/coin_development.sol\":901:1011  function sub(uint x, uint y) internal pure returns (uint z) \r... */\n      swap3\n      swap2\n      pop\n      pop\n      jump\t// out\n        /* \"contracts/coin_development.sol\":785:895  function add(uint x, uint y) internal pure returns (uint z) \r... */\n    tag_80:\n        /* \"contracts/coin_development.sol\":837:843  uint z */\n      0x00\n        /* \"contracts/coin_development.sol\":885:886  x */\n      dup3\n        /* \"contracts/coin_development.sol\":879:880  y */\n      dup3\n        /* \"contracts/coin_development.sol\":875:876  x */\n      dup5\n        /* \"contracts/coin_development.sol\":875:880  x + y */\n      tag_109\n      swap2\n      swap1\n      tag_110\n      jump\t// in\n    tag_109:\n        /* \"contracts/coin_development.sol\":871:880  z = x + y */\n      swap2\n      pop\n      dup2\n        /* \"contracts/coin_development.sol\":870:886  (z = x + y) >= x */\n      lt\n      iszero\n        /* \"contracts/coin_development.sol\":862:887  require((z = x + y) >= x) */\n      tag_111\n      jumpi\n      0x00\n      dup1\n      revert\n    tag_111:\n        /* \"contracts/coin_development.sol\":785:895  function add(uint x, uint y) internal pure returns (uint z) \r... */\n      swap3\n      swap2\n      pop\n      pop\n      jump\t// out\n        /* \"#utility.yul\":7:146   */\n    tag_113:\n        /* \"#utility.yul\":53:58   */\n      0x00\n        /* \"#utility.yul\":91:97   */\n      dup2\n        /* \"#utility.yul\":78:98   */\n      calldataload\n        /* \"#utility.yul\":69:98   */\n      swap1\n      pop\n        /* \"#utility.yul\":107:140   */\n      tag_115\n        /* \"#utility.yul\":134:139   */\n      dup2\n        /* \"#utility.yul\":107:140   */\n      tag_116\n      jump\t// in\n    tag_115:\n        /* \"#utility.yul\":7:146   */\n      swap3\n      swap2\n      pop\n      pop\n      jump\t// out\n        /* \"#utility.yul\":152:291   */\n    tag_117:\n        /* \"#utility.yul\":198:203   */\n      0x00\n        /* \"#utility.yul\":236:242   */\n      dup2\n        /* \"#utility.yul\":223:243   */\n      calldataload\n        /* \"#utility.yul\":214:243   */\n      swap1\n      pop\n        /* \"#utility.yul\":252:285   */\n      tag_119\n        /* \"#utility.yul\":279:284   */\n      dup2\n        /* \"#utility.yul\":252:285   */\n      tag_120\n      jump\t// in\n    tag_119:\n        /* \"#utility.yul\":152:291   */\n      swap3\n      swap2\n      pop\n      pop\n      jump\t// out\n        /* \"#utility.yul\":297:626   */\n    tag_49:\n        /* \"#utility.yul\":356:362   */\n      0x00\n        /* \"#utility.yul\":405:407   */\n      0x20\n        /* \"#utility.yul\":393:402   */\n      dup3\n        /* \"#utility.yul\":384:391   */\n      dup5\n        /* \"#utility.yul\":380:403   */\n      sub\n        /* \"#utility.yul\":376:408   */\n      slt\n        /* \"#utility.yul\":373:492   */\n      iszero\n      tag_122\n      jumpi\n        /* \"#utility.yul\":411:490   */\n      tag_123\n      tag_124\n      jump\t// in\n    tag_123:\n        /* \"#utility.yul\":373:492   */\n    tag_122:\n        /* \"#utility.yul\":531:532   */\n      0x00\n        /* \"#utility.yul\":556:609   */\n      tag_125\n        /* \"#utility.yul\":601:608   */\n      dup5\n        /* \"#utility.yul\":592:598   */\n      dup3\n        /* \"#utility.yul\":581:590   */\n      dup6\n        /* \"#utility.yul\":577:599   */\n      add\n        /* \"#utility.yul\":556:609   */\n      tag_113\n      jump\t// in\n    tag_125:\n        /* \"#utility.yul\":546:609   */\n      swap2\n      pop\n        /* \"#utility.yul\":502:619   */\n      pop\n        /* \"#utility.yul\":297:626   */\n      swap3\n      swap2\n      pop\n      pop\n      jump\t// out\n        /* \"#utility.yul\":632:1106   */\n    tag_68:\n        /* \"#utility.yul\":700:706   */\n      0x00\n        /* \"#utility.yul\":708:714   */\n      dup1\n        /* \"#utility.yul\":757:759   */\n      0x40\n        /* \"#utility.yul\":745:754   */\n      dup4\n        /* \"#utility.yul\":736:743   */\n      dup6\n        /* \"#utility.yul\":732:755   */\n      sub\n        /* \"#utility.yul\":728:760   */\n      slt\n        /* \"#utility.yul\":725:844   */\n      iszero\n      tag_127\n      jumpi\n        /* \"#utility.yul\":763:842   */\n      tag_128\n      tag_124\n      jump\t// in\n    tag_128:\n        /* \"#utility.yul\":725:844   */\n    tag_127:\n        /* \"#utility.yul\":883:884   */\n      0x00\n        /* \"#utility.yul\":908:961   */\n      tag_129\n        /* \"#utility.yul\":953:960   */\n      dup6\n        /* \"#utility.yul\":944:950   */\n      dup3\n        /* \"#utility.yul\":933:942   */\n      dup7\n        /* \"#utility.yul\":929:951   */\n      add\n        /* \"#utility.yul\":908:961   */\n      tag_113\n      jump\t// in\n    tag_129:\n        /* \"#utility.yul\":898:961   */\n      swap3\n      pop\n        /* \"#utility.yul\":854:971   */\n      pop\n        /* \"#utility.yul\":1010:1012   */\n      0x20\n        /* \"#utility.yul\":1036:1089   */\n      tag_130\n        /* \"#utility.yul\":1081:1088   */\n      dup6\n        /* \"#utility.yul\":1072:1078   */\n      dup3\n        /* \"#utility.yul\":1061:1070   */\n      dup7\n        /* \"#utility.yul\":1057:1079   */\n      add\n        /* \"#utility.yul\":1036:1089   */\n      tag_113\n      jump\t// in\n    tag_130:\n        /* \"#utility.yul\":1026:1089   */\n      swap2\n      pop\n        /* \"#utility.yul\":981:1099   */\n      pop\n        /* \"#utility.yul\":632:1106   */\n      swap3\n      pop\n      swap3\n      swap1\n      pop\n      jump\t// out\n        /* \"#utility.yul\":1112:1731   */\n    tag_34:\n        /* \"#utility.yul\":1189:1195   */\n      0x00\n        /* \"#utility.yul\":1197:1203   */\n      dup1\n        /* \"#utility.yul\":1205:1211   */\n      0x00\n        /* \"#utility.yul\":1254:1256   */\n      0x60\n        /* \"#utility.yul\":1242:1251   */\n      dup5\n        /* \"#utility.yul\":1233:1240   */\n      dup7\n        /* \"#utility.yul\":1229:1252   */\n      sub\n        /* \"#utility.yul\":1225:1257   */\n      slt\n        /* \"#utility.yul\":1222:1341   */\n      iszero\n      tag_132\n      jumpi\n        /* \"#utility.yul\":1260:1339   */\n      tag_133\n      tag_124\n      jump\t// in\n    tag_133:\n        /* \"#utility.yul\":1222:1341   */\n    tag_132:\n        /* \"#utility.yul\":1380:1381   */\n      0x00\n        /* \"#utility.yul\":1405:1458   */\n      tag_134\n        /* \"#utility.yul\":1450:1457   */\n      dup7\n        /* \"#utility.yul\":1441:1447   */\n      dup3\n        /* \"#utility.yul\":1430:1439   */\n      dup8\n        /* \"#utility.yul\":1426:1448   */\n      add\n        /* \"#utility.yul\":1405:1458   */\n      tag_113\n      jump\t// in\n    tag_134:\n        /* \"#utility.yul\":1395:1458   */\n      swap4\n      pop\n        /* \"#utility.yul\":1351:1468   */\n      pop\n        /* \"#utility.yul\":1507:1509   */\n      0x20\n        /* \"#utility.yul\":1533:1586   */\n      tag_135\n        /* \"#utility.yul\":1578:1585   */\n      dup7\n        /* \"#utility.yul\":1569:1575   */\n      dup3\n        /* \"#utility.yul\":1558:1567   */\n      dup8\n        /* \"#utility.yul\":1554:1576   */\n      add\n        /* \"#utility.yul\":1533:1586   */\n      tag_113\n      jump\t// in\n    tag_135:\n        /* \"#utility.yul\":1523:1586   */\n      swap3\n      pop\n        /* \"#utility.yul\":1478:1596   */\n      pop\n        /* \"#utility.yul\":1635:1637   */\n      0x40\n        /* \"#utility.yul\":1661:1714   */\n      tag_136\n        /* \"#utility.yul\":1706:1713   */\n      dup7\n        /* \"#utility.yul\":1697:1703   */\n      dup3\n        /* \"#utility.yul\":1686:1695   */\n      dup8\n        /* \"#utility.yul\":1682:1704   */\n      add\n        /* \"#utility.yul\":1661:1714   */\n      tag_117\n      jump\t// in\n    tag_136:\n        /* \"#utility.yul\":1651:1714   */\n      swap2\n      pop\n        /* \"#utility.yul\":1606:1724   */\n      pop\n        /* \"#utility.yul\":1112:1731   */\n      swap3\n      pop\n      swap3\n      pop\n      swap3\n      jump\t// out\n        /* \"#utility.yul\":1737:2211   */\n    tag_24:\n        /* \"#utility.yul\":1805:1811   */\n      0x00\n        /* \"#utility.yul\":1813:1819   */\n      dup1\n        /* \"#utility.yul\":1862:1864   */\n      0x40\n        /* \"#utility.yul\":1850:1859   */\n      dup4\n        /* \"#utility.yul\":1841:1848   */\n      dup6\n        /* \"#utility.yul\":1837:1860   */\n      sub\n        /* \"#utility.yul\":1833:1865   */\n      slt\n        /* \"#utility.yul\":1830:1949   */\n      iszero\n      tag_138\n      jumpi\n        /* \"#utility.yul\":1868:1947   */\n      tag_139\n      tag_124\n      jump\t// in\n    tag_139:\n        /* \"#utility.yul\":1830:1949   */\n    tag_138:\n        /* \"#utility.yul\":1988:1989   */\n      0x00\n        /* \"#utility.yul\":2013:2066   */\n      tag_140\n        /* \"#utility.yul\":2058:2065   */\n      dup6\n        /* \"#utility.yul\":2049:2055   */\n      dup3\n        /* \"#utility.yul\":2038:2047   */\n      dup7\n        /* \"#utility.yul\":2034:2056   */\n      add\n        /* \"#utility.yul\":2013:2066   */\n      tag_113\n      jump\t// in\n    tag_140:\n        /* \"#utility.yul\":2003:2066   */\n      swap3\n      pop\n        /* \"#utility.yul\":1959:2076   */\n      pop\n        /* \"#utility.yul\":2115:2117   */\n      0x20\n        /* \"#utility.yul\":2141:2194   */\n      tag_141\n        /* \"#utility.yul\":2186:2193   */\n      dup6\n        /* \"#utility.yul\":2177:2183   */\n      dup3\n        /* \"#utility.yul\":2166:2175   */\n      dup7\n        /* \"#utility.yul\":2162:2184   */\n      add\n        /* \"#utility.yul\":2141:2194   */\n      tag_117\n      jump\t// in\n    tag_141:\n        /* \"#utility.yul\":2131:2194   */\n      swap2\n      pop\n        /* \"#utility.yul\":2086:2204   */\n      pop\n        /* \"#utility.yul\":1737:2211   */\n      swap3\n      pop\n      swap3\n      swap1\n      pop\n      jump\t// out\n        /* \"#utility.yul\":2217:2326   */\n    tag_142:\n        /* \"#utility.yul\":2298:2319   */\n      tag_144\n        /* \"#utility.yul\":2313:2318   */\n      dup2\n        /* \"#utility.yul\":2298:2319   */\n      tag_145\n      jump\t// in\n    tag_144:\n        /* \"#utility.yul\":2293:2296   */\n      dup3\n        /* \"#utility.yul\":2286:2320   */\n      mstore\n        /* \"#utility.yul\":2217:2326   */\n      pop\n      pop\n      jump\t// out\n        /* \"#utility.yul\":2332:2696   */\n    tag_146:\n        /* \"#utility.yul\":2420:2423   */\n      0x00\n        /* \"#utility.yul\":2448:2487   */\n      tag_148\n        /* \"#utility.yul\":2481:2486   */\n      dup3\n        /* \"#utility.yul\":2448:2487   */\n      tag_149\n      jump\t// in\n    tag_148:\n        /* \"#utility.yul\":2503:2574   */\n      tag_150\n        /* \"#utility.yul\":2567:2573   */\n      dup2\n        /* \"#utility.yul\":2562:2565   */\n      dup6\n        /* \"#utility.yul\":2503:2574   */\n      tag_151\n      jump\t// in\n    tag_150:\n        /* \"#utility.yul\":2496:2574   */\n      swap4\n      pop\n        /* \"#utility.yul\":2583:2635   */\n      tag_152\n        /* \"#utility.yul\":2628:2634   */\n      dup2\n        /* \"#utility.yul\":2623:2626   */\n      dup6\n        /* \"#utility.yul\":2616:2620   */\n      0x20\n        /* \"#utility.yul\":2609:2614   */\n      dup7\n        /* \"#utility.yul\":2605:2621   */\n      add\n        /* \"#utility.yul\":2583:2635   */\n      tag_153\n      jump\t// in\n    tag_152:\n        /* \"#utility.yul\":2660:2689   */\n      tag_154\n        /* \"#utility.yul\":2682:2688   */\n      dup2\n        /* \"#utility.yul\":2660:2689   */\n      tag_155\n      jump\t// in\n    tag_154:\n        /* \"#utility.yul\":2655:2658   */\n      dup5\n        /* \"#utility.yul\":2651:2690   */\n      add\n        /* \"#utility.yul\":2644:2690   */\n      swap2\n      pop\n        /* \"#utility.yul\":2424:2696   */\n      pop\n        /* \"#utility.yul\":2332:2696   */\n      swap3\n      swap2\n      pop\n      pop\n      jump\t// out\n        /* \"#utility.yul\":2702:3068   */\n    tag_156:\n        /* \"#utility.yul\":2844:2847   */\n      0x00\n        /* \"#utility.yul\":2865:2932   */\n      tag_158\n        /* \"#utility.yul\":2929:2931   */\n      0x14\n        /* \"#utility.yul\":2924:2927   */\n      dup4\n        /* \"#utility.yul\":2865:2932   */\n      tag_151\n      jump\t// in\n    tag_158:\n        /* \"#utility.yul\":2858:2932   */\n      swap2\n      pop\n        /* \"#utility.yul\":2941:3034   */\n      tag_159\n        /* \"#utility.yul\":3030:3033   */\n      dup3\n        /* \"#utility.yul\":2941:3034   */\n      tag_160\n      jump\t// in\n    tag_159:\n        /* \"#utility.yul\":3059:3061   */\n      0x20\n        /* \"#utility.yul\":3054:3057   */\n      dup3\n        /* \"#utility.yul\":3050:3062   */\n      add\n        /* \"#utility.yul\":3043:3062   */\n      swap1\n      pop\n        /* \"#utility.yul\":2702:3068   */\n      swap2\n      swap1\n      pop\n      jump\t// out\n        /* \"#utility.yul\":3074:3440   */\n    tag_161:\n        /* \"#utility.yul\":3216:3219   */\n      0x00\n        /* \"#utility.yul\":3237:3304   */\n      tag_163\n        /* \"#utility.yul\":3301:3303   */\n      0x0e\n        /* \"#utility.yul\":3296:3299   */\n      dup4\n        /* \"#utility.yul\":3237:3304   */\n      tag_151\n      jump\t// in\n    tag_163:\n        /* \"#utility.yul\":3230:3304   */\n      swap2\n      pop\n        /* \"#utility.yul\":3313:3406   */\n      tag_164\n        /* \"#utility.yul\":3402:3405   */\n      dup3\n        /* \"#utility.yul\":3313:3406   */\n      tag_165\n      jump\t// in\n    tag_164:\n        /* \"#utility.yul\":3431:3433   */\n      0x20\n        /* \"#utility.yul\":3426:3429   */\n      dup3\n        /* \"#utility.yul\":3422:3434   */\n      add\n        /* \"#utility.yul\":3415:3434   */\n      swap1\n      pop\n        /* \"#utility.yul\":3074:3440   */\n      swap2\n      swap1\n      pop\n      jump\t// out\n        /* \"#utility.yul\":3446:3564   */\n    tag_166:\n        /* \"#utility.yul\":3533:3557   */\n      tag_168\n        /* \"#utility.yul\":3551:3556   */\n      dup2\n        /* \"#utility.yul\":3533:3557   */\n      tag_169\n      jump\t// in\n    tag_168:\n        /* \"#utility.yul\":3528:3531   */\n      dup3\n        /* \"#utility.yul\":3521:3558   */\n      mstore\n        /* \"#utility.yul\":3446:3564   */\n      pop\n      pop\n      jump\t// out\n        /* \"#utility.yul\":3570:3682   */\n    tag_170:\n        /* \"#utility.yul\":3653:3675   */\n      tag_172\n        /* \"#utility.yul\":3669:3674   */\n      dup2\n        /* \"#utility.yul\":3653:3675   */\n      tag_173\n      jump\t// in\n    tag_172:\n        /* \"#utility.yul\":3648:3651   */\n      dup3\n        /* \"#utility.yul\":3641:3676   */\n      mstore\n        /* \"#utility.yul\":3570:3682   */\n      pop\n      pop\n      jump\t// out\n        /* \"#utility.yul\":3688:3898   */\n    tag_27:\n        /* \"#utility.yul\":3775:3779   */\n      0x00\n        /* \"#utility.yul\":3813:3815   */\n      0x20\n        /* \"#utility.yul\":3802:3811   */\n      dup3\n        /* \"#utility.yul\":3798:3816   */\n      add\n        /* \"#utility.yul\":3790:3816   */\n      swap1\n      pop\n        /* \"#utility.yul\":3826:3891   */\n      tag_175\n        /* \"#utility.yul\":3888:3889   */\n      0x00\n        /* \"#utility.yul\":3877:3886   */\n      dup4\n        /* \"#utility.yul\":3873:3890   */\n      add\n        /* \"#utility.yul\":3864:3870   */\n      dup5\n        /* \"#utility.yul\":3826:3891   */\n      tag_142\n      jump\t// in\n    tag_175:\n        /* \"#utility.yul\":3688:3898   */\n      swap3\n      swap2\n      pop\n      pop\n      jump\t// out\n        /* \"#utility.yul\":3904:4217   */\n    tag_21:\n        /* \"#utility.yul\":4017:4021   */\n      0x00\n        /* \"#utility.yul\":4055:4057   */\n      0x20\n        /* \"#utility.yul\":4044:4053   */\n      dup3\n        /* \"#utility.yul\":4040:4058   */\n      add\n        /* \"#utility.yul\":4032:4058   */\n      swap1\n      pop\n        /* \"#utility.yul\":4104:4113   */\n      dup2\n        /* \"#utility.yul\":4098:4102   */\n      dup2\n        /* \"#utility.yul\":4094:4114   */\n      sub\n        /* \"#utility.yul\":4090:4091   */\n      0x00\n        /* \"#utility.yul\":4079:4088   */\n      dup4\n        /* \"#utility.yul\":4075:4092   */\n      add\n        /* \"#utility.yul\":4068:4115   */\n      mstore\n        /* \"#utility.yul\":4132:4210   */\n      tag_177\n        /* \"#utility.yul\":4205:4209   */\n      dup2\n        /* \"#utility.yul\":4196:4202   */\n      dup5\n        /* \"#utility.yul\":4132:4210   */\n      tag_146\n      jump\t// in\n    tag_177:\n        /* \"#utility.yul\":4124:4210   */\n      swap1\n      pop\n        /* \"#utility.yul\":3904:4217   */\n      swap3\n      swap2\n      pop\n      pop\n      jump\t// out\n        /* \"#utility.yul\":4223:4642   */\n    tag_97:\n        /* \"#utility.yul\":4389:4393   */\n      0x00\n        /* \"#utility.yul\":4427:4429   */\n      0x20\n        /* \"#utility.yul\":4416:4425   */\n      dup3\n        /* \"#utility.yul\":4412:4430   */\n      add\n        /* \"#utility.yul\":4404:4430   */\n      swap1\n      pop\n        /* \"#utility.yul\":4476:4485   */\n      dup2\n        /* \"#utility.yul\":4470:4474   */\n      dup2\n        /* \"#utility.yul\":4466:4486   */\n      sub\n        /* \"#utility.yul\":4462:4463   */\n      0x00\n        /* \"#utility.yul\":4451:4460   */\n      dup4\n        /* \"#utility.yul\":4447:4464   */\n      add\n        /* \"#utility.yul\":4440:4487   */\n      mstore\n        /* \"#utility.yul\":4504:4635   */\n      tag_179\n        /* \"#utility.yul\":4630:4634   */\n      dup2\n        /* \"#utility.yul\":4504:4635   */\n      tag_156\n      jump\t// in\n    tag_179:\n        /* \"#utility.yul\":4496:4635   */\n      swap1\n      pop\n        /* \"#utility.yul\":4223:4642   */\n      swap2\n      swap1\n      pop\n      jump\t// out\n        /* \"#utility.yul\":4648:5067   */\n    tag_85:\n        /* \"#utility.yul\":4814:4818   */\n      0x00\n        /* \"#utility.yul\":4852:4854   */\n      0x20\n        /* \"#utility.yul\":4841:4850   */\n      dup3\n        /* \"#utility.yul\":4837:4855   */\n      add\n        /* \"#utility.yul\":4829:4855   */\n      swap1\n      pop\n        /* \"#utility.yul\":4901:4910   */\n      dup2\n        /* \"#utility.yul\":4895:4899   */\n      dup2\n        /* \"#utility.yul\":4891:4911   */\n      sub\n        /* \"#utility.yul\":4887:4888   */\n      0x00\n        /* \"#utility.yul\":4876:4885   */\n      dup4\n        /* \"#utility.yul\":4872:4889   */\n      add\n        /* \"#utility.yul\":4865:4912   */\n      mstore\n        /* \"#utility.yul\":4929:5060   */\n      tag_181\n        /* \"#utility.yul\":5055:5059   */\n      dup2\n        /* \"#utility.yul\":4929:5060   */\n      tag_161\n      jump\t// in\n    tag_181:\n        /* \"#utility.yul\":4921:5060   */\n      swap1\n      pop\n        /* \"#utility.yul\":4648:5067   */\n      swap2\n      swap1\n      pop\n      jump\t// out\n        /* \"#utility.yul\":5073:5295   */\n    tag_31:\n        /* \"#utility.yul\":5166:5170   */\n      0x00\n        /* \"#utility.yul\":5204:5206   */\n      0x20\n        /* \"#utility.yul\":5193:5202   */\n      dup3\n        /* \"#utility.yul\":5189:5207   */\n      add\n        /* \"#utility.yul\":5181:5207   */\n      swap1\n      pop\n        /* \"#utility.yul\":5217:5288   */\n      tag_183\n        /* \"#utility.yul\":5285:5286   */\n      0x00\n        /* \"#utility.yul\":5274:5283   */\n      dup4\n        /* \"#utility.yul\":5270:5287   */\n      add\n        /* \"#utility.yul\":5261:5267   */\n      dup5\n        /* \"#utility.yul\":5217:5288   */\n      tag_166\n      jump\t// in\n    tag_183:\n        /* \"#utility.yul\":5073:5295   */\n      swap3\n      swap2\n      pop\n      pop\n      jump\t// out\n        /* \"#utility.yul\":5301:5515   */\n    tag_40:\n        /* \"#utility.yul\":5390:5394   */\n      0x00\n        /* \"#utility.yul\":5428:5430   */\n      0x20\n        /* \"#utility.yul\":5417:5426   */\n      dup3\n        /* \"#utility.yul\":5413:5431   */\n      add\n        /* \"#utility.yul\":5405:5431   */\n      swap1\n      pop\n        /* \"#utility.yul\":5441:5508   */\n      tag_185\n        /* \"#utility.yul\":5505:5506   */\n      0x00\n        /* \"#utility.yul\":5494:5503   */\n      dup4\n        /* \"#utility.yul\":5490:5507   */\n      add\n        /* \"#utility.yul\":5481:5487   */\n      dup5\n        /* \"#utility.yul\":5441:5508   */\n      tag_170\n      jump\t// in\n    tag_185:\n        /* \"#utility.yul\":5301:5515   */\n      swap3\n      swap2\n      pop\n      pop\n      jump\t// out\n        /* \"#utility.yul\":5602:5701   */\n    tag_149:\n        /* \"#utility.yul\":5654:5660   */\n      0x00\n        /* \"#utility.yul\":5688:5693   */\n      dup2\n        /* \"#utility.yul\":5682:5694   */\n      mload\n        /* \"#utility.yul\":5672:5694   */\n      swap1\n      pop\n        /* \"#utility.yul\":5602:5701   */\n      swap2\n      swap1\n      pop\n      jump\t// out\n        /* \"#utility.yul\":5707:5876   */\n    tag_151:\n        /* \"#utility.yul\":5791:5802   */\n      0x00\n        /* \"#utility.yul\":5825:5831   */\n      dup3\n        /* \"#utility.yul\":5820:5823   */\n      dup3\n        /* \"#utility.yul\":5813:5832   */\n      mstore\n        /* \"#utility.yul\":5865:5869   */\n      0x20\n        /* \"#utility.yul\":5860:5863   */\n      dup3\n        /* \"#utility.yul\":5856:5870   */\n      add\n        /* \"#utility.yul\":5841:5870   */\n      swap1\n      pop\n        /* \"#utility.yul\":5707:5876   */\n      swap3\n      swap2\n      pop\n      pop\n      jump\t// out\n        /* \"#utility.yul\":5882:6187   */\n    tag_110:\n        /* \"#utility.yul\":5922:5925   */\n      0x00\n        /* \"#utility.yul\":5941:5961   */\n      tag_191\n        /* \"#utility.yul\":5959:5960   */\n      dup3\n        /* \"#utility.yul\":5941:5961   */\n      tag_169\n      jump\t// in\n    tag_191:\n        /* \"#utility.yul\":5936:5961   */\n      swap2\n      pop\n        /* \"#utility.yul\":5975:5995   */\n      tag_192\n        /* \"#utility.yul\":5993:5994   */\n      dup4\n        /* \"#utility.yul\":5975:5995   */\n      tag_169\n      jump\t// in\n    tag_192:\n        /* \"#utility.yul\":5970:5995   */\n      swap3\n      pop\n        /* \"#utility.yul\":6129:6130   */\n      dup3\n        /* \"#utility.yul\":6061:6127   */\n      0xffffffffffffffffffffffffffffffffffffffffffffffffffffffffffffffff\n        /* \"#utility.yul\":6057:6131   */\n      sub\n        /* \"#utility.yul\":6054:6055   */\n      dup3\n        /* \"#utility.yul\":6051:6132   */\n      gt\n        /* \"#utility.yul\":6048:6155   */\n      iszero\n      tag_193\n      jumpi\n        /* \"#utility.yul\":6135:6153   */\n      tag_194\n      tag_195\n      jump\t// in\n    tag_194:\n        /* \"#utility.yul\":6048:6155   */\n    tag_193:\n        /* \"#utility.yul\":6179:6180   */\n      dup3\n        /* \"#utility.yul\":6176:6177   */\n      dup3\n        /* \"#utility.yul\":6172:6181   */\n      add\n        /* \"#utility.yul\":6165:6181   */\n      swap1\n      pop\n        /* \"#utility.yul\":5882:6187   */\n      swap3\n      swap2\n      pop\n      pop\n      jump\t// out\n        /* \"#utility.yul\":6193:6384   */\n    tag_106:\n        /* \"#utility.yul\":6233:6237   */\n      0x00\n        /* \"#utility.yul\":6253:6273   */\n      tag_197\n        /* \"#utility.yul\":6271:6272   */\n      dup3\n        /* \"#utility.yul\":6253:6273   */\n      tag_169\n      jump\t// in\n    tag_197:\n        /* \"#utility.yul\":6248:6273   */\n      swap2\n      pop\n        /* \"#utility.yul\":6287:6307   */\n      tag_198\n        /* \"#utility.yul\":6305:6306   */\n      dup4\n        /* \"#utility.yul\":6287:6307   */\n      tag_169\n      jump\t// in\n    tag_198:\n        /* \"#utility.yul\":6282:6307   */\n      swap3\n      pop\n        /* \"#utility.yul\":6326:6327   */\n      dup3\n        /* \"#utility.yul\":6323:6324   */\n      dup3\n        /* \"#utility.yul\":6320:6328   */\n      lt\n        /* \"#utility.yul\":6317:6351   */\n      iszero\n      tag_199\n      jumpi\n        /* \"#utility.yul\":6331:6349   */\n      tag_200\n      tag_195\n      jump\t// in\n    tag_200:\n        /* \"#utility.yul\":6317:6351   */\n    tag_199:\n        /* \"#utility.yul\":6376:6377   */\n      dup3\n        /* \"#utility.yul\":6373:6374   */\n      dup3\n        /* \"#utility.yul\":6369:6378   */\n      sub\n        /* \"#utility.yul\":6361:6378   */\n      swap1\n      pop\n        /* \"#utility.yul\":6193:6384   */\n      swap3\n      swap2\n      pop\n      pop\n      jump\t// out\n        /* \"#utility.yul\":6390:6486   */\n    tag_201:\n        /* \"#utility.yul\":6427:6434   */\n      0x00\n        /* \"#utility.yul\":6456:6480   */\n      tag_203\n        /* \"#utility.yul\":6474:6479   */\n      dup3\n        /* \"#utility.yul\":6456:6480   */\n      tag_204\n      jump\t// in\n    tag_203:\n        /* \"#utility.yul\":6445:6480   */\n      swap1\n      pop\n        /* \"#utility.yul\":6390:6486   */\n      swap2\n      swap1\n      pop\n      jump\t// out\n        /* \"#utility.yul\":6492:6582   */\n    tag_145:\n        /* \"#utility.yul\":6526:6533   */\n      0x00\n        /* \"#utility.yul\":6569:6574   */\n      dup2\n        /* \"#utility.yul\":6562:6575   */\n      iszero\n        /* \"#utility.yul\":6555:6576   */\n      iszero\n        /* \"#utility.yul\":6544:6576   */\n      swap1\n      pop\n        /* \"#utility.yul\":6492:6582   */\n      swap2\n      swap1\n      pop\n      jump\t// out\n        /* \"#utility.yul\":6588:6714   */\n    tag_204:\n        /* \"#utility.yul\":6625:6632   */\n      0x00\n        /* \"#utility.yul\":6665:6707   */\n      0xffffffffffffffffffffffffffffffffffffffff\n        /* \"#utility.yul\":6658:6663   */\n      dup3\n        /* \"#utility.yul\":6654:6708   */\n      and\n        /* \"#utility.yul\":6643:6708   */\n      swap1\n      pop\n        /* \"#utility.yul\":6588:6714   */\n      swap2\n      swap1\n      pop\n      jump\t// out\n        /* \"#utility.yul\":6720:6797   */\n    tag_169:\n        /* \"#utility.yul\":6757:6764   */\n      0x00\n        /* \"#utility.yul\":6786:6791   */\n      dup2\n        /* \"#utility.yul\":6775:6791   */\n      swap1\n      pop\n        /* \"#utility.yul\":6720:6797   */\n      swap2\n      swap1\n      pop\n      jump\t// out\n        /* \"#utility.yul\":6803:6889   */\n    tag_173:\n        /* \"#utility.yul\":6838:6845   */\n      0x00\n        /* \"#utility.yul\":6878:6882   */\n      0xff\n        /* \"#utility.yul\":6871:6876   */\n      dup3\n        /* \"#utility.yul\":6867:6883   */\n      and\n        /* \"#utility.yul\":6856:6883   */\n      swap1\n      pop\n        /* \"#utility.yul\":6803:6889   */\n      swap2\n      swap1\n      pop\n      jump\t// out\n        /* \"#utility.yul\":6895:7202   */\n    tag_153:\n        /* \"#utility.yul\":6963:6964   */\n      0x00\n        /* \"#utility.yul\":6973:7086   */\n    tag_210:\n        /* \"#utility.yul\":6987:6993   */\n      dup4\n        /* \"#utility.yul\":6984:6985   */\n      dup2\n        /* \"#utility.yul\":6981:6994   */\n      lt\n        /* \"#utility.yul\":6973:7086   */\n      iszero\n      tag_212\n      jumpi\n        /* \"#utility.yul\":7072:7073   */\n      dup1\n        /* \"#utility.yul\":7067:7070   */\n      dup3\n        /* \"#utility.yul\":7063:7074   */\n      add\n        /* \"#utility.yul\":7057:7075   */\n      mload\n        /* \"#utility.yul\":7053:7054   */\n      dup2\n        /* \"#utility.yul\":7048:7051   */\n      dup5\n        /* \"#utility.yul\":7044:7055   */\n      add\n        /* \"#utility.yul\":7037:7076   */\n      mstore\n        /* \"#utility.yul\":7009:7011   */\n      0x20\n        /* \"#utility.yul\":7006:7007   */\n      dup2\n        /* \"#utility.yul\":7002:7012   */\n      add\n        /* \"#utility.yul\":6997:7012   */\n      swap1\n      pop\n        /* \"#utility.yul\":6973:7086   */\n      jump(tag_210)\n    tag_212:\n        /* \"#utility.yul\":7104:7110   */\n      dup4\n        /* \"#utility.yul\":7101:7102   */\n      dup2\n        /* \"#utility.yul\":7098:7111   */\n      gt\n        /* \"#utility.yul\":7095:7196   */\n      iszero\n      tag_213\n      jumpi\n        /* \"#utility.yul\":7184:7185   */\n      0x00\n        /* \"#utility.yul\":7175:7181   */\n      dup5\n        /* \"#utility.yul\":7170:7173   */\n      dup5\n        /* \"#utility.yul\":7166:7182   */\n      add\n        /* \"#utility.yul\":7159:7186   */\n      mstore\n        /* \"#utility.yul\":7095:7196   */\n    tag_213:\n        /* \"#utility.yul\":6944:7202   */\n      pop\n        /* \"#utility.yul\":6895:7202   */\n      pop\n      pop\n      pop\n      jump\t// out\n        /* \"#utility.yul\":7208:7388   */\n    tag_195:\n        /* \"#utility.yul\":7256:7333   */\n      0x4e487b7100000000000000000000000000000000000000000000000000000000\n        /* \"#utility.yul\":7253:7254   */\n      0x00\n        /* \"#utility.yul\":7246:7334   */\n      mstore\n        /* \"#utility.yul\":7353:7357   */\n      0x11\n        /* \"#utility.yul\":7350:7351   */\n      0x04\n        /* \"#utility.yul\":7343:7358   */\n      mstore\n        /* \"#utility.yul\":7377:7381   */\n      0x24\n        /* \"#utility.yul\":7374:7375   */\n      0x00\n        /* \"#utility.yul\":7367:7382   */\n      revert\n        /* \"#utility.yul\":7517:7634   */\n    tag_124:\n        /* \"#utility.yul\":7626:7627   */\n      0x00\n        /* \"#utility.yul\":7623:7624   */\n      dup1\n        /* \"#utility.yul\":7616:7628   */\n      revert\n        /* \"#utility.yul\":7640:7742   */\n    tag_155:\n        /* \"#utility.yul\":7681:7687   */\n      0x00\n        /* \"#utility.yul\":7732:7734   */\n      0x1f\n        /* \"#utility.yul\":7728:7735   */\n      not\n        /* \"#utility.yul\":7723:7725   */\n      0x1f\n        /* \"#utility.yul\":7716:7721   */\n      dup4\n        /* \"#utility.yul\":7712:7726   */\n      add\n        /* \"#utility.yul\":7708:7736   */\n      and\n        /* \"#utility.yul\":7698:7736   */\n      swap1\n      pop\n        /* \"#utility.yul\":7640:7742   */\n      swap2\n      swap1\n      pop\n      jump\t// out\n        /* \"#utility.yul\":7748:7918   */\n    tag_160:\n        /* \"#utility.yul\":7888:7910   */\n      0x696e73756666696369656e742d62616c616e6365000000000000000000000000\n        /* \"#utility.yul\":7884:7885   */\n      0x00\n        /* \"#utility.yul\":7876:7882   */\n      dup3\n        /* \"#utility.yul\":7872:7886   */\n      add\n        /* \"#utility.yul\":7865:7911   */\n      mstore\n        /* \"#utility.yul\":7748:7918   */\n      pop\n      jump\t// out\n        /* \"#utility.yul\":7924:8088   */\n    tag_165:\n        /* \"#utility.yul\":8064:8080   */\n      0x4e6f742d617574686f72697a6564000000000000000000000000000000000000\n        /* \"#utility.yul\":8060:8061   */\n      0x00\n        /* \"#utility.yul\":8052:8058   */\n      dup3\n        /* \"#utility.yul\":8048:8062   */\n      add\n        /* \"#utility.yul\":8041:8081   */\n      mstore\n        /* \"#utility.yul\":7924:8088   */\n      pop\n      jump\t// out\n        /* \"#utility.yul\":8094:8216   */\n    tag_116:\n        /* \"#utility.yul\":8167:8191   */\n      tag_222\n        /* \"#utility.yul\":8185:8190   */\n      dup2\n        /* \"#utility.yul\":8167:8191   */\n      tag_201\n      jump\t// in\n    tag_222:\n        /* \"#utility.yul\":8160:8165   */\n      dup2\n        /* \"#utility.yul\":8157:8192   */\n      eq\n        /* \"#utility.yul\":8147:8210   */\n      tag_223\n      jumpi\n        /* \"#utility.yul\":8206:8207   */\n      0x00\n        /* \"#utility.yul\":8203:8204   */\n      dup1\n        /* \"#utility.yul\":8196:8208   */\n      revert\n        /* \"#utility.yul\":8147:8210   */\n    tag_223:\n        /* \"#utility.yul\":8094:8216   */\n      pop\n      jump\t// out\n        /* \"#utility.yul\":8222:8344   */\n    tag_120:\n        /* \"#utility.yul\":8295:8319   */\n      tag_225\n        /* \"#utility.yul\":8313:8318   */\n      dup2\n        /* \"#utility.yul\":8295:8319   */\n      tag_169\n      jump\t// in\n    tag_225:\n        /* \"#utility.yul\":8288:8293   */\n      dup2\n        /* \"#utility.yul\":8285:8320   */\n      eq\n        /* \"#utility.yul\":8275:8338   */\n      tag_226\n      jumpi\n        /* \"#utility.yul\":8334:8335   */\n      0x00\n        /* \"#utility.yul\":8331:8332   */\n      dup1\n        /* \"#utility.yul\":8324:8336   */\n      revert\n        /* \"#utility.yul\":8275:8338   */\n    tag_226:\n        /* \"#utility.yul\":8222:8344   */\n      pop\n      jump\t// out\n\n    auxdata: 0xa26469706673582212203c36b488beecbb1587d04487be630710e1464ba65f6255df3cd918f3ba8a569264736f6c63430008070033\n}\n",
				"bytecode": {
					"linkReferences": {},
					"object": "608060405234801561001057600080fd5b5060016000803373ffffffffffffffffffffffffffffffffffffffff1673ffffffffffffffffffffffffffffffffffffffff1681526020019081526020016000208190555060006001819055506111588061006c6000396000f3fe608060405234801561001057600080fd5b50600436106100cf5760003560e01c806354fd4d501161008c5780639dc29fac116100665780639dc29fac14610216578063a9059cbb14610232578063bf353dbb14610262578063dd62ed3e14610292576100cf565b806354fd4d50146101aa57806370a08231146101c857806395d89b41146101f8576100cf565b806306fdde03146100d4578063095ea7b3146100f257806318160ddd1461012257806323b872dd14610140578063313ce5671461017057806340c10f191461018e575b600080fd5b6100dc6102c2565b6040516100e99190610e97565b60405180910390f35b61010c60048036038101906101079190610d90565b6102fb565b6040516101199190610e7c565b60405180910390f35b61012a6103ed565b6040516101379190610ef9565b60405180910390f35b61015a60048036038101906101559190610d3d565b6103f3565b6040516101679190610e7c565b60405180910390f35b610178610758565b6040516101859190610f14565b60405180910390f35b6101a860048036038101906101a39190610d90565b61075d565b005b6101b26108e6565b6040516101bf9190610e97565b60405180910390f35b6101e260048036038101906101dd9190610cd0565b61091f565b6040516101ef9190610ef9565b60405180910390f35b610200610968565b60405161020d9190610e97565b60405180910390f35b610230600480360381019061022b9190610d90565b6109a1565b005b61024c60048036038101906102479190610d90565b610bac565b6040516102599190610e7c565b60405180910390f35b61027c60048036038101906102779190610cd0565b610bc1565b6040516102899190610ef9565b60405180910390f35b6102ac60048036038101906102a79190610cfd565b610bd9565b6040516102b99190610ef9565b60405180910390f35b6040518060400160405280600881526020017f446f7461436f696e00000000000000000000000000000000000000000000000081525081565b600081600360003373ffffffffffffffffffffffffffffffffffffffff1673ffffffffffffffffffffffffffffffffffffffff16815260200190815260200160002060008573ffffffffffffffffffffffffffffffffffffffff1673ffffffffffffffffffffffffffffffffffffffff168152602001908152602001600020819055508273ffffffffffffffffffffffffffffffffffffffff163373ffffffffffffffffffffffffffffffffffffffff167f8c5be1e5ebec7d5bd14f71427d1e84f3dd0314c0f7b2291e5b200ac8c7c3b925846040516103db9190610ef9565b60405180910390a36001905092915050565b60015481565b6000600260008573ffffffffffffffffffffffffffffffffffffffff1673ffffffffffffffffffffffffffffffffffffffff1681526020019081526020016000205482111561044157600080fd5b600360008573ffffffffffffffffffffffffffffffffffffffff1673ffffffffffffffffffffffffffffffffffffffff16815260200190815260200160002060003373ffffffffffffffffffffffffffffffffffffffff1673ffffffffffffffffffffffffffffffffffffffff168152602001908152602001600020548211156104ca57600080fd5b610550600360008673ffffffffffffffffffffffffffffffffffffffff1673ffffffffffffffffffffffffffffffffffffffff16815260200190815260200160002060003373ffffffffffffffffffffffffffffffffffffffff1673ffffffffffffffffffffffffffffffffffffffff1681526020019081526020016000205483610c60565b600360008673ffffffffffffffffffffffffffffffffffffffff1673ffffffffffffffffffffffffffffffffffffffff16815260200190815260200160002060003373ffffffffffffffffffffffffffffffffffffffff1673ffffffffffffffffffffffffffffffffffffffff16815260200190815260200160002081905550610619600260008673ffffffffffffffffffffffffffffffffffffffff1673ffffffffffffffffffffffffffffffffffffffff1681526020019081526020016000205483610c60565b600260008673ffffffffffffffffffffffffffffffffffffffff1673ffffffffffffffffffffffffffffffffffffffff168152602001908152602001600020819055506106a5600260008573ffffffffffffffffffffffffffffffffffffffff1673ffffffffffffffffffffffffffffffffffffffff1681526020019081526020016000205483610c83565b600260008573ffffffffffffffffffffffffffffffffffffffff1673ffffffffffffffffffffffffffffffffffffffff168152602001908152602001600020819055508273ffffffffffffffffffffffffffffffffffffffff168473ffffffffffffffffffffffffffffffffffffffff167fddf252ad1be2c89b69c2b068fc378daa952ba7f163c4a11628f55a4df523b3ef846040516107459190610ef9565b60405180910390a3600190509392505050565b600081565b60016000803373ffffffffffffffffffffffffffffffffffffffff1673ffffffffffffffffffffffffffffffffffffffff16815260200190815260200160002054146107de576040517f08c379a00000000000000000000000000000000000000000000000000000000081526004016107d590610ed9565b60405180910390fd5b610827600260008473ffffffffffffffffffffffffffffffffffffffff1673ffffffffffffffffffffffffffffffffffffffff1681526020019081526020016000205482610c83565b600260008473ffffffffffffffffffffffffffffffffffffffff1673ffffffffffffffffffffffffffffffffffffffff1681526020019081526020016000208190555061087660015482610c83565b6001819055508173ffffffffffffffffffffffffffffffffffffffff16600073ffffffffffffffffffffffffffffffffffffffff167fddf252ad1be2c89b69c2b068fc378daa952ba7f163c4a11628f55a4df523b3ef836040516108da9190610ef9565b60405180910390a35050565b6040518060400160405280600181526020017f310000000000000000000000000000000000000000000000000000000000000081525081565b6000600260008373ffffffffffffffffffffffffffffffffffffffff1673ffffffffffffffffffffffffffffffffffffffff168152602001908152602001600020549050919050565b6040518060400160405280600281526020017f444300000000000000000000000000000000000000000000000000000000000081525081565b60016000803373ffffffffffffffffffffffffffffffffffffffff1673ffffffffffffffffffffffffffffffffffffffff1681526020019081526020016000205414610a22576040517f08c379a0000000000000000000000000000000000000000000000000000000008152600401610a1990610ed9565b60405180910390fd5b80600260008473ffffffffffffffffffffffffffffffffffffffff1673ffffffffffffffffffffffffffffffffffffffff168152602001908152602001600020541015610aa4576040517f08c379a0000000000000000000000000000000000000000000000000000000008152600401610a9b90610eb9565b60405180910390fd5b610aed600260008473ffffffffffffffffffffffffffffffffffffffff1673ffffffffffffffffffffffffffffffffffffffff1681526020019081526020016000205482610c60565b600260008473ffffffffffffffffffffffffffffffffffffffff1673ffffffffffffffffffffffffffffffffffffffff16815260200190815260200160002081905550610b3c60015482610c60565b600181905550600073ffffffffffffffffffffffffffffffffffffffff168273ffffffffffffffffffffffffffffffffffffffff167fddf252ad1be2c89b69c2b068fc378daa952ba7f163c4a11628f55a4df523b3ef83604051610ba09190610ef9565b60405180910390a35050565b6000610bb93384846103f3565b905092915050565b60006020528060005260406000206000915090505481565b6000600360008473ffffffffffffffffffffffffffffffffffffffff1673ffffffffffffffffffffffffffffffffffffffff16815260200190815260200160002060008373ffffffffffffffffffffffffffffffffffffffff1673ffffffffffffffffffffffffffffffffffffffff16815260200190815260200160002054905092915050565b6000828284610c6f9190610fa1565b9150811115610c7d57600080fd5b92915050565b6000828284610c929190610f4b565b9150811015610ca057600080fd5b92915050565b600081359050610cb5816110f4565b92915050565b600081359050610cca8161110b565b92915050565b600060208284031215610ce657610ce561108c565b5b6000610cf484828501610ca6565b91505092915050565b60008060408385031215610d1457610d1361108c565b5b6000610d2285828601610ca6565b9250506020610d3385828601610ca6565b9150509250929050565b600080600060608486031215610d5657610d5561108c565b5b6000610d6486828701610ca6565b9350506020610d7586828701610ca6565b9250506040610d8686828701610cbb565b9150509250925092565b60008060408385031215610da757610da661108c565b5b6000610db585828601610ca6565b9250506020610dc685828601610cbb565b9150509250929050565b610dd981610fe7565b82525050565b6000610dea82610f2f565b610df48185610f3a565b9350610e0481856020860161102a565b610e0d81611091565b840191505092915050565b6000610e25601483610f3a565b9150610e30826110a2565b602082019050919050565b6000610e48600e83610f3a565b9150610e53826110cb565b602082019050919050565b610e6781611013565b82525050565b610e768161101d565b82525050565b6000602082019050610e916000830184610dd0565b92915050565b60006020820190508181036000830152610eb18184610ddf565b905092915050565b60006020820190508181036000830152610ed281610e18565b9050919050565b60006020820190508181036000830152610ef281610e3b565b9050919050565b6000602082019050610f0e6000830184610e5e565b92915050565b6000602082019050610f296000830184610e6d565b92915050565b600081519050919050565b600082825260208201905092915050565b6000610f5682611013565b9150610f6183611013565b9250827fffffffffffffffffffffffffffffffffffffffffffffffffffffffffffffffff03821115610f9657610f9561105d565b5b828201905092915050565b6000610fac82611013565b9150610fb783611013565b925082821015610fca57610fc961105d565b5b828203905092915050565b6000610fe082610ff3565b9050919050565b60008115159050919050565b600073ffffffffffffffffffffffffffffffffffffffff82169050919050565b6000819050919050565b600060ff82169050919050565b60005b8381101561104857808201518184015260208101905061102d565b83811115611057576000848401525b50505050565b7f4e487b7100000000000000000000000000000000000000000000000000000000600052601160045260246000fd5b600080fd5b6000601f19601f8301169050919050565b7f696e73756666696369656e742d62616c616e6365000000000000000000000000600082015250565b7f4e6f742d617574686f72697a6564000000000000000000000000000000000000600082015250565b6110fd81610fd5565b811461110857600080fd5b50565b61111481611013565b811461111f57600080fd5b5056fea26469706673582212203c36b488beecbb1587d04487be630710e1464ba65f6255df3cd918f3ba8a569264736f6c63430008070033",
					"opcodes": "PUSH1 0x80 PUSH1 0x40 MSTORE CALLVALUE DUP1 ISZERO PUSH2 0x10 JUMPI PUSH1 0x0 DUP1 REVERT JUMPDEST POP PUSH1 0x1 PUSH1 0x0 DUP1 CALLER PUSH20 0xFFFFFFFFFFFFFFFFFFFFFFFFFFFFFFFFFFFFFFFF AND PUSH20 0xFFFFFFFFFFFFFFFFFFFFFFFFFFFFFFFFFFFFFFFF AND DUP2 MSTORE PUSH1 0x20 ADD SWAP1 DUP2 MSTORE PUSH1 0x20 ADD PUSH1 0x0 KECCAK256 DUP2 SWAP1 SSTORE POP PUSH1 0x0 PUSH1 0x1 DUP2 SWAP1 SSTORE POP PUSH2 0x1158 DUP1 PUSH2 0x6C PUSH1 0x0 CODECOPY PUSH1 0x0 RETURN INVALID PUSH1 0x80 PUSH1 0x40 MSTORE CALLVALUE DUP1 ISZERO PUSH2 0x10 JUMPI PUSH1 0x0 DUP1 REVERT JUMPDEST POP PUSH1 0x4 CALLDATASIZE LT PUSH2 0xCF JUMPI PUSH1 0x0 CALLDATALOAD PUSH1 0xE0 SHR DUP1 PUSH4 0x54FD4D50 GT PUSH2 0x8C JUMPI DUP1 PUSH4 0x9DC29FAC GT PUSH2 0x66 JUMPI DUP1 PUSH4 0x9DC29FAC EQ PUSH2 0x216 JUMPI DUP1 PUSH4 0xA9059CBB EQ PUSH2 0x232 JUMPI DUP1 PUSH4 0xBF353DBB EQ PUSH2 0x262 JUMPI DUP1 PUSH4 0xDD62ED3E EQ PUSH2 0x292 JUMPI PUSH2 0xCF JUMP JUMPDEST DUP1 PUSH4 0x54FD4D50 EQ PUSH2 0x1AA JUMPI DUP1 PUSH4 0x70A08231 EQ PUSH2 0x1C8 JUMPI DUP1 PUSH4 0x95D89B41 EQ PUSH2 0x1F8 JUMPI PUSH2 0xCF JUMP JUMPDEST DUP1 PUSH4 0x6FDDE03 EQ PUSH2 0xD4 JUMPI DUP1 PUSH4 0x95EA7B3 EQ PUSH2 0xF2 JUMPI DUP1 PUSH4 0x18160DDD EQ PUSH2 0x122 JUMPI DUP1 PUSH4 0x23B872DD EQ PUSH2 0x140 JUMPI DUP1 PUSH4 0x313CE567 EQ PUSH2 0x170 JUMPI DUP1 PUSH4 0x40C10F19 EQ PUSH2 0x18E JUMPI JUMPDEST PUSH1 0x0 DUP1 REVERT JUMPDEST PUSH2 0xDC PUSH2 0x2C2 JUMP JUMPDEST PUSH1 0x40 MLOAD PUSH2 0xE9 SWAP2 SWAP1 PUSH2 0xE97 JUMP JUMPDEST PUSH1 0x40 MLOAD DUP1 SWAP2 SUB SWAP1 RETURN JUMPDEST PUSH2 0x10C PUSH1 0x4 DUP1 CALLDATASIZE SUB DUP2 ADD SWAP1 PUSH2 0x107 SWAP2 SWAP1 PUSH2 0xD90 JUMP JUMPDEST PUSH2 0x2FB JUMP JUMPDEST PUSH1 0x40 MLOAD PUSH2 0x119 SWAP2 SWAP1 PUSH2 0xE7C JUMP JUMPDEST PUSH1 0x40 MLOAD DUP1 SWAP2 SUB SWAP1 RETURN JUMPDEST PUSH2 0x12A PUSH2 0x3ED JUMP JUMPDEST PUSH1 0x40 MLOAD PUSH2 0x137 SWAP2 SWAP1 PUSH2 0xEF9 JUMP JUMPDEST PUSH1 0x40 MLOAD DUP1 SWAP2 SUB SWAP1 RETURN JUMPDEST PUSH2 0x15A PUSH1 0x4 DUP1 CALLDATASIZE SUB DUP2 ADD SWAP1 PUSH2 0x155 SWAP2 SWAP1 PUSH2 0xD3D JUMP JUMPDEST PUSH2 0x3F3 JUMP JUMPDEST PUSH1 0x40 MLOAD PUSH2 0x167 SWAP2 SWAP1 PUSH2 0xE7C JUMP JUMPDEST PUSH1 0x40 MLOAD DUP1 SWAP2 SUB SWAP1 RETURN JUMPDEST PUSH2 0x178 PUSH2 0x758 JUMP JUMPDEST PUSH1 0x40 MLOAD PUSH2 0x185 SWAP2 SWAP1 PUSH2 0xF14 JUMP JUMPDEST PUSH1 0x40 MLOAD DUP1 SWAP2 SUB SWAP1 RETURN JUMPDEST PUSH2 0x1A8 PUSH1 0x4 DUP1 CALLDATASIZE SUB DUP2 ADD SWAP1 PUSH2 0x1A3 SWAP2 SWAP1 PUSH2 0xD90 JUMP JUMPDEST PUSH2 0x75D JUMP JUMPDEST STOP JUMPDEST PUSH2 0x1B2 PUSH2 0x8E6 JUMP JUMPDEST PUSH1 0x40 MLOAD PUSH2 0x1BF SWAP2 SWAP1 PUSH2 0xE97 JUMP JUMPDEST PUSH1 0x40 MLOAD DUP1 SWAP2 SUB SWAP1 RETURN JUMPDEST PUSH2 0x1E2 PUSH1 0x4 DUP1 CALLDATASIZE SUB DUP2 ADD SWAP1 PUSH2 0x1DD SWAP2 SWAP1 PUSH2 0xCD0 JUMP JUMPDEST PUSH2 0x91F JUMP JUMPDEST PUSH1 0x40 MLOAD PUSH2 0x1EF SWAP2 SWAP1 PUSH2 0xEF9 JUMP JUMPDEST PUSH1 0x40 MLOAD DUP1 SWAP2 SUB SWAP1 RETURN JUMPDEST PUSH2 0x200 PUSH2 0x968 JUMP JUMPDEST PUSH1 0x40 MLOAD PUSH2 0x20D SWAP2 SWAP1 PUSH2 0xE97 JUMP JUMPDEST PUSH1 0x40 MLOAD DUP1 SWAP2 SUB SWAP1 RETURN JUMPDEST PUSH2 0x230 PUSH1 0x4 DUP1 CALLDATASIZE SUB DUP2 ADD SWAP1 PUSH2 0x22B SWAP2 SWAP1 PUSH2 0xD90 JUMP JUMPDEST PUSH2 0x9A1 JUMP JUMPDEST STOP JUMPDEST PUSH2 0x24C PUSH1 0x4 DUP1 CALLDATASIZE SUB DUP2 ADD SWAP1 PUSH2 0x247 SWAP2 SWAP1 PUSH2 0xD90 JUMP JUMPDEST PUSH2 0xBAC JUMP JUMPDEST PUSH1 0x40 MLOAD PUSH2 0x259 SWAP2 SWAP1 PUSH2 0xE7C JUMP JUMPDEST PUSH1 0x40 MLOAD DUP1 SWAP2 SUB SWAP1 RETURN JUMPDEST PUSH2 0x27C PUSH1 0x4 DUP1 CALLDATASIZE SUB DUP2 ADD SWAP1 PUSH2 0x277 SWAP2 SWAP1 PUSH2 0xCD0 JUMP JUMPDEST PUSH2 0xBC1 JUMP JUMPDEST PUSH1 0x40 MLOAD PUSH2 0x289 SWAP2 SWAP1 PUSH2 0xEF9 JUMP JUMPDEST PUSH1 0x40 MLOAD DUP1 SWAP2 SUB SWAP1 RETURN JUMPDEST PUSH2 0x2AC PUSH1 0x4 DUP1 CALLDATASIZE SUB DUP2 ADD SWAP1 PUSH2 0x2A7 SWAP2 SWAP1 PUSH2 0xCFD JUMP JUMPDEST PUSH2 0xBD9 JUMP JUMPDEST PUSH1 0x40 MLOAD PUSH2 0x2B9 SWAP2 SWAP1 PUSH2 0xEF9 JUMP JUMPDEST PUSH1 0x40 MLOAD DUP1 SWAP2 SUB SWAP1 RETURN JUMPDEST PUSH1 0x40 MLOAD DUP1 PUSH1 0x40 ADD PUSH1 0x40 MSTORE DUP1 PUSH1 0x8 DUP2 MSTORE PUSH1 0x20 ADD PUSH32 0x446F7461436F696E000000000000000000000000000000000000000000000000 DUP2 MSTORE POP DUP2 JUMP JUMPDEST PUSH1 0x0 DUP2 PUSH1 0x3 PUSH1 0x0 CALLER PUSH20 0xFFFFFFFFFFFFFFFFFFFFFFFFFFFFFFFFFFFFFFFF AND PUSH20 0xFFFFFFFFFFFFFFFFFFFFFFFFFFFFFFFFFFFFFFFF AND DUP2 MSTORE PUSH1 0x20 ADD SWAP1 DUP2 MSTORE PUSH1 0x20 ADD PUSH1 0x0 KECCAK256 PUSH1 0x0 DUP6 PUSH20 0xFFFFFFFFFFFFFFFFFFFFFFFFFFFFFFFFFFFFFFFF AND PUSH20 0xFFFFFFFFFFFFFFFFFFFFFFFFFFFFFFFFFFFFFFFF AND DUP2 MSTORE PUSH1 0x20 ADD SWAP1 DUP2 MSTORE PUSH1 0x20 ADD PUSH1 0x0 KECCAK256 DUP2 SWAP1 SSTORE POP DUP3 PUSH20 0xFFFFFFFFFFFFFFFFFFFFFFFFFFFFFFFFFFFFFFFF AND CALLER PUSH20 0xFFFFFFFFFFFFFFFFFFFFFFFFFFFFFFFFFFFFFFFF AND PUSH32 0x8C5BE1E5EBEC7D5BD14F71427D1E84F3DD0314C0F7B2291E5B200AC8C7C3B925 DUP5 PUSH1 0x40 MLOAD PUSH2 0x3DB SWAP2 SWAP1 PUSH2 0xEF9 JUMP JUMPDEST PUSH1 0x40 MLOAD DUP1 SWAP2 SUB SWAP1 LOG3 PUSH1 0x1 SWAP1 POP SWAP3 SWAP2 POP POP JUMP JUMPDEST PUSH1 0x1 SLOAD DUP2 JUMP JUMPDEST PUSH1 0x0 PUSH1 0x2 PUSH1 0x0 DUP6 PUSH20 0xFFFFFFFFFFFFFFFFFFFFFFFFFFFFFFFFFFFFFFFF AND PUSH20 0xFFFFFFFFFFFFFFFFFFFFFFFFFFFFFFFFFFFFFFFF AND DUP2 MSTORE PUSH1 0x20 ADD SWAP1 DUP2 MSTORE PUSH1 0x20 ADD PUSH1 0x0 KECCAK256 SLOAD DUP3 GT ISZERO PUSH2 0x441 JUMPI PUSH1 0x0 DUP1 REVERT JUMPDEST PUSH1 0x3 PUSH1 0x0 DUP6 PUSH20 0xFFFFFFFFFFFFFFFFFFFFFFFFFFFFFFFFFFFFFFFF AND PUSH20 0xFFFFFFFFFFFFFFFFFFFFFFFFFFFFFFFFFFFFFFFF AND DUP2 MSTORE PUSH1 0x20 ADD SWAP1 DUP2 MSTORE PUSH1 0x20 ADD PUSH1 0x0 KECCAK256 PUSH1 0x0 CALLER PUSH20 0xFFFFFFFFFFFFFFFFFFFFFFFFFFFFFFFFFFFFFFFF AND PUSH20 0xFFFFFFFFFFFFFFFFFFFFFFFFFFFFFFFFFFFFFFFF AND DUP2 MSTORE PUSH1 0x20 ADD SWAP1 DUP2 MSTORE PUSH1 0x20 ADD PUSH1 0x0 KECCAK256 SLOAD DUP3 GT ISZERO PUSH2 0x4CA JUMPI PUSH1 0x0 DUP1 REVERT JUMPDEST PUSH2 0x550 PUSH1 0x3 PUSH1 0x0 DUP7 PUSH20 0xFFFFFFFFFFFFFFFFFFFFFFFFFFFFFFFFFFFFFFFF AND PUSH20 0xFFFFFFFFFFFFFFFFFFFFFFFFFFFFFFFFFFFFFFFF AND DUP2 MSTORE PUSH1 0x20 ADD SWAP1 DUP2 MSTORE PUSH1 0x20 ADD PUSH1 0x0 KECCAK256 PUSH1 0x0 CALLER PUSH20 0xFFFFFFFFFFFFFFFFFFFFFFFFFFFFFFFFFFFFFFFF AND PUSH20 0xFFFFFFFFFFFFFFFFFFFFFFFFFFFFFFFFFFFFFFFF AND DUP2 MSTORE PUSH1 0x20 ADD SWAP1 DUP2 MSTORE PUSH1 0x20 ADD PUSH1 0x0 KECCAK256 SLOAD DUP4 PUSH2 0xC60 JUMP JUMPDEST PUSH1 0x3 PUSH1 0x0 DUP7 PUSH20 0xFFFFFFFFFFFFFFFFFFFFFFFFFFFFFFFFFFFFFFFF AND PUSH20 0xFFFFFFFFFFFFFFFFFFFFFFFFFFFFFFFFFFFFFFFF AND DUP2 MSTORE PUSH1 0x20 ADD SWAP1 DUP2 MSTORE PUSH1 0x20 ADD PUSH1 0x0 KECCAK256 PUSH1 0x0 CALLER PUSH20 0xFFFFFFFFFFFFFFFFFFFFFFFFFFFFFFFFFFFFFFFF AND PUSH20 0xFFFFFFFFFFFFFFFFFFFFFFFFFFFFFFFFFFFFFFFF AND DUP2 MSTORE PUSH1 0x20 ADD SWAP1 DUP2 MSTORE PUSH1 0x20 ADD PUSH1 0x0 KECCAK256 DUP2 SWAP1 SSTORE POP PUSH2 0x619 PUSH1 0x2 PUSH1 0x0 DUP7 PUSH20 0xFFFFFFFFFFFFFFFFFFFFFFFFFFFFFFFFFFFFFFFF AND PUSH20 0xFFFFFFFFFFFFFFFFFFFFFFFFFFFFFFFFFFFFFFFF AND DUP2 MSTORE PUSH1 0x20 ADD SWAP1 DUP2 MSTORE PUSH1 0x20 ADD PUSH1 0x0 KECCAK256 SLOAD DUP4 PUSH2 0xC60 JUMP JUMPDEST PUSH1 0x2 PUSH1 0x0 DUP7 PUSH20 0xFFFFFFFFFFFFFFFFFFFFFFFFFFFFFFFFFFFFFFFF AND PUSH20 0xFFFFFFFFFFFFFFFFFFFFFFFFFFFFFFFFFFFFFFFF AND DUP2 MSTORE PUSH1 0x20 ADD SWAP1 DUP2 MSTORE PUSH1 0x20 ADD PUSH1 0x0 KECCAK256 DUP2 SWAP1 SSTORE POP PUSH2 0x6A5 PUSH1 0x2 PUSH1 0x0 DUP6 PUSH20 0xFFFFFFFFFFFFFFFFFFFFFFFFFFFFFFFFFFFFFFFF AND PUSH20 0xFFFFFFFFFFFFFFFFFFFFFFFFFFFFFFFFFFFFFFFF AND DUP2 MSTORE PUSH1 0x20 ADD SWAP1 DUP2 MSTORE PUSH1 0x20 ADD PUSH1 0x0 KECCAK256 SLOAD DUP4 PUSH2 0xC83 JUMP JUMPDEST PUSH1 0x2 PUSH1 0x0 DUP6 PUSH20 0xFFFFFFFFFFFFFFFFFFFFFFFFFFFFFFFFFFFFFFFF AND PUSH20 0xFFFFFFFFFFFFFFFFFFFFFFFFFFFFFFFFFFFFFFFF AND DUP2 MSTORE PUSH1 0x20 ADD SWAP1 DUP2 MSTORE PUSH1 0x20 ADD PUSH1 0x0 KECCAK256 DUP2 SWAP1 SSTORE POP DUP3 PUSH20 0xFFFFFFFFFFFFFFFFFFFFFFFFFFFFFFFFFFFFFFFF AND DUP5 PUSH20 0xFFFFFFFFFFFFFFFFFFFFFFFFFFFFFFFFFFFFFFFF AND PUSH32 0xDDF252AD1BE2C89B69C2B068FC378DAA952BA7F163C4A11628F55A4DF523B3EF DUP5 PUSH1 0x40 MLOAD PUSH2 0x745 SWAP2 SWAP1 PUSH2 0xEF9 JUMP JUMPDEST PUSH1 0x40 MLOAD DUP1 SWAP2 SUB SWAP1 LOG3 PUSH1 0x1 SWAP1 POP SWAP4 SWAP3 POP POP POP JUMP JUMPDEST PUSH1 0x0 DUP2 JUMP JUMPDEST PUSH1 0x1 PUSH1 0x0 DUP1 CALLER PUSH20 0xFFFFFFFFFFFFFFFFFFFFFFFFFFFFFFFFFFFFFFFF AND PUSH20 0xFFFFFFFFFFFFFFFFFFFFFFFFFFFFFFFFFFFFFFFF AND DUP2 MSTORE PUSH1 0x20 ADD SWAP1 DUP2 MSTORE PUSH1 0x20 ADD PUSH1 0x0 KECCAK256 SLOAD EQ PUSH2 0x7DE JUMPI PUSH1 0x40 MLOAD PUSH32 0x8C379A000000000000000000000000000000000000000000000000000000000 DUP2 MSTORE PUSH1 0x4 ADD PUSH2 0x7D5 SWAP1 PUSH2 0xED9 JUMP JUMPDEST PUSH1 0x40 MLOAD DUP1 SWAP2 SUB SWAP1 REVERT JUMPDEST PUSH2 0x827 PUSH1 0x2 PUSH1 0x0 DUP5 PUSH20 0xFFFFFFFFFFFFFFFFFFFFFFFFFFFFFFFFFFFFFFFF AND PUSH20 0xFFFFFFFFFFFFFFFFFFFFFFFFFFFFFFFFFFFFFFFF AND DUP2 MSTORE PUSH1 0x20 ADD SWAP1 DUP2 MSTORE PUSH1 0x20 ADD PUSH1 0x0 KECCAK256 SLOAD DUP3 PUSH2 0xC83 JUMP JUMPDEST PUSH1 0x2 PUSH1 0x0 DUP5 PUSH20 0xFFFFFFFFFFFFFFFFFFFFFFFFFFFFFFFFFFFFFFFF AND PUSH20 0xFFFFFFFFFFFFFFFFFFFFFFFFFFFFFFFFFFFFFFFF AND DUP2 MSTORE PUSH1 0x20 ADD SWAP1 DUP2 MSTORE PUSH1 0x20 ADD PUSH1 0x0 KECCAK256 DUP2 SWAP1 SSTORE POP PUSH2 0x876 PUSH1 0x1 SLOAD DUP3 PUSH2 0xC83 JUMP JUMPDEST PUSH1 0x1 DUP2 SWAP1 SSTORE POP DUP2 PUSH20 0xFFFFFFFFFFFFFFFFFFFFFFFFFFFFFFFFFFFFFFFF AND PUSH1 0x0 PUSH20 0xFFFFFFFFFFFFFFFFFFFFFFFFFFFFFFFFFFFFFFFF AND PUSH32 0xDDF252AD1BE2C89B69C2B068FC378DAA952BA7F163C4A11628F55A4DF523B3EF DUP4 PUSH1 0x40 MLOAD PUSH2 0x8DA SWAP2 SWAP1 PUSH2 0xEF9 JUMP JUMPDEST PUSH1 0x40 MLOAD DUP1 SWAP2 SUB SWAP1 LOG3 POP POP JUMP JUMPDEST PUSH1 0x40 MLOAD DUP1 PUSH1 0x40 ADD PUSH1 0x40 MSTORE DUP1 PUSH1 0x1 DUP2 MSTORE PUSH1 0x20 ADD PUSH32 0x3100000000000000000000000000000000000000000000000000000000000000 DUP2 MSTORE POP DUP2 JUMP JUMPDEST PUSH1 0x0 PUSH1 0x2 PUSH1 0x0 DUP4 PUSH20 0xFFFFFFFFFFFFFFFFFFFFFFFFFFFFFFFFFFFFFFFF AND PUSH20 0xFFFFFFFFFFFFFFFFFFFFFFFFFFFFFFFFFFFFFFFF AND DUP2 MSTORE PUSH1 0x20 ADD SWAP1 DUP2 MSTORE PUSH1 0x20 ADD PUSH1 0x0 KECCAK256 SLOAD SWAP1 POP SWAP2 SWAP1 POP JUMP JUMPDEST PUSH1 0x40 MLOAD DUP1 PUSH1 0x40 ADD PUSH1 0x40 MSTORE DUP1 PUSH1 0x2 DUP2 MSTORE PUSH1 0x20 ADD PUSH32 0x4443000000000000000000000000000000000000000000000000000000000000 DUP2 MSTORE POP DUP2 JUMP JUMPDEST PUSH1 0x1 PUSH1 0x0 DUP1 CALLER PUSH20 0xFFFFFFFFFFFFFFFFFFFFFFFFFFFFFFFFFFFFFFFF AND PUSH20 0xFFFFFFFFFFFFFFFFFFFFFFFFFFFFFFFFFFFFFFFF AND DUP2 MSTORE PUSH1 0x20 ADD SWAP1 DUP2 MSTORE PUSH1 0x20 ADD PUSH1 0x0 KECCAK256 SLOAD EQ PUSH2 0xA22 JUMPI PUSH1 0x40 MLOAD PUSH32 0x8C379A000000000000000000000000000000000000000000000000000000000 DUP2 MSTORE PUSH1 0x4 ADD PUSH2 0xA19 SWAP1 PUSH2 0xED9 JUMP JUMPDEST PUSH1 0x40 MLOAD DUP1 SWAP2 SUB SWAP1 REVERT JUMPDEST DUP1 PUSH1 0x2 PUSH1 0x0 DUP5 PUSH20 0xFFFFFFFFFFFFFFFFFFFFFFFFFFFFFFFFFFFFFFFF AND PUSH20 0xFFFFFFFFFFFFFFFFFFFFFFFFFFFFFFFFFFFFFFFF AND DUP2 MSTORE PUSH1 0x20 ADD SWAP1 DUP2 MSTORE PUSH1 0x20 ADD PUSH1 0x0 KECCAK256 SLOAD LT ISZERO PUSH2 0xAA4 JUMPI PUSH1 0x40 MLOAD PUSH32 0x8C379A000000000000000000000000000000000000000000000000000000000 DUP2 MSTORE PUSH1 0x4 ADD PUSH2 0xA9B SWAP1 PUSH2 0xEB9 JUMP JUMPDEST PUSH1 0x40 MLOAD DUP1 SWAP2 SUB SWAP1 REVERT JUMPDEST PUSH2 0xAED PUSH1 0x2 PUSH1 0x0 DUP5 PUSH20 0xFFFFFFFFFFFFFFFFFFFFFFFFFFFFFFFFFFFFFFFF AND PUSH20 0xFFFFFFFFFFFFFFFFFFFFFFFFFFFFFFFFFFFFFFFF AND DUP2 MSTORE PUSH1 0x20 ADD SWAP1 DUP2 MSTORE PUSH1 0x20 ADD PUSH1 0x0 KECCAK256 SLOAD DUP3 PUSH2 0xC60 JUMP JUMPDEST PUSH1 0x2 PUSH1 0x0 DUP5 PUSH20 0xFFFFFFFFFFFFFFFFFFFFFFFFFFFFFFFFFFFFFFFF AND PUSH20 0xFFFFFFFFFFFFFFFFFFFFFFFFFFFFFFFFFFFFFFFF AND DUP2 MSTORE PUSH1 0x20 ADD SWAP1 DUP2 MSTORE PUSH1 0x20 ADD PUSH1 0x0 KECCAK256 DUP2 SWAP1 SSTORE POP PUSH2 0xB3C PUSH1 0x1 SLOAD DUP3 PUSH2 0xC60 JUMP JUMPDEST PUSH1 0x1 DUP2 SWAP1 SSTORE POP PUSH1 0x0 PUSH20 0xFFFFFFFFFFFFFFFFFFFFFFFFFFFFFFFFFFFFFFFF AND DUP3 PUSH20 0xFFFFFFFFFFFFFFFFFFFFFFFFFFFFFFFFFFFFFFFF AND PUSH32 0xDDF252AD1BE2C89B69C2B068FC378DAA952BA7F163C4A11628F55A4DF523B3EF DUP4 PUSH1 0x40 MLOAD PUSH2 0xBA0 SWAP2 SWAP1 PUSH2 0xEF9 JUMP JUMPDEST PUSH1 0x40 MLOAD DUP1 SWAP2 SUB SWAP1 LOG3 POP POP JUMP JUMPDEST PUSH1 0x0 PUSH2 0xBB9 CALLER DUP5 DUP5 PUSH2 0x3F3 JUMP JUMPDEST SWAP1 POP SWAP3 SWAP2 POP POP JUMP JUMPDEST PUSH1 0x0 PUSH1 0x20 MSTORE DUP1 PUSH1 0x0 MSTORE PUSH1 0x40 PUSH1 0x0 KECCAK256 PUSH1 0x0 SWAP2 POP SWAP1 POP SLOAD DUP2 JUMP JUMPDEST PUSH1 0x0 PUSH1 0x3 PUSH1 0x0 DUP5 PUSH20 0xFFFFFFFFFFFFFFFFFFFFFFFFFFFFFFFFFFFFFFFF AND PUSH20 0xFFFFFFFFFFFFFFFFFFFFFFFFFFFFFFFFFFFFFFFF AND DUP2 MSTORE PUSH1 0x20 ADD SWAP1 DUP2 MSTORE PUSH1 0x20 ADD PUSH1 0x0 KECCAK256 PUSH1 0x0 DUP4 PUSH20 0xFFFFFFFFFFFFFFFFFFFFFFFFFFFFFFFFFFFFFFFF AND PUSH20 0xFFFFFFFFFFFFFFFFFFFFFFFFFFFFFFFFFFFFFFFF AND DUP2 MSTORE PUSH1 0x20 ADD SWAP1 DUP2 MSTORE PUSH1 0x20 ADD PUSH1 0x0 KECCAK256 SLOAD SWAP1 POP SWAP3 SWAP2 POP POP JUMP JUMPDEST PUSH1 0x0 DUP3 DUP3 DUP5 PUSH2 0xC6F SWAP2 SWAP1 PUSH2 0xFA1 JUMP JUMPDEST SWAP2 POP DUP2 GT ISZERO PUSH2 0xC7D JUMPI PUSH1 0x0 DUP1 REVERT JUMPDEST SWAP3 SWAP2 POP POP JUMP JUMPDEST PUSH1 0x0 DUP3 DUP3 DUP5 PUSH2 0xC92 SWAP2 SWAP1 PUSH2 0xF4B JUMP JUMPDEST SWAP2 POP DUP2 LT ISZERO PUSH2 0xCA0 JUMPI PUSH1 0x0 DUP1 REVERT JUMPDEST SWAP3 SWAP2 POP POP JUMP JUMPDEST PUSH1 0x0 DUP2 CALLDATALOAD SWAP1 POP PUSH2 0xCB5 DUP2 PUSH2 0x10F4 JUMP JUMPDEST SWAP3 SWAP2 POP POP JUMP JUMPDEST PUSH1 0x0 DUP2 CALLDATALOAD SWAP1 POP PUSH2 0xCCA DUP2 PUSH2 0x110B JUMP JUMPDEST SWAP3 SWAP2 POP POP JUMP JUMPDEST PUSH1 0x0 PUSH1 0x20 DUP3 DUP5 SUB SLT ISZERO PUSH2 0xCE6 JUMPI PUSH2 0xCE5 PUSH2 0x108C JUMP JUMPDEST JUMPDEST PUSH1 0x0 PUSH2 0xCF4 DUP5 DUP3 DUP6 ADD PUSH2 0xCA6 JUMP JUMPDEST SWAP2 POP POP SWAP3 SWAP2 POP POP JUMP JUMPDEST PUSH1 0x0 DUP1 PUSH1 0x40 DUP4 DUP6 SUB SLT ISZERO PUSH2 0xD14 JUMPI PUSH2 0xD13 PUSH2 0x108C JUMP JUMPDEST JUMPDEST PUSH1 0x0 PUSH2 0xD22 DUP6 DUP3 DUP7 ADD PUSH2 0xCA6 JUMP JUMPDEST SWAP3 POP POP PUSH1 0x20 PUSH2 0xD33 DUP6 DUP3 DUP7 ADD PUSH2 0xCA6 JUMP JUMPDEST SWAP2 POP POP SWAP3 POP SWAP3 SWAP1 POP JUMP JUMPDEST PUSH1 0x0 DUP1 PUSH1 0x0 PUSH1 0x60 DUP5 DUP7 SUB SLT ISZERO PUSH2 0xD56 JUMPI PUSH2 0xD55 PUSH2 0x108C JUMP JUMPDEST JUMPDEST PUSH1 0x0 PUSH2 0xD64 DUP7 DUP3 DUP8 ADD PUSH2 0xCA6 JUMP JUMPDEST SWAP4 POP POP PUSH1 0x20 PUSH2 0xD75 DUP7 DUP3 DUP8 ADD PUSH2 0xCA6 JUMP JUMPDEST SWAP3 POP POP PUSH1 0x40 PUSH2 0xD86 DUP7 DUP3 DUP8 ADD PUSH2 0xCBB JUMP JUMPDEST SWAP2 POP POP SWAP3 POP SWAP3 POP SWAP3 JUMP JUMPDEST PUSH1 0x0 DUP1 PUSH1 0x40 DUP4 DUP6 SUB SLT ISZERO PUSH2 0xDA7 JUMPI PUSH2 0xDA6 PUSH2 0x108C JUMP JUMPDEST JUMPDEST PUSH1 0x0 PUSH2 0xDB5 DUP6 DUP3 DUP7 ADD PUSH2 0xCA6 JUMP JUMPDEST SWAP3 POP POP PUSH1 0x20 PUSH2 0xDC6 DUP6 DUP3 DUP7 ADD PUSH2 0xCBB JUMP JUMPDEST SWAP2 POP POP SWAP3 POP SWAP3 SWAP1 POP JUMP JUMPDEST PUSH2 0xDD9 DUP2 PUSH2 0xFE7 JUMP JUMPDEST DUP3 MSTORE POP POP JUMP JUMPDEST PUSH1 0x0 PUSH2 0xDEA DUP3 PUSH2 0xF2F JUMP JUMPDEST PUSH2 0xDF4 DUP2 DUP6 PUSH2 0xF3A JUMP JUMPDEST SWAP4 POP PUSH2 0xE04 DUP2 DUP6 PUSH1 0x20 DUP7 ADD PUSH2 0x102A JUMP JUMPDEST PUSH2 0xE0D DUP2 PUSH2 0x1091 JUMP JUMPDEST DUP5 ADD SWAP2 POP POP SWAP3 SWAP2 POP POP JUMP JUMPDEST PUSH1 0x0 PUSH2 0xE25 PUSH1 0x14 DUP4 PUSH2 0xF3A JUMP JUMPDEST SWAP2 POP PUSH2 0xE30 DUP3 PUSH2 0x10A2 JUMP JUMPDEST PUSH1 0x20 DUP3 ADD SWAP1 POP SWAP2 SWAP1 POP JUMP JUMPDEST PUSH1 0x0 PUSH2 0xE48 PUSH1 0xE DUP4 PUSH2 0xF3A JUMP JUMPDEST SWAP2 POP PUSH2 0xE53 DUP3 PUSH2 0x10CB JUMP JUMPDEST PUSH1 0x20 DUP3 ADD SWAP1 POP SWAP2 SWAP1 POP JUMP JUMPDEST PUSH2 0xE67 DUP2 PUSH2 0x1013 JUMP JUMPDEST DUP3 MSTORE POP POP JUMP JUMPDEST PUSH2 0xE76 DUP2 PUSH2 0x101D JUMP JUMPDEST DUP3 MSTORE POP POP JUMP JUMPDEST PUSH1 0x0 PUSH1 0x20 DUP3 ADD SWAP1 POP PUSH2 0xE91 PUSH1 0x0 DUP4 ADD DUP5 PUSH2 0xDD0 JUMP JUMPDEST SWAP3 SWAP2 POP POP JUMP JUMPDEST PUSH1 0x0 PUSH1 0x20 DUP3 ADD SWAP1 POP DUP2 DUP2 SUB PUSH1 0x0 DUP4 ADD MSTORE PUSH2 0xEB1 DUP2 DUP5 PUSH2 0xDDF JUMP JUMPDEST SWAP1 POP SWAP3 SWAP2 POP POP JUMP JUMPDEST PUSH1 0x0 PUSH1 0x20 DUP3 ADD SWAP1 POP DUP2 DUP2 SUB PUSH1 0x0 DUP4 ADD MSTORE PUSH2 0xED2 DUP2 PUSH2 0xE18 JUMP JUMPDEST SWAP1 POP SWAP2 SWAP1 POP JUMP JUMPDEST PUSH1 0x0 PUSH1 0x20 DUP3 ADD SWAP1 POP DUP2 DUP2 SUB PUSH1 0x0 DUP4 ADD MSTORE PUSH2 0xEF2 DUP2 PUSH2 0xE3B JUMP JUMPDEST SWAP1 POP SWAP2 SWAP1 POP JUMP JUMPDEST PUSH1 0x0 PUSH1 0x20 DUP3 ADD SWAP1 POP PUSH2 0xF0E PUSH1 0x0 DUP4 ADD DUP5 PUSH2 0xE5E JUMP JUMPDEST SWAP3 SWAP2 POP POP JUMP JUMPDEST PUSH1 0x0 PUSH1 0x20 DUP3 ADD SWAP1 POP PUSH2 0xF29 PUSH1 0x0 DUP4 ADD DUP5 PUSH2 0xE6D JUMP JUMPDEST SWAP3 SWAP2 POP POP JUMP JUMPDEST PUSH1 0x0 DUP2 MLOAD SWAP1 POP SWAP2 SWAP1 POP JUMP JUMPDEST PUSH1 0x0 DUP3 DUP3 MSTORE PUSH1 0x20 DUP3 ADD SWAP1 POP SWAP3 SWAP2 POP POP JUMP JUMPDEST PUSH1 0x0 PUSH2 0xF56 DUP3 PUSH2 0x1013 JUMP JUMPDEST SWAP2 POP PUSH2 0xF61 DUP4 PUSH2 0x1013 JUMP JUMPDEST SWAP3 POP DUP3 PUSH32 0xFFFFFFFFFFFFFFFFFFFFFFFFFFFFFFFFFFFFFFFFFFFFFFFFFFFFFFFFFFFFFFFF SUB DUP3 GT ISZERO PUSH2 0xF96 JUMPI PUSH2 0xF95 PUSH2 0x105D JUMP JUMPDEST JUMPDEST DUP3 DUP3 ADD SWAP1 POP SWAP3 SWAP2 POP POP JUMP JUMPDEST PUSH1 0x0 PUSH2 0xFAC DUP3 PUSH2 0x1013 JUMP JUMPDEST SWAP2 POP PUSH2 0xFB7 DUP4 PUSH2 0x1013 JUMP JUMPDEST SWAP3 POP DUP3 DUP3 LT ISZERO PUSH2 0xFCA JUMPI PUSH2 0xFC9 PUSH2 0x105D JUMP JUMPDEST JUMPDEST DUP3 DUP3 SUB SWAP1 POP SWAP3 SWAP2 POP POP JUMP JUMPDEST PUSH1 0x0 PUSH2 0xFE0 DUP3 PUSH2 0xFF3 JUMP JUMPDEST SWAP1 POP SWAP2 SWAP1 POP JUMP JUMPDEST PUSH1 0x0 DUP2 ISZERO ISZERO SWAP1 POP SWAP2 SWAP1 POP JUMP JUMPDEST PUSH1 0x0 PUSH20 0xFFFFFFFFFFFFFFFFFFFFFFFFFFFFFFFFFFFFFFFF DUP3 AND SWAP1 POP SWAP2 SWAP1 POP JUMP JUMPDEST PUSH1 0x0 DUP2 SWAP1 POP SWAP2 SWAP1 POP JUMP JUMPDEST PUSH1 0x0 PUSH1 0xFF DUP3 AND SWAP1 POP SWAP2 SWAP1 POP JUMP JUMPDEST PUSH1 0x0 JUMPDEST DUP4 DUP2 LT ISZERO PUSH2 0x1048 JUMPI DUP1 DUP3 ADD MLOAD DUP2 DUP5 ADD MSTORE PUSH1 0x20 DUP2 ADD SWAP1 POP PUSH2 0x102D JUMP JUMPDEST DUP4 DUP2 GT ISZERO PUSH2 0x1057 JUMPI PUSH1 0x0 DUP5 DUP5 ADD MSTORE JUMPDEST POP POP POP POP JUMP JUMPDEST PUSH32 0x4E487B7100000000000000000000000000000000000000000000000000000000 PUSH1 0x0 MSTORE PUSH1 0x11 PUSH1 0x4 MSTORE PUSH1 0x24 PUSH1 0x0 REVERT JUMPDEST PUSH1 0x0 DUP1 REVERT JUMPDEST PUSH1 0x0 PUSH1 0x1F NOT PUSH1 0x1F DUP4 ADD AND SWAP1 POP SWAP2 SWAP1 POP JUMP JUMPDEST PUSH32 0x696E73756666696369656E742D62616C616E6365000000000000000000000000 PUSH1 0x0 DUP3 ADD MSTORE POP JUMP JUMPDEST PUSH32 0x4E6F742D617574686F72697A6564000000000000000000000000000000000000 PUSH1 0x0 DUP3 ADD MSTORE POP JUMP JUMPDEST PUSH2 0x10FD DUP2 PUSH2 0xFD5 JUMP JUMPDEST DUP2 EQ PUSH2 0x1108 JUMPI PUSH1 0x0 DUP1 REVERT JUMPDEST POP JUMP JUMPDEST PUSH2 0x1114 DUP2 PUSH2 0x1013 JUMP JUMPDEST DUP2 EQ PUSH2 0x111F JUMPI PUSH1 0x0 DUP1 REVERT JUMPDEST POP JUMP INVALID LOG2 PUSH5 0x6970667358 0x22 SLT KECCAK256 EXTCODECOPY CALLDATASIZE 0xB4 DUP9 0xBE 0xEC 0xBB ISZERO DUP8 0xD0 DIFFICULTY DUP8 0xBE PUSH4 0x710E146 0x4B 0xA6 0x5F PUSH3 0x55DF3C 0xD9 XOR RETURN 0xBA DUP11 JUMP SWAP3 PUSH5 0x736F6C6343 STOP ADDMOD SMOD STOP CALLER "
				},
				"gasEstimates": {
					"creation": {
						"codeDepositCost": "888000",
						"executionCost": "28139",
						"totalCost": "916139"
					},
					"external": {
						"allowance(address,address)": "infinite",
						"approve(address,uint256)": "infinite",
						"balanceOf(address)": "2886",
						"burn(address,uint256)": "infinite",
						"decimals()": "424",
						"mint(address,uint256)": "infinite",
						"name()": "infinite",
						"symbol()": "infinite",
						"totalSupply()": "2474",
						"transfer(address,uint256)": "infinite",
						"transferFrom(address,address,uint256)": "infinite",
						"version()": "infinite",
						"wards(address)": "2880"
					},
					"internal": {
						"add(uint256,uint256)": "infinite",
						"sub(uint256,uint256)": "infinite"
					}
				},
				"methodIdentifiers": {
					"allowance(address,address)": "dd62ed3e",
					"approve(address,uint256)": "095ea7b3",
					"balanceOf(address)": "70a08231",
					"burn(address,uint256)": "9dc29fac",
					"decimals()": "313ce567",
					"mint(address,uint256)": "40c10f19",
					"name()": "06fdde03",
					"symbol()": "95d89b41",
					"totalSupply()": "18160ddd",
					"transfer(address,uint256)": "a9059cbb",
					"transferFrom(address,address,uint256)": "23b872dd",
					"version()": "54fd4d50",
					"wards(address)": "bf353dbb"
				}
			},
			"storageLayout": {
				"storage": [
					{
						"astId": 5,
						"contract": "contracts/coin_development.sol:StableCoin",
						"label": "wards",
						"offset": 0,
						"slot": "0",
						"type": "t_mapping(t_address,t_uint256)"
					},
					{
						"astId": 33,
						"contract": "contracts/coin_development.sol:StableCoin",
						"label": "totalSupply",
						"offset": 0,
						"slot": "1",
						"type": "t_uint256"
					},
					{
						"astId": 53,
						"contract": "contracts/coin_development.sol:StableCoin",
						"label": "balances",
						"offset": 0,
						"slot": "2",
						"type": "t_mapping(t_address,t_uint256)"
					},
					{
						"astId": 59,
						"contract": "contracts/coin_development.sol:StableCoin",
						"label": "allowed",
						"offset": 0,
						"slot": "3",
						"type": "t_mapping(t_address,t_mapping(t_address,t_uint256))"
					}
				],
				"types": {
					"t_address": {
						"encoding": "inplace",
						"label": "address",
						"numberOfBytes": "20"
					},
					"t_mapping(t_address,t_mapping(t_address,t_uint256))": {
						"encoding": "mapping",
						"key": "t_address",
						"label": "mapping(address => mapping(address => uint256))",
						"numberOfBytes": "32",
						"value": "t_mapping(t_address,t_uint256)"
					},
					"t_mapping(t_address,t_uint256)": {
						"encoding": "mapping",
						"key": "t_address",
						"label": "mapping(address => uint256)",
						"numberOfBytes": "32",
						"value": "t_uint256"
					},
					"t_uint256": {
						"encoding": "inplace",
						"label": "uint256",
						"numberOfBytes": "32"
					}
				}
			},
			"userdoc": {
				"kind": "user",
				"methods": {},
				"version": 1
			}
		}
	}
}